{"contractName":"AttributeStore","abi":[{"constant":true,"inputs":[{"name":"self","type":"AttributeStore.Data storage"},{"name":"_UUID","type":"bytes32"},{"name":"_attrName","type":"string"}],"name":"getAttribute","outputs":[{"name":"","type":"uint256"}],"payable":false,"stateMutability":"view","type":"function"},{"constant":false,"inputs":[{"name":"self","type":"AttributeStore.Data storage"},{"name":"_UUID","type":"bytes32"},{"name":"_attrName","type":"string"},{"name":"_attrVal","type":"uint256"}],"name":"attachAttribute","outputs":[],"payable":false,"stateMutability":"nonpayable","type":"function"}],"bytecode":"0x6060604052341561000f57600080fd5b610b888061001e6000396000f30060606040526004361061004c576000357c0100000000000000000000000000000000000000000000000000000000900463ffffffff16806350389f5c14610051578063f8f42244146100cd575b600080fd5b6100b760048080359060200190919080356000191690602001909190803590602001908201803590602001908080601f0160208091040260200160405190810160405280939291908181526020018383808284378201915050505050509190505061013e565b6040518082815260200191505060405180910390f35b61013c60048080359060200190919080356000191690602001909190803590602001908201803590602001908080601f0160208091040260200160405190810160405280939291908181526020018383808284378201915050505050509190803590602001909190505061064d565b005b6000807fef2b3b9404d10de3673ef908fc37b1036850ef3b5304093ae49ba0f47a2986e160016040518080602001838152602001828103825260618152602001807f2f55736572732f73686f6b6973686f6b692f646576656c6f706d656e742f636f81526020017f6e73656e7379732f646973747269627574652f636f6e7472616374732f636f6e81526020017f7472616374732f6c6962726172792f41747472696275746553746f72652e736f81526020017f6c000000000000000000000000000000000000000000000000000000000000008152506080019250505060405180910390a17f91aea63de4823e7052df90dbb2be659b75d068b4c1171b70225a0d0827d76f8a60096040518080602001838152602001828103825260618152602001807f2f55736572732f73686f6b6973686f6b692f646576656c6f706d656e742f636f81526020017f6e73656e7379732f646973747269627574652f636f6e7472616374732f636f6e81526020017f7472616374732f6c6962726172792f41747472696275746553746f72652e736f81526020017f6c000000000000000000000000000000000000000000000000000000000000008152506080019250505060405180910390a17f6e55d8fa527fedd0742b778fb5078b3a234d2d9b3ab4d46517b04e86b0f6766e60016040518080602001838152602001828103825260618152602001807f2f55736572732f73686f6b6973686f6b692f646576656c6f706d656e742f636f81526020017f6e73656e7379732f646973747269627574652f636f6e7472616374732f636f6e81526020017f7472616374732f6c6962726172792f41747472696275746553746f72652e736f81526020017f6c000000000000000000000000000000000000000000000000000000000000008152506080019250505060405180910390a1838360405180836000191660001916815260200182805190602001908083835b60208310151561042f578051825260208201915060208101905060208303925061040a565b6001836020036101000a03801982511681845116808217855250505050505090500192505050604051809103902090507f91aea63de4823e7052df90dbb2be659b75d068b4c1171b70225a0d0827d76f8a600a6040518080602001838152602001828103825260618152602001807f2f55736572732f73686f6b6973686f6b692f646576656c6f706d656e742f636f81526020017f6e73656e7379732f646973747269627574652f636f6e7472616374732f636f6e81526020017f7472616374732f6c6962726172792f41747472696275746553746f72652e736f81526020017f6c000000000000000000000000000000000000000000000000000000000000008152506080019250505060405180910390a17f6e55d8fa527fedd0742b778fb5078b3a234d2d9b3ab4d46517b04e86b0f6766e60026040518080602001838152602001828103825260618152602001807f2f55736572732f73686f6b6973686f6b692f646576656c6f706d656e742f636f81526020017f6e73656e7379732f646973747269627574652f636f6e7472616374732f636f6e81526020017f7472616374732f6c6962726172792f41747472696275746553746f72652e736f81526020017f6c000000000000000000000000000000000000000000000000000000000000008152506080019250505060405180910390a18460000160008260001916600019168152602001908152602001600020549150509392505050565b60007fef2b3b9404d10de3673ef908fc37b1036850ef3b5304093ae49ba0f47a2986e160026040518080602001838152602001828103825260618152602001807f2f55736572732f73686f6b6973686f6b692f646576656c6f706d656e742f636f81526020017f6e73656e7379732f646973747269627574652f636f6e7472616374732f636f6e81526020017f7472616374732f6c6962726172792f41747472696275746553746f72652e736f81526020017f6c000000000000000000000000000000000000000000000000000000000000008152506080019250505060405180910390a17f91aea63de4823e7052df90dbb2be659b75d068b4c1171b70225a0d0827d76f8a600e6040518080602001838152602001828103825260618152602001807f2f55736572732f73686f6b6973686f6b692f646576656c6f706d656e742f636f81526020017f6e73656e7379732f646973747269627574652f636f6e7472616374732f636f6e81526020017f7472616374732f6c6962726172792f41747472696275746553746f72652e736f81526020017f6c000000000000000000000000000000000000000000000000000000000000008152506080019250505060405180910390a17f6e55d8fa527fedd0742b778fb5078b3a234d2d9b3ab4d46517b04e86b0f6766e60036040518080602001838152602001828103825260618152602001807f2f55736572732f73686f6b6973686f6b692f646576656c6f706d656e742f636f81526020017f6e73656e7379732f646973747269627574652f636f6e7472616374732f636f6e81526020017f7472616374732f6c6962726172792f41747472696275746553746f72652e736f81526020017f6c000000000000000000000000000000000000000000000000000000000000008152506080019250505060405180910390a1838360405180836000191660001916815260200182805190602001908083835b60208310151561093d5780518252602082019150602081019050602083039250610918565b6001836020036101000a03801982511681845116808217855250505050505090500192505050604051809103902090507f91aea63de4823e7052df90dbb2be659b75d068b4c1171b70225a0d0827d76f8a600f6040518080602001838152602001828103825260618152602001807f2f55736572732f73686f6b6973686f6b692f646576656c6f706d656e742f636f81526020017f6e73656e7379732f646973747269627574652f636f6e7472616374732f636f6e81526020017f7472616374732f6c6962726172792f41747472696275746553746f72652e736f81526020017f6c000000000000000000000000000000000000000000000000000000000000008152506080019250505060405180910390a17f6e55d8fa527fedd0742b778fb5078b3a234d2d9b3ab4d46517b04e86b0f6766e60046040518080602001838152602001828103825260618152602001807f2f55736572732f73686f6b6973686f6b692f646576656c6f706d656e742f636f81526020017f6e73656e7379732f646973747269627574652f636f6e7472616374732f636f6e81526020017f7472616374732f6c6962726172792f41747472696275746553746f72652e736f81526020017f6c000000000000000000000000000000000000000000000000000000000000008152506080019250505060405180910390a18185600001600083600019166000191681526020019081526020016000208190555050505050505600a165627a7a7230582034f5b5e44ca1b735f3004c769d3cff2cb09d2e4cfe76cd3781ae0c3840d0f8040029","source":"pragma solidity ^0.4.19;\r\n\r\nlibrary AttributeStore {event __CoverageAttributeStore(string fileName, uint256 lineNumber);\nevent __FunctionCoverageAttributeStore(string fileName, uint256 fnId);\nevent __StatementCoverageAttributeStore(string fileName, uint256 statementId);\nevent __BranchCoverageAttributeStore(string fileName, uint256 branchId, uint256 locationIdx);\nevent __AssertPreCoverageAttributeStore(string fileName, uint256 branchId);\nevent __AssertPostCoverageAttributeStore(string fileName, uint256 branchId);\n\r\n    struct Data {\r\n        mapping(bytes32 => uint) store;\r\n    }\r\n\r\n    function getAttribute(Data storage self, bytes32 _UUID, string _attrName) public  returns (uint) {__FunctionCoverageAttributeStore('/Users/shokishoki/development/consensys/distribute/contracts/contracts/library/AttributeStore.sol',1);\n\r\n__CoverageAttributeStore('/Users/shokishoki/development/consensys/distribute/contracts/contracts/library/AttributeStore.sol',9);\n         __StatementCoverageAttributeStore('/Users/shokishoki/development/consensys/distribute/contracts/contracts/library/AttributeStore.sol',1);\nbytes32 key = keccak256(_UUID, _attrName);\r\n__CoverageAttributeStore('/Users/shokishoki/development/consensys/distribute/contracts/contracts/library/AttributeStore.sol',10);\n         __StatementCoverageAttributeStore('/Users/shokishoki/development/consensys/distribute/contracts/contracts/library/AttributeStore.sol',2);\nreturn self.store[key];\r\n    }\r\n\r\n    function attachAttribute(Data storage self, bytes32 _UUID, string _attrName, uint _attrVal) public {__FunctionCoverageAttributeStore('/Users/shokishoki/development/consensys/distribute/contracts/contracts/library/AttributeStore.sol',2);\n\r\n__CoverageAttributeStore('/Users/shokishoki/development/consensys/distribute/contracts/contracts/library/AttributeStore.sol',14);\n         __StatementCoverageAttributeStore('/Users/shokishoki/development/consensys/distribute/contracts/contracts/library/AttributeStore.sol',3);\nbytes32 key = keccak256(_UUID, _attrName);\r\n__CoverageAttributeStore('/Users/shokishoki/development/consensys/distribute/contracts/contracts/library/AttributeStore.sol',15);\n         __StatementCoverageAttributeStore('/Users/shokishoki/development/consensys/distribute/contracts/contracts/library/AttributeStore.sol',4);\nself.store[key] = _attrVal;\r\n    }\r\n}\r\n","sourcePath":"/Users/shokishoki/development/consensys/distribute/contracts/coverageEnv/contracts/library/AttributeStore.sol","compiler":{"name":"solc","version":"0.4.19+commit.c4cbbb05.Emscripten.clang"},"schemaVersion":"2.0.0","updatedAt":"2018-03-21T15:13:01.042Z"}