{"contractName":"DistributeToken","abi":[{"constant":true,"inputs":[],"name":"weiBal","outputs":[{"name":"","type":"uint256"}],"payable":false,"stateMutability":"view","type":"function"},{"constant":true,"inputs":[],"name":"name","outputs":[{"name":"","type":"string"}],"payable":false,"stateMutability":"view","type":"function"},{"constant":false,"inputs":[{"name":"_spender","type":"address"},{"name":"_value","type":"uint256"}],"name":"approve","outputs":[{"name":"success","type":"bool"}],"payable":false,"stateMutability":"nonpayable","type":"function"},{"constant":true,"inputs":[],"name":"totalSupply","outputs":[{"name":"","type":"uint256"}],"payable":false,"stateMutability":"view","type":"function"},{"constant":false,"inputs":[{"name":"_from","type":"address"},{"name":"_to","type":"address"},{"name":"_value","type":"uint256"}],"name":"transferFrom","outputs":[{"name":"success","type":"bool"}],"payable":false,"stateMutability":"nonpayable","type":"function"},{"constant":true,"inputs":[],"name":"decimals","outputs":[{"name":"","type":"uint8"}],"payable":false,"stateMutability":"view","type":"function"},{"constant":true,"inputs":[{"name":"_owner","type":"address"}],"name":"balanceOf","outputs":[{"name":"balance","type":"uint256"}],"payable":false,"stateMutability":"view","type":"function"},{"constant":true,"inputs":[],"name":"symbol","outputs":[{"name":"","type":"string"}],"payable":false,"stateMutability":"view","type":"function"},{"constant":false,"inputs":[{"name":"_to","type":"address"},{"name":"_value","type":"uint256"}],"name":"transfer","outputs":[{"name":"success","type":"bool"}],"payable":false,"stateMutability":"nonpayable","type":"function"},{"constant":true,"inputs":[{"name":"_owner","type":"address"},{"name":"_spender","type":"address"}],"name":"allowance","outputs":[{"name":"remaining","type":"uint256"}],"payable":false,"stateMutability":"view","type":"function"},{"inputs":[{"name":"_tokenRegistry","type":"address"},{"name":"_reputationRegistry","type":"address"}],"payable":false,"stateMutability":"nonpayable","type":"constructor"},{"payable":true,"stateMutability":"payable","type":"fallback"},{"anonymous":false,"inputs":[{"indexed":false,"name":"amountMinted","type":"uint256"},{"indexed":false,"name":"totalCost","type":"uint256"}],"name":"LogMint","type":"event"},{"anonymous":false,"inputs":[{"indexed":false,"name":"amountWithdrawn","type":"uint256"},{"indexed":false,"name":"reward","type":"uint256"}],"name":"LogWithdraw","type":"event"},{"anonymous":false,"inputs":[{"indexed":true,"name":"_from","type":"address"},{"indexed":true,"name":"_to","type":"address"},{"indexed":false,"name":"_value","type":"uint256"}],"name":"Transfer","type":"event"},{"anonymous":false,"inputs":[{"indexed":true,"name":"_owner","type":"address"},{"indexed":true,"name":"_spender","type":"address"},{"indexed":false,"name":"_value","type":"uint256"}],"name":"Approval","type":"event"},{"constant":true,"inputs":[],"name":"currentPrice","outputs":[{"name":"","type":"uint256"}],"payable":false,"stateMutability":"view","type":"function"},{"constant":true,"inputs":[{"name":"_tokens","type":"uint256"}],"name":"weiRequired","outputs":[{"name":"","type":"uint256"}],"payable":false,"stateMutability":"view","type":"function"},{"constant":false,"inputs":[{"name":"_tokens","type":"uint256"}],"name":"mint","outputs":[],"payable":true,"stateMutability":"payable","type":"function"},{"constant":false,"inputs":[{"name":"_tokens","type":"uint256"}],"name":"burn","outputs":[],"payable":false,"stateMutability":"nonpayable","type":"function"},{"constant":false,"inputs":[{"name":"_tokens","type":"uint256"}],"name":"sell","outputs":[],"payable":false,"stateMutability":"nonpayable","type":"function"},{"constant":false,"inputs":[{"name":"_address","type":"address"},{"name":"_weiValue","type":"uint256"}],"name":"transferWeiTo","outputs":[],"payable":false,"stateMutability":"nonpayable","type":"function"},{"constant":false,"inputs":[{"name":"_weiValue","type":"uint256"}],"name":"returnWei","outputs":[],"payable":false,"stateMutability":"nonpayable","type":"function"},{"constant":false,"inputs":[{"name":"_owner","type":"address"},{"name":"_tokens","type":"uint256"}],"name":"transferToEscrow","outputs":[{"name":"","type":"bool"}],"payable":false,"stateMutability":"nonpayable","type":"function"},{"constant":false,"inputs":[{"name":"_receipient","type":"address"},{"name":"_tokens","type":"uint256"}],"name":"transferFromEscrow","outputs":[{"name":"","type":"bool"}],"payable":false,"stateMutability":"nonpayable","type":"function"}],"bytecode":"0x60606040526000600555652d79883d200060075534156200001f57600080fd5b6040516040806200a8bc833981016040528080519060200190919080519060200190919050507f4406261c1d7d5e139e4c1192b5ff49ff4f4bc04cd96e3935d6df8444d5af87de600360405180806020018381526020018281038252605a8152602001807f2f55736572732f73686f6b6973686f6b692f646576656c6f706d656e742f636f81526020017f6e73656e7379732f646973747269627574652f636f6e7472616374732f636f6e81526020017f7472616374732f44697374726962757465546f6b656e2e736f6c0000000000008152506060019250505060405180910390a17f7932d36ec58672eb75ccd3c9adc80b64bb178911f4fff799e13f3bb53e29f657604560405180806020018381526020018281038252605a8152602001807f2f55736572732f73686f6b6973686f6b692f646576656c6f706d656e742f636f81526020017f6e73656e7379732f646973747269627574652f636f6e7472616374732f636f6e81526020017f7472616374732f44697374726962757465546f6b656e2e736f6c0000000000008152506060019250505060405180910390a17f56679d61ea0100261cc596a8af6170246d92aa5919325bdfbdd11d2494ac45a3600360405180806020018381526020018281038252605a8152602001807f2f55736572732f73686f6b6973686f6b692f646576656c6f706d656e742f636f81526020017f6e73656e7379732f646973747269627574652f636f6e7472616374732f636f6e81526020017f7472616374732f44697374726962757465546f6b656e2e736f6c0000000000008152506060019250505060405180910390a17fb1ee757629b3a3b8ae76fba84cb4ceffdca3d94bfa41ef064c1401e4744f2fa3600360405180806020018381526020018281038252605a8152602001807f2f55736572732f73686f6b6973686f6b692f646576656c6f706d656e742f636f81526020017f6e73656e7379732f646973747269627574652f636f6e7472616374732f636f6e81526020017f7472616374732f44697374726962757465546f6b656e2e736f6c0000000000008152506060019250505060405180910390a16000600360009054906101000a900473ffffffffffffffffffffffffffffffffffffffff1673ffffffffffffffffffffffffffffffffffffffff16148015620003ba57506000600460009054906101000a900473ffffffffffffffffffffffffffffffffffffffff1673ffffffffffffffffffffffffffffffffffffffff16145b1515620003c657600080fd5b7f327394e5314479530bf061acc0340ef760614b662f79855a3a128cfdb02d02d5600360405180806020018381526020018281038252605a8152602001807f2f55736572732f73686f6b6973686f6b692f646576656c6f706d656e742f636f81526020017f6e73656e7379732f646973747269627574652f636f6e7472616374732f636f6e81526020017f7472616374732f44697374726962757465546f6b656e2e736f6c0000000000008152506060019250505060405180910390a17f7932d36ec58672eb75ccd3c9adc80b64bb178911f4fff799e13f3bb53e29f657604760405180806020018381526020018281038252605a8152602001807f2f55736572732f73686f6b6973686f6b692f646576656c6f706d656e742f636f81526020017f6e73656e7379732f646973747269627574652f636f6e7472616374732f636f6e81526020017f7472616374732f44697374726962757465546f6b656e2e736f6c0000000000008152506060019250505060405180910390a17fb1ee757629b3a3b8ae76fba84cb4ceffdca3d94bfa41ef064c1401e4744f2fa3600460405180806020018381526020018281038252605a8152602001807f2f55736572732f73686f6b6973686f6b692f646576656c6f706d656e742f636f81526020017f6e73656e7379732f646973747269627574652f636f6e7472616374732f636f6e81526020017f7472616374732f44697374726962757465546f6b656e2e736f6c0000000000008152506060019250505060405180910390a181600360006101000a81548173ffffffffffffffffffffffffffffffffffffffff021916908373ffffffffffffffffffffffffffffffffffffffff1602179055507f7932d36ec58672eb75ccd3c9adc80b64bb178911f4fff799e13f3bb53e29f657604860405180806020018381526020018281038252605a8152602001807f2f55736572732f73686f6b6973686f6b692f646576656c6f706d656e742f636f81526020017f6e73656e7379732f646973747269627574652f636f6e7472616374732f636f6e81526020017f7472616374732f44697374726962757465546f6b656e2e736f6c0000000000008152506060019250505060405180910390a17fb1ee757629b3a3b8ae76fba84cb4ceffdca3d94bfa41ef064c1401e4744f2fa3600560405180806020018381526020018281038252605a8152602001807f2f55736572732f73686f6b6973686f6b692f646576656c6f706d656e742f636f81526020017f6e73656e7379732f646973747269627574652f636f6e7472616374732f636f6e81526020017f7472616374732f44697374726962757465546f6b656e2e736f6c0000000000008152506060019250505060405180910390a180600460006101000a81548173ffffffffffffffffffffffffffffffffffffffff021916908373ffffffffffffffffffffffffffffffffffffffff160217905550505061a0b1806200080b6000396000f300606060405260043610610107576000357c0100000000000000000000000000000000000000000000000000000000900463ffffffff168063065d5d0a146101c657806306fdde03146101ef578063095ea7b31461027d57806318160ddd146102d757806323b872dd146103005780632737c84c14610379578063283760fa146103b0578063313ce5671461040a57806342966c681461043957806353c333cd1461045c57806370a082311461049e57806395d89b41146104eb5780639d1b464a146105795780639e88fd81146105a2578063a0712d68146105fc578063a9059cbb14610614578063dd62ed3e1461066e578063e4849b32146106da578063e99364ed146106fd575b7f4406261c1d7d5e139e4c1192b5ff49ff4f4bc04cd96e3935d6df8444d5af87de600460405180806020018381526020018281038252605a8152602001807f2f55736572732f73686f6b6973686f6b692f646576656c6f706d656e742f636f81526020017f6e73656e7379732f646973747269627574652f636f6e7472616374732f636f6e81526020017f7472616374732f44697374726962757465546f6b656e2e736f6c0000000000008152506060019250505060405180910390a1005b34156101d157600080fd5b6101d9610720565b6040518082815260200191505060405180910390f35b34156101fa57600080fd5b610202610726565b6040518080602001828103825283818151815260200191508051906020019080838360005b83811015610242578082015181840152602081019050610227565b50505050905090810190601f16801561026f5780820380516001836020036101000a031916815260200191505b509250505060405180910390f35b341561028857600080fd5b6102bd600480803573ffffffffffffffffffffffffffffffffffffffff1690602001909190803590602001909190505061075f565b604051808215151515815260200191505060405180910390f35b34156102e257600080fd5b6102ea610d7c565b6040518082815260200191505060405180910390f35b341561030b57600080fd5b61035f600480803573ffffffffffffffffffffffffffffffffffffffff1690602001909190803573ffffffffffffffffffffffffffffffffffffffff16906020019091908035906020019091905050610d82565b604051808215151515815260200191505060405180910390f35b341561038457600080fd5b61039a6004808035906020019091905050611fb4565b6040518082815260200191505060405180910390f35b34156103bb57600080fd5b6103f0600480803573ffffffffffffffffffffffffffffffffffffffff16906020019091908035906020019091905050612502565b604051808215151515815260200191505060405180910390f35b341561041557600080fd5b61041d6132df565b604051808260ff1660ff16815260200191505060405180910390f35b341561044457600080fd5b61045a60048080359060200190919050506132e4565b005b341561046757600080fd5b61049c600480803573ffffffffffffffffffffffffffffffffffffffff16906020019091908035906020019091905050613ed0565b005b34156104a957600080fd5b6104d5600480803573ffffffffffffffffffffffffffffffffffffffff16906020019091905050614a3f565b6040518082815260200191505060405180910390f35b34156104f657600080fd5b6104fe614cbf565b6040518080602001828103825283818151815260200191508051906020019080838360005b8381101561053e578082015181840152602081019050610523565b50505050905090810190601f16801561056b5780820380516001836020036101000a031916815260200191505b509250505060405180910390f35b341561058457600080fd5b61058c614cf8565b6040518082815260200191505060405180910390f35b34156105ad57600080fd5b6105e2600480803573ffffffffffffffffffffffffffffffffffffffff169060200190919080359060200190919050506154bd565b604051808215151515815260200191505060405180910390f35b610612600480803590602001909190505061629a565b005b341561061f57600080fd5b610654600480803573ffffffffffffffffffffffffffffffffffffffff1690602001909190803590602001909190505061734f565b604051808215151515815260200191505060405180910390f35b341561067957600080fd5b6106c4600480803573ffffffffffffffffffffffffffffffffffffffff1690602001909190803573ffffffffffffffffffffffffffffffffffffffff16906020019091905050617e41565b6040518082815260200191505060405180910390f35b34156106e557600080fd5b6106fb60048080359060200190919050506180ff565b005b341561070857600080fd5b61071e6004808035906020019091905050618e32565b005b60065481565b6040805190810160405280601981526020017f4469737472696275746564205574696c69747920546f6b656e0000000000000081525081565b60007f09ebf846b40187f704b7f97bc1be185391629e7d7fa57c671b029a1d8acead6660046040518080602001838152602001828103825260608152602001807f2f55736572732f73686f6b6973686f6b692f646576656c6f706d656e742f636f81526020017f6e73656e7379732f646973747269627574652f636f6e7472616374732f636f6e81526020017f7472616374732f6c6962726172792f5374616e64617264546f6b656e2e736f6c8152506060019250505060405180910390a17f31e8ebbced4f2465773e447e85b737720952e2a402874186bd456517d87ce67a60306040518080602001838152602001828103825260608152602001807f2f55736572732f73686f6b6973686f6b692f646576656c6f706d656e742f636f81526020017f6e73656e7379732f646973747269627574652f636f6e7472616374732f636f6e81526020017f7472616374732f6c6962726172792f5374616e64617264546f6b656e2e736f6c8152506060019250505060405180910390a17fc43c381520fd693ad4124a6e5ca5fa48825776c28759a7932989ac80df57eaf6600f6040518080602001838152602001828103825260608152602001807f2f55736572732f73686f6b6973686f6b692f646576656c6f706d656e742f636f81526020017f6e73656e7379732f646973747269627574652f636f6e7472616374732f636f6e81526020017f7472616374732f6c6962726172792f5374616e64617264546f6b656e2e736f6c8152506060019250505060405180910390a181600260003373ffffffffffffffffffffffffffffffffffffffff1673ffffffffffffffffffffffffffffffffffffffff16815260200190815260200160002060008573ffffffffffffffffffffffffffffffffffffffff1673ffffffffffffffffffffffffffffffffffffffff168152602001908152602001600020819055507f31e8ebbced4f2465773e447e85b737720952e2a402874186bd456517d87ce67a60316040518080602001838152602001828103825260608152602001807f2f55736572732f73686f6b6973686f6b692f646576656c6f706d656e742f636f81526020017f6e73656e7379732f646973747269627574652f636f6e7472616374732f636f6e81526020017f7472616374732f6c6962726172792f5374616e64617264546f6b656e2e736f6c8152506060019250505060405180910390a17fc43c381520fd693ad4124a6e5ca5fa48825776c28759a7932989ac80df57eaf660106040518080602001838152602001828103825260608152602001807f2f55736572732f73686f6b6973686f6b692f646576656c6f706d656e742f636f81526020017f6e73656e7379732f646973747269627574652f636f6e7472616374732f636f6e81526020017f7472616374732f6c6962726172792f5374616e64617264546f6b656e2e736f6c8152506060019250505060405180910390a18273ffffffffffffffffffffffffffffffffffffffff163373ffffffffffffffffffffffffffffffffffffffff167f8c5be1e5ebec7d5bd14f71427d1e84f3dd0314c0f7b2291e5b200ac8c7c3b925846040518082815260200191505060405180910390a37f31e8ebbced4f2465773e447e85b737720952e2a402874186bd456517d87ce67a60326040518080602001838152602001828103825260608152602001807f2f55736572732f73686f6b6973686f6b692f646576656c6f706d656e742f636f81526020017f6e73656e7379732f646973747269627574652f636f6e7472616374732f636f6e81526020017f7472616374732f6c6962726172792f5374616e64617264546f6b656e2e736f6c8152506060019250505060405180910390a17fc43c381520fd693ad4124a6e5ca5fa48825776c28759a7932989ac80df57eaf660116040518080602001838152602001828103825260608152602001807f2f55736572732f73686f6b6973686f6b692f646576656c6f706d656e742f636f81526020017f6e73656e7379732f646973747269627574652f636f6e7472616374732f636f6e81526020017f7472616374732f6c6962726172792f5374616e64617264546f6b656e2e736f6c8152506060019250505060405180910390a16001905092915050565b60055481565b6000807f09ebf846b40187f704b7f97bc1be185391629e7d7fa57c671b029a1d8acead6660026040518080602001838152602001828103825260608152602001807f2f55736572732f73686f6b6973686f6b692f646576656c6f706d656e742f636f81526020017f6e73656e7379732f646973747269627574652f636f6e7472616374732f636f6e81526020017f7472616374732f6c6962726172792f5374616e64617264546f6b656e2e736f6c8152506060019250505060405180910390a17f31e8ebbced4f2465773e447e85b737720952e2a402874186bd456517d87ce67a60206040518080602001838152602001828103825260608152602001807f2f55736572732f73686f6b6973686f6b692f646576656c6f706d656e742f636f81526020017f6e73656e7379732f646973747269627574652f636f6e7472616374732f636f6e81526020017f7472616374732f6c6962726172792f5374616e64617264546f6b656e2e736f6c8152506060019250505060405180910390a17fc43c381520fd693ad4124a6e5ca5fa48825776c28759a7932989ac80df57eaf660066040518080602001838152602001828103825260608152602001807f2f55736572732f73686f6b6973686f6b692f646576656c6f706d656e742f636f81526020017f6e73656e7379732f646973747269627574652f636f6e7472616374732f636f6e81526020017f7472616374732f6c6962726172792f5374616e64617264546f6b656e2e736f6c8152506060019250505060405180910390a1600260008673ffffffffffffffffffffffffffffffffffffffff1673ffffffffffffffffffffffffffffffffffffffff16815260200190815260200160002060003373ffffffffffffffffffffffffffffffffffffffff1673ffffffffffffffffffffffffffffffffffffffff1681526020019081526020016000205490507f31e8ebbced4f2465773e447e85b737720952e2a402874186bd456517d87ce67a60216040518080602001838152602001828103825260608152602001807f2f55736572732f73686f6b6973686f6b692f646576656c6f706d656e742f636f81526020017f6e73656e7379732f646973747269627574652f636f6e7472616374732f636f6e81526020017f7472616374732f6c6962726172792f5374616e64617264546f6b656e2e736f6c8152506060019250505060405180910390a17fcdf14e7a9a596081e1992260c2a6e5e1acf35cd2f7589e47f09e7e6889950c1c60026040518080602001838152602001828103825260608152602001807f2f55736572732f73686f6b6973686f6b692f646576656c6f706d656e742f636f81526020017f6e73656e7379732f646973747269627574652f636f6e7472616374732f636f6e81526020017f7472616374732f6c6962726172792f5374616e64617264546f6b656e2e736f6c8152506060019250505060405180910390a17fc43c381520fd693ad4124a6e5ca5fa48825776c28759a7932989ac80df57eaf660076040518080602001838152602001828103825260608152602001807f2f55736572732f73686f6b6973686f6b692f646576656c6f706d656e742f636f81526020017f6e73656e7379732f646973747269627574652f636f6e7472616374732f636f6e81526020017f7472616374732f6c6962726172792f5374616e64617264546f6b656e2e736f6c8152506060019250505060405180910390a182600160008773ffffffffffffffffffffffffffffffffffffffff1673ffffffffffffffffffffffffffffffffffffffff16815260200190815260200160002054101580156112c15750828110155b15156112cc57600080fd5b7f62276321d1faf197020d3056f6accd3216cfcdbd8f1d3de200282a4923e3e53960026040518080602001838152602001828103825260608152602001807f2f55736572732f73686f6b6973686f6b692f646576656c6f706d656e742f636f81526020017f6e73656e7379732f646973747269627574652f636f6e7472616374732f636f6e81526020017f7472616374732f6c6962726172792f5374616e64617264546f6b656e2e736f6c8152506060019250505060405180910390a17f31e8ebbced4f2465773e447e85b737720952e2a402874186bd456517d87ce67a60226040518080602001838152602001828103825260608152602001807f2f55736572732f73686f6b6973686f6b692f646576656c6f706d656e742f636f81526020017f6e73656e7379732f646973747269627574652f636f6e7472616374732f636f6e81526020017f7472616374732f6c6962726172792f5374616e64617264546f6b656e2e736f6c8152506060019250505060405180910390a17fc43c381520fd693ad4124a6e5ca5fa48825776c28759a7932989ac80df57eaf660086040518080602001838152602001828103825260608152602001807f2f55736572732f73686f6b6973686f6b692f646576656c6f706d656e742f636f81526020017f6e73656e7379732f646973747269627574652f636f6e7472616374732f636f6e81526020017f7472616374732f6c6962726172792f5374616e64617264546f6b656e2e736f6c8152506060019250505060405180910390a182600160008673ffffffffffffffffffffffffffffffffffffffff1673ffffffffffffffffffffffffffffffffffffffff168152602001908152602001600020600082825401925050819055507f31e8ebbced4f2465773e447e85b737720952e2a402874186bd456517d87ce67a60236040518080602001838152602001828103825260608152602001807f2f55736572732f73686f6b6973686f6b692f646576656c6f706d656e742f636f81526020017f6e73656e7379732f646973747269627574652f636f6e7472616374732f636f6e81526020017f7472616374732f6c6962726172792f5374616e64617264546f6b656e2e736f6c8152506060019250505060405180910390a17fc43c381520fd693ad4124a6e5ca5fa48825776c28759a7932989ac80df57eaf660096040518080602001838152602001828103825260608152602001807f2f55736572732f73686f6b6973686f6b692f646576656c6f706d656e742f636f81526020017f6e73656e7379732f646973747269627574652f636f6e7472616374732f636f6e81526020017f7472616374732f6c6962726172792f5374616e64617264546f6b656e2e736f6c8152506060019250505060405180910390a182600160008773ffffffffffffffffffffffffffffffffffffffff1673ffffffffffffffffffffffffffffffffffffffff168152602001908152602001600020600082825403925050819055507f31e8ebbced4f2465773e447e85b737720952e2a402874186bd456517d87ce67a60246040518080602001838152602001828103825260608152602001807f2f55736572732f73686f6b6973686f6b692f646576656c6f706d656e742f636f81526020017f6e73656e7379732f646973747269627574652f636f6e7472616374732f636f6e81526020017f7472616374732f6c6962726172792f5374616e64617264546f6b656e2e736f6c8152506060019250505060405180910390a17fc43c381520fd693ad4124a6e5ca5fa48825776c28759a7932989ac80df57eaf6600a6040518080602001838152602001828103825260608152602001807f2f55736572732f73686f6b6973686f6b692f646576656c6f706d656e742f636f81526020017f6e73656e7379732f646973747269627574652f636f6e7472616374732f636f6e81526020017f7472616374732f6c6962726172792f5374616e64617264546f6b656e2e736f6c8152506060019250505060405180910390a17fffffffffffffffffffffffffffffffffffffffffffffffffffffffffffffffff811015611b88577f18f9b00e07be788d3c726c9deeb56b8eadac0aa265f25b657ded809cc0dd5a9d600360006040518080602001848152602001838152602001828103825260608152602001807f2f55736572732f73686f6b6973686f6b692f646576656c6f706d656e742f636f81526020017f6e73656e7379732f646973747269627574652f636f6e7472616374732f636f6e81526020017f7472616374732f6c6962726172792f5374616e64617264546f6b656e2e736f6c815250606001935050505060405180910390a17f31e8ebbced4f2465773e447e85b737720952e2a402874186bd456517d87ce67a60256040518080602001838152602001828103825260608152602001807f2f55736572732f73686f6b6973686f6b692f646576656c6f706d656e742f636f81526020017f6e73656e7379732f646973747269627574652f636f6e7472616374732f636f6e81526020017f7472616374732f6c6962726172792f5374616e64617264546f6b656e2e736f6c8152506060019250505060405180910390a17fc43c381520fd693ad4124a6e5ca5fa48825776c28759a7932989ac80df57eaf6600b6040518080602001838152602001828103825260608152602001807f2f55736572732f73686f6b6973686f6b692f646576656c6f706d656e742f636f81526020017f6e73656e7379732f646973747269627574652f636f6e7472616374732f636f6e81526020017f7472616374732f6c6962726172792f5374616e64617264546f6b656e2e736f6c8152506060019250505060405180910390a182600260008773ffffffffffffffffffffffffffffffffffffffff1673ffffffffffffffffffffffffffffffffffffffff16815260200190815260200160002060003373ffffffffffffffffffffffffffffffffffffffff1673ffffffffffffffffffffffffffffffffffffffff16815260200190815260200160002060008282540392505081905550611c4f565b7f18f9b00e07be788d3c726c9deeb56b8eadac0aa265f25b657ded809cc0dd5a9d600360016040518080602001848152602001838152602001828103825260608152602001807f2f55736572732f73686f6b6973686f6b692f646576656c6f706d656e742f636f81526020017f6e73656e7379732f646973747269627574652f636f6e7472616374732f636f6e81526020017f7472616374732f6c6962726172792f5374616e64617264546f6b656e2e736f6c815250606001935050505060405180910390a15b7f31e8ebbced4f2465773e447e85b737720952e2a402874186bd456517d87ce67a60276040518080602001838152602001828103825260608152602001807f2f55736572732f73686f6b6973686f6b692f646576656c6f706d656e742f636f81526020017f6e73656e7379732f646973747269627574652f636f6e7472616374732f636f6e81526020017f7472616374732f6c6962726172792f5374616e64617264546f6b656e2e736f6c8152506060019250505060405180910390a17fc43c381520fd693ad4124a6e5ca5fa48825776c28759a7932989ac80df57eaf6600c6040518080602001838152602001828103825260608152602001807f2f55736572732f73686f6b6973686f6b692f646576656c6f706d656e742f636f81526020017f6e73656e7379732f646973747269627574652f636f6e7472616374732f636f6e81526020017f7472616374732f6c6962726172792f5374616e64617264546f6b656e2e736f6c8152506060019250505060405180910390a18373ffffffffffffffffffffffffffffffffffffffff168573ffffffffffffffffffffffffffffffffffffffff167fddf252ad1be2c89b69c2b068fc378daa952ba7f163c4a11628f55a4df523b3ef856040518082815260200191505060405180910390a37f31e8ebbced4f2465773e447e85b737720952e2a402874186bd456517d87ce67a60286040518080602001838152602001828103825260608152602001807f2f55736572732f73686f6b6973686f6b692f646576656c6f706d656e742f636f81526020017f6e73656e7379732f646973747269627574652f636f6e7472616374732f636f6e81526020017f7472616374732f6c6962726172792f5374616e64617264546f6b656e2e736f6c8152506060019250505060405180910390a17fc43c381520fd693ad4124a6e5ca5fa48825776c28759a7932989ac80df57eaf6600d6040518080602001838152602001828103825260608152602001807f2f55736572732f73686f6b6973686f6b692f646576656c6f706d656e742f636f81526020017f6e73656e7379732f646973747269627574652f636f6e7472616374732f636f6e81526020017f7472616374732f6c6962726172792f5374616e64617264546f6b656e2e736f6c8152506060019250505060405180910390a160019150509392505050565b60007f4406261c1d7d5e139e4c1192b5ff49ff4f4bc04cd96e3935d6df8444d5af87de600660405180806020018381526020018281038252605a8152602001807f2f55736572732f73686f6b6973686f6b692f646576656c6f706d656e742f636f81526020017f6e73656e7379732f646973747269627574652f636f6e7472616374732f636f6e81526020017f7472616374732f44697374726962757465546f6b656e2e736f6c0000000000008152506060019250505060405180910390a17f7932d36ec58672eb75ccd3c9adc80b64bb178911f4fff799e13f3bb53e29f657606b60405180806020018381526020018281038252605a8152602001807f2f55736572732f73686f6b6973686f6b692f646576656c6f706d656e742f636f81526020017f6e73656e7379732f646973747269627574652f636f6e7472616374732f636f6e81526020017f7472616374732f44697374726962757465546f6b656e2e736f6c0000000000008152506060019250505060405180910390a17f56679d61ea0100261cc596a8af6170246d92aa5919325bdfbdd11d2494ac45a3600560405180806020018381526020018281038252605a8152602001807f2f55736572732f73686f6b6973686f6b692f646576656c6f706d656e742f636f81526020017f6e73656e7379732f646973747269627574652f636f6e7472616374732f636f6e81526020017f7472616374732f44697374726962757465546f6b656e2e736f6c0000000000008152506060019250505060405180910390a17fb1ee757629b3a3b8ae76fba84cb4ceffdca3d94bfa41ef064c1401e4744f2fa3600a60405180806020018381526020018281038252605a8152602001807f2f55736572732f73686f6b6973686f6b692f646576656c6f706d656e742f636f81526020017f6e73656e7379732f646973747269627574652f636f6e7472616374732f636f6e81526020017f7472616374732f44697374726962757465546f6b656e2e736f6c0000000000008152506060019250505060405180910390a16000821115156122b957600080fd5b7f327394e5314479530bf061acc0340ef760614b662f79855a3a128cfdb02d02d5600560405180806020018381526020018281038252605a8152602001807f2f55736572732f73686f6b6973686f6b692f646576656c6f706d656e742f636f81526020017f6e73656e7379732f646973747269627574652f636f6e7472616374732f636f6e81526020017f7472616374732f44697374726962757465546f6b656e2e736f6c0000000000008152506060019250505060405180910390a17f7932d36ec58672eb75ccd3c9adc80b64bb178911f4fff799e13f3bb53e29f657606d60405180806020018381526020018281038252605a8152602001807f2f55736572732f73686f6b6973686f6b692f646576656c6f706d656e742f636f81526020017f6e73656e7379732f646973747269627574652f636f6e7472616374732f636f6e81526020017f7472616374732f44697374726962757465546f6b656e2e736f6c0000000000008152506060019250505060405180910390a17fb1ee757629b3a3b8ae76fba84cb4ceffdca3d94bfa41ef064c1401e4744f2fa3600b60405180806020018381526020018281038252605a8152602001807f2f55736572732f73686f6b6973686f6b692f646576656c6f706d656e742f636f81526020017f6e73656e7379732f646973747269627574652f636f6e7472616374732f636f6e81526020017f7472616374732f44697374726962757465546f6b656e2e736f6c0000000000008152506060019250505060405180910390a1816124fa83619546565b029050919050565b60007f4406261c1d7d5e139e4c1192b5ff49ff4f4bc04cd96e3935d6df8444d5af87de600160405180806020018381526020018281038252605a8152602001807f2f55736572732f73686f6b6973686f6b692f646576656c6f706d656e742f636f81526020017f6e73656e7379732f646973747269627574652f636f6e7472616374732f636f6e81526020017f7472616374732f44697374726962757465546f6b656e2e736f6c0000000000008152506060019250505060405180910390a17f7932d36ec58672eb75ccd3c9adc80b64bb178911f4fff799e13f3bb53e29f657602e60405180806020018381526020018281038252605a8152602001807f2f55736572732f73686f6b6973686f6b692f646576656c6f706d656e742f636f81526020017f6e73656e7379732f646973747269627574652f636f6e7472616374732f636f6e81526020017f7472616374732f44697374726962757465546f6b656e2e736f6c0000000000008152506060019250505060405180910390a17f56679d61ea0100261cc596a8af6170246d92aa5919325bdfbdd11d2494ac45a3600160405180806020018381526020018281038252605a8152602001807f2f55736572732f73686f6b6973686f6b692f646576656c6f706d656e742f636f81526020017f6e73656e7379732f646973747269627574652f636f6e7472616374732f636f6e81526020017f7472616374732f44697374726962757465546f6b656e2e736f6c0000000000008152506060019250505060405180910390a17fb1ee757629b3a3b8ae76fba84cb4ceffdca3d94bfa41ef064c1401e4744f2fa3600160405180806020018381526020018281038252605a8152602001807f2f55736572732f73686f6b6973686f6b692f646576656c6f706d656e742f636f81526020017f6e73656e7379732f646973747269627574652f636f6e7472616374732f636f6e81526020017f7472616374732f44697374726962757465546f6b656e2e736f6c0000000000008152506060019250505060405180910390a1600360009054906101000a900473ffffffffffffffffffffffffffffffffffffffff1673ffffffffffffffffffffffffffffffffffffffff163373ffffffffffffffffffffffffffffffffffffffff1614151561285457600080fd5b7f327394e5314479530bf061acc0340ef760614b662f79855a3a128cfdb02d02d5600160405180806020018381526020018281038252605a8152602001807f2f55736572732f73686f6b6973686f6b692f646576656c6f706d656e742f636f81526020017f6e73656e7379732f646973747269627574652f636f6e7472616374732f636f6e81526020017f7472616374732f44697374726962757465546f6b656e2e736f6c0000000000008152506060019250505060405180910390a17f7932d36ec58672eb75ccd3c9adc80b64bb178911f4fff799e13f3bb53e29f657602f60405180806020018381526020018281038252605a8152602001807f2f55736572732f73686f6b6973686f6b692f646576656c6f706d656e742f636f81526020017f6e73656e7379732f646973747269627574652f636f6e7472616374732f636f6e81526020017f7472616374732f44697374726962757465546f6b656e2e736f6c0000000000008152506060019250505060405180910390a17f4406261c1d7d5e139e4c1192b5ff49ff4f4bc04cd96e3935d6df8444d5af87de600e60405180806020018381526020018281038252605a8152602001807f2f55736572732f73686f6b6973686f6b692f646576656c6f706d656e742f636f81526020017f6e73656e7379732f646973747269627574652f636f6e7472616374732f636f6e81526020017f7472616374732f44697374726962757465546f6b656e2e736f6c0000000000008152506060019250505060405180910390a17f7932d36ec58672eb75ccd3c9adc80b64bb178911f4fff799e13f3bb53e29f65760df60405180806020018381526020018281038252605a8152602001807f2f55736572732f73686f6b6973686f6b692f646576656c6f706d656e742f636f81526020017f6e73656e7379732f646973747269627574652f636f6e7472616374732f636f6e81526020017f7472616374732f44697374726962757465546f6b656e2e736f6c0000000000008152506060019250505060405180910390a17f56679d61ea0100261cc596a8af6170246d92aa5919325bdfbdd11d2494ac45a3600c60405180806020018381526020018281038252605a8152602001807f2f55736572732f73686f6b6973686f6b692f646576656c6f706d656e742f636f81526020017f6e73656e7379732f646973747269627574652f636f6e7472616374732f636f6e81526020017f7472616374732f44697374726962757465546f6b656e2e736f6c0000000000008152506060019250505060405180910390a17fb1ee757629b3a3b8ae76fba84cb4ceffdca3d94bfa41ef064c1401e4744f2fa3602760405180806020018381526020018281038252605a8152602001807f2f55736572732f73686f6b6973686f6b692f646576656c6f706d656e742f636f81526020017f6e73656e7379732f646973747269627574652f636f6e7472616374732f636f6e81526020017f7472616374732f44697374726962757465546f6b656e2e736f6c0000000000008152506060019250505060405180910390a181600160003373ffffffffffffffffffffffffffffffffffffffff1673ffffffffffffffffffffffffffffffffffffffff1681526020019081526020016000205410151515612d1057600080fd5b7f327394e5314479530bf061acc0340ef760614b662f79855a3a128cfdb02d02d5600c60405180806020018381526020018281038252605a8152602001807f2f55736572732f73686f6b6973686f6b692f646576656c6f706d656e742f636f81526020017f6e73656e7379732f646973747269627574652f636f6e7472616374732f636f6e81526020017f7472616374732f44697374726962757465546f6b656e2e736f6c0000000000008152506060019250505060405180910390a17f7932d36ec58672eb75ccd3c9adc80b64bb178911f4fff799e13f3bb53e29f65760e060405180806020018381526020018281038252605a8152602001807f2f55736572732f73686f6b6973686f6b692f646576656c6f706d656e742f636f81526020017f6e73656e7379732f646973747269627574652f636f6e7472616374732f636f6e81526020017f7472616374732f44697374726962757465546f6b656e2e736f6c0000000000008152506060019250505060405180910390a17fb1ee757629b3a3b8ae76fba84cb4ceffdca3d94bfa41ef064c1401e4744f2fa3602860405180806020018381526020018281038252605a8152602001807f2f55736572732f73686f6b6973686f6b692f646576656c6f706d656e742f636f81526020017f6e73656e7379732f646973747269627574652f636f6e7472616374732f636f6e81526020017f7472616374732f44697374726962757465546f6b656e2e736f6c0000000000008152506060019250505060405180910390a181600160003373ffffffffffffffffffffffffffffffffffffffff1673ffffffffffffffffffffffffffffffffffffffff168152602001908152602001600020600082825403925050819055507f7932d36ec58672eb75ccd3c9adc80b64bb178911f4fff799e13f3bb53e29f65760e160405180806020018381526020018281038252605a8152602001807f2f55736572732f73686f6b6973686f6b692f646576656c6f706d656e742f636f81526020017f6e73656e7379732f646973747269627574652f636f6e7472616374732f636f6e81526020017f7472616374732f44697374726962757465546f6b656e2e736f6c0000000000008152506060019250505060405180910390a17fb1ee757629b3a3b8ae76fba84cb4ceffdca3d94bfa41ef064c1401e4744f2fa3602960405180806020018381526020018281038252605a8152602001807f2f55736572732f73686f6b6973686f6b692f646576656c6f706d656e742f636f81526020017f6e73656e7379732f646973747269627574652f636f6e7472616374732f636f6e81526020017f7472616374732f44697374726962757465546f6b656e2e736f6c0000000000008152506060019250505060405180910390a181600160008573ffffffffffffffffffffffffffffffffffffffff1673ffffffffffffffffffffffffffffffffffffffff168152602001908152602001600020600082825401925050819055507f7932d36ec58672eb75ccd3c9adc80b64bb178911f4fff799e13f3bb53e29f65760e260405180806020018381526020018281038252605a8152602001807f2f55736572732f73686f6b6973686f6b692f646576656c6f706d656e742f636f81526020017f6e73656e7379732f646973747269627574652f636f6e7472616374732f636f6e81526020017f7472616374732f44697374726962757465546f6b656e2e736f6c0000000000008152506060019250505060405180910390a17fb1ee757629b3a3b8ae76fba84cb4ceffdca3d94bfa41ef064c1401e4744f2fa3602a60405180806020018381526020018281038252605a8152602001807f2f55736572732f73686f6b6973686f6b692f646576656c6f706d656e742f636f81526020017f6e73656e7379732f646973747269627574652f636f6e7472616374732f636f6e81526020017f7472616374732f44697374726962757465546f6b656e2e736f6c0000000000008152506060019250505060405180910390a16001905092915050565b601281565b7f4406261c1d7d5e139e4c1192b5ff49ff4f4bc04cd96e3935d6df8444d5af87de600160405180806020018381526020018281038252605a8152602001807f2f55736572732f73686f6b6973686f6b692f646576656c6f706d656e742f636f81526020017f6e73656e7379732f646973747269627574652f636f6e7472616374732f636f6e81526020017f7472616374732f44697374726962757465546f6b656e2e736f6c0000000000008152506060019250505060405180910390a17f7932d36ec58672eb75ccd3c9adc80b64bb178911f4fff799e13f3bb53e29f657602e60405180806020018381526020018281038252605a8152602001807f2f55736572732f73686f6b6973686f6b692f646576656c6f706d656e742f636f81526020017f6e73656e7379732f646973747269627574652f636f6e7472616374732f636f6e81526020017f7472616374732f44697374726962757465546f6b656e2e736f6c0000000000008152506060019250505060405180910390a17f56679d61ea0100261cc596a8af6170246d92aa5919325bdfbdd11d2494ac45a3600160405180806020018381526020018281038252605a8152602001807f2f55736572732f73686f6b6973686f6b692f646576656c6f706d656e742f636f81526020017f6e73656e7379732f646973747269627574652f636f6e7472616374732f636f6e81526020017f7472616374732f44697374726962757465546f6b656e2e736f6c0000000000008152506060019250505060405180910390a17fb1ee757629b3a3b8ae76fba84cb4ceffdca3d94bfa41ef064c1401e4744f2fa3600160405180806020018381526020018281038252605a8152602001807f2f55736572732f73686f6b6973686f6b692f646576656c6f706d656e742f636f81526020017f6e73656e7379732f646973747269627574652f636f6e7472616374732f636f6e81526020017f7472616374732f44697374726962757465546f6b656e2e736f6c0000000000008152506060019250505060405180910390a1600360009054906101000a900473ffffffffffffffffffffffffffffffffffffffff1673ffffffffffffffffffffffffffffffffffffffff163373ffffffffffffffffffffffffffffffffffffffff1614151561363457600080fd5b7f327394e5314479530bf061acc0340ef760614b662f79855a3a128cfdb02d02d5600160405180806020018381526020018281038252605a8152602001807f2f55736572732f73686f6b6973686f6b692f646576656c6f706d656e742f636f81526020017f6e73656e7379732f646973747269627574652f636f6e7472616374732f636f6e81526020017f7472616374732f44697374726962757465546f6b656e2e736f6c0000000000008152506060019250505060405180910390a17f7932d36ec58672eb75ccd3c9adc80b64bb178911f4fff799e13f3bb53e29f657602f60405180806020018381526020018281038252605a8152602001807f2f55736572732f73686f6b6973686f6b692f646576656c6f706d656e742f636f81526020017f6e73656e7379732f646973747269627574652f636f6e7472616374732f636f6e81526020017f7472616374732f44697374726962757465546f6b656e2e736f6c0000000000008152506060019250505060405180910390a17f4406261c1d7d5e139e4c1192b5ff49ff4f4bc04cd96e3935d6df8444d5af87de600960405180806020018381526020018281038252605a8152602001807f2f55736572732f73686f6b6973686f6b692f646576656c6f706d656e742f636f81526020017f6e73656e7379732f646973747269627574652f636f6e7472616374732f636f6e81526020017f7472616374732f44697374726962757465546f6b656e2e736f6c0000000000008152506060019250505060405180910390a17f7932d36ec58672eb75ccd3c9adc80b64bb178911f4fff799e13f3bb53e29f657609a60405180806020018381526020018281038252605a8152602001807f2f55736572732f73686f6b6973686f6b692f646576656c6f706d656e742f636f81526020017f6e73656e7379732f646973747269627574652f636f6e7472616374732f636f6e81526020017f7472616374732f44697374726962757465546f6b656e2e736f6c0000000000008152506060019250505060405180910390a17f56679d61ea0100261cc596a8af6170246d92aa5919325bdfbdd11d2494ac45a3600860405180806020018381526020018281038252605a8152602001807f2f55736572732f73686f6b6973686f6b692f646576656c6f706d656e742f636f81526020017f6e73656e7379732f646973747269627574652f636f6e7472616374732f636f6e81526020017f7472616374732f44697374726962757465546f6b656e2e736f6c0000000000008152506060019250505060405180910390a17fb1ee757629b3a3b8ae76fba84cb4ceffdca3d94bfa41ef064c1401e4744f2fa3601760405180806020018381526020018281038252605a8152602001807f2f55736572732f73686f6b6973686f6b692f646576656c6f706d656e742f636f81526020017f6e73656e7379732f646973747269627574652f636f6e7472616374732f636f6e81526020017f7472616374732f44697374726962757465546f6b656e2e736f6c0000000000008152506060019250505060405180910390a16005548111158015613ab45750600081115b1515613abf57600080fd5b7f327394e5314479530bf061acc0340ef760614b662f79855a3a128cfdb02d02d5600860405180806020018381526020018281038252605a8152602001807f2f55736572732f73686f6b6973686f6b692f646576656c6f706d656e742f636f81526020017f6e73656e7379732f646973747269627574652f636f6e7472616374732f636f6e81526020017f7472616374732f44697374726962757465546f6b656e2e736f6c0000000000008152506060019250505060405180910390a17f7932d36ec58672eb75ccd3c9adc80b64bb178911f4fff799e13f3bb53e29f657609b60405180806020018381526020018281038252605a8152602001807f2f55736572732f73686f6b6973686f6b692f646576656c6f706d656e742f636f81526020017f6e73656e7379732f646973747269627574652f636f6e7472616374732f636f6e81526020017f7472616374732f44697374726962757465546f6b656e2e736f6c0000000000008152506060019250505060405180910390a17fb1ee757629b3a3b8ae76fba84cb4ceffdca3d94bfa41ef064c1401e4744f2fa3601860405180806020018381526020018281038252605a8152602001807f2f55736572732f73686f6b6973686f6b692f646576656c6f706d656e742f636f81526020017f6e73656e7379732f646973747269627574652f636f6e7472616374732f636f6e81526020017f7472616374732f44697374726962757465546f6b656e2e736f6c0000000000008152506060019250505060405180910390a180600160003373ffffffffffffffffffffffffffffffffffffffff1673ffffffffffffffffffffffffffffffffffffffff168152602001908152602001600020600082825403925050819055507f7932d36ec58672eb75ccd3c9adc80b64bb178911f4fff799e13f3bb53e29f657609c60405180806020018381526020018281038252605a8152602001807f2f55736572732f73686f6b6973686f6b692f646576656c6f706d656e742f636f81526020017f6e73656e7379732f646973747269627574652f636f6e7472616374732f636f6e81526020017f7472616374732f44697374726962757465546f6b656e2e736f6c0000000000008152506060019250505060405180910390a17fb1ee757629b3a3b8ae76fba84cb4ceffdca3d94bfa41ef064c1401e4744f2fa3601960405180806020018381526020018281038252605a8152602001807f2f55736572732f73686f6b6973686f6b692f646576656c6f706d656e742f636f81526020017f6e73656e7379732f646973747269627574652f636f6e7472616374732f636f6e81526020017f7472616374732f44697374726962757465546f6b656e2e736f6c0000000000008152506060019250505060405180910390a18060056000828254039250508190555050565b7f4406261c1d7d5e139e4c1192b5ff49ff4f4bc04cd96e3935d6df8444d5af87de600260405180806020018381526020018281038252605a8152602001807f2f55736572732f73686f6b6973686f6b692f646576656c6f706d656e742f636f81526020017f6e73656e7379732f646973747269627574652f636f6e7472616374732f636f6e81526020017f7472616374732f44697374726962757465546f6b656e2e736f6c0000000000008152506060019250505060405180910390a17f7932d36ec58672eb75ccd3c9adc80b64bb178911f4fff799e13f3bb53e29f657603360405180806020018381526020018281038252605a8152602001807f2f55736572732f73686f6b6973686f6b692f646576656c6f706d656e742f636f81526020017f6e73656e7379732f646973747269627574652f636f6e7472616374732f636f6e81526020017f7472616374732f44697374726962757465546f6b656e2e736f6c0000000000008152506060019250505060405180910390a17f56679d61ea0100261cc596a8af6170246d92aa5919325bdfbdd11d2494ac45a3600260405180806020018381526020018281038252605a8152602001807f2f55736572732f73686f6b6973686f6b692f646576656c6f706d656e742f636f81526020017f6e73656e7379732f646973747269627574652f636f6e7472616374732f636f6e81526020017f7472616374732f44697374726962757465546f6b656e2e736f6c0000000000008152506060019250505060405180910390a17fb1ee757629b3a3b8ae76fba84cb4ceffdca3d94bfa41ef064c1401e4744f2fa3600260405180806020018381526020018281038252605a8152602001807f2f55736572732f73686f6b6973686f6b692f646576656c6f706d656e742f636f81526020017f6e73656e7379732f646973747269627574652f636f6e7472616374732f636f6e81526020017f7472616374732f44697374726962757465546f6b656e2e736f6c0000000000008152506060019250505060405180910390a1600360009054906101000a900473ffffffffffffffffffffffffffffffffffffffff1673ffffffffffffffffffffffffffffffffffffffff163373ffffffffffffffffffffffffffffffffffffffff16148061426d5750600460009054906101000a900473ffffffffffffffffffffffffffffffffffffffff1673ffffffffffffffffffffffffffffffffffffffff163373ffffffffffffffffffffffffffffffffffffffff16145b151561427857600080fd5b7f327394e5314479530bf061acc0340ef760614b662f79855a3a128cfdb02d02d5600260405180806020018381526020018281038252605a8152602001807f2f55736572732f73686f6b6973686f6b692f646576656c6f706d656e742f636f81526020017f6e73656e7379732f646973747269627574652f636f6e7472616374732f636f6e81526020017f7472616374732f44697374726962757465546f6b656e2e736f6c0000000000008152506060019250505060405180910390a17f7932d36ec58672eb75ccd3c9adc80b64bb178911f4fff799e13f3bb53e29f657603760405180806020018381526020018281038252605a8152602001807f2f55736572732f73686f6b6973686f6b692f646576656c6f706d656e742f636f81526020017f6e73656e7379732f646973747269627574652f636f6e7472616374732f636f6e81526020017f7472616374732f44697374726962757465546f6b656e2e736f6c0000000000008152506060019250505060405180910390a17f4406261c1d7d5e139e4c1192b5ff49ff4f4bc04cd96e3935d6df8444d5af87de600b60405180806020018381526020018281038252605a8152602001807f2f55736572732f73686f6b6973686f6b692f646576656c6f706d656e742f636f81526020017f6e73656e7379732f646973747269627574652f636f6e7472616374732f636f6e81526020017f7472616374732f44697374726962757465546f6b656e2e736f6c0000000000008152506060019250505060405180910390a17f7932d36ec58672eb75ccd3c9adc80b64bb178911f4fff799e13f3bb53e29f65760bc60405180806020018381526020018281038252605a8152602001807f2f55736572732f73686f6b6973686f6b692f646576656c6f706d656e742f636f81526020017f6e73656e7379732f646973747269627574652f636f6e7472616374732f636f6e81526020017f7472616374732f44697374726962757465546f6b656e2e736f6c0000000000008152506060019250505060405180910390a17f56679d61ea0100261cc596a8af6170246d92aa5919325bdfbdd11d2494ac45a3600a60405180806020018381526020018281038252605a8152602001807f2f55736572732f73686f6b6973686f6b692f646576656c6f706d656e742f636f81526020017f6e73656e7379732f646973747269627574652f636f6e7472616374732f636f6e81526020017f7472616374732f44697374726962757465546f6b656e2e736f6c0000000000008152506060019250505060405180910390a17fb1ee757629b3a3b8ae76fba84cb4ceffdca3d94bfa41ef064c1401e4744f2fa3602060405180806020018381526020018281038252605a8152602001807f2f55736572732f73686f6b6973686f6b692f646576656c6f706d656e742f636f81526020017f6e73656e7379732f646973747269627574652f636f6e7472616374732f636f6e81526020017f7472616374732f44697374726962757465546f6b656e2e736f6c0000000000008152506060019250505060405180910390a160065481111515156146f757600080fd5b7f327394e5314479530bf061acc0340ef760614b662f79855a3a128cfdb02d02d5600a60405180806020018381526020018281038252605a8152602001807f2f55736572732f73686f6b6973686f6b692f646576656c6f706d656e742f636f81526020017f6e73656e7379732f646973747269627574652f636f6e7472616374732f636f6e81526020017f7472616374732f44697374726962757465546f6b656e2e736f6c0000000000008152506060019250505060405180910390a17f7932d36ec58672eb75ccd3c9adc80b64bb178911f4fff799e13f3bb53e29f65760be60405180806020018381526020018281038252605a8152602001807f2f55736572732f73686f6b6973686f6b692f646576656c6f706d656e742f636f81526020017f6e73656e7379732f646973747269627574652f636f6e7472616374732f636f6e81526020017f7472616374732f44697374726962757465546f6b656e2e736f6c0000000000008152506060019250505060405180910390a17fb1ee757629b3a3b8ae76fba84cb4ceffdca3d94bfa41ef064c1401e4744f2fa3602160405180806020018381526020018281038252605a8152602001807f2f55736572732f73686f6b6973686f6b692f646576656c6f706d656e742f636f81526020017f6e73656e7379732f646973747269627574652f636f6e7472616374732f636f6e81526020017f7472616374732f44697374726962757465546f6b656e2e736f6c0000000000008152506060019250505060405180910390a1806006600082825403925050819055507f7932d36ec58672eb75ccd3c9adc80b64bb178911f4fff799e13f3bb53e29f65760bf60405180806020018381526020018281038252605a8152602001807f2f55736572732f73686f6b6973686f6b692f646576656c6f706d656e742f636f81526020017f6e73656e7379732f646973747269627574652f636f6e7472616374732f636f6e81526020017f7472616374732f44697374726962757465546f6b656e2e736f6c0000000000008152506060019250505060405180910390a18173ffffffffffffffffffffffffffffffffffffffff166108fc829081150290604051600060405180830381858888f193505050501515614a3b57600080fd5b5050565b60007f09ebf846b40187f704b7f97bc1be185391629e7d7fa57c671b029a1d8acead6660036040518080602001838152602001828103825260608152602001807f2f55736572732f73686f6b6973686f6b692f646576656c6f706d656e742f636f81526020017f6e73656e7379732f646973747269627574652f636f6e7472616374732f636f6e81526020017f7472616374732f6c6962726172792f5374616e64617264546f6b656e2e736f6c8152506060019250505060405180910390a17f31e8ebbced4f2465773e447e85b737720952e2a402874186bd456517d87ce67a602c6040518080602001838152602001828103825260608152602001807f2f55736572732f73686f6b6973686f6b692f646576656c6f706d656e742f636f81526020017f6e73656e7379732f646973747269627574652f636f6e7472616374732f636f6e81526020017f7472616374732f6c6962726172792f5374616e64617264546f6b656e2e736f6c8152506060019250505060405180910390a17fc43c381520fd693ad4124a6e5ca5fa48825776c28759a7932989ac80df57eaf6600e6040518080602001838152602001828103825260608152602001807f2f55736572732f73686f6b6973686f6b692f646576656c6f706d656e742f636f81526020017f6e73656e7379732f646973747269627574652f636f6e7472616374732f636f6e81526020017f7472616374732f6c6962726172792f5374616e64617264546f6b656e2e736f6c8152506060019250505060405180910390a1600160008373ffffffffffffffffffffffffffffffffffffffff1673ffffffffffffffffffffffffffffffffffffffff168152602001908152602001600020549050919050565b6040805190810160405280600381526020017f445354000000000000000000000000000000000000000000000000000000000081525081565b6000807f4406261c1d7d5e139e4c1192b5ff49ff4f4bc04cd96e3935d6df8444d5af87de600560405180806020018381526020018281038252605a8152602001807f2f55736572732f73686f6b6973686f6b692f646576656c6f706d656e742f636f81526020017f6e73656e7379732f646973747269627574652f636f6e7472616374732f636f6e81526020017f7472616374732f44697374726962757465546f6b656e2e736f6c0000000000008152506060019250505060405180910390a17f7932d36ec58672eb75ccd3c9adc80b64bb178911f4fff799e13f3bb53e29f657605c60405180806020018381526020018281038252605a8152602001807f2f55736572732f73686f6b6973686f6b692f646576656c6f706d656e742f636f81526020017f6e73656e7379732f646973747269627574652f636f6e7472616374732f636f6e81526020017f7472616374732f44697374726962757465546f6b656e2e736f6c0000000000008152506060019250505060405180910390a17fb1ee757629b3a3b8ae76fba84cb4ceffdca3d94bfa41ef064c1401e4744f2fa3600660405180806020018381526020018281038252605a8152602001807f2f55736572732f73686f6b6973686f6b692f646576656c6f706d656e742f636f81526020017f6e73656e7379732f646973747269627574652f636f6e7472616374732f636f6e81526020017f7472616374732f44697374726962757465546f6b656e2e736f6c0000000000008152506060019250505060405180910390a160006006541480614f4557506000600554145b156150d7577f83f5f2dd30cd1018d2dd435618b60c3b3b4e5cc4a7eb8eaa343c4a94ec7c40416004600060405180806020018481526020018381526020018281038252605a8152602001807f2f55736572732f73686f6b6973686f6b692f646576656c6f706d656e742f636f81526020017f6e73656e7379732f646973747269627574652f636f6e7472616374732f636f6e81526020017f7472616374732f44697374726962757465546f6b656e2e736f6c000000000000815250606001935050505060405180910390a17fb1ee757629b3a3b8ae76fba84cb4ceffdca3d94bfa41ef064c1401e4744f2fa3600760405180806020018381526020018281038252605a8152602001807f2f55736572732f73686f6b6973686f6b692f646576656c6f706d656e742f636f81526020017f6e73656e7379732f646973747269627574652f636f6e7472616374732f636f6e81526020017f7472616374732f44697374726962757465546f6b656e2e736f6c0000000000008152506060019250505060405180910390a160075491506154b9565b7f83f5f2dd30cd1018d2dd435618b60c3b3b4e5cc4a7eb8eaa343c4a94ec7c40416004600160405180806020018481526020018381526020018281038252605a8152602001807f2f55736572732f73686f6b6973686f6b692f646576656c6f706d656e742f636f81526020017f6e73656e7379732f646973747269627574652f636f6e7472616374732f636f6e81526020017f7472616374732f44697374726962757465546f6b656e2e736f6c000000000000815250606001935050505060405180910390a17f7932d36ec58672eb75ccd3c9adc80b64bb178911f4fff799e13f3bb53e29f657605e60405180806020018381526020018281038252605a8152602001807f2f55736572732f73686f6b6973686f6b692f646576656c6f706d656e742f636f81526020017f6e73656e7379732f646973747269627574652f636f6e7472616374732f636f6e81526020017f7472616374732f44697374726962757465546f6b656e2e736f6c0000000000008152506060019250505060405180910390a17fb1ee757629b3a3b8ae76fba84cb4ceffdca3d94bfa41ef064c1401e4744f2fa3600860405180806020018381526020018281038252605a8152602001807f2f55736572732f73686f6b6973686f6b692f646576656c6f706d656e742f636f81526020017f6e73656e7379732f646973747269627574652f636f6e7472616374732f636f6e81526020017f7472616374732f44697374726962757465546f6b656e2e736f6c0000000000008152506060019250505060405180910390a160055460065481151561532657fe5b0490507f7932d36ec58672eb75ccd3c9adc80b64bb178911f4fff799e13f3bb53e29f657605f60405180806020018381526020018281038252605a8152602001807f2f55736572732f73686f6b6973686f6b692f646576656c6f706d656e742f636f81526020017f6e73656e7379732f646973747269627574652f636f6e7472616374732f636f6e81526020017f7472616374732f44697374726962757465546f6b656e2e736f6c0000000000008152506060019250505060405180910390a17fb1ee757629b3a3b8ae76fba84cb4ceffdca3d94bfa41ef064c1401e4744f2fa3600960405180806020018381526020018281038252605a8152602001807f2f55736572732f73686f6b6973686f6b692f646576656c6f706d656e742f636f81526020017f6e73656e7379732f646973747269627574652f636f6e7472616374732f636f6e81526020017f7472616374732f44697374726962757465546f6b656e2e736f6c0000000000008152506060019250505060405180910390a160075481106154b257806154b6565b6007545b91505b5090565b60007f4406261c1d7d5e139e4c1192b5ff49ff4f4bc04cd96e3935d6df8444d5af87de600160405180806020018381526020018281038252605a8152602001807f2f55736572732f73686f6b6973686f6b692f646576656c6f706d656e742f636f81526020017f6e73656e7379732f646973747269627574652f636f6e7472616374732f636f6e81526020017f7472616374732f44697374726962757465546f6b656e2e736f6c0000000000008152506060019250505060405180910390a17f7932d36ec58672eb75ccd3c9adc80b64bb178911f4fff799e13f3bb53e29f657602e60405180806020018381526020018281038252605a8152602001807f2f55736572732f73686f6b6973686f6b692f646576656c6f706d656e742f636f81526020017f6e73656e7379732f646973747269627574652f636f6e7472616374732f636f6e81526020017f7472616374732f44697374726962757465546f6b656e2e736f6c0000000000008152506060019250505060405180910390a17f56679d61ea0100261cc596a8af6170246d92aa5919325bdfbdd11d2494ac45a3600160405180806020018381526020018281038252605a8152602001807f2f55736572732f73686f6b6973686f6b692f646576656c6f706d656e742f636f81526020017f6e73656e7379732f646973747269627574652f636f6e7472616374732f636f6e81526020017f7472616374732f44697374726962757465546f6b656e2e736f6c0000000000008152506060019250505060405180910390a17fb1ee757629b3a3b8ae76fba84cb4ceffdca3d94bfa41ef064c1401e4744f2fa3600160405180806020018381526020018281038252605a8152602001807f2f55736572732f73686f6b6973686f6b692f646576656c6f706d656e742f636f81526020017f6e73656e7379732f646973747269627574652f636f6e7472616374732f636f6e81526020017f7472616374732f44697374726962757465546f6b656e2e736f6c0000000000008152506060019250505060405180910390a1600360009054906101000a900473ffffffffffffffffffffffffffffffffffffffff1673ffffffffffffffffffffffffffffffffffffffff163373ffffffffffffffffffffffffffffffffffffffff1614151561580f57600080fd5b7f327394e5314479530bf061acc0340ef760614b662f79855a3a128cfdb02d02d5600160405180806020018381526020018281038252605a8152602001807f2f55736572732f73686f6b6973686f6b692f646576656c6f706d656e742f636f81526020017f6e73656e7379732f646973747269627574652f636f6e7472616374732f636f6e81526020017f7472616374732f44697374726962757465546f6b656e2e736f6c0000000000008152506060019250505060405180910390a17f7932d36ec58672eb75ccd3c9adc80b64bb178911f4fff799e13f3bb53e29f657602f60405180806020018381526020018281038252605a8152602001807f2f55736572732f73686f6b6973686f6b692f646576656c6f706d656e742f636f81526020017f6e73656e7379732f646973747269627574652f636f6e7472616374732f636f6e81526020017f7472616374732f44697374726962757465546f6b656e2e736f6c0000000000008152506060019250505060405180910390a17f4406261c1d7d5e139e4c1192b5ff49ff4f4bc04cd96e3935d6df8444d5af87de600d60405180806020018381526020018281038252605a8152602001807f2f55736572732f73686f6b6973686f6b692f646576656c6f706d656e742f636f81526020017f6e73656e7379732f646973747269627574652f636f6e7472616374732f636f6e81526020017f7472616374732f44697374726962757465546f6b656e2e736f6c0000000000008152506060019250505060405180910390a17f7932d36ec58672eb75ccd3c9adc80b64bb178911f4fff799e13f3bb53e29f65760d260405180806020018381526020018281038252605a8152602001807f2f55736572732f73686f6b6973686f6b692f646576656c6f706d656e742f636f81526020017f6e73656e7379732f646973747269627574652f636f6e7472616374732f636f6e81526020017f7472616374732f44697374726962757465546f6b656e2e736f6c0000000000008152506060019250505060405180910390a17f56679d61ea0100261cc596a8af6170246d92aa5919325bdfbdd11d2494ac45a3600b60405180806020018381526020018281038252605a8152602001807f2f55736572732f73686f6b6973686f6b692f646576656c6f706d656e742f636f81526020017f6e73656e7379732f646973747269627574652f636f6e7472616374732f636f6e81526020017f7472616374732f44697374726962757465546f6b656e2e736f6c0000000000008152506060019250505060405180910390a17fb1ee757629b3a3b8ae76fba84cb4ceffdca3d94bfa41ef064c1401e4744f2fa3602360405180806020018381526020018281038252605a8152602001807f2f55736572732f73686f6b6973686f6b692f646576656c6f706d656e742f636f81526020017f6e73656e7379732f646973747269627574652f636f6e7472616374732f636f6e81526020017f7472616374732f44697374726962757465546f6b656e2e736f6c0000000000008152506060019250505060405180910390a181600160008573ffffffffffffffffffffffffffffffffffffffff1673ffffffffffffffffffffffffffffffffffffffff1681526020019081526020016000205410151515615ccb57600080fd5b7f327394e5314479530bf061acc0340ef760614b662f79855a3a128cfdb02d02d5600b60405180806020018381526020018281038252605a8152602001807f2f55736572732f73686f6b6973686f6b692f646576656c6f706d656e742f636f81526020017f6e73656e7379732f646973747269627574652f636f6e7472616374732f636f6e81526020017f7472616374732f44697374726962757465546f6b656e2e736f6c0000000000008152506060019250505060405180910390a17f7932d36ec58672eb75ccd3c9adc80b64bb178911f4fff799e13f3bb53e29f65760d360405180806020018381526020018281038252605a8152602001807f2f55736572732f73686f6b6973686f6b692f646576656c6f706d656e742f636f81526020017f6e73656e7379732f646973747269627574652f636f6e7472616374732f636f6e81526020017f7472616374732f44697374726962757465546f6b656e2e736f6c0000000000008152506060019250505060405180910390a17fb1ee757629b3a3b8ae76fba84cb4ceffdca3d94bfa41ef064c1401e4744f2fa3602460405180806020018381526020018281038252605a8152602001807f2f55736572732f73686f6b6973686f6b692f646576656c6f706d656e742f636f81526020017f6e73656e7379732f646973747269627574652f636f6e7472616374732f636f6e81526020017f7472616374732f44697374726962757465546f6b656e2e736f6c0000000000008152506060019250505060405180910390a181600160008573ffffffffffffffffffffffffffffffffffffffff1673ffffffffffffffffffffffffffffffffffffffff168152602001908152602001600020600082825403925050819055507f7932d36ec58672eb75ccd3c9adc80b64bb178911f4fff799e13f3bb53e29f65760d460405180806020018381526020018281038252605a8152602001807f2f55736572732f73686f6b6973686f6b692f646576656c6f706d656e742f636f81526020017f6e73656e7379732f646973747269627574652f636f6e7472616374732f636f6e81526020017f7472616374732f44697374726962757465546f6b656e2e736f6c0000000000008152506060019250505060405180910390a17fb1ee757629b3a3b8ae76fba84cb4ceffdca3d94bfa41ef064c1401e4744f2fa3602560405180806020018381526020018281038252605a8152602001807f2f55736572732f73686f6b6973686f6b692f646576656c6f706d656e742f636f81526020017f6e73656e7379732f646973747269627574652f636f6e7472616374732f636f6e81526020017f7472616374732f44697374726962757465546f6b656e2e736f6c0000000000008152506060019250505060405180910390a181600160003373ffffffffffffffffffffffffffffffffffffffff1673ffffffffffffffffffffffffffffffffffffffff168152602001908152602001600020600082825401925050819055507f7932d36ec58672eb75ccd3c9adc80b64bb178911f4fff799e13f3bb53e29f65760d560405180806020018381526020018281038252605a8152602001807f2f55736572732f73686f6b6973686f6b692f646576656c6f706d656e742f636f81526020017f6e73656e7379732f646973747269627574652f636f6e7472616374732f636f6e81526020017f7472616374732f44697374726962757465546f6b656e2e736f6c0000000000008152506060019250505060405180910390a17fb1ee757629b3a3b8ae76fba84cb4ceffdca3d94bfa41ef064c1401e4744f2fa3602660405180806020018381526020018281038252605a8152602001807f2f55736572732f73686f6b6973686f6b692f646576656c6f706d656e742f636f81526020017f6e73656e7379732f646973747269627574652f636f6e7472616374732f636f6e81526020017f7472616374732f44697374726962757465546f6b656e2e736f6c0000000000008152506060019250505060405180910390a16001905092915050565b6000807f4406261c1d7d5e139e4c1192b5ff49ff4f4bc04cd96e3935d6df8444d5af87de600860405180806020018381526020018281038252605a8152602001807f2f55736572732f73686f6b6973686f6b692f646576656c6f706d656e742f636f81526020017f6e73656e7379732f646973747269627574652f636f6e7472616374732f636f6e81526020017f7472616374732f44697374726962757465546f6b656e2e736f6c0000000000008152506060019250505060405180910390a17f7932d36ec58672eb75ccd3c9adc80b64bb178911f4fff799e13f3bb53e29f657608860405180806020018381526020018281038252605a8152602001807f2f55736572732f73686f6b6973686f6b692f646576656c6f706d656e742f636f81526020017f6e73656e7379732f646973747269627574652f636f6e7472616374732f636f6e81526020017f7472616374732f44697374726962757465546f6b656e2e736f6c0000000000008152506060019250505060405180910390a17fb1ee757629b3a3b8ae76fba84cb4ceffdca3d94bfa41ef064c1401e4744f2fa3600f60405180806020018381526020018281038252605a8152602001807f2f55736572732f73686f6b6973686f6b692f646576656c6f706d656e742f636f81526020017f6e73656e7379732f646973747269627574652f636f6e7472616374732f636f6e81526020017f7472616374732f44697374726962757465546f6b656e2e736f6c0000000000008152506060019250505060405180910390a16164dd83611fb4565b91507f7932d36ec58672eb75ccd3c9adc80b64bb178911f4fff799e13f3bb53e29f657608960405180806020018381526020018281038252605a8152602001807f2f55736572732f73686f6b6973686f6b692f646576656c6f706d656e742f636f81526020017f6e73656e7379732f646973747269627574652f636f6e7472616374732f636f6e81526020017f7472616374732f44697374726962757465546f6b656e2e736f6c0000000000008152506060019250505060405180910390a17f56679d61ea0100261cc596a8af6170246d92aa5919325bdfbdd11d2494ac45a3600660405180806020018381526020018281038252605a8152602001807f2f55736572732f73686f6b6973686f6b692f646576656c6f706d656e742f636f81526020017f6e73656e7379732f646973747269627574652f636f6e7472616374732f636f6e81526020017f7472616374732f44697374726962757465546f6b656e2e736f6c0000000000008152506060019250505060405180910390a17fb1ee757629b3a3b8ae76fba84cb4ceffdca3d94bfa41ef064c1401e4744f2fa3601060405180806020018381526020018281038252605a8152602001807f2f55736572732f73686f6b6973686f6b692f646576656c6f706d656e742f636f81526020017f6e73656e7379732f646973747269627574652f636f6e7472616374732f636f6e81526020017f7472616374732f44697374726962757465546f6b656e2e736f6c0000000000008152506060019250505060405180910390a181341015151561672557600080fd5b7f327394e5314479530bf061acc0340ef760614b662f79855a3a128cfdb02d02d5600660405180806020018381526020018281038252605a8152602001807f2f55736572732f73686f6b6973686f6b692f646576656c6f706d656e742f636f81526020017f6e73656e7379732f646973747269627574652f636f6e7472616374732f636f6e81526020017f7472616374732f44697374726962757465546f6b656e2e736f6c0000000000008152506060019250505060405180910390a17f7932d36ec58672eb75ccd3c9adc80b64bb178911f4fff799e13f3bb53e29f657608b60405180806020018381526020018281038252605a8152602001807f2f55736572732f73686f6b6973686f6b692f646576656c6f706d656e742f636f81526020017f6e73656e7379732f646973747269627574652f636f6e7472616374732f636f6e81526020017f7472616374732f44697374726962757465546f6b656e2e736f6c0000000000008152506060019250505060405180910390a17fb1ee757629b3a3b8ae76fba84cb4ceffdca3d94bfa41ef064c1401e4744f2fa3601160405180806020018381526020018281038252605a8152602001807f2f55736572732f73686f6b6973686f6b692f646576656c6f706d656e742f636f81526020017f6e73656e7379732f646973747269627574652f636f6e7472616374732f636f6e81526020017f7472616374732f44697374726962757465546f6b656e2e736f6c0000000000008152506060019250505060405180910390a1826005600082825401925050819055507f7932d36ec58672eb75ccd3c9adc80b64bb178911f4fff799e13f3bb53e29f657608c60405180806020018381526020018281038252605a8152602001807f2f55736572732f73686f6b6973686f6b692f646576656c6f706d656e742f636f81526020017f6e73656e7379732f646973747269627574652f636f6e7472616374732f636f6e81526020017f7472616374732f44697374726962757465546f6b656e2e736f6c0000000000008152506060019250505060405180910390a17fb1ee757629b3a3b8ae76fba84cb4ceffdca3d94bfa41ef064c1401e4744f2fa3601260405180806020018381526020018281038252605a8152602001807f2f55736572732f73686f6b6973686f6b692f646576656c6f706d656e742f636f81526020017f6e73656e7379732f646973747269627574652f636f6e7472616374732f636f6e81526020017f7472616374732f44697374726962757465546f6b656e2e736f6c0000000000008152506060019250505060405180910390a182600160003373ffffffffffffffffffffffffffffffffffffffff1673ffffffffffffffffffffffffffffffffffffffff168152602001908152602001600020600082825401925050819055507f7932d36ec58672eb75ccd3c9adc80b64bb178911f4fff799e13f3bb53e29f657608d60405180806020018381526020018281038252605a8152602001807f2f55736572732f73686f6b6973686f6b692f646576656c6f706d656e742f636f81526020017f6e73656e7379732f646973747269627574652f636f6e7472616374732f636f6e81526020017f7472616374732f44697374726962757465546f6b656e2e736f6c0000000000008152506060019250505060405180910390a17fb1ee757629b3a3b8ae76fba84cb4ceffdca3d94bfa41ef064c1401e4744f2fa3601360405180806020018381526020018281038252605a8152602001807f2f55736572732f73686f6b6973686f6b692f646576656c6f706d656e742f636f81526020017f6e73656e7379732f646973747269627574652f636f6e7472616374732f636f6e81526020017f7472616374732f44697374726962757465546f6b656e2e736f6c0000000000008152506060019250505060405180910390a1816006600082825401925050819055507f7932d36ec58672eb75ccd3c9adc80b64bb178911f4fff799e13f3bb53e29f657608e60405180806020018381526020018281038252605a8152602001807f2f55736572732f73686f6b6973686f6b692f646576656c6f706d656e742f636f81526020017f6e73656e7379732f646973747269627574652f636f6e7472616374732f636f6e81526020017f7472616374732f44697374726962757465546f6b656e2e736f6c0000000000008152506060019250505060405180910390a17fb1ee757629b3a3b8ae76fba84cb4ceffdca3d94bfa41ef064c1401e4744f2fa3601460405180806020018381526020018281038252605a8152602001807f2f55736572732f73686f6b6973686f6b692f646576656c6f706d656e742f636f81526020017f6e73656e7379732f646973747269627574652f636f6e7472616374732f636f6e81526020017f7472616374732f44697374726962757465546f6b656e2e736f6c0000000000008152506060019250505060405180910390a17fe7360c0fa1984a85874443100f5b25dd4f84192659660eb199f6c96e11defbcb8383604051808381526020018281526020019250505060405180910390a17f7932d36ec58672eb75ccd3c9adc80b64bb178911f4fff799e13f3bb53e29f657608f60405180806020018381526020018281038252605a8152602001807f2f55736572732f73686f6b6973686f6b692f646576656c6f706d656e742f636f81526020017f6e73656e7379732f646973747269627574652f636f6e7472616374732f636f6e81526020017f7472616374732f44697374726962757465546f6b656e2e736f6c0000000000008152506060019250505060405180910390a17fb1ee757629b3a3b8ae76fba84cb4ceffdca3d94bfa41ef064c1401e4744f2fa3601560405180806020018381526020018281038252605a8152602001807f2f55736572732f73686f6b6973686f6b692f646576656c6f706d656e742f636f81526020017f6e73656e7379732f646973747269627574652f636f6e7472616374732f636f6e81526020017f7472616374732f44697374726962757465546f6b656e2e736f6c0000000000008152506060019250505060405180910390a181340390507f7932d36ec58672eb75ccd3c9adc80b64bb178911f4fff799e13f3bb53e29f657609060405180806020018381526020018281038252605a8152602001807f2f55736572732f73686f6b6973686f6b692f646576656c6f706d656e742f636f81526020017f6e73656e7379732f646973747269627574652f636f6e7472616374732f636f6e81526020017f7472616374732f44697374726962757465546f6b656e2e736f6c0000000000008152506060019250505060405180910390a17fb1ee757629b3a3b8ae76fba84cb4ceffdca3d94bfa41ef064c1401e4744f2fa3601660405180806020018381526020018281038252605a8152602001807f2f55736572732f73686f6b6973686f6b692f646576656c6f706d656e742f636f81526020017f6e73656e7379732f646973747269627574652f636f6e7472616374732f636f6e81526020017f7472616374732f44697374726962757465546f6b656e2e736f6c0000000000008152506060019250505060405180910390a16000811115617283577f83f5f2dd30cd1018d2dd435618b60c3b3b4e5cc4a7eb8eaa343c4a94ec7c40416007600060405180806020018481526020018381526020018281038252605a8152602001807f2f55736572732f73686f6b6973686f6b692f646576656c6f706d656e742f636f81526020017f6e73656e7379732f646973747269627574652f636f6e7472616374732f636f6e81526020017f7472616374732f44697374726962757465546f6b656e2e736f6c000000000000815250606001935050505060405180910390a13373ffffffffffffffffffffffffffffffffffffffff166108fc829081150290604051600060405180830381858888f19350505050151561727e57600080fd5b61734a565b7f83f5f2dd30cd1018d2dd435618b60c3b3b4e5cc4a7eb8eaa343c4a94ec7c40416007600160405180806020018481526020018381526020018281038252605a8152602001807f2f55736572732f73686f6b6973686f6b692f646576656c6f706d656e742f636f81526020017f6e73656e7379732f646973747269627574652f636f6e7472616374732f636f6e81526020017f7472616374732f44697374726962757465546f6b656e2e736f6c000000000000815250606001935050505060405180910390a15b505050565b60007f09ebf846b40187f704b7f97bc1be185391629e7d7fa57c671b029a1d8acead6660016040518080602001838152602001828103825260608152602001807f2f55736572732f73686f6b6973686f6b692f646576656c6f706d656e742f636f81526020017f6e73656e7379732f646973747269627574652f636f6e7472616374732f636f6e81526020017f7472616374732f6c6962726172792f5374616e64617264546f6b656e2e736f6c8152506060019250505060405180910390a17f31e8ebbced4f2465773e447e85b737720952e2a402874186bd456517d87ce67a60166040518080602001838152602001828103825260608152602001807f2f55736572732f73686f6b6973686f6b692f646576656c6f706d656e742f636f81526020017f6e73656e7379732f646973747269627574652f636f6e7472616374732f636f6e81526020017f7472616374732f6c6962726172792f5374616e64617264546f6b656e2e736f6c8152506060019250505060405180910390a17fcdf14e7a9a596081e1992260c2a6e5e1acf35cd2f7589e47f09e7e6889950c1c60016040518080602001838152602001828103825260608152602001807f2f55736572732f73686f6b6973686f6b692f646576656c6f706d656e742f636f81526020017f6e73656e7379732f646973747269627574652f636f6e7472616374732f636f6e81526020017f7472616374732f6c6962726172792f5374616e64617264546f6b656e2e736f6c8152506060019250505060405180910390a17fc43c381520fd693ad4124a6e5ca5fa48825776c28759a7932989ac80df57eaf660016040518080602001838152602001828103825260608152602001807f2f55736572732f73686f6b6973686f6b692f646576656c6f706d656e742f636f81526020017f6e73656e7379732f646973747269627574652f636f6e7472616374732f636f6e81526020017f7472616374732f6c6962726172792f5374616e64617264546f6b656e2e736f6c8152506060019250505060405180910390a181600160003373ffffffffffffffffffffffffffffffffffffffff1673ffffffffffffffffffffffffffffffffffffffff168152602001908152602001600020541015151561769357600080fd5b7f62276321d1faf197020d3056f6accd3216cfcdbd8f1d3de200282a4923e3e53960016040518080602001838152602001828103825260608152602001807f2f55736572732f73686f6b6973686f6b692f646576656c6f706d656e742f636f81526020017f6e73656e7379732f646973747269627574652f636f6e7472616374732f636f6e81526020017f7472616374732f6c6962726172792f5374616e64617264546f6b656e2e736f6c8152506060019250505060405180910390a17f31e8ebbced4f2465773e447e85b737720952e2a402874186bd456517d87ce67a60176040518080602001838152602001828103825260608152602001807f2f55736572732f73686f6b6973686f6b692f646576656c6f706d656e742f636f81526020017f6e73656e7379732f646973747269627574652f636f6e7472616374732f636f6e81526020017f7472616374732f6c6962726172792f5374616e64617264546f6b656e2e736f6c8152506060019250505060405180910390a17fc43c381520fd693ad4124a6e5ca5fa48825776c28759a7932989ac80df57eaf660026040518080602001838152602001828103825260608152602001807f2f55736572732f73686f6b6973686f6b692f646576656c6f706d656e742f636f81526020017f6e73656e7379732f646973747269627574652f636f6e7472616374732f636f6e81526020017f7472616374732f6c6962726172792f5374616e64617264546f6b656e2e736f6c8152506060019250505060405180910390a181600160003373ffffffffffffffffffffffffffffffffffffffff1673ffffffffffffffffffffffffffffffffffffffff168152602001908152602001600020600082825403925050819055507f31e8ebbced4f2465773e447e85b737720952e2a402874186bd456517d87ce67a60186040518080602001838152602001828103825260608152602001807f2f55736572732f73686f6b6973686f6b692f646576656c6f706d656e742f636f81526020017f6e73656e7379732f646973747269627574652f636f6e7472616374732f636f6e81526020017f7472616374732f6c6962726172792f5374616e64617264546f6b656e2e736f6c8152506060019250505060405180910390a17fc43c381520fd693ad4124a6e5ca5fa48825776c28759a7932989ac80df57eaf660036040518080602001838152602001828103825260608152602001807f2f55736572732f73686f6b6973686f6b692f646576656c6f706d656e742f636f81526020017f6e73656e7379732f646973747269627574652f636f6e7472616374732f636f6e81526020017f7472616374732f6c6962726172792f5374616e64617264546f6b656e2e736f6c8152506060019250505060405180910390a181600160008573ffffffffffffffffffffffffffffffffffffffff1673ffffffffffffffffffffffffffffffffffffffff168152602001908152602001600020600082825401925050819055507f31e8ebbced4f2465773e447e85b737720952e2a402874186bd456517d87ce67a60196040518080602001838152602001828103825260608152602001807f2f55736572732f73686f6b6973686f6b692f646576656c6f706d656e742f636f81526020017f6e73656e7379732f646973747269627574652f636f6e7472616374732f636f6e81526020017f7472616374732f6c6962726172792f5374616e64617264546f6b656e2e736f6c8152506060019250505060405180910390a17fc43c381520fd693ad4124a6e5ca5fa48825776c28759a7932989ac80df57eaf660046040518080602001838152602001828103825260608152602001807f2f55736572732f73686f6b6973686f6b692f646576656c6f706d656e742f636f81526020017f6e73656e7379732f646973747269627574652f636f6e7472616374732f636f6e81526020017f7472616374732f6c6962726172792f5374616e64617264546f6b656e2e736f6c8152506060019250505060405180910390a18273ffffffffffffffffffffffffffffffffffffffff163373ffffffffffffffffffffffffffffffffffffffff167fddf252ad1be2c89b69c2b068fc378daa952ba7f163c4a11628f55a4df523b3ef846040518082815260200191505060405180910390a37f31e8ebbced4f2465773e447e85b737720952e2a402874186bd456517d87ce67a601a6040518080602001838152602001828103825260608152602001807f2f55736572732f73686f6b6973686f6b692f646576656c6f706d656e742f636f81526020017f6e73656e7379732f646973747269627574652f636f6e7472616374732f636f6e81526020017f7472616374732f6c6962726172792f5374616e64617264546f6b656e2e736f6c8152506060019250505060405180910390a17fc43c381520fd693ad4124a6e5ca5fa48825776c28759a7932989ac80df57eaf660056040518080602001838152602001828103825260608152602001807f2f55736572732f73686f6b6973686f6b692f646576656c6f706d656e742f636f81526020017f6e73656e7379732f646973747269627574652f636f6e7472616374732f636f6e81526020017f7472616374732f6c6962726172792f5374616e64617264546f6b656e2e736f6c8152506060019250505060405180910390a16001905092915050565b60007f09ebf846b40187f704b7f97bc1be185391629e7d7fa57c671b029a1d8acead6660056040518080602001838152602001828103825260608152602001807f2f55736572732f73686f6b6973686f6b692f646576656c6f706d656e742f636f81526020017f6e73656e7379732f646973747269627574652f636f6e7472616374732f636f6e81526020017f7472616374732f6c6962726172792f5374616e64617264546f6b656e2e736f6c8152506060019250505060405180910390a17f31e8ebbced4f2465773e447e85b737720952e2a402874186bd456517d87ce67a60376040518080602001838152602001828103825260608152602001807f2f55736572732f73686f6b6973686f6b692f646576656c6f706d656e742f636f81526020017f6e73656e7379732f646973747269627574652f636f6e7472616374732f636f6e81526020017f7472616374732f6c6962726172792f5374616e64617264546f6b656e2e736f6c8152506060019250505060405180910390a17fc43c381520fd693ad4124a6e5ca5fa48825776c28759a7932989ac80df57eaf660126040518080602001838152602001828103825260608152602001807f2f55736572732f73686f6b6973686f6b692f646576656c6f706d656e742f636f81526020017f6e73656e7379732f646973747269627574652f636f6e7472616374732f636f6e81526020017f7472616374732f6c6962726172792f5374616e64617264546f6b656e2e736f6c8152506060019250505060405180910390a1600260008473ffffffffffffffffffffffffffffffffffffffff1673ffffffffffffffffffffffffffffffffffffffff16815260200190815260200160002060008373ffffffffffffffffffffffffffffffffffffffff1673ffffffffffffffffffffffffffffffffffffffff16815260200190815260200160002054905092915050565b60007f4406261c1d7d5e139e4c1192b5ff49ff4f4bc04cd96e3935d6df8444d5af87de600a60405180806020018381526020018281038252605a8152602001807f2f55736572732f73686f6b6973686f6b692f646576656c6f706d656e742f636f81526020017f6e73656e7379732f646973747269627574652f636f6e7472616374732f636f6e81526020017f7472616374732f44697374726962757465546f6b656e2e736f6c0000000000008152506060019250505060405180910390a17f7932d36ec58672eb75ccd3c9adc80b64bb178911f4fff799e13f3bb53e29f65760a660405180806020018381526020018281038252605a8152602001807f2f55736572732f73686f6b6973686f6b692f646576656c6f706d656e742f636f81526020017f6e73656e7379732f646973747269627574652f636f6e7472616374732f636f6e81526020017f7472616374732f44697374726962757465546f6b656e2e736f6c0000000000008152506060019250505060405180910390a17f56679d61ea0100261cc596a8af6170246d92aa5919325bdfbdd11d2494ac45a3600960405180806020018381526020018281038252605a8152602001807f2f55736572732f73686f6b6973686f6b692f646576656c6f706d656e742f636f81526020017f6e73656e7379732f646973747269627574652f636f6e7472616374732f636f6e81526020017f7472616374732f44697374726962757465546f6b656e2e736f6c0000000000008152506060019250505060405180910390a17fb1ee757629b3a3b8ae76fba84cb4ceffdca3d94bfa41ef064c1401e4744f2fa3601a60405180806020018381526020018281038252605a8152602001807f2f55736572732f73686f6b6973686f6b692f646576656c6f706d656e742f636f81526020017f6e73656e7379732f646973747269627574652f636f6e7472616374732f636f6e81526020017f7472616374732f44697374726962757465546f6b656e2e736f6c0000000000008152506060019250505060405180910390a16000821180156184445750600160003373ffffffffffffffffffffffffffffffffffffffff1673ffffffffffffffffffffffffffffffffffffffff168152602001908152602001600020548211155b151561844f57600080fd5b7f327394e5314479530bf061acc0340ef760614b662f79855a3a128cfdb02d02d5600960405180806020018381526020018281038252605a8152602001807f2f55736572732f73686f6b6973686f6b692f646576656c6f706d656e742f636f81526020017f6e73656e7379732f646973747269627574652f636f6e7472616374732f636f6e81526020017f7472616374732f44697374726962757465546f6b656e2e736f6c0000000000008152506060019250505060405180910390a17f7932d36ec58672eb75ccd3c9adc80b64bb178911f4fff799e13f3bb53e29f65760a860405180806020018381526020018281038252605a8152602001807f2f55736572732f73686f6b6973686f6b692f646576656c6f706d656e742f636f81526020017f6e73656e7379732f646973747269627574652f636f6e7472616374732f636f6e81526020017f7472616374732f44697374726962757465546f6b656e2e736f6c0000000000008152506060019250505060405180910390a17fb1ee757629b3a3b8ae76fba84cb4ceffdca3d94bfa41ef064c1401e4744f2fa3601b60405180806020018381526020018281038252605a8152602001807f2f55736572732f73686f6b6973686f6b692f646576656c6f706d656e742f636f81526020017f6e73656e7379732f646973747269627574652f636f6e7472616374732f636f6e81526020017f7472616374732f44697374726962757465546f6b656e2e736f6c0000000000008152506060019250505060405180910390a161868e614cf8565b820290507f7932d36ec58672eb75ccd3c9adc80b64bb178911f4fff799e13f3bb53e29f65760a960405180806020018381526020018281038252605a8152602001807f2f55736572732f73686f6b6973686f6b692f646576656c6f706d656e742f636f81526020017f6e73656e7379732f646973747269627574652f636f6e7472616374732f636f6e81526020017f7472616374732f44697374726962757465546f6b656e2e736f6c0000000000008152506060019250505060405180910390a17fb1ee757629b3a3b8ae76fba84cb4ceffdca3d94bfa41ef064c1401e4744f2fa3601c60405180806020018381526020018281038252605a8152602001807f2f55736572732f73686f6b6973686f6b692f646576656c6f706d656e742f636f81526020017f6e73656e7379732f646973747269627574652f636f6e7472616374732f636f6e81526020017f7472616374732f44697374726962757465546f6b656e2e736f6c0000000000008152506060019250505060405180910390a181600160003373ffffffffffffffffffffffffffffffffffffffff1673ffffffffffffffffffffffffffffffffffffffff168152602001908152602001600020600082825403925050819055507f7932d36ec58672eb75ccd3c9adc80b64bb178911f4fff799e13f3bb53e29f65760aa60405180806020018381526020018281038252605a8152602001807f2f55736572732f73686f6b6973686f6b692f646576656c6f706d656e742f636f81526020017f6e73656e7379732f646973747269627574652f636f6e7472616374732f636f6e81526020017f7472616374732f44697374726962757465546f6b656e2e736f6c0000000000008152506060019250505060405180910390a17fb1ee757629b3a3b8ae76fba84cb4ceffdca3d94bfa41ef064c1401e4744f2fa3601d60405180806020018381526020018281038252605a8152602001807f2f55736572732f73686f6b6973686f6b692f646576656c6f706d656e742f636f81526020017f6e73656e7379732f646973747269627574652f636f6e7472616374732f636f6e81526020017f7472616374732f44697374726962757465546f6b656e2e736f6c0000000000008152506060019250505060405180910390a16189e882600554619b4190919063ffffffff16565b6005819055507f7932d36ec58672eb75ccd3c9adc80b64bb178911f4fff799e13f3bb53e29f65760ab60405180806020018381526020018281038252605a8152602001807f2f55736572732f73686f6b6973686f6b692f646576656c6f706d656e742f636f81526020017f6e73656e7379732f646973747269627574652f636f6e7472616374732f636f6e81526020017f7472616374732f44697374726962757465546f6b656e2e736f6c0000000000008152506060019250505060405180910390a17fb1ee757629b3a3b8ae76fba84cb4ceffdca3d94bfa41ef064c1401e4744f2fa3601e60405180806020018381526020018281038252605a8152602001807f2f55736572732f73686f6b6973686f6b692f646576656c6f706d656e742f636f81526020017f6e73656e7379732f646973747269627574652f636f6e7472616374732f636f6e81526020017f7472616374732f44697374726962757465546f6b656e2e736f6c0000000000008152506060019250505060405180910390a1806006600082825403925050819055507f7932d36ec58672eb75ccd3c9adc80b64bb178911f4fff799e13f3bb53e29f65760ac60405180806020018381526020018281038252605a8152602001807f2f55736572732f73686f6b6973686f6b692f646576656c6f706d656e742f636f81526020017f6e73656e7379732f646973747269627574652f636f6e7472616374732f636f6e81526020017f7472616374732f44697374726962757465546f6b656e2e736f6c0000000000008152506060019250505060405180910390a17fb1ee757629b3a3b8ae76fba84cb4ceffdca3d94bfa41ef064c1401e4744f2fa3601f60405180806020018381526020018281038252605a8152602001807f2f55736572732f73686f6b6973686f6b692f646576656c6f706d656e742f636f81526020017f6e73656e7379732f646973747269627574652f636f6e7472616374732f636f6e81526020017f7472616374732f44697374726962757465546f6b656e2e736f6c0000000000008152506060019250505060405180910390a17f210405eb88ac7589aa9de0a6e36b9c9d3cd6e4061b74363d250a77afe3c6efb78282604051808381526020018281526020019250505060405180910390a17f7932d36ec58672eb75ccd3c9adc80b64bb178911f4fff799e13f3bb53e29f65760ad60405180806020018381526020018281038252605a8152602001807f2f55736572732f73686f6b6973686f6b692f646576656c6f706d656e742f636f81526020017f6e73656e7379732f646973747269627574652f636f6e7472616374732f636f6e81526020017f7472616374732f44697374726962757465546f6b656e2e736f6c0000000000008152506060019250505060405180910390a13373ffffffffffffffffffffffffffffffffffffffff166108fc829081150290604051600060405180830381858888f193505050501515618e2e57600080fd5b5050565b7f4406261c1d7d5e139e4c1192b5ff49ff4f4bc04cd96e3935d6df8444d5af87de600160405180806020018381526020018281038252605a8152602001807f2f55736572732f73686f6b6973686f6b692f646576656c6f706d656e742f636f81526020017f6e73656e7379732f646973747269627574652f636f6e7472616374732f636f6e81526020017f7472616374732f44697374726962757465546f6b656e2e736f6c0000000000008152506060019250505060405180910390a17f7932d36ec58672eb75ccd3c9adc80b64bb178911f4fff799e13f3bb53e29f657602e60405180806020018381526020018281038252605a8152602001807f2f55736572732f73686f6b6973686f6b692f646576656c6f706d656e742f636f81526020017f6e73656e7379732f646973747269627574652f636f6e7472616374732f636f6e81526020017f7472616374732f44697374726962757465546f6b656e2e736f6c0000000000008152506060019250505060405180910390a17f56679d61ea0100261cc596a8af6170246d92aa5919325bdfbdd11d2494ac45a3600160405180806020018381526020018281038252605a8152602001807f2f55736572732f73686f6b6973686f6b692f646576656c6f706d656e742f636f81526020017f6e73656e7379732f646973747269627574652f636f6e7472616374732f636f6e81526020017f7472616374732f44697374726962757465546f6b656e2e736f6c0000000000008152506060019250505060405180910390a17fb1ee757629b3a3b8ae76fba84cb4ceffdca3d94bfa41ef064c1401e4744f2fa3600160405180806020018381526020018281038252605a8152602001807f2f55736572732f73686f6b6973686f6b692f646576656c6f706d656e742f636f81526020017f6e73656e7379732f646973747269627574652f636f6e7472616374732f636f6e81526020017f7472616374732f44697374726962757465546f6b656e2e736f6c0000000000008152506060019250505060405180910390a1600360009054906101000a900473ffffffffffffffffffffffffffffffffffffffff1673ffffffffffffffffffffffffffffffffffffffff163373ffffffffffffffffffffffffffffffffffffffff1614151561918257600080fd5b7f327394e5314479530bf061acc0340ef760614b662f79855a3a128cfdb02d02d5600160405180806020018381526020018281038252605a8152602001807f2f55736572732f73686f6b6973686f6b692f646576656c6f706d656e742f636f81526020017f6e73656e7379732f646973747269627574652f636f6e7472616374732f636f6e81526020017f7472616374732f44697374726962757465546f6b656e2e736f6c0000000000008152506060019250505060405180910390a17f7932d36ec58672eb75ccd3c9adc80b64bb178911f4fff799e13f3bb53e29f657602f60405180806020018381526020018281038252605a8152602001807f2f55736572732f73686f6b6973686f6b692f646576656c6f706d656e742f636f81526020017f6e73656e7379732f646973747269627574652f636f6e7472616374732f636f6e81526020017f7472616374732f44697374726962757465546f6b656e2e736f6c0000000000008152506060019250505060405180910390a17f4406261c1d7d5e139e4c1192b5ff49ff4f4bc04cd96e3935d6df8444d5af87de600c60405180806020018381526020018281038252605a8152602001807f2f55736572732f73686f6b6973686f6b692f646576656c6f706d656e742f636f81526020017f6e73656e7379732f646973747269627574652f636f6e7472616374732f636f6e81526020017f7472616374732f44697374726962757465546f6b656e2e736f6c0000000000008152506060019250505060405180910390a17f7932d36ec58672eb75ccd3c9adc80b64bb178911f4fff799e13f3bb53e29f65760c860405180806020018381526020018281038252605a8152602001807f2f55736572732f73686f6b6973686f6b692f646576656c6f706d656e742f636f81526020017f6e73656e7379732f646973747269627574652f636f6e7472616374732f636f6e81526020017f7472616374732f44697374726962757465546f6b656e2e736f6c0000000000008152506060019250505060405180910390a17fb1ee757629b3a3b8ae76fba84cb4ceffdca3d94bfa41ef064c1401e4744f2fa3602260405180806020018381526020018281038252605a8152602001807f2f55736572732f73686f6b6973686f6b692f646576656c6f706d656e742f636f81526020017f6e73656e7379732f646973747269627574652f636f6e7472616374732f636f6e81526020017f7472616374732f44697374726962757465546f6b656e2e736f6c0000000000008152506060019250505060405180910390a18060066000828254019250508190555050565b60008060007f4406261c1d7d5e139e4c1192b5ff49ff4f4bc04cd96e3935d6df8444d5af87de600760405180806020018381526020018281038252605a8152602001807f2f55736572732f73686f6b6973686f6b692f646576656c6f706d656e742f636f81526020017f6e73656e7379732f646973747269627574652f636f6e7472616374732f636f6e81526020017f7472616374732f44697374726962757465546f6b656e2e736f6c0000000000008152506060019250505060405180910390a17f7932d36ec58672eb75ccd3c9adc80b64bb178911f4fff799e13f3bb53e29f657607860405180806020018381526020018281038252605a8152602001807f2f55736572732f73686f6b6973686f6b692f646576656c6f706d656e742f636f81526020017f6e73656e7379732f646973747269627574652f636f6e7472616374732f636f6e81526020017f7472616374732f44697374726962757465546f6b656e2e736f6c0000000000008152506060019250505060405180910390a17fb1ee757629b3a3b8ae76fba84cb4ceffdca3d94bfa41ef064c1401e4744f2fa3600c60405180806020018381526020018281038252605a8152602001807f2f55736572732f73686f6b6973686f6b692f646576656c6f706d656e742f636f81526020017f6e73656e7379732f646973747269627574652f636f6e7472616374732f636f6e81526020017f7472616374732f44697374726962757465546f6b656e2e736f6c0000000000008152506060019250505060405180910390a161978a614cf8565b91507f7932d36ec58672eb75ccd3c9adc80b64bb178911f4fff799e13f3bb53e29f657607960405180806020018381526020018281038252605a8152602001807f2f55736572732f73686f6b6973686f6b692f646576656c6f706d656e742f636f81526020017f6e73656e7379732f646973747269627574652f636f6e7472616374732f636f6e81526020017f7472616374732f44697374726962757465546f6b656e2e736f6c0000000000008152506060019250505060405180910390a17fb1ee757629b3a3b8ae76fba84cb4ceffdca3d94bfa41ef064c1401e4744f2fa3600d60405180806020018381526020018281038252605a8152602001807f2f55736572732f73686f6b6973686f6b692f646576656c6f706d656e742f636f81526020017f6e73656e7379732f646973747269627574652f636f6e7472616374732f636f6e81526020017f7472616374732f44697374726962757465546f6b656e2e736f6c0000000000008152506060019250505060405180910390a1836005540190507f7932d36ec58672eb75ccd3c9adc80b64bb178911f4fff799e13f3bb53e29f657607a60405180806020018381526020018281038252605a8152602001807f2f55736572732f73686f6b6973686f6b692f646576656c6f706d656e742f636f81526020017f6e73656e7379732f646973747269627574652f636f6e7472616374732f636f6e81526020017f7472616374732f44697374726962757465546f6b656e2e736f6c0000000000008152506060019250505060405180910390a17fb1ee757629b3a3b8ae76fba84cb4ceffdca3d94bfa41ef064c1401e4744f2fa3600e60405180806020018381526020018281038252605a8152602001807f2f55736572732f73686f6b6973686f6b692f646576656c6f706d656e742f636f81526020017f6e73656e7379732f646973747269627574652f636f6e7472616374732f636f6e81526020017f7472616374732f44697374726962757465546f6b656e2e736f6c0000000000008152506060019250505060405180910390a16103e873__Division______________________________622c1a9e868460036000604051602001526040518463ffffffff167c010000000000000000000000000000000000000000000000000000000002815260040180848152602001838152602001828152602001935050505060206040518083038186803b1515619b0d57600080fd5b6102c65a03f41515619b1e57600080fd5b505050604051805190506103e8018302811515619b3757fe5b0492505050919050565b60007f9fa68cf8d737dd79618664e3f784f666b17e866f7a6a5ec90e90e14322fb6c42600360405180806020018381526020018281038252605b8152602001807f2f55736572732f73686f6b6973686f6b692f646576656c6f706d656e742f636f81526020017f6e73656e7379732f646973747269627574652f636f6e7472616374732f636f6e81526020017f7472616374732f6c6962726172792f536166654d6174682e736f6c00000000008152506060019250505060405180910390a17f310edbc0827c5bdae64c54b31460ee27a9b51163364c93d2801d2e514e2213c1602360405180806020018381526020018281038252605b8152602001807f2f55736572732f73686f6b6973686f6b692f646576656c6f706d656e742f636f81526020017f6e73656e7379732f646973747269627574652f636f6e7472616374732f636f6e81526020017f7472616374732f6c6962726172792f536166654d6174682e736f6c00000000008152506060019250505060405180910390a17ff845edff3c911bb719be19d1dd85ef72b046324d200a799322db75ff48847b7a600360405180806020018381526020018281038252605b8152602001807f2f55736572732f73686f6b6973686f6b692f646576656c6f706d656e742f636f81526020017f6e73656e7379732f646973747269627574652f636f6e7472616374732f636f6e81526020017f7472616374732f6c6962726172792f536166654d6174682e736f6c00000000008152506060019250505060405180910390a17f278e28d126ebc390c541b58a9665ba5e5102ba9d342b94345e6b97c33f35e809600860405180806020018381526020018281038252605b8152602001807f2f55736572732f73686f6b6973686f6b692f646576656c6f706d656e742f636f81526020017f6e73656e7379732f646973747269627574652f636f6e7472616374732f636f6e81526020017f7472616374732f6c6962726172792f536166654d6174682e736f6c00000000008152506060019250505060405180910390a1828211151515619e4357fe5b7f07c25c2aea8196dea33396ea8a440ece1bab5adae3e4959e934995df029e22e6600360405180806020018381526020018281038252605b8152602001807f2f55736572732f73686f6b6973686f6b692f646576656c6f706d656e742f636f81526020017f6e73656e7379732f646973747269627574652f636f6e7472616374732f636f6e81526020017f7472616374732f6c6962726172792f536166654d6174682e736f6c00000000008152506060019250505060405180910390a17f310edbc0827c5bdae64c54b31460ee27a9b51163364c93d2801d2e514e2213c1602460405180806020018381526020018281038252605b8152602001807f2f55736572732f73686f6b6973686f6b692f646576656c6f706d656e742f636f81526020017f6e73656e7379732f646973747269627574652f636f6e7472616374732f636f6e81526020017f7472616374732f6c6962726172792f536166654d6174682e736f6c00000000008152506060019250505060405180910390a17f278e28d126ebc390c541b58a9665ba5e5102ba9d342b94345e6b97c33f35e809600960405180806020018381526020018281038252605b8152602001807f2f55736572732f73686f6b6973686f6b692f646576656c6f706d656e742f636f81526020017f6e73656e7379732f646973747269627574652f636f6e7472616374732f636f6e81526020017f7472616374732f6c6962726172792f536166654d6174682e736f6c00000000008152506060019250505060405180910390a18183039050929150505600a165627a7a7230582015320b7044b7372f629bf46e2fb8325acfff6381b37356e61d920c138d3d29560029","source":"pragma solidity ^0.4.19;\n\nimport \"./library/StandardToken.sol\";\nimport \"./library/SafeMath.sol\";\nimport \"./library/Division.sol\";\n\n/**\n@title Bonded Curve Implementation of an ERC20 token\n@author Team: Jessica Marshall, Ashoka Finley\n@notice This contract implements functionality to be controlled by a TokenRegistry & a ReputationRegistry.\n@dev This contract must be initialized with both a TokenRegistry & a ReputationRegistry.\n*/\ncontract DistributeToken is StandardToken {event __CoverageDistributeToken(string fileName, uint256 lineNumber);\nevent __FunctionCoverageDistributeToken(string fileName, uint256 fnId);\nevent __StatementCoverageDistributeToken(string fileName, uint256 statementId);\nevent __BranchCoverageDistributeToken(string fileName, uint256 branchId, uint256 locationIdx);\nevent __AssertPreCoverageDistributeToken(string fileName, uint256 branchId);\nevent __AssertPostCoverageDistributeToken(string fileName, uint256 branchId);\n\n\n    using SafeMath for uint256;\n\n    // =====================================================================\n    // EVENTS\n    // =====================================================================\n\n    event LogMint(uint256 amountMinted, uint256 totalCost);\n    event LogWithdraw(uint256 amountWithdrawn, uint256 reward);\n\n    // =====================================================================\n    // STATE VARIABLES\n    // =====================================================================\n\n    address tokenRegistryAddress;\n    address reputationRegistryAddress;\n\n    string public constant symbol = \"DST\";\n    string public constant name = \"Distributed Utility Token\";\n    uint8 public constant decimals = 18;\n\n    uint256 public totalSupply = 0;\n    uint256 public weiBal;\n\n    // .00005 ether\n    uint256 baseCost = 50000000000000;\n\n    // =====================================================================\n    // MODIFIERS\n    // =====================================================================\n\n    modifier onlyTR() {__FunctionCoverageDistributeToken('/Users/shokishoki/development/consensys/distribute/contracts/contracts/DistributeToken.sol',1);\n\n__CoverageDistributeToken('/Users/shokishoki/development/consensys/distribute/contracts/contracts/DistributeToken.sol',46);\n        __AssertPreCoverageDistributeToken('/Users/shokishoki/development/consensys/distribute/contracts/contracts/DistributeToken.sol',1);\n __StatementCoverageDistributeToken('/Users/shokishoki/development/consensys/distribute/contracts/contracts/DistributeToken.sol',1);\nrequire(msg.sender == tokenRegistryAddress);__AssertPostCoverageDistributeToken('/Users/shokishoki/development/consensys/distribute/contracts/contracts/DistributeToken.sol',1);\n\n__CoverageDistributeToken('/Users/shokishoki/development/consensys/distribute/contracts/contracts/DistributeToken.sol',47);\n        _;\n    }\n\n    modifier onlyTRorRR() {__FunctionCoverageDistributeToken('/Users/shokishoki/development/consensys/distribute/contracts/contracts/DistributeToken.sol',2);\n\n__CoverageDistributeToken('/Users/shokishoki/development/consensys/distribute/contracts/contracts/DistributeToken.sol',51);\n        __AssertPreCoverageDistributeToken('/Users/shokishoki/development/consensys/distribute/contracts/contracts/DistributeToken.sol',2);\n __StatementCoverageDistributeToken('/Users/shokishoki/development/consensys/distribute/contracts/contracts/DistributeToken.sol',2);\nrequire(\n            msg.sender == tokenRegistryAddress ||\n            msg.sender == reputationRegistryAddress\n        );__AssertPostCoverageDistributeToken('/Users/shokishoki/development/consensys/distribute/contracts/contracts/DistributeToken.sol',2);\n\n__CoverageDistributeToken('/Users/shokishoki/development/consensys/distribute/contracts/contracts/DistributeToken.sol',55);\n        _;\n    }\n\n    // =====================================================================\n    // CONSTRUCTOR\n    // =====================================================================\n\n    /**\n    @dev Initialize the DistributeToken contract with the address of a TokenRegistry contract & a\n    ReputationRegistry contract\n    @param _tokenRegistry Address of the Token Registry\n    @param _reputationRegistry Address of the ReputationRegistry\n    */\n    function DistributeToken(address _tokenRegistry, address _reputationRegistry) public {__FunctionCoverageDistributeToken('/Users/shokishoki/development/consensys/distribute/contracts/contracts/DistributeToken.sol',3);\n\n__CoverageDistributeToken('/Users/shokishoki/development/consensys/distribute/contracts/contracts/DistributeToken.sol',69);\n        __AssertPreCoverageDistributeToken('/Users/shokishoki/development/consensys/distribute/contracts/contracts/DistributeToken.sol',3);\n __StatementCoverageDistributeToken('/Users/shokishoki/development/consensys/distribute/contracts/contracts/DistributeToken.sol',3);\nrequire(tokenRegistryAddress == 0 && reputationRegistryAddress == 0);__AssertPostCoverageDistributeToken('/Users/shokishoki/development/consensys/distribute/contracts/contracts/DistributeToken.sol',3);\n\n\n__CoverageDistributeToken('/Users/shokishoki/development/consensys/distribute/contracts/contracts/DistributeToken.sol',71);\n         __StatementCoverageDistributeToken('/Users/shokishoki/development/consensys/distribute/contracts/contracts/DistributeToken.sol',4);\ntokenRegistryAddress = _tokenRegistry;\n__CoverageDistributeToken('/Users/shokishoki/development/consensys/distribute/contracts/contracts/DistributeToken.sol',72);\n         __StatementCoverageDistributeToken('/Users/shokishoki/development/consensys/distribute/contracts/contracts/DistributeToken.sol',5);\nreputationRegistryAddress = _reputationRegistry;\n    }\n\n    // =====================================================================\n    // FALLBACK\n    // =====================================================================\n\n    function() public payable {__FunctionCoverageDistributeToken('/Users/shokishoki/development/consensys/distribute/contracts/contracts/DistributeToken.sol',4);\n}\n\n    // =====================================================================\n    // UTILITY\n    // =====================================================================\n\n    /**\n    @notice Returns the current price of a token calculated as the contract wei balance divided\n    by the token supply\n    @return The current price of 1 token in wei\n    */\n    function currentPrice() public  returns (uint256) {__FunctionCoverageDistributeToken('/Users/shokishoki/development/consensys/distribute/contracts/contracts/DistributeToken.sol',5);\n\n        //calculated current burn reward of 1 token at current weiBal and token supply\n__CoverageDistributeToken('/Users/shokishoki/development/consensys/distribute/contracts/contracts/DistributeToken.sol',92);\n         __StatementCoverageDistributeToken('/Users/shokishoki/development/consensys/distribute/contracts/contracts/DistributeToken.sol',6);\nif (weiBal == 0 || totalSupply == 0) {__BranchCoverageDistributeToken('/Users/shokishoki/development/consensys/distribute/contracts/contracts/DistributeToken.sol',4,0);  __StatementCoverageDistributeToken('/Users/shokishoki/development/consensys/distribute/contracts/contracts/DistributeToken.sol',7);\nreturn baseCost; }else { __BranchCoverageDistributeToken('/Users/shokishoki/development/consensys/distribute/contracts/contracts/DistributeToken.sol',4,1);}\n\n        // If totalTokenSupply is greater than weiBal this will fail\n__CoverageDistributeToken('/Users/shokishoki/development/consensys/distribute/contracts/contracts/DistributeToken.sol',94);\n         __StatementCoverageDistributeToken('/Users/shokishoki/development/consensys/distribute/contracts/contracts/DistributeToken.sol',8);\nuint256 price = weiBal / totalSupply;\n__CoverageDistributeToken('/Users/shokishoki/development/consensys/distribute/contracts/contracts/DistributeToken.sol',95);\n         __StatementCoverageDistributeToken('/Users/shokishoki/development/consensys/distribute/contracts/contracts/DistributeToken.sol',9);\nreturn price < baseCost\n            ? baseCost\n            : price;\n    }\n\n    /**\n    @notice Return the wei required to mint `_tokens` tokens\n    @dev Calulates the target price and multiplies it by the number of tokens desired\n    @param _tokens The number of tokens requested to be minted\n    @return The wei required to purchase the given amount of tokens\n    */\n    function weiRequired(uint256 _tokens) public  returns (uint256) {__FunctionCoverageDistributeToken('/Users/shokishoki/development/consensys/distribute/contracts/contracts/DistributeToken.sol',6);\n\n__CoverageDistributeToken('/Users/shokishoki/development/consensys/distribute/contracts/contracts/DistributeToken.sol',107);\n        __AssertPreCoverageDistributeToken('/Users/shokishoki/development/consensys/distribute/contracts/contracts/DistributeToken.sol',5);\n __StatementCoverageDistributeToken('/Users/shokishoki/development/consensys/distribute/contracts/contracts/DistributeToken.sol',10);\nrequire(_tokens > 0);__AssertPostCoverageDistributeToken('/Users/shokishoki/development/consensys/distribute/contracts/contracts/DistributeToken.sol',5);\n\n\n__CoverageDistributeToken('/Users/shokishoki/development/consensys/distribute/contracts/contracts/DistributeToken.sol',109);\n         __StatementCoverageDistributeToken('/Users/shokishoki/development/consensys/distribute/contracts/contracts/DistributeToken.sol',11);\nreturn targetPrice(_tokens) *  _tokens;\n    }\n\n    /**\n    @notice Calulates the price of `_tokens` tokens dependent on the market share that `_tokens`\n    tokens represent.\n    @dev A helper function to provide clarity for weiRequired\n    @param _tokens The number of tokens requested to be minted\n    @return The target price of the amount of tokens requested\n    */\n    function targetPrice(uint _tokens) internal  returns (uint256) {__FunctionCoverageDistributeToken('/Users/shokishoki/development/consensys/distribute/contracts/contracts/DistributeToken.sol',7);\n\n__CoverageDistributeToken('/Users/shokishoki/development/consensys/distribute/contracts/contracts/DistributeToken.sol',120);\n         __StatementCoverageDistributeToken('/Users/shokishoki/development/consensys/distribute/contracts/contracts/DistributeToken.sol',12);\nuint256 cp = currentPrice();\n__CoverageDistributeToken('/Users/shokishoki/development/consensys/distribute/contracts/contracts/DistributeToken.sol',121);\n         __StatementCoverageDistributeToken('/Users/shokishoki/development/consensys/distribute/contracts/contracts/DistributeToken.sol',13);\nuint256 newSupply = totalSupply + _tokens;\n__CoverageDistributeToken('/Users/shokishoki/development/consensys/distribute/contracts/contracts/DistributeToken.sol',122);\n         __StatementCoverageDistributeToken('/Users/shokishoki/development/consensys/distribute/contracts/contracts/DistributeToken.sol',14);\nreturn cp * (1000 + Division.percent(_tokens, newSupply, 3)) / 1000;\n    }\n\n    // =====================================================================\n    // TOKEN\n    // =====================================================================\n\n    /**\n    @notice Mint `_tokens` tokens, add `_tokens` to the contract totalSupply and add the weiRequired to\n    the contract weiBalance\n    @dev The required amount of wei must be transferred as the msg.value\n    @param _tokens The number of tokens requested to be minted\n    */\n    function mint(uint _tokens) public payable {__FunctionCoverageDistributeToken('/Users/shokishoki/development/consensys/distribute/contracts/contracts/DistributeToken.sol',8);\n\n__CoverageDistributeToken('/Users/shokishoki/development/consensys/distribute/contracts/contracts/DistributeToken.sol',136);\n         __StatementCoverageDistributeToken('/Users/shokishoki/development/consensys/distribute/contracts/contracts/DistributeToken.sol',15);\nuint256 weiRequiredVal = weiRequired(_tokens);\n__CoverageDistributeToken('/Users/shokishoki/development/consensys/distribute/contracts/contracts/DistributeToken.sol',137);\n        __AssertPreCoverageDistributeToken('/Users/shokishoki/development/consensys/distribute/contracts/contracts/DistributeToken.sol',6);\n __StatementCoverageDistributeToken('/Users/shokishoki/development/consensys/distribute/contracts/contracts/DistributeToken.sol',16);\nrequire(msg.value >= weiRequiredVal);__AssertPostCoverageDistributeToken('/Users/shokishoki/development/consensys/distribute/contracts/contracts/DistributeToken.sol',6);\n\n\n__CoverageDistributeToken('/Users/shokishoki/development/consensys/distribute/contracts/contracts/DistributeToken.sol',139);\n         __StatementCoverageDistributeToken('/Users/shokishoki/development/consensys/distribute/contracts/contracts/DistributeToken.sol',17);\ntotalSupply += _tokens;\n__CoverageDistributeToken('/Users/shokishoki/development/consensys/distribute/contracts/contracts/DistributeToken.sol',140);\n         __StatementCoverageDistributeToken('/Users/shokishoki/development/consensys/distribute/contracts/contracts/DistributeToken.sol',18);\nbalances[msg.sender] += _tokens;\n__CoverageDistributeToken('/Users/shokishoki/development/consensys/distribute/contracts/contracts/DistributeToken.sol',141);\n         __StatementCoverageDistributeToken('/Users/shokishoki/development/consensys/distribute/contracts/contracts/DistributeToken.sol',19);\nweiBal += weiRequiredVal;\n__CoverageDistributeToken('/Users/shokishoki/development/consensys/distribute/contracts/contracts/DistributeToken.sol',142);\n         __StatementCoverageDistributeToken('/Users/shokishoki/development/consensys/distribute/contracts/contracts/DistributeToken.sol',20);\nLogMint(_tokens, weiRequiredVal);\n__CoverageDistributeToken('/Users/shokishoki/development/consensys/distribute/contracts/contracts/DistributeToken.sol',143);\n         __StatementCoverageDistributeToken('/Users/shokishoki/development/consensys/distribute/contracts/contracts/DistributeToken.sol',21);\nuint256 fundsLeft = msg.value - weiRequiredVal;\n__CoverageDistributeToken('/Users/shokishoki/development/consensys/distribute/contracts/contracts/DistributeToken.sol',144);\n         __StatementCoverageDistributeToken('/Users/shokishoki/development/consensys/distribute/contracts/contracts/DistributeToken.sol',22);\nif (fundsLeft > 0) {__BranchCoverageDistributeToken('/Users/shokishoki/development/consensys/distribute/contracts/contracts/DistributeToken.sol',7,0); msg.sender.transfer(fundsLeft); }else { __BranchCoverageDistributeToken('/Users/shokishoki/development/consensys/distribute/contracts/contracts/DistributeToken.sol',7,1);}\n\n    }\n\n    /**\n    @notice Burn `_tokens` tokens by removing them from the total supply, and from the Token Registry\n    balance.\n    @dev Only to be called by the Token Registry initialized during constrction\n    @param _tokens The number of tokens to burn\n    */\n    function burn(uint256 _tokens) public onlyTR {__FunctionCoverageDistributeToken('/Users/shokishoki/development/consensys/distribute/contracts/contracts/DistributeToken.sol',9);\n\n__CoverageDistributeToken('/Users/shokishoki/development/consensys/distribute/contracts/contracts/DistributeToken.sol',154);\n        __AssertPreCoverageDistributeToken('/Users/shokishoki/development/consensys/distribute/contracts/contracts/DistributeToken.sol',8);\n __StatementCoverageDistributeToken('/Users/shokishoki/development/consensys/distribute/contracts/contracts/DistributeToken.sol',23);\nrequire(_tokens <= totalSupply && _tokens > 0);__AssertPostCoverageDistributeToken('/Users/shokishoki/development/consensys/distribute/contracts/contracts/DistributeToken.sol',8);\n\n__CoverageDistributeToken('/Users/shokishoki/development/consensys/distribute/contracts/contracts/DistributeToken.sol',155);\n         __StatementCoverageDistributeToken('/Users/shokishoki/development/consensys/distribute/contracts/contracts/DistributeToken.sol',24);\nbalances[msg.sender] -= _tokens;\n__CoverageDistributeToken('/Users/shokishoki/development/consensys/distribute/contracts/contracts/DistributeToken.sol',156);\n         __StatementCoverageDistributeToken('/Users/shokishoki/development/consensys/distribute/contracts/contracts/DistributeToken.sol',25);\ntotalSupply -= _tokens;\n    }\n\n    /**\n    @notice Sell `_tokens` tokens at the current token price.\n    @dev Checks that `_tokens` is greater than 0 and that `msg.sender` has sufficient balance. The\n    corresponding amount of wei is transferred to the `msg.sender`\n    @param _tokens The number of tokens to sell.\n    */\n    function sell(uint256 _tokens) public {__FunctionCoverageDistributeToken('/Users/shokishoki/development/consensys/distribute/contracts/contracts/DistributeToken.sol',10);\n\n__CoverageDistributeToken('/Users/shokishoki/development/consensys/distribute/contracts/contracts/DistributeToken.sol',166);\n        __AssertPreCoverageDistributeToken('/Users/shokishoki/development/consensys/distribute/contracts/contracts/DistributeToken.sol',9);\n __StatementCoverageDistributeToken('/Users/shokishoki/development/consensys/distribute/contracts/contracts/DistributeToken.sol',26);\nrequire(_tokens > 0 && (_tokens <= balances[msg.sender]));__AssertPostCoverageDistributeToken('/Users/shokishoki/development/consensys/distribute/contracts/contracts/DistributeToken.sol',9);\n\n\n__CoverageDistributeToken('/Users/shokishoki/development/consensys/distribute/contracts/contracts/DistributeToken.sol',168);\n         __StatementCoverageDistributeToken('/Users/shokishoki/development/consensys/distribute/contracts/contracts/DistributeToken.sol',27);\nuint256 weiVal = _tokens * currentPrice();\n__CoverageDistributeToken('/Users/shokishoki/development/consensys/distribute/contracts/contracts/DistributeToken.sol',169);\n         __StatementCoverageDistributeToken('/Users/shokishoki/development/consensys/distribute/contracts/contracts/DistributeToken.sol',28);\nbalances[msg.sender] -= _tokens;\n__CoverageDistributeToken('/Users/shokishoki/development/consensys/distribute/contracts/contracts/DistributeToken.sol',170);\n         __StatementCoverageDistributeToken('/Users/shokishoki/development/consensys/distribute/contracts/contracts/DistributeToken.sol',29);\ntotalSupply = totalSupply.sub(_tokens);\n__CoverageDistributeToken('/Users/shokishoki/development/consensys/distribute/contracts/contracts/DistributeToken.sol',171);\n         __StatementCoverageDistributeToken('/Users/shokishoki/development/consensys/distribute/contracts/contracts/DistributeToken.sol',30);\nweiBal -= weiVal;\n__CoverageDistributeToken('/Users/shokishoki/development/consensys/distribute/contracts/contracts/DistributeToken.sol',172);\n         __StatementCoverageDistributeToken('/Users/shokishoki/development/consensys/distribute/contracts/contracts/DistributeToken.sol',31);\nLogWithdraw(_tokens, weiVal);\n__CoverageDistributeToken('/Users/shokishoki/development/consensys/distribute/contracts/contracts/DistributeToken.sol',173);\n        msg.sender.transfer(weiVal);\n    }\n\n    // =====================================================================\n    // TRANSFER\n    // =====================================================================\n\n    /**\n    @notice Transfer `_weiValue` wei to `_address`\n    @dev Only callable by the TokenRegistry or ReputationRegistry initialized during contract\n    construction\n    @param _address Receipient of wei value\n    @param _weiValue The amount of wei to transfer to the _address\n    */\n    function transferWeiTo(address _address, uint256 _weiValue) public onlyTRorRR {__FunctionCoverageDistributeToken('/Users/shokishoki/development/consensys/distribute/contracts/contracts/DistributeToken.sol',11);\n\n__CoverageDistributeToken('/Users/shokishoki/development/consensys/distribute/contracts/contracts/DistributeToken.sol',188);\n        __AssertPreCoverageDistributeToken('/Users/shokishoki/development/consensys/distribute/contracts/contracts/DistributeToken.sol',10);\n __StatementCoverageDistributeToken('/Users/shokishoki/development/consensys/distribute/contracts/contracts/DistributeToken.sol',32);\nrequire(_weiValue <= weiBal);__AssertPostCoverageDistributeToken('/Users/shokishoki/development/consensys/distribute/contracts/contracts/DistributeToken.sol',10);\n\n\n__CoverageDistributeToken('/Users/shokishoki/development/consensys/distribute/contracts/contracts/DistributeToken.sol',190);\n         __StatementCoverageDistributeToken('/Users/shokishoki/development/consensys/distribute/contracts/contracts/DistributeToken.sol',33);\nweiBal -= _weiValue;\n__CoverageDistributeToken('/Users/shokishoki/development/consensys/distribute/contracts/contracts/DistributeToken.sol',191);\n        _address.transfer(_weiValue);\n    }\n\n    /**\n    @notice Return `_weiValue` wei back to Distribute Token contract\n    @dev Only callable by the TokenRegistry initialized during contract construction\n    @param _weiValue The amount of wei to transfer back to the token contract\n    */\n    function returnWei(uint _weiValue) public onlyTR {__FunctionCoverageDistributeToken('/Users/shokishoki/development/consensys/distribute/contracts/contracts/DistributeToken.sol',12);\n\n__CoverageDistributeToken('/Users/shokishoki/development/consensys/distribute/contracts/contracts/DistributeToken.sol',200);\n         __StatementCoverageDistributeToken('/Users/shokishoki/development/consensys/distribute/contracts/contracts/DistributeToken.sol',34);\nweiBal += _weiValue;\n    }\n\n    /**\n    @notice Transfer `_tokens` tokens from the balance of `_owner` to the TokenRegistry escrow\n    @dev Only callable by the TokenRegistry initialized during contract construction\n    @param _owner Owner of the tokens being transferred\n    @param _tokens The number of tokens to transfer\n    */\n    function transferToEscrow(address _owner, uint256 _tokens) public onlyTR returns (bool) {__FunctionCoverageDistributeToken('/Users/shokishoki/development/consensys/distribute/contracts/contracts/DistributeToken.sol',13);\n\n__CoverageDistributeToken('/Users/shokishoki/development/consensys/distribute/contracts/contracts/DistributeToken.sol',210);\n        __AssertPreCoverageDistributeToken('/Users/shokishoki/development/consensys/distribute/contracts/contracts/DistributeToken.sol',11);\n __StatementCoverageDistributeToken('/Users/shokishoki/development/consensys/distribute/contracts/contracts/DistributeToken.sol',35);\nrequire(balances[_owner] >= _tokens);__AssertPostCoverageDistributeToken('/Users/shokishoki/development/consensys/distribute/contracts/contracts/DistributeToken.sol',11);\n\n__CoverageDistributeToken('/Users/shokishoki/development/consensys/distribute/contracts/contracts/DistributeToken.sol',211);\n         __StatementCoverageDistributeToken('/Users/shokishoki/development/consensys/distribute/contracts/contracts/DistributeToken.sol',36);\nbalances[_owner] -= _tokens;\n__CoverageDistributeToken('/Users/shokishoki/development/consensys/distribute/contracts/contracts/DistributeToken.sol',212);\n         __StatementCoverageDistributeToken('/Users/shokishoki/development/consensys/distribute/contracts/contracts/DistributeToken.sol',37);\nbalances[msg.sender] += _tokens;\n__CoverageDistributeToken('/Users/shokishoki/development/consensys/distribute/contracts/contracts/DistributeToken.sol',213);\n         __StatementCoverageDistributeToken('/Users/shokishoki/development/consensys/distribute/contracts/contracts/DistributeToken.sol',38);\nreturn true;\n    }\n\n    /**\n    @notice Transfer `_tokens` tokens from the TokenRegistry escrow to the balance of `_receipient`\n    @dev Only callable by the TokenRegistry initialized during contract construction\n    @param _receipient Receipient of the tokens being transferred\n    @param _tokens The number of tokens to transfer\n    */\n    function transferFromEscrow(address _receipient, uint256 _tokens) public onlyTR returns (bool) {__FunctionCoverageDistributeToken('/Users/shokishoki/development/consensys/distribute/contracts/contracts/DistributeToken.sol',14);\n\n__CoverageDistributeToken('/Users/shokishoki/development/consensys/distribute/contracts/contracts/DistributeToken.sol',223);\n        __AssertPreCoverageDistributeToken('/Users/shokishoki/development/consensys/distribute/contracts/contracts/DistributeToken.sol',12);\n __StatementCoverageDistributeToken('/Users/shokishoki/development/consensys/distribute/contracts/contracts/DistributeToken.sol',39);\nrequire(balances[msg.sender] >= _tokens);__AssertPostCoverageDistributeToken('/Users/shokishoki/development/consensys/distribute/contracts/contracts/DistributeToken.sol',12);\n\n__CoverageDistributeToken('/Users/shokishoki/development/consensys/distribute/contracts/contracts/DistributeToken.sol',224);\n         __StatementCoverageDistributeToken('/Users/shokishoki/development/consensys/distribute/contracts/contracts/DistributeToken.sol',40);\nbalances[msg.sender] -= _tokens;\n__CoverageDistributeToken('/Users/shokishoki/development/consensys/distribute/contracts/contracts/DistributeToken.sol',225);\n         __StatementCoverageDistributeToken('/Users/shokishoki/development/consensys/distribute/contracts/contracts/DistributeToken.sol',41);\nbalances[_receipient] += _tokens;\n__CoverageDistributeToken('/Users/shokishoki/development/consensys/distribute/contracts/contracts/DistributeToken.sol',226);\n         __StatementCoverageDistributeToken('/Users/shokishoki/development/consensys/distribute/contracts/contracts/DistributeToken.sol',42);\nreturn true;\n    }\n\n}\n","sourcePath":"/Users/shokishoki/development/consensys/distribute/contracts/coverageEnv/contracts/DistributeToken.sol","compiler":{"name":"solc","version":"0.4.19+commit.c4cbbb05.Emscripten.clang"},"schemaVersion":"2.0.0","updatedAt":"2018-03-21T15:13:00.982Z"}