{"contractName":"Division","abi":[{"constant":true,"inputs":[{"name":"_numerator","type":"uint256"},{"name":"_denominator","type":"uint256"},{"name":"_precision","type":"uint256"}],"name":"percent","outputs":[{"name":"","type":"uint256"}],"payable":false,"stateMutability":"pure","type":"function"}],"bytecode":"0x6060604052341561000f57600080fd5b6104938061001e6000396000f300606060405260043610610040576000357c0100000000000000000000000000000000000000000000000000000000900463ffffffff1680622c1a9e14610045575b600080fd5b61006d6004808035906020019091908035906020019091908035906020019091905050610083565b6040518082815260200191505060405180910390f35b6000807fc765fd3eae638e71878fd640e4b8d9bab27b42e3d186ffa44a8f8f75da4acf2d600160405180806020018381526020018281038252605b8152602001807f2f55736572732f73686f6b6973686f6b692f646576656c6f706d656e742f636f81526020017f6e73656e7379732f646973747269627574652f636f6e7472616374732f636f6e81526020017f7472616374732f6c6962726172792f4469766973696f6e2e736f6c00000000008152506060019250505060405180910390a17f0c7b131ed4fcb9f9b7ffaf42f8d680bffe8e7e8c5bc88a84e6a17bd2dd92c081600660405180806020018381526020018281038252605b8152602001807f2f55736572732f73686f6b6973686f6b692f646576656c6f706d656e742f636f81526020017f6e73656e7379732f646973747269627574652f636f6e7472616374732f636f6e81526020017f7472616374732f6c6962726172792f4469766973696f6e2e736f6c00000000008152506060019250505060405180910390a17f256bfd4a038be7591b40e5f45da0334d433be9a5d86513acc274f9950ed23da4600160405180806020018381526020018281038252605b8152602001807f2f55736572732f73686f6b6973686f6b692f646576656c6f706d656e742f636f81526020017f6e73656e7379732f646973747269627574652f636f6e7472616374732f636f6e81526020017f7472616374732f6c6962726172792f4469766973696f6e2e736f6c00000000008152506060019250505060405180910390a160018301600a0a850290507f0c7b131ed4fcb9f9b7ffaf42f8d680bffe8e7e8c5bc88a84e6a17bd2dd92c081600860405180806020018381526020018281038252605b8152602001807f2f55736572732f73686f6b6973686f6b692f646576656c6f706d656e742f636f81526020017f6e73656e7379732f646973747269627574652f636f6e7472616374732f636f6e81526020017f7472616374732f6c6962726172792f4469766973696f6e2e736f6c00000000008152506060019250505060405180910390a17f256bfd4a038be7591b40e5f45da0334d433be9a5d86513acc274f9950ed23da4600260405180806020018381526020018281038252605b8152602001807f2f55736572732f73686f6b6973686f6b692f646576656c6f706d656e742f636f81526020017f6e73656e7379732f646973747269627574652f636f6e7472616374732f636f6e81526020017f7472616374732f6c6962726172792f4469766973696f6e2e736f6c00000000008152506060019250505060405180910390a1600a6005858381151561045157fe5b040181151561045c57fe5b0491505093925050505600a165627a7a72305820adacd8ab2af5bae35c832880668ec6117833e875cc3ce155779c51e94158230c0029","source":"pragma solidity ^0.4.19;\n\nlibrary Division {event __CoverageDivision(string fileName, uint256 lineNumber);\nevent __FunctionCoverageDivision(string fileName, uint256 fnId);\nevent __StatementCoverageDivision(string fileName, uint256 statementId);\nevent __BranchCoverageDivision(string fileName, uint256 branchId, uint256 locationIdx);\nevent __AssertPreCoverageDivision(string fileName, uint256 branchId);\nevent __AssertPostCoverageDivision(string fileName, uint256 branchId);\n\n    function percent(uint256 _numerator, uint256 _denominator, uint256 _precision) public  returns (uint256) {__FunctionCoverageDivision('/Users/shokishoki/development/consensys/distribute/contracts/contracts/library/Division.sol',1);\n\n         // caution, check safe-to-multiply here\n__CoverageDivision('/Users/shokishoki/development/consensys/distribute/contracts/contracts/library/Division.sol',6);\n         __StatementCoverageDivision('/Users/shokishoki/development/consensys/distribute/contracts/contracts/library/Division.sol',1);\nuint256 numerator = _numerator * 10 ** (_precision + 1);\n        // with rounding of last digit\n__CoverageDivision('/Users/shokishoki/development/consensys/distribute/contracts/contracts/library/Division.sol',8);\n         __StatementCoverageDivision('/Users/shokishoki/development/consensys/distribute/contracts/contracts/library/Division.sol',2);\nreturn ((numerator / _denominator) + 5) / 10;\n    }\n}\n","sourcePath":"/Users/shokishoki/development/consensys/distribute/contracts/coverageEnv/contracts/library/Division.sol","compiler":{"name":"solc","version":"0.4.19+commit.c4cbbb05.Emscripten.clang"},"schemaVersion":"2.0.0","updatedAt":"2018-03-21T15:13:01.044Z"}