{"contractName":"DLL","abi":[{"constant":true,"inputs":[{"name":"self","type":"DLL.Data storage"},{"name":"_curr","type":"uint256"}],"name":"getNext","outputs":[{"name":"","type":"uint256"}],"payable":false,"stateMutability":"view","type":"function"},{"constant":true,"inputs":[{"name":"self","type":"DLL.Data storage"},{"name":"_curr","type":"uint256"}],"name":"getPrev","outputs":[{"name":"","type":"uint256"}],"payable":false,"stateMutability":"view","type":"function"},{"constant":false,"inputs":[{"name":"self","type":"DLL.Data storage"},{"name":"_prev","type":"uint256"},{"name":"_curr","type":"uint256"},{"name":"_next","type":"uint256"}],"name":"insert","outputs":[],"payable":false,"stateMutability":"nonpayable","type":"function"},{"constant":false,"inputs":[{"name":"self","type":"DLL.Data storage"},{"name":"_curr","type":"uint256"}],"name":"remove","outputs":[],"payable":false,"stateMutability":"nonpayable","type":"function"}],"bytecode":"0x6060604052341561000f57600080fd5b6117528061001e6000396000f300606060405260043610610062576000357c0100000000000000000000000000000000000000000000000000000000900463ffffffff16806307d29ac91461006757806330fe0a0a1461009c5780636d900ed0146100d15780639735c51b146100f2575b600080fd5b6100866004808035906020019091908035906020019091905050610125565b6040518082815260200191505060405180910390f35b6100bb600480803590602001909190803590602001909190505061037f565b6040518082815260200191505060405180910390f35b6100f060048080359060200190919080359060200190919050506105d9565b005b6101236004808035906020019091908035906020019091908035906020019091908035906020019091905050611007565b005b60007f0fcd3264976c80b4d3bdc517469c9337f84168546033737c1f2d0065b797882b60016040518080602001838152602001828103825260568152602001807f2f55736572732f73686f6b6973686f6b692f646576656c6f706d656e742f636f81526020017f6e73656e7379732f646973747269627574652f636f6e7472616374732f636f6e81526020017f7472616374732f6c6962726172792f444c4c2e736f6c000000000000000000008152506060019250505060405180910390a17fc006bdc359a43a9f13f4fbaeeabe65126d6d2a0bde0a794cb0582adb602de4ce600e6040518080602001838152602001828103825260568152602001807f2f55736572732f73686f6b6973686f6b692f646576656c6f706d656e742f636f81526020017f6e73656e7379732f646973747269627574652f636f6e7472616374732f636f6e81526020017f7472616374732f6c6962726172792f444c4c2e736f6c000000000000000000008152506060019250505060405180910390a17f442378d7d46bfa7042b0cd4d65e168c84bf93a938d7e9b32dab3ef6a1175e1c660016040518080602001838152602001828103825260568152602001807f2f55736572732f73686f6b6973686f6b692f646576656c6f706d656e742f636f81526020017f6e73656e7379732f646973747269627574652f636f6e7472616374732f636f6e81526020017f7472616374732f6c6962726172792f444c4c2e736f6c000000000000000000008152506060019250505060405180910390a182600001600083815260200190815260200160002060000154905092915050565b60007f0fcd3264976c80b4d3bdc517469c9337f84168546033737c1f2d0065b797882b60026040518080602001838152602001828103825260568152602001807f2f55736572732f73686f6b6973686f6b692f646576656c6f706d656e742f636f81526020017f6e73656e7379732f646973747269627574652f636f6e7472616374732f636f6e81526020017f7472616374732f6c6962726172792f444c4c2e736f6c000000000000000000008152506060019250505060405180910390a17fc006bdc359a43a9f13f4fbaeeabe65126d6d2a0bde0a794cb0582adb602de4ce60126040518080602001838152602001828103825260568152602001807f2f55736572732f73686f6b6973686f6b692f646576656c6f706d656e742f636f81526020017f6e73656e7379732f646973747269627574652f636f6e7472616374732f636f6e81526020017f7472616374732f6c6962726172792f444c4c2e736f6c000000000000000000008152506060019250505060405180910390a17f442378d7d46bfa7042b0cd4d65e168c84bf93a938d7e9b32dab3ef6a1175e1c660026040518080602001838152602001828103825260568152602001807f2f55736572732f73686f6b6973686f6b692f646576656c6f706d656e742f636f81526020017f6e73656e7379732f646973747269627574652f636f6e7472616374732f636f6e81526020017f7472616374732f6c6962726172792f444c4c2e736f6c000000000000000000008152506060019250505060405180910390a182600001600083815260200190815260200160002060010154905092915050565b6000807f0fcd3264976c80b4d3bdc517469c9337f84168546033737c1f2d0065b797882b60046040518080602001838152602001828103825260568152602001807f2f55736572732f73686f6b6973686f6b692f646576656c6f706d656e742f636f81526020017f6e73656e7379732f646973747269627574652f636f6e7472616374732f636f6e81526020017f7472616374732f6c6962726172792f444c4c2e736f6c000000000000000000008152506060019250505060405180910390a17fc006bdc359a43a9f13f4fbaeeabe65126d6d2a0bde0a794cb0582adb602de4ce601e6040518080602001838152602001828103825260568152602001807f2f55736572732f73686f6b6973686f6b692f646576656c6f706d656e742f636f81526020017f6e73656e7379732f646973747269627574652f636f6e7472616374732f636f6e81526020017f7472616374732f6c6962726172792f444c4c2e736f6c000000000000000000008152506060019250505060405180910390a17f442378d7d46bfa7042b0cd4d65e168c84bf93a938d7e9b32dab3ef6a1175e1c660076040518080602001838152602001828103825260568152602001807f2f55736572732f73686f6b6973686f6b692f646576656c6f706d656e742f636f81526020017f6e73656e7379732f646973747269627574652f636f6e7472616374732f636f6e81526020017f7472616374732f6c6962726172792f444c4c2e736f6c000000000000000000008152506060019250505060405180910390a161081d8484610125565b91507fc006bdc359a43a9f13f4fbaeeabe65126d6d2a0bde0a794cb0582adb602de4ce601f6040518080602001838152602001828103825260568152602001807f2f55736572732f73686f6b6973686f6b692f646576656c6f706d656e742f636f81526020017f6e73656e7379732f646973747269627574652f636f6e7472616374732f636f6e81526020017f7472616374732f6c6962726172792f444c4c2e736f6c000000000000000000008152506060019250505060405180910390a17f442378d7d46bfa7042b0cd4d65e168c84bf93a938d7e9b32dab3ef6a1175e1c660086040518080602001838152602001828103825260568152602001807f2f55736572732f73686f6b6973686f6b692f646576656c6f706d656e742f636f81526020017f6e73656e7379732f646973747269627574652f636f6e7472616374732f636f6e81526020017f7472616374732f6c6962726172792f444c4c2e736f6c000000000000000000008152506060019250505060405180910390a16109a3848461037f565b90507fc006bdc359a43a9f13f4fbaeeabe65126d6d2a0bde0a794cb0582adb602de4ce60216040518080602001838152602001828103825260568152602001807f2f55736572732f73686f6b6973686f6b692f646576656c6f706d656e742f636f81526020017f6e73656e7379732f646973747269627574652f636f6e7472616374732f636f6e81526020017f7472616374732f6c6962726172792f444c4c2e736f6c000000000000000000008152506060019250505060405180910390a17f442378d7d46bfa7042b0cd4d65e168c84bf93a938d7e9b32dab3ef6a1175e1c660096040518080602001838152602001828103825260568152602001807f2f55736572732f73686f6b6973686f6b692f646576656c6f706d656e742f636f81526020017f6e73656e7379732f646973747269627574652f636f6e7472616374732f636f6e81526020017f7472616374732f6c6962726172792f444c4c2e736f6c000000000000000000008152506060019250505060405180910390a180846000016000848152602001908152602001600020600101819055507fc006bdc359a43a9f13f4fbaeeabe65126d6d2a0bde0a794cb0582adb602de4ce60226040518080602001838152602001828103825260568152602001807f2f55736572732f73686f6b6973686f6b692f646576656c6f706d656e742f636f81526020017f6e73656e7379732f646973747269627574652f636f6e7472616374732f636f6e81526020017f7472616374732f6c6962726172792f444c4c2e736f6c000000000000000000008152506060019250505060405180910390a17f442378d7d46bfa7042b0cd4d65e168c84bf93a938d7e9b32dab3ef6a1175e1c6600a6040518080602001838152602001828103825260568152602001807f2f55736572732f73686f6b6973686f6b692f646576656c6f706d656e742f636f81526020017f6e73656e7379732f646973747269627574652f636f6e7472616374732f636f6e81526020017f7472616374732f6c6962726172792f444c4c2e736f6c000000000000000000008152506060019250505060405180910390a181846000016000838152602001908152602001600020600001819055507fc006bdc359a43a9f13f4fbaeeabe65126d6d2a0bde0a794cb0582adb602de4ce60246040518080602001838152602001828103825260568152602001807f2f55736572732f73686f6b6973686f6b692f646576656c6f706d656e742f636f81526020017f6e73656e7379732f646973747269627574652f636f6e7472616374732f636f6e81526020017f7472616374732f6c6962726172792f444c4c2e736f6c000000000000000000008152506060019250505060405180910390a17f442378d7d46bfa7042b0cd4d65e168c84bf93a938d7e9b32dab3ef6a1175e1c6600b6040518080602001838152602001828103825260568152602001807f2f55736572732f73686f6b6973686f6b692f646576656c6f706d656e742f636f81526020017f6e73656e7379732f646973747269627574652f636f6e7472616374732f636f6e81526020017f7472616374732f6c6962726172792f444c4c2e736f6c000000000000000000008152506060019250505060405180910390a182846000016000858152602001908152602001600020600001819055507fc006bdc359a43a9f13f4fbaeeabe65126d6d2a0bde0a794cb0582adb602de4ce60256040518080602001838152602001828103825260568152602001807f2f55736572732f73686f6b6973686f6b692f646576656c6f706d656e742f636f81526020017f6e73656e7379732f646973747269627574652f636f6e7472616374732f636f6e81526020017f7472616374732f6c6962726172792f444c4c2e736f6c000000000000000000008152506060019250505060405180910390a17f442378d7d46bfa7042b0cd4d65e168c84bf93a938d7e9b32dab3ef6a1175e1c6600c6040518080602001838152602001828103825260568152602001807f2f55736572732f73686f6b6973686f6b692f646576656c6f706d656e742f636f81526020017f6e73656e7379732f646973747269627574652f636f6e7472616374732f636f6e81526020017f7472616374732f6c6962726172792f444c4c2e736f6c000000000000000000008152506060019250505060405180910390a1828460000160008581526020019081526020016000206001018190555050505050565b7f0fcd3264976c80b4d3bdc517469c9337f84168546033737c1f2d0065b797882b60036040518080602001838152602001828103825260568152602001807f2f55736572732f73686f6b6973686f6b692f646576656c6f706d656e742f636f81526020017f6e73656e7379732f646973747269627574652f636f6e7472616374732f636f6e81526020017f7472616374732f6c6962726172792f444c4c2e736f6c000000000000000000008152506060019250505060405180910390a17fc006bdc359a43a9f13f4fbaeeabe65126d6d2a0bde0a794cb0582adb602de4ce60166040518080602001838152602001828103825260568152602001807f2f55736572732f73686f6b6973686f6b692f646576656c6f706d656e742f636f81526020017f6e73656e7379732f646973747269627574652f636f6e7472616374732f636f6e81526020017f7472616374732f6c6962726172792f444c4c2e736f6c000000000000000000008152506060019250505060405180910390a17f442378d7d46bfa7042b0cd4d65e168c84bf93a938d7e9b32dab3ef6a1175e1c660036040518080602001838152602001828103825260568152602001807f2f55736572732f73686f6b6973686f6b692f646576656c6f706d656e742f636f81526020017f6e73656e7379732f646973747269627574652f636f6e7472616374732f636f6e81526020017f7472616374732f6c6962726172792f444c4c2e736f6c000000000000000000008152506060019250505060405180910390a182846000016000848152602001908152602001600020600101819055507fc006bdc359a43a9f13f4fbaeeabe65126d6d2a0bde0a794cb0582adb602de4ce60176040518080602001838152602001828103825260568152602001807f2f55736572732f73686f6b6973686f6b692f646576656c6f706d656e742f636f81526020017f6e73656e7379732f646973747269627574652f636f6e7472616374732f636f6e81526020017f7472616374732f6c6962726172792f444c4c2e736f6c000000000000000000008152506060019250505060405180910390a17f442378d7d46bfa7042b0cd4d65e168c84bf93a938d7e9b32dab3ef6a1175e1c660046040518080602001838152602001828103825260568152602001807f2f55736572732f73686f6b6973686f6b692f646576656c6f706d656e742f636f81526020017f6e73656e7379732f646973747269627574652f636f6e7472616374732f636f6e81526020017f7472616374732f6c6962726172792f444c4c2e736f6c000000000000000000008152506060019250505060405180910390a180846000016000848152602001908152602001600020600001819055507fc006bdc359a43a9f13f4fbaeeabe65126d6d2a0bde0a794cb0582adb602de4ce60196040518080602001838152602001828103825260568152602001807f2f55736572732f73686f6b6973686f6b692f646576656c6f706d656e742f636f81526020017f6e73656e7379732f646973747269627574652f636f6e7472616374732f636f6e81526020017f7472616374732f6c6962726172792f444c4c2e736f6c000000000000000000008152506060019250505060405180910390a17f442378d7d46bfa7042b0cd4d65e168c84bf93a938d7e9b32dab3ef6a1175e1c660056040518080602001838152602001828103825260568152602001807f2f55736572732f73686f6b6973686f6b692f646576656c6f706d656e742f636f81526020017f6e73656e7379732f646973747269627574652f636f6e7472616374732f636f6e81526020017f7472616374732f6c6962726172792f444c4c2e736f6c000000000000000000008152506060019250505060405180910390a181846000016000858152602001908152602001600020600001819055507fc006bdc359a43a9f13f4fbaeeabe65126d6d2a0bde0a794cb0582adb602de4ce601a6040518080602001838152602001828103825260568152602001807f2f55736572732f73686f6b6973686f6b692f646576656c6f706d656e742f636f81526020017f6e73656e7379732f646973747269627574652f636f6e7472616374732f636f6e81526020017f7472616374732f6c6962726172792f444c4c2e736f6c000000000000000000008152506060019250505060405180910390a17f442378d7d46bfa7042b0cd4d65e168c84bf93a938d7e9b32dab3ef6a1175e1c660066040518080602001838152602001828103825260568152602001807f2f55736572732f73686f6b6973686f6b692f646576656c6f706d656e742f636f81526020017f6e73656e7379732f646973747269627574652f636f6e7472616374732f636f6e81526020017f7472616374732f6c6962726172792f444c4c2e736f6c000000000000000000008152506060019250505060405180910390a18184600001600083815260200190815260200160002060010181905550505050505600a165627a7a72305820c9c49f70ee2e4b6d336393e776d7af44a297dc7cd9ee1d365ae4e18f4cc5626f0029","source":"pragma solidity^0.4.19;\r\n\r\nlibrary DLL {event __CoverageDLL(string fileName, uint256 lineNumber);\nevent __FunctionCoverageDLL(string fileName, uint256 fnId);\nevent __StatementCoverageDLL(string fileName, uint256 statementId);\nevent __BranchCoverageDLL(string fileName, uint256 branchId, uint256 locationIdx);\nevent __AssertPreCoverageDLL(string fileName, uint256 branchId);\nevent __AssertPostCoverageDLL(string fileName, uint256 branchId);\n\r\n\tstruct Node {\r\n\t\tuint next;\r\n\t\tuint prev;\r\n\t}\r\n\r\n\tstruct Data {\r\n\t\tmapping(uint => Node) dll;\r\n\t}\r\n\r\n\tfunction getNext(Data storage self, uint _curr) public  returns (uint) {__FunctionCoverageDLL('/Users/shokishoki/development/consensys/distribute/contracts/contracts/library/DLL.sol',1);\n\r\n__CoverageDLL('/Users/shokishoki/development/consensys/distribute/contracts/contracts/library/DLL.sol',14);\n\t\t __StatementCoverageDLL('/Users/shokishoki/development/consensys/distribute/contracts/contracts/library/DLL.sol',1);\nreturn self.dll[_curr].next;\r\n\t}\r\n\r\n\tfunction getPrev(Data storage self, uint _curr) public  returns (uint) {__FunctionCoverageDLL('/Users/shokishoki/development/consensys/distribute/contracts/contracts/library/DLL.sol',2);\n\r\n__CoverageDLL('/Users/shokishoki/development/consensys/distribute/contracts/contracts/library/DLL.sol',18);\n\t\t __StatementCoverageDLL('/Users/shokishoki/development/consensys/distribute/contracts/contracts/library/DLL.sol',2);\nreturn self.dll[_curr].prev;\r\n\t}\r\n\r\n\tfunction insert(Data storage self, uint _prev, uint _curr, uint _next) public {__FunctionCoverageDLL('/Users/shokishoki/development/consensys/distribute/contracts/contracts/library/DLL.sol',3);\n\r\n__CoverageDLL('/Users/shokishoki/development/consensys/distribute/contracts/contracts/library/DLL.sol',22);\n\t\t __StatementCoverageDLL('/Users/shokishoki/development/consensys/distribute/contracts/contracts/library/DLL.sol',3);\nself.dll[_curr].prev = _prev;\r\n__CoverageDLL('/Users/shokishoki/development/consensys/distribute/contracts/contracts/library/DLL.sol',23);\n\t\t __StatementCoverageDLL('/Users/shokishoki/development/consensys/distribute/contracts/contracts/library/DLL.sol',4);\nself.dll[_curr].next = _next;\r\n\r\n__CoverageDLL('/Users/shokishoki/development/consensys/distribute/contracts/contracts/library/DLL.sol',25);\n\t\t __StatementCoverageDLL('/Users/shokishoki/development/consensys/distribute/contracts/contracts/library/DLL.sol',5);\nself.dll[_prev].next = _curr;\r\n__CoverageDLL('/Users/shokishoki/development/consensys/distribute/contracts/contracts/library/DLL.sol',26);\n\t\t __StatementCoverageDLL('/Users/shokishoki/development/consensys/distribute/contracts/contracts/library/DLL.sol',6);\nself.dll[_next].prev = _curr;\r\n\t}\r\n\r\n\tfunction remove(Data storage self, uint _curr) public {__FunctionCoverageDLL('/Users/shokishoki/development/consensys/distribute/contracts/contracts/library/DLL.sol',4);\n\r\n__CoverageDLL('/Users/shokishoki/development/consensys/distribute/contracts/contracts/library/DLL.sol',30);\n\t\t __StatementCoverageDLL('/Users/shokishoki/development/consensys/distribute/contracts/contracts/library/DLL.sol',7);\nuint next = getNext(self, _curr);\r\n__CoverageDLL('/Users/shokishoki/development/consensys/distribute/contracts/contracts/library/DLL.sol',31);\n\t\t __StatementCoverageDLL('/Users/shokishoki/development/consensys/distribute/contracts/contracts/library/DLL.sol',8);\nuint prev = getPrev(self, _curr);\r\n\r\n__CoverageDLL('/Users/shokishoki/development/consensys/distribute/contracts/contracts/library/DLL.sol',33);\n\t\t __StatementCoverageDLL('/Users/shokishoki/development/consensys/distribute/contracts/contracts/library/DLL.sol',9);\nself.dll[next].prev = prev;\r\n__CoverageDLL('/Users/shokishoki/development/consensys/distribute/contracts/contracts/library/DLL.sol',34);\n\t\t __StatementCoverageDLL('/Users/shokishoki/development/consensys/distribute/contracts/contracts/library/DLL.sol',10);\nself.dll[prev].next = next;\r\n\r\n__CoverageDLL('/Users/shokishoki/development/consensys/distribute/contracts/contracts/library/DLL.sol',36);\n\t\t __StatementCoverageDLL('/Users/shokishoki/development/consensys/distribute/contracts/contracts/library/DLL.sol',11);\nself.dll[_curr].next = _curr;\r\n__CoverageDLL('/Users/shokishoki/development/consensys/distribute/contracts/contracts/library/DLL.sol',37);\n\t\t __StatementCoverageDLL('/Users/shokishoki/development/consensys/distribute/contracts/contracts/library/DLL.sol',12);\nself.dll[_curr].prev = _curr;\r\n\t}\r\n}\r\n","sourcePath":"/Users/shokishoki/development/consensys/distribute/contracts/coverageEnv/contracts/library/DLL.sol","compiler":{"name":"solc","version":"0.4.19+commit.c4cbbb05.Emscripten.clang"},"schemaVersion":"2.0.0","updatedAt":"2018-03-21T15:13:01.043Z"}