{"contractName":"PLCRVoting","abi":[{"constant":true,"inputs":[{"name":"","type":"address"}],"name":"voteTokenBalance","outputs":[{"name":"","type":"uint256"}],"payable":false,"stateMutability":"view","type":"function"},{"constant":true,"inputs":[{"name":"","type":"uint256"}],"name":"pollMap","outputs":[{"name":"commitEndDate","type":"uint256"},{"name":"revealEndDate","type":"uint256"},{"name":"voteQuorum","type":"uint256"},{"name":"votesFor","type":"uint256"},{"name":"votesAgainst","type":"uint256"}],"payable":false,"stateMutability":"view","type":"function"},{"constant":true,"inputs":[{"name":"","type":"address"}],"name":"voteReputationBalance","outputs":[{"name":"","type":"uint256"}],"payable":false,"stateMutability":"view","type":"function"},{"inputs":[{"name":"_tokenRegistry","type":"address"},{"name":"_reputationRegistry","type":"address"},{"name":"_projectRegistry","type":"address"}],"payable":false,"stateMutability":"nonpayable","type":"constructor"},{"anonymous":false,"inputs":[{"indexed":false,"name":"voter","type":"address"},{"indexed":false,"name":"pollID","type":"uint256"},{"indexed":false,"name":"numTokens","type":"uint256"}],"name":"VoteCommitted","type":"event"},{"anonymous":false,"inputs":[{"indexed":false,"name":"voter","type":"address"},{"indexed":false,"name":"pollID","type":"uint256"},{"indexed":false,"name":"numTokens","type":"uint256"},{"indexed":false,"name":"choice","type":"uint256"}],"name":"VoteRevealed","type":"event"},{"anonymous":false,"inputs":[{"indexed":false,"name":"voteQuorum","type":"uint256"},{"indexed":false,"name":"commitDuration","type":"uint256"},{"indexed":false,"name":"revealDuration","type":"uint256"},{"indexed":false,"name":"pollID","type":"uint256"}],"name":"PollCreated","type":"event"},{"anonymous":false,"inputs":[{"indexed":false,"name":"voter","type":"address"},{"indexed":false,"name":"numTokens","type":"uint256"}],"name":"VotingRightsGranted","type":"event"},{"anonymous":false,"inputs":[{"indexed":false,"name":"voter","type":"address"},{"indexed":false,"name":"numTokens","type":"uint256"}],"name":"VotingRightsWithdrawn","type":"event"},{"constant":true,"inputs":[{"name":"_voter","type":"address"},{"name":"_type","type":"uint256"}],"name":"getAvailableTokens","outputs":[{"name":"","type":"uint256"}],"payable":false,"stateMutability":"view","type":"function"},{"constant":false,"inputs":[{"name":"_staker","type":"address"},{"name":"_numTokens","type":"uint256"}],"name":"requestVotingRights","outputs":[],"payable":false,"stateMutability":"nonpayable","type":"function"},{"constant":false,"inputs":[{"name":"_staker","type":"address"},{"name":"_numTokens","type":"uint256"}],"name":"withdrawVotingRights","outputs":[],"payable":false,"stateMutability":"nonpayable","type":"function"},{"constant":false,"inputs":[{"name":"_staker","type":"address"},{"name":"_pollID","type":"uint256"}],"name":"rescueTokens","outputs":[],"payable":false,"stateMutability":"nonpayable","type":"function"},{"constant":false,"inputs":[{"name":"_staker","type":"address"},{"name":"_pollID","type":"uint256"},{"name":"_secretHash","type":"bytes32"},{"name":"_numTokens","type":"uint256"},{"name":"_prevPollID","type":"uint256"}],"name":"commitVote","outputs":[],"payable":false,"stateMutability":"nonpayable","type":"function"},{"constant":true,"inputs":[{"name":"_prevID","type":"uint256"},{"name":"_nextID","type":"uint256"},{"name":"_voter","type":"address"},{"name":"_numTokens","type":"uint256"}],"name":"validPosition","outputs":[{"name":"valid","type":"bool"}],"payable":false,"stateMutability":"view","type":"function"},{"constant":false,"inputs":[{"name":"_pollID","type":"uint256"},{"name":"_voteOption","type":"uint256"},{"name":"_salt","type":"uint256"}],"name":"revealVote","outputs":[],"payable":false,"stateMutability":"nonpayable","type":"function"},{"constant":true,"inputs":[{"name":"_voter","type":"address"},{"name":"_pollID","type":"uint256"},{"name":"_salt","type":"uint256"}],"name":"getNumPassingTokens","outputs":[{"name":"correctVotes","type":"uint256"}],"payable":false,"stateMutability":"view","type":"function"},{"constant":false,"inputs":[{"name":"_voteQuorum","type":"uint256"},{"name":"_commitDuration","type":"uint256"},{"name":"_revealDuration","type":"uint256"}],"name":"startPoll","outputs":[{"name":"pollID","type":"uint256"}],"payable":false,"stateMutability":"nonpayable","type":"function"},{"constant":true,"inputs":[{"name":"_pollID","type":"uint256"}],"name":"isPassed","outputs":[{"name":"passed","type":"bool"}],"payable":false,"stateMutability":"view","type":"function"},{"constant":true,"inputs":[{"name":"_pollID","type":"uint256"}],"name":"getTotalNumberOfTokensForWinningOption","outputs":[{"name":"numTokens","type":"uint256"}],"payable":false,"stateMutability":"view","type":"function"},{"constant":true,"inputs":[{"name":"_pollID","type":"uint256"}],"name":"pollEnded","outputs":[{"name":"ended","type":"bool"}],"payable":false,"stateMutability":"view","type":"function"},{"constant":true,"inputs":[{"name":"_pollID","type":"uint256"}],"name":"commitPeriodActive","outputs":[{"name":"active","type":"bool"}],"payable":false,"stateMutability":"view","type":"function"},{"constant":true,"inputs":[{"name":"_pollID","type":"uint256"}],"name":"revealPeriodActive","outputs":[{"name":"active","type":"bool"}],"payable":false,"stateMutability":"view","type":"function"},{"constant":true,"inputs":[{"name":"_voter","type":"address"},{"name":"_pollID","type":"uint256"}],"name":"hasBeenRevealed","outputs":[{"name":"revealed","type":"bool"}],"payable":false,"stateMutability":"view","type":"function"},{"constant":true,"inputs":[{"name":"_pollID","type":"uint256"}],"name":"pollExists","outputs":[{"name":"exists","type":"bool"}],"payable":false,"stateMutability":"view","type":"function"},{"constant":true,"inputs":[{"name":"_voter","type":"address"},{"name":"_pollID","type":"uint256"}],"name":"getCommitHash","outputs":[{"name":"commitHash","type":"bytes32"}],"payable":false,"stateMutability":"view","type":"function"},{"constant":true,"inputs":[{"name":"_voter","type":"address"},{"name":"_pollID","type":"uint256"}],"name":"getNumTokens","outputs":[{"name":"numTokens","type":"uint256"}],"payable":false,"stateMutability":"view","type":"function"},{"constant":true,"inputs":[{"name":"_voter","type":"address"}],"name":"getLastNode","outputs":[{"name":"pollID","type":"uint256"}],"payable":false,"stateMutability":"view","type":"function"},{"constant":true,"inputs":[{"name":"_voter","type":"address"}],"name":"getLockedTokens","outputs":[{"name":"numTokens","type":"uint256"}],"payable":false,"stateMutability":"view","type":"function"},{"constant":true,"inputs":[{"name":"_voter","type":"address"},{"name":"_numTokens","type":"uint256"}],"name":"getInsertPointForNumTokens","outputs":[{"name":"prevNode","type":"uint256"}],"payable":false,"stateMutability":"view","type":"function"},{"constant":true,"inputs":[{"name":"_terminationDate","type":"uint256"}],"name":"isExpired","outputs":[{"name":"expired","type":"bool"}],"payable":false,"stateMutability":"view","type":"function"},{"constant":true,"inputs":[{"name":"_user","type":"address"},{"name":"_pollID","type":"uint256"}],"name":"attrUUID","outputs":[{"name":"UUID","type":"bytes32"}],"payable":false,"stateMutability":"pure","type":"function"}],"bytecode":"0x606060405234156200001057600080fd5b604051606080620113dc833981016040528080519060200190919080519060200190919080519060200190919050507f1e7d90235f56fb862abf07c5e5c4e5301a8da7952c7a7fea768f8d6a845b6d5b600360405180806020018381526020018281038252605d8152602001807f2f55736572732f73686f6b6973686f6b692f646576656c6f706d656e742f636f81526020017f6e73656e7379732f646973747269627574652f636f6e7472616374732f636f6e81526020017f7472616374732f6c6962726172792f504c4352566f74696e672e736f6c0000008152506060019250505060405180910390a17f95940d274231f33edf1ae32982677e0b367f4321c9de1a9da1bdf8b1482dbd79604660405180806020018381526020018281038252605d8152602001807f2f55736572732f73686f6b6973686f6b692f646576656c6f706d656e742f636f81526020017f6e73656e7379732f646973747269627574652f636f6e7472616374732f636f6e81526020017f7472616374732f6c6962726172792f504c4352566f74696e672e736f6c0000008152506060019250505060405180910390a17f121c1652d442e37b1b39ced56080e49236233ba8284899c84ffe036b9bfadebc600360405180806020018381526020018281038252605d8152602001807f2f55736572732f73686f6b6973686f6b692f646576656c6f706d656e742f636f81526020017f6e73656e7379732f646973747269627574652f636f6e7472616374732f636f6e81526020017f7472616374732f6c6962726172792f504c4352566f74696e672e736f6c0000008152506060019250505060405180910390a182600660006101000a81548173ffffffffffffffffffffffffffffffffffffffff021916908373ffffffffffffffffffffffffffffffffffffffff1602179055507f95940d274231f33edf1ae32982677e0b367f4321c9de1a9da1bdf8b1482dbd79604760405180806020018381526020018281038252605d8152602001807f2f55736572732f73686f6b6973686f6b692f646576656c6f706d656e742f636f81526020017f6e73656e7379732f646973747269627574652f636f6e7472616374732f636f6e81526020017f7472616374732f6c6962726172792f504c4352566f74696e672e736f6c0000008152506060019250505060405180910390a17f121c1652d442e37b1b39ced56080e49236233ba8284899c84ffe036b9bfadebc600460405180806020018381526020018281038252605d8152602001807f2f55736572732f73686f6b6973686f6b692f646576656c6f706d656e742f636f81526020017f6e73656e7379732f646973747269627574652f636f6e7472616374732f636f6e81526020017f7472616374732f6c6962726172792f504c4352566f74696e672e736f6c0000008152506060019250505060405180910390a181600760006101000a81548173ffffffffffffffffffffffffffffffffffffffff021916908373ffffffffffffffffffffffffffffffffffffffff1602179055507f95940d274231f33edf1ae32982677e0b367f4321c9de1a9da1bdf8b1482dbd79604860405180806020018381526020018281038252605d8152602001807f2f55736572732f73686f6b6973686f6b692f646576656c6f706d656e742f636f81526020017f6e73656e7379732f646973747269627574652f636f6e7472616374732f636f6e81526020017f7472616374732f6c6962726172792f504c4352566f74696e672e736f6c0000008152506060019250505060405180910390a17f121c1652d442e37b1b39ced56080e49236233ba8284899c84ffe036b9bfadebc600560405180806020018381526020018281038252605d8152602001807f2f55736572732f73686f6b6973686f6b692f646576656c6f706d656e742f636f81526020017f6e73656e7379732f646973747269627574652f636f6e7472616374732f636f6e81526020017f7472616374732f6c6962726172792f504c4352566f74696e672e736f6c0000008152506060019250505060405180910390a180600860006101000a81548173ffffffffffffffffffffffffffffffffffffffff021916908373ffffffffffffffffffffffffffffffffffffffff1602179055507f95940d274231f33edf1ae32982677e0b367f4321c9de1a9da1bdf8b1482dbd79604960405180806020018381526020018281038252605d8152602001807f2f55736572732f73686f6b6973686f6b692f646576656c6f706d656e742f636f81526020017f6e73656e7379732f646973747269627574652f636f6e7472616374732f636f6e81526020017f7472616374732f6c6962726172792f504c4352566f74696e672e736f6c0000008152506060019250505060405180910390a17f121c1652d442e37b1b39ced56080e49236233ba8284899c84ffe036b9bfadebc600660405180806020018381526020018281038252605d8152602001807f2f55736572732f73686f6b6973686f6b692f646576656c6f706d656e742f636f81526020017f6e73656e7379732f646973747269627574652f636f6e7472616374732f636f6e81526020017f7472616374732f6c6962726172792f504c4352566f74696e672e736f6c0000008152506060019250505060405180910390a1600060038190555050505062010c1980620007c36000396000f3006060604052600436106200016f576000357c0100000000000000000000000000000000000000000000000000000000900463ffffffff168063053e71a6146200017457806332ed3d6014620001ae5780633b93029414620001fa578063427fa1d2146200024a578063441c77c0146200029a5780634940318314620002d85780635737619814620003165780635e28fd5e146200035b5780636148fed514620003bf5780636b2d95d414620004155780636b9deb65146200046557806372d8e44214620004b5578063819b0293146200051257806388d21ff314620005815780639f68ce5414620005bf578063a1103f371462000618578063a4439dc51462000679578063b11d8bb814620006b7578063b43bd06914620006ef578063c5fa801b1462000751578063c622afb01462000796578063d138209214620007ef578063d901402b1462000848578063d9548e5314620008a9578063ee68483014620008e7578063ef348e401462000925575b600080fd5b34156200018057600080fd5b6200019860048080359060200190919050506200096a565b6040518082815260200191505060405180910390f35b3415620001ba57600080fd5b620001e4600480803590602001909190803590602001909190803590602001909190505062001380565b6040518082815260200191505060405180910390f35b34156200020657600080fd5b62000234600480803573ffffffffffffffffffffffffffffffffffffffff1690602001909190505062001e5f565b6040518082815260200191505060405180910390f35b34156200025657600080fd5b62000284600480803573ffffffffffffffffffffffffffffffffffffffff1690602001909190505062001e77565b6040518082815260200191505060405180910390f35b3415620002a657600080fd5b620002be600480803590602001909190505062002190565b604051808215151515815260200191505060405180910390f35b3415620002e457600080fd5b620002fc600480803590602001909190505062002714565b604051808215151515815260200191505060405180910390f35b34156200032257600080fd5b62000359600480803573ffffffffffffffffffffffffffffffffffffffff16906020019091908035906020019091905050620036ca565b005b34156200036757600080fd5b620003bd600480803573ffffffffffffffffffffffffffffffffffffffff16906020019091908035906020019091908035600019169060200190919080359060200190919080359060200190919050506200445f565b005b3415620003cb57600080fd5b620003e3600480803590602001909190505062006903565b604051808681526020018581526020018481526020018381526020018281526020019550505050505060405180910390f35b34156200042157600080fd5b6200044f600480803573ffffffffffffffffffffffffffffffffffffffff1690602001909190505062006939565b6040518082815260200191505060405180910390f35b34156200047157600080fd5b6200049f600480803573ffffffffffffffffffffffffffffffffffffffff1690602001909190505062006b90565b6040518082815260200191505060405180910390f35b3415620004c157600080fd5b620004f8600480803573ffffffffffffffffffffffffffffffffffffffff1690602001909190803590602001909190505062006ba8565b604051808215151515815260200191505060405180910390f35b34156200051e57600080fd5b62000567600480803590602001909190803590602001909190803573ffffffffffffffffffffffffffffffffffffffff16906020019091908035906020019091905050620075b4565b604051808215151515815260200191505060405180910390f35b34156200058d57600080fd5b620005a5600480803590602001909190505062007b29565b604051808215151515815260200191505060405180910390f35b3415620005cb57600080fd5b62000602600480803573ffffffffffffffffffffffffffffffffffffffff1690602001909190803590602001909190505062008aa0565b6040518082815260200191505060405180910390f35b34156200062457600080fd5b6200065b600480803573ffffffffffffffffffffffffffffffffffffffff1690602001909190803590602001909190505062008d88565b60405180826000191660001916815260200191505060405180910390f35b34156200068557600080fd5b6200069d600480803590602001909190505062009023565b604051808215151515815260200191505060405180910390f35b3415620006c357600080fd5b620006ed600480803590602001909190803590602001909190803590602001909190505062009592565b005b3415620006fb57600080fd5b6200073b600480803573ffffffffffffffffffffffffffffffffffffffff169060200190919080359060200190919080359060200190919050506200b01b565b6040518082815260200191505060405180910390f35b34156200075d57600080fd5b62000794600480803573ffffffffffffffffffffffffffffffffffffffff169060200190919080359060200190919050506200bef3565b005b3415620007a257600080fd5b620007d9600480803573ffffffffffffffffffffffffffffffffffffffff169060200190919080359060200190919050506200d23a565b6040518082815260200191505060405180910390f35b3415620007fb57600080fd5b62000832600480803573ffffffffffffffffffffffffffffffffffffffff169060200190919080359060200190919050506200e0d5565b6040518082815260200191505060405180910390f35b34156200085457600080fd5b6200088b600480803573ffffffffffffffffffffffffffffffffffffffff169060200190919080359060200190919050506200e3fe565b60405180826000191660001916815260200191505060405180910390f35b3415620008b557600080fd5b620008cd60048080359060200190919050506200e72a565b604051808215151515815260200191505060405180910390f35b3415620008f357600080fd5b6200090b60048080359060200190919050506200e96e565b604051808215151515815260200191505060405180910390f35b34156200093157600080fd5b62000968600480803573ffffffffffffffffffffffffffffffffffffffff169060200190919080359060200190919050506200eedc565b005b60007f1e7d90235f56fb862abf07c5e5c4e5301a8da7952c7a7fea768f8d6a845b6d5b600e60405180806020018381526020018281038252605d8152602001807f2f55736572732f73686f6b6973686f6b692f646576656c6f706d656e742f636f81526020017f6e73656e7379732f646973747269627574652f636f6e7472616374732f636f6e81526020017f7472616374732f6c6962726172792f504c4352566f74696e672e736f6c0000008152506060019250505060405180910390a17f95940d274231f33edf1ae32982677e0b367f4321c9de1a9da1bdf8b1482dbd7961012360405180806020018381526020018281038252605d8152602001807f2f55736572732f73686f6b6973686f6b692f646576656c6f706d656e742f636f81526020017f6e73656e7379732f646973747269627574652f636f6e7472616374732f636f6e81526020017f7472616374732f6c6962726172792f504c4352566f74696e672e736f6c0000008152506060019250505060405180910390a17f47baa91c7d2c9f62c85bf2003164496af8aa6ba0e4603c89a076c307bc87a358601b60405180806020018381526020018281038252605d8152602001807f2f55736572732f73686f6b6973686f6b692f646576656c6f706d656e742f636f81526020017f6e73656e7379732f646973747269627574652f636f6e7472616374732f636f6e81526020017f7472616374732f6c6962726172792f504c4352566f74696e672e736f6c0000008152506060019250505060405180910390a17f121c1652d442e37b1b39ced56080e49236233ba8284899c84ffe036b9bfadebc603d60405180806020018381526020018281038252605d8152602001807f2f55736572732f73686f6b6973686f6b692f646576656c6f706d656e742f636f81526020017f6e73656e7379732f646973747269627574652f636f6e7472616374732f636f6e81526020017f7472616374732f6c6962726172792f504c4352566f74696e672e736f6c0000008152506060019250505060405180910390a162000c6c826200e96e565b151562000c7857600080fd5b7fbb7b670aa0a63818e29bfe0731793ebdeb096d3098b99f2c633528f8fb7af241601b60405180806020018381526020018281038252605d8152602001807f2f55736572732f73686f6b6973686f6b692f646576656c6f706d656e742f636f81526020017f6e73656e7379732f646973747269627574652f636f6e7472616374732f636f6e81526020017f7472616374732f6c6962726172792f504c4352566f74696e672e736f6c0000008152506060019250505060405180910390a17f95940d274231f33edf1ae32982677e0b367f4321c9de1a9da1bdf8b1482dbd7961012560405180806020018381526020018281038252605d8152602001807f2f55736572732f73686f6b6973686f6b692f646576656c6f706d656e742f636f81526020017f6e73656e7379732f646973747269627574652f636f6e7472616374732f636f6e81526020017f7472616374732f6c6962726172792f504c4352566f74696e672e736f6c0000008152506060019250505060405180910390a17f121c1652d442e37b1b39ced56080e49236233ba8284899c84ffe036b9bfadebc603e60405180806020018381526020018281038252605d8152602001807f2f55736572732f73686f6b6973686f6b692f646576656c6f706d656e742f636f81526020017f6e73656e7379732f646973747269627574652f636f6e7472616374732f636f6e81526020017f7472616374732f6c6962726172792f504c4352566f74696e672e736f6c0000008152506060019250505060405180910390a162000ebb8262002714565b1562001121577f121c1652d442e37b1b39ced56080e49236233ba8284899c84ffe036b9bfadebc603f60405180806020018381526020018281038252605d8152602001807f2f55736572732f73686f6b6973686f6b692f646576656c6f706d656e742f636f81526020017f6e73656e7379732f646973747269627574652f636f6e7472616374732f636f6e81526020017f7472616374732f6c6962726172792f504c4352566f74696e672e736f6c0000008152506060019250505060405180910390a17f46bf101910e2537d67c0ff7a372742f790e01bb7eabae70d4ef1b754cd005bba601c600060405180806020018481526020018381526020018281038252605d8152602001807f2f55736572732f73686f6b6973686f6b692f646576656c6f706d656e742f636f81526020017f6e73656e7379732f646973747269627574652f636f6e7472616374732f636f6e81526020017f7472616374732f6c6962726172792f504c4352566f74696e672e736f6c000000815250606001935050505060405180910390a17f95940d274231f33edf1ae32982677e0b367f4321c9de1a9da1bdf8b1482dbd7961012660405180806020018381526020018281038252605d8152602001807f2f55736572732f73686f6b6973686f6b692f646576656c6f706d656e742f636f81526020017f6e73656e7379732f646973747269627574652f636f6e7472616374732f636f6e81526020017f7472616374732f6c6962726172792f504c4352566f74696e672e736f6c0000008152506060019250505060405180910390a1600260008381526020019081526020016000206003015490506200137b565b7f121c1652d442e37b1b39ced56080e49236233ba8284899c84ffe036b9bfadebc6040805180806020018381526020018281038252605d8152602001807f2f55736572732f73686f6b6973686f6b692f646576656c6f706d656e742f636f81526020017f6e73656e7379732f646973747269627574652f636f6e7472616374732f636f6e81526020017f7472616374732f6c6962726172792f504c4352566f74696e672e736f6c0000008152506060019250505060405180910390a17f46bf101910e2537d67c0ff7a372742f790e01bb7eabae70d4ef1b754cd005bba601c600160405180806020018481526020018381526020018281038252605d8152602001807f2f55736572732f73686f6b6973686f6b692f646576656c6f706d656e742f636f81526020017f6e73656e7379732f646973747269627574652f636f6e7472616374732f636f6e81526020017f7472616374732f6c6962726172792f504c4352566f74696e672e736f6c000000815250606001935050505060405180910390a17f95940d274231f33edf1ae32982677e0b367f4321c9de1a9da1bdf8b1482dbd7961012860405180806020018381526020018281038252605d8152602001807f2f55736572732f73686f6b6973686f6b692f646576656c6f706d656e742f636f81526020017f6e73656e7379732f646973747269627574652f636f6e7472616374732f636f6e81526020017f7472616374732f6c6962726172792f504c4352566f74696e672e736f6c0000008152506060019250505060405180910390a1600260008381526020019081526020016000206004015490505b919050565b60007f1e7d90235f56fb862abf07c5e5c4e5301a8da7952c7a7fea768f8d6a845b6d5b600c60405180806020018381526020018281038252605d8152602001807f2f55736572732f73686f6b6973686f6b692f646576656c6f706d656e742f636f81526020017f6e73656e7379732f646973747269627574652f636f6e7472616374732f636f6e81526020017f7472616374732f6c6962726172792f504c4352566f74696e672e736f6c0000008152506060019250505060405180910390a17f95940d274231f33edf1ae32982677e0b367f4321c9de1a9da1bdf8b1482dbd7960fe60405180806020018381526020018281038252605d8152602001807f2f55736572732f73686f6b6973686f6b692f646576656c6f706d656e742f636f81526020017f6e73656e7379732f646973747269627574652f636f6e7472616374732f636f6e81526020017f7472616374732f6c6962726172792f504c4352566f74696e672e736f6c0000008152506060019250505060405180910390a17f47baa91c7d2c9f62c85bf2003164496af8aa6ba0e4603c89a076c307bc87a358601860405180806020018381526020018281038252605d8152602001807f2f55736572732f73686f6b6973686f6b692f646576656c6f706d656e742f636f81526020017f6e73656e7379732f646973747269627574652f636f6e7472616374732f636f6e81526020017f7472616374732f6c6962726172792f504c4352566f74696e672e736f6c0000008152506060019250505060405180910390a17f121c1652d442e37b1b39ced56080e49236233ba8284899c84ffe036b9bfadebc603460405180806020018381526020018281038252605d8152602001807f2f55736572732f73686f6b6973686f6b692f646576656c6f706d656e742f636f81526020017f6e73656e7379732f646973747269627574652f636f6e7472616374732f636f6e81526020017f7472616374732f6c6962726172792f504c4352566f74696e672e736f6c0000008152506060019250505060405180910390a1600860009054906101000a900473ffffffffffffffffffffffffffffffffffffffff1673ffffffffffffffffffffffffffffffffffffffff163373ffffffffffffffffffffffffffffffffffffffff16141515620016d357600080fd5b7fbb7b670aa0a63818e29bfe0731793ebdeb096d3098b99f2c633528f8fb7af241601860405180806020018381526020018281038252605d8152602001807f2f55736572732f73686f6b6973686f6b692f646576656c6f706d656e742f636f81526020017f6e73656e7379732f646973747269627574652f636f6e7472616374732f636f6e81526020017f7472616374732f6c6962726172792f504c4352566f74696e672e736f6c0000008152506060019250505060405180910390a17f95940d274231f33edf1ae32982677e0b367f4321c9de1a9da1bdf8b1482dbd7961010060405180806020018381526020018281038252605d8152602001807f2f55736572732f73686f6b6973686f6b692f646576656c6f706d656e742f636f81526020017f6e73656e7379732f646973747269627574652f636f6e7472616374732f636f6e81526020017f7472616374732f6c6962726172792f504c4352566f74696e672e736f6c0000008152506060019250505060405180910390a17f121c1652d442e37b1b39ced56080e49236233ba8284899c84ffe036b9bfadebc603560405180806020018381526020018281038252605d8152602001807f2f55736572732f73686f6b6973686f6b692f646576656c6f706d656e742f636f81526020017f6e73656e7379732f646973747269627574652f636f6e7472616374732f636f6e81526020017f7472616374732f6c6962726172792f504c4352566f74696e672e736f6c0000008152506060019250505060405180910390a16001600354016003819055507f95940d274231f33edf1ae32982677e0b367f4321c9de1a9da1bdf8b1482dbd7961010160405180806020018381526020018281038252605d8152602001807f2f55736572732f73686f6b6973686f6b692f646576656c6f706d656e742f636f81526020017f6e73656e7379732f646973747269627574652f636f6e7472616374732f636f6e81526020017f7472616374732f6c6962726172792f504c4352566f74696e672e736f6c0000008152506060019250505060405180910390a17f121c1652d442e37b1b39ced56080e49236233ba8284899c84ffe036b9bfadebc603660405180806020018381526020018281038252605d8152602001807f2f55736572732f73686f6b6973686f6b692f646576656c6f706d656e742f636f81526020017f6e73656e7379732f646973747269627574652f636f6e7472616374732f636f6e81526020017f7472616374732f6c6962726172792f504c4352566f74696e672e736f6c0000008152506060019250505060405180910390a160a06040519081016040528084420181526020018385420101815260200185815260200160008152602001600081525060026000600354815260200190815260200160002060008201518160000155602082015181600101556040820151816002015560608201518160030155608082015181600401559050507f95940d274231f33edf1ae32982677e0b367f4321c9de1a9da1bdf8b1482dbd7961010860405180806020018381526020018281038252605d8152602001807f2f55736572732f73686f6b6973686f6b692f646576656c6f706d656e742f636f81526020017f6e73656e7379732f646973747269627574652f636f6e7472616374732f636f6e81526020017f7472616374732f6c6962726172792f504c4352566f74696e672e736f6c0000008152506060019250505060405180910390a17f121c1652d442e37b1b39ced56080e49236233ba8284899c84ffe036b9bfadebc603760405180806020018381526020018281038252605d8152602001807f2f55736572732f73686f6b6973686f6b692f646576656c6f706d656e742f636f81526020017f6e73656e7379732f646973747269627574652f636f6e7472616374732f636f6e81526020017f7472616374732f6c6962726172792f504c4352566f74696e672e736f6c0000008152506060019250505060405180910390a17fef096063d99f4ef9370b5e89d45025615c869845ca33878d173e8dca429b2be08484846003546040518085815260200184815260200183815260200182815260200194505050505060405180910390a17f95940d274231f33edf1ae32982677e0b367f4321c9de1a9da1bdf8b1482dbd7961010960405180806020018381526020018281038252605d8152602001807f2f55736572732f73686f6b6973686f6b692f646576656c6f706d656e742f636f81526020017f6e73656e7379732f646973747269627574652f636f6e7472616374732f636f6e81526020017f7472616374732f6c6962726172792f504c4352566f74696e672e736f6c0000008152506060019250505060405180910390a17f121c1652d442e37b1b39ced56080e49236233ba8284899c84ffe036b9bfadebc603860405180806020018381526020018281038252605d8152602001807f2f55736572732f73686f6b6973686f6b692f646576656c6f706d656e742f636f81526020017f6e73656e7379732f646973747269627574652f636f6e7472616374732f636f6e81526020017f7472616374732f6c6962726172792f504c4352566f74696e672e736f6c0000008152506060019250505060405180910390a160035490509392505050565b60006020528060005260406000206000915090505481565b60007f1e7d90235f56fb862abf07c5e5c4e5301a8da7952c7a7fea768f8d6a845b6d5b601660405180806020018381526020018281038252605d8152602001807f2f55736572732f73686f6b6973686f6b692f646576656c6f706d656e742f636f81526020017f6e73656e7379732f646973747269627574652f636f6e7472616374732f636f6e81526020017f7472616374732f6c6962726172792f504c4352566f74696e672e736f6c0000008152506060019250505060405180910390a17f95940d274231f33edf1ae32982677e0b367f4321c9de1a9da1bdf8b1482dbd7961018a60405180806020018381526020018281038252605d8152602001807f2f55736572732f73686f6b6973686f6b692f646576656c6f706d656e742f636f81526020017f6e73656e7379732f646973747269627574652f636f6e7472616374732f636f6e81526020017f7472616374732f6c6962726172792f504c4352566f74696e672e736f6c0000008152506060019250505060405180910390a17f121c1652d442e37b1b39ced56080e49236233ba8284899c84ffe036b9bfadebc605460405180806020018381526020018281038252605d8152602001807f2f55736572732f73686f6b6973686f6b692f646576656c6f706d656e742f636f81526020017f6e73656e7379732f646973747269627574652f636f6e7472616374732f636f6e81526020017f7472616374732f6c6962726172792f504c4352566f74696e672e736f6c0000008152506060019250505060405180910390a1600460008373ffffffffffffffffffffffffffffffffffffffff1673ffffffffffffffffffffffffffffffffffffffff16815260200190815260200160002073__DLL___________________________________6330fe0a0a9091600080604051602001526040518363ffffffff167c0100000000000000000000000000000000000000000000000000000000028152600401808381526020018281526020019250505060206040518083038186803b15156200216d57600080fd5b6102c65a03f415156200217f57600080fd5b505050604051805190509050919050565b60007f1e7d90235f56fb862abf07c5e5c4e5301a8da7952c7a7fea768f8d6a845b6d5b601160405180806020018381526020018281038252605d8152602001807f2f55736572732f73686f6b6973686f6b692f646576656c6f706d656e742f636f81526020017f6e73656e7379732f646973747269627574652f636f6e7472616374732f636f6e81526020017f7472616374732f6c6962726172792f504c4352566f74696e672e736f6c0000008152506060019250505060405180910390a17f95940d274231f33edf1ae32982677e0b367f4321c9de1a9da1bdf8b1482dbd7961014860405180806020018381526020018281038252605d8152602001807f2f55736572732f73686f6b6973686f6b692f646576656c6f706d656e742f636f81526020017f6e73656e7379732f646973747269627574652f636f6e7472616374732f636f6e81526020017f7472616374732f6c6962726172792f504c4352566f74696e672e736f6c0000008152506060019250505060405180910390a17f47baa91c7d2c9f62c85bf2003164496af8aa6ba0e4603c89a076c307bc87a358601f60405180806020018381526020018281038252605d8152602001807f2f55736572732f73686f6b6973686f6b692f646576656c6f706d656e742f636f81526020017f6e73656e7379732f646973747269627574652f636f6e7472616374732f636f6e81526020017f7472616374732f6c6962726172792f504c4352566f74696e672e736f6c0000008152506060019250505060405180910390a17f121c1652d442e37b1b39ced56080e49236233ba8284899c84ffe036b9bfadebc604560405180806020018381526020018281038252605d8152602001807f2f55736572732f73686f6b6973686f6b692f646576656c6f706d656e742f636f81526020017f6e73656e7379732f646973747269627574652f636f6e7472616374732f636f6e81526020017f7472616374732f6c6962726172792f504c4352566f74696e672e736f6c0000008152506060019250505060405180910390a1620024928262007b29565b15156200249e57600080fd5b7fbb7b670aa0a63818e29bfe0731793ebdeb096d3098b99f2c633528f8fb7af241601f60405180806020018381526020018281038252605d8152602001807f2f55736572732f73686f6b6973686f6b692f646576656c6f706d656e742f636f81526020017f6e73656e7379732f646973747269627574652f636f6e7472616374732f636f6e81526020017f7472616374732f6c6962726172792f504c4352566f74696e672e736f6c0000008152506060019250505060405180910390a17f95940d274231f33edf1ae32982677e0b367f4321c9de1a9da1bdf8b1482dbd7961014a60405180806020018381526020018281038252605d8152602001807f2f55736572732f73686f6b6973686f6b692f646576656c6f706d656e742f636f81526020017f6e73656e7379732f646973747269627574652f636f6e7472616374732f636f6e81526020017f7472616374732f6c6962726172792f504c4352566f74696e672e736f6c0000008152506060019250505060405180910390a17f121c1652d442e37b1b39ced56080e49236233ba8284899c84ffe036b9bfadebc604660405180806020018381526020018281038252605d8152602001807f2f55736572732f73686f6b6973686f6b692f646576656c6f706d656e742f636f81526020017f6e73656e7379732f646973747269627574652f636f6e7472616374732f636f6e81526020017f7472616374732f6c6962726172792f504c4352566f74696e672e736f6c0000008152506060019250505060405180910390a1620026f760026000848152602001908152602001600020600101546200e72a565b1580156200270d57506200270b8262009023565b155b9050919050565b60006200272062010bbd565b7f1e7d90235f56fb862abf07c5e5c4e5301a8da7952c7a7fea768f8d6a845b6d5b600160405180806020018381526020018281038252605d8152602001807f2f55736572732f73686f6b6973686f6b692f646576656c6f706d656e742f636f81526020017f6e73656e7379732f646973747269627574652f636f6e7472616374732f636f6e81526020017f7472616374732f6c6962726172792f504c4352566f74696e672e736f6c0000008152506060019250505060405180910390a17f95940d274231f33edf1ae32982677e0b367f4321c9de1a9da1bdf8b1482dbd79602f60405180806020018381526020018281038252605d8152602001807f2f55736572732f73686f6b6973686f6b692f646576656c6f706d656e742f636f81526020017f6e73656e7379732f646973747269627574652f636f6e7472616374732f636f6e81526020017f7472616374732f6c6962726172792f504c4352566f74696e672e736f6c0000008152506060019250505060405180910390a17f47baa91c7d2c9f62c85bf2003164496af8aa6ba0e4603c89a076c307bc87a358600160405180806020018381526020018281038252605d8152602001807f2f55736572732f73686f6b6973686f6b692f646576656c6f706d656e742f636f81526020017f6e73656e7379732f646973747269627574652f636f6e7472616374732f636f6e81526020017f7472616374732f6c6962726172792f504c4352566f74696e672e736f6c0000008152506060019250505060405180910390a17f121c1652d442e37b1b39ced56080e49236233ba8284899c84ffe036b9bfadebc600160405180806020018381526020018281038252605d8152602001807f2f55736572732f73686f6b6973686f6b692f646576656c6f706d656e742f636f81526020017f6e73656e7379732f646973747269627574652f636f6e7472616374732f636f6e81526020017f7472616374732f6c6962726172792f504c4352566f74696e672e736f6c0000008152506060019250505060405180910390a1600760009054906101000a900473ffffffffffffffffffffffffffffffffffffffff1673ffffffffffffffffffffffffffffffffffffffff163373ffffffffffffffffffffffffffffffffffffffff16148062002abe5750600660009054906101000a900473ffffffffffffffffffffffffffffffffffffffff1673ffffffffffffffffffffffffffffffffffffffff163373ffffffffffffffffffffffffffffffffffffffff16145b151562002aca57600080fd5b7fbb7b670aa0a63818e29bfe0731793ebdeb096d3098b99f2c633528f8fb7af241600160405180806020018381526020018281038252605d8152602001807f2f55736572732f73686f6b6973686f6b692f646576656c6f706d656e742f636f81526020017f6e73656e7379732f646973747269627574652f636f6e7472616374732f636f6e81526020017f7472616374732f6c6962726172792f504c4352566f74696e672e736f6c0000008152506060019250505060405180910390a17f95940d274231f33edf1ae32982677e0b367f4321c9de1a9da1bdf8b1482dbd79603060405180806020018381526020018281038252605d8152602001807f2f55736572732f73686f6b6973686f6b692f646576656c6f706d656e742f636f81526020017f6e73656e7379732f646973747269627574652f636f6e7472616374732f636f6e81526020017f7472616374732f6c6962726172792f504c4352566f74696e672e736f6c0000008152506060019250505060405180910390a17f1e7d90235f56fb862abf07c5e5c4e5301a8da7952c7a7fea768f8d6a845b6d5b600d60405180806020018381526020018281038252605d8152602001807f2f55736572732f73686f6b6973686f6b692f646576656c6f706d656e742f636f81526020017f6e73656e7379732f646973747269627574652f636f6e7472616374732f636f6e81526020017f7472616374732f6c6962726172792f504c4352566f74696e672e736f6c0000008152506060019250505060405180910390a17f95940d274231f33edf1ae32982677e0b367f4321c9de1a9da1bdf8b1482dbd7961011260405180806020018381526020018281038252605d8152602001807f2f55736572732f73686f6b6973686f6b692f646576656c6f706d656e742f636f81526020017f6e73656e7379732f646973747269627574652f636f6e7472616374732f636f6e81526020017f7472616374732f6c6962726172792f504c4352566f74696e672e736f6c0000008152506060019250505060405180910390a17f47baa91c7d2c9f62c85bf2003164496af8aa6ba0e4603c89a076c307bc87a358601960405180806020018381526020018281038252605d8152602001807f2f55736572732f73686f6b6973686f6b692f646576656c6f706d656e742f636f81526020017f6e73656e7379732f646973747269627574652f636f6e7472616374732f636f6e81526020017f7472616374732f6c6962726172792f504c4352566f74696e672e736f6c0000008152506060019250505060405180910390a17f121c1652d442e37b1b39ced56080e49236233ba8284899c84ffe036b9bfadebc603960405180806020018381526020018281038252605d8152602001807f2f55736572732f73686f6b6973686f6b692f646576656c6f706d656e742f636f81526020017f6e73656e7379732f646973747269627574652f636f6e7472616374732f636f6e81526020017f7472616374732f6c6962726172792f504c4352566f74696e672e736f6c0000008152506060019250505060405180910390a1600660009054906101000a900473ffffffffffffffffffffffffffffffffffffffff1673ffffffffffffffffffffffffffffffffffffffff163373ffffffffffffffffffffffffffffffffffffffff1614151562002f9657600080fd5b7fbb7b670aa0a63818e29bfe0731793ebdeb096d3098b99f2c633528f8fb7af241601960405180806020018381526020018281038252605d8152602001807f2f55736572732f73686f6b6973686f6b692f646576656c6f706d656e742f636f81526020017f6e73656e7379732f646973747269627574652f636f6e7472616374732f636f6e81526020017f7472616374732f6c6962726172792f504c4352566f74696e672e736f6c0000008152506060019250505060405180910390a17f95940d274231f33edf1ae32982677e0b367f4321c9de1a9da1bdf8b1482dbd7961011360405180806020018381526020018281038252605d8152602001807f2f55736572732f73686f6b6973686f6b692f646576656c6f706d656e742f636f81526020017f6e73656e7379732f646973747269627574652f636f6e7472616374732f636f6e81526020017f7472616374732f6c6962726172792f504c4352566f74696e672e736f6c0000008152506060019250505060405180910390a17f47baa91c7d2c9f62c85bf2003164496af8aa6ba0e4603c89a076c307bc87a358601a60405180806020018381526020018281038252605d8152602001807f2f55736572732f73686f6b6973686f6b692f646576656c6f706d656e742f636f81526020017f6e73656e7379732f646973747269627574652f636f6e7472616374732f636f6e81526020017f7472616374732f6c6962726172792f504c4352566f74696e672e736f6c0000008152506060019250505060405180910390a17f121c1652d442e37b1b39ced56080e49236233ba8284899c84ffe036b9bfadebc603a60405180806020018381526020018281038252605d8152602001807f2f55736572732f73686f6b6973686f6b692f646576656c6f706d656e742f636f81526020017f6e73656e7379732f646973747269627574652f636f6e7472616374732f636f6e81526020017f7472616374732f6c6962726172792f504c4352566f74696e672e736f6c0000008152506060019250505060405180910390a162003296836200e96e565b1515620032a257600080fd5b7fbb7b670aa0a63818e29bfe0731793ebdeb096d3098b99f2c633528f8fb7af241601a60405180806020018381526020018281038252605d8152602001807f2f55736572732f73686f6b6973686f6b692f646576656c6f706d656e742f636f81526020017f6e73656e7379732f646973747269627574652f636f6e7472616374732f636f6e81526020017f7472616374732f6c6962726172792f504c4352566f74696e672e736f6c0000008152506060019250505060405180910390a17f95940d274231f33edf1ae32982677e0b367f4321c9de1a9da1bdf8b1482dbd7961011560405180806020018381526020018281038252605d8152602001807f2f55736572732f73686f6b6973686f6b692f646576656c6f706d656e742f636f81526020017f6e73656e7379732f646973747269627574652f636f6e7472616374732f636f6e81526020017f7472616374732f6c6962726172792f504c4352566f74696e672e736f6c0000008152506060019250505060405180910390a17f121c1652d442e37b1b39ced56080e49236233ba8284899c84ffe036b9bfadebc603b60405180806020018381526020018281038252605d8152602001807f2f55736572732f73686f6b6973686f6b692f646576656c6f706d656e742f636f81526020017f6e73656e7379732f646973747269627574652f636f6e7472616374732f636f6e81526020017f7472616374732f6c6962726172792f504c4352566f74696e672e736f6c0000008152506060019250505060405180910390a16002600084815260200190815260200160002060a060405190810160405290816000820154815260200160018201548152602001600282015481526020016003820154815260200160048201548152505090507f95940d274231f33edf1ae32982677e0b367f4321c9de1a9da1bdf8b1482dbd7961011660405180806020018381526020018281038252605d8152602001807f2f55736572732f73686f6b6973686f6b692f646576656c6f706d656e742f636f81526020017f6e73656e7379732f646973747269627574652f636f6e7472616374732f636f6e81526020017f7472616374732f6c6962726172792f504c4352566f74696e672e736f6c0000008152506060019250505060405180910390a17f121c1652d442e37b1b39ced56080e49236233ba8284899c84ffe036b9bfadebc603c60405180806020018381526020018281038252605d8152602001807f2f55736572732f73686f6b6973686f6b692f646576656c6f706d656e742f636f81526020017f6e73656e7379732f646973747269627574652f636f6e7472616374732f636f6e81526020017f7472616374732f6c6962726172792f504c4352566f74696e672e736f6c0000008152506060019250505060405180910390a18060800151816060015101816040015102816060015160640211915050919050565b7f1e7d90235f56fb862abf07c5e5c4e5301a8da7952c7a7fea768f8d6a845b6d5b600160405180806020018381526020018281038252605d8152602001807f2f55736572732f73686f6b6973686f6b692f646576656c6f706d656e742f636f81526020017f6e73656e7379732f646973747269627574652f636f6e7472616374732f636f6e81526020017f7472616374732f6c6962726172792f504c4352566f74696e672e736f6c0000008152506060019250505060405180910390a17f95940d274231f33edf1ae32982677e0b367f4321c9de1a9da1bdf8b1482dbd79602f60405180806020018381526020018281038252605d8152602001807f2f55736572732f73686f6b6973686f6b692f646576656c6f706d656e742f636f81526020017f6e73656e7379732f646973747269627574652f636f6e7472616374732f636f6e81526020017f7472616374732f6c6962726172792f504c4352566f74696e672e736f6c0000008152506060019250505060405180910390a17f47baa91c7d2c9f62c85bf2003164496af8aa6ba0e4603c89a076c307bc87a358600160405180806020018381526020018281038252605d8152602001807f2f55736572732f73686f6b6973686f6b692f646576656c6f706d656e742f636f81526020017f6e73656e7379732f646973747269627574652f636f6e7472616374732f636f6e81526020017f7472616374732f6c6962726172792f504c4352566f74696e672e736f6c0000008152506060019250505060405180910390a17f121c1652d442e37b1b39ced56080e49236233ba8284899c84ffe036b9bfadebc600160405180806020018381526020018281038252605d8152602001807f2f55736572732f73686f6b6973686f6b692f646576656c6f706d656e742f636f81526020017f6e73656e7379732f646973747269627574652f636f6e7472616374732f636f6e81526020017f7472616374732f6c6962726172792f504c4352566f74696e672e736f6c0000008152506060019250505060405180910390a1600760009054906101000a900473ffffffffffffffffffffffffffffffffffffffff1673ffffffffffffffffffffffffffffffffffffffff163373ffffffffffffffffffffffffffffffffffffffff16148062003a685750600660009054906101000a900473ffffffffffffffffffffffffffffffffffffffff1673ffffffffffffffffffffffffffffffffffffffff163373ffffffffffffffffffffffffffffffffffffffff16145b151562003a7457600080fd5b7fbb7b670aa0a63818e29bfe0731793ebdeb096d3098b99f2c633528f8fb7af241600160405180806020018381526020018281038252605d8152602001807f2f55736572732f73686f6b6973686f6b692f646576656c6f706d656e742f636f81526020017f6e73656e7379732f646973747269627574652f636f6e7472616374732f636f6e81526020017f7472616374732f6c6962726172792f504c4352566f74696e672e736f6c0000008152506060019250505060405180910390a17f95940d274231f33edf1ae32982677e0b367f4321c9de1a9da1bdf8b1482dbd79603060405180806020018381526020018281038252605d8152602001807f2f55736572732f73686f6b6973686f6b692f646576656c6f706d656e742f636f81526020017f6e73656e7379732f646973747269627574652f636f6e7472616374732f636f6e81526020017f7472616374732f6c6962726172792f504c4352566f74696e672e736f6c0000008152506060019250505060405180910390a17f1e7d90235f56fb862abf07c5e5c4e5301a8da7952c7a7fea768f8d6a845b6d5b600760405180806020018381526020018281038252605d8152602001807f2f55736572732f73686f6b6973686f6b692f646576656c6f706d656e742f636f81526020017f6e73656e7379732f646973747269627574652f636f6e7472616374732f636f6e81526020017f7472616374732f6c6962726172792f504c4352566f74696e672e736f6c0000008152506060019250505060405180910390a17f95940d274231f33edf1ae32982677e0b367f4321c9de1a9da1bdf8b1482dbd79608160405180806020018381526020018281038252605d8152602001807f2f55736572732f73686f6b6973686f6b692f646576656c6f706d656e742f636f81526020017f6e73656e7379732f646973747269627574652f636f6e7472616374732f636f6e81526020017f7472616374732f6c6962726172792f504c4352566f74696e672e736f6c0000008152506060019250505060405180910390a17f47baa91c7d2c9f62c85bf2003164496af8aa6ba0e4603c89a076c307bc87a358600960405180806020018381526020018281038252605d8152602001807f2f55736572732f73686f6b6973686f6b692f646576656c6f706d656e742f636f81526020017f6e73656e7379732f646973747269627574652f636f6e7472616374732f636f6e81526020017f7472616374732f6c6962726172792f504c4352566f74696e672e736f6c0000008152506060019250505060405180910390a17f121c1652d442e37b1b39ced56080e49236233ba8284899c84ffe036b9bfadebc601860405180806020018381526020018281038252605d8152602001807f2f55736572732f73686f6b6973686f6b692f646576656c6f706d656e742f636f81526020017f6e73656e7379732f646973747269627574652f636f6e7472616374732f636f6e81526020017f7472616374732f6c6962726172792f504c4352566f74696e672e736f6c0000008152506060019250505060405180910390a162003eed816200e96e565b151562003ef957600080fd5b7fbb7b670aa0a63818e29bfe0731793ebdeb096d3098b99f2c633528f8fb7af241600960405180806020018381526020018281038252605d8152602001807f2f55736572732f73686f6b6973686f6b692f646576656c6f706d656e742f636f81526020017f6e73656e7379732f646973747269627574652f636f6e7472616374732f636f6e81526020017f7472616374732f6c6962726172792f504c4352566f74696e672e736f6c0000008152506060019250505060405180910390a17f95940d274231f33edf1ae32982677e0b367f4321c9de1a9da1bdf8b1482dbd79608360405180806020018381526020018281038252605d8152602001807f2f55736572732f73686f6b6973686f6b692f646576656c6f706d656e742f636f81526020017f6e73656e7379732f646973747269627574652f636f6e7472616374732f636f6e81526020017f7472616374732f6c6962726172792f504c4352566f74696e672e736f6c0000008152506060019250505060405180910390a17f121c1652d442e37b1b39ced56080e49236233ba8284899c84ffe036b9bfadebc601960405180806020018381526020018281038252605d8152602001807f2f55736572732f73686f6b6973686f6b692f646576656c6f706d656e742f636f81526020017f6e73656e7379732f646973747269627574652f636f6e7472616374732f636f6e81526020017f7472616374732f6c6962726172792f504c4352566f74696e672e736f6c0000008152506060019250505060405180910390a16200413c828262006ba8565b151562004394577f46bf101910e2537d67c0ff7a372742f790e01bb7eabae70d4ef1b754cd005bba600a600060405180806020018481526020018381526020018281038252605d8152602001807f2f55736572732f73686f6b6973686f6b692f646576656c6f706d656e742f636f81526020017f6e73656e7379732f646973747269627574652f636f6e7472616374732f636f6e81526020017f7472616374732f6c6962726172792f504c4352566f74696e672e736f6c000000815250606001935050505060405180910390a17f95940d274231f33edf1ae32982677e0b367f4321c9de1a9da1bdf8b1482dbd79608460405180806020018381526020018281038252605d8152602001807f2f55736572732f73686f6b6973686f6b692f646576656c6f706d656e742f636f81526020017f6e73656e7379732f646973747269627574652f636f6e7472616374732f636f6e81526020017f7472616374732f6c6962726172792f504c4352566f74696e672e736f6c0000008152506060019250505060405180910390a1600460008373ffffffffffffffffffffffffffffffffffffffff1673ffffffffffffffffffffffffffffffffffffffff16815260200190815260200160002073__DLL___________________________________636d900ed09091836040518363ffffffff167c0100000000000000000000000000000000000000000000000000000000028152600401808381526020018281526020019250505060006040518083038186803b15156200437957600080fd5b6102c65a03f415156200438b57600080fd5b5050506200445b565b7f46bf101910e2537d67c0ff7a372742f790e01bb7eabae70d4ef1b754cd005bba600a600160405180806020018481526020018381526020018281038252605d8152602001807f2f55736572732f73686f6b6973686f6b692f646576656c6f706d656e742f636f81526020017f6e73656e7379732f646973747269627574652f636f6e7472616374732f636f6e81526020017f7472616374732f6c6962726172792f504c4352566f74696e672e736f6c000000815250606001935050505060405180910390a15b5050565b6000807f1e7d90235f56fb862abf07c5e5c4e5301a8da7952c7a7fea768f8d6a845b6d5b600160405180806020018381526020018281038252605d8152602001807f2f55736572732f73686f6b6973686f6b692f646576656c6f706d656e742f636f81526020017f6e73656e7379732f646973747269627574652f636f6e7472616374732f636f6e81526020017f7472616374732f6c6962726172792f504c4352566f74696e672e736f6c0000008152506060019250505060405180910390a17f95940d274231f33edf1ae32982677e0b367f4321c9de1a9da1bdf8b1482dbd79602f60405180806020018381526020018281038252605d8152602001807f2f55736572732f73686f6b6973686f6b692f646576656c6f706d656e742f636f81526020017f6e73656e7379732f646973747269627574652f636f6e7472616374732f636f6e81526020017f7472616374732f6c6962726172792f504c4352566f74696e672e736f6c0000008152506060019250505060405180910390a17f47baa91c7d2c9f62c85bf2003164496af8aa6ba0e4603c89a076c307bc87a358600160405180806020018381526020018281038252605d8152602001807f2f55736572732f73686f6b6973686f6b692f646576656c6f706d656e742f636f81526020017f6e73656e7379732f646973747269627574652f636f6e7472616374732f636f6e81526020017f7472616374732f6c6962726172792f504c4352566f74696e672e736f6c0000008152506060019250505060405180910390a17f121c1652d442e37b1b39ced56080e49236233ba8284899c84ffe036b9bfadebc600160405180806020018381526020018281038252605d8152602001807f2f55736572732f73686f6b6973686f6b692f646576656c6f706d656e742f636f81526020017f6e73656e7379732f646973747269627574652f636f6e7472616374732f636f6e81526020017f7472616374732f6c6962726172792f504c4352566f74696e672e736f6c0000008152506060019250505060405180910390a1600760009054906101000a900473ffffffffffffffffffffffffffffffffffffffff1673ffffffffffffffffffffffffffffffffffffffff163373ffffffffffffffffffffffffffffffffffffffff161480620048005750600660009054906101000a900473ffffffffffffffffffffffffffffffffffffffff1673ffffffffffffffffffffffffffffffffffffffff163373ffffffffffffffffffffffffffffffffffffffff16145b15156200480c57600080fd5b7fbb7b670aa0a63818e29bfe0731793ebdeb096d3098b99f2c633528f8fb7af241600160405180806020018381526020018281038252605d8152602001807f2f55736572732f73686f6b6973686f6b692f646576656c6f706d656e742f636f81526020017f6e73656e7379732f646973747269627574652f636f6e7472616374732f636f6e81526020017f7472616374732f6c6962726172792f504c4352566f74696e672e736f6c0000008152506060019250505060405180910390a17f95940d274231f33edf1ae32982677e0b367f4321c9de1a9da1bdf8b1482dbd79603060405180806020018381526020018281038252605d8152602001807f2f55736572732f73686f6b6973686f6b692f646576656c6f706d656e742f636f81526020017f6e73656e7379732f646973747269627574652f636f6e7472616374732f636f6e81526020017f7472616374732f6c6962726172792f504c4352566f74696e672e736f6c0000008152506060019250505060405180910390a17f1e7d90235f56fb862abf07c5e5c4e5301a8da7952c7a7fea768f8d6a845b6d5b600860405180806020018381526020018281038252605d8152602001807f2f55736572732f73686f6b6973686f6b692f646576656c6f706d656e742f636f81526020017f6e73656e7379732f646973747269627574652f636f6e7472616374732f636f6e81526020017f7472616374732f6c6962726172792f504c4352566f74696e672e736f6c0000008152506060019250505060405180910390a17f95940d274231f33edf1ae32982677e0b367f4321c9de1a9da1bdf8b1482dbd79609a60405180806020018381526020018281038252605d8152602001807f2f55736572732f73686f6b6973686f6b692f646576656c6f706d656e742f636f81526020017f6e73656e7379732f646973747269627574652f636f6e7472616374732f636f6e81526020017f7472616374732f6c6962726172792f504c4352566f74696e672e736f6c0000008152506060019250505060405180910390a17f47baa91c7d2c9f62c85bf2003164496af8aa6ba0e4603c89a076c307bc87a358600b60405180806020018381526020018281038252605d8152602001807f2f55736572732f73686f6b6973686f6b692f646576656c6f706d656e742f636f81526020017f6e73656e7379732f646973747269627574652f636f6e7472616374732f636f6e81526020017f7472616374732f6c6962726172792f504c4352566f74696e672e736f6c0000008152506060019250505060405180910390a17f121c1652d442e37b1b39ced56080e49236233ba8284899c84ffe036b9bfadebc601a60405180806020018381526020018281038252605d8152602001807f2f55736572732f73686f6b6973686f6b692f646576656c6f706d656e742f636f81526020017f6e73656e7379732f646973747269627574652f636f6e7472616374732f636f6e81526020017f7472616374732f6c6962726172792f504c4352566f74696e672e736f6c0000008152506060019250505060405180910390a162004c858662009023565b151562004c9157600080fd5b7fbb7b670aa0a63818e29bfe0731793ebdeb096d3098b99f2c633528f8fb7af241600b60405180806020018381526020018281038252605d8152602001807f2f55736572732f73686f6b6973686f6b692f646576656c6f706d656e742f636f81526020017f6e73656e7379732f646973747269627574652f636f6e7472616374732f636f6e81526020017f7472616374732f6c6962726172792f504c4352566f74696e672e736f6c0000008152506060019250505060405180910390a17f95940d274231f33edf1ae32982677e0b367f4321c9de1a9da1bdf8b1482dbd79609b60405180806020018381526020018281038252605d8152602001807f2f55736572732f73686f6b6973686f6b692f646576656c6f706d656e742f636f81526020017f6e73656e7379732f646973747269627574652f636f6e7472616374732f636f6e81526020017f7472616374732f6c6962726172792f504c4352566f74696e672e736f6c0000008152506060019250505060405180910390a17f121c1652d442e37b1b39ced56080e49236233ba8284899c84ffe036b9bfadebc601b60405180806020018381526020018281038252605d8152602001807f2f55736572732f73686f6b6973686f6b692f646576656c6f706d656e742f636f81526020017f6e73656e7379732f646973747269627574652f636f6e7472616374732f636f6e81526020017f7472616374732f6c6962726172792f504c4352566f74696e672e736f6c0000008152506060019250505060405180910390a1600760009054906101000a900473ffffffffffffffffffffffffffffffffffffffff1673ffffffffffffffffffffffffffffffffffffffff163373ffffffffffffffffffffffffffffffffffffffff161462005038577f46bf101910e2537d67c0ff7a372742f790e01bb7eabae70d4ef1b754cd005bba600c600160405180806020018481526020018381526020018281038252605d8152602001807f2f55736572732f73686f6b6973686f6b692f646576656c6f706d656e742f636f81526020017f6e73656e7379732f646973747269627574652f636f6e7472616374732f636f6e81526020017f7472616374732f6c6962726172792f504c4352566f74696e672e736f6c000000815250606001935050505060405180910390a1836000808973ffffffffffffffffffffffffffffffffffffffff1673ffffffffffffffffffffffffffffffffffffffff16815260200190815260200160002054101515156200503257600080fd5b6200514e565b7f46bf101910e2537d67c0ff7a372742f790e01bb7eabae70d4ef1b754cd005bba600c600060405180806020018481526020018381526020018281038252605d8152602001807f2f55736572732f73686f6b6973686f6b692f646576656c6f706d656e742f636f81526020017f6e73656e7379732f646973747269627574652f636f6e7472616374732f636f6e81526020017f7472616374732f6c6962726172792f504c4352566f74696e672e736f6c000000815250606001935050505060405180910390a183600160008973ffffffffffffffffffffffffffffffffffffffff1673ffffffffffffffffffffffffffffffffffffffff16815260200190815260200160002054101515156200514d57600080fd5b5b7f95940d274231f33edf1ae32982677e0b367f4321c9de1a9da1bdf8b1482dbd79609e60405180806020018381526020018281038252605d8152602001807f2f55736572732f73686f6b6973686f6b692f646576656c6f706d656e742f636f81526020017f6e73656e7379732f646973747269627574652f636f6e7472616374732f636f6e81526020017f7472616374732f6c6962726172792f504c4352566f74696e672e736f6c0000008152506060019250505060405180910390a17f47baa91c7d2c9f62c85bf2003164496af8aa6ba0e4603c89a076c307bc87a358600d60405180806020018381526020018281038252605d8152602001807f2f55736572732f73686f6b6973686f6b692f646576656c6f706d656e742f636f81526020017f6e73656e7379732f646973747269627574652f636f6e7472616374732f636f6e81526020017f7472616374732f6c6962726172792f504c4352566f74696e672e736f6c0000008152506060019250505060405180910390a17f121c1652d442e37b1b39ced56080e49236233ba8284899c84ffe036b9bfadebc601c60405180806020018381526020018281038252605d8152602001807f2f55736572732f73686f6b6973686f6b692f646576656c6f706d656e742f636f81526020017f6e73656e7379732f646973747269627574652f636f6e7472616374732f636f6e81526020017f7472616374732f6c6962726172792f504c4352566f74696e672e736f6c0000008152506060019250505060405180910390a1600086141515156200539657600080fd5b7fbb7b670aa0a63818e29bfe0731793ebdeb096d3098b99f2c633528f8fb7af241600d60405180806020018381526020018281038252605d8152602001807f2f55736572732f73686f6b6973686f6b692f646576656c6f706d656e742f636f81526020017f6e73656e7379732f646973747269627574652f636f6e7472616374732f636f6e81526020017f7472616374732f6c6962726172792f504c4352566f74696e672e736f6c0000008152506060019250505060405180910390a17f95940d274231f33edf1ae32982677e0b367f4321c9de1a9da1bdf8b1482dbd7960a160405180806020018381526020018281038252605d8152602001807f2f55736572732f73686f6b6973686f6b692f646576656c6f706d656e742f636f81526020017f6e73656e7379732f646973747269627574652f636f6e7472616374732f636f6e81526020017f7472616374732f6c6962726172792f504c4352566f74696e672e736f6c0000008152506060019250505060405180910390a17f47baa91c7d2c9f62c85bf2003164496af8aa6ba0e4603c89a076c307bc87a358600e60405180806020018381526020018281038252605d8152602001807f2f55736572732f73686f6b6973686f6b692f646576656c6f706d656e742f636f81526020017f6e73656e7379732f646973747269627574652f636f6e7472616374732f636f6e81526020017f7472616374732f6c6962726172792f504c4352566f74696e672e736f6c0000008152506060019250505060405180910390a17f121c1652d442e37b1b39ced56080e49236233ba8284899c84ffe036b9bfadebc601d60405180806020018381526020018281038252605d8152602001807f2f55736572732f73686f6b6973686f6b692f646576656c6f706d656e742f636f81526020017f6e73656e7379732f646973747269627574652f636f6e7472616374732f636f6e81526020017f7472616374732f6c6962726172792f504c4352566f74696e672e736f6c0000008152506060019250505060405180910390a16000831480620056ad57506000600102620056a688856200e3fe565b6000191614155b1515620056b957600080fd5b7fbb7b670aa0a63818e29bfe0731793ebdeb096d3098b99f2c633528f8fb7af241600e60405180806020018381526020018281038252605d8152602001807f2f55736572732f73686f6b6973686f6b692f646576656c6f706d656e742f636f81526020017f6e73656e7379732f646973747269627574652f636f6e7472616374732f636f6e81526020017f7472616374732f6c6962726172792f504c4352566f74696e672e736f6c0000008152506060019250505060405180910390a17f95940d274231f33edf1ae32982677e0b367f4321c9de1a9da1bdf8b1482dbd7960a360405180806020018381526020018281038252605d8152602001807f2f55736572732f73686f6b6973686f6b692f646576656c6f706d656e742f636f81526020017f6e73656e7379732f646973747269627574652f636f6e7472616374732f636f6e81526020017f7472616374732f6c6962726172792f504c4352566f74696e672e736f6c0000008152506060019250505060405180910390a17f121c1652d442e37b1b39ced56080e49236233ba8284899c84ffe036b9bfadebc601e60405180806020018381526020018281038252605d8152602001807f2f55736572732f73686f6b6973686f6b692f646576656c6f706d656e742f636f81526020017f6e73656e7379732f646973747269627574652f636f6e7472616374732f636f6e81526020017f7472616374732f6c6962726172792f504c4352566f74696e672e736f6c0000008152506060019250505060405180910390a1600460008873ffffffffffffffffffffffffffffffffffffffff1673ffffffffffffffffffffffffffffffffffffffff16815260200190815260200160002073__DLL___________________________________6307d29ac99091856000604051602001526040518363ffffffff167c0100000000000000000000000000000000000000000000000000000000028152600401808381526020018281526020019250505060206040518083038186803b1515620059ac57600080fd5b6102c65a03f41515620059be57600080fd5b5050506040518051905091507f95940d274231f33edf1ae32982677e0b367f4321c9de1a9da1bdf8b1482dbd7960a560405180806020018381526020018281038252605d8152602001807f2f55736572732f73686f6b6973686f6b692f646576656c6f706d656e742f636f81526020017f6e73656e7379732f646973747269627574652f636f6e7472616374732f636f6e81526020017f7472616374732f6c6962726172792f504c4352566f74696e672e736f6c0000008152506060019250505060405180910390a17f121c1652d442e37b1b39ced56080e49236233ba8284899c84ffe036b9bfadebc601f60405180806020018381526020018281038252605d8152602001807f2f55736572732f73686f6b6973686f6b692f646576656c6f706d656e742f636f81526020017f6e73656e7379732f646973747269627574652f636f6e7472616374732f636f6e81526020017f7472616374732f6c6962726172792f504c4352566f74696e672e736f6c0000008152506060019250505060405180910390a185821462005c19577f46bf101910e2537d67c0ff7a372742f790e01bb7eabae70d4ef1b754cd005bba600f600160405180806020018481526020018381526020018281038252605d8152602001807f2f55736572732f73686f6b6973686f6b692f646576656c6f706d656e742f636f81526020017f6e73656e7379732f646973747269627574652f636f6e7472616374732f636f6e81526020017f7472616374732f6c6962726172792f504c4352566f74696e672e736f6c000000815250606001935050505060405180910390a18162005db8565b7f46bf101910e2537d67c0ff7a372742f790e01bb7eabae70d4ef1b754cd005bba600f600060405180806020018481526020018381526020018281038252605d8152602001807f2f55736572732f73686f6b6973686f6b692f646576656c6f706d656e742f636f81526020017f6e73656e7379732f646973747269627574652f636f6e7472616374732f636f6e81526020017f7472616374732f6c6962726172792f504c4352566f74696e672e736f6c000000815250606001935050505060405180910390a1600460008873ffffffffffffffffffffffffffffffffffffffff1673ffffffffffffffffffffffffffffffffffffffff16815260200190815260200160002073__DLL___________________________________6307d29ac99091886000604051602001526040518363ffffffff167c0100000000000000000000000000000000000000000000000000000000028152600401808381526020018281526020019250505060206040518083038186803b151562005d9b57600080fd5b6102c65a03f4151562005dad57600080fd5b505050604051805190505b809250507f95940d274231f33edf1ae32982677e0b367f4321c9de1a9da1bdf8b1482dbd7960a860405180806020018381526020018281038252605d8152602001807f2f55736572732f73686f6b6973686f6b692f646576656c6f706d656e742f636f81526020017f6e73656e7379732f646973747269627574652f636f6e7472616374732f636f6e81526020017f7472616374732f6c6962726172792f504c4352566f74696e672e736f6c0000008152506060019250505060405180910390a17f47baa91c7d2c9f62c85bf2003164496af8aa6ba0e4603c89a076c307bc87a358601060405180806020018381526020018281038252605d8152602001807f2f55736572732f73686f6b6973686f6b692f646576656c6f706d656e742f636f81526020017f6e73656e7379732f646973747269627574652f636f6e7472616374732f636f6e81526020017f7472616374732f6c6962726172792f504c4352566f74696e672e736f6c0000008152506060019250505060405180910390a17f121c1652d442e37b1b39ced56080e49236233ba8284899c84ffe036b9bfadebc602060405180806020018381526020018281038252605d8152602001807f2f55736572732f73686f6b6973686f6b692f646576656c6f706d656e742f636f81526020017f6e73656e7379732f646973747269627574652f636f6e7472616374732f636f6e81526020017f7472616374732f6c6962726172792f504c4352566f74696e672e736f6c0000008152506060019250505060405180910390a16200600183838987620075b4565b15156200600d57600080fd5b7fbb7b670aa0a63818e29bfe0731793ebdeb096d3098b99f2c633528f8fb7af241601060405180806020018381526020018281038252605d8152602001807f2f55736572732f73686f6b6973686f6b692f646576656c6f706d656e742f636f81526020017f6e73656e7379732f646973747269627574652f636f6e7472616374732f636f6e81526020017f7472616374732f6c6962726172792f504c4352566f74696e672e736f6c0000008152506060019250505060405180910390a17f95940d274231f33edf1ae32982677e0b367f4321c9de1a9da1bdf8b1482dbd7960a960405180806020018381526020018281038252605d8152602001807f2f55736572732f73686f6b6973686f6b692f646576656c6f706d656e742f636f81526020017f6e73656e7379732f646973747269627574652f636f6e7472616374732f636f6e81526020017f7472616374732f6c6962726172792f504c4352566f74696e672e736f6c0000008152506060019250505060405180910390a1600460008873ffffffffffffffffffffffffffffffffffffffff1673ffffffffffffffffffffffffffffffffffffffff16815260200190815260200160002073__DLL___________________________________639735c51b90918589866040518563ffffffff167c01000000000000000000000000000000000000000000000000000000000281526004018085815260200184815260200183815260200182815260200194505050505060006040518083038186803b15156200624a57600080fd5b6102c65a03f415156200625c57600080fd5b5050507f95940d274231f33edf1ae32982677e0b367f4321c9de1a9da1bdf8b1482dbd7960aa60405180806020018381526020018281038252605d8152602001807f2f55736572732f73686f6b6973686f6b692f646576656c6f706d656e742f636f81526020017f6e73656e7379732f646973747269627574652f636f6e7472616374732f636f6e81526020017f7472616374732f6c6962726172792f504c4352566f74696e672e736f6c0000008152506060019250505060405180910390a17f121c1652d442e37b1b39ced56080e49236233ba8284899c84ffe036b9bfadebc602160405180806020018381526020018281038252605d8152602001807f2f55736572732f73686f6b6973686f6b692f646576656c6f706d656e742f636f81526020017f6e73656e7379732f646973747269627574652f636f6e7472616374732f636f6e81526020017f7472616374732f6c6962726172792f504c4352566f74696e672e736f6c0000008152506060019250505060405180910390a1620063e5878762008d88565b90507f95940d274231f33edf1ae32982677e0b367f4321c9de1a9da1bdf8b1482dbd7960ab60405180806020018381526020018281038252605d8152602001807f2f55736572732f73686f6b6973686f6b692f646576656c6f706d656e742f636f81526020017f6e73656e7379732f646973747269627574652f636f6e7472616374732f636f6e81526020017f7472616374732f6c6962726172792f504c4352566f74696e672e736f6c0000008152506060019250505060405180910390a1600573__AttributeStore________________________63f8f42244909183876040518463ffffffff167c010000000000000000000000000000000000000000000000000000000002815260040180848152602001836000191660001916815260200180602001838152602001828103825260098152602001807f6e756d546f6b656e73000000000000000000000000000000000000000000000081525060200194505050505060006040518083038186803b15156200656357600080fd5b6102c65a03f415156200657557600080fd5b5050507f95940d274231f33edf1ae32982677e0b367f4321c9de1a9da1bdf8b1482dbd7960ac60405180806020018381526020018281038252605d8152602001807f2f55736572732f73686f6b6973686f6b692f646576656c6f706d656e742f636f81526020017f6e73656e7379732f646973747269627574652f636f6e7472616374732f636f6e81526020017f7472616374732f6c6962726172792f504c4352566f74696e672e736f6c0000008152506060019250505060405180910390a1600573__AttributeStore________________________63f8f4224490918388600190046040518463ffffffff167c0100000000000000000000000000000000000000000000000000000000028152600401808481526020018360001916600019168152602001806020018381526020018281038252600a8152602001807f636f6d6d6974486173680000000000000000000000000000000000000000000081525060200194505050505060006040518083038186803b1515620066f857600080fd5b6102c65a03f415156200670a57600080fd5b5050507f95940d274231f33edf1ae32982677e0b367f4321c9de1a9da1bdf8b1482dbd7960ad60405180806020018381526020018281038252605d8152602001807f2f55736572732f73686f6b6973686f6b692f646576656c6f706d656e742f636f81526020017f6e73656e7379732f646973747269627574652f636f6e7472616374732f636f6e81526020017f7472616374732f6c6962726172792f504c4352566f74696e672e736f6c0000008152506060019250505060405180910390a17f121c1652d442e37b1b39ced56080e49236233ba8284899c84ffe036b9bfadebc602260405180806020018381526020018281038252605d8152602001807f2f55736572732f73686f6b6973686f6b692f646576656c6f706d656e742f636f81526020017f6e73656e7379732f646973747269627574652f636f6e7472616374732f636f6e81526020017f7472616374732f6c6962726172792f504c4352566f74696e672e736f6c0000008152506060019250505060405180910390a17f1d1ce8842c4b2d0eaed42eb6d7732092ca85f0992cae9c760d181efcb0aedf4e878786604051808473ffffffffffffffffffffffffffffffffffffffff1673ffffffffffffffffffffffffffffffffffffffff168152602001838152602001828152602001935050505060405180910390a150505050505050565b60026020528060005260406000206000915090508060000154908060010154908060020154908060030154908060040154905085565b60007f1e7d90235f56fb862abf07c5e5c4e5301a8da7952c7a7fea768f8d6a845b6d5b601760405180806020018381526020018281038252605d8152602001807f2f55736572732f73686f6b6973686f6b692f646576656c6f706d656e742f636f81526020017f6e73656e7379732f646973747269627574652f636f6e7472616374732f636f6e81526020017f7472616374732f6c6962726172792f504c4352566f74696e672e736f6c0000008152506060019250505060405180910390a17f95940d274231f33edf1ae32982677e0b367f4321c9de1a9da1bdf8b1482dbd7961019360405180806020018381526020018281038252605d8152602001807f2f55736572732f73686f6b6973686f6b692f646576656c6f706d656e742f636f81526020017f6e73656e7379732f646973747269627574652f636f6e7472616374732f636f6e81526020017f7472616374732f6c6962726172792f504c4352566f74696e672e736f6c0000008152506060019250505060405180910390a17f121c1652d442e37b1b39ced56080e49236233ba8284899c84ffe036b9bfadebc605560405180806020018381526020018281038252605d8152602001807f2f55736572732f73686f6b6973686f6b692f646576656c6f706d656e742f636f81526020017f6e73656e7379732f646973747269627574652f636f6e7472616374732f636f6e81526020017f7472616374732f6c6962726172792f504c4352566f74696e672e736f6c0000008152506060019250505060405180910390a162006b898262006b838462001e77565b6200e0d5565b9050919050565b60016020528060005260406000206000915090505481565b60008060007f1e7d90235f56fb862abf07c5e5c4e5301a8da7952c7a7fea768f8d6a845b6d5b601260405180806020018381526020018281038252605d8152602001807f2f55736572732f73686f6b6973686f6b692f646576656c6f706d656e742f636f81526020017f6e73656e7379732f646973747269627574652f636f6e7472616374732f636f6e81526020017f7472616374732f6c6962726172792f504c4352566f74696e672e736f6c0000008152506060019250505060405180910390a17f95940d274231f33edf1ae32982677e0b367f4321c9de1a9da1bdf8b1482dbd7961015460405180806020018381526020018281038252605d8152602001807f2f55736572732f73686f6b6973686f6b692f646576656c6f706d656e742f636f81526020017f6e73656e7379732f646973747269627574652f636f6e7472616374732f636f6e81526020017f7472616374732f6c6962726172792f504c4352566f74696e672e736f6c0000008152506060019250505060405180910390a17f47baa91c7d2c9f62c85bf2003164496af8aa6ba0e4603c89a076c307bc87a358602060405180806020018381526020018281038252605d8152602001807f2f55736572732f73686f6b6973686f6b692f646576656c6f706d656e742f636f81526020017f6e73656e7379732f646973747269627574652f636f6e7472616374732f636f6e81526020017f7472616374732f6c6962726172792f504c4352566f74696e672e736f6c0000008152506060019250505060405180910390a17f121c1652d442e37b1b39ced56080e49236233ba8284899c84ffe036b9bfadebc604760405180806020018381526020018281038252605d8152602001807f2f55736572732f73686f6b6973686f6b692f646576656c6f706d656e742f636f81526020017f6e73656e7379732f646973747269627574652f636f6e7472616374732f636f6e81526020017f7472616374732f6c6962726172792f504c4352566f74696e672e736f6c0000008152506060019250505060405180910390a162006ead8462007b29565b151562006eb957600080fd5b7fbb7b670aa0a63818e29bfe0731793ebdeb096d3098b99f2c633528f8fb7af241602060405180806020018381526020018281038252605d8152602001807f2f55736572732f73686f6b6973686f6b692f646576656c6f706d656e742f636f81526020017f6e73656e7379732f646973747269627574652f636f6e7472616374732f636f6e81526020017f7472616374732f6c6962726172792f504c4352566f74696e672e736f6c0000008152506060019250505060405180910390a17f95940d274231f33edf1ae32982677e0b367f4321c9de1a9da1bdf8b1482dbd7961015660405180806020018381526020018281038252605d8152602001807f2f55736572732f73686f6b6973686f6b692f646576656c6f706d656e742f636f81526020017f6e73656e7379732f646973747269627574652f636f6e7472616374732f636f6e81526020017f7472616374732f6c6962726172792f504c4352566f74696e672e736f6c0000008152506060019250505060405180910390a17f121c1652d442e37b1b39ced56080e49236233ba8284899c84ffe036b9bfadebc604860405180806020018381526020018281038252605d8152602001807f2f55736572732f73686f6b6973686f6b692f646576656c6f706d656e742f636f81526020017f6e73656e7379732f646973747269627574652f636f6e7472616374732f636f6e81526020017f7472616374732f6c6962726172792f504c4352566f74696e672e736f6c0000008152506060019250505060405180910390a1600460008673ffffffffffffffffffffffffffffffffffffffff1673ffffffffffffffffffffffffffffffffffffffff16815260200190815260200160002073__DLL___________________________________6330fe0a0a9091866000604051602001526040518363ffffffff167c0100000000000000000000000000000000000000000000000000000000028152600401808381526020018281526020019250505060206040518083038186803b1515620071ad57600080fd5b6102c65a03f41515620071bf57600080fd5b5050506040518051905091507f95940d274231f33edf1ae32982677e0b367f4321c9de1a9da1bdf8b1482dbd7961015760405180806020018381526020018281038252605d8152602001807f2f55736572732f73686f6b6973686f6b692f646576656c6f706d656e742f636f81526020017f6e73656e7379732f646973747269627574652f636f6e7472616374732f636f6e81526020017f7472616374732f6c6962726172792f504c4352566f74696e672e736f6c0000008152506060019250505060405180910390a17f121c1652d442e37b1b39ced56080e49236233ba8284899c84ffe036b9bfadebc604960405180806020018381526020018281038252605d8152602001807f2f55736572732f73686f6b6973686f6b692f646576656c6f706d656e742f636f81526020017f6e73656e7379732f646973747269627574652f636f6e7472616374732f636f6e81526020017f7472616374732f6c6962726172792f504c4352566f74696e672e736f6c0000008152506060019250505060405180910390a1600460008673ffffffffffffffffffffffffffffffffffffffff1673ffffffffffffffffffffffffffffffffffffffff16815260200190815260200160002073__DLL___________________________________6307d29ac99091866000604051602001526040518363ffffffff167c0100000000000000000000000000000000000000000000000000000000028152600401808381526020018281526020019250505060206040518083038186803b15156200740257600080fd5b6102c65a03f415156200741457600080fd5b5050506040518051905090507f95940d274231f33edf1ae32982677e0b367f4321c9de1a9da1bdf8b1482dbd7961015960405180806020018381526020018281038252605d8152602001807f2f55736572732f73686f6b6973686f6b692f646576656c6f706d656e742f636f81526020017f6e73656e7379732f646973747269627574652f636f6e7472616374732f636f6e81526020017f7472616374732f6c6962726172792f504c4352566f74696e672e736f6c0000008152506060019250505060405180910390a17f121c1652d442e37b1b39ced56080e49236233ba8284899c84ffe036b9bfadebc604a60405180806020018381526020018281038252605d8152602001807f2f55736572732f73686f6b6973686f6b692f646576656c6f706d656e742f636f81526020017f6e73656e7379732f646973747269627574652f636f6e7472616374732f636f6e81526020017f7472616374732f6c6962726172792f504c4352566f74696e672e736f6c0000008152506060019250505060405180910390a18382148015620075aa57508381145b9250505092915050565b60008060007f1e7d90235f56fb862abf07c5e5c4e5301a8da7952c7a7fea768f8d6a845b6d5b600960405180806020018381526020018281038252605d8152602001807f2f55736572732f73686f6b6973686f6b692f646576656c6f706d656e742f636f81526020017f6e73656e7379732f646973747269627574652f636f6e7472616374732f636f6e81526020017f7472616374732f6c6962726172792f504c4352566f74696e672e736f6c0000008152506060019250505060405180910390a17f95940d274231f33edf1ae32982677e0b367f4321c9de1a9da1bdf8b1482dbd7960be60405180806020018381526020018281038252605d8152602001807f2f55736572732f73686f6b6973686f6b692f646576656c6f706d656e742f636f81526020017f6e73656e7379732f646973747269627574652f636f6e7472616374732f636f6e81526020017f7472616374732f6c6962726172792f504c4352566f74696e672e736f6c0000008152506060019250505060405180910390a17f121c1652d442e37b1b39ced56080e49236233ba8284899c84ffe036b9bfadebc602360405180806020018381526020018281038252605d8152602001807f2f55736572732f73686f6b6973686f6b692f646576656c6f706d656e742f636f81526020017f6e73656e7379732f646973747269627574652f636f6e7472616374732f636f6e81526020017f7472616374732f6c6962726172792f504c4352566f74696e672e736f6c0000008152506060019250505060405180910390a1620077fc85886200e0d5565b84101591507f95940d274231f33edf1ae32982677e0b367f4321c9de1a9da1bdf8b1482dbd7960c060405180806020018381526020018281038252605d8152602001807f2f55736572732f73686f6b6973686f6b692f646576656c6f706d656e742f636f81526020017f6e73656e7379732f646973747269627574652f636f6e7472616374732f636f6e81526020017f7472616374732f6c6962726172792f504c4352566f74696e672e736f6c0000008152506060019250505060405180910390a17f121c1652d442e37b1b39ced56080e49236233ba8284899c84ffe036b9bfadebc602460405180806020018381526020018281038252605d8152602001807f2f55736572732f73686f6b6973686f6b692f646576656c6f706d656e742f636f81526020017f6e73656e7379732f646973747269627574652f636f6e7472616374732f636f6e81526020017f7472616374732f6c6962726172792f504c4352566f74696e672e736f6c0000008152506060019250505060405180910390a16200798785876200e0d5565b84111580620079965750600086145b90507f95940d274231f33edf1ae32982677e0b367f4321c9de1a9da1bdf8b1482dbd7960c160405180806020018381526020018281038252605d8152602001807f2f55736572732f73686f6b6973686f6b692f646576656c6f706d656e742f636f81526020017f6e73656e7379732f646973747269627574652f636f6e7472616374732f636f6e81526020017f7472616374732f6c6962726172792f504c4352566f74696e672e736f6c0000008152506060019250505060405180910390a17f121c1652d442e37b1b39ced56080e49236233ba8284899c84ffe036b9bfadebc602560405180806020018381526020018281038252605d8152602001807f2f55736572732f73686f6b6973686f6b692f646576656c6f706d656e742f636f81526020017f6e73656e7379732f646973747269627574652f636f6e7472616374732f636f6e81526020017f7472616374732f6c6962726172792f504c4352566f74696e672e736f6c0000008152506060019250505060405180910390a181801562007b1d5750805b92505050949350505050565b60008060007f1e7d90235f56fb862abf07c5e5c4e5301a8da7952c7a7fea768f8d6a845b6d5b601360405180806020018381526020018281038252605d8152602001807f2f55736572732f73686f6b6973686f6b692f646576656c6f706d656e742f636f81526020017f6e73656e7379732f646973747269627574652f636f6e7472616374732f636f6e81526020017f7472616374732f6c6962726172792f504c4352566f74696e672e736f6c0000008152506060019250505060405180910390a17f95940d274231f33edf1ae32982677e0b367f4321c9de1a9da1bdf8b1482dbd7961016260405180806020018381526020018281038252605d8152602001807f2f55736572732f73686f6b6973686f6b692f646576656c6f706d656e742f636f81526020017f6e73656e7379732f646973747269627574652f636f6e7472616374732f636f6e81526020017f7472616374732f6c6962726172792f504c4352566f74696e672e736f6c0000008152506060019250505060405180910390a17f121c1652d442e37b1b39ced56080e49236233ba8284899c84ffe036b9bfadebc604b60405180806020018381526020018281038252605d8152602001807f2f55736572732f73686f6b6973686f6b692f646576656c6f706d656e742f636f81526020017f6e73656e7379732f646973747269627574652f636f6e7472616374732f636f6e81526020017f7472616374732f6c6962726172792f504c4352566f74696e672e736f6c0000008152506060019250505060405180910390a1600260008581526020019081526020016000206000015491507f95940d274231f33edf1ae32982677e0b367f4321c9de1a9da1bdf8b1482dbd7961016360405180806020018381526020018281038252605d8152602001807f2f55736572732f73686f6b6973686f6b692f646576656c6f706d656e742f636f81526020017f6e73656e7379732f646973747269627574652f636f6e7472616374732f636f6e81526020017f7472616374732f6c6962726172792f504c4352566f74696e672e736f6c0000008152506060019250505060405180910390a17f121c1652d442e37b1b39ced56080e49236233ba8284899c84ffe036b9bfadebc604c60405180806020018381526020018281038252605d8152602001807f2f55736572732f73686f6b6973686f6b692f646576656c6f706d656e742f636f81526020017f6e73656e7379732f646973747269627574652f636f6e7472616374732f636f6e81526020017f7472616374732f6c6962726172792f504c4352566f74696e672e736f6c0000008152506060019250505060405180910390a1600260008581526020019081526020016000206001015490507f95940d274231f33edf1ae32982677e0b367f4321c9de1a9da1bdf8b1482dbd7961016560405180806020018381526020018281038252605d8152602001807f2f55736572732f73686f6b6973686f6b692f646576656c6f706d656e742f636f81526020017f6e73656e7379732f646973747269627574652f636f6e7472616374732f636f6e81526020017f7472616374732f6c6962726172792f504c4352566f74696e672e736f6c0000008152506060019250505060405180910390a17f47baa91c7d2c9f62c85bf2003164496af8aa6ba0e4603c89a076c307bc87a358602160405180806020018381526020018281038252605d8152602001807f2f55736572732f73686f6b6973686f6b692f646576656c6f706d656e742f636f81526020017f6e73656e7379732f646973747269627574652f636f6e7472616374732f636f6e81526020017f7472616374732f6c6962726172792f504c4352566f74696e672e736f6c0000008152506060019250505060405180910390a17f121c1652d442e37b1b39ced56080e49236233ba8284899c84ffe036b9bfadebc604d60405180806020018381526020018281038252605d8152602001807f2f55736572732f73686f6b6973686f6b692f646576656c6f706d656e742f636f81526020017f6e73656e7379732f646973747269627574652f636f6e7472616374732f636f6e81526020017f7472616374732f6c6962726172792f504c4352566f74696e672e736f6c0000008152506060019250505060405180910390a16000821480156200815d575060008114155b1515156200816757fe5b7fbb7b670aa0a63818e29bfe0731793ebdeb096d3098b99f2c633528f8fb7af241602160405180806020018381526020018281038252605d8152602001807f2f55736572732f73686f6b6973686f6b692f646576656c6f706d656e742f636f81526020017f6e73656e7379732f646973747269627574652f636f6e7472616374732f636f6e81526020017f7472616374732f6c6962726172792f504c4352566f74696e672e736f6c0000008152506060019250505060405180910390a17f95940d274231f33edf1ae32982677e0b367f4321c9de1a9da1bdf8b1482dbd7961016660405180806020018381526020018281038252605d8152602001807f2f55736572732f73686f6b6973686f6b692f646576656c6f706d656e742f636f81526020017f6e73656e7379732f646973747269627574652f636f6e7472616374732f636f6e81526020017f7472616374732f6c6962726172792f504c4352566f74696e672e736f6c0000008152506060019250505060405180910390a17f47baa91c7d2c9f62c85bf2003164496af8aa6ba0e4603c89a076c307bc87a358602260405180806020018381526020018281038252605d8152602001807f2f55736572732f73686f6b6973686f6b692f646576656c6f706d656e742f636f81526020017f6e73656e7379732f646973747269627574652f636f6e7472616374732f636f6e81526020017f7472616374732f6c6962726172792f504c4352566f74696e672e736f6c0000008152506060019250505060405180910390a17f121c1652d442e37b1b39ced56080e49236233ba8284899c84ffe036b9bfadebc604e60405180806020018381526020018281038252605d8152602001807f2f55736572732f73686f6b6973686f6b692f646576656c6f706d656e742f636f81526020017f6e73656e7379732f646973747269627574652f636f6e7472616374732f636f6e81526020017f7472616374732f6c6962726172792f504c4352566f74696e672e736f6c0000008152506060019250505060405180910390a1600082141580156200846e5750600081145b1515156200847857fe5b7fbb7b670aa0a63818e29bfe0731793ebdeb096d3098b99f2c633528f8fb7af241602260405180806020018381526020018281038252605d8152602001807f2f55736572732f73686f6b6973686f6b692f646576656c6f706d656e742f636f81526020017f6e73656e7379732f646973747269627574652f636f6e7472616374732f636f6e81526020017f7472616374732f6c6962726172792f504c4352566f74696e672e736f6c0000008152506060019250505060405180910390a17f95940d274231f33edf1ae32982677e0b367f4321c9de1a9da1bdf8b1482dbd7961016860405180806020018381526020018281038252605d8152602001807f2f55736572732f73686f6b6973686f6b692f646576656c6f706d656e742f636f81526020017f6e73656e7379732f646973747269627574652f636f6e7472616374732f636f6e81526020017f7472616374732f6c6962726172792f504c4352566f74696e672e736f6c0000008152506060019250505060405180910390a17f121c1652d442e37b1b39ced56080e49236233ba8284899c84ffe036b9bfadebc604f60405180806020018381526020018281038252605d8152602001807f2f55736572732f73686f6b6973686f6b692f646576656c6f706d656e742f636f81526020017f6e73656e7379732f646973747269627574652f636f6e7472616374732f636f6e81526020017f7472616374732f6c6962726172792f504c4352566f74696e672e736f6c0000008152506060019250505060405180910390a16000821480620086c05750600081145b1562008853577f46bf101910e2537d67c0ff7a372742f790e01bb7eabae70d4ef1b754cd005bba6023600060405180806020018481526020018381526020018281038252605d8152602001807f2f55736572732f73686f6b6973686f6b692f646576656c6f706d656e742f636f81526020017f6e73656e7379732f646973747269627574652f636f6e7472616374732f636f6e81526020017f7472616374732f6c6962726172792f504c4352566f74696e672e736f6c000000815250606001935050505060405180910390a17f121c1652d442e37b1b39ced56080e49236233ba8284899c84ffe036b9bfadebc605060405180806020018381526020018281038252605d8152602001807f2f55736572732f73686f6b6973686f6b692f646576656c6f706d656e742f636f81526020017f6e73656e7379732f646973747269627574652f636f6e7472616374732f636f6e81526020017f7472616374732f6c6962726172792f504c4352566f74696e672e736f6c0000008152506060019250505060405180910390a16000925062008a99565b7f46bf101910e2537d67c0ff7a372742f790e01bb7eabae70d4ef1b754cd005bba6023600160405180806020018481526020018381526020018281038252605d8152602001807f2f55736572732f73686f6b6973686f6b692f646576656c6f706d656e742f636f81526020017f6e73656e7379732f646973747269627574652f636f6e7472616374732f636f6e81526020017f7472616374732f6c6962726172792f504c4352566f74696e672e736f6c000000815250606001935050505060405180910390a17f95940d274231f33edf1ae32982677e0b367f4321c9de1a9da1bdf8b1482dbd7961016960405180806020018381526020018281038252605d8152602001807f2f55736572732f73686f6b6973686f6b692f646576656c6f706d656e742f636f81526020017f6e73656e7379732f646973747269627574652f636f6e7472616374732f636f6e81526020017f7472616374732f6c6962726172792f504c4352566f74696e672e736f6c0000008152506060019250505060405180910390a17f121c1652d442e37b1b39ced56080e49236233ba8284899c84ffe036b9bfadebc605160405180806020018381526020018281038252605d8152602001807f2f55736572732f73686f6b6973686f6b692f646576656c6f706d656e742f636f81526020017f6e73656e7379732f646973747269627574652f636f6e7472616374732f636f6e81526020017f7472616374732f6c6962726172792f504c4352566f74696e672e736f6c0000008152506060019250505060405180910390a1600192505b5050919050565b60007f1e7d90235f56fb862abf07c5e5c4e5301a8da7952c7a7fea768f8d6a845b6d5b600460405180806020018381526020018281038252605d8152602001807f2f55736572732f73686f6b6973686f6b692f646576656c6f706d656e742f636f81526020017f6e73656e7379732f646973747269627574652f636f6e7472616374732f636f6e81526020017f7472616374732f6c6962726172792f504c4352566f74696e672e736f6c0000008152506060019250505060405180910390a17f95940d274231f33edf1ae32982677e0b367f4321c9de1a9da1bdf8b1482dbd79605660405180806020018381526020018281038252605d8152602001807f2f55736572732f73686f6b6973686f6b692f646576656c6f706d656e742f636f81526020017f6e73656e7379732f646973747269627574652f636f6e7472616374732f636f6e81526020017f7472616374732f6c6962726172792f504c4352566f74696e672e736f6c0000008152506060019250505060405180910390a17f121c1652d442e37b1b39ced56080e49236233ba8284899c84ffe036b9bfadebc600760405180806020018381526020018281038252605d8152602001807f2f55736572732f73686f6b6973686f6b692f646576656c6f706d656e742f636f81526020017f6e73656e7379732f646973747269627574652f636f6e7472616374732f636f6e81526020017f7472616374732f6c6962726172792f504c4352566f74696e672e736f6c0000008152506060019250505060405180910390a16001821462008d345762008ced8362006939565b600160008573ffffffffffffffffffffffffffffffffffffffff1673ffffffffffffffffffffffffffffffffffffffff168152602001908152602001600020540362008d80565b62008d3f8362006939565b6000808573ffffffffffffffffffffffffffffffffffffffff1673ffffffffffffffffffffffffffffffffffffffff16815260200190815260200160002054035b905092915050565b60007f1e7d90235f56fb862abf07c5e5c4e5301a8da7952c7a7fea768f8d6a845b6d5b601a60405180806020018381526020018281038252605d8152602001807f2f55736572732f73686f6b6973686f6b692f646576656c6f706d656e742f636f81526020017f6e73656e7379732f646973747269627574652f636f6e7472616374732f636f6e81526020017f7472616374732f6c6962726172792f504c4352566f74696e672e736f6c0000008152506060019250505060405180910390a17f95940d274231f33edf1ae32982677e0b367f4321c9de1a9da1bdf8b1482dbd796101be60405180806020018381526020018281038252605d8152602001807f2f55736572732f73686f6b6973686f6b692f646576656c6f706d656e742f636f81526020017f6e73656e7379732f646973747269627574652f636f6e7472616374732f636f6e81526020017f7472616374732f6c6962726172792f504c4352566f74696e672e736f6c0000008152506060019250505060405180910390a17f121c1652d442e37b1b39ced56080e49236233ba8284899c84ffe036b9bfadebc605f60405180806020018381526020018281038252605d8152602001807f2f55736572732f73686f6b6973686f6b692f646576656c6f706d656e742f636f81526020017f6e73656e7379732f646973747269627574652f636f6e7472616374732f636f6e81526020017f7472616374732f6c6962726172792f504c4352566f74696e672e736f6c0000008152506060019250505060405180910390a18282604051808373ffffffffffffffffffffffffffffffffffffffff1673ffffffffffffffffffffffffffffffffffffffff166c01000000000000000000000000028152601401828152602001925050506040518091039020905092915050565b60007f1e7d90235f56fb862abf07c5e5c4e5301a8da7952c7a7fea768f8d6a845b6d5b601060405180806020018381526020018281038252605d8152602001807f2f55736572732f73686f6b6973686f6b692f646576656c6f706d656e742f636f81526020017f6e73656e7379732f646973747269627574652f636f6e7472616374732f636f6e81526020017f7472616374732f6c6962726172792f504c4352566f74696e672e736f6c0000008152506060019250505060405180910390a17f95940d274231f33edf1ae32982677e0b367f4321c9de1a9da1bdf8b1482dbd7961013d60405180806020018381526020018281038252605d8152602001807f2f55736572732f73686f6b6973686f6b692f646576656c6f706d656e742f636f81526020017f6e73656e7379732f646973747269627574652f636f6e7472616374732f636f6e81526020017f7472616374732f6c6962726172792f504c4352566f74696e672e736f6c0000008152506060019250505060405180910390a17f47baa91c7d2c9f62c85bf2003164496af8aa6ba0e4603c89a076c307bc87a358601e60405180806020018381526020018281038252605d8152602001807f2f55736572732f73686f6b6973686f6b692f646576656c6f706d656e742f636f81526020017f6e73656e7379732f646973747269627574652f636f6e7472616374732f636f6e81526020017f7472616374732f6c6962726172792f504c4352566f74696e672e736f6c0000008152506060019250505060405180910390a17f121c1652d442e37b1b39ced56080e49236233ba8284899c84ffe036b9bfadebc604360405180806020018381526020018281038252605d8152602001807f2f55736572732f73686f6b6973686f6b692f646576656c6f706d656e742f636f81526020017f6e73656e7379732f646973747269627574652f636f6e7472616374732f636f6e81526020017f7472616374732f6c6962726172792f504c4352566f74696e672e736f6c0000008152506060019250505060405180910390a1620093258262007b29565b15156200933157600080fd5b7fbb7b670aa0a63818e29bfe0731793ebdeb096d3098b99f2c633528f8fb7af241601e60405180806020018381526020018281038252605d8152602001807f2f55736572732f73686f6b6973686f6b692f646576656c6f706d656e742f636f81526020017f6e73656e7379732f646973747269627574652f636f6e7472616374732f636f6e81526020017f7472616374732f6c6962726172792f504c4352566f74696e672e736f6c0000008152506060019250505060405180910390a17f95940d274231f33edf1ae32982677e0b367f4321c9de1a9da1bdf8b1482dbd7961013f60405180806020018381526020018281038252605d8152602001807f2f55736572732f73686f6b6973686f6b692f646576656c6f706d656e742f636f81526020017f6e73656e7379732f646973747269627574652f636f6e7472616374732f636f6e81526020017f7472616374732f6c6962726172792f504c4352566f74696e672e736f6c0000008152506060019250505060405180910390a17f121c1652d442e37b1b39ced56080e49236233ba8284899c84ffe036b9bfadebc604460405180806020018381526020018281038252605d8152602001807f2f55736572732f73686f6b6973686f6b692f646576656c6f706d656e742f636f81526020017f6e73656e7379732f646973747269627574652f636f6e7472616374732f636f6e81526020017f7472616374732f6c6962726172792f504c4352566f74696e672e736f6c0000008152506060019250505060405180910390a16200958a60026000848152602001908152602001600020600001546200e72a565b159050919050565b60007f1e7d90235f56fb862abf07c5e5c4e5301a8da7952c7a7fea768f8d6a845b6d5b600160405180806020018381526020018281038252605d8152602001807f2f55736572732f73686f6b6973686f6b692f646576656c6f706d656e742f636f81526020017f6e73656e7379732f646973747269627574652f636f6e7472616374732f636f6e81526020017f7472616374732f6c6962726172792f504c4352566f74696e672e736f6c0000008152506060019250505060405180910390a17f95940d274231f33edf1ae32982677e0b367f4321c9de1a9da1bdf8b1482dbd79602f60405180806020018381526020018281038252605d8152602001807f2f55736572732f73686f6b6973686f6b692f646576656c6f706d656e742f636f81526020017f6e73656e7379732f646973747269627574652f636f6e7472616374732f636f6e81526020017f7472616374732f6c6962726172792f504c4352566f74696e672e736f6c0000008152506060019250505060405180910390a17f47baa91c7d2c9f62c85bf2003164496af8aa6ba0e4603c89a076c307bc87a358600160405180806020018381526020018281038252605d8152602001807f2f55736572732f73686f6b6973686f6b692f646576656c6f706d656e742f636f81526020017f6e73656e7379732f646973747269627574652f636f6e7472616374732f636f6e81526020017f7472616374732f6c6962726172792f504c4352566f74696e672e736f6c0000008152506060019250505060405180910390a17f121c1652d442e37b1b39ced56080e49236233ba8284899c84ffe036b9bfadebc600160405180806020018381526020018281038252605d8152602001807f2f55736572732f73686f6b6973686f6b692f646576656c6f706d656e742f636f81526020017f6e73656e7379732f646973747269627574652f636f6e7472616374732f636f6e81526020017f7472616374732f6c6962726172792f504c4352566f74696e672e736f6c0000008152506060019250505060405180910390a1600760009054906101000a900473ffffffffffffffffffffffffffffffffffffffff1673ffffffffffffffffffffffffffffffffffffffff163373ffffffffffffffffffffffffffffffffffffffff161480620099325750600660009054906101000a900473ffffffffffffffffffffffffffffffffffffffff1673ffffffffffffffffffffffffffffffffffffffff163373ffffffffffffffffffffffffffffffffffffffff16145b15156200993e57600080fd5b7fbb7b670aa0a63818e29bfe0731793ebdeb096d3098b99f2c633528f8fb7af241600160405180806020018381526020018281038252605d8152602001807f2f55736572732f73686f6b6973686f6b692f646576656c6f706d656e742f636f81526020017f6e73656e7379732f646973747269627574652f636f6e7472616374732f636f6e81526020017f7472616374732f6c6962726172792f504c4352566f74696e672e736f6c0000008152506060019250505060405180910390a17f95940d274231f33edf1ae32982677e0b367f4321c9de1a9da1bdf8b1482dbd79603060405180806020018381526020018281038252605d8152602001807f2f55736572732f73686f6b6973686f6b692f646576656c6f706d656e742f636f81526020017f6e73656e7379732f646973747269627574652f636f6e7472616374732f636f6e81526020017f7472616374732f6c6962726172792f504c4352566f74696e672e736f6c0000008152506060019250505060405180910390a17f1e7d90235f56fb862abf07c5e5c4e5301a8da7952c7a7fea768f8d6a845b6d5b600a60405180806020018381526020018281038252605d8152602001807f2f55736572732f73686f6b6973686f6b692f646576656c6f706d656e742f636f81526020017f6e73656e7379732f646973747269627574652f636f6e7472616374732f636f6e81526020017f7472616374732f6c6962726172792f504c4352566f74696e672e736f6c0000008152506060019250505060405180910390a17f95940d274231f33edf1ae32982677e0b367f4321c9de1a9da1bdf8b1482dbd7960cc60405180806020018381526020018281038252605d8152602001807f2f55736572732f73686f6b6973686f6b692f646576656c6f706d656e742f636f81526020017f6e73656e7379732f646973747269627574652f636f6e7472616374732f636f6e81526020017f7472616374732f6c6962726172792f504c4352566f74696e672e736f6c0000008152506060019250505060405180910390a17f47baa91c7d2c9f62c85bf2003164496af8aa6ba0e4603c89a076c307bc87a358601160405180806020018381526020018281038252605d8152602001807f2f55736572732f73686f6b6973686f6b692f646576656c6f706d656e742f636f81526020017f6e73656e7379732f646973747269627574652f636f6e7472616374732f636f6e81526020017f7472616374732f6c6962726172792f504c4352566f74696e672e736f6c0000008152506060019250505060405180910390a17f121c1652d442e37b1b39ced56080e49236233ba8284899c84ffe036b9bfadebc602660405180806020018381526020018281038252605d8152602001807f2f55736572732f73686f6b6973686f6b692f646576656c6f706d656e742f636f81526020017f6e73656e7379732f646973747269627574652f636f6e7472616374732f636f6e81526020017f7472616374732f6c6962726172792f504c4352566f74696e672e736f6c0000008152506060019250505060405180910390a162009db78462002190565b151562009dc357600080fd5b7fbb7b670aa0a63818e29bfe0731793ebdeb096d3098b99f2c633528f8fb7af241601160405180806020018381526020018281038252605d8152602001807f2f55736572732f73686f6b6973686f6b692f646576656c6f706d656e742f636f81526020017f6e73656e7379732f646973747269627574652f636f6e7472616374732f636f6e81526020017f7472616374732f6c6962726172792f504c4352566f74696e672e736f6c0000008152506060019250505060405180910390a17f95940d274231f33edf1ae32982677e0b367f4321c9de1a9da1bdf8b1482dbd7960cd60405180806020018381526020018281038252605d8152602001807f2f55736572732f73686f6b6973686f6b692f646576656c6f706d656e742f636f81526020017f6e73656e7379732f646973747269627574652f636f6e7472616374732f636f6e81526020017f7472616374732f6c6962726172792f504c4352566f74696e672e736f6c0000008152506060019250505060405180910390a17f47baa91c7d2c9f62c85bf2003164496af8aa6ba0e4603c89a076c307bc87a358601260405180806020018381526020018281038252605d8152602001807f2f55736572732f73686f6b6973686f6b692f646576656c6f706d656e742f636f81526020017f6e73656e7379732f646973747269627574652f636f6e7472616374732f636f6e81526020017f7472616374732f6c6962726172792f504c4352566f74696e672e736f6c0000008152506060019250505060405180910390a17f121c1652d442e37b1b39ced56080e49236233ba8284899c84ffe036b9bfadebc602760405180806020018381526020018281038252605d8152602001807f2f55736572732f73686f6b6973686f6b692f646576656c6f706d656e742f636f81526020017f6e73656e7379732f646973747269627574652f636f6e7472616374732f636f6e81526020017f7472616374732f6c6962726172792f504c4352566f74696e672e736f6c0000008152506060019250505060405180910390a16200a0c3338562006ba8565b1515156200a0d057600080fd5b7fbb7b670aa0a63818e29bfe0731793ebdeb096d3098b99f2c633528f8fb7af241601260405180806020018381526020018281038252605d8152602001807f2f55736572732f73686f6b6973686f6b692f646576656c6f706d656e742f636f81526020017f6e73656e7379732f646973747269627574652f636f6e7472616374732f636f6e81526020017f7472616374732f6c6962726172792f504c4352566f74696e672e736f6c0000008152506060019250505060405180910390a17f95940d274231f33edf1ae32982677e0b367f4321c9de1a9da1bdf8b1482dbd7960ce60405180806020018381526020018281038252605d8152602001807f2f55736572732f73686f6b6973686f6b692f646576656c6f706d656e742f636f81526020017f6e73656e7379732f646973747269627574652f636f6e7472616374732f636f6e81526020017f7472616374732f6c6962726172792f504c4352566f74696e672e736f6c0000008152506060019250505060405180910390a17f47baa91c7d2c9f62c85bf2003164496af8aa6ba0e4603c89a076c307bc87a358601360405180806020018381526020018281038252605d8152602001807f2f55736572732f73686f6b6973686f6b692f646576656c6f706d656e742f636f81526020017f6e73656e7379732f646973747269627574652f636f6e7472616374732f636f6e81526020017f7472616374732f6c6962726172792f504c4352566f74696e672e736f6c0000008152506060019250505060405180910390a17f121c1652d442e37b1b39ced56080e49236233ba8284899c84ffe036b9bfadebc602860405180806020018381526020018281038252605d8152602001807f2f55736572732f73686f6b6973686f6b692f646576656c6f706d656e742f636f81526020017f6e73656e7379732f646973747269627574652f636f6e7472616374732f636f6e81526020017f7472616374732f6c6962726172792f504c4352566f74696e672e736f6c0000008152506060019250505060405180910390a16200a3d033856200e3fe565b60001916838360405180838152602001828152602001925050506040518091039020600019161415156200a40357600080fd5b7fbb7b670aa0a63818e29bfe0731793ebdeb096d3098b99f2c633528f8fb7af241601360405180806020018381526020018281038252605d8152602001807f2f55736572732f73686f6b6973686f6b692f646576656c6f706d656e742f636f81526020017f6e73656e7379732f646973747269627574652f636f6e7472616374732f636f6e81526020017f7472616374732f6c6962726172792f504c4352566f74696e672e736f6c0000008152506060019250505060405180910390a17f95940d274231f33edf1ae32982677e0b367f4321c9de1a9da1bdf8b1482dbd7960d060405180806020018381526020018281038252605d8152602001807f2f55736572732f73686f6b6973686f6b692f646576656c6f706d656e742f636f81526020017f6e73656e7379732f646973747269627574652f636f6e7472616374732f636f6e81526020017f7472616374732f6c6962726172792f504c4352566f74696e672e736f6c0000008152506060019250505060405180910390a17f121c1652d442e37b1b39ced56080e49236233ba8284899c84ffe036b9bfadebc602960405180806020018381526020018281038252605d8152602001807f2f55736572732f73686f6b6973686f6b692f646576656c6f706d656e742f636f81526020017f6e73656e7379732f646973747269627574652f636f6e7472616374732f636f6e81526020017f7472616374732f6c6962726172792f504c4352566f74696e672e736f6c0000008152506060019250505060405180910390a16200a64633856200e0d5565b90507f95940d274231f33edf1ae32982677e0b367f4321c9de1a9da1bdf8b1482dbd7960d260405180806020018381526020018281038252605d8152602001807f2f55736572732f73686f6b6973686f6b692f646576656c6f706d656e742f636f81526020017f6e73656e7379732f646973747269627574652f636f6e7472616374732f636f6e81526020017f7472616374732f6c6962726172792f504c4352566f74696e672e736f6c0000008152506060019250505060405180910390a17f121c1652d442e37b1b39ced56080e49236233ba8284899c84ffe036b9bfadebc602a60405180806020018381526020018281038252605d8152602001807f2f55736572732f73686f6b6973686f6b692f646576656c6f706d656e742f636f81526020017f6e73656e7379732f646973747269627574652f636f6e7472616374732f636f6e81526020017f7472616374732f6c6962726172792f504c4352566f74696e672e736f6c0000008152506060019250505060405180910390a160018314156200aa36577f121c1652d442e37b1b39ced56080e49236233ba8284899c84ffe036b9bfadebc602b60405180806020018381526020018281038252605d8152602001807f2f55736572732f73686f6b6973686f6b692f646576656c6f706d656e742f636f81526020017f6e73656e7379732f646973747269627574652f636f6e7472616374732f636f6e81526020017f7472616374732f6c6962726172792f504c4352566f74696e672e736f6c0000008152506060019250505060405180910390a17f46bf101910e2537d67c0ff7a372742f790e01bb7eabae70d4ef1b754cd005bba6014600060405180806020018481526020018381526020018281038252605d8152602001807f2f55736572732f73686f6b6973686f6b692f646576656c6f706d656e742f636f81526020017f6e73656e7379732f646973747269627574652f636f6e7472616374732f636f6e81526020017f7472616374732f6c6962726172792f504c4352566f74696e672e736f6c000000815250606001935050505060405180910390a17f95940d274231f33edf1ae32982677e0b367f4321c9de1a9da1bdf8b1482dbd7960d360405180806020018381526020018281038252605d8152602001807f2f55736572732f73686f6b6973686f6b692f646576656c6f706d656e742f636f81526020017f6e73656e7379732f646973747269627574652f636f6e7472616374732f636f6e81526020017f7472616374732f6c6962726172792f504c4352566f74696e672e736f6c0000008152506060019250505060405180910390a18060026000868152602001908152602001600020600301600082825401925050819055506200ac9b565b7f121c1652d442e37b1b39ced56080e49236233ba8284899c84ffe036b9bfadebc602c60405180806020018381526020018281038252605d8152602001807f2f55736572732f73686f6b6973686f6b692f646576656c6f706d656e742f636f81526020017f6e73656e7379732f646973747269627574652f636f6e7472616374732f636f6e81526020017f7472616374732f6c6962726172792f504c4352566f74696e672e736f6c0000008152506060019250505060405180910390a17f46bf101910e2537d67c0ff7a372742f790e01bb7eabae70d4ef1b754cd005bba6014600160405180806020018481526020018381526020018281038252605d8152602001807f2f55736572732f73686f6b6973686f6b692f646576656c6f706d656e742f636f81526020017f6e73656e7379732f646973747269627574652f636f6e7472616374732f636f6e81526020017f7472616374732f6c6962726172792f504c4352566f74696e672e736f6c000000815250606001935050505060405180910390a17f95940d274231f33edf1ae32982677e0b367f4321c9de1a9da1bdf8b1482dbd7960d560405180806020018381526020018281038252605d8152602001807f2f55736572732f73686f6b6973686f6b692f646576656c6f706d656e742f636f81526020017f6e73656e7379732f646973747269627574652f636f6e7472616374732f636f6e81526020017f7472616374732f6c6962726172792f504c4352566f74696e672e736f6c0000008152506060019250505060405180910390a18060026000868152602001908152602001600020600401600082825401925050819055505b7f95940d274231f33edf1ae32982677e0b367f4321c9de1a9da1bdf8b1482dbd7960d760405180806020018381526020018281038252605d8152602001807f2f55736572732f73686f6b6973686f6b692f646576656c6f706d656e742f636f81526020017f6e73656e7379732f646973747269627574652f636f6e7472616374732f636f6e81526020017f7472616374732f6c6962726172792f504c4352566f74696e672e736f6c0000008152506060019250505060405180910390a1600460003373ffffffffffffffffffffffffffffffffffffffff1673ffffffffffffffffffffffffffffffffffffffff16815260200190815260200160002073__DLL___________________________________636d900ed09091866040518363ffffffff167c0100000000000000000000000000000000000000000000000000000000028152600401808381526020018281526020019250505060006040518083038186803b15156200ae0b57600080fd5b6102c65a03f415156200ae1d57600080fd5b5050507f95940d274231f33edf1ae32982677e0b367f4321c9de1a9da1bdf8b1482dbd7960d960405180806020018381526020018281038252605d8152602001807f2f55736572732f73686f6b6973686f6b692f646576656c6f706d656e742f636f81526020017f6e73656e7379732f646973747269627574652f636f6e7472616374732f636f6e81526020017f7472616374732f6c6962726172792f504c4352566f74696e672e736f6c0000008152506060019250505060405180910390a17f121c1652d442e37b1b39ced56080e49236233ba8284899c84ffe036b9bfadebc602d60405180806020018381526020018281038252605d8152602001807f2f55736572732f73686f6b6973686f6b692f646576656c6f706d656e742f636f81526020017f6e73656e7379732f646973747269627574652f636f6e7472616374732f636f6e81526020017f7472616374732f6c6962726172792f504c4352566f74696e672e736f6c0000008152506060019250505060405180910390a17f7f9df012dd015e7e61a4a17ccf8db7fb6afbe211465b5696368d1d6408d0331133858386604051808573ffffffffffffffffffffffffffffffffffffffff1673ffffffffffffffffffffffffffffffffffffffff16815260200184815260200183815260200182815260200194505050505060405180910390a150505050565b6000806000807f1e7d90235f56fb862abf07c5e5c4e5301a8da7952c7a7fea768f8d6a845b6d5b600b60405180806020018381526020018281038252605d8152602001807f2f55736572732f73686f6b6973686f6b692f646576656c6f706d656e742f636f81526020017f6e73656e7379732f646973747269627574652f636f6e7472616374732f636f6e81526020017f7472616374732f6c6962726172792f504c4352566f74696e672e736f6c0000008152506060019250505060405180910390a17f95940d274231f33edf1ae32982677e0b367f4321c9de1a9da1bdf8b1482dbd7960e660405180806020018381526020018281038252605d8152602001807f2f55736572732f73686f6b6973686f6b692f646576656c6f706d656e742f636f81526020017f6e73656e7379732f646973747269627574652f636f6e7472616374732f636f6e81526020017f7472616374732f6c6962726172792f504c4352566f74696e672e736f6c0000008152506060019250505060405180910390a17f47baa91c7d2c9f62c85bf2003164496af8aa6ba0e4603c89a076c307bc87a358601560405180806020018381526020018281038252605d8152602001807f2f55736572732f73686f6b6973686f6b692f646576656c6f706d656e742f636f81526020017f6e73656e7379732f646973747269627574652f636f6e7472616374732f636f6e81526020017f7472616374732f6c6962726172792f504c4352566f74696e672e736f6c0000008152506060019250505060405180910390a17f121c1652d442e37b1b39ced56080e49236233ba8284899c84ffe036b9bfadebc602e60405180806020018381526020018281038252605d8152602001807f2f55736572732f73686f6b6973686f6b692f646576656c6f706d656e742f636f81526020017f6e73656e7379732f646973747269627574652f636f6e7472616374732f636f6e81526020017f7472616374732f6c6962726172792f504c4352566f74696e672e736f6c0000008152506060019250505060405180910390a16200b320866200e96e565b15156200b32c57600080fd5b7fbb7b670aa0a63818e29bfe0731793ebdeb096d3098b99f2c633528f8fb7af241601560405180806020018381526020018281038252605d8152602001807f2f55736572732f73686f6b6973686f6b692f646576656c6f706d656e742f636f81526020017f6e73656e7379732f646973747269627574652f636f6e7472616374732f636f6e81526020017f7472616374732f6c6962726172792f504c4352566f74696e672e736f6c0000008152506060019250505060405180910390a17f95940d274231f33edf1ae32982677e0b367f4321c9de1a9da1bdf8b1482dbd7960e760405180806020018381526020018281038252605d8152602001807f2f55736572732f73686f6b6973686f6b692f646576656c6f706d656e742f636f81526020017f6e73656e7379732f646973747269627574652f636f6e7472616374732f636f6e81526020017f7472616374732f6c6962726172792f504c4352566f74696e672e736f6c0000008152506060019250505060405180910390a17f47baa91c7d2c9f62c85bf2003164496af8aa6ba0e4603c89a076c307bc87a358601660405180806020018381526020018281038252605d8152602001807f2f55736572732f73686f6b6973686f6b692f646576656c6f706d656e742f636f81526020017f6e73656e7379732f646973747269627574652f636f6e7472616374732f636f6e81526020017f7472616374732f6c6962726172792f504c4352566f74696e672e736f6c0000008152506060019250505060405180910390a17f121c1652d442e37b1b39ced56080e49236233ba8284899c84ffe036b9bfadebc602f60405180806020018381526020018281038252605d8152602001807f2f55736572732f73686f6b6973686f6b692f646576656c6f706d656e742f636f81526020017f6e73656e7379732f646973747269627574652f636f6e7472616374732f636f6e81526020017f7472616374732f6c6962726172792f504c4352566f74696e672e736f6c0000008152506060019250505060405180910390a16200b62c878762006ba8565b15156200b63857600080fd5b7fbb7b670aa0a63818e29bfe0731793ebdeb096d3098b99f2c633528f8fb7af241601660405180806020018381526020018281038252605d8152602001807f2f55736572732f73686f6b6973686f6b692f646576656c6f706d656e742f636f81526020017f6e73656e7379732f646973747269627574652f636f6e7472616374732f636f6e81526020017f7472616374732f6c6962726172792f504c4352566f74696e672e736f6c0000008152506060019250505060405180910390a17f95940d274231f33edf1ae32982677e0b367f4321c9de1a9da1bdf8b1482dbd7960e860405180806020018381526020018281038252605d8152602001807f2f55736572732f73686f6b6973686f6b692f646576656c6f706d656e742f636f81526020017f6e73656e7379732f646973747269627574652f636f6e7472616374732f636f6e81526020017f7472616374732f6c6962726172792f504c4352566f74696e672e736f6c0000008152506060019250505060405180910390a17f121c1652d442e37b1b39ced56080e49236233ba8284899c84ffe036b9bfadebc603060405180806020018381526020018281038252605d8152602001807f2f55736572732f73686f6b6973686f6b692f646576656c6f706d656e742f636f81526020017f6e73656e7379732f646973747269627574652f636f6e7472616374732f636f6e81526020017f7472616374732f6c6962726172792f504c4352566f74696e672e736f6c0000008152506060019250505060405180910390a16200b87a8662002714565b6200b950577f46bf101910e2537d67c0ff7a372742f790e01bb7eabae70d4ef1b754cd005bba6017600160405180806020018481526020018381526020018281038252605d8152602001807f2f55736572732f73686f6b6973686f6b692f646576656c6f706d656e742f636f81526020017f6e73656e7379732f646973747269627574652f636f6e7472616374732f636f6e81526020017f7472616374732f6c6962726172792f504c4352566f74696e672e736f6c000000815250606001935050505060405180910390a160008090506200ba1c565b7f46bf101910e2537d67c0ff7a372742f790e01bb7eabae70d4ef1b754cd005bba6017600060405180806020018481526020018381526020018281038252605d8152602001807f2f55736572732f73686f6b6973686f6b692f646576656c6f706d656e742f636f81526020017f6e73656e7379732f646973747269627574652f636f6e7472616374732f636f6e81526020017f7472616374732f6c6962726172792f504c4352566f74696e672e736f6c000000815250606001935050505060405180910390a160018090505b8060ff169050809350507f95940d274231f33edf1ae32982677e0b367f4321c9de1a9da1bdf8b1482dbd7960e960405180806020018381526020018281038252605d8152602001807f2f55736572732f73686f6b6973686f6b692f646576656c6f706d656e742f636f81526020017f6e73656e7379732f646973747269627574652f636f6e7472616374732f636f6e81526020017f7472616374732f6c6962726172792f504c4352566f74696e672e736f6c0000008152506060019250505060405180910390a17f121c1652d442e37b1b39ced56080e49236233ba8284899c84ffe036b9bfadebc603160405180806020018381526020018281038252605d8152602001807f2f55736572732f73686f6b6973686f6b692f646576656c6f706d656e742f636f81526020017f6e73656e7379732f646973747269627574652f636f6e7472616374732f636f6e81526020017f7472616374732f6c6962726172792f504c4352566f74696e672e736f6c0000008152506060019250505060405180910390a182856040518083815260200182815260200192505050604051809103902091507f95940d274231f33edf1ae32982677e0b367f4321c9de1a9da1bdf8b1482dbd7960ea60405180806020018381526020018281038252605d8152602001807f2f55736572732f73686f6b6973686f6b692f646576656c6f706d656e742f636f81526020017f6e73656e7379732f646973747269627574652f636f6e7472616374732f636f6e81526020017f7472616374732f6c6962726172792f504c4352566f74696e672e736f6c0000008152506060019250505060405180910390a17f121c1652d442e37b1b39ced56080e49236233ba8284899c84ffe036b9bfadebc603260405180806020018381526020018281038252605d8152602001807f2f55736572732f73686f6b6973686f6b692f646576656c6f706d656e742f636f81526020017f6e73656e7379732f646973747269627574652f636f6e7472616374732f636f6e81526020017f7472616374732f6c6962726172792f504c4352566f74696e672e736f6c0000008152506060019250505060405180910390a16200bd4687876200e3fe565b90507f95940d274231f33edf1ae32982677e0b367f4321c9de1a9da1bdf8b1482dbd7960ec60405180806020018381526020018281038252605d8152602001807f2f55736572732f73686f6b6973686f6b692f646576656c6f706d656e742f636f81526020017f6e73656e7379732f646973747269627574652f636f6e7472616374732f636f6e81526020017f7472616374732f6c6962726172792f504c4352566f74696e672e736f6c0000008152506060019250505060405180910390a17f121c1652d442e37b1b39ced56080e49236233ba8284899c84ffe036b9bfadebc603360405180806020018381526020018281038252605d8152602001807f2f55736572732f73686f6b6973686f6b692f646576656c6f706d656e742f636f81526020017f6e73656e7379732f646973747269627574652f636f6e7472616374732f636f6e81526020017f7472616374732f6c6962726172792f504c4352566f74696e672e736f6c0000008152506060019250505060405180910390a180600019168260001916146200beda5760006200bee7565b6200bee687876200e0d5565b5b93505050509392505050565b7f1e7d90235f56fb862abf07c5e5c4e5301a8da7952c7a7fea768f8d6a845b6d5b600160405180806020018381526020018281038252605d8152602001807f2f55736572732f73686f6b6973686f6b692f646576656c6f706d656e742f636f81526020017f6e73656e7379732f646973747269627574652f636f6e7472616374732f636f6e81526020017f7472616374732f6c6962726172792f504c4352566f74696e672e736f6c0000008152506060019250505060405180910390a17f95940d274231f33edf1ae32982677e0b367f4321c9de1a9da1bdf8b1482dbd79602f60405180806020018381526020018281038252605d8152602001807f2f55736572732f73686f6b6973686f6b692f646576656c6f706d656e742f636f81526020017f6e73656e7379732f646973747269627574652f636f6e7472616374732f636f6e81526020017f7472616374732f6c6962726172792f504c4352566f74696e672e736f6c0000008152506060019250505060405180910390a17f47baa91c7d2c9f62c85bf2003164496af8aa6ba0e4603c89a076c307bc87a358600160405180806020018381526020018281038252605d8152602001807f2f55736572732f73686f6b6973686f6b692f646576656c6f706d656e742f636f81526020017f6e73656e7379732f646973747269627574652f636f6e7472616374732f636f6e81526020017f7472616374732f6c6962726172792f504c4352566f74696e672e736f6c0000008152506060019250505060405180910390a17f121c1652d442e37b1b39ced56080e49236233ba8284899c84ffe036b9bfadebc600160405180806020018381526020018281038252605d8152602001807f2f55736572732f73686f6b6973686f6b692f646576656c6f706d656e742f636f81526020017f6e73656e7379732f646973747269627574652f636f6e7472616374732f636f6e81526020017f7472616374732f6c6962726172792f504c4352566f74696e672e736f6c0000008152506060019250505060405180910390a1600760009054906101000a900473ffffffffffffffffffffffffffffffffffffffff1673ffffffffffffffffffffffffffffffffffffffff163373ffffffffffffffffffffffffffffffffffffffff1614806200c2915750600660009054906101000a900473ffffffffffffffffffffffffffffffffffffffff1673ffffffffffffffffffffffffffffffffffffffff163373ffffffffffffffffffffffffffffffffffffffff16145b15156200c29d57600080fd5b7fbb7b670aa0a63818e29bfe0731793ebdeb096d3098b99f2c633528f8fb7af241600160405180806020018381526020018281038252605d8152602001807f2f55736572732f73686f6b6973686f6b692f646576656c6f706d656e742f636f81526020017f6e73656e7379732f646973747269627574652f636f6e7472616374732f636f6e81526020017f7472616374732f6c6962726172792f504c4352566f74696e672e736f6c0000008152506060019250505060405180910390a17f95940d274231f33edf1ae32982677e0b367f4321c9de1a9da1bdf8b1482dbd79603060405180806020018381526020018281038252605d8152602001807f2f55736572732f73686f6b6973686f6b692f646576656c6f706d656e742f636f81526020017f6e73656e7379732f646973747269627574652f636f6e7472616374732f636f6e81526020017f7472616374732f6c6962726172792f504c4352566f74696e672e736f6c0000008152506060019250505060405180910390a17f1e7d90235f56fb862abf07c5e5c4e5301a8da7952c7a7fea768f8d6a845b6d5b600560405180806020018381526020018281038252605d8152602001807f2f55736572732f73686f6b6973686f6b692f646576656c6f706d656e742f636f81526020017f6e73656e7379732f646973747269627574652f636f6e7472616374732f636f6e81526020017f7472616374732f6c6962726172792f504c4352566f74696e672e736f6c0000008152506060019250505060405180910390a17f95940d274231f33edf1ae32982677e0b367f4321c9de1a9da1bdf8b1482dbd79606160405180806020018381526020018281038252605d8152602001807f2f55736572732f73686f6b6973686f6b692f646576656c6f706d656e742f636f81526020017f6e73656e7379732f646973747269627574652f636f6e7472616374732f636f6e81526020017f7472616374732f6c6962726172792f504c4352566f74696e672e736f6c0000008152506060019250505060405180910390a17f121c1652d442e37b1b39ced56080e49236233ba8284899c84ffe036b9bfadebc600860405180806020018381526020018281038252605d8152602001807f2f55736572732f73686f6b6973686f6b692f646576656c6f706d656e742f636f81526020017f6e73656e7379732f646973747269627574652f636f6e7472616374732f636f6e81526020017f7472616374732f6c6962726172792f504c4352566f74696e672e736f6c0000008152506060019250505060405180910390a1600660009054906101000a900473ffffffffffffffffffffffffffffffffffffffff1673ffffffffffffffffffffffffffffffffffffffff163373ffffffffffffffffffffffffffffffffffffffff1614156200cb1c577f46bf101910e2537d67c0ff7a372742f790e01bb7eabae70d4ef1b754cd005bba6003600060405180806020018481526020018381526020018281038252605d8152602001807f2f55736572732f73686f6b6973686f6b692f646576656c6f706d656e742f636f81526020017f6e73656e7379732f646973747269627574652f636f6e7472616374732f636f6e81526020017f7472616374732f6c6962726172792f504c4352566f74696e672e736f6c000000815250606001935050505060405180910390a17f95940d274231f33edf1ae32982677e0b367f4321c9de1a9da1bdf8b1482dbd79606260405180806020018381526020018281038252605d8152602001807f2f55736572732f73686f6b6973686f6b692f646576656c6f706d656e742f636f81526020017f6e73656e7379732f646973747269627574652f636f6e7472616374732f636f6e81526020017f7472616374732f6c6962726172792f504c4352566f74696e672e736f6c0000008152506060019250505060405180910390a17f121c1652d442e37b1b39ced56080e49236233ba8284899c84ffe036b9bfadebc600960405180806020018381526020018281038252605d8152602001807f2f55736572732f73686f6b6973686f6b692f646576656c6f706d656e742f636f81526020017f6e73656e7379732f646973747269627574652f636f6e7472616374732f636f6e81526020017f7472616374732f6c6962726172792f504c4352566f74696e672e736f6c0000008152506060019250505060405180910390a1806000808473ffffffffffffffffffffffffffffffffffffffff1673ffffffffffffffffffffffffffffffffffffffff168152602001908152602001600020600082825401925050819055507f95940d274231f33edf1ae32982677e0b367f4321c9de1a9da1bdf8b1482dbd79606360405180806020018381526020018281038252605d8152602001807f2f55736572732f73686f6b6973686f6b692f646576656c6f706d656e742f636f81526020017f6e73656e7379732f646973747269627574652f636f6e7472616374732f636f6e81526020017f7472616374732f6c6962726172792f504c4352566f74696e672e736f6c0000008152506060019250505060405180910390a17f121c1652d442e37b1b39ced56080e49236233ba8284899c84ffe036b9bfadebc600a60405180806020018381526020018281038252605d8152602001807f2f55736572732f73686f6b6973686f6b692f646576656c6f706d656e742f636f81526020017f6e73656e7379732f646973747269627574652f636f6e7472616374732f636f6e81526020017f7472616374732f6c6962726172792f504c4352566f74696e672e736f6c0000008152506060019250505060405180910390a17f4bdec44a53feb3aabedf51c989ff2b6aebe7369d3974f57c304758a8537281e18282604051808373ffffffffffffffffffffffffffffffffffffffff1673ffffffffffffffffffffffffffffffffffffffff1681526020018281526020019250505060405180910390a16200d236565b7f121c1652d442e37b1b39ced56080e49236233ba8284899c84ffe036b9bfadebc600b60405180806020018381526020018281038252605d8152602001807f2f55736572732f73686f6b6973686f6b692f646576656c6f706d656e742f636f81526020017f6e73656e7379732f646973747269627574652f636f6e7472616374732f636f6e81526020017f7472616374732f6c6962726172792f504c4352566f74696e672e736f6c0000008152506060019250505060405180910390a17f46bf101910e2537d67c0ff7a372742f790e01bb7eabae70d4ef1b754cd005bba6003600160405180806020018481526020018381526020018281038252605d8152602001807f2f55736572732f73686f6b6973686f6b692f646576656c6f706d656e742f636f81526020017f6e73656e7379732f646973747269627574652f636f6e7472616374732f636f6e81526020017f7472616374732f6c6962726172792f504c4352566f74696e672e736f6c000000815250606001935050505060405180910390a1600760009054906101000a900473ffffffffffffffffffffffffffffffffffffffff1673ffffffffffffffffffffffffffffffffffffffff163373ffffffffffffffffffffffffffffffffffffffff1614156200d16e577f46bf101910e2537d67c0ff7a372742f790e01bb7eabae70d4ef1b754cd005bba6004600060405180806020018481526020018381526020018281038252605d8152602001807f2f55736572732f73686f6b6973686f6b692f646576656c6f706d656e742f636f81526020017f6e73656e7379732f646973747269627574652f636f6e7472616374732f636f6e81526020017f7472616374732f6c6962726172792f504c4352566f74696e672e736f6c000000815250606001935050505060405180910390a17f95940d274231f33edf1ae32982677e0b367f4321c9de1a9da1bdf8b1482dbd79606560405180806020018381526020018281038252605d8152602001807f2f55736572732f73686f6b6973686f6b692f646576656c6f706d656e742f636f81526020017f6e73656e7379732f646973747269627574652f636f6e7472616374732f636f6e81526020017f7472616374732f6c6962726172792f504c4352566f74696e672e736f6c0000008152506060019250505060405180910390a17f121c1652d442e37b1b39ced56080e49236233ba8284899c84ffe036b9bfadebc600c60405180806020018381526020018281038252605d8152602001807f2f55736572732f73686f6b6973686f6b692f646576656c6f706d656e742f636f81526020017f6e73656e7379732f646973747269627574652f636f6e7472616374732f636f6e81526020017f7472616374732f6c6962726172792f504c4352566f74696e672e736f6c0000008152506060019250505060405180910390a180600160008473ffffffffffffffffffffffffffffffffffffffff1673ffffffffffffffffffffffffffffffffffffffff168152602001908152602001600020600082825401925050819055507f95940d274231f33edf1ae32982677e0b367f4321c9de1a9da1bdf8b1482dbd79606660405180806020018381526020018281038252605d8152602001807f2f55736572732f73686f6b6973686f6b692f646576656c6f706d656e742f636f81526020017f6e73656e7379732f646973747269627574652f636f6e7472616374732f636f6e81526020017f7472616374732f6c6962726172792f504c4352566f74696e672e736f6c0000008152506060019250505060405180910390a17f121c1652d442e37b1b39ced56080e49236233ba8284899c84ffe036b9bfadebc600d60405180806020018381526020018281038252605d8152602001807f2f55736572732f73686f6b6973686f6b692f646576656c6f706d656e742f636f81526020017f6e73656e7379732f646973747269627574652f636f6e7472616374732f636f6e81526020017f7472616374732f6c6962726172792f504c4352566f74696e672e736f6c0000008152506060019250505060405180910390a17f4bdec44a53feb3aabedf51c989ff2b6aebe7369d3974f57c304758a8537281e18282604051808373ffffffffffffffffffffffffffffffffffffffff1673ffffffffffffffffffffffffffffffffffffffff1681526020018281526020019250505060405180910390a16200d235565b7f46bf101910e2537d67c0ff7a372742f790e01bb7eabae70d4ef1b754cd005bba6004600160405180806020018481526020018381526020018281038252605d8152602001807f2f55736572732f73686f6b6973686f6b692f646576656c6f706d656e742f636f81526020017f6e73656e7379732f646973747269627574652f636f6e7472616374732f636f6e81526020017f7472616374732f6c6962726172792f504c4352566f74696e672e736f6c000000815250606001935050505060405180910390a15b5b5050565b60008060007f1e7d90235f56fb862abf07c5e5c4e5301a8da7952c7a7fea768f8d6a845b6d5b601860405180806020018381526020018281038252605d8152602001807f2f55736572732f73686f6b6973686f6b692f646576656c6f706d656e742f636f81526020017f6e73656e7379732f646973747269627574652f636f6e7472616374732f636f6e81526020017f7472616374732f6c6962726172792f504c4352566f74696e672e736f6c0000008152506060019250505060405180910390a17f95940d274231f33edf1ae32982677e0b367f4321c9de1a9da1bdf8b1482dbd796101a060405180806020018381526020018281038252605d8152602001807f2f55736572732f73686f6b6973686f6b692f646576656c6f706d656e742f636f81526020017f6e73656e7379732f646973747269627574652f636f6e7472616374732f636f6e81526020017f7472616374732f6c6962726172792f504c4352566f74696e672e736f6c0000008152506060019250505060405180910390a17f121c1652d442e37b1b39ced56080e49236233ba8284899c84ffe036b9bfadebc605660405180806020018381526020018281038252605d8152602001807f2f55736572732f73686f6b6973686f6b692f646576656c6f706d656e742f636f81526020017f6e73656e7379732f646973747269627574652f636f6e7472616374732f636f6e81526020017f7472616374732f6c6962726172792f504c4352566f74696e672e736f6c0000008152506060019250505060405180910390a16200d4828562001e77565b91507f95940d274231f33edf1ae32982677e0b367f4321c9de1a9da1bdf8b1482dbd796101a160405180806020018381526020018281038252605d8152602001807f2f55736572732f73686f6b6973686f6b692f646576656c6f706d656e742f636f81526020017f6e73656e7379732f646973747269627574652f636f6e7472616374732f636f6e81526020017f7472616374732f6c6962726172792f504c4352566f74696e672e736f6c0000008152506060019250505060405180910390a17f121c1652d442e37b1b39ced56080e49236233ba8284899c84ffe036b9bfadebc605760405180806020018381526020018281038252605d8152602001807f2f55736572732f73686f6b6973686f6b692f646576656c6f706d656e742f636f81526020017f6e73656e7379732f646973747269627574652f636f6e7472616374732f636f6e81526020017f7472616374732f6c6962726172792f504c4352566f74696e672e736f6c0000008152506060019250505060405180910390a16200d60b85836200e0d5565b90507f95940d274231f33edf1ae32982677e0b367f4321c9de1a9da1bdf8b1482dbd796101a360405180806020018381526020018281038252605d8152602001807f2f55736572732f73686f6b6973686f6b692f646576656c6f706d656e742f636f81526020017f6e73656e7379732f646973747269627574652f636f6e7472616374732f636f6e81526020017f7472616374732f6c6962726172792f504c4352566f74696e672e736f6c0000008152506060019250505060405180910390a17f121c1652d442e37b1b39ced56080e49236233ba8284899c84ffe036b9bfadebc605860405180806020018381526020018281038252605d8152602001807f2f55736572732f73686f6b6973686f6b692f646576656c6f706d656e742f636f81526020017f6e73656e7379732f646973747269627574652f636f6e7472616374732f636f6e81526020017f7472616374732f6c6962726172792f504c4352566f74696e672e736f6c0000008152506060019250505060405180910390a15b6000811415156200df4e577f95940d274231f33edf1ae32982677e0b367f4321c9de1a9da1bdf8b1482dbd796101a460405180806020018381526020018281038252605d8152602001807f2f55736572732f73686f6b6973686f6b692f646576656c6f706d656e742f636f81526020017f6e73656e7379732f646973747269627574652f636f6e7472616374732f636f6e81526020017f7472616374732f6c6962726172792f504c4352566f74696e672e736f6c0000008152506060019250505060405180910390a17f121c1652d442e37b1b39ced56080e49236233ba8284899c84ffe036b9bfadebc605960405180806020018381526020018281038252605d8152602001807f2f55736572732f73686f6b6973686f6b692f646576656c6f706d656e742f636f81526020017f6e73656e7379732f646973747269627574652f636f6e7472616374732f636f6e81526020017f7472616374732f6c6962726172792f504c4352566f74696e672e736f6c0000008152506060019250505060405180910390a16200d91b85836200e0d5565b90507f95940d274231f33edf1ae32982677e0b367f4321c9de1a9da1bdf8b1482dbd796101a560405180806020018381526020018281038252605d8152602001807f2f55736572732f73686f6b6973686f6b692f646576656c6f706d656e742f636f81526020017f6e73656e7379732f646973747269627574652f636f6e7472616374732f636f6e81526020017f7472616374732f6c6962726172792f504c4352566f74696e672e736f6c0000008152506060019250505060405180910390a17f121c1652d442e37b1b39ced56080e49236233ba8284899c84ffe036b9bfadebc605a60405180806020018381526020018281038252605d8152602001807f2f55736572732f73686f6b6973686f6b692f646576656c6f706d656e742f636f81526020017f6e73656e7379732f646973747269627574652f636f6e7472616374732f636f6e81526020017f7472616374732f6c6962726172792f504c4352566f74696e672e736f6c0000008152506060019250505060405180910390a1838110156200dc2d577f46bf101910e2537d67c0ff7a372742f790e01bb7eabae70d4ef1b754cd005bba6024600060405180806020018481526020018381526020018281038252605d8152602001807f2f55736572732f73686f6b6973686f6b692f646576656c6f706d656e742f636f81526020017f6e73656e7379732f646973747269627574652f636f6e7472616374732f636f6e81526020017f7472616374732f6c6962726172792f504c4352566f74696e672e736f6c000000815250606001935050505060405180910390a17f121c1652d442e37b1b39ced56080e49236233ba8284899c84ffe036b9bfadebc605b60405180806020018381526020018281038252605d8152602001807f2f55736572732f73686f6b6973686f6b692f646576656c6f706d656e742f636f81526020017f6e73656e7379732f646973747269627574652f636f6e7472616374732f636f6e81526020017f7472616374732f6c6962726172792f504c4352566f74696e672e736f6c0000008152506060019250505060405180910390a18192506200e0cd565b7f46bf101910e2537d67c0ff7a372742f790e01bb7eabae70d4ef1b754cd005bba6024600160405180806020018481526020018381526020018281038252605d8152602001807f2f55736572732f73686f6b6973686f6b692f646576656c6f706d656e742f636f81526020017f6e73656e7379732f646973747269627574652f636f6e7472616374732f636f6e81526020017f7472616374732f6c6962726172792f504c4352566f74696e672e736f6c000000815250606001935050505060405180910390a17f95940d274231f33edf1ae32982677e0b367f4321c9de1a9da1bdf8b1482dbd796101a660405180806020018381526020018281038252605d8152602001807f2f55736572732f73686f6b6973686f6b692f646576656c6f706d656e742f636f81526020017f6e73656e7379732f646973747269627574652f636f6e7472616374732f636f6e81526020017f7472616374732f6c6962726172792f504c4352566f74696e672e736f6c0000008152506060019250505060405180910390a17f121c1652d442e37b1b39ced56080e49236233ba8284899c84ffe036b9bfadebc605c60405180806020018381526020018281038252605d8152602001807f2f55736572732f73686f6b6973686f6b692f646576656c6f706d656e742f636f81526020017f6e73656e7379732f646973747269627574652f636f6e7472616374732f636f6e81526020017f7472616374732f6c6962726172792f504c4352566f74696e672e736f6c0000008152506060019250505060405180910390a1600460008673ffffffffffffffffffffffffffffffffffffffff1673ffffffffffffffffffffffffffffffffffffffff16815260200190815260200160002073__DLL___________________________________6330fe0a0a9091846000604051602001526040518363ffffffff167c0100000000000000000000000000000000000000000000000000000000028152600401808381526020018281526020019250505060206040518083038186803b15156200df2a57600080fd5b6102c65a03f415156200df3c57600080fd5b5050506040518051905091506200d789565b7f95940d274231f33edf1ae32982677e0b367f4321c9de1a9da1bdf8b1482dbd796101a860405180806020018381526020018281038252605d8152602001807f2f55736572732f73686f6b6973686f6b692f646576656c6f706d656e742f636f81526020017f6e73656e7379732f646973747269627574652f636f6e7472616374732f636f6e81526020017f7472616374732f6c6962726172792f504c4352566f74696e672e736f6c0000008152506060019250505060405180910390a17f121c1652d442e37b1b39ced56080e49236233ba8284899c84ffe036b9bfadebc605d60405180806020018381526020018281038252605d8152602001807f2f55736572732f73686f6b6973686f6b692f646576656c6f706d656e742f636f81526020017f6e73656e7379732f646973747269627574652f636f6e7472616374732f636f6e81526020017f7472616374732f6c6962726172792f504c4352566f74696e672e736f6c0000008152506060019250505060405180910390a18192505b505092915050565b60007f1e7d90235f56fb862abf07c5e5c4e5301a8da7952c7a7fea768f8d6a845b6d5b601560405180806020018381526020018281038252605d8152602001807f2f55736572732f73686f6b6973686f6b692f646576656c6f706d656e742f636f81526020017f6e73656e7379732f646973747269627574652f636f6e7472616374732f636f6e81526020017f7472616374732f6c6962726172792f504c4352566f74696e672e736f6c0000008152506060019250505060405180910390a17f95940d274231f33edf1ae32982677e0b367f4321c9de1a9da1bdf8b1482dbd7961018160405180806020018381526020018281038252605d8152602001807f2f55736572732f73686f6b6973686f6b692f646576656c6f706d656e742f636f81526020017f6e73656e7379732f646973747269627574652f636f6e7472616374732f636f6e81526020017f7472616374732f6c6962726172792f504c4352566f74696e672e736f6c0000008152506060019250505060405180910390a17f121c1652d442e37b1b39ced56080e49236233ba8284899c84ffe036b9bfadebc605360405180806020018381526020018281038252605d8152602001807f2f55736572732f73686f6b6973686f6b692f646576656c6f706d656e742f636f81526020017f6e73656e7379732f646973747269627574652f636f6e7472616374732f636f6e81526020017f7472616374732f6c6962726172792f504c4352566f74696e672e736f6c0000008152506060019250505060405180910390a1600573__AttributeStore________________________6350389f5c90916200e339868662008d88565b6000604051602001526040518363ffffffff167c010000000000000000000000000000000000000000000000000000000002815260040180838152602001826000191660001916815260200180602001828103825260098152602001807f6e756d546f6b656e730000000000000000000000000000000000000000000000815250602001935050505060206040518083038186803b15156200e3da57600080fd5b6102c65a03f415156200e3ec57600080fd5b50505060405180519050905092915050565b60007f1e7d90235f56fb862abf07c5e5c4e5301a8da7952c7a7fea768f8d6a845b6d5b601460405180806020018381526020018281038252605d8152602001807f2f55736572732f73686f6b6973686f6b692f646576656c6f706d656e742f636f81526020017f6e73656e7379732f646973747269627574652f636f6e7472616374732f636f6e81526020017f7472616374732f6c6962726172792f504c4352566f74696e672e736f6c0000008152506060019250505060405180910390a17f95940d274231f33edf1ae32982677e0b367f4321c9de1a9da1bdf8b1482dbd7961017760405180806020018381526020018281038252605d8152602001807f2f55736572732f73686f6b6973686f6b692f646576656c6f706d656e742f636f81526020017f6e73656e7379732f646973747269627574652f636f6e7472616374732f636f6e81526020017f7472616374732f6c6962726172792f504c4352566f74696e672e736f6c0000008152506060019250505060405180910390a17f121c1652d442e37b1b39ced56080e49236233ba8284899c84ffe036b9bfadebc605260405180806020018381526020018281038252605d8152602001807f2f55736572732f73686f6b6973686f6b692f646576656c6f706d656e742f636f81526020017f6e73656e7379732f646973747269627574652f636f6e7472616374732f636f6e81526020017f7472616374732f6c6962726172792f504c4352566f74696e672e736f6c0000008152506060019250505060405180910390a1600573__AttributeStore________________________6350389f5c90916200e662868662008d88565b6000604051602001526040518363ffffffff167c0100000000000000000000000000000000000000000000000000000000028152600401808381526020018260001916600019168152602001806020018281038252600a8152602001807f636f6d6d69744861736800000000000000000000000000000000000000000000815250602001935050505060206040518083038186803b15156200e70357600080fd5b6102c65a03f415156200e71557600080fd5b50505060405180519050600102905092915050565b60007f1e7d90235f56fb862abf07c5e5c4e5301a8da7952c7a7fea768f8d6a845b6d5b601960405180806020018381526020018281038252605d8152602001807f2f55736572732f73686f6b6973686f6b692f646576656c6f706d656e742f636f81526020017f6e73656e7379732f646973747269627574652f636f6e7472616374732f636f6e81526020017f7472616374732f6c6962726172792f504c4352566f74696e672e736f6c0000008152506060019250505060405180910390a17f95940d274231f33edf1ae32982677e0b367f4321c9de1a9da1bdf8b1482dbd796101b560405180806020018381526020018281038252605d8152602001807f2f55736572732f73686f6b6973686f6b692f646576656c6f706d656e742f636f81526020017f6e73656e7379732f646973747269627574652f636f6e7472616374732f636f6e81526020017f7472616374732f6c6962726172792f504c4352566f74696e672e736f6c0000008152506060019250505060405180910390a17f121c1652d442e37b1b39ced56080e49236233ba8284899c84ffe036b9bfadebc605e60405180806020018381526020018281038252605d8152602001807f2f55736572732f73686f6b6973686f6b692f646576656c6f706d656e742f636f81526020017f6e73656e7379732f646973747269627574652f636f6e7472616374732f636f6e81526020017f7472616374732f6c6962726172792f504c4352566f74696e672e736f6c0000008152506060019250505060405180910390a18142119050919050565b60007f1e7d90235f56fb862abf07c5e5c4e5301a8da7952c7a7fea768f8d6a845b6d5b600f60405180806020018381526020018281038252605d8152602001807f2f55736572732f73686f6b6973686f6b692f646576656c6f706d656e742f636f81526020017f6e73656e7379732f646973747269627574652f636f6e7472616374732f636f6e81526020017f7472616374732f6c6962726172792f504c4352566f74696e672e736f6c0000008152506060019250505060405180910390a17f95940d274231f33edf1ae32982677e0b367f4321c9de1a9da1bdf8b1482dbd7961013160405180806020018381526020018281038252605d8152602001807f2f55736572732f73686f6b6973686f6b692f646576656c6f706d656e742f636f81526020017f6e73656e7379732f646973747269627574652f636f6e7472616374732f636f6e81526020017f7472616374732f6c6962726172792f504c4352566f74696e672e736f6c0000008152506060019250505060405180910390a17f47baa91c7d2c9f62c85bf2003164496af8aa6ba0e4603c89a076c307bc87a358601d60405180806020018381526020018281038252605d8152602001807f2f55736572732f73686f6b6973686f6b692f646576656c6f706d656e742f636f81526020017f6e73656e7379732f646973747269627574652f636f6e7472616374732f636f6e81526020017f7472616374732f6c6962726172792f504c4352566f74696e672e736f6c0000008152506060019250505060405180910390a17f121c1652d442e37b1b39ced56080e49236233ba8284899c84ffe036b9bfadebc604160405180806020018381526020018281038252605d8152602001807f2f55736572732f73686f6b6973686f6b692f646576656c6f706d656e742f636f81526020017f6e73656e7379732f646973747269627574652f636f6e7472616374732f636f6e81526020017f7472616374732f6c6962726172792f504c4352566f74696e672e736f6c0000008152506060019250505060405180910390a16200ec708262007b29565b15156200ec7c57600080fd5b7fbb7b670aa0a63818e29bfe0731793ebdeb096d3098b99f2c633528f8fb7af241601d60405180806020018381526020018281038252605d8152602001807f2f55736572732f73686f6b6973686f6b692f646576656c6f706d656e742f636f81526020017f6e73656e7379732f646973747269627574652f636f6e7472616374732f636f6e81526020017f7472616374732f6c6962726172792f504c4352566f74696e672e736f6c0000008152506060019250505060405180910390a17f95940d274231f33edf1ae32982677e0b367f4321c9de1a9da1bdf8b1482dbd7961013360405180806020018381526020018281038252605d8152602001807f2f55736572732f73686f6b6973686f6b692f646576656c6f706d656e742f636f81526020017f6e73656e7379732f646973747269627574652f636f6e7472616374732f636f6e81526020017f7472616374732f6c6962726172792f504c4352566f74696e672e736f6c0000008152506060019250505060405180910390a17f121c1652d442e37b1b39ced56080e49236233ba8284899c84ffe036b9bfadebc604260405180806020018381526020018281038252605d8152602001807f2f55736572732f73686f6b6973686f6b692f646576656c6f706d656e742f636f81526020017f6e73656e7379732f646973747269627574652f636f6e7472616374732f636f6e81526020017f7472616374732f6c6962726172792f504c4352566f74696e672e736f6c0000008152506060019250505060405180910390a16200eed560026000848152602001908152602001600020600101546200e72a565b9050919050565b60007f1e7d90235f56fb862abf07c5e5c4e5301a8da7952c7a7fea768f8d6a845b6d5b600160405180806020018381526020018281038252605d8152602001807f2f55736572732f73686f6b6973686f6b692f646576656c6f706d656e742f636f81526020017f6e73656e7379732f646973747269627574652f636f6e7472616374732f636f6e81526020017f7472616374732f6c6962726172792f504c4352566f74696e672e736f6c0000008152506060019250505060405180910390a17f95940d274231f33edf1ae32982677e0b367f4321c9de1a9da1bdf8b1482dbd79602f60405180806020018381526020018281038252605d8152602001807f2f55736572732f73686f6b6973686f6b692f646576656c6f706d656e742f636f81526020017f6e73656e7379732f646973747269627574652f636f6e7472616374732f636f6e81526020017f7472616374732f6c6962726172792f504c4352566f74696e672e736f6c0000008152506060019250505060405180910390a17f47baa91c7d2c9f62c85bf2003164496af8aa6ba0e4603c89a076c307bc87a358600160405180806020018381526020018281038252605d8152602001807f2f55736572732f73686f6b6973686f6b692f646576656c6f706d656e742f636f81526020017f6e73656e7379732f646973747269627574652f636f6e7472616374732f636f6e81526020017f7472616374732f6c6962726172792f504c4352566f74696e672e736f6c0000008152506060019250505060405180910390a17f121c1652d442e37b1b39ced56080e49236233ba8284899c84ffe036b9bfadebc600160405180806020018381526020018281038252605d8152602001807f2f55736572732f73686f6b6973686f6b692f646576656c6f706d656e742f636f81526020017f6e73656e7379732f646973747269627574652f636f6e7472616374732f636f6e81526020017f7472616374732f6c6962726172792f504c4352566f74696e672e736f6c0000008152506060019250505060405180910390a1600760009054906101000a900473ffffffffffffffffffffffffffffffffffffffff1673ffffffffffffffffffffffffffffffffffffffff163373ffffffffffffffffffffffffffffffffffffffff1614806200f27c5750600660009054906101000a900473ffffffffffffffffffffffffffffffffffffffff1673ffffffffffffffffffffffffffffffffffffffff163373ffffffffffffffffffffffffffffffffffffffff16145b15156200f28857600080fd5b7fbb7b670aa0a63818e29bfe0731793ebdeb096d3098b99f2c633528f8fb7af241600160405180806020018381526020018281038252605d8152602001807f2f55736572732f73686f6b6973686f6b692f646576656c6f706d656e742f636f81526020017f6e73656e7379732f646973747269627574652f636f6e7472616374732f636f6e81526020017f7472616374732f6c6962726172792f504c4352566f74696e672e736f6c0000008152506060019250505060405180910390a17f95940d274231f33edf1ae32982677e0b367f4321c9de1a9da1bdf8b1482dbd79603060405180806020018381526020018281038252605d8152602001807f2f55736572732f73686f6b6973686f6b692f646576656c6f706d656e742f636f81526020017f6e73656e7379732f646973747269627574652f636f6e7472616374732f636f6e81526020017f7472616374732f6c6962726172792f504c4352566f74696e672e736f6c0000008152506060019250505060405180910390a17f1e7d90235f56fb862abf07c5e5c4e5301a8da7952c7a7fea768f8d6a845b6d5b600660405180806020018381526020018281038252605d8152602001807f2f55736572732f73686f6b6973686f6b692f646576656c6f706d656e742f636f81526020017f6e73656e7379732f646973747269627574652f636f6e7472616374732f636f6e81526020017f7472616374732f6c6962726172792f504c4352566f74696e672e736f6c0000008152506060019250505060405180910390a17f95940d274231f33edf1ae32982677e0b367f4321c9de1a9da1bdf8b1482dbd79606f60405180806020018381526020018281038252605d8152602001807f2f55736572732f73686f6b6973686f6b692f646576656c6f706d656e742f636f81526020017f6e73656e7379732f646973747269627574652f636f6e7472616374732f636f6e81526020017f7472616374732f6c6962726172792f504c4352566f74696e672e736f6c0000008152506060019250505060405180910390a17f121c1652d442e37b1b39ced56080e49236233ba8284899c84ffe036b9bfadebc600e60405180806020018381526020018281038252605d8152602001807f2f55736572732f73686f6b6973686f6b692f646576656c6f706d656e742f636f81526020017f6e73656e7379732f646973747269627574652f636f6e7472616374732f636f6e81526020017f7472616374732f6c6962726172792f504c4352566f74696e672e736f6c0000008152506060019250505060405180910390a1600660009054906101000a900473ffffffffffffffffffffffffffffffffffffffff1673ffffffffffffffffffffffffffffffffffffffff163373ffffffffffffffffffffffffffffffffffffffff1614156200ffd2577f46bf101910e2537d67c0ff7a372742f790e01bb7eabae70d4ef1b754cd005bba6005600060405180806020018481526020018381526020018281038252605d8152602001807f2f55736572732f73686f6b6973686f6b692f646576656c6f706d656e742f636f81526020017f6e73656e7379732f646973747269627574652f636f6e7472616374732f636f6e81526020017f7472616374732f6c6962726172792f504c4352566f74696e672e736f6c000000815250606001935050505060405180910390a17f95940d274231f33edf1ae32982677e0b367f4321c9de1a9da1bdf8b1482dbd79607060405180806020018381526020018281038252605d8152602001807f2f55736572732f73686f6b6973686f6b692f646576656c6f706d656e742f636f81526020017f6e73656e7379732f646973747269627574652f636f6e7472616374732f636f6e81526020017f7472616374732f6c6962726172792f504c4352566f74696e672e736f6c0000008152506060019250505060405180910390a17f121c1652d442e37b1b39ced56080e49236233ba8284899c84ffe036b9bfadebc600f60405180806020018381526020018281038252605d8152602001807f2f55736572732f73686f6b6973686f6b692f646576656c6f706d656e742f636f81526020017f6e73656e7379732f646973747269627574652f636f6e7472616374732f636f6e81526020017f7472616374732f6c6962726172792f504c4352566f74696e672e736f6c0000008152506060019250505060405180910390a16200f8db8362006939565b6000808573ffffffffffffffffffffffffffffffffffffffff1673ffffffffffffffffffffffffffffffffffffffff168152602001908152602001600020540390507f95940d274231f33edf1ae32982677e0b367f4321c9de1a9da1bdf8b1482dbd79607160405180806020018381526020018281038252605d8152602001807f2f55736572732f73686f6b6973686f6b692f646576656c6f706d656e742f636f81526020017f6e73656e7379732f646973747269627574652f636f6e7472616374732f636f6e81526020017f7472616374732f6c6962726172792f504c4352566f74696e672e736f6c0000008152506060019250505060405180910390a17f47baa91c7d2c9f62c85bf2003164496af8aa6ba0e4603c89a076c307bc87a358600660405180806020018381526020018281038252605d8152602001807f2f55736572732f73686f6b6973686f6b692f646576656c6f706d656e742f636f81526020017f6e73656e7379732f646973747269627574652f636f6e7472616374732f636f6e81526020017f7472616374732f6c6962726172792f504c4352566f74696e672e736f6c0000008152506060019250505060405180910390a17f121c1652d442e37b1b39ced56080e49236233ba8284899c84ffe036b9bfadebc601060405180806020018381526020018281038252605d8152602001807f2f55736572732f73686f6b6973686f6b692f646576656c6f706d656e742f636f81526020017f6e73656e7379732f646973747269627574652f636f6e7472616374732f636f6e81526020017f7472616374732f6c6962726172792f504c4352566f74696e672e736f6c0000008152506060019250505060405180910390a18181101515156200fb6457600080fd5b7fbb7b670aa0a63818e29bfe0731793ebdeb096d3098b99f2c633528f8fb7af241600660405180806020018381526020018281038252605d8152602001807f2f55736572732f73686f6b6973686f6b692f646576656c6f706d656e742f636f81526020017f6e73656e7379732f646973747269627574652f636f6e7472616374732f636f6e81526020017f7472616374732f6c6962726172792f504c4352566f74696e672e736f6c0000008152506060019250505060405180910390a17f95940d274231f33edf1ae32982677e0b367f4321c9de1a9da1bdf8b1482dbd79607260405180806020018381526020018281038252605d8152602001807f2f55736572732f73686f6b6973686f6b692f646576656c6f706d656e742f636f81526020017f6e73656e7379732f646973747269627574652f636f6e7472616374732f636f6e81526020017f7472616374732f6c6962726172792f504c4352566f74696e672e736f6c0000008152506060019250505060405180910390a17f121c1652d442e37b1b39ced56080e49236233ba8284899c84ffe036b9bfadebc601160405180806020018381526020018281038252605d8152602001807f2f55736572732f73686f6b6973686f6b692f646576656c6f706d656e742f636f81526020017f6e73656e7379732f646973747269627574652f636f6e7472616374732f636f6e81526020017f7472616374732f6c6962726172792f504c4352566f74696e672e736f6c0000008152506060019250505060405180910390a1816000808573ffffffffffffffffffffffffffffffffffffffff1673ffffffffffffffffffffffffffffffffffffffff168152602001908152602001600020600082825403925050819055507f95940d274231f33edf1ae32982677e0b367f4321c9de1a9da1bdf8b1482dbd79607360405180806020018381526020018281038252605d8152602001807f2f55736572732f73686f6b6973686f6b692f646576656c6f706d656e742f636f81526020017f6e73656e7379732f646973747269627574652f636f6e7472616374732f636f6e81526020017f7472616374732f6c6962726172792f504c4352566f74696e672e736f6c0000008152506060019250505060405180910390a17f121c1652d442e37b1b39ced56080e49236233ba8284899c84ffe036b9bfadebc601260405180806020018381526020018281038252605d8152602001807f2f55736572732f73686f6b6973686f6b692f646576656c6f706d656e742f636f81526020017f6e73656e7379732f646973747269627574652f636f6e7472616374732f636f6e81526020017f7472616374732f6c6962726172792f504c4352566f74696e672e736f6c0000008152506060019250505060405180910390a17f2c88837e03c4eee367d64fb379bbf7dad76a371c52622230bcf8b79728b9c5328383604051808373ffffffffffffffffffffffffffffffffffffffff1673ffffffffffffffffffffffffffffffffffffffff1681526020018281526020019250505060405180910390a162010bb8565b7f121c1652d442e37b1b39ced56080e49236233ba8284899c84ffe036b9bfadebc601360405180806020018381526020018281038252605d8152602001807f2f55736572732f73686f6b6973686f6b692f646576656c6f706d656e742f636f81526020017f6e73656e7379732f646973747269627574652f636f6e7472616374732f636f6e81526020017f7472616374732f6c6962726172792f504c4352566f74696e672e736f6c0000008152506060019250505060405180910390a17f46bf101910e2537d67c0ff7a372742f790e01bb7eabae70d4ef1b754cd005bba6005600160405180806020018481526020018381526020018281038252605d8152602001807f2f55736572732f73686f6b6973686f6b692f646576656c6f706d656e742f636f81526020017f6e73656e7379732f646973747269627574652f636f6e7472616374732f636f6e81526020017f7472616374732f6c6962726172792f504c4352566f74696e672e736f6c000000815250606001935050505060405180910390a1600760009054906101000a900473ffffffffffffffffffffffffffffffffffffffff1673ffffffffffffffffffffffffffffffffffffffff163373ffffffffffffffffffffffffffffffffffffffff16141562010af0577f46bf101910e2537d67c0ff7a372742f790e01bb7eabae70d4ef1b754cd005bba6007600060405180806020018481526020018381526020018281038252605d8152602001807f2f55736572732f73686f6b6973686f6b692f646576656c6f706d656e742f636f81526020017f6e73656e7379732f646973747269627574652f636f6e7472616374732f636f6e81526020017f7472616374732f6c6962726172792f504c4352566f74696e672e736f6c000000815250606001935050505060405180910390a17f95940d274231f33edf1ae32982677e0b367f4321c9de1a9da1bdf8b1482dbd79607560405180806020018381526020018281038252605d8152602001807f2f55736572732f73686f6b6973686f6b692f646576656c6f706d656e742f636f81526020017f6e73656e7379732f646973747269627574652f636f6e7472616374732f636f6e81526020017f7472616374732f6c6962726172792f504c4352566f74696e672e736f6c0000008152506060019250505060405180910390a17f121c1652d442e37b1b39ced56080e49236233ba8284899c84ffe036b9bfadebc601460405180806020018381526020018281038252605d8152602001807f2f55736572732f73686f6b6973686f6b692f646576656c6f706d656e742f636f81526020017f6e73656e7379732f646973747269627574652f636f6e7472616374732f636f6e81526020017f7472616374732f6c6962726172792f504c4352566f74696e672e736f6c0000008152506060019250505060405180910390a1620103f78362006939565b600160008573ffffffffffffffffffffffffffffffffffffffff1673ffffffffffffffffffffffffffffffffffffffff168152602001908152602001600020540390507f95940d274231f33edf1ae32982677e0b367f4321c9de1a9da1bdf8b1482dbd79607660405180806020018381526020018281038252605d8152602001807f2f55736572732f73686f6b6973686f6b692f646576656c6f706d656e742f636f81526020017f6e73656e7379732f646973747269627574652f636f6e7472616374732f636f6e81526020017f7472616374732f6c6962726172792f504c4352566f74696e672e736f6c0000008152506060019250505060405180910390a17f47baa91c7d2c9f62c85bf2003164496af8aa6ba0e4603c89a076c307bc87a358600860405180806020018381526020018281038252605d8152602001807f2f55736572732f73686f6b6973686f6b692f646576656c6f706d656e742f636f81526020017f6e73656e7379732f646973747269627574652f636f6e7472616374732f636f6e81526020017f7472616374732f6c6962726172792f504c4352566f74696e672e736f6c0000008152506060019250505060405180910390a17f121c1652d442e37b1b39ced56080e49236233ba8284899c84ffe036b9bfadebc601560405180806020018381526020018281038252605d8152602001807f2f55736572732f73686f6b6973686f6b692f646576656c6f706d656e742f636f81526020017f6e73656e7379732f646973747269627574652f636f6e7472616374732f636f6e81526020017f7472616374732f6c6962726172792f504c4352566f74696e672e736f6c0000008152506060019250505060405180910390a18181101515156201068157600080fd5b7fbb7b670aa0a63818e29bfe0731793ebdeb096d3098b99f2c633528f8fb7af241600860405180806020018381526020018281038252605d8152602001807f2f55736572732f73686f6b6973686f6b692f646576656c6f706d656e742f636f81526020017f6e73656e7379732f646973747269627574652f636f6e7472616374732f636f6e81526020017f7472616374732f6c6962726172792f504c4352566f74696e672e736f6c0000008152506060019250505060405180910390a17f95940d274231f33edf1ae32982677e0b367f4321c9de1a9da1bdf8b1482dbd79607760405180806020018381526020018281038252605d8152602001807f2f55736572732f73686f6b6973686f6b692f646576656c6f706d656e742f636f81526020017f6e73656e7379732f646973747269627574652f636f6e7472616374732f636f6e81526020017f7472616374732f6c6962726172792f504c4352566f74696e672e736f6c0000008152506060019250505060405180910390a17f121c1652d442e37b1b39ced56080e49236233ba8284899c84ffe036b9bfadebc601660405180806020018381526020018281038252605d8152602001807f2f55736572732f73686f6b6973686f6b692f646576656c6f706d656e742f636f81526020017f6e73656e7379732f646973747269627574652f636f6e7472616374732f636f6e81526020017f7472616374732f6c6962726172792f504c4352566f74696e672e736f6c0000008152506060019250505060405180910390a181600160008573ffffffffffffffffffffffffffffffffffffffff1673ffffffffffffffffffffffffffffffffffffffff168152602001908152602001600020600082825403925050819055507f95940d274231f33edf1ae32982677e0b367f4321c9de1a9da1bdf8b1482dbd79607860405180806020018381526020018281038252605d8152602001807f2f55736572732f73686f6b6973686f6b692f646576656c6f706d656e742f636f81526020017f6e73656e7379732f646973747269627574652f636f6e7472616374732f636f6e81526020017f7472616374732f6c6962726172792f504c4352566f74696e672e736f6c0000008152506060019250505060405180910390a17f121c1652d442e37b1b39ced56080e49236233ba8284899c84ffe036b9bfadebc601760405180806020018381526020018281038252605d8152602001807f2f55736572732f73686f6b6973686f6b692f646576656c6f706d656e742f636f81526020017f6e73656e7379732f646973747269627574652f636f6e7472616374732f636f6e81526020017f7472616374732f6c6962726172792f504c4352566f74696e672e736f6c0000008152506060019250505060405180910390a17f2c88837e03c4eee367d64fb379bbf7dad76a371c52622230bcf8b79728b9c5328383604051808373ffffffffffffffffffffffffffffffffffffffff1673ffffffffffffffffffffffffffffffffffffffff1681526020018281526020019250505060405180910390a162010bb7565b7f46bf101910e2537d67c0ff7a372742f790e01bb7eabae70d4ef1b754cd005bba6007600160405180806020018481526020018381526020018281038252605d8152602001807f2f55736572732f73686f6b6973686f6b692f646576656c6f706d656e742f636f81526020017f6e73656e7379732f646973747269627574652f636f6e7472616374732f636f6e81526020017f7472616374732f6c6962726172792f504c4352566f74696e672e736f6c000000815250606001935050505060405180910390a15b5b505050565b60a060405190810160405280600081526020016000815260200160008152602001600081526020016000815250905600a165627a7a72305820e0907aa705dcd3c2896e9370899759246adc622f0d4eba7ec66d0e004728fd360029","source":"pragma solidity ^0.4.19;\r\n\r\n//import files\r\nimport \"./DLL.sol\";\r\nimport \"./AttributeStore.sol\";\r\nimport \"../ProjectRegistry.sol\";\r\n\r\n/**\r\n@title Partial-Lock-Commit-Reveal Voting scheme with ERC20 tokens\r\n@author Team: Aspyn Palatnick, Cem Ozer, Yorke Rhodes\r\n*/\r\ncontract PLCRVoting {event __CoveragePLCRVoting(string fileName, uint256 lineNumber);\nevent __FunctionCoveragePLCRVoting(string fileName, uint256 fnId);\nevent __StatementCoveragePLCRVoting(string fileName, uint256 statementId);\nevent __BranchCoveragePLCRVoting(string fileName, uint256 branchId, uint256 locationIdx);\nevent __AssertPreCoveragePLCRVoting(string fileName, uint256 branchId);\nevent __AssertPostCoveragePLCRVoting(string fileName, uint256 branchId);\n\r\n\r\n    event VoteCommitted(address voter, uint pollID, uint numTokens);\r\n    event VoteRevealed(address voter, uint pollID, uint numTokens, uint choice);\r\n    event PollCreated(uint voteQuorum, uint commitDuration, uint revealDuration, uint pollID);\r\n    event VotingRightsGranted(address voter, uint numTokens);\r\n    event VotingRightsWithdrawn(address voter, uint numTokens);\r\n\r\n    /// maps user's address to voteToken balance\r\n    mapping(address => uint) public voteTokenBalance;\r\n    mapping(address => uint) public voteReputationBalance;\r\n\r\n    struct Poll {\r\n        uint commitEndDate;     /// expiration date of commit period for poll\r\n        uint revealEndDate;     /// expiration date of reveal period for poll\r\n        uint voteQuorum;\t    /// number of votes required for a proposal to pass\r\n        uint votesFor;\t\t    /// tally of votes supporting proposal\r\n        uint votesAgainst;      /// tally of votes countering proposal\r\n    }\r\n\r\n    /// maps pollID to Poll struct\r\n    mapping(uint => Poll) public pollMap;\r\n    uint pollNonce;\r\n\r\n    using DLL for DLL.Data;\r\n    mapping(address => DLL.Data) dllMap;\r\n\r\n    using AttributeStore for AttributeStore.Data;\r\n    AttributeStore.Data store;\r\n\r\n    // =====================================================================\r\n    // MODIFIERS\r\n    // =====================================================================\r\n\r\n      modifier onlyTRRR() {__FunctionCoveragePLCRVoting('/Users/shokishoki/development/consensys/distribute/contracts/contracts/library/PLCRVoting.sol',1);\n\r\n__CoveragePLCRVoting('/Users/shokishoki/development/consensys/distribute/contracts/contracts/library/PLCRVoting.sol',47);\n        __AssertPreCoveragePLCRVoting('/Users/shokishoki/development/consensys/distribute/contracts/contracts/library/PLCRVoting.sol',1);\n __StatementCoveragePLCRVoting('/Users/shokishoki/development/consensys/distribute/contracts/contracts/library/PLCRVoting.sol',1);\nrequire(msg.sender == reputationRegistry || msg.sender == tokenRegistry);__AssertPostCoveragePLCRVoting('/Users/shokishoki/development/consensys/distribute/contracts/contracts/library/PLCRVoting.sol',1);\n\r\n__CoveragePLCRVoting('/Users/shokishoki/development/consensys/distribute/contracts/contracts/library/PLCRVoting.sol',48);\n        _;\r\n      }\r\n\r\n      modifier onlyTR() {__FunctionCoveragePLCRVoting('/Users/shokishoki/development/consensys/distribute/contracts/contracts/library/PLCRVoting.sol',2);\n\r\n__CoveragePLCRVoting('/Users/shokishoki/development/consensys/distribute/contracts/contracts/library/PLCRVoting.sol',52);\n        __AssertPreCoveragePLCRVoting('/Users/shokishoki/development/consensys/distribute/contracts/contracts/library/PLCRVoting.sol',2);\n __StatementCoveragePLCRVoting('/Users/shokishoki/development/consensys/distribute/contracts/contracts/library/PLCRVoting.sol',2);\nrequire(msg.sender == tokenRegistry);__AssertPostCoveragePLCRVoting('/Users/shokishoki/development/consensys/distribute/contracts/contracts/library/PLCRVoting.sol',2);\n\r\n__CoveragePLCRVoting('/Users/shokishoki/development/consensys/distribute/contracts/contracts/library/PLCRVoting.sol',53);\n        _;\r\n      }\r\n\r\n    // ============\r\n    // CONSTRUCTOR:\r\n    // ============\r\n\r\n    uint256 constant INITIAL_POLL_NONCE = 0;\r\n\r\n    address tokenRegistry;\r\n    address reputationRegistry;\r\n    address projectRegistry;\r\n\r\n    /**\r\n    @dev Initializes voteQuorum, commitDuration, revealDuration, and pollNonce in addition to token contract and trusted mapping\r\n    */\r\n    function PLCRVoting(address _tokenRegistry, address _reputationRegistry, address _projectRegistry) public {__FunctionCoveragePLCRVoting('/Users/shokishoki/development/consensys/distribute/contracts/contracts/library/PLCRVoting.sol',3);\n\r\n__CoveragePLCRVoting('/Users/shokishoki/development/consensys/distribute/contracts/contracts/library/PLCRVoting.sol',70);\n         __StatementCoveragePLCRVoting('/Users/shokishoki/development/consensys/distribute/contracts/contracts/library/PLCRVoting.sol',3);\ntokenRegistry = _tokenRegistry;\r\n__CoveragePLCRVoting('/Users/shokishoki/development/consensys/distribute/contracts/contracts/library/PLCRVoting.sol',71);\n         __StatementCoveragePLCRVoting('/Users/shokishoki/development/consensys/distribute/contracts/contracts/library/PLCRVoting.sol',4);\nreputationRegistry = _reputationRegistry;\r\n__CoveragePLCRVoting('/Users/shokishoki/development/consensys/distribute/contracts/contracts/library/PLCRVoting.sol',72);\n         __StatementCoveragePLCRVoting('/Users/shokishoki/development/consensys/distribute/contracts/contracts/library/PLCRVoting.sol',5);\nprojectRegistry = _projectRegistry;\r\n__CoveragePLCRVoting('/Users/shokishoki/development/consensys/distribute/contracts/contracts/library/PLCRVoting.sol',73);\n         __StatementCoveragePLCRVoting('/Users/shokishoki/development/consensys/distribute/contracts/contracts/library/PLCRVoting.sol',6);\npollNonce = INITIAL_POLL_NONCE;\r\n    }\r\n\r\n    // ================\r\n    // TOKEN INTERFACE:\r\n    // ================\r\n\r\n    /**\r\n    @notice Returns the available tokens for voting for voter `_voter`\r\n    @param _voter Address of the voter\r\n    @param _type The type of the validator\r\n    */\r\n    function getAvailableTokens(address _voter, uint _type) public  returns(uint256) {__FunctionCoveragePLCRVoting('/Users/shokishoki/development/consensys/distribute/contracts/contracts/library/PLCRVoting.sol',4);\n\r\n__CoveragePLCRVoting('/Users/shokishoki/development/consensys/distribute/contracts/contracts/library/PLCRVoting.sol',86);\n         __StatementCoveragePLCRVoting('/Users/shokishoki/development/consensys/distribute/contracts/contracts/library/PLCRVoting.sol',7);\nreturn _type == 1\r\n            ? voteTokenBalance[_voter] - getLockedTokens(_voter)\r\n            : voteReputationBalance[_voter] - getLockedTokens(_voter);\r\n    }\r\n    /**\r\n    @notice Loads _numTokens ERC20 tokens into the voting contract for one-to-one voting rights\r\n    @dev Assumes that msg.sender has approved voting contract to spend on their behalf\r\n    @param _numTokens The number of votingTokens desired in exchange for ERC20 tokens\r\n    */\r\n    function requestVotingRights(address _staker, uint _numTokens) public onlyTRRR() {__FunctionCoveragePLCRVoting('/Users/shokishoki/development/consensys/distribute/contracts/contracts/library/PLCRVoting.sol',5);\n\r\n        //checks done in THR/WR to ensure that staker has tokens to vote with\r\n__CoveragePLCRVoting('/Users/shokishoki/development/consensys/distribute/contracts/contracts/library/PLCRVoting.sol',97);\n         __StatementCoveragePLCRVoting('/Users/shokishoki/development/consensys/distribute/contracts/contracts/library/PLCRVoting.sol',8);\nif (msg.sender == tokenRegistry) {__BranchCoveragePLCRVoting('/Users/shokishoki/development/consensys/distribute/contracts/contracts/library/PLCRVoting.sol',3,0);\r\n__CoveragePLCRVoting('/Users/shokishoki/development/consensys/distribute/contracts/contracts/library/PLCRVoting.sol',98);\n             __StatementCoveragePLCRVoting('/Users/shokishoki/development/consensys/distribute/contracts/contracts/library/PLCRVoting.sol',9);\nvoteTokenBalance[_staker] += _numTokens;\r\n__CoveragePLCRVoting('/Users/shokishoki/development/consensys/distribute/contracts/contracts/library/PLCRVoting.sol',99);\n             __StatementCoveragePLCRVoting('/Users/shokishoki/development/consensys/distribute/contracts/contracts/library/PLCRVoting.sol',10);\nVotingRightsGranted(_staker, _numTokens);\r\n        } else { __StatementCoveragePLCRVoting('/Users/shokishoki/development/consensys/distribute/contracts/contracts/library/PLCRVoting.sol',11);\n__BranchCoveragePLCRVoting('/Users/shokishoki/development/consensys/distribute/contracts/contracts/library/PLCRVoting.sol',3,1);if (msg.sender == reputationRegistry) {__BranchCoveragePLCRVoting('/Users/shokishoki/development/consensys/distribute/contracts/contracts/library/PLCRVoting.sol',4,0);\r\n__CoveragePLCRVoting('/Users/shokishoki/development/consensys/distribute/contracts/contracts/library/PLCRVoting.sol',101);\n             __StatementCoveragePLCRVoting('/Users/shokishoki/development/consensys/distribute/contracts/contracts/library/PLCRVoting.sol',12);\nvoteReputationBalance[_staker] += _numTokens;\r\n__CoveragePLCRVoting('/Users/shokishoki/development/consensys/distribute/contracts/contracts/library/PLCRVoting.sol',102);\n             __StatementCoveragePLCRVoting('/Users/shokishoki/development/consensys/distribute/contracts/contracts/library/PLCRVoting.sol',13);\nVotingRightsGranted(_staker, _numTokens);\r\n        }else { __BranchCoveragePLCRVoting('/Users/shokishoki/development/consensys/distribute/contracts/contracts/library/PLCRVoting.sol',4,1);}\n}\r\n    }\r\n\r\n    /**\r\n    @notice Withdraw _numTokens ERC20 tokens from the voting contract, revoking these voting rights\r\n    @param _numTokens The number of ERC20 tokens desired in exchange for voting rights\r\n    */\r\n    function withdrawVotingRights(address _staker, uint _numTokens) external onlyTRRR() {__FunctionCoveragePLCRVoting('/Users/shokishoki/development/consensys/distribute/contracts/contracts/library/PLCRVoting.sol',6);\n\r\n__CoveragePLCRVoting('/Users/shokishoki/development/consensys/distribute/contracts/contracts/library/PLCRVoting.sol',111);\n         __StatementCoveragePLCRVoting('/Users/shokishoki/development/consensys/distribute/contracts/contracts/library/PLCRVoting.sol',14);\nif (msg.sender == tokenRegistry) {__BranchCoveragePLCRVoting('/Users/shokishoki/development/consensys/distribute/contracts/contracts/library/PLCRVoting.sol',5,0);\r\n__CoveragePLCRVoting('/Users/shokishoki/development/consensys/distribute/contracts/contracts/library/PLCRVoting.sol',112);\n             __StatementCoveragePLCRVoting('/Users/shokishoki/development/consensys/distribute/contracts/contracts/library/PLCRVoting.sol',15);\nuint256 availableTokens = voteTokenBalance[_staker] - getLockedTokens(_staker);\r\n__CoveragePLCRVoting('/Users/shokishoki/development/consensys/distribute/contracts/contracts/library/PLCRVoting.sol',113);\n            __AssertPreCoveragePLCRVoting('/Users/shokishoki/development/consensys/distribute/contracts/contracts/library/PLCRVoting.sol',6);\n __StatementCoveragePLCRVoting('/Users/shokishoki/development/consensys/distribute/contracts/contracts/library/PLCRVoting.sol',16);\nrequire(availableTokens >= _numTokens);__AssertPostCoveragePLCRVoting('/Users/shokishoki/development/consensys/distribute/contracts/contracts/library/PLCRVoting.sol',6);\n\r\n__CoveragePLCRVoting('/Users/shokishoki/development/consensys/distribute/contracts/contracts/library/PLCRVoting.sol',114);\n             __StatementCoveragePLCRVoting('/Users/shokishoki/development/consensys/distribute/contracts/contracts/library/PLCRVoting.sol',17);\nvoteTokenBalance[_staker] -= _numTokens;\r\n__CoveragePLCRVoting('/Users/shokishoki/development/consensys/distribute/contracts/contracts/library/PLCRVoting.sol',115);\n             __StatementCoveragePLCRVoting('/Users/shokishoki/development/consensys/distribute/contracts/contracts/library/PLCRVoting.sol',18);\nVotingRightsWithdrawn(_staker, _numTokens);\r\n        } else { __StatementCoveragePLCRVoting('/Users/shokishoki/development/consensys/distribute/contracts/contracts/library/PLCRVoting.sol',19);\n__BranchCoveragePLCRVoting('/Users/shokishoki/development/consensys/distribute/contracts/contracts/library/PLCRVoting.sol',5,1);if (msg.sender == reputationRegistry) {__BranchCoveragePLCRVoting('/Users/shokishoki/development/consensys/distribute/contracts/contracts/library/PLCRVoting.sol',7,0);\r\n__CoveragePLCRVoting('/Users/shokishoki/development/consensys/distribute/contracts/contracts/library/PLCRVoting.sol',117);\n             __StatementCoveragePLCRVoting('/Users/shokishoki/development/consensys/distribute/contracts/contracts/library/PLCRVoting.sol',20);\navailableTokens = voteReputationBalance[_staker] - getLockedTokens(_staker);\r\n__CoveragePLCRVoting('/Users/shokishoki/development/consensys/distribute/contracts/contracts/library/PLCRVoting.sol',118);\n            __AssertPreCoveragePLCRVoting('/Users/shokishoki/development/consensys/distribute/contracts/contracts/library/PLCRVoting.sol',8);\n __StatementCoveragePLCRVoting('/Users/shokishoki/development/consensys/distribute/contracts/contracts/library/PLCRVoting.sol',21);\nrequire(availableTokens >= _numTokens);__AssertPostCoveragePLCRVoting('/Users/shokishoki/development/consensys/distribute/contracts/contracts/library/PLCRVoting.sol',8);\n\r\n__CoveragePLCRVoting('/Users/shokishoki/development/consensys/distribute/contracts/contracts/library/PLCRVoting.sol',119);\n             __StatementCoveragePLCRVoting('/Users/shokishoki/development/consensys/distribute/contracts/contracts/library/PLCRVoting.sol',22);\nvoteReputationBalance[_staker] -= _numTokens;\r\n__CoveragePLCRVoting('/Users/shokishoki/development/consensys/distribute/contracts/contracts/library/PLCRVoting.sol',120);\n             __StatementCoveragePLCRVoting('/Users/shokishoki/development/consensys/distribute/contracts/contracts/library/PLCRVoting.sol',23);\nVotingRightsWithdrawn(_staker, _numTokens);\r\n        }else { __BranchCoveragePLCRVoting('/Users/shokishoki/development/consensys/distribute/contracts/contracts/library/PLCRVoting.sol',7,1);}\n}\r\n    }\r\n\r\n    /**\r\n    @dev Unlocks tokens locked in unrevealed vote where poll has ended\r\n    @param _pollID Integer identifier associated with the target poll\r\n    */\r\n    function rescueTokens(address _staker, uint _pollID) onlyTRRR() external {__FunctionCoveragePLCRVoting('/Users/shokishoki/development/consensys/distribute/contracts/contracts/library/PLCRVoting.sol',7);\n\r\n__CoveragePLCRVoting('/Users/shokishoki/development/consensys/distribute/contracts/contracts/library/PLCRVoting.sol',129);\n        __AssertPreCoveragePLCRVoting('/Users/shokishoki/development/consensys/distribute/contracts/contracts/library/PLCRVoting.sol',9);\n __StatementCoveragePLCRVoting('/Users/shokishoki/development/consensys/distribute/contracts/contracts/library/PLCRVoting.sol',24);\nrequire(pollEnded(_pollID));__AssertPostCoveragePLCRVoting('/Users/shokishoki/development/consensys/distribute/contracts/contracts/library/PLCRVoting.sol',9);\n\r\n\r\n__CoveragePLCRVoting('/Users/shokishoki/development/consensys/distribute/contracts/contracts/library/PLCRVoting.sol',131);\n         __StatementCoveragePLCRVoting('/Users/shokishoki/development/consensys/distribute/contracts/contracts/library/PLCRVoting.sol',25);\nif(!hasBeenRevealed(_staker, _pollID)) {__BranchCoveragePLCRVoting('/Users/shokishoki/development/consensys/distribute/contracts/contracts/library/PLCRVoting.sol',10,0);\r\n__CoveragePLCRVoting('/Users/shokishoki/development/consensys/distribute/contracts/contracts/library/PLCRVoting.sol',132);\n            dllMap[_staker].remove(_pollID);\r\n        }else { __BranchCoveragePLCRVoting('/Users/shokishoki/development/consensys/distribute/contracts/contracts/library/PLCRVoting.sol',10,1);}\n\r\n    }\r\n\r\n    // =================\r\n    // VOTING INTERFACE:\r\n    // =================\r\n\r\n    /**\r\n    @notice Commits vote using hash of choice and secret salt to conceal vote until reveal\r\n    @param _pollID Integer identifier associated with target poll\r\n    @param _secretHash Commit keccak256 hash of voter's choice and salt (tightly packed in this order)\r\n    @param _numTokens The number of tokens to be committed towards the target poll\r\n    @param _prevPollID The ID of the poll that the user has voted the maximum number of tokens in which is still less than or equal to numTokens\r\n    */\r\n    function commitVote(\r\n        address _staker,\r\n        uint _pollID,\r\n        bytes32 _secretHash,\r\n        uint _numTokens,\r\n        uint _prevPollID\r\n    ) onlyTRRR() external {__FunctionCoveragePLCRVoting('/Users/shokishoki/development/consensys/distribute/contracts/contracts/library/PLCRVoting.sol',8);\n\r\n__CoveragePLCRVoting('/Users/shokishoki/development/consensys/distribute/contracts/contracts/library/PLCRVoting.sol',154);\n        __AssertPreCoveragePLCRVoting('/Users/shokishoki/development/consensys/distribute/contracts/contracts/library/PLCRVoting.sol',11);\n __StatementCoveragePLCRVoting('/Users/shokishoki/development/consensys/distribute/contracts/contracts/library/PLCRVoting.sol',26);\nrequire(commitPeriodActive(_pollID));__AssertPostCoveragePLCRVoting('/Users/shokishoki/development/consensys/distribute/contracts/contracts/library/PLCRVoting.sol',11);\n\r\n__CoveragePLCRVoting('/Users/shokishoki/development/consensys/distribute/contracts/contracts/library/PLCRVoting.sol',155);\n         __StatementCoveragePLCRVoting('/Users/shokishoki/development/consensys/distribute/contracts/contracts/library/PLCRVoting.sol',27);\nmsg.sender == reputationRegistry\r\n            ? (__BranchCoveragePLCRVoting('/Users/shokishoki/development/consensys/distribute/contracts/contracts/library/PLCRVoting.sol',12,0),require(voteReputationBalance[_staker] >= _numTokens)) // prevent user from overspending\r\n            : (__BranchCoveragePLCRVoting('/Users/shokishoki/development/consensys/distribute/contracts/contracts/library/PLCRVoting.sol',12,1),require(voteTokenBalance[_staker] >= _numTokens)); // prevent user from overspending\r\n__CoveragePLCRVoting('/Users/shokishoki/development/consensys/distribute/contracts/contracts/library/PLCRVoting.sol',158);\n        __AssertPreCoveragePLCRVoting('/Users/shokishoki/development/consensys/distribute/contracts/contracts/library/PLCRVoting.sol',13);\n __StatementCoveragePLCRVoting('/Users/shokishoki/development/consensys/distribute/contracts/contracts/library/PLCRVoting.sol',28);\nrequire(_pollID != 0);__AssertPostCoveragePLCRVoting('/Users/shokishoki/development/consensys/distribute/contracts/contracts/library/PLCRVoting.sol',13);\n                // prevent user from committing to zero node placeholder\r\n        // TODO: Move all insert validation into the DLL lib\r\n        // Check if _prevPollID exists\r\n__CoveragePLCRVoting('/Users/shokishoki/development/consensys/distribute/contracts/contracts/library/PLCRVoting.sol',161);\n        __AssertPreCoveragePLCRVoting('/Users/shokishoki/development/consensys/distribute/contracts/contracts/library/PLCRVoting.sol',14);\n __StatementCoveragePLCRVoting('/Users/shokishoki/development/consensys/distribute/contracts/contracts/library/PLCRVoting.sol',29);\nrequire(_prevPollID == 0 || getCommitHash(_staker, _prevPollID) != 0);__AssertPostCoveragePLCRVoting('/Users/shokishoki/development/consensys/distribute/contracts/contracts/library/PLCRVoting.sol',14);\n\r\n\r\n__CoveragePLCRVoting('/Users/shokishoki/development/consensys/distribute/contracts/contracts/library/PLCRVoting.sol',163);\n         __StatementCoveragePLCRVoting('/Users/shokishoki/development/consensys/distribute/contracts/contracts/library/PLCRVoting.sol',30);\nuint nextPollID = dllMap[_staker].getNext(_prevPollID);\r\n        // if nextPollID is equal to _pollID, _pollID is being updated,\r\n__CoveragePLCRVoting('/Users/shokishoki/development/consensys/distribute/contracts/contracts/library/PLCRVoting.sol',165);\n         __StatementCoveragePLCRVoting('/Users/shokishoki/development/consensys/distribute/contracts/contracts/library/PLCRVoting.sol',31);\nnextPollID; (,nextPollID) = (nextPollID == _pollID)\r\n            ? (__BranchCoveragePLCRVoting('/Users/shokishoki/development/consensys/distribute/contracts/contracts/library/PLCRVoting.sol',15,0),dllMap[_staker].getNext(_pollID))\r\n            : (__BranchCoveragePLCRVoting('/Users/shokishoki/development/consensys/distribute/contracts/contracts/library/PLCRVoting.sol',15,1),nextPollID);\r\n__CoveragePLCRVoting('/Users/shokishoki/development/consensys/distribute/contracts/contracts/library/PLCRVoting.sol',168);\n        __AssertPreCoveragePLCRVoting('/Users/shokishoki/development/consensys/distribute/contracts/contracts/library/PLCRVoting.sol',16);\n __StatementCoveragePLCRVoting('/Users/shokishoki/development/consensys/distribute/contracts/contracts/library/PLCRVoting.sol',32);\nrequire(validPosition(_prevPollID, nextPollID, _staker, _numTokens));__AssertPostCoveragePLCRVoting('/Users/shokishoki/development/consensys/distribute/contracts/contracts/library/PLCRVoting.sol',16);\n\r\n__CoveragePLCRVoting('/Users/shokishoki/development/consensys/distribute/contracts/contracts/library/PLCRVoting.sol',169);\n        dllMap[_staker].insert(_prevPollID, _pollID, nextPollID);\r\n__CoveragePLCRVoting('/Users/shokishoki/development/consensys/distribute/contracts/contracts/library/PLCRVoting.sol',170);\n         __StatementCoveragePLCRVoting('/Users/shokishoki/development/consensys/distribute/contracts/contracts/library/PLCRVoting.sol',33);\nbytes32 UUID = attrUUID(_staker, _pollID);\r\n__CoveragePLCRVoting('/Users/shokishoki/development/consensys/distribute/contracts/contracts/library/PLCRVoting.sol',171);\n        store.attachAttribute(UUID, \"numTokens\", _numTokens);\r\n__CoveragePLCRVoting('/Users/shokishoki/development/consensys/distribute/contracts/contracts/library/PLCRVoting.sol',172);\n        store.attachAttribute(UUID, \"commitHash\", uint(_secretHash));\r\n__CoveragePLCRVoting('/Users/shokishoki/development/consensys/distribute/contracts/contracts/library/PLCRVoting.sol',173);\n         __StatementCoveragePLCRVoting('/Users/shokishoki/development/consensys/distribute/contracts/contracts/library/PLCRVoting.sol',34);\nVoteCommitted(_staker, _pollID, _numTokens);\r\n    }\r\n\r\n    /**\r\n    @dev Compares previous and next poll's committed tokens for sorting purposes\r\n    @param _prevID Integer identifier associated with previous poll in sorted order\r\n    @param _nextID Integer identifier associated with next poll in sorted order\r\n    @param _voter Address of user to check DLL position for\r\n    @param _numTokens The number of tokens to be committed towards the poll (used for sorting)\r\n    @return valid Boolean indication of if the specified position maintains the sort\r\n    */\r\n    function validPosition(\r\n        uint _prevID,\r\n        uint _nextID,\r\n        address _voter,\r\n        uint _numTokens\r\n    ) public  returns (bool valid) {__FunctionCoveragePLCRVoting('/Users/shokishoki/development/consensys/distribute/contracts/contracts/library/PLCRVoting.sol',9);\n\r\n__CoveragePLCRVoting('/Users/shokishoki/development/consensys/distribute/contracts/contracts/library/PLCRVoting.sol',190);\n         __StatementCoveragePLCRVoting('/Users/shokishoki/development/consensys/distribute/contracts/contracts/library/PLCRVoting.sol',35);\nbool prevValid = (_numTokens >= getNumTokens(_voter, _prevID));\r\n        // if next is zero node, _numTokens does not need to be greater\r\n__CoveragePLCRVoting('/Users/shokishoki/development/consensys/distribute/contracts/contracts/library/PLCRVoting.sol',192);\n         __StatementCoveragePLCRVoting('/Users/shokishoki/development/consensys/distribute/contracts/contracts/library/PLCRVoting.sol',36);\nbool nextValid = (_numTokens <= getNumTokens(_voter, _nextID) || _nextID == 0);\r\n__CoveragePLCRVoting('/Users/shokishoki/development/consensys/distribute/contracts/contracts/library/PLCRVoting.sol',193);\n         __StatementCoveragePLCRVoting('/Users/shokishoki/development/consensys/distribute/contracts/contracts/library/PLCRVoting.sol',37);\nreturn prevValid && nextValid;\r\n    }\r\n\r\n    /**\r\n    @notice Reveals vote with choice and secret salt used in generating commitHash to attribute committed tokens\r\n    @param _pollID Integer identifier associated with target poll\r\n    @param _voteOption Vote choice used to generate commitHash for associated poll\r\n    @param _salt Secret number used to generate commitHash for associated poll\r\n    */\r\n    function revealVote(uint _pollID, uint _voteOption, uint _salt) onlyTRRR() external {__FunctionCoveragePLCRVoting('/Users/shokishoki/development/consensys/distribute/contracts/contracts/library/PLCRVoting.sol',10);\n\r\n    // Make sure the reveal period is active\r\n__CoveragePLCRVoting('/Users/shokishoki/development/consensys/distribute/contracts/contracts/library/PLCRVoting.sol',204);\n    __AssertPreCoveragePLCRVoting('/Users/shokishoki/development/consensys/distribute/contracts/contracts/library/PLCRVoting.sol',17);\n __StatementCoveragePLCRVoting('/Users/shokishoki/development/consensys/distribute/contracts/contracts/library/PLCRVoting.sol',38);\nrequire(revealPeriodActive(_pollID));__AssertPostCoveragePLCRVoting('/Users/shokishoki/development/consensys/distribute/contracts/contracts/library/PLCRVoting.sol',17);\n\r\n__CoveragePLCRVoting('/Users/shokishoki/development/consensys/distribute/contracts/contracts/library/PLCRVoting.sol',205);\n    __AssertPreCoveragePLCRVoting('/Users/shokishoki/development/consensys/distribute/contracts/contracts/library/PLCRVoting.sol',18);\n __StatementCoveragePLCRVoting('/Users/shokishoki/development/consensys/distribute/contracts/contracts/library/PLCRVoting.sol',39);\nrequire(!hasBeenRevealed(msg.sender, _pollID));__AssertPostCoveragePLCRVoting('/Users/shokishoki/development/consensys/distribute/contracts/contracts/library/PLCRVoting.sol',18);\n                        // prevent user from revealing multiple times\r\n__CoveragePLCRVoting('/Users/shokishoki/development/consensys/distribute/contracts/contracts/library/PLCRVoting.sol',206);\n    __AssertPreCoveragePLCRVoting('/Users/shokishoki/development/consensys/distribute/contracts/contracts/library/PLCRVoting.sol',19);\n __StatementCoveragePLCRVoting('/Users/shokishoki/development/consensys/distribute/contracts/contracts/library/PLCRVoting.sol',40);\nrequire(keccak256(_voteOption, _salt) == getCommitHash(msg.sender, _pollID));__AssertPostCoveragePLCRVoting('/Users/shokishoki/development/consensys/distribute/contracts/contracts/library/PLCRVoting.sol',19);\n // compare resultant hash from inputs to original commitHash\r\n\r\n__CoveragePLCRVoting('/Users/shokishoki/development/consensys/distribute/contracts/contracts/library/PLCRVoting.sol',208);\n     __StatementCoveragePLCRVoting('/Users/shokishoki/development/consensys/distribute/contracts/contracts/library/PLCRVoting.sol',41);\nuint numTokens = getNumTokens(msg.sender, _pollID);\r\n\r\n__CoveragePLCRVoting('/Users/shokishoki/development/consensys/distribute/contracts/contracts/library/PLCRVoting.sol',210);\n     __StatementCoveragePLCRVoting('/Users/shokishoki/development/consensys/distribute/contracts/contracts/library/PLCRVoting.sol',42);\nif (_voteOption == 1) // apply numTokens to appropriate poll choice\r\n        { __StatementCoveragePLCRVoting('/Users/shokishoki/development/consensys/distribute/contracts/contracts/library/PLCRVoting.sol',43);\n__BranchCoveragePLCRVoting('/Users/shokishoki/development/consensys/distribute/contracts/contracts/library/PLCRVoting.sol',20,0);__CoveragePLCRVoting('/Users/shokishoki/development/consensys/distribute/contracts/contracts/library/PLCRVoting.sol',211);\npollMap[_pollID].votesFor += numTokens;}\r\n    else\r\n        { __StatementCoveragePLCRVoting('/Users/shokishoki/development/consensys/distribute/contracts/contracts/library/PLCRVoting.sol',44);\n__BranchCoveragePLCRVoting('/Users/shokishoki/development/consensys/distribute/contracts/contracts/library/PLCRVoting.sol',20,1);__CoveragePLCRVoting('/Users/shokishoki/development/consensys/distribute/contracts/contracts/library/PLCRVoting.sol',213);\npollMap[_pollID].votesAgainst += numTokens;}\r\n\r\n__CoveragePLCRVoting('/Users/shokishoki/development/consensys/distribute/contracts/contracts/library/PLCRVoting.sol',215);\n    dllMap[msg.sender].remove(_pollID); // remove the node referring to this vote upon reveal\r\n\r\n__CoveragePLCRVoting('/Users/shokishoki/development/consensys/distribute/contracts/contracts/library/PLCRVoting.sol',217);\n     __StatementCoveragePLCRVoting('/Users/shokishoki/development/consensys/distribute/contracts/contracts/library/PLCRVoting.sol',45);\nVoteRevealed(msg.sender, _pollID, numTokens, _voteOption);\r\n    }\r\n\r\n    /**\r\n    @param _pollID Integer identifier associated with target poll\r\n    @param _salt Arbitrarily chosen integer used to generate secretHash\r\n    @return correctVotes Number of tokens voted for winning option\r\n    */\r\n    function getNumPassingTokens(\r\n      address _voter,\r\n      uint _pollID,\r\n      uint _salt\r\n    ) public  returns (uint correctVotes) {__FunctionCoveragePLCRVoting('/Users/shokishoki/development/consensys/distribute/contracts/contracts/library/PLCRVoting.sol',11);\n\r\n__CoveragePLCRVoting('/Users/shokishoki/development/consensys/distribute/contracts/contracts/library/PLCRVoting.sol',230);\n        __AssertPreCoveragePLCRVoting('/Users/shokishoki/development/consensys/distribute/contracts/contracts/library/PLCRVoting.sol',21);\n __StatementCoveragePLCRVoting('/Users/shokishoki/development/consensys/distribute/contracts/contracts/library/PLCRVoting.sol',46);\nrequire(pollEnded(_pollID));__AssertPostCoveragePLCRVoting('/Users/shokishoki/development/consensys/distribute/contracts/contracts/library/PLCRVoting.sol',21);\n\r\n__CoveragePLCRVoting('/Users/shokishoki/development/consensys/distribute/contracts/contracts/library/PLCRVoting.sol',231);\n        __AssertPreCoveragePLCRVoting('/Users/shokishoki/development/consensys/distribute/contracts/contracts/library/PLCRVoting.sol',22);\n __StatementCoveragePLCRVoting('/Users/shokishoki/development/consensys/distribute/contracts/contracts/library/PLCRVoting.sol',47);\nrequire(hasBeenRevealed(_voter, _pollID));__AssertPostCoveragePLCRVoting('/Users/shokishoki/development/consensys/distribute/contracts/contracts/library/PLCRVoting.sol',22);\n\r\n__CoveragePLCRVoting('/Users/shokishoki/development/consensys/distribute/contracts/contracts/library/PLCRVoting.sol',232);\n         __StatementCoveragePLCRVoting('/Users/shokishoki/development/consensys/distribute/contracts/contracts/library/PLCRVoting.sol',48);\nuint winningChoice; (,winningChoice) = isPassed(_pollID) ? (__BranchCoveragePLCRVoting('/Users/shokishoki/development/consensys/distribute/contracts/contracts/library/PLCRVoting.sol',23,0),1) : (__BranchCoveragePLCRVoting('/Users/shokishoki/development/consensys/distribute/contracts/contracts/library/PLCRVoting.sol',23,1),0);\r\n__CoveragePLCRVoting('/Users/shokishoki/development/consensys/distribute/contracts/contracts/library/PLCRVoting.sol',233);\n         __StatementCoveragePLCRVoting('/Users/shokishoki/development/consensys/distribute/contracts/contracts/library/PLCRVoting.sol',49);\nbytes32 winnerHash = keccak256(winningChoice, _salt);\r\n__CoveragePLCRVoting('/Users/shokishoki/development/consensys/distribute/contracts/contracts/library/PLCRVoting.sol',234);\n         __StatementCoveragePLCRVoting('/Users/shokishoki/development/consensys/distribute/contracts/contracts/library/PLCRVoting.sol',50);\nbytes32 commitHash = getCommitHash(_voter, _pollID);\r\n\r\n__CoveragePLCRVoting('/Users/shokishoki/development/consensys/distribute/contracts/contracts/library/PLCRVoting.sol',236);\n         __StatementCoveragePLCRVoting('/Users/shokishoki/development/consensys/distribute/contracts/contracts/library/PLCRVoting.sol',51);\nreturn (winnerHash == commitHash) ? getNumTokens(_voter, _pollID) : 0;\r\n    }\r\n\r\n    // ==================\r\n    // POLLING INTERFACE:\r\n    // ==================\r\n\r\n    /**\r\n    @dev Initiates a poll with canonical configured parameters at pollID emitted by PollCreated event\r\n    @param _voteQuorum Type of majority (out of 100) that is necessary for poll to be successful\r\n    @param _commitDuration Length of desired commit period in seconds\r\n    @param _revealDuration Length of desired reveal period in seconds\r\n    */\r\n    function startPoll(\r\n      uint _voteQuorum,\r\n      uint _commitDuration,\r\n      uint _revealDuration\r\n    ) public returns (uint pollID) {__FunctionCoveragePLCRVoting('/Users/shokishoki/development/consensys/distribute/contracts/contracts/library/PLCRVoting.sol',12);\n\r\n__CoveragePLCRVoting('/Users/shokishoki/development/consensys/distribute/contracts/contracts/library/PLCRVoting.sol',254);\n        __AssertPreCoveragePLCRVoting('/Users/shokishoki/development/consensys/distribute/contracts/contracts/library/PLCRVoting.sol',24);\n __StatementCoveragePLCRVoting('/Users/shokishoki/development/consensys/distribute/contracts/contracts/library/PLCRVoting.sol',52);\nrequire(msg.sender == projectRegistry);__AssertPostCoveragePLCRVoting('/Users/shokishoki/development/consensys/distribute/contracts/contracts/library/PLCRVoting.sol',24);\n\r\n\r\n__CoveragePLCRVoting('/Users/shokishoki/development/consensys/distribute/contracts/contracts/library/PLCRVoting.sol',256);\n         __StatementCoveragePLCRVoting('/Users/shokishoki/development/consensys/distribute/contracts/contracts/library/PLCRVoting.sol',53);\npollNonce = pollNonce + 1;\r\n__CoveragePLCRVoting('/Users/shokishoki/development/consensys/distribute/contracts/contracts/library/PLCRVoting.sol',257);\n         __StatementCoveragePLCRVoting('/Users/shokishoki/development/consensys/distribute/contracts/contracts/library/PLCRVoting.sol',54);\npollMap[pollNonce] = Poll({\r\n            voteQuorum: _voteQuorum,\r\n            commitEndDate: block.timestamp + _commitDuration,\r\n            revealEndDate: block.timestamp + _commitDuration + _revealDuration,\r\n            votesFor: 0,\r\n            votesAgainst: 0\r\n        });\r\n__CoveragePLCRVoting('/Users/shokishoki/development/consensys/distribute/contracts/contracts/library/PLCRVoting.sol',264);\n         __StatementCoveragePLCRVoting('/Users/shokishoki/development/consensys/distribute/contracts/contracts/library/PLCRVoting.sol',55);\nPollCreated(_voteQuorum, _commitDuration, _revealDuration, pollNonce);\r\n__CoveragePLCRVoting('/Users/shokishoki/development/consensys/distribute/contracts/contracts/library/PLCRVoting.sol',265);\n         __StatementCoveragePLCRVoting('/Users/shokishoki/development/consensys/distribute/contracts/contracts/library/PLCRVoting.sol',56);\nreturn pollNonce;\r\n    }\r\n\r\n    /**\r\n    @notice Determines if proposal has passed\r\n    @dev Check if votesFor out of totalVotes exceeds votesQuorum (requires pollEnded)\r\n    @param _pollID Integer identifier associated with target poll\r\n    */\r\n    function isPassed(uint _pollID) onlyTRRR()  public returns (bool passed) {__FunctionCoveragePLCRVoting('/Users/shokishoki/development/consensys/distribute/contracts/contracts/library/PLCRVoting.sol',13);\n\r\n__CoveragePLCRVoting('/Users/shokishoki/development/consensys/distribute/contracts/contracts/library/PLCRVoting.sol',274);\n        __AssertPreCoveragePLCRVoting('/Users/shokishoki/development/consensys/distribute/contracts/contracts/library/PLCRVoting.sol',25);\n __StatementCoveragePLCRVoting('/Users/shokishoki/development/consensys/distribute/contracts/contracts/library/PLCRVoting.sol',57);\nrequire(msg.sender == tokenRegistry);__AssertPostCoveragePLCRVoting('/Users/shokishoki/development/consensys/distribute/contracts/contracts/library/PLCRVoting.sol',25);\n\r\n__CoveragePLCRVoting('/Users/shokishoki/development/consensys/distribute/contracts/contracts/library/PLCRVoting.sol',275);\n        __AssertPreCoveragePLCRVoting('/Users/shokishoki/development/consensys/distribute/contracts/contracts/library/PLCRVoting.sol',26);\n __StatementCoveragePLCRVoting('/Users/shokishoki/development/consensys/distribute/contracts/contracts/library/PLCRVoting.sol',58);\nrequire(pollEnded(_pollID));__AssertPostCoveragePLCRVoting('/Users/shokishoki/development/consensys/distribute/contracts/contracts/library/PLCRVoting.sol',26);\n\r\n\r\n__CoveragePLCRVoting('/Users/shokishoki/development/consensys/distribute/contracts/contracts/library/PLCRVoting.sol',277);\n         __StatementCoveragePLCRVoting('/Users/shokishoki/development/consensys/distribute/contracts/contracts/library/PLCRVoting.sol',59);\nPoll memory poll = pollMap[_pollID];\r\n__CoveragePLCRVoting('/Users/shokishoki/development/consensys/distribute/contracts/contracts/library/PLCRVoting.sol',278);\n         __StatementCoveragePLCRVoting('/Users/shokishoki/development/consensys/distribute/contracts/contracts/library/PLCRVoting.sol',60);\nreturn (100 * poll.votesFor) > (poll.voteQuorum * (poll.votesFor + poll.votesAgainst));\r\n    }\r\n\r\n    // ----------------\r\n    // POLLING HELPERS:\r\n    // ----------------\r\n\r\n    /**\r\n    @dev Gets the total winning votes for reward distribution purposes\r\n    @param _pollID Integer identifier associated with target poll\r\n    @return Total number of votes committed to the winning option for specified poll\r\n    */\r\n    function getTotalNumberOfTokensForWinningOption(uint _pollID)  public returns (uint numTokens) {__FunctionCoveragePLCRVoting('/Users/shokishoki/development/consensys/distribute/contracts/contracts/library/PLCRVoting.sol',14);\n\r\n__CoveragePLCRVoting('/Users/shokishoki/development/consensys/distribute/contracts/contracts/library/PLCRVoting.sol',291);\n        __AssertPreCoveragePLCRVoting('/Users/shokishoki/development/consensys/distribute/contracts/contracts/library/PLCRVoting.sol',27);\n __StatementCoveragePLCRVoting('/Users/shokishoki/development/consensys/distribute/contracts/contracts/library/PLCRVoting.sol',61);\nrequire(pollEnded(_pollID));__AssertPostCoveragePLCRVoting('/Users/shokishoki/development/consensys/distribute/contracts/contracts/library/PLCRVoting.sol',27);\n\r\n\r\n__CoveragePLCRVoting('/Users/shokishoki/development/consensys/distribute/contracts/contracts/library/PLCRVoting.sol',293);\n         __StatementCoveragePLCRVoting('/Users/shokishoki/development/consensys/distribute/contracts/contracts/library/PLCRVoting.sol',62);\nif (isPassed(_pollID))\r\n            { __StatementCoveragePLCRVoting('/Users/shokishoki/development/consensys/distribute/contracts/contracts/library/PLCRVoting.sol',63);\n__BranchCoveragePLCRVoting('/Users/shokishoki/development/consensys/distribute/contracts/contracts/library/PLCRVoting.sol',28,0);__CoveragePLCRVoting('/Users/shokishoki/development/consensys/distribute/contracts/contracts/library/PLCRVoting.sol',294);\nreturn pollMap[_pollID].votesFor;}\r\n        else\r\n            { __StatementCoveragePLCRVoting('/Users/shokishoki/development/consensys/distribute/contracts/contracts/library/PLCRVoting.sol',64);\n__BranchCoveragePLCRVoting('/Users/shokishoki/development/consensys/distribute/contracts/contracts/library/PLCRVoting.sol',28,1);__CoveragePLCRVoting('/Users/shokishoki/development/consensys/distribute/contracts/contracts/library/PLCRVoting.sol',296);\nreturn pollMap[_pollID].votesAgainst;}\r\n    }\r\n\r\n    /**\r\n    @notice Determines if poll is over\r\n    @dev Checks isExpired for specified poll's revealEndDate\r\n    @return Boolean indication of whether polling period is over\r\n    */\r\n    function pollEnded(uint _pollID)  public returns (bool ended) {__FunctionCoveragePLCRVoting('/Users/shokishoki/development/consensys/distribute/contracts/contracts/library/PLCRVoting.sol',15);\n\r\n__CoveragePLCRVoting('/Users/shokishoki/development/consensys/distribute/contracts/contracts/library/PLCRVoting.sol',305);\n        __AssertPreCoveragePLCRVoting('/Users/shokishoki/development/consensys/distribute/contracts/contracts/library/PLCRVoting.sol',29);\n __StatementCoveragePLCRVoting('/Users/shokishoki/development/consensys/distribute/contracts/contracts/library/PLCRVoting.sol',65);\nrequire(pollExists(_pollID));__AssertPostCoveragePLCRVoting('/Users/shokishoki/development/consensys/distribute/contracts/contracts/library/PLCRVoting.sol',29);\n\r\n\r\n__CoveragePLCRVoting('/Users/shokishoki/development/consensys/distribute/contracts/contracts/library/PLCRVoting.sol',307);\n         __StatementCoveragePLCRVoting('/Users/shokishoki/development/consensys/distribute/contracts/contracts/library/PLCRVoting.sol',66);\nreturn isExpired(pollMap[_pollID].revealEndDate);\r\n    }\r\n\r\n    /**\r\n    @notice Checks if the commit period is still active for the specified poll\r\n    @dev Checks isExpired for the specified poll's commitEndDate\r\n    @param _pollID Integer identifier associated with target poll\r\n    @return Boolean indication of isCommitPeriodActive for target poll\r\n    */\r\n    function commitPeriodActive(uint _pollID)  public returns (bool active) {__FunctionCoveragePLCRVoting('/Users/shokishoki/development/consensys/distribute/contracts/contracts/library/PLCRVoting.sol',16);\n\r\n__CoveragePLCRVoting('/Users/shokishoki/development/consensys/distribute/contracts/contracts/library/PLCRVoting.sol',317);\n        __AssertPreCoveragePLCRVoting('/Users/shokishoki/development/consensys/distribute/contracts/contracts/library/PLCRVoting.sol',30);\n __StatementCoveragePLCRVoting('/Users/shokishoki/development/consensys/distribute/contracts/contracts/library/PLCRVoting.sol',67);\nrequire(pollExists(_pollID));__AssertPostCoveragePLCRVoting('/Users/shokishoki/development/consensys/distribute/contracts/contracts/library/PLCRVoting.sol',30);\n\r\n\r\n__CoveragePLCRVoting('/Users/shokishoki/development/consensys/distribute/contracts/contracts/library/PLCRVoting.sol',319);\n         __StatementCoveragePLCRVoting('/Users/shokishoki/development/consensys/distribute/contracts/contracts/library/PLCRVoting.sol',68);\nreturn !isExpired(pollMap[_pollID].commitEndDate);\r\n    }\r\n\r\n    /**\r\n    @notice Checks if the reveal period is still active for the specified poll\r\n    @dev Checks isExpired for the specified poll's revealEndDate\r\n    @param _pollID Integer identifier associated with target poll\r\n    */\r\n    function revealPeriodActive(uint _pollID)  public returns (bool active) {__FunctionCoveragePLCRVoting('/Users/shokishoki/development/consensys/distribute/contracts/contracts/library/PLCRVoting.sol',17);\n\r\n__CoveragePLCRVoting('/Users/shokishoki/development/consensys/distribute/contracts/contracts/library/PLCRVoting.sol',328);\n        __AssertPreCoveragePLCRVoting('/Users/shokishoki/development/consensys/distribute/contracts/contracts/library/PLCRVoting.sol',31);\n __StatementCoveragePLCRVoting('/Users/shokishoki/development/consensys/distribute/contracts/contracts/library/PLCRVoting.sol',69);\nrequire(pollExists(_pollID));__AssertPostCoveragePLCRVoting('/Users/shokishoki/development/consensys/distribute/contracts/contracts/library/PLCRVoting.sol',31);\n\r\n\r\n__CoveragePLCRVoting('/Users/shokishoki/development/consensys/distribute/contracts/contracts/library/PLCRVoting.sol',330);\n         __StatementCoveragePLCRVoting('/Users/shokishoki/development/consensys/distribute/contracts/contracts/library/PLCRVoting.sol',70);\nreturn !isExpired(pollMap[_pollID].revealEndDate) && !commitPeriodActive(_pollID);\r\n    }\r\n\r\n    /**\r\n    @dev Checks if user has already revealed for specified poll\r\n    @param _voter Address of user to check against\r\n    @param _pollID Integer identifier associated with target poll\r\n    @return Boolean indication of whether user has already revealed\r\n    */\r\n    function hasBeenRevealed(address _voter, uint _pollID)  public returns (bool revealed) {__FunctionCoveragePLCRVoting('/Users/shokishoki/development/consensys/distribute/contracts/contracts/library/PLCRVoting.sol',18);\n\r\n__CoveragePLCRVoting('/Users/shokishoki/development/consensys/distribute/contracts/contracts/library/PLCRVoting.sol',340);\n        __AssertPreCoveragePLCRVoting('/Users/shokishoki/development/consensys/distribute/contracts/contracts/library/PLCRVoting.sol',32);\n __StatementCoveragePLCRVoting('/Users/shokishoki/development/consensys/distribute/contracts/contracts/library/PLCRVoting.sol',71);\nrequire(pollExists(_pollID));__AssertPostCoveragePLCRVoting('/Users/shokishoki/development/consensys/distribute/contracts/contracts/library/PLCRVoting.sol',32);\n\r\n\r\n__CoveragePLCRVoting('/Users/shokishoki/development/consensys/distribute/contracts/contracts/library/PLCRVoting.sol',342);\n         __StatementCoveragePLCRVoting('/Users/shokishoki/development/consensys/distribute/contracts/contracts/library/PLCRVoting.sol',72);\nuint prevID = dllMap[_voter].getPrev(_pollID);\r\n__CoveragePLCRVoting('/Users/shokishoki/development/consensys/distribute/contracts/contracts/library/PLCRVoting.sol',343);\n         __StatementCoveragePLCRVoting('/Users/shokishoki/development/consensys/distribute/contracts/contracts/library/PLCRVoting.sol',73);\nuint nextID = dllMap[_voter].getNext(_pollID);\r\n\r\n__CoveragePLCRVoting('/Users/shokishoki/development/consensys/distribute/contracts/contracts/library/PLCRVoting.sol',345);\n         __StatementCoveragePLCRVoting('/Users/shokishoki/development/consensys/distribute/contracts/contracts/library/PLCRVoting.sol',74);\nreturn (prevID == _pollID) && (nextID == _pollID);\r\n    }\r\n\r\n    /**\r\n    @dev Checks if a poll exists, throws if the provided poll is in an impossible state\r\n    @param _pollID The pollID whose existance is to be evaluated.\r\n    @return Boolean Indicates whether a poll exists for the provided pollID\r\n    */\r\n    function pollExists(uint _pollID)  public returns (bool exists) {__FunctionCoveragePLCRVoting('/Users/shokishoki/development/consensys/distribute/contracts/contracts/library/PLCRVoting.sol',19);\n\r\n__CoveragePLCRVoting('/Users/shokishoki/development/consensys/distribute/contracts/contracts/library/PLCRVoting.sol',354);\n         __StatementCoveragePLCRVoting('/Users/shokishoki/development/consensys/distribute/contracts/contracts/library/PLCRVoting.sol',75);\nuint commitEndDate = pollMap[_pollID].commitEndDate;\r\n__CoveragePLCRVoting('/Users/shokishoki/development/consensys/distribute/contracts/contracts/library/PLCRVoting.sol',355);\n         __StatementCoveragePLCRVoting('/Users/shokishoki/development/consensys/distribute/contracts/contracts/library/PLCRVoting.sol',76);\nuint revealEndDate = pollMap[_pollID].revealEndDate;\r\n\r\n__CoveragePLCRVoting('/Users/shokishoki/development/consensys/distribute/contracts/contracts/library/PLCRVoting.sol',357);\n        __AssertPreCoveragePLCRVoting('/Users/shokishoki/development/consensys/distribute/contracts/contracts/library/PLCRVoting.sol',33);\n __StatementCoveragePLCRVoting('/Users/shokishoki/development/consensys/distribute/contracts/contracts/library/PLCRVoting.sol',77);\nassert(!(commitEndDate == 0 && revealEndDate != 0));__AssertPostCoveragePLCRVoting('/Users/shokishoki/development/consensys/distribute/contracts/contracts/library/PLCRVoting.sol',33);\n\r\n__CoveragePLCRVoting('/Users/shokishoki/development/consensys/distribute/contracts/contracts/library/PLCRVoting.sol',358);\n        __AssertPreCoveragePLCRVoting('/Users/shokishoki/development/consensys/distribute/contracts/contracts/library/PLCRVoting.sol',34);\n __StatementCoveragePLCRVoting('/Users/shokishoki/development/consensys/distribute/contracts/contracts/library/PLCRVoting.sol',78);\nassert(!(commitEndDate != 0 && revealEndDate == 0));__AssertPostCoveragePLCRVoting('/Users/shokishoki/development/consensys/distribute/contracts/contracts/library/PLCRVoting.sol',34);\n\r\n\r\n__CoveragePLCRVoting('/Users/shokishoki/development/consensys/distribute/contracts/contracts/library/PLCRVoting.sol',360);\n         __StatementCoveragePLCRVoting('/Users/shokishoki/development/consensys/distribute/contracts/contracts/library/PLCRVoting.sol',79);\nif(commitEndDate == 0 || revealEndDate == 0) {__BranchCoveragePLCRVoting('/Users/shokishoki/development/consensys/distribute/contracts/contracts/library/PLCRVoting.sol',35,0);  __StatementCoveragePLCRVoting('/Users/shokishoki/development/consensys/distribute/contracts/contracts/library/PLCRVoting.sol',80);\nreturn false; }else { __BranchCoveragePLCRVoting('/Users/shokishoki/development/consensys/distribute/contracts/contracts/library/PLCRVoting.sol',35,1);}\n\r\n__CoveragePLCRVoting('/Users/shokishoki/development/consensys/distribute/contracts/contracts/library/PLCRVoting.sol',361);\n         __StatementCoveragePLCRVoting('/Users/shokishoki/development/consensys/distribute/contracts/contracts/library/PLCRVoting.sol',81);\nreturn true;\r\n    }\r\n\r\n    // ---------------------------\r\n    // DOUBLE-LINKED-LIST HELPERS:\r\n    // ---------------------------\r\n\r\n    /**\r\n    @dev Gets the bytes32 commitHash property of target poll\r\n    @param _voter Address of user to check against\r\n    @param _pollID Integer identifier associated with target poll\r\n    @return Bytes32 hash property attached to target poll\r\n    */\r\n    function getCommitHash(address _voter, uint _pollID)  public returns (bytes32 commitHash) {__FunctionCoveragePLCRVoting('/Users/shokishoki/development/consensys/distribute/contracts/contracts/library/PLCRVoting.sol',20);\n\r\n__CoveragePLCRVoting('/Users/shokishoki/development/consensys/distribute/contracts/contracts/library/PLCRVoting.sol',375);\n         __StatementCoveragePLCRVoting('/Users/shokishoki/development/consensys/distribute/contracts/contracts/library/PLCRVoting.sol',82);\nreturn bytes32(store.getAttribute(attrUUID(_voter, _pollID), \"commitHash\"));\r\n    }\r\n\r\n    /**\r\n    @dev Wrapper for getAttribute with attrName=\"numTokens\"\r\n    @param _voter Address of user to check against\r\n    @param _pollID Integer identifier associated with target poll\r\n    @return Number of tokens committed to poll in sorted poll-linked-list\r\n    */\r\n    function getNumTokens(address _voter, uint _pollID)  public returns (uint numTokens) {__FunctionCoveragePLCRVoting('/Users/shokishoki/development/consensys/distribute/contracts/contracts/library/PLCRVoting.sol',21);\n\r\n__CoveragePLCRVoting('/Users/shokishoki/development/consensys/distribute/contracts/contracts/library/PLCRVoting.sol',385);\n         __StatementCoveragePLCRVoting('/Users/shokishoki/development/consensys/distribute/contracts/contracts/library/PLCRVoting.sol',83);\nreturn store.getAttribute(attrUUID(_voter, _pollID), \"numTokens\");\r\n    }\r\n\r\n    /**\r\n    @dev Gets top element of sorted poll-linked-list\r\n    @param _voter Address of user to check against\r\n    @return Integer identifier to poll with maximum number of tokens committed to it\r\n    */\r\n    function getLastNode(address _voter)  public returns (uint pollID) {__FunctionCoveragePLCRVoting('/Users/shokishoki/development/consensys/distribute/contracts/contracts/library/PLCRVoting.sol',22);\n\r\n__CoveragePLCRVoting('/Users/shokishoki/development/consensys/distribute/contracts/contracts/library/PLCRVoting.sol',394);\n         __StatementCoveragePLCRVoting('/Users/shokishoki/development/consensys/distribute/contracts/contracts/library/PLCRVoting.sol',84);\nreturn dllMap[_voter].getPrev(0);\r\n    }\r\n\r\n    /**\r\n    @dev Gets the numTokens property of getLastNode\r\n    @param _voter Address of user to check against\r\n    @return Maximum number of tokens committed in poll specified\r\n    */\r\n    function getLockedTokens(address _voter)  public returns (uint numTokens) {__FunctionCoveragePLCRVoting('/Users/shokishoki/development/consensys/distribute/contracts/contracts/library/PLCRVoting.sol',23);\n\r\n__CoveragePLCRVoting('/Users/shokishoki/development/consensys/distribute/contracts/contracts/library/PLCRVoting.sol',403);\n         __StatementCoveragePLCRVoting('/Users/shokishoki/development/consensys/distribute/contracts/contracts/library/PLCRVoting.sol',85);\nreturn getNumTokens(_voter, getLastNode(_voter));\r\n    }\r\n\r\n    /**\r\n    @dev Gets the prevNode a new node should be inserted after given the sort factor\r\n    @param _voter The voter whose DLL will be searched\r\n    @param _numTokens The value for the numTokens attribute in the node to be inserted\r\n    @return the node which the propoded node should be inserted after\r\n    */\r\n    function getInsertPointForNumTokens(\r\n        address _voter,\r\n        uint _numTokens\r\n    )  public returns (uint prevNode) {__FunctionCoveragePLCRVoting('/Users/shokishoki/development/consensys/distribute/contracts/contracts/library/PLCRVoting.sol',24);\n\r\n__CoveragePLCRVoting('/Users/shokishoki/development/consensys/distribute/contracts/contracts/library/PLCRVoting.sol',416);\n         __StatementCoveragePLCRVoting('/Users/shokishoki/development/consensys/distribute/contracts/contracts/library/PLCRVoting.sol',86);\nuint nodeID = getLastNode(_voter);\r\n__CoveragePLCRVoting('/Users/shokishoki/development/consensys/distribute/contracts/contracts/library/PLCRVoting.sol',417);\n         __StatementCoveragePLCRVoting('/Users/shokishoki/development/consensys/distribute/contracts/contracts/library/PLCRVoting.sol',87);\nuint tokensInNode = getNumTokens(_voter, nodeID);\r\n\r\n__CoveragePLCRVoting('/Users/shokishoki/development/consensys/distribute/contracts/contracts/library/PLCRVoting.sol',419);\n         __StatementCoveragePLCRVoting('/Users/shokishoki/development/consensys/distribute/contracts/contracts/library/PLCRVoting.sol',88);\nwhile(tokensInNode != 0) {\r\n__CoveragePLCRVoting('/Users/shokishoki/development/consensys/distribute/contracts/contracts/library/PLCRVoting.sol',420);\n             __StatementCoveragePLCRVoting('/Users/shokishoki/development/consensys/distribute/contracts/contracts/library/PLCRVoting.sol',89);\ntokensInNode = getNumTokens(_voter, nodeID);\r\n__CoveragePLCRVoting('/Users/shokishoki/development/consensys/distribute/contracts/contracts/library/PLCRVoting.sol',421);\n             __StatementCoveragePLCRVoting('/Users/shokishoki/development/consensys/distribute/contracts/contracts/library/PLCRVoting.sol',90);\nif(tokensInNode < _numTokens) {__BranchCoveragePLCRVoting('/Users/shokishoki/development/consensys/distribute/contracts/contracts/library/PLCRVoting.sol',36,0);  __StatementCoveragePLCRVoting('/Users/shokishoki/development/consensys/distribute/contracts/contracts/library/PLCRVoting.sol',91);\nreturn nodeID; }else { __BranchCoveragePLCRVoting('/Users/shokishoki/development/consensys/distribute/contracts/contracts/library/PLCRVoting.sol',36,1);}\n\r\n__CoveragePLCRVoting('/Users/shokishoki/development/consensys/distribute/contracts/contracts/library/PLCRVoting.sol',422);\n             __StatementCoveragePLCRVoting('/Users/shokishoki/development/consensys/distribute/contracts/contracts/library/PLCRVoting.sol',92);\nnodeID = dllMap[_voter].getPrev(nodeID);\r\n        }\r\n__CoveragePLCRVoting('/Users/shokishoki/development/consensys/distribute/contracts/contracts/library/PLCRVoting.sol',424);\n         __StatementCoveragePLCRVoting('/Users/shokishoki/development/consensys/distribute/contracts/contracts/library/PLCRVoting.sol',93);\nreturn nodeID;\r\n    }\r\n\r\n    // ----------------\r\n    // GENERAL HELPERS:\r\n    // ----------------\r\n\r\n    /**\r\n    @dev Checks if an expiration date has been reached\r\n    @param _terminationDate Integer timestamp of date to compare current timestamp with\r\n    @return expired Boolean indication of whether the terminationDate has passed\r\n    */\r\n    function isExpired(uint _terminationDate)  public returns (bool expired) {__FunctionCoveragePLCRVoting('/Users/shokishoki/development/consensys/distribute/contracts/contracts/library/PLCRVoting.sol',25);\n\r\n__CoveragePLCRVoting('/Users/shokishoki/development/consensys/distribute/contracts/contracts/library/PLCRVoting.sol',437);\n         __StatementCoveragePLCRVoting('/Users/shokishoki/development/consensys/distribute/contracts/contracts/library/PLCRVoting.sol',94);\nreturn (block.timestamp > _terminationDate);\r\n    }\r\n\r\n    /**\r\n    @dev Generates an identifier which associates a user and a poll together\r\n    @param _pollID Integer identifier associated with target poll\r\n    @return UUID Hash which is deterministic from _user and _pollID\r\n    */\r\n    function attrUUID(address _user, uint _pollID) public  returns (bytes32 UUID) {__FunctionCoveragePLCRVoting('/Users/shokishoki/development/consensys/distribute/contracts/contracts/library/PLCRVoting.sol',26);\n\r\n__CoveragePLCRVoting('/Users/shokishoki/development/consensys/distribute/contracts/contracts/library/PLCRVoting.sol',446);\n         __StatementCoveragePLCRVoting('/Users/shokishoki/development/consensys/distribute/contracts/contracts/library/PLCRVoting.sol',95);\nreturn keccak256(_user, _pollID);\r\n    }\r\n}\r\n","sourcePath":"/Users/shokishoki/development/consensys/distribute/contracts/coverageEnv/contracts/library/PLCRVoting.sol","compiler":{"name":"solc","version":"0.4.19+commit.c4cbbb05.Emscripten.clang"},"schemaVersion":"2.0.0","updatedAt":"2018-03-21T15:13:01.045Z"}