{"contractName":"ProjectLibrary","abi":[{"anonymous":false,"inputs":[{"indexed":false,"name":"staker","type":"address"},{"indexed":false,"name":"refund","type":"uint256"}],"name":"tokenRefund","type":"event"},{"anonymous":false,"inputs":[{"indexed":false,"name":"projectAddress","type":"address"},{"indexed":false,"name":"staker","type":"address"},{"indexed":false,"name":"refund","type":"uint256"}],"name":"reputationRefund","type":"event"},{"constant":true,"inputs":[{"name":"_projectAddress","type":"address"},{"name":"_staker","type":"address"}],"name":"isStaker","outputs":[{"name":"","type":"bool"}],"payable":false,"stateMutability":"view","type":"function"},{"constant":true,"inputs":[{"name":"_projectAddress","type":"address"}],"name":"isStaked","outputs":[{"name":"","type":"bool"}],"payable":false,"stateMutability":"view","type":"function"},{"constant":true,"inputs":[{"name":"_projectAddress","type":"address"}],"name":"timesUp","outputs":[{"name":"","type":"bool"}],"payable":false,"stateMutability":"view","type":"function"},{"constant":true,"inputs":[{"name":"_projectAddress","type":"address"},{"name":"_address","type":"address"}],"name":"calculateWeightOfAddress","outputs":[{"name":"","type":"uint256"}],"payable":false,"stateMutability":"view","type":"function"},{"constant":false,"inputs":[{"name":"_projectAddress","type":"address"}],"name":"checkStaked","outputs":[{"name":"","type":"bool"}],"payable":false,"stateMutability":"nonpayable","type":"function"},{"constant":false,"inputs":[{"name":"_projectAddress","type":"address"},{"name":"_taskHash","type":"bytes32"}],"name":"checkActive","outputs":[{"name":"","type":"bool"}],"payable":false,"stateMutability":"nonpayable","type":"function"},{"constant":false,"inputs":[{"name":"_projectAddress","type":"address"},{"name":"_tokenRegistryAddress","type":"address"},{"name":"_distributeTokenAddress","type":"address"}],"name":"checkValidate","outputs":[{"name":"","type":"bool"}],"payable":false,"stateMutability":"nonpayable","type":"function"},{"constant":false,"inputs":[{"name":"_projectAddress","type":"address"},{"name":"_tokenRegistryAddress","type":"address"},{"name":"_distributeTokenAddress","type":"address"},{"name":"_plcrVoting","type":"address"}],"name":"checkVoting","outputs":[{"name":"","type":"bool"}],"payable":false,"stateMutability":"nonpayable","type":"function"},{"constant":false,"inputs":[{"name":"_projectAddress","type":"address"},{"name":"_tokenRegistryAddress","type":"address"},{"name":"_distributeTokenAddress","type":"address"},{"name":"_plcrVoting","type":"address"}],"name":"checkEnd","outputs":[{"name":"","type":"bool"}],"payable":false,"stateMutability":"nonpayable","type":"function"},{"constant":false,"inputs":[{"name":"_projectAddress","type":"address"},{"name":"_validator","type":"address"},{"name":"_index","type":"uint256"},{"name":"_tokens","type":"uint256"},{"name":"_validationState","type":"bool"}],"name":"validate","outputs":[],"payable":false,"stateMutability":"nonpayable","type":"function"},{"constant":false,"inputs":[{"name":"_projectAddress","type":"address"}],"name":"calculatePassAmount","outputs":[{"name":"","type":"uint256"}],"payable":false,"stateMutability":"nonpayable","type":"function"},{"constant":false,"inputs":[{"name":"_projectAddress","type":"address"},{"name":"_index","type":"uint256"},{"name":"_claimer","type":"address"}],"name":"claimTaskReward","outputs":[{"name":"","type":"uint256"}],"payable":false,"stateMutability":"nonpayable","type":"function"},{"constant":false,"inputs":[{"name":"_projectAddress","type":"address"},{"name":"_staker","type":"address"}],"name":"refundStaker","outputs":[{"name":"","type":"uint256"}],"payable":false,"stateMutability":"nonpayable","type":"function"}],"bytecode":"0x606060405234156200001057600080fd5b62011ffd80620000216000396000f300606060405260043610620000d3576000357c0100000000000000000000000000000000000000000000000000000000900463ffffffff168063247f8e1414620000d857806325bc963e146200012057806343fa21d7146200018c5780636177fd1814620001ef5780637c6d052c14620002375780638e692ec314620002dc57806392fd3fbc1462000381578063989d1aa414620003c5578063a3ffcc47146200041a578063af8e4c76146200047d578063b61caa791462000503578063f60b0d5c146200056f578063f985921914620005d6575b600080fd5b62000106600480803573ffffffffffffffffffffffffffffffffffffffff169060200190919050506200061e565b604051808215151515815260200191505060405180910390f35b62000176600480803573ffffffffffffffffffffffffffffffffffffffff1690602001909190803590602001909190803573ffffffffffffffffffffffffffffffffffffffff1690602001909190505062001a3d565b6040518082815260200191505060405180910390f35b620001d9600480803573ffffffffffffffffffffffffffffffffffffffff1690602001909190803573ffffffffffffffffffffffffffffffffffffffff1690602001909190505062002b65565b6040518082815260200191505060405180910390f35b6200021d600480803573ffffffffffffffffffffffffffffffffffffffff1690602001909190505062003bd1565b604051808215151515815260200191505060405180910390f35b620002c2600480803573ffffffffffffffffffffffffffffffffffffffff1690602001909190803573ffffffffffffffffffffffffffffffffffffffff1690602001909190803573ffffffffffffffffffffffffffffffffffffffff1690602001909190803573ffffffffffffffffffffffffffffffffffffffff16906020019091905050620041c1565b604051808215151515815260200191505060405180910390f35b62000367600480803573ffffffffffffffffffffffffffffffffffffffff1690602001909190803573ffffffffffffffffffffffffffffffffffffffff1690602001909190803573ffffffffffffffffffffffffffffffffffffffff1690602001909190803573ffffffffffffffffffffffffffffffffffffffff1690602001909190505062006b56565b604051808215151515815260200191505060405180910390f35b620003af600480803573ffffffffffffffffffffffffffffffffffffffff169060200190919050506200993e565b6040518082815260200191505060405180910390f35b62000400600480803573ffffffffffffffffffffffffffffffffffffffff16906020019091908035600019169060200190919050506200abac565b604051808215151515815260200191505060405180910390f35b62000467600480803573ffffffffffffffffffffffffffffffffffffffff1690602001909190803573ffffffffffffffffffffffffffffffffffffffff169060200190919050506200c011565b6040518082815260200191505060405180910390f35b620004e9600480803573ffffffffffffffffffffffffffffffffffffffff1690602001909190803573ffffffffffffffffffffffffffffffffffffffff1690602001909190803573ffffffffffffffffffffffffffffffffffffffff169060200190919050506200d1f1565b604051808215151515815260200191505060405180910390f35b6200056d600480803573ffffffffffffffffffffffffffffffffffffffff1690602001909190803573ffffffffffffffffffffffffffffffffffffffff1690602001909190803590602001909190803590602001909190803515159060200190919050506200f149565b005b620005bc600480803573ffffffffffffffffffffffffffffffffffffffff1690602001909190803573ffffffffffffffffffffffffffffffffffffffff16906020019091905050620100c8565b604051808215151515815260200191505060405180910390f35b62000604600480803573ffffffffffffffffffffffffffffffffffffffff1690602001909190505062010616565b604051808215151515815260200191505060405180910390f35b60008060007fbd44212b1b989052c33c25cccc05dc159c494e554409c9c7966d0ed3dc6b3cc560056040518080602001838152602001828103825260598152602001807f2f55736572732f73686f6b6973686f6b692f646576656c6f706d656e742f636f81526020017f6e73656e7379732f646973747269627574652f636f6e7472616374732f636f6e81526020017f7472616374732f50726f6a6563744c6962726172792e736f6c000000000000008152506060019250505060405180910390a17f32187d72afafe61c1e816d517e7c31bd33466eff90ade1495c8f52129f5499f960656040518080602001838152602001828103825260598152602001807f2f55736572732f73686f6b6973686f6b692f646576656c6f706d656e742f636f81526020017f6e73656e7379732f646973747269627574652f636f6e7472616374732f636f6e81526020017f7472616374732f50726f6a6563744c6962726172792e736f6c000000000000008152506060019250505060405180910390a17fc3583d53b6a7f4e85b847b51e286c3de3aacbbc9f400e592fffb1ca83050e92f600a6040518080602001838152602001828103825260598152602001807f2f55736572732f73686f6b6973686f6b692f646576656c6f706d656e742f636f81526020017f6e73656e7379732f646973747269627574652f636f6e7472616374732f636f6e81526020017f7472616374732f50726f6a6563744c6962726172792e736f6c000000000000008152506060019250505060405180910390a18391507f32187d72afafe61c1e816d517e7c31bd33466eff90ade1495c8f52129f5499f960666040518080602001838152602001828103825260598152602001807f2f55736572732f73686f6b6973686f6b692f646576656c6f706d656e742f636f81526020017f6e73656e7379732f646973747269627574652f636f6e7472616374732f636f6e81526020017f7472616374732f50726f6a6563744c6962726172792e736f6c000000000000008152506060019250505060405180910390a17f2865773bd2bcc54b1fabefafb2d62a1bbb5bba42cf0ffe6cd769772ac9d1250b60036040518080602001838152602001828103825260598152602001807f2f55736572732f73686f6b6973686f6b692f646576656c6f706d656e742f636f81526020017f6e73656e7379732f646973747269627574652f636f6e7472616374732f636f6e81526020017f7472616374732f50726f6a6563744c6962726172792e736f6c000000000000008152506060019250505060405180910390a17fc3583d53b6a7f4e85b847b51e286c3de3aacbbc9f400e592fffb1ca83050e92f600b6040518080602001838152602001828103825260598152602001807f2f55736572732f73686f6b6973686f6b692f646576656c6f706d656e742f636f81526020017f6e73656e7379732f646973747269627574652f636f6e7472616374732f636f6e81526020017f7472616374732f50726f6a6563744c6962726172792e736f6c000000000000008152506060019250505060405180910390a160018273ffffffffffffffffffffffffffffffffffffffff1663c19d93fb6000604051602001526040518163ffffffff167c0100000000000000000000000000000000000000000000000000000000028152600401602060405180830381600087803b151562000b0357600080fd5b6102c65a03f1151562000b1557600080fd5b5050506040518051905014151562000b2c57600080fd5b7f631dd81baf3474bcc9608bc2a049645125fe359730ea7452a7ef89ef9e5cafe960036040518080602001838152602001828103825260598152602001807f2f55736572732f73686f6b6973686f6b692f646576656c6f706d656e742f636f81526020017f6e73656e7379732f646973747269627574652f636f6e7472616374732f636f6e81526020017f7472616374732f50726f6a6563744c6962726172792e736f6c000000000000008152506060019250505060405180910390a17f32187d72afafe61c1e816d517e7c31bd33466eff90ade1495c8f52129f5499f960686040518080602001838152602001828103825260598152602001807f2f55736572732f73686f6b6973686f6b692f646576656c6f706d656e742f636f81526020017f6e73656e7379732f646973747269627574652f636f6e7472616374732f636f6e81526020017f7472616374732f50726f6a6563744c6962726172792e736f6c000000000000008152506060019250505060405180910390a17fc3583d53b6a7f4e85b847b51e286c3de3aacbbc9f400e592fffb1ca83050e92f600c6040518080602001838152602001828103825260598152602001807f2f55736572732f73686f6b6973686f6b692f646576656c6f706d656e742f636f81526020017f6e73656e7379732f646973747269627574652f636f6e7472616374732f636f6e81526020017f7472616374732f50726f6a6563744c6962726172792e736f6c000000000000008152506060019250505060405180910390a162000d6e8462003bd1565b156200130f577f5c87c330914c4ad33602a62f96e5c2c7010d100ff52c4cc4b2b3228973117c87600460006040518080602001848152602001838152602001828103825260598152602001807f2f55736572732f73686f6b6973686f6b692f646576656c6f706d656e742f636f81526020017f6e73656e7379732f646973747269627574652f636f6e7472616374732f636f6e81526020017f7472616374732f50726f6a6563744c6962726172792e736f6c00000000000000815250606001935050505060405180910390a17f32187d72afafe61c1e816d517e7c31bd33466eff90ade1495c8f52129f5499f960696040518080602001838152602001828103825260598152602001807f2f55736572732f73686f6b6973686f6b692f646576656c6f706d656e742f636f81526020017f6e73656e7379732f646973747269627574652f636f6e7472616374732f636f6e81526020017f7472616374732f50726f6a6563744c6962726172792e736f6c000000000000008152506060019250505060405180910390a17fc3583d53b6a7f4e85b847b51e286c3de3aacbbc9f400e592fffb1ca83050e92f600d6040518080602001838152602001828103825260598152602001807f2f55736572732f73686f6b6973686f6b692f646576656c6f706d656e742f636f81526020017f6e73656e7379732f646973747269627574652f636f6e7472616374732f636f6e81526020017f7472616374732f50726f6a6563744c6962726172792e736f6c000000000000008152506060019250505060405180910390a18173ffffffffffffffffffffffffffffffffffffffff1663710c096e6000604051602001526040518163ffffffff167c0100000000000000000000000000000000000000000000000000000000028152600401602060405180830381600087803b15156200102157600080fd5b6102c65a03f115156200103357600080fd5b50505060405180519050420190507f32187d72afafe61c1e816d517e7c31bd33466eff90ade1495c8f52129f5499f9606a6040518080602001838152602001828103825260598152602001807f2f55736572732f73686f6b6973686f6b692f646576656c6f706d656e742f636f81526020017f6e73656e7379732f646973747269627574652f636f6e7472616374732f636f6e81526020017f7472616374732f50726f6a6563744c6962726172792e736f6c000000000000008152506060019250505060405180910390a18173ffffffffffffffffffffffffffffffffffffffff1663b9d77bfc6002836040518363ffffffff167c01000000000000000000000000000000000000000000000000000000000281526004018083815260200182815260200192505050600060405180830381600087803b15156200117657600080fd5b6102c65a03f115156200118857600080fd5b5050507f32187d72afafe61c1e816d517e7c31bd33466eff90ade1495c8f52129f5499f9606b6040518080602001838152602001828103825260598152602001807f2f55736572732f73686f6b6973686f6b692f646576656c6f706d656e742f636f81526020017f6e73656e7379732f646973747269627574652f636f6e7472616374732f636f6e81526020017f7472616374732f50726f6a6563744c6962726172792e736f6c000000000000008152506060019250505060405180910390a17fc3583d53b6a7f4e85b847b51e286c3de3aacbbc9f400e592fffb1ca83050e92f600e6040518080602001838152602001828103825260598152602001807f2f55736572732f73686f6b6973686f6b692f646576656c6f706d656e742f636f81526020017f6e73656e7379732f646973747269627574652f636f6e7472616374732f636f6e81526020017f7472616374732f50726f6a6563744c6962726172792e736f6c000000000000008152506060019250505060405180910390a16001925062001a36565b7fc3583d53b6a7f4e85b847b51e286c3de3aacbbc9f400e592fffb1ca83050e92f600f6040518080602001838152602001828103825260598152602001807f2f55736572732f73686f6b6973686f6b692f646576656c6f706d656e742f636f81526020017f6e73656e7379732f646973747269627574652f636f6e7472616374732f636f6e81526020017f7472616374732f50726f6a6563744c6962726172792e736f6c000000000000008152506060019250505060405180910390a17f5c87c330914c4ad33602a62f96e5c2c7010d100ff52c4cc4b2b3228973117c87600460016040518080602001848152602001838152602001828103825260598152602001807f2f55736572732f73686f6b6973686f6b692f646576656c6f706d656e742f636f81526020017f6e73656e7379732f646973747269627574652f636f6e7472616374732f636f6e81526020017f7472616374732f50726f6a6563744c6962726172792e736f6c00000000000000815250606001935050505060405180910390a16200149d8462010616565b15620017f0577f5c87c330914c4ad33602a62f96e5c2c7010d100ff52c4cc4b2b3228973117c87600560006040518080602001848152602001838152602001828103825260598152602001807f2f55736572732f73686f6b6973686f6b692f646576656c6f706d656e742f636f81526020017f6e73656e7379732f646973747269627574652f636f6e7472616374732f636f6e81526020017f7472616374732f50726f6a6563744c6962726172792e736f6c00000000000000815250606001935050505060405180910390a17f32187d72afafe61c1e816d517e7c31bd33466eff90ade1495c8f52129f5499f9606d6040518080602001838152602001828103825260598152602001807f2f55736572732f73686f6b6973686f6b692f646576656c6f706d656e742f636f81526020017f6e73656e7379732f646973747269627574652f636f6e7472616374732f636f6e81526020017f7472616374732f50726f6a6563744c6962726172792e736f6c000000000000008152506060019250505060405180910390a18173ffffffffffffffffffffffffffffffffffffffff1663b9d77bfc600860006040518363ffffffff167c01000000000000000000000000000000000000000000000000000000000281526004018083815260200182815260200192505050600060405180830381600087803b15156200169f57600080fd5b6102c65a03f11515620016b157600080fd5b5050507f32187d72afafe61c1e816d517e7c31bd33466eff90ade1495c8f52129f5499f9606e6040518080602001838152602001828103825260598152602001807f2f55736572732f73686f6b6973686f6b692f646576656c6f706d656e742f636f81526020017f6e73656e7379732f646973747269627574652f636f6e7472616374732f636f6e81526020017f7472616374732f50726f6a6563744c6962726172792e736f6c000000000000008152506060019250505060405180910390a18173ffffffffffffffffffffffffffffffffffffffff1663cbd368bc6040518163ffffffff167c0100000000000000000000000000000000000000000000000000000000028152600401600060405180830381600087803b1515620017d557600080fd5b6102c65a03f11515620017e757600080fd5b505050620018b7565b7f5c87c330914c4ad33602a62f96e5c2c7010d100ff52c4cc4b2b3228973117c87600560016040518080602001848152602001838152602001828103825260598152602001807f2f55736572732f73686f6b6973686f6b692f646576656c6f706d656e742f636f81526020017f6e73656e7379732f646973747269627574652f636f6e7472616374732f636f6e81526020017f7472616374732f50726f6a6563744c6962726172792e736f6c00000000000000815250606001935050505060405180910390a15b7f32187d72afafe61c1e816d517e7c31bd33466eff90ade1495c8f52129f5499f960706040518080602001838152602001828103825260598152602001807f2f55736572732f73686f6b6973686f6b692f646576656c6f706d656e742f636f81526020017f6e73656e7379732f646973747269627574652f636f6e7472616374732f636f6e81526020017f7472616374732f50726f6a6563744c6962726172792e736f6c000000000000008152506060019250505060405180910390a17fc3583d53b6a7f4e85b847b51e286c3de3aacbbc9f400e592fffb1ca83050e92f60106040518080602001838152602001828103825260598152602001807f2f55736572732f73686f6b6973686f6b692f646576656c6f706d656e742f636f81526020017f6e73656e7379732f646973747269627574652f636f6e7472616374732f636f6e81526020017f7472616374732f50726f6a6563744c6962726172792e736f6c000000000000008152506060019250505060405180910390a1600092505b5050919050565b60008060008060007fbd44212b1b989052c33c25cccc05dc159c494e554409c9c7966d0ed3dc6b3cc5600c6040518080602001838152602001828103825260598152602001807f2f55736572732f73686f6b6973686f6b692f646576656c6f706d656e742f636f81526020017f6e73656e7379732f646973747269627574652f636f6e7472616374732f636f6e81526020017f7472616374732f50726f6a6563744c6962726172792e736f6c000000000000008152506060019250505060405180910390a17f32187d72afafe61c1e816d517e7c31bd33466eff90ade1495c8f52129f5499f96101566040518080602001838152602001828103825260598152602001807f2f55736572732f73686f6b6973686f6b692f646576656c6f706d656e742f636f81526020017f6e73656e7379732f646973747269627574652f636f6e7472616374732f636f6e81526020017f7472616374732f50726f6a6563744c6962726172792e736f6c000000000000008152506060019250505060405180910390a17fc3583d53b6a7f4e85b847b51e286c3de3aacbbc9f400e592fffb1ca83050e92f604c6040518080602001838152602001828103825260598152602001807f2f55736572732f73686f6b6973686f6b692f646576656c6f706d656e742f636f81526020017f6e73656e7379732f646973747269627574652f636f6e7472616374732f636f6e81526020017f7472616374732f50726f6a6563744c6962726172792e736f6c000000000000008152506060019250505060405180910390a18793507f32187d72afafe61c1e816d517e7c31bd33466eff90ade1495c8f52129f5499f96101576040518080602001838152602001828103825260598152602001807f2f55736572732f73686f6b6973686f6b692f646576656c6f706d656e742f636f81526020017f6e73656e7379732f646973747269627574652f636f6e7472616374732f636f6e81526020017f7472616374732f50726f6a6563744c6962726172792e736f6c000000000000008152506060019250505060405180910390a17fc3583d53b6a7f4e85b847b51e286c3de3aacbbc9f400e592fffb1ca83050e92f604d6040518080602001838152602001828103825260598152602001807f2f55736572732f73686f6b6973686f6b692f646576656c6f706d656e742f636f81526020017f6e73656e7379732f646973747269627574652f636f6e7472616374732f636f6e81526020017f7472616374732f50726f6a6563744c6962726172792e736f6c000000000000008152506060019250505060405180910390a18373ffffffffffffffffffffffffffffffffffffffff16638d977672886000604051602001526040518263ffffffff167c010000000000000000000000000000000000000000000000000000000002815260040180828152602001915050602060405180830381600087803b151562001e7357600080fd5b6102c65a03f1151562001e8557600080fd5b5050506040518051905092507f32187d72afafe61c1e816d517e7c31bd33466eff90ade1495c8f52129f5499f96101586040518080602001838152602001828103825260598152602001807f2f55736572732f73686f6b6973686f6b692f646576656c6f706d656e742f636f81526020017f6e73656e7379732f646973747269627574652f636f6e7472616374732f636f6e81526020017f7472616374732f50726f6a6563744c6962726172792e736f6c000000000000008152506060019250505060405180910390a17f2865773bd2bcc54b1fabefafb2d62a1bbb5bba42cf0ffe6cd769772ac9d1250b601c6040518080602001838152602001828103825260598152602001807f2f55736572732f73686f6b6973686f6b692f646576656c6f706d656e742f636f81526020017f6e73656e7379732f646973747269627574652f636f6e7472616374732f636f6e81526020017f7472616374732f50726f6a6563744c6962726172792e736f6c000000000000008152506060019250505060405180910390a17fc3583d53b6a7f4e85b847b51e286c3de3aacbbc9f400e592fffb1ca83050e92f604e6040518080602001838152602001828103825260598152602001807f2f55736572732f73686f6b6973686f6b692f646576656c6f706d656e742f636f81526020017f6e73656e7379732f646973747269627574652f636f6e7472616374732f636f6e81526020017f7472616374732f50726f6a6563744c6962726172792e736f6c000000000000008152506060019250505060405180910390a18573ffffffffffffffffffffffffffffffffffffffff168373ffffffffffffffffffffffffffffffffffffffff1663d379be236000604051602001526040518163ffffffff167c0100000000000000000000000000000000000000000000000000000000028152600401602060405180830381600087803b15156200214d57600080fd5b6102c65a03f115156200215f57600080fd5b5050506040518051905073ffffffffffffffffffffffffffffffffffffffff161480156200221257508273ffffffffffffffffffffffffffffffffffffffff1663edb151a86000604051602001526040518163ffffffff167c0100000000000000000000000000000000000000000000000000000000028152600401602060405180830381600087803b1515620021f557600080fd5b6102c65a03f115156200220757600080fd5b505050604051805190505b15156200221e57600080fd5b7f631dd81baf3474bcc9608bc2a049645125fe359730ea7452a7ef89ef9e5cafe9601c6040518080602001838152602001828103825260598152602001807f2f55736572732f73686f6b6973686f6b692f646576656c6f706d656e742f636f81526020017f6e73656e7379732f646973747269627574652f636f6e7472616374732f636f6e81526020017f7472616374732f50726f6a6563744c6962726172792e736f6c000000000000008152506060019250505060405180910390a17f32187d72afafe61c1e816d517e7c31bd33466eff90ade1495c8f52129f5499f961015a6040518080602001838152602001828103825260598152602001807f2f55736572732f73686f6b6973686f6b692f646576656c6f706d656e742f636f81526020017f6e73656e7379732f646973747269627574652f636f6e7472616374732f636f6e81526020017f7472616374732f50726f6a6563744c6962726172792e736f6c000000000000008152506060019250505060405180910390a17fc3583d53b6a7f4e85b847b51e286c3de3aacbbc9f400e592fffb1ca83050e92f604f6040518080602001838152602001828103825260598152602001807f2f55736572732f73686f6b6973686f6b692f646576656c6f706d656e742f636f81526020017f6e73656e7379732f646973747269627574652f636f6e7472616374732f636f6e81526020017f7472616374732f50726f6a6563744c6962726172792e736f6c000000000000008152506060019250505060405180910390a18273ffffffffffffffffffffffffffffffffffffffff16637b5668606000604051602001526040518163ffffffff167c0100000000000000000000000000000000000000000000000000000000028152600401602060405180830381600087803b1515620024c357600080fd5b6102c65a03f11515620024d557600080fd5b5050506040518051905091507f32187d72afafe61c1e816d517e7c31bd33466eff90ade1495c8f52129f5499f961015b6040518080602001838152602001828103825260598152602001807f2f55736572732f73686f6b6973686f6b692f646576656c6f706d656e742f636f81526020017f6e73656e7379732f646973747269627574652f636f6e7472616374732f636f6e81526020017f7472616374732f50726f6a6563744c6962726172792e736f6c000000000000008152506060019250505060405180910390a17fc3583d53b6a7f4e85b847b51e286c3de3aacbbc9f400e592fffb1ca83050e92f60506040518080602001838152602001828103825260598152602001807f2f55736572732f73686f6b6973686f6b692f646576656c6f706d656e742f636f81526020017f6e73656e7379732f646973747269627574652f636f6e7472616374732f636f6e81526020017f7472616374732f50726f6a6563744c6962726172792e736f6c000000000000008152506060019250505060405180910390a18273ffffffffffffffffffffffffffffffffffffffff1663ed1ff6d86000604051602001526040518163ffffffff167c0100000000000000000000000000000000000000000000000000000000028152600401602060405180830381600087803b1515620026c957600080fd5b6102c65a03f11515620026db57600080fd5b5050506040518051905090507f32187d72afafe61c1e816d517e7c31bd33466eff90ade1495c8f52129f5499f961015c6040518080602001838152602001828103825260598152602001807f2f55736572732f73686f6b6973686f6b692f646576656c6f706d656e742f636f81526020017f6e73656e7379732f646973747269627574652f636f6e7472616374732f636f6e81526020017f7472616374732f50726f6a6563744c6962726172792e736f6c000000000000008152506060019250505060405180910390a18273ffffffffffffffffffffffffffffffffffffffff166373cc18da600080896040518463ffffffff167c0100000000000000000000000000000000000000000000000000000000028152600401808481526020018381526020018273ffffffffffffffffffffffffffffffffffffffff1673ffffffffffffffffffffffffffffffffffffffff1681526020019350505050600060405180830381600087803b15156200285157600080fd5b6102c65a03f115156200286357600080fd5b5050507f32187d72afafe61c1e816d517e7c31bd33466eff90ade1495c8f52129f5499f961015d6040518080602001838152602001828103825260598152602001807f2f55736572732f73686f6b6973686f6b692f646576656c6f706d656e742f636f81526020017f6e73656e7379732f646973747269627574652f636f6e7472616374732f636f6e81526020017f7472616374732f50726f6a6563744c6962726172792e736f6c000000000000008152506060019250505060405180910390a18373ffffffffffffffffffffffffffffffffffffffff1663b10bbaab87846040518363ffffffff167c0100000000000000000000000000000000000000000000000000000000028152600401808373ffffffffffffffffffffffffffffffffffffffff1673ffffffffffffffffffffffffffffffffffffffff16815260200182815260200192505050600060405180830381600087803b1515620029c757600080fd5b6102c65a03f11515620029d957600080fd5b5050507f32187d72afafe61c1e816d517e7c31bd33466eff90ade1495c8f52129f5499f961015e6040518080602001838152602001828103825260598152602001807f2f55736572732f73686f6b6973686f6b692f646576656c6f706d656e742f636f81526020017f6e73656e7379732f646973747269627574652f636f6e7472616374732f636f6e81526020017f7472616374732f50726f6a6563744c6962726172792e736f6c000000000000008152506060019250505060405180910390a17fc3583d53b6a7f4e85b847b51e286c3de3aacbbc9f400e592fffb1ca83050e92f60516040518080602001838152602001828103825260598152602001807f2f55736572732f73686f6b6973686f6b692f646576656c6f706d656e742f636f81526020017f6e73656e7379732f646973747269627574652f636f6e7472616374732f636f6e81526020017f7472616374732f50726f6a6563744c6962726172792e736f6c000000000000008152506060019250505060405180910390a1809450505050509392505050565b6000806000807fbd44212b1b989052c33c25cccc05dc159c494e554409c9c7966d0ed3dc6b3cc560046040518080602001838152602001828103825260598152602001807f2f55736572732f73686f6b6973686f6b692f646576656c6f706d656e742f636f81526020017f6e73656e7379732f646973747269627574652f636f6e7472616374732f636f6e81526020017f7472616374732f50726f6a6563744c6962726172792e736f6c000000000000008152506060019250505060405180910390a17f32187d72afafe61c1e816d517e7c31bd33466eff90ade1495c8f52129f5499f9604a6040518080602001838152602001828103825260598152602001807f2f55736572732f73686f6b6973686f6b692f646576656c6f706d656e742f636f81526020017f6e73656e7379732f646973747269627574652f636f6e7472616374732f636f6e81526020017f7472616374732f50726f6a6563744c6962726172792e736f6c000000000000008152506060019250505060405180910390a17f32187d72afafe61c1e816d517e7c31bd33466eff90ade1495c8f52129f5499f9604b6040518080602001838152602001828103825260598152602001807f2f55736572732f73686f6b6973686f6b692f646576656c6f706d656e742f636f81526020017f6e73656e7379732f646973747269627574652f636f6e7472616374732f636f6e81526020017f7472616374732f50726f6a6563744c6962726172792e736f6c000000000000008152506060019250505060405180910390a17f32187d72afafe61c1e816d517e7c31bd33466eff90ade1495c8f52129f5499f9604c6040518080602001838152602001828103825260598152602001807f2f55736572732f73686f6b6973686f6b692f646576656c6f706d656e742f636f81526020017f6e73656e7379732f646973747269627574652f636f6e7472616374732f636f6e81526020017f7472616374732f50726f6a6563744c6962726172792e736f6c000000000000008152506060019250505060405180910390a17fc3583d53b6a7f4e85b847b51e286c3de3aacbbc9f400e592fffb1ca83050e92f60066040518080602001838152602001828103825260598152602001807f2f55736572732f73686f6b6973686f6b692f646576656c6f706d656e742f636f81526020017f6e73656e7379732f646973747269627574652f636f6e7472616374732f636f6e81526020017f7472616374732f50726f6a6563744c6962726172792e736f6c000000000000008152506060019250505060405180910390a18590507f32187d72afafe61c1e816d517e7c31bd33466eff90ade1495c8f52129f5499f9604d6040518080602001838152602001828103825260598152602001807f2f55736572732f73686f6b6973686f6b692f646576656c6f706d656e742f636f81526020017f6e73656e7379732f646973747269627574652f636f6e7472616374732f636f6e81526020017f7472616374732f50726f6a6563744c6962726172792e736f6c000000000000008152506060019250505060405180910390a17fc3583d53b6a7f4e85b847b51e286c3de3aacbbc9f400e592fffb1ca83050e92f60076040518080602001838152602001828103825260598152602001807f2f55736572732f73686f6b6973686f6b692f646576656c6f706d656e742f636f81526020017f6e73656e7379732f646973747269627574652f636f6e7472616374732f636f6e81526020017f7472616374732f50726f6a6563744c6962726172792e736f6c000000000000008152506060019250505060405180910390a160008173ffffffffffffffffffffffffffffffffffffffff1663b23dcdaf6000604051602001526040518163ffffffff167c0100000000000000000000000000000000000000000000000000000000028152600401602060405180830381600087803b15156200310857600080fd5b6102c65a03f115156200311a57600080fd5b505050604051805190501415620031fb577f5c87c330914c4ad33602a62f96e5c2c7010d100ff52c4cc4b2b3228973117c876001806040518080602001848152602001838152602001828103825260598152602001807f2f55736572732f73686f6b6973686f6b692f646576656c6f706d656e742f636f81526020017f6e73656e7379732f646973747269627574652f636f6e7472616374732f636f6e81526020017f7472616374732f50726f6a6563744c6962726172792e736f6c00000000000000815250606001935050505060405180910390a16000925082620034ac565b7f5c87c330914c4ad33602a62f96e5c2c7010d100ff52c4cc4b2b3228973117c87600160006040518080602001848152602001838152602001828103825260598152602001807f2f55736572732f73686f6b6973686f6b692f646576656c6f706d656e742f636f81526020017f6e73656e7379732f646973747269627574652f636f6e7472616374732f636f6e81526020017f7472616374732f50726f6a6563744c6962726172792e736f6c00000000000000815250606001935050505060405180910390a173__Division______________________________622c1a9e8273ffffffffffffffffffffffffffffffffffffffff166353e0a9be886000604051602001526040518263ffffffff167c0100000000000000000000000000000000000000000000000000000000028152600401808273ffffffffffffffffffffffffffffffffffffffff1673ffffffffffffffffffffffffffffffffffffffff168152602001915050602060405180830381600087803b15156200337e57600080fd5b6102c65a03f115156200339057600080fd5b505050604051805190508373ffffffffffffffffffffffffffffffffffffffff1663b23dcdaf6000604051602001526040518163ffffffff167c0100000000000000000000000000000000000000000000000000000000028152600401602060405180830381600087803b15156200340757600080fd5b6102c65a03f115156200341957600080fd5b5050506040518051905060026000604051602001526040518463ffffffff167c010000000000000000000000000000000000000000000000000000000002815260040180848152602001838152602001828152602001935050505060206040518083038186803b15156200348c57600080fd5b6102c65a03f415156200349e57600080fd5b505050604051805190509250825b507f32187d72afafe61c1e816d517e7c31bd33466eff90ade1495c8f52129f5499f960526040518080602001838152602001828103825260598152602001807f2f55736572732f73686f6b6973686f6b692f646576656c6f706d656e742f636f81526020017f6e73656e7379732f646973747269627574652f636f6e7472616374732f636f6e81526020017f7472616374732f50726f6a6563744c6962726172792e736f6c000000000000008152506060019250505060405180910390a17fc3583d53b6a7f4e85b847b51e286c3de3aacbbc9f400e592fffb1ca83050e92f60086040518080602001838152602001828103825260598152602001807f2f55736572732f73686f6b6973686f6b692f646576656c6f706d656e742f636f81526020017f6e73656e7379732f646973747269627574652f636f6e7472616374732f636f6e81526020017f7472616374732f50726f6a6563744c6962726172792e736f6c000000000000008152506060019250505060405180910390a160008173ffffffffffffffffffffffffffffffffffffffff166399a033166000604051602001526040518163ffffffff167c0100000000000000000000000000000000000000000000000000000000028152600401602060405180830381600087803b15156200369657600080fd5b6102c65a03f11515620036a857600080fd5b5050506040518051905014156200378a577f5c87c330914c4ad33602a62f96e5c2c7010d100ff52c4cc4b2b3228973117c87600260016040518080602001848152602001838152602001828103825260598152602001807f2f55736572732f73686f6b6973686f6b692f646576656c6f706d656e742f636f81526020017f6e73656e7379732f646973747269627574652f636f6e7472616374732f636f6e81526020017f7472616374732f50726f6a6563744c6962726172792e736f6c00000000000000815250606001935050505060405180910390a1600091508162003a3b565b7f5c87c330914c4ad33602a62f96e5c2c7010d100ff52c4cc4b2b3228973117c87600260006040518080602001848152602001838152602001828103825260598152602001807f2f55736572732f73686f6b6973686f6b692f646576656c6f706d656e742f636f81526020017f6e73656e7379732f646973747269627574652f636f6e7472616374732f636f6e81526020017f7472616374732f50726f6a6563744c6962726172792e736f6c00000000000000815250606001935050505060405180910390a173__Division______________________________622c1a9e8273ffffffffffffffffffffffffffffffffffffffff1663523fba7f886000604051602001526040518263ffffffff167c0100000000000000000000000000000000000000000000000000000000028152600401808273ffffffffffffffffffffffffffffffffffffffff1673ffffffffffffffffffffffffffffffffffffffff168152602001915050602060405180830381600087803b15156200390d57600080fd5b6102c65a03f115156200391f57600080fd5b505050604051805190508373ffffffffffffffffffffffffffffffffffffffff166399a033166000604051602001526040518163ffffffff167c0100000000000000000000000000000000000000000000000000000000028152600401602060405180830381600087803b15156200399657600080fd5b6102c65a03f11515620039a857600080fd5b5050506040518051905060026000604051602001526040518463ffffffff167c010000000000000000000000000000000000000000000000000000000002815260040180848152602001838152602001828152602001935050505060206040518083038186803b151562003a1b57600080fd5b6102c65a03f4151562003a2d57600080fd5b505050604051805190509150815b507f32187d72afafe61c1e816d517e7c31bd33466eff90ade1495c8f52129f5499f960556040518080602001838152602001828103825260598152602001807f2f55736572732f73686f6b6973686f6b692f646576656c6f706d656e742f636f81526020017f6e73656e7379732f646973747269627574652f636f6e7472616374732f636f6e81526020017f7472616374732f50726f6a6563744c6962726172792e736f6c000000000000008152506060019250505060405180910390a17fc3583d53b6a7f4e85b847b51e286c3de3aacbbc9f400e592fffb1ca83050e92f60096040518080602001838152602001828103825260598152602001807f2f55736572732f73686f6b6973686f6b692f646576656c6f706d656e742f636f81526020017f6e73656e7379732f646973747269627574652f636f6e7472616374732f636f6e81526020017f7472616374732f50726f6a6563744c6962726172792e736f6c000000000000008152506060019250505060405180910390a1600282840181151562003bc557fe5b04935050505092915050565b6000807fbd44212b1b989052c33c25cccc05dc159c494e554409c9c7966d0ed3dc6b3cc560026040518080602001838152602001828103825260598152602001807f2f55736572732f73686f6b6973686f6b692f646576656c6f706d656e742f636f81526020017f6e73656e7379732f646973747269627574652f636f6e7472616374732f636f6e81526020017f7472616374732f50726f6a6563744c6962726172792e736f6c000000000000008152506060019250505060405180910390a17f32187d72afafe61c1e816d517e7c31bd33466eff90ade1495c8f52129f5499f9602f6040518080602001838152602001828103825260598152602001807f2f55736572732f73686f6b6973686f6b692f646576656c6f706d656e742f636f81526020017f6e73656e7379732f646973747269627574652f636f6e7472616374732f636f6e81526020017f7472616374732f50726f6a6563744c6962726172792e736f6c000000000000008152506060019250505060405180910390a17fc3583d53b6a7f4e85b847b51e286c3de3aacbbc9f400e592fffb1ca83050e92f60036040518080602001838152602001828103825260598152602001807f2f55736572732f73686f6b6973686f6b692f646576656c6f706d656e742f636f81526020017f6e73656e7379732f646973747269627574652f636f6e7472616374732f636f6e81526020017f7472616374732f50726f6a6563744c6962726172792e736f6c000000000000008152506060019250505060405180910390a18290507f32187d72afafe61c1e816d517e7c31bd33466eff90ade1495c8f52129f5499f960306040518080602001838152602001828103825260598152602001807f2f55736572732f73686f6b6973686f6b692f646576656c6f706d656e742f636f81526020017f6e73656e7379732f646973747269627574652f636f6e7472616374732f636f6e81526020017f7472616374732f50726f6a6563744c6962726172792e736f6c000000000000008152506060019250505060405180910390a17fc3583d53b6a7f4e85b847b51e286c3de3aacbbc9f400e592fffb1ca83050e92f60046040518080602001838152602001828103825260598152602001807f2f55736572732f73686f6b6973686f6b692f646576656c6f706d656e742f636f81526020017f6e73656e7379732f646973747269627574652f636f6e7472616374732f636f6e81526020017f7472616374732f50726f6a6563744c6962726172792e736f6c000000000000008152506060019250505060405180910390a18073ffffffffffffffffffffffffffffffffffffffff166312ff35bc6000604051602001526040518163ffffffff167c0100000000000000000000000000000000000000000000000000000000028152600401602060405180830381600087803b151562003ff557600080fd5b6102c65a03f115156200400757600080fd5b505050604051805190508173ffffffffffffffffffffffffffffffffffffffff1663065d5d0a6000604051602001526040518163ffffffff167c0100000000000000000000000000000000000000000000000000000000028152600401602060405180830381600087803b15156200407e57600080fd5b6102c65a03f115156200409057600080fd5b5050506040518051905010158015620041b957508073ffffffffffffffffffffffffffffffffffffffff166336df7df76000604051602001526040518163ffffffff167c0100000000000000000000000000000000000000000000000000000000028152600401602060405180830381600087803b15156200411157600080fd5b6102c65a03f115156200412357600080fd5b505050604051805190508173ffffffffffffffffffffffffffffffffffffffff1663b23dcdaf6000604051602001526040518163ffffffff167c0100000000000000000000000000000000000000000000000000000000028152600401602060405180830381600087803b15156200419a57600080fd5b6102c65a03f11515620041ac57600080fd5b5050506040518051905010155b915050919050565b60008060008060008060008060007fbd44212b1b989052c33c25cccc05dc159c494e554409c9c7966d0ed3dc6b3cc560086040518080602001838152602001828103825260598152602001807f2f55736572732f73686f6b6973686f6b692f646576656c6f706d656e742f636f81526020017f6e73656e7379732f646973747269627574652f636f6e7472616374732f636f6e81526020017f7472616374732f50726f6a6563744c6962726172792e736f6c000000000000008152506060019250505060405180910390a17f32187d72afafe61c1e816d517e7c31bd33466eff90ade1495c8f52129f5499f960c76040518080602001838152602001828103825260598152602001807f2f55736572732f73686f6b6973686f6b692f646576656c6f706d656e742f636f81526020017f6e73656e7379732f646973747269627574652f636f6e7472616374732f636f6e81526020017f7472616374732f50726f6a6563744c6962726172792e736f6c000000000000008152506060019250505060405180910390a17fc3583d53b6a7f4e85b847b51e286c3de3aacbbc9f400e592fffb1ca83050e92f60236040518080602001838152602001828103825260598152602001807f2f55736572732f73686f6b6973686f6b692f646576656c6f706d656e742f636f81526020017f6e73656e7379732f646973747269627574652f636f6e7472616374732f636f6e81526020017f7472616374732f50726f6a6563744c6962726172792e736f6c000000000000008152506060019250505060405180910390a18c97507f32187d72afafe61c1e816d517e7c31bd33466eff90ade1495c8f52129f5499f960c86040518080602001838152602001828103825260598152602001807f2f55736572732f73686f6b6973686f6b692f646576656c6f706d656e742f636f81526020017f6e73656e7379732f646973747269627574652f636f6e7472616374732f636f6e81526020017f7472616374732f50726f6a6563744c6962726172792e736f6c000000000000008152506060019250505060405180910390a17f2865773bd2bcc54b1fabefafb2d62a1bbb5bba42cf0ffe6cd769772ac9d1250b600c6040518080602001838152602001828103825260598152602001807f2f55736572732f73686f6b6973686f6b692f646576656c6f706d656e742f636f81526020017f6e73656e7379732f646973747269627574652f636f6e7472616374732f636f6e81526020017f7472616374732f50726f6a6563744c6962726172792e736f6c000000000000008152506060019250505060405180910390a17fc3583d53b6a7f4e85b847b51e286c3de3aacbbc9f400e592fffb1ca83050e92f60246040518080602001838152602001828103825260598152602001807f2f55736572732f73686f6b6973686f6b692f646576656c6f706d656e742f636f81526020017f6e73656e7379732f646973747269627574652f636f6e7472616374732f636f6e81526020017f7472616374732f50726f6a6563744c6962726172792e736f6c000000000000008152506060019250505060405180910390a160048873ffffffffffffffffffffffffffffffffffffffff1663c19d93fb6000604051602001526040518163ffffffff167c0100000000000000000000000000000000000000000000000000000000028152600401602060405180830381600087803b1515620046af57600080fd5b6102c65a03f11515620046c157600080fd5b50505060405180519050141515620046d857600080fd5b7f631dd81baf3474bcc9608bc2a049645125fe359730ea7452a7ef89ef9e5cafe9600c6040518080602001838152602001828103825260598152602001807f2f55736572732f73686f6b6973686f6b692f646576656c6f706d656e742f636f81526020017f6e73656e7379732f646973747269627574652f636f6e7472616374732f636f6e81526020017f7472616374732f50726f6a6563744c6962726172792e736f6c000000000000008152506060019250505060405180910390a17f32187d72afafe61c1e816d517e7c31bd33466eff90ade1495c8f52129f5499f960ca6040518080602001838152602001828103825260598152602001807f2f55736572732f73686f6b6973686f6b692f646576656c6f706d656e742f636f81526020017f6e73656e7379732f646973747269627574652f636f6e7472616374732f636f6e81526020017f7472616374732f50726f6a6563744c6962726172792e736f6c000000000000008152506060019250505060405180910390a17fc3583d53b6a7f4e85b847b51e286c3de3aacbbc9f400e592fffb1ca83050e92f60256040518080602001838152602001828103825260598152602001807f2f55736572732f73686f6b6973686f6b692f646576656c6f706d656e742f636f81526020017f6e73656e7379732f646973747269627574652f636f6e7472616374732f636f6e81526020017f7472616374732f50726f6a6563744c6962726172792e736f6c000000000000008152506060019250505060405180910390a16200491a8d62010616565b1562006901577f5c87c330914c4ad33602a62f96e5c2c7010d100ff52c4cc4b2b3228973117c87600d60006040518080602001848152602001838152602001828103825260598152602001807f2f55736572732f73686f6b6973686f6b692f646576656c6f706d656e742f636f81526020017f6e73656e7379732f646973747269627574652f636f6e7472616374732f636f6e81526020017f7472616374732f50726f6a6563744c6962726172792e736f6c00000000000000815250606001935050505060405180910390a17f32187d72afafe61c1e816d517e7c31bd33466eff90ade1495c8f52129f5499f960cb6040518080602001838152602001828103825260598152602001807f2f55736572732f73686f6b6973686f6b692f646576656c6f706d656e742f636f81526020017f6e73656e7379732f646973747269627574652f636f6e7472616374732f636f6e81526020017f7472616374732f50726f6a6563744c6962726172792e736f6c000000000000008152506060019250505060405180910390a17fc3583d53b6a7f4e85b847b51e286c3de3aacbbc9f400e592fffb1ca83050e92f60266040518080602001838152602001828103825260598152602001807f2f55736572732f73686f6b6973686f6b692f646576656c6f706d656e742f636f81526020017f6e73656e7379732f646973747269627574652f636f6e7472616374732f636f6e81526020017f7472616374732f50726f6a6563744c6962726172792e736f6c000000000000008152506060019250505060405180910390a18773ffffffffffffffffffffffffffffffffffffffff1663b7eabbf96000604051602001526040518163ffffffff167c0100000000000000000000000000000000000000000000000000000000028152600401602060405180830381600087803b151562004bcd57600080fd5b6102c65a03f1151562004bdf57600080fd5b505050604051805190508873ffffffffffffffffffffffffffffffffffffffff1663b11eda5a6000604051602001526040518163ffffffff167c0100000000000000000000000000000000000000000000000000000000028152600401602060405180830381600087803b151562004c5657600080fd5b6102c65a03f1151562004c6857600080fd5b5050506040518051905042010196507f32187d72afafe61c1e816d517e7c31bd33466eff90ade1495c8f52129f5499f960cc6040518080602001838152602001828103825260598152602001807f2f55736572732f73686f6b6973686f6b692f646576656c6f706d656e742f636f81526020017f6e73656e7379732f646973747269627574652f636f6e7472616374732f636f6e81526020017f7472616374732f50726f6a6563744c6962726172792e736f6c000000000000008152506060019250505060405180910390a18773ffffffffffffffffffffffffffffffffffffffff1663b9d77bfc6005896040518363ffffffff167c01000000000000000000000000000000000000000000000000000000000281526004018083815260200182815260200192505050600060405180830381600087803b151562004dac57600080fd5b6102c65a03f1151562004dbe57600080fd5b5050507f32187d72afafe61c1e816d517e7c31bd33466eff90ade1495c8f52129f5499f960cd6040518080602001838152602001828103825260598152602001807f2f55736572732f73686f6b6973686f6b692f646576656c6f706d656e742f636f81526020017f6e73656e7379732f646973747269627574652f636f6e7472616374732f636f6e81526020017f7472616374732f50726f6a6563744c6962726172792e736f6c000000000000008152506060019250505060405180910390a17fc3583d53b6a7f4e85b847b51e286c3de3aacbbc9f400e592fffb1ca83050e92f60276040518080602001838152602001828103825260598152602001807f2f55736572732f73686f6b6973686f6b692f646576656c6f706d656e742f636f81526020017f6e73656e7379732f646973747269627574652f636f6e7472616374732f636f6e81526020017f7472616374732f50726f6a6563744c6962726172792e736f6c000000000000008152506060019250505060405180910390a18b95507f32187d72afafe61c1e816d517e7c31bd33466eff90ade1495c8f52129f5499f960ce6040518080602001838152602001828103825260598152602001807f2f55736572732f73686f6b6973686f6b692f646576656c6f706d656e742f636f81526020017f6e73656e7379732f646973747269627574652f636f6e7472616374732f636f6e81526020017f7472616374732f50726f6a6563744c6962726172792e736f6c000000000000008152506060019250505060405180910390a17fc3583d53b6a7f4e85b847b51e286c3de3aacbbc9f400e592fffb1ca83050e92f60286040518080602001838152602001828103825260598152602001807f2f55736572732f73686f6b6973686f6b692f646576656c6f706d656e742f636f81526020017f6e73656e7379732f646973747269627574652f636f6e7472616374732f636f6e81526020017f7472616374732f50726f6a6563744c6962726172792e736f6c000000000000008152506060019250505060405180910390a18994507f32187d72afafe61c1e816d517e7c31bd33466eff90ade1495c8f52129f5499f960cf6040518080602001838152602001828103825260598152602001807f2f55736572732f73686f6b6973686f6b692f646576656c6f706d656e742f636f81526020017f6e73656e7379732f646973747269627574652f636f6e7472616374732f636f6e81526020017f7472616374732f50726f6a6563744c6962726172792e736f6c000000000000008152506060019250505060405180910390a17fc3583d53b6a7f4e85b847b51e286c3de3aacbbc9f400e592fffb1ca83050e92f60296040518080602001838152602001828103825260598152602001807f2f55736572732f73686f6b6973686f6b692f646576656c6f706d656e742f636f81526020017f6e73656e7379732f646973747269627574652f636f6e7472616374732f636f6e81526020017f7472616374732f50726f6a6563744c6962726172792e736f6c000000000000008152506060019250505060405180910390a1600093505b8773ffffffffffffffffffffffffffffffffffffffff1663c17a340e6000604051602001526040518163ffffffff167c0100000000000000000000000000000000000000000000000000000000028152600401602060405180830381600087803b1515620052a757600080fd5b6102c65a03f11515620052b957600080fd5b50505060405180519050841015620068fb577f32187d72afafe61c1e816d517e7c31bd33466eff90ade1495c8f52129f5499f960d06040518080602001838152602001828103825260598152602001807f2f55736572732f73686f6b6973686f6b692f646576656c6f706d656e742f636f81526020017f6e73656e7379732f646973747269627574652f636f6e7472616374732f636f6e81526020017f7472616374732f50726f6a6563744c6962726172792e736f6c000000000000008152506060019250505060405180910390a17fc3583d53b6a7f4e85b847b51e286c3de3aacbbc9f400e592fffb1ca83050e92f602a6040518080602001838152602001828103825260598152602001807f2f55736572732f73686f6b6973686f6b692f646576656c6f706d656e742f636f81526020017f6e73656e7379732f646973747269627574652f636f6e7472616374732f636f6e81526020017f7472616374732f50726f6a6563744c6962726172792e736f6c000000000000008152506060019250505060405180910390a18773ffffffffffffffffffffffffffffffffffffffff16638d977672856000604051602001526040518263ffffffff167c010000000000000000000000000000000000000000000000000000000002815260040180828152602001915050602060405180830381600087803b1515620054bd57600080fd5b6102c65a03f11515620054cf57600080fd5b5050506040518051905092507f32187d72afafe61c1e816d517e7c31bd33466eff90ade1495c8f52129f5499f960d16040518080602001838152602001828103825260598152602001807f2f55736572732f73686f6b6973686f6b692f646576656c6f706d656e742f636f81526020017f6e73656e7379732f646973747269627574652f636f6e7472616374732f636f6e81526020017f7472616374732f50726f6a6563744c6962726172792e736f6c000000000000008152506060019250505060405180910390a17fc3583d53b6a7f4e85b847b51e286c3de3aacbbc9f400e592fffb1ca83050e92f602b6040518080602001838152602001828103825260598152602001807f2f55736572732f73686f6b6973686f6b692f646576656c6f706d656e742f636f81526020017f6e73656e7379732f646973747269627574652f636f6e7472616374732f636f6e81526020017f7472616374732f50726f6a6563744c6962726172792e736f6c000000000000008152506060019250505060405180910390a18273ffffffffffffffffffffffffffffffffffffffff1663522e11776000604051602001526040518163ffffffff167c0100000000000000000000000000000000000000000000000000000000028152600401602060405180830381600087803b1515620056c257600080fd5b6102c65a03f11515620056d457600080fd5b505050604051805190501562006826577f5c87c330914c4ad33602a62f96e5c2c7010d100ff52c4cc4b2b3228973117c87600e60006040518080602001848152602001838152602001828103825260598152602001807f2f55736572732f73686f6b6973686f6b692f646576656c6f706d656e742f636f81526020017f6e73656e7379732f646973747269627574652f636f6e7472616374732f636f6e81526020017f7472616374732f50726f6a6563744c6962726172792e736f6c00000000000000815250606001935050505060405180910390a17f32187d72afafe61c1e816d517e7c31bd33466eff90ade1495c8f52129f5499f960d26040518080602001838152602001828103825260598152602001807f2f55736572732f73686f6b6973686f6b692f646576656c6f706d656e742f636f81526020017f6e73656e7379732f646973747269627574652f636f6e7472616374732f636f6e81526020017f7472616374732f50726f6a6563744c6962726172792e736f6c000000000000008152506060019250505060405180910390a17fc3583d53b6a7f4e85b847b51e286c3de3aacbbc9f400e592fffb1ca83050e92f602c6040518080602001838152602001828103825260598152602001807f2f55736572732f73686f6b6973686f6b692f646576656c6f706d656e742f636f81526020017f6e73656e7379732f646973747269627574652f636f6e7472616374732f636f6e81526020017f7472616374732f50726f6a6563744c6962726172792e736f6c000000000000008152506060019250505060405180910390a18273ffffffffffffffffffffffffffffffffffffffff1663da16fe8d6000604051602001526040518163ffffffff167c0100000000000000000000000000000000000000000000000000000000028152600401602060405180830381600087803b15156200599157600080fd5b6102c65a03f11515620059a357600080fd5b505050604051805190501562005d74577f5c87c330914c4ad33602a62f96e5c2c7010d100ff52c4cc4b2b3228973117c87600f60006040518080602001848152602001838152602001828103825260598152602001807f2f55736572732f73686f6b6973686f6b692f646576656c6f706d656e742f636f81526020017f6e73656e7379732f646973747269627574652f636f6e7472616374732f636f6e81526020017f7472616374732f50726f6a6563744c6962726172792e736f6c00000000000000815250606001935050505060405180910390a17f32187d72afafe61c1e816d517e7c31bd33466eff90ade1495c8f52129f5499f960d36040518080602001838152602001828103825260598152602001807f2f55736572732f73686f6b6973686f6b692f646576656c6f706d656e742f636f81526020017f6e73656e7379732f646973747269627574652f636f6e7472616374732f636f6e81526020017f7472616374732f50726f6a6563744c6962726172792e736f6c000000000000008152506060019250505060405180910390a18273ffffffffffffffffffffffffffffffffffffffff1663a58fcbaa8673ffffffffffffffffffffffffffffffffffffffff166332ed3d6060338c73ffffffffffffffffffffffffffffffffffffffff1663b11eda5a6000604051602001526040518163ffffffff167c0100000000000000000000000000000000000000000000000000000000028152600401602060405180830381600087803b151562005bdd57600080fd5b6102c65a03f1151562005bef57600080fd5b505050604051805190508d73ffffffffffffffffffffffffffffffffffffffff1663b7eabbf96000604051602001526040518163ffffffff167c0100000000000000000000000000000000000000000000000000000000028152600401602060405180830381600087803b151562005c6657600080fd5b6102c65a03f1151562005c7857600080fd5b505050604051805190506000604051602001526040518463ffffffff167c0100000000000000000000000000000000000000000000000000000000028152600401808481526020018381526020018281526020019350505050602060405180830381600087803b151562005ceb57600080fd5b6102c65a03f1151562005cfd57600080fd5b505050604051805190506040518263ffffffff167c010000000000000000000000000000000000000000000000000000000002815260040180828152602001915050600060405180830381600087803b151562005d5957600080fd5b6102c65a03f1151562005d6b57600080fd5b50505062006820565b7f5c87c330914c4ad33602a62f96e5c2c7010d100ff52c4cc4b2b3228973117c87600f60016040518080602001848152602001838152602001828103825260598152602001807f2f55736572732f73686f6b6973686f6b692f646576656c6f706d656e742f636f81526020017f6e73656e7379732f646973747269627574652f636f6e7472616374732f636f6e81526020017f7472616374732f50726f6a6563744c6962726172792e736f6c00000000000000815250606001935050505060405180910390a17f32187d72afafe61c1e816d517e7c31bd33466eff90ade1495c8f52129f5499f960d56040518080602001838152602001828103825260598152602001807f2f55736572732f73686f6b6973686f6b692f646576656c6f706d656e742f636f81526020017f6e73656e7379732f646973747269627574652f636f6e7472616374732f636f6e81526020017f7472616374732f50726f6a6563744c6962726172792e736f6c000000000000008152506060019250505060405180910390a17fc3583d53b6a7f4e85b847b51e286c3de3aacbbc9f400e592fffb1ca83050e92f602d6040518080602001838152602001828103825260598152602001807f2f55736572732f73686f6b6973686f6b692f646576656c6f706d656e742f636f81526020017f6e73656e7379732f646973747269627574652f636f6e7472616374732f636f6e81526020017f7472616374732f50726f6a6563744c6962726172792e736f6c000000000000008152506060019250505060405180910390a18273ffffffffffffffffffffffffffffffffffffffff1663b1ed11d160016000604051602001526040518263ffffffff167c01000000000000000000000000000000000000000000000000000000000281526004018082151515158152602001915050602060405180830381600087803b15156200603157600080fd5b6102c65a03f115156200604357600080fd5b5050506040518051905091507f32187d72afafe61c1e816d517e7c31bd33466eff90ade1495c8f52129f5499f960d66040518080602001838152602001828103825260598152602001807f2f55736572732f73686f6b6973686f6b692f646576656c6f706d656e742f636f81526020017f6e73656e7379732f646973747269627574652f636f6e7472616374732f636f6e81526020017f7472616374732f50726f6a6563744c6962726172792e736f6c000000000000008152506060019250505060405180910390a17fc3583d53b6a7f4e85b847b51e286c3de3aacbbc9f400e592fffb1ca83050e92f602e6040518080602001838152602001828103825260598152602001807f2f55736572732f73686f6b6973686f6b692f646576656c6f706d656e742f636f81526020017f6e73656e7379732f646973747269627574652f636f6e7472616374732f636f6e81526020017f7472616374732f50726f6a6563744c6962726172792e736f6c000000000000008152506060019250505060405180910390a181151562006758577f5c87c330914c4ad33602a62f96e5c2c7010d100ff52c4cc4b2b3228973117c87601060006040518080602001848152602001838152602001828103825260598152602001807f2f55736572732f73686f6b6973686f6b692f646576656c6f706d656e742f636f81526020017f6e73656e7379732f646973747269627574652f636f6e7472616374732f636f6e81526020017f7472616374732f50726f6a6563744c6962726172792e736f6c00000000000000815250606001935050505060405180910390a17f32187d72afafe61c1e816d517e7c31bd33466eff90ade1495c8f52129f5499f960d76040518080602001838152602001828103825260598152602001807f2f55736572732f73686f6b6973686f6b692f646576656c6f706d656e742f636f81526020017f6e73656e7379732f646973747269627574652f636f6e7472616374732f636f6e81526020017f7472616374732f50726f6a6563744c6962726172792e736f6c000000000000008152506060019250505060405180910390a17fc3583d53b6a7f4e85b847b51e286c3de3aacbbc9f400e592fffb1ca83050e92f602f6040518080602001838152602001828103825260598152602001807f2f55736572732f73686f6b6973686f6b692f646576656c6f706d656e742f636f81526020017f6e73656e7379732f646973747269627574652f636f6e7472616374732f636f6e81526020017f7472616374732f50726f6a6563744c6962726172792e736f6c000000000000008152506060019250505060405180910390a18273ffffffffffffffffffffffffffffffffffffffff16637b5668606000604051602001526040518163ffffffff167c0100000000000000000000000000000000000000000000000000000000028152600401602060405180830381600087803b15156200647e57600080fd5b6102c65a03f115156200649057600080fd5b5050506040518051905090507f32187d72afafe61c1e816d517e7c31bd33466eff90ade1495c8f52129f5499f960d86040518080602001838152602001828103825260598152602001807f2f55736572732f73686f6b6973686f6b692f646576656c6f706d656e742f636f81526020017f6e73656e7379732f646973747269627574652f636f6e7472616374732f636f6e81526020017f7472616374732f50726f6a6563744c6962726172792e736f6c000000000000008152506060019250505060405180910390a18573ffffffffffffffffffffffffffffffffffffffff166375f6857b826040518263ffffffff167c010000000000000000000000000000000000000000000000000000000002815260040180828152602001915050600060405180830381600087803b1515620065c857600080fd5b6102c65a03f11515620065da57600080fd5b5050507f32187d72afafe61c1e816d517e7c31bd33466eff90ade1495c8f52129f5499f960d96040518080602001838152602001828103825260598152602001807f2f55736572732f73686f6b6973686f6b692f646576656c6f706d656e742f636f81526020017f6e73656e7379732f646973747269627574652f636f6e7472616374732f636f6e81526020017f7472616374732f50726f6a6563744c6962726172792e736f6c000000000000008152506060019250505060405180910390a18773ffffffffffffffffffffffffffffffffffffffff16637ec20fe88c836040518363ffffffff167c0100000000000000000000000000000000000000000000000000000000028152600401808373ffffffffffffffffffffffffffffffffffffffff1673ffffffffffffffffffffffffffffffffffffffff16815260200182815260200192505050600060405180830381600087803b15156200673d57600080fd5b6102c65a03f115156200674f57600080fd5b5050506200681f565b7f5c87c330914c4ad33602a62f96e5c2c7010d100ff52c4cc4b2b3228973117c87601060016040518080602001848152602001838152602001828103825260598152602001807f2f55736572732f73686f6b6973686f6b692f646576656c6f706d656e742f636f81526020017f6e73656e7379732f646973747269627574652f636f6e7472616374732f636f6e81526020017f7472616374732f50726f6a6563744c6962726172792e736f6c00000000000000815250606001935050505060405180910390a15b5b620068ed565b7f5c87c330914c4ad33602a62f96e5c2c7010d100ff52c4cc4b2b3228973117c87600e60016040518080602001848152602001838152602001828103825260598152602001807f2f55736572732f73686f6b6973686f6b692f646576656c6f706d656e742f636f81526020017f6e73656e7379732f646973747269627574652f636f6e7472616374732f636f6e81526020017f7472616374732f50726f6a6563744c6962726172792e736f6c00000000000000815250606001935050505060405180910390a15b83806001019450506200523a565b620069c8565b7f5c87c330914c4ad33602a62f96e5c2c7010d100ff52c4cc4b2b3228973117c87600d60016040518080602001848152602001838152602001828103825260598152602001807f2f55736572732f73686f6b6973686f6b692f646576656c6f706d656e742f636f81526020017f6e73656e7379732f646973747269627574652f636f6e7472616374732f636f6e81526020017f7472616374732f50726f6a6563744c6962726172792e736f6c00000000000000815250606001935050505060405180910390a15b7f32187d72afafe61c1e816d517e7c31bd33466eff90ade1495c8f52129f5499f960df6040518080602001838152602001828103825260598152602001807f2f55736572732f73686f6b6973686f6b692f646576656c6f706d656e742f636f81526020017f6e73656e7379732f646973747269627574652f636f6e7472616374732f636f6e81526020017f7472616374732f50726f6a6563744c6962726172792e736f6c000000000000008152506060019250505060405180910390a17fc3583d53b6a7f4e85b847b51e286c3de3aacbbc9f400e592fffb1ca83050e92f60306040518080602001838152602001828103825260598152602001807f2f55736572732f73686f6b6973686f6b692f646576656c6f706d656e742f636f81526020017f6e73656e7379732f646973747269627574652f636f6e7472616374732f636f6e81526020017f7472616374732f50726f6a6563744c6962726172792e736f6c000000000000008152506060019250505060405180910390a1600098505050505050505050949350505050565b60008060008060008060007fbd44212b1b989052c33c25cccc05dc159c494e554409c9c7966d0ed3dc6b3cc560096040518080602001838152602001828103825260598152602001807f2f55736572732f73686f6b6973686f6b692f646576656c6f706d656e742f636f81526020017f6e73656e7379732f646973747269627574652f636f6e7472616374732f636f6e81526020017f7472616374732f50726f6a6563744c6962726172792e736f6c000000000000008152506060019250505060405180910390a17f32187d72afafe61c1e816d517e7c31bd33466eff90ade1495c8f52129f5499f960f76040518080602001838152602001828103825260598152602001807f2f55736572732f73686f6b6973686f6b692f646576656c6f706d656e742f636f81526020017f6e73656e7379732f646973747269627574652f636f6e7472616374732f636f6e81526020017f7472616374732f50726f6a6563744c6962726172792e736f6c000000000000008152506060019250505060405180910390a17fc3583d53b6a7f4e85b847b51e286c3de3aacbbc9f400e592fffb1ca83050e92f60316040518080602001838152602001828103825260598152602001807f2f55736572732f73686f6b6973686f6b692f646576656c6f706d656e742f636f81526020017f6e73656e7379732f646973747269627574652f636f6e7472616374732f636f6e81526020017f7472616374732f50726f6a6563744c6962726172792e736f6c000000000000008152506060019250505060405180910390a18a95507f32187d72afafe61c1e816d517e7c31bd33466eff90ade1495c8f52129f5499f960f86040518080602001838152602001828103825260598152602001807f2f55736572732f73686f6b6973686f6b692f646576656c6f706d656e742f636f81526020017f6e73656e7379732f646973747269627574652f636f6e7472616374732f636f6e81526020017f7472616374732f50726f6a6563744c6962726172792e736f6c000000000000008152506060019250505060405180910390a17f2865773bd2bcc54b1fabefafb2d62a1bbb5bba42cf0ffe6cd769772ac9d1250b60116040518080602001838152602001828103825260598152602001807f2f55736572732f73686f6b6973686f6b692f646576656c6f706d656e742f636f81526020017f6e73656e7379732f646973747269627574652f636f6e7472616374732f636f6e81526020017f7472616374732f50726f6a6563744c6962726172792e736f6c000000000000008152506060019250505060405180910390a17fc3583d53b6a7f4e85b847b51e286c3de3aacbbc9f400e592fffb1ca83050e92f60326040518080602001838152602001828103825260598152602001807f2f55736572732f73686f6b6973686f6b692f646576656c6f706d656e742f636f81526020017f6e73656e7379732f646973747269627574652f636f6e7472616374732f636f6e81526020017f7472616374732f50726f6a6563744c6962726172792e736f6c000000000000008152506060019250505060405180910390a160058673ffffffffffffffffffffffffffffffffffffffff1663c19d93fb6000604051602001526040518163ffffffff167c0100000000000000000000000000000000000000000000000000000000028152600401602060405180830381600087803b15156200704157600080fd5b6102c65a03f115156200705357600080fd5b505050604051805190501415156200706a57600080fd5b7f631dd81baf3474bcc9608bc2a049645125fe359730ea7452a7ef89ef9e5cafe960116040518080602001838152602001828103825260598152602001807f2f55736572732f73686f6b6973686f6b692f646576656c6f706d656e742f636f81526020017f6e73656e7379732f646973747269627574652f636f6e7472616374732f636f6e81526020017f7472616374732f50726f6a6563744c6962726172792e736f6c000000000000008152506060019250505060405180910390a17f32187d72afafe61c1e816d517e7c31bd33466eff90ade1495c8f52129f5499f960fa6040518080602001838152602001828103825260598152602001807f2f55736572732f73686f6b6973686f6b692f646576656c6f706d656e742f636f81526020017f6e73656e7379732f646973747269627574652f636f6e7472616374732f636f6e81526020017f7472616374732f50726f6a6563744c6962726172792e736f6c000000000000008152506060019250505060405180910390a17fc3583d53b6a7f4e85b847b51e286c3de3aacbbc9f400e592fffb1ca83050e92f60336040518080602001838152602001828103825260598152602001807f2f55736572732f73686f6b6973686f6b692f646576656c6f706d656e742f636f81526020017f6e73656e7379732f646973747269627574652f636f6e7472616374732f636f6e81526020017f7472616374732f50726f6a6563744c6962726172792e736f6c000000000000008152506060019250505060405180910390a1620072ac8b62010616565b15620096ea577f5c87c330914c4ad33602a62f96e5c2c7010d100ff52c4cc4b2b3228973117c87601260006040518080602001848152602001838152602001828103825260598152602001807f2f55736572732f73686f6b6973686f6b692f646576656c6f706d656e742f636f81526020017f6e73656e7379732f646973747269627574652f636f6e7472616374732f636f6e81526020017f7472616374732f50726f6a6563744c6962726172792e736f6c00000000000000815250606001935050505060405180910390a17f32187d72afafe61c1e816d517e7c31bd33466eff90ade1495c8f52129f5499f960fb6040518080602001838152602001828103825260598152602001807f2f55736572732f73686f6b6973686f6b692f646576656c6f706d656e742f636f81526020017f6e73656e7379732f646973747269627574652f636f6e7472616374732f636f6e81526020017f7472616374732f50726f6a6563744c6962726172792e736f6c000000000000008152506060019250505060405180910390a17fc3583d53b6a7f4e85b847b51e286c3de3aacbbc9f400e592fffb1ca83050e92f60346040518080602001838152602001828103825260598152602001807f2f55736572732f73686f6b6973686f6b692f646576656c6f706d656e742f636f81526020017f6e73656e7379732f646973747269627574652f636f6e7472616374732f636f6e81526020017f7472616374732f50726f6a6563744c6962726172792e736f6c000000000000008152506060019250505060405180910390a18994507f32187d72afafe61c1e816d517e7c31bd33466eff90ade1495c8f52129f5499f960fc6040518080602001838152602001828103825260598152602001807f2f55736572732f73686f6b6973686f6b692f646576656c6f706d656e742f636f81526020017f6e73656e7379732f646973747269627574652f636f6e7472616374732f636f6e81526020017f7472616374732f50726f6a6563744c6962726172792e736f6c000000000000008152506060019250505060405180910390a17fc3583d53b6a7f4e85b847b51e286c3de3aacbbc9f400e592fffb1ca83050e92f60356040518080602001838152602001828103825260598152602001807f2f55736572732f73686f6b6973686f6b692f646576656c6f706d656e742f636f81526020017f6e73656e7379732f646973747269627574652f636f6e7472616374732f636f6e81526020017f7472616374732f50726f6a6563744c6962726172792e736f6c000000000000008152506060019250505060405180910390a18793507f32187d72afafe61c1e816d517e7c31bd33466eff90ade1495c8f52129f5499f960fd6040518080602001838152602001828103825260598152602001807f2f55736572732f73686f6b6973686f6b692f646576656c6f706d656e742f636f81526020017f6e73656e7379732f646973747269627574652f636f6e7472616374732f636f6e81526020017f7472616374732f50726f6a6563744c6962726172792e736f6c000000000000008152506060019250505060405180910390a17fc3583d53b6a7f4e85b847b51e286c3de3aacbbc9f400e592fffb1ca83050e92f60366040518080602001838152602001828103825260598152602001807f2f55736572732f73686f6b6973686f6b692f646576656c6f706d656e742f636f81526020017f6e73656e7379732f646973747269627574652f636f6e7472616374732f636f6e81526020017f7472616374732f50726f6a6563744c6962726172792e736f6c000000000000008152506060019250505060405180910390a1600092505b8573ffffffffffffffffffffffffffffffffffffffff1663c17a340e6000604051602001526040518163ffffffff167c0100000000000000000000000000000000000000000000000000000000028152600401602060405180830381600087803b15156200785e57600080fd5b6102c65a03f115156200787057600080fd5b5050506040518051905083101562008e9b577f32187d72afafe61c1e816d517e7c31bd33466eff90ade1495c8f52129f5499f960fe6040518080602001838152602001828103825260598152602001807f2f55736572732f73686f6b6973686f6b692f646576656c6f706d656e742f636f81526020017f6e73656e7379732f646973747269627574652f636f6e7472616374732f636f6e81526020017f7472616374732f50726f6a6563744c6962726172792e736f6c000000000000008152506060019250505060405180910390a17fc3583d53b6a7f4e85b847b51e286c3de3aacbbc9f400e592fffb1ca83050e92f60376040518080602001838152602001828103825260598152602001807f2f55736572732f73686f6b6973686f6b692f646576656c6f706d656e742f636f81526020017f6e73656e7379732f646973747269627574652f636f6e7472616374732f636f6e81526020017f7472616374732f50726f6a6563744c6962726172792e736f6c000000000000008152506060019250505060405180910390a18573ffffffffffffffffffffffffffffffffffffffff16638d977672846000604051602001526040518263ffffffff167c010000000000000000000000000000000000000000000000000000000002815260040180828152602001915050602060405180830381600087803b151562007a7457600080fd5b6102c65a03f1151562007a8657600080fd5b5050506040518051905091507f32187d72afafe61c1e816d517e7c31bd33466eff90ade1495c8f52129f5499f960ff6040518080602001838152602001828103825260598152602001807f2f55736572732f73686f6b6973686f6b692f646576656c6f706d656e742f636f81526020017f6e73656e7379732f646973747269627574652f636f6e7472616374732f636f6e81526020017f7472616374732f50726f6a6563744c6962726172792e736f6c000000000000008152506060019250505060405180910390a17fc3583d53b6a7f4e85b847b51e286c3de3aacbbc9f400e592fffb1ca83050e92f60386040518080602001838152602001828103825260598152602001807f2f55736572732f73686f6b6973686f6b692f646576656c6f706d656e742f636f81526020017f6e73656e7379732f646973747269627574652f636f6e7472616374732f636f6e81526020017f7472616374732f50726f6a6563744c6962726172792e736f6c000000000000008152506060019250505060405180910390a18173ffffffffffffffffffffffffffffffffffffffff1663522e11776000604051602001526040518163ffffffff167c0100000000000000000000000000000000000000000000000000000000028152600401602060405180830381600087803b151562007c7957600080fd5b6102c65a03f1151562007c8b57600080fd5b50505060405180519050801562007d2757508173ffffffffffffffffffffffffffffffffffffffff1663da16fe8d6000604051602001526040518163ffffffff167c0100000000000000000000000000000000000000000000000000000000028152600401602060405180830381600087803b151562007d0a57600080fd5b6102c65a03f1151562007d1c57600080fd5b505050604051805190505b1562008dc6577f5c87c330914c4ad33602a62f96e5c2c7010d100ff52c4cc4b2b3228973117c87601360006040518080602001848152602001838152602001828103825260598152602001807f2f55736572732f73686f6b6973686f6b692f646576656c6f706d656e742f636f81526020017f6e73656e7379732f646973747269627574652f636f6e7472616374732f636f6e81526020017f7472616374732f50726f6a6563744c6962726172792e736f6c00000000000000815250606001935050505060405180910390a17f32187d72afafe61c1e816d517e7c31bd33466eff90ade1495c8f52129f5499f96101006040518080602001838152602001828103825260598152602001807f2f55736572732f73686f6b6973686f6b692f646576656c6f706d656e742f636f81526020017f6e73656e7379732f646973747269627574652f636f6e7472616374732f636f6e81526020017f7472616374732f50726f6a6563744c6962726172792e736f6c000000000000008152506060019250505060405180910390a17fc3583d53b6a7f4e85b847b51e286c3de3aacbbc9f400e592fffb1ca83050e92f60396040518080602001838152602001828103825260598152602001807f2f55736572732f73686f6b6973686f6b692f646576656c6f706d656e742f636f81526020017f6e73656e7379732f646973747269627574652f636f6e7472616374732f636f6e81526020017f7472616374732f50726f6a6563744c6962726172792e736f6c000000000000008152506060019250505060405180910390a18373ffffffffffffffffffffffffffffffffffffffff1663ee6848308373ffffffffffffffffffffffffffffffffffffffff16636f13ab006000604051602001526040518163ffffffff167c0100000000000000000000000000000000000000000000000000000000028152600401602060405180830381600087803b151562007ff757600080fd5b6102c65a03f115156200800957600080fd5b505050604051805190506000604051602001526040518263ffffffff167c010000000000000000000000000000000000000000000000000000000002815260040180828152602001915050602060405180830381600087803b15156200806e57600080fd5b6102c65a03f115156200808057600080fd5b505050604051805190501562008cf9577f5c87c330914c4ad33602a62f96e5c2c7010d100ff52c4cc4b2b3228973117c87601460006040518080602001848152602001838152602001828103825260598152602001807f2f55736572732f73686f6b6973686f6b692f646576656c6f706d656e742f636f81526020017f6e73656e7379732f646973747269627574652f636f6e7472616374732f636f6e81526020017f7472616374732f50726f6a6563744c6962726172792e736f6c00000000000000815250606001935050505060405180910390a17f32187d72afafe61c1e816d517e7c31bd33466eff90ade1495c8f52129f5499f96101016040518080602001838152602001828103825260598152602001807f2f55736572732f73686f6b6973686f6b692f646576656c6f706d656e742f636f81526020017f6e73656e7379732f646973747269627574652f636f6e7472616374732f636f6e81526020017f7472616374732f50726f6a6563744c6962726172792e736f6c000000000000008152506060019250505060405180910390a17fc3583d53b6a7f4e85b847b51e286c3de3aacbbc9f400e592fffb1ca83050e92f603a6040518080602001838152602001828103825260598152602001807f2f55736572732f73686f6b6973686f6b692f646576656c6f706d656e742f636f81526020017f6e73656e7379732f646973747269627574652f636f6e7472616374732f636f6e81526020017f7472616374732f50726f6a6563744c6962726172792e736f6c000000000000008152506060019250505060405180910390a18373ffffffffffffffffffffffffffffffffffffffff1663494031838373ffffffffffffffffffffffffffffffffffffffff16636f13ab006000604051602001526040518163ffffffff167c0100000000000000000000000000000000000000000000000000000000028152600401602060405180830381600087803b15156200835a57600080fd5b6102c65a03f115156200836c57600080fd5b505050604051805190506000604051602001526040518263ffffffff167c010000000000000000000000000000000000000000000000000000000002815260040180828152602001915050602060405180830381600087803b1515620083d157600080fd5b6102c65a03f11515620083e357600080fd5b505050604051805190501562008617577f5c87c330914c4ad33602a62f96e5c2c7010d100ff52c4cc4b2b3228973117c87601560006040518080602001848152602001838152602001828103825260598152602001807f2f55736572732f73686f6b6973686f6b692f646576656c6f706d656e742f636f81526020017f6e73656e7379732f646973747269627574652f636f6e7472616374732f636f6e81526020017f7472616374732f50726f6a6563744c6962726172792e736f6c00000000000000815250606001935050505060405180910390a17f32187d72afafe61c1e816d517e7c31bd33466eff90ade1495c8f52129f5499f96101026040518080602001838152602001828103825260598152602001807f2f55736572732f73686f6b6973686f6b692f646576656c6f706d656e742f636f81526020017f6e73656e7379732f646973747269627574652f636f6e7472616374732f636f6e81526020017f7472616374732f50726f6a6563744c6962726172792e736f6c000000000000008152506060019250505060405180910390a18173ffffffffffffffffffffffffffffffffffffffff1663b1ed11d160016000604051602001526040518263ffffffff167c01000000000000000000000000000000000000000000000000000000000281526004018082151515158152602001915050602060405180830381600087803b1515620085f457600080fd5b6102c65a03f115156200860657600080fd5b505050604051805190505062008cf3565b7f5c87c330914c4ad33602a62f96e5c2c7010d100ff52c4cc4b2b3228973117c87601560016040518080602001848152602001838152602001828103825260598152602001807f2f55736572732f73686f6b6973686f6b692f646576656c6f706d656e742f636f81526020017f6e73656e7379732f646973747269627574652f636f6e7472616374732f636f6e81526020017f7472616374732f50726f6a6563744c6962726172792e736f6c00000000000000815250606001935050505060405180910390a17f32187d72afafe61c1e816d517e7c31bd33466eff90ade1495c8f52129f5499f96101046040518080602001838152602001828103825260598152602001807f2f55736572732f73686f6b6973686f6b692f646576656c6f706d656e742f636f81526020017f6e73656e7379732f646973747269627574652f636f6e7472616374732f636f6e81526020017f7472616374732f50726f6a6563744c6962726172792e736f6c000000000000008152506060019250505060405180910390a18173ffffffffffffffffffffffffffffffffffffffff1663b1ed11d1600080604051602001526040518263ffffffff167c01000000000000000000000000000000000000000000000000000000000281526004018082151515158152602001915050602060405180830381600087803b15156200881757600080fd5b6102c65a03f115156200882957600080fd5b50505060405180519050507f32187d72afafe61c1e816d517e7c31bd33466eff90ade1495c8f52129f5499f96101056040518080602001838152602001828103825260598152602001807f2f55736572732f73686f6b6973686f6b692f646576656c6f706d656e742f636f81526020017f6e73656e7379732f646973747269627574652f636f6e7472616374732f636f6e81526020017f7472616374732f50726f6a6563744c6962726172792e736f6c000000000000008152506060019250505060405180910390a17fc3583d53b6a7f4e85b847b51e286c3de3aacbbc9f400e592fffb1ca83050e92f603b6040518080602001838152602001828103825260598152602001807f2f55736572732f73686f6b6973686f6b692f646576656c6f706d656e742f636f81526020017f6e73656e7379732f646973747269627574652f636f6e7472616374732f636f6e81526020017f7472616374732f50726f6a6563744c6962726172792e736f6c000000000000008152506060019250505060405180910390a18173ffffffffffffffffffffffffffffffffffffffff16637b5668606000604051602001526040518163ffffffff167c0100000000000000000000000000000000000000000000000000000000028152600401602060405180830381600087803b151562008a1c57600080fd5b6102c65a03f1151562008a2e57600080fd5b5050506040518051905090507f32187d72afafe61c1e816d517e7c31bd33466eff90ade1495c8f52129f5499f96101066040518080602001838152602001828103825260598152602001807f2f55736572732f73686f6b6973686f6b692f646576656c6f706d656e742f636f81526020017f6e73656e7379732f646973747269627574652f636f6e7472616374732f636f6e81526020017f7472616374732f50726f6a6563744c6962726172792e736f6c000000000000008152506060019250505060405180910390a18473ffffffffffffffffffffffffffffffffffffffff166375f6857b826040518263ffffffff167c010000000000000000000000000000000000000000000000000000000002815260040180828152602001915050600060405180830381600087803b151562008b6757600080fd5b6102c65a03f1151562008b7957600080fd5b5050507f32187d72afafe61c1e816d517e7c31bd33466eff90ade1495c8f52129f5499f96101076040518080602001838152602001828103825260598152602001807f2f55736572732f73686f6b6973686f6b692f646576656c6f706d656e742f636f81526020017f6e73656e7379732f646973747269627574652f636f6e7472616374732f636f6e81526020017f7472616374732f50726f6a6563744c6962726172792e736f6c000000000000008152506060019250505060405180910390a18573ffffffffffffffffffffffffffffffffffffffff16637ec20fe88a836040518363ffffffff167c0100000000000000000000000000000000000000000000000000000000028152600401808373ffffffffffffffffffffffffffffffffffffffff1673ffffffffffffffffffffffffffffffffffffffff16815260200182815260200192505050600060405180830381600087803b151562008cdd57600080fd5b6102c65a03f1151562008cef57600080fd5b5050505b62008dc0565b7f5c87c330914c4ad33602a62f96e5c2c7010d100ff52c4cc4b2b3228973117c87601460016040518080602001848152602001838152602001828103825260598152602001807f2f55736572732f73686f6b6973686f6b692f646576656c6f706d656e742f636f81526020017f6e73656e7379732f646973747269627574652f636f6e7472616374732f636f6e81526020017f7472616374732f50726f6a6563744c6962726172792e736f6c00000000000000815250606001935050505060405180910390a15b62008e8d565b7f5c87c330914c4ad33602a62f96e5c2c7010d100ff52c4cc4b2b3228973117c87601360016040518080602001848152602001838152602001828103825260598152602001807f2f55736572732f73686f6b6973686f6b692f646576656c6f706d656e742f636f81526020017f6e73656e7379732f646973747269627574652f636f6e7472616374732f636f6e81526020017f7472616374732f50726f6a6563744c6962726172792e736f6c00000000000000815250606001935050505060405180910390a15b8280600101935050620077f1565b7f32187d72afafe61c1e816d517e7c31bd33466eff90ade1495c8f52129f5499f961010c6040518080602001838152602001828103825260598152602001807f2f55736572732f73686f6b6973686f6b692f646576656c6f706d656e742f636f81526020017f6e73656e7379732f646973747269627574652f636f6e7472616374732f636f6e81526020017f7472616374732f50726f6a6563744c6962726172792e736f6c000000000000008152506060019250505060405180910390a17fc3583d53b6a7f4e85b847b51e286c3de3aacbbc9f400e592fffb1ca83050e92f603c6040518080602001838152602001828103825260598152602001807f2f55736572732f73686f6b6973686f6b692f646576656c6f706d656e742f636f81526020017f6e73656e7379732f646973747269627574652f636f6e7472616374732f636f6e81526020017f7472616374732f50726f6a6563744c6962726172792e736f6c000000000000008152506060019250505060405180910390a1620090218b6200993e565b507f32187d72afafe61c1e816d517e7c31bd33466eff90ade1495c8f52129f5499f961010d6040518080602001838152602001828103825260598152602001807f2f55736572732f73686f6b6973686f6b692f646576656c6f706d656e742f636f81526020017f6e73656e7379732f646973747269627574652f636f6e7472616374732f636f6e81526020017f7472616374732f50726f6a6563744c6962726172792e736f6c000000000000008152506060019250505060405180910390a17fc3583d53b6a7f4e85b847b51e286c3de3aacbbc9f400e592fffb1ca83050e92f603d6040518080602001838152602001828103825260598152602001807f2f55736572732f73686f6b6973686f6b692f646576656c6f706d656e742f636f81526020017f6e73656e7379732f646973747269627574652f636f6e7472616374732f636f6e81526020017f7472616374732f50726f6a6563744c6962726172792e736f6c000000000000008152506060019250505060405180910390a18573ffffffffffffffffffffffffffffffffffffffff16634b3a9a2c6000604051602001526040518163ffffffff167c0100000000000000000000000000000000000000000000000000000000028152600401602060405180830381600087803b15156200920a57600080fd5b6102c65a03f115156200921c57600080fd5b505050604051805190508673ffffffffffffffffffffffffffffffffffffffff16639bebba0a6000604051602001526040518163ffffffff167c0100000000000000000000000000000000000000000000000000000000028152600401602060405180830381600087803b15156200929357600080fd5b6102c65a03f11515620092a557600080fd5b50505060405180519050101562009410577f5c87c330914c4ad33602a62f96e5c2c7010d100ff52c4cc4b2b3228973117c87601660016040518080602001848152602001838152602001828103825260598152602001807f2f55736572732f73686f6b6973686f6b692f646576656c6f706d656e742f636f81526020017f6e73656e7379732f646973747269627574652f636f6e7472616374732f636f6e81526020017f7472616374732f50726f6a6563744c6962726172792e736f6c00000000000000815250606001935050505060405180910390a18573ffffffffffffffffffffffffffffffffffffffff1663b9d77bfc600760006040518363ffffffff167c01000000000000000000000000000000000000000000000000000000000281526004018083815260200182815260200192505050600060405180830381600087803b1515620093f557600080fd5b6102c65a03f115156200940757600080fd5b50505062009565565b7f5c87c330914c4ad33602a62f96e5c2c7010d100ff52c4cc4b2b3228973117c87601660006040518080602001848152602001838152602001828103825260598152602001807f2f55736572732f73686f6b6973686f6b692f646576656c6f706d656e742f636f81526020017f6e73656e7379732f646973747269627574652f636f6e7472616374732f636f6e81526020017f7472616374732f50726f6a6563744c6962726172792e736f6c00000000000000815250606001935050505060405180910390a18573ffffffffffffffffffffffffffffffffffffffff1663b9d77bfc600660006040518363ffffffff167c01000000000000000000000000000000000000000000000000000000000281526004018083815260200182815260200192505050600060405180830381600087803b15156200954f57600080fd5b6102c65a03f115156200956157600080fd5b5050505b7f32187d72afafe61c1e816d517e7c31bd33466eff90ade1495c8f52129f5499f96101106040518080602001838152602001828103825260598152602001807f2f55736572732f73686f6b6973686f6b692f646576656c6f706d656e742f636f81526020017f6e73656e7379732f646973747269627574652f636f6e7472616374732f636f6e81526020017f7472616374732f50726f6a6563744c6962726172792e736f6c000000000000008152506060019250505060405180910390a17fc3583d53b6a7f4e85b847b51e286c3de3aacbbc9f400e592fffb1ca83050e92f603e6040518080602001838152602001828103825260598152602001807f2f55736572732f73686f6b6973686f6b692f646576656c6f706d656e742f636f81526020017f6e73656e7379732f646973747269627574652f636f6e7472616374732f636f6e81526020017f7472616374732f50726f6a6563744c6962726172792e736f6c000000000000008152506060019250505060405180910390a16001965062009930565b7f5c87c330914c4ad33602a62f96e5c2c7010d100ff52c4cc4b2b3228973117c87601260016040518080602001848152602001838152602001828103825260598152602001807f2f55736572732f73686f6b6973686f6b692f646576656c6f706d656e742f636f81526020017f6e73656e7379732f646973747269627574652f636f6e7472616374732f636f6e81526020017f7472616374732f50726f6a6563744c6962726172792e736f6c00000000000000815250606001935050505060405180910390a17f32187d72afafe61c1e816d517e7c31bd33466eff90ade1495c8f52129f5499f96101126040518080602001838152602001828103825260598152602001807f2f55736572732f73686f6b6973686f6b692f646576656c6f706d656e742f636f81526020017f6e73656e7379732f646973747269627574652f636f6e7472616374732f636f6e81526020017f7472616374732f50726f6a6563744c6962726172792e736f6c000000000000008152506060019250505060405180910390a17fc3583d53b6a7f4e85b847b51e286c3de3aacbbc9f400e592fffb1ca83050e92f603f6040518080602001838152602001828103825260598152602001807f2f55736572732f73686f6b6973686f6b692f646576656c6f706d656e742f636f81526020017f6e73656e7379732f646973747269627574652f636f6e7472616374732f636f6e81526020017f7472616374732f50726f6a6563744c6962726172792e736f6c000000000000008152506060019250505060405180910390a1600096505b505050505050949350505050565b60008060008060007fbd44212b1b989052c33c25cccc05dc159c494e554409c9c7966d0ed3dc6b3cc5600b6040518080602001838152602001828103825260598152602001807f2f55736572732f73686f6b6973686f6b692f646576656c6f706d656e742f636f81526020017f6e73656e7379732f646973747269627574652f636f6e7472616374732f636f6e81526020017f7472616374732f50726f6a6563744c6962726172792e736f6c000000000000008152506060019250505060405180910390a17f32187d72afafe61c1e816d517e7c31bd33466eff90ade1495c8f52129f5499f96101396040518080602001838152602001828103825260598152602001807f2f55736572732f73686f6b6973686f6b692f646576656c6f706d656e742f636f81526020017f6e73656e7379732f646973747269627574652f636f6e7472616374732f636f6e81526020017f7472616374732f50726f6a6563744c6962726172792e736f6c000000000000008152506060019250505060405180910390a17fc3583d53b6a7f4e85b847b51e286c3de3aacbbc9f400e592fffb1ca83050e92f60456040518080602001838152602001828103825260598152602001807f2f55736572732f73686f6b6973686f6b692f646576656c6f706d656e742f636f81526020017f6e73656e7379732f646973747269627574652f636f6e7472616374732f636f6e81526020017f7472616374732f50726f6a6563744c6962726172792e736f6c000000000000008152506060019250505060405180910390a18593507f32187d72afafe61c1e816d517e7c31bd33466eff90ade1495c8f52129f5499f961013a6040518080602001838152602001828103825260598152602001807f2f55736572732f73686f6b6973686f6b692f646576656c6f706d656e742f636f81526020017f6e73656e7379732f646973747269627574652f636f6e7472616374732f636f6e81526020017f7472616374732f50726f6a6563744c6962726172792e736f6c000000000000008152506060019250505060405180910390a17f2865773bd2bcc54b1fabefafb2d62a1bbb5bba42cf0ffe6cd769772ac9d1250b601a6040518080602001838152602001828103825260598152602001807f2f55736572732f73686f6b6973686f6b692f646576656c6f706d656e742f636f81526020017f6e73656e7379732f646973747269627574652f636f6e7472616374732f636f6e81526020017f7472616374732f50726f6a6563744c6962726172792e736f6c000000000000008152506060019250505060405180910390a17fc3583d53b6a7f4e85b847b51e286c3de3aacbbc9f400e592fffb1ca83050e92f60466040518080602001838152602001828103825260598152602001807f2f55736572732f73686f6b6973686f6b692f646576656c6f706d656e742f636f81526020017f6e73656e7379732f646973747269627574652f636f6e7472616374732f636f6e81526020017f7472616374732f50726f6a6563744c6962726172792e736f6c000000000000008152506060019250505060405180910390a160058473ffffffffffffffffffffffffffffffffffffffff1663c19d93fb6000604051602001526040518163ffffffff167c0100000000000000000000000000000000000000000000000000000000028152600401602060405180830381600087803b151562009e2857600080fd5b6102c65a03f1151562009e3a57600080fd5b5050506040518051905014151562009e5157600080fd5b7f631dd81baf3474bcc9608bc2a049645125fe359730ea7452a7ef89ef9e5cafe9601a6040518080602001838152602001828103825260598152602001807f2f55736572732f73686f6b6973686f6b692f646576656c6f706d656e742f636f81526020017f6e73656e7379732f646973747269627574652f636f6e7472616374732f636f6e81526020017f7472616374732f50726f6a6563744c6962726172792e736f6c000000000000008152506060019250505060405180910390a17f32187d72afafe61c1e816d517e7c31bd33466eff90ade1495c8f52129f5499f961013c6040518080602001838152602001828103825260598152602001807f2f55736572732f73686f6b6973686f6b692f646576656c6f706d656e742f636f81526020017f6e73656e7379732f646973747269627574652f636f6e7472616374732f636f6e81526020017f7472616374732f50726f6a6563744c6962726172792e736f6c000000000000008152506060019250505060405180910390a17f32187d72afafe61c1e816d517e7c31bd33466eff90ade1495c8f52129f5499f961013d6040518080602001838152602001828103825260598152602001807f2f55736572732f73686f6b6973686f6b692f646576656c6f706d656e742f636f81526020017f6e73656e7379732f646973747269627574652f636f6e7472616374732f636f6e81526020017f7472616374732f50726f6a6563744c6962726172792e736f6c000000000000008152506060019250505060405180910390a17fc3583d53b6a7f4e85b847b51e286c3de3aacbbc9f400e592fffb1ca83050e92f60476040518080602001838152602001828103825260598152602001807f2f55736572732f73686f6b6973686f6b692f646576656c6f706d656e742f636f81526020017f6e73656e7379732f646973747269627574652f636f6e7472616374732f636f6e81526020017f7472616374732f50726f6a6563744c6962726172792e736f6c000000000000008152506060019250505060405180910390a1600091505b8373ffffffffffffffffffffffffffffffffffffffff1663c17a340e6000604051602001526040518163ffffffff167c0100000000000000000000000000000000000000000000000000000000028152600401602060405180830381600087803b15156200a1b957600080fd5b6102c65a03f115156200a1cb57600080fd5b505050604051805190508210156200a8e3577f32187d72afafe61c1e816d517e7c31bd33466eff90ade1495c8f52129f5499f961013e6040518080602001838152602001828103825260598152602001807f2f55736572732f73686f6b6973686f6b692f646576656c6f706d656e742f636f81526020017f6e73656e7379732f646973747269627574652f636f6e7472616374732f636f6e81526020017f7472616374732f50726f6a6563744c6962726172792e736f6c000000000000008152506060019250505060405180910390a17fc3583d53b6a7f4e85b847b51e286c3de3aacbbc9f400e592fffb1ca83050e92f60486040518080602001838152602001828103825260598152602001807f2f55736572732f73686f6b6973686f6b692f646576656c6f706d656e742f636f81526020017f6e73656e7379732f646973747269627574652f636f6e7472616374732f636f6e81526020017f7472616374732f50726f6a6563744c6962726172792e736f6c000000000000008152506060019250505060405180910390a18373ffffffffffffffffffffffffffffffffffffffff16638d977672836000604051602001526040518263ffffffff167c010000000000000000000000000000000000000000000000000000000002815260040180828152602001915050602060405180830381600087803b15156200a3d057600080fd5b6102c65a03f115156200a3e257600080fd5b5050506040518051905090507f32187d72afafe61c1e816d517e7c31bd33466eff90ade1495c8f52129f5499f961013f6040518080602001838152602001828103825260598152602001807f2f55736572732f73686f6b6973686f6b692f646576656c6f706d656e742f636f81526020017f6e73656e7379732f646973747269627574652f636f6e7472616374732f636f6e81526020017f7472616374732f50726f6a6563744c6962726172792e736f6c000000000000008152506060019250505060405180910390a17fc3583d53b6a7f4e85b847b51e286c3de3aacbbc9f400e592fffb1ca83050e92f60496040518080602001838152602001828103825260598152602001807f2f55736572732f73686f6b6973686f6b692f646576656c6f706d656e742f636f81526020017f6e73656e7379732f646973747269627574652f636f6e7472616374732f636f6e81526020017f7472616374732f50726f6a6563744c6962726172792e736f6c000000000000008152506060019250505060405180910390a18073ffffffffffffffffffffffffffffffffffffffff1663edb151a86000604051602001526040518163ffffffff167c0100000000000000000000000000000000000000000000000000000000028152600401602060405180830381600087803b15156200a5d657600080fd5b6102c65a03f115156200a5e857600080fd5b50505060405180519050156200a80e577f5c87c330914c4ad33602a62f96e5c2c7010d100ff52c4cc4b2b3228973117c87601b60006040518080602001848152602001838152602001828103825260598152602001807f2f55736572732f73686f6b6973686f6b692f646576656c6f706d656e742f636f81526020017f6e73656e7379732f646973747269627574652f636f6e7472616374732f636f6e81526020017f7472616374732f50726f6a6563744c6962726172792e736f6c00000000000000815250606001935050505060405180910390a17fc3583d53b6a7f4e85b847b51e286c3de3aacbbc9f400e592fffb1ca83050e92f604a6040518080602001838152602001828103825260598152602001807f2f55736572732f73686f6b6973686f6b692f646576656c6f706d656e742f636f81526020017f6e73656e7379732f646973747269627574652f636f6e7472616374732f636f6e81526020017f7472616374732f50726f6a6563744c6962726172792e736f6c000000000000008152506060019250505060405180910390a18073ffffffffffffffffffffffffffffffffffffffff1663599b6d236000604051602001526040518163ffffffff167c0100000000000000000000000000000000000000000000000000000000028152600401602060405180830381600087803b15156200a7e857600080fd5b6102c65a03f115156200a7fa57600080fd5b50505060405180519050830192506200a8d5565b7f5c87c330914c4ad33602a62f96e5c2c7010d100ff52c4cc4b2b3228973117c87601b60016040518080602001848152602001838152602001828103825260598152602001807f2f55736572732f73686f6b6973686f6b692f646576656c6f706d656e742f636f81526020017f6e73656e7379732f646973747269627574652f636f6e7472616374732f636f6e81526020017f7472616374732f50726f6a6563744c6962726172792e736f6c00000000000000815250606001935050505060405180910390a15b81806001019250506200a14c565b7f32187d72afafe61c1e816d517e7c31bd33466eff90ade1495c8f52129f5499f96101416040518080602001838152602001828103825260598152602001807f2f55736572732f73686f6b6973686f6b692f646576656c6f706d656e742f636f81526020017f6e73656e7379732f646973747269627574652f636f6e7472616374732f636f6e81526020017f7472616374732f50726f6a6563744c6962726172792e736f6c000000000000008152506060019250505060405180910390a18373ffffffffffffffffffffffffffffffffffffffff16630df44ec5846040518263ffffffff167c010000000000000000000000000000000000000000000000000000000002815260040180828152602001915050600060405180830381600087803b15156200aa1057600080fd5b6102c65a03f115156200aa2257600080fd5b5050507f32187d72afafe61c1e816d517e7c31bd33466eff90ade1495c8f52129f5499f96101426040518080602001838152602001828103825260598152602001807f2f55736572732f73686f6b6973686f6b692f646576656c6f706d656e742f636f81526020017f6e73656e7379732f646973747269627574652f636f6e7472616374732f636f6e81526020017f7472616374732f50726f6a6563744c6962726172792e736f6c000000000000008152506060019250505060405180910390a17fc3583d53b6a7f4e85b847b51e286c3de3aacbbc9f400e592fffb1ca83050e92f604b6040518080602001838152602001828103825260598152602001807f2f55736572732f73686f6b6973686f6b692f646576656c6f706d656e742f636f81526020017f6e73656e7379732f646973747269627574652f636f6e7472616374732f636f6e81526020017f7472616374732f50726f6a6563744c6962726172792e736f6c000000000000008152506060019250505060405180910390a182945050505050919050565b60008060007fbd44212b1b989052c33c25cccc05dc159c494e554409c9c7966d0ed3dc6b3cc560066040518080602001838152602001828103825260598152602001807f2f55736572732f73686f6b6973686f6b692f646576656c6f706d656e742f636f81526020017f6e73656e7379732f646973747269627574652f636f6e7472616374732f636f6e81526020017f7472616374732f50726f6a6563744c6962726172792e736f6c000000000000008152506060019250505060405180910390a17f32187d72afafe61c1e816d517e7c31bd33466eff90ade1495c8f52129f5499f9607f6040518080602001838152602001828103825260598152602001807f2f55736572732f73686f6b6973686f6b692f646576656c6f706d656e742f636f81526020017f6e73656e7379732f646973747269627574652f636f6e7472616374732f636f6e81526020017f7472616374732f50726f6a6563744c6962726172792e736f6c000000000000008152506060019250505060405180910390a17fc3583d53b6a7f4e85b847b51e286c3de3aacbbc9f400e592fffb1ca83050e92f60116040518080602001838152602001828103825260598152602001807f2f55736572732f73686f6b6973686f6b692f646576656c6f706d656e742f636f81526020017f6e73656e7379732f646973747269627574652f636f6e7472616374732f636f6e81526020017f7472616374732f50726f6a6563744c6962726172792e736f6c000000000000008152506060019250505060405180910390a18491507f32187d72afafe61c1e816d517e7c31bd33466eff90ade1495c8f52129f5499f960806040518080602001838152602001828103825260598152602001807f2f55736572732f73686f6b6973686f6b692f646576656c6f706d656e742f636f81526020017f6e73656e7379732f646973747269627574652f636f6e7472616374732f636f6e81526020017f7472616374732f50726f6a6563744c6962726172792e736f6c000000000000008152506060019250505060405180910390a17f2865773bd2bcc54b1fabefafb2d62a1bbb5bba42cf0ffe6cd769772ac9d1250b60066040518080602001838152602001828103825260598152602001807f2f55736572732f73686f6b6973686f6b692f646576656c6f706d656e742f636f81526020017f6e73656e7379732f646973747269627574652f636f6e7472616374732f636f6e81526020017f7472616374732f50726f6a6563744c6962726172792e736f6c000000000000008152506060019250505060405180910390a17fc3583d53b6a7f4e85b847b51e286c3de3aacbbc9f400e592fffb1ca83050e92f60126040518080602001838152602001828103825260598152602001807f2f55736572732f73686f6b6973686f6b692f646576656c6f706d656e742f636f81526020017f6e73656e7379732f646973747269627574652f636f6e7472616374732f636f6e81526020017f7472616374732f50726f6a6563744c6962726172792e736f6c000000000000008152506060019250505060405180910390a160028273ffffffffffffffffffffffffffffffffffffffff1663c19d93fb6000604051602001526040518163ffffffff167c0100000000000000000000000000000000000000000000000000000000028152600401602060405180830381600087803b15156200b09157600080fd5b6102c65a03f115156200b0a357600080fd5b505050604051805190501415156200b0ba57600080fd5b7f631dd81baf3474bcc9608bc2a049645125fe359730ea7452a7ef89ef9e5cafe960066040518080602001838152602001828103825260598152602001807f2f55736572732f73686f6b6973686f6b692f646576656c6f706d656e742f636f81526020017f6e73656e7379732f646973747269627574652f636f6e7472616374732f636f6e81526020017f7472616374732f50726f6a6563744c6962726172792e736f6c000000000000008152506060019250505060405180910390a17f32187d72afafe61c1e816d517e7c31bd33466eff90ade1495c8f52129f5499f960826040518080602001838152602001828103825260598152602001807f2f55736572732f73686f6b6973686f6b692f646576656c6f706d656e742f636f81526020017f6e73656e7379732f646973747269627574652f636f6e7472616374732f636f6e81526020017f7472616374732f50726f6a6563744c6962726172792e736f6c000000000000008152506060019250505060405180910390a17fc3583d53b6a7f4e85b847b51e286c3de3aacbbc9f400e592fffb1ca83050e92f60136040518080602001838152602001828103825260598152602001807f2f55736572732f73686f6b6973686f6b692f646576656c6f706d656e742f636f81526020017f6e73656e7379732f646973747269627574652f636f6e7472616374732f636f6e81526020017f7472616374732f50726f6a6563744c6962726172792e736f6c000000000000008152506060019250505060405180910390a16200b2fc8562010616565b156200bdc3577f5c87c330914c4ad33602a62f96e5c2c7010d100ff52c4cc4b2b3228973117c87600760006040518080602001848152602001838152602001828103825260598152602001807f2f55736572732f73686f6b6973686f6b692f646576656c6f706d656e742f636f81526020017f6e73656e7379732f646973747269627574652f636f6e7472616374732f636f6e81526020017f7472616374732f50726f6a6563744c6962726172792e736f6c00000000000000815250606001935050505060405180910390a17f32187d72afafe61c1e816d517e7c31bd33466eff90ade1495c8f52129f5499f960836040518080602001838152602001828103825260598152602001807f2f55736572732f73686f6b6973686f6b692f646576656c6f706d656e742f636f81526020017f6e73656e7379732f646973747269627574652f636f6e7472616374732f636f6e81526020017f7472616374732f50726f6a6563744c6962726172792e736f6c000000000000008152506060019250505060405180910390a17f32187d72afafe61c1e816d517e7c31bd33466eff90ade1495c8f52129f5499f960846040518080602001838152602001828103825260598152602001807f2f55736572732f73686f6b6973686f6b692f646576656c6f706d656e742f636f81526020017f6e73656e7379732f646973747269627574652f636f6e7472616374732f636f6e81526020017f7472616374732f50726f6a6563744c6962726172792e736f6c000000000000008152506060019250505060405180910390a17fc3583d53b6a7f4e85b847b51e286c3de3aacbbc9f400e592fffb1ca83050e92f60146040518080602001838152602001828103825260598152602001807f2f55736572732f73686f6b6973686f6b692f646576656c6f706d656e742f636f81526020017f6e73656e7379732f646973747269627574652f636f6e7472616374732f636f6e81526020017f7472616374732f50726f6a6563744c6962726172792e736f6c000000000000008152506060019250505060405180910390a1600060010284600019161415156200bbac577f5c87c330914c4ad33602a62f96e5c2c7010d100ff52c4cc4b2b3228973117c87600860006040518080602001848152602001838152602001828103825260598152602001807f2f55736572732f73686f6b6973686f6b692f646576656c6f706d656e742f636f81526020017f6e73656e7379732f646973747269627574652f636f6e7472616374732f636f6e81526020017f7472616374732f50726f6a6563744c6962726172792e736f6c00000000000000815250606001935050505060405180910390a17f32187d72afafe61c1e816d517e7c31bd33466eff90ade1495c8f52129f5499f960856040518080602001838152602001828103825260598152602001807f2f55736572732f73686f6b6973686f6b692f646576656c6f706d656e742f636f81526020017f6e73656e7379732f646973747269627574652f636f6e7472616374732f636f6e81526020017f7472616374732f50726f6a6563744c6962726172792e736f6c000000000000008152506060019250505060405180910390a17fc3583d53b6a7f4e85b847b51e286c3de3aacbbc9f400e592fffb1ca83050e92f60156040518080602001838152602001828103825260598152602001807f2f55736572732f73686f6b6973686f6b692f646576656c6f706d656e742f636f81526020017f6e73656e7379732f646973747269627574652f636f6e7472616374732f636f6e81526020017f7472616374732f50726f6a6563744c6962726172792e736f6c000000000000008152506060019250505060405180910390a18173ffffffffffffffffffffffffffffffffffffffff1663ff04322d6000604051602001526040518163ffffffff167c0100000000000000000000000000000000000000000000000000000000028152600401602060405180830381600087803b15156200b8be57600080fd5b6102c65a03f115156200b8d057600080fd5b50505060405180519050420190507f32187d72afafe61c1e816d517e7c31bd33466eff90ade1495c8f52129f5499f960866040518080602001838152602001828103825260598152602001807f2f55736572732f73686f6b6973686f6b692f646576656c6f706d656e742f636f81526020017f6e73656e7379732f646973747269627574652f636f6e7472616374732f636f6e81526020017f7472616374732f50726f6a6563744c6962726172792e736f6c000000000000008152506060019250505060405180910390a18173ffffffffffffffffffffffffffffffffffffffff1663b9d77bfc6003836040518363ffffffff167c01000000000000000000000000000000000000000000000000000000000281526004018083815260200182815260200192505050600060405180830381600087803b15156200ba1357600080fd5b6102c65a03f115156200ba2557600080fd5b5050507f32187d72afafe61c1e816d517e7c31bd33466eff90ade1495c8f52129f5499f960876040518080602001838152602001828103825260598152602001807f2f55736572732f73686f6b6973686f6b692f646576656c6f706d656e742f636f81526020017f6e73656e7379732f646973747269627574652f636f6e7472616374732f636f6e81526020017f7472616374732f50726f6a6563744c6962726172792e736f6c000000000000008152506060019250505060405180910390a17fc3583d53b6a7f4e85b847b51e286c3de3aacbbc9f400e592fffb1ca83050e92f60166040518080602001838152602001828103825260598152602001807f2f55736572732f73686f6b6973686f6b692f646576656c6f706d656e742f636f81526020017f6e73656e7379732f646973747269627574652f636f6e7472616374732f636f6e81526020017f7472616374732f50726f6a6563744c6962726172792e736f6c000000000000008152506060019250505060405180910390a1600192506200c009565b7f5c87c330914c4ad33602a62f96e5c2c7010d100ff52c4cc4b2b3228973117c87600860016040518080602001848152602001838152602001828103825260598152602001807f2f55736572732f73686f6b6973686f6b692f646576656c6f706d656e742f636f81526020017f6e73656e7379732f646973747269627574652f636f6e7472616374732f636f6e81526020017f7472616374732f50726f6a6563744c6962726172792e736f6c00000000000000815250606001935050505060405180910390a17f32187d72afafe61c1e816d517e7c31bd33466eff90ade1495c8f52129f5499f960896040518080602001838152602001828103825260598152602001807f2f55736572732f73686f6b6973686f6b692f646576656c6f706d656e742f636f81526020017f6e73656e7379732f646973747269627574652f636f6e7472616374732f636f6e81526020017f7472616374732f50726f6a6563744c6962726172792e736f6c000000000000008152506060019250505060405180910390a18173ffffffffffffffffffffffffffffffffffffffff1663b9d77bfc600760006040518363ffffffff167c01000000000000000000000000000000000000000000000000000000000281526004018083815260200182815260200192505050600060405180830381600087803b15156200bda857600080fd5b6102c65a03f115156200bdba57600080fd5b5050506200be8a565b7f5c87c330914c4ad33602a62f96e5c2c7010d100ff52c4cc4b2b3228973117c87600760016040518080602001848152602001838152602001828103825260598152602001807f2f55736572732f73686f6b6973686f6b692f646576656c6f706d656e742f636f81526020017f6e73656e7379732f646973747269627574652f636f6e7472616374732f636f6e81526020017f7472616374732f50726f6a6563744c6962726172792e736f6c00000000000000815250606001935050505060405180910390a15b7f32187d72afafe61c1e816d517e7c31bd33466eff90ade1495c8f52129f5499f9608c6040518080602001838152602001828103825260598152602001807f2f55736572732f73686f6b6973686f6b692f646576656c6f706d656e742f636f81526020017f6e73656e7379732f646973747269627574652f636f6e7472616374732f636f6e81526020017f7472616374732f50726f6a6563744c6962726172792e736f6c000000000000008152506060019250505060405180910390a17fc3583d53b6a7f4e85b847b51e286c3de3aacbbc9f400e592fffb1ca83050e92f60176040518080602001838152602001828103825260598152602001807f2f55736572732f73686f6b6973686f6b692f646576656c6f706d656e742f636f81526020017f6e73656e7379732f646973747269627574652f636f6e7472616374732f636f6e81526020017f7472616374732f50726f6a6563744c6962726172792e736f6c000000000000008152506060019250505060405180910390a1600092505b505092915050565b6000807fbd44212b1b989052c33c25cccc05dc159c494e554409c9c7966d0ed3dc6b3cc5600d6040518080602001838152602001828103825260598152602001807f2f55736572732f73686f6b6973686f6b692f646576656c6f706d656e742f636f81526020017f6e73656e7379732f646973747269627574652f636f6e7472616374732f636f6e81526020017f7472616374732f50726f6a6563744c6962726172792e736f6c000000000000008152506060019250505060405180910390a17f32187d72afafe61c1e816d517e7c31bd33466eff90ade1495c8f52129f5499f961016d6040518080602001838152602001828103825260598152602001807f2f55736572732f73686f6b6973686f6b692f646576656c6f706d656e742f636f81526020017f6e73656e7379732f646973747269627574652f636f6e7472616374732f636f6e81526020017f7472616374732f50726f6a6563744c6962726172792e736f6c000000000000008152506060019250505060405180910390a17fc3583d53b6a7f4e85b847b51e286c3de3aacbbc9f400e592fffb1ca83050e92f60526040518080602001838152602001828103825260598152602001807f2f55736572732f73686f6b6973686f6b692f646576656c6f706d656e742f636f81526020017f6e73656e7379732f646973747269627574652f636f6e7472616374732f636f6e81526020017f7472616374732f50726f6a6563744c6962726172792e736f6c000000000000008152506060019250505060405180910390a18390507f32187d72afafe61c1e816d517e7c31bd33466eff90ade1495c8f52129f5499f961016e6040518080602001838152602001828103825260598152602001807f2f55736572732f73686f6b6973686f6b692f646576656c6f706d656e742f636f81526020017f6e73656e7379732f646973747269627574652f636f6e7472616374732f636f6e81526020017f7472616374732f50726f6a6563744c6962726172792e736f6c000000000000008152506060019250505060405180910390a17f2865773bd2bcc54b1fabefafb2d62a1bbb5bba42cf0ffe6cd769772ac9d1250b601d6040518080602001838152602001828103825260598152602001807f2f55736572732f73686f6b6973686f6b692f646576656c6f706d656e742f636f81526020017f6e73656e7379732f646973747269627574652f636f6e7472616374732f636f6e81526020017f7472616374732f50726f6a6563744c6962726172792e736f6c000000000000008152506060019250505060405180910390a17fc3583d53b6a7f4e85b847b51e286c3de3aacbbc9f400e592fffb1ca83050e92f60536040518080602001838152602001828103825260598152602001807f2f55736572732f73686f6b6973686f6b692f646576656c6f706d656e742f636f81526020017f6e73656e7379732f646973747269627574652f636f6e7472616374732f636f6e81526020017f7472616374732f50726f6a6563744c6962726172792e736f6c000000000000008152506060019250505060405180910390a160068173ffffffffffffffffffffffffffffffffffffffff1663c19d93fb6000604051602001526040518163ffffffff167c0100000000000000000000000000000000000000000000000000000000028152600401602060405180830381600087803b15156200c4f657600080fd5b6102c65a03f115156200c50857600080fd5b5050506040518051905014806200c5a7575060088173ffffffffffffffffffffffffffffffffffffffff1663c19d93fb6000604051602001526040518163ffffffff167c0100000000000000000000000000000000000000000000000000000000028152600401602060405180830381600087803b15156200c58957600080fd5b6102c65a03f115156200c59b57600080fd5b50505060405180519050145b15156200c5b357600080fd5b7f631dd81baf3474bcc9608bc2a049645125fe359730ea7452a7ef89ef9e5cafe9601d6040518080602001838152602001828103825260598152602001807f2f55736572732f73686f6b6973686f6b692f646576656c6f706d656e742f636f81526020017f6e73656e7379732f646973747269627574652f636f6e7472616374732f636f6e81526020017f7472616374732f50726f6a6563744c6962726172792e736f6c000000000000008152506060019250505060405180910390a17f32187d72afafe61c1e816d517e7c31bd33466eff90ade1495c8f52129f5499f96101706040518080602001838152602001828103825260598152602001807f2f55736572732f73686f6b6973686f6b692f646576656c6f706d656e742f636f81526020017f6e73656e7379732f646973747269627574652f636f6e7472616374732f636f6e81526020017f7472616374732f50726f6a6563744c6962726172792e736f6c000000000000008152506060019250505060405180910390a17fc3583d53b6a7f4e85b847b51e286c3de3aacbbc9f400e592fffb1ca83050e92f60546040518080602001838152602001828103825260598152602001807f2f55736572732f73686f6b6973686f6b692f646576656c6f706d656e742f636f81526020017f6e73656e7379732f646973747269627574652f636f6e7472616374732f636f6e81526020017f7472616374732f50726f6a6563744c6962726172792e736f6c000000000000008152506060019250505060405180910390a18073ffffffffffffffffffffffffffffffffffffffff1663b532b113336000604051602001526040518263ffffffff167c0100000000000000000000000000000000000000000000000000000000028152600401808273ffffffffffffffffffffffffffffffffffffffff1673ffffffffffffffffffffffffffffffffffffffff168152602001915050602060405180830381600087803b15156200c88f57600080fd5b6102c65a03f115156200c8a157600080fd5b50505060405180519050156200cb06577f5c87c330914c4ad33602a62f96e5c2c7010d100ff52c4cc4b2b3228973117c87601e60006040518080602001848152602001838152602001828103825260598152602001807f2f55736572732f73686f6b6973686f6b692f646576656c6f706d656e742f636f81526020017f6e73656e7379732f646973747269627574652f636f6e7472616374732f636f6e81526020017f7472616374732f50726f6a6563744c6962726172792e736f6c00000000000000815250606001935050505060405180910390a17f32187d72afafe61c1e816d517e7c31bd33466eff90ade1495c8f52129f5499f96101716040518080602001838152602001828103825260598152602001807f2f55736572732f73686f6b6973686f6b692f646576656c6f706d656e742f636f81526020017f6e73656e7379732f646973747269627574652f636f6e7472616374732f636f6e81526020017f7472616374732f50726f6a6563744c6962726172792e736f6c000000000000008152506060019250505060405180910390a17fc3583d53b6a7f4e85b847b51e286c3de3aacbbc9f400e592fffb1ca83050e92f60556040518080602001838152602001828103825260598152602001807f2f55736572732f73686f6b6973686f6b692f646576656c6f706d656e742f636f81526020017f6e73656e7379732f646973747269627574652f636f6e7472616374732f636f6e81526020017f7472616374732f50726f6a6563744c6962726172792e736f6c000000000000008152506060019250505060405180910390a16200cafe8184620108e1565b91506200d1ea565b7fc3583d53b6a7f4e85b847b51e286c3de3aacbbc9f400e592fffb1ca83050e92f60566040518080602001838152602001828103825260598152602001807f2f55736572732f73686f6b6973686f6b692f646576656c6f706d656e742f636f81526020017f6e73656e7379732f646973747269627574652f636f6e7472616374732f636f6e81526020017f7472616374732f50726f6a6563744c6962726172792e736f6c000000000000008152506060019250505060405180910390a17f5c87c330914c4ad33602a62f96e5c2c7010d100ff52c4cc4b2b3228973117c87601e60016040518080602001848152602001838152602001828103825260598152602001807f2f55736572732f73686f6b6973686f6b692f646576656c6f706d656e742f636f81526020017f6e73656e7379732f646973747269627574652f636f6e7472616374732f636f6e81526020017f7472616374732f50726f6a6563744c6962726172792e736f6c00000000000000815250606001935050505060405180910390a18073ffffffffffffffffffffffffffffffffffffffff1663b5b29838336000604051602001526040518263ffffffff167c0100000000000000000000000000000000000000000000000000000000028152600401808273ffffffffffffffffffffffffffffffffffffffff1673ffffffffffffffffffffffffffffffffffffffff168152602001915050602060405180830381600087803b15156200cd2d57600080fd5b6102c65a03f115156200cd3f57600080fd5b50505060405180519050156200cfa4577f5c87c330914c4ad33602a62f96e5c2c7010d100ff52c4cc4b2b3228973117c87601f60006040518080602001848152602001838152602001828103825260598152602001807f2f55736572732f73686f6b6973686f6b692f646576656c6f706d656e742f636f81526020017f6e73656e7379732f646973747269627574652f636f6e7472616374732f636f6e81526020017f7472616374732f50726f6a6563744c6962726172792e736f6c00000000000000815250606001935050505060405180910390a17f32187d72afafe61c1e816d517e7c31bd33466eff90ade1495c8f52129f5499f96101736040518080602001838152602001828103825260598152602001807f2f55736572732f73686f6b6973686f6b692f646576656c6f706d656e742f636f81526020017f6e73656e7379732f646973747269627574652f636f6e7472616374732f636f6e81526020017f7472616374732f50726f6a6563744c6962726172792e736f6c000000000000008152506060019250505060405180910390a17fc3583d53b6a7f4e85b847b51e286c3de3aacbbc9f400e592fffb1ca83050e92f60576040518080602001838152602001828103825260598152602001807f2f55736572732f73686f6b6973686f6b692f646576656c6f706d656e742f636f81526020017f6e73656e7379732f646973747269627574652f636f6e7472616374732f636f6e81526020017f7472616374732f50726f6a6563744c6962726172792e736f6c000000000000008152506060019250505060405180910390a16200cf9c81846201143f565b91506200d1ea565b7f5c87c330914c4ad33602a62f96e5c2c7010d100ff52c4cc4b2b3228973117c87601f60016040518080602001848152602001838152602001828103825260598152602001807f2f55736572732f73686f6b6973686f6b692f646576656c6f706d656e742f636f81526020017f6e73656e7379732f646973747269627574652f636f6e7472616374732f636f6e81526020017f7472616374732f50726f6a6563744c6962726172792e736f6c00000000000000815250606001935050505060405180910390a17f32187d72afafe61c1e816d517e7c31bd33466eff90ade1495c8f52129f5499f96101756040518080602001838152602001828103825260598152602001807f2f55736572732f73686f6b6973686f6b692f646576656c6f706d656e742f636f81526020017f6e73656e7379732f646973747269627574652f636f6e7472616374732f636f6e81526020017f7472616374732f50726f6a6563744c6962726172792e736f6c000000000000008152506060019250505060405180910390a17fc3583d53b6a7f4e85b847b51e286c3de3aacbbc9f400e592fffb1ca83050e92f60586040518080602001838152602001828103825260598152602001807f2f55736572732f73686f6b6973686f6b692f646576656c6f706d656e742f636f81526020017f6e73656e7379732f646973747269627574652f636f6e7472616374732f636f6e81526020017f7472616374732f50726f6a6563744c6962726172792e736f6c000000000000008152506060019250505060405180910390a1600091505b5092915050565b60008060008060008060007fbd44212b1b989052c33c25cccc05dc159c494e554409c9c7966d0ed3dc6b3cc560076040518080602001838152602001828103825260598152602001807f2f55736572732f73686f6b6973686f6b692f646576656c6f706d656e742f636f81526020017f6e73656e7379732f646973747269627574652f636f6e7472616374732f636f6e81526020017f7472616374732f50726f6a6563744c6962726172792e736f6c000000000000008152506060019250505060405180910390a17f32187d72afafe61c1e816d517e7c31bd33466eff90ade1495c8f52129f5499f9609f6040518080602001838152602001828103825260598152602001807f2f55736572732f73686f6b6973686f6b692f646576656c6f706d656e742f636f81526020017f6e73656e7379732f646973747269627574652f636f6e7472616374732f636f6e81526020017f7472616374732f50726f6a6563744c6962726172792e736f6c000000000000008152506060019250505060405180910390a17fc3583d53b6a7f4e85b847b51e286c3de3aacbbc9f400e592fffb1ca83050e92f60186040518080602001838152602001828103825260598152602001807f2f55736572732f73686f6b6973686f6b692f646576656c6f706d656e742f636f81526020017f6e73656e7379732f646973747269627574652f636f6e7472616374732f636f6e81526020017f7472616374732f50726f6a6563744c6962726172792e736f6c000000000000008152506060019250505060405180910390a18995507f32187d72afafe61c1e816d517e7c31bd33466eff90ade1495c8f52129f5499f960a06040518080602001838152602001828103825260598152602001807f2f55736572732f73686f6b6973686f6b692f646576656c6f706d656e742f636f81526020017f6e73656e7379732f646973747269627574652f636f6e7472616374732f636f6e81526020017f7472616374732f50726f6a6563744c6962726172792e736f6c000000000000008152506060019250505060405180910390a17f2865773bd2bcc54b1fabefafb2d62a1bbb5bba42cf0ffe6cd769772ac9d1250b60096040518080602001838152602001828103825260598152602001807f2f55736572732f73686f6b6973686f6b692f646576656c6f706d656e742f636f81526020017f6e73656e7379732f646973747269627574652f636f6e7472616374732f636f6e81526020017f7472616374732f50726f6a6563744c6962726172792e736f6c000000000000008152506060019250505060405180910390a17fc3583d53b6a7f4e85b847b51e286c3de3aacbbc9f400e592fffb1ca83050e92f60196040518080602001838152602001828103825260598152602001807f2f55736572732f73686f6b6973686f6b692f646576656c6f706d656e742f636f81526020017f6e73656e7379732f646973747269627574652f636f6e7472616374732f636f6e81526020017f7472616374732f50726f6a6563744c6962726172792e736f6c000000000000008152506060019250505060405180910390a160038673ffffffffffffffffffffffffffffffffffffffff1663c19d93fb6000604051602001526040518163ffffffff167c0100000000000000000000000000000000000000000000000000000000028152600401602060405180830381600087803b15156200d6dc57600080fd5b6102c65a03f115156200d6ee57600080fd5b505050604051805190501415156200d70557600080fd5b7f631dd81baf3474bcc9608bc2a049645125fe359730ea7452a7ef89ef9e5cafe960096040518080602001838152602001828103825260598152602001807f2f55736572732f73686f6b6973686f6b692f646576656c6f706d656e742f636f81526020017f6e73656e7379732f646973747269627574652f636f6e7472616374732f636f6e81526020017f7472616374732f50726f6a6563744c6962726172792e736f6c000000000000008152506060019250505060405180910390a17f32187d72afafe61c1e816d517e7c31bd33466eff90ade1495c8f52129f5499f960a26040518080602001838152602001828103825260598152602001807f2f55736572732f73686f6b6973686f6b692f646576656c6f706d656e742f636f81526020017f6e73656e7379732f646973747269627574652f636f6e7472616374732f636f6e81526020017f7472616374732f50726f6a6563744c6962726172792e736f6c000000000000008152506060019250505060405180910390a17fc3583d53b6a7f4e85b847b51e286c3de3aacbbc9f400e592fffb1ca83050e92f601a6040518080602001838152602001828103825260598152602001807f2f55736572732f73686f6b6973686f6b692f646576656c6f706d656e742f636f81526020017f6e73656e7379732f646973747269627574652f636f6e7472616374732f636f6e81526020017f7472616374732f50726f6a6563744c6962726172792e736f6c000000000000008152506060019250505060405180910390a16200d9478a62010616565b156200eef7577f5c87c330914c4ad33602a62f96e5c2c7010d100ff52c4cc4b2b3228973117c87600a60006040518080602001848152602001838152602001828103825260598152602001807f2f55736572732f73686f6b6973686f6b692f646576656c6f706d656e742f636f81526020017f6e73656e7379732f646973747269627574652f636f6e7472616374732f636f6e81526020017f7472616374732f50726f6a6563744c6962726172792e736f6c00000000000000815250606001935050505060405180910390a17f32187d72afafe61c1e816d517e7c31bd33466eff90ade1495c8f52129f5499f960a36040518080602001838152602001828103825260598152602001807f2f55736572732f73686f6b6973686f6b692f646576656c6f706d656e742f636f81526020017f6e73656e7379732f646973747269627574652f636f6e7472616374732f636f6e81526020017f7472616374732f50726f6a6563744c6962726172792e736f6c000000000000008152506060019250505060405180910390a17fc3583d53b6a7f4e85b847b51e286c3de3aacbbc9f400e592fffb1ca83050e92f601b6040518080602001838152602001828103825260598152602001807f2f55736572732f73686f6b6973686f6b692f646576656c6f706d656e742f636f81526020017f6e73656e7379732f646973747269627574652f636f6e7472616374732f636f6e81526020017f7472616374732f50726f6a6563744c6962726172792e736f6c000000000000008152506060019250505060405180910390a18573ffffffffffffffffffffffffffffffffffffffff1663859558966000604051602001526040518163ffffffff167c0100000000000000000000000000000000000000000000000000000000028152600401602060405180830381600087803b15156200dbfa57600080fd5b6102c65a03f115156200dc0c57600080fd5b50505060405180519050420194507f32187d72afafe61c1e816d517e7c31bd33466eff90ade1495c8f52129f5499f960a46040518080602001838152602001828103825260598152602001807f2f55736572732f73686f6b6973686f6b692f646576656c6f706d656e742f636f81526020017f6e73656e7379732f646973747269627574652f636f6e7472616374732f636f6e81526020017f7472616374732f50726f6a6563744c6962726172792e736f6c000000000000008152506060019250505060405180910390a18573ffffffffffffffffffffffffffffffffffffffff1663b9d77bfc6004876040518363ffffffff167c01000000000000000000000000000000000000000000000000000000000281526004018083815260200182815260200192505050600060405180830381600087803b15156200dd4f57600080fd5b6102c65a03f115156200dd6157600080fd5b5050507f32187d72afafe61c1e816d517e7c31bd33466eff90ade1495c8f52129f5499f960a56040518080602001838152602001828103825260598152602001807f2f55736572732f73686f6b6973686f6b692f646576656c6f706d656e742f636f81526020017f6e73656e7379732f646973747269627574652f636f6e7472616374732f636f6e81526020017f7472616374732f50726f6a6563744c6962726172792e736f6c000000000000008152506060019250505060405180910390a17fc3583d53b6a7f4e85b847b51e286c3de3aacbbc9f400e592fffb1ca83050e92f601c6040518080602001838152602001828103825260598152602001807f2f55736572732f73686f6b6973686f6b692f646576656c6f706d656e742f636f81526020017f6e73656e7379732f646973747269627574652f636f6e7472616374732f636f6e81526020017f7472616374732f50726f6a6563744c6962726172792e736f6c000000000000008152506060019250505060405180910390a18893507f32187d72afafe61c1e816d517e7c31bd33466eff90ade1495c8f52129f5499f960a66040518080602001838152602001828103825260598152602001807f2f55736572732f73686f6b6973686f6b692f646576656c6f706d656e742f636f81526020017f6e73656e7379732f646973747269627574652f636f6e7472616374732f636f6e81526020017f7472616374732f50726f6a6563744c6962726172792e736f6c000000000000008152506060019250505060405180910390a17fc3583d53b6a7f4e85b847b51e286c3de3aacbbc9f400e592fffb1ca83050e92f601d6040518080602001838152602001828103825260598152602001807f2f55736572732f73686f6b6973686f6b692f646576656c6f706d656e742f636f81526020017f6e73656e7379732f646973747269627574652f636f6e7472616374732f636f6e81526020017f7472616374732f50726f6a6563744c6962726172792e736f6c000000000000008152506060019250505060405180910390a1600092505b8573ffffffffffffffffffffffffffffffffffffffff1663c17a340e6000604051602001526040518163ffffffff167c0100000000000000000000000000000000000000000000000000000000028152600401602060405180830381600087803b15156200e0cd57600080fd5b6102c65a03f115156200e0df57600080fd5b505050604051805190508310156200ed73577f32187d72afafe61c1e816d517e7c31bd33466eff90ade1495c8f52129f5499f960a76040518080602001838152602001828103825260598152602001807f2f55736572732f73686f6b6973686f6b692f646576656c6f706d656e742f636f81526020017f6e73656e7379732f646973747269627574652f636f6e7472616374732f636f6e81526020017f7472616374732f50726f6a6563744c6962726172792e736f6c000000000000008152506060019250505060405180910390a17fc3583d53b6a7f4e85b847b51e286c3de3aacbbc9f400e592fffb1ca83050e92f601e6040518080602001838152602001828103825260598152602001807f2f55736572732f73686f6b6973686f6b692f646576656c6f706d656e742f636f81526020017f6e73656e7379732f646973747269627574652f636f6e7472616374732f636f6e81526020017f7472616374732f50726f6a6563744c6962726172792e736f6c000000000000008152506060019250505060405180910390a18573ffffffffffffffffffffffffffffffffffffffff16638d977672846000604051602001526040518263ffffffff167c010000000000000000000000000000000000000000000000000000000002815260040180828152602001915050602060405180830381600087803b15156200e2e357600080fd5b6102c65a03f115156200e2f557600080fd5b5050506040518051905091507f32187d72afafe61c1e816d517e7c31bd33466eff90ade1495c8f52129f5499f960a86040518080602001838152602001828103825260598152602001807f2f55736572732f73686f6b6973686f6b692f646576656c6f706d656e742f636f81526020017f6e73656e7379732f646973747269627574652f636f6e7472616374732f636f6e81526020017f7472616374732f50726f6a6563744c6962726172792e736f6c000000000000008152506060019250505060405180910390a17fc3583d53b6a7f4e85b847b51e286c3de3aacbbc9f400e592fffb1ca83050e92f601f6040518080602001838152602001828103825260598152602001807f2f55736572732f73686f6b6973686f6b692f646576656c6f706d656e742f636f81526020017f6e73656e7379732f646973747269627574652f636f6e7472616374732f636f6e81526020017f7472616374732f50726f6a6563744c6962726172792e736f6c000000000000008152506060019250505060405180910390a1600015158273ffffffffffffffffffffffffffffffffffffffff1663522e11776000604051602001526040518163ffffffff167c0100000000000000000000000000000000000000000000000000000000028152600401602060405180830381600087803b15156200e4ec57600080fd5b6102c65a03f115156200e4fe57600080fd5b50505060405180519050151514156200ec9e577f5c87c330914c4ad33602a62f96e5c2c7010d100ff52c4cc4b2b3228973117c87600b60006040518080602001848152602001838152602001828103825260598152602001807f2f55736572732f73686f6b6973686f6b692f646576656c6f706d656e742f636f81526020017f6e73656e7379732f646973747269627574652f636f6e7472616374732f636f6e81526020017f7472616374732f50726f6a6563744c6962726172792e736f6c00000000000000815250606001935050505060405180910390a17f32187d72afafe61c1e816d517e7c31bd33466eff90ade1495c8f52129f5499f960a96040518080602001838152602001828103825260598152602001807f2f55736572732f73686f6b6973686f6b692f646576656c6f706d656e742f636f81526020017f6e73656e7379732f646973747269627574652f636f6e7472616374732f636f6e81526020017f7472616374732f50726f6a6563744c6962726172792e736f6c000000000000008152506060019250505060405180910390a17fc3583d53b6a7f4e85b847b51e286c3de3aacbbc9f400e592fffb1ca83050e92f60206040518080602001838152602001828103825260598152602001807f2f55736572732f73686f6b6973686f6b692f646576656c6f706d656e742f636f81526020017f6e73656e7379732f646973747269627574652f636f6e7472616374732f636f6e81526020017f7472616374732f50726f6a6563744c6962726172792e736f6c000000000000008152506060019250505060405180910390a18173ffffffffffffffffffffffffffffffffffffffff16637b5668606000604051602001526040518163ffffffff167c0100000000000000000000000000000000000000000000000000000000028152600401602060405180830381600087803b15156200e7be57600080fd5b6102c65a03f115156200e7d057600080fd5b5050506040518051905090507f32187d72afafe61c1e816d517e7c31bd33466eff90ade1495c8f52129f5499f960aa6040518080602001838152602001828103825260598152602001807f2f55736572732f73686f6b6973686f6b692f646576656c6f706d656e742f636f81526020017f6e73656e7379732f646973747269627574652f636f6e7472616374732f636f6e81526020017f7472616374732f50726f6a6563744c6962726172792e736f6c000000000000008152506060019250505060405180910390a18373ffffffffffffffffffffffffffffffffffffffff166375f6857b826040518263ffffffff167c010000000000000000000000000000000000000000000000000000000002815260040180828152602001915050600060405180830381600087803b15156200e90857600080fd5b6102c65a03f115156200e91a57600080fd5b5050507f32187d72afafe61c1e816d517e7c31bd33466eff90ade1495c8f52129f5499f960ab6040518080602001838152602001828103825260598152602001807f2f55736572732f73686f6b6973686f6b692f646576656c6f706d656e742f636f81526020017f6e73656e7379732f646973747269627574652f636f6e7472616374732f636f6e81526020017f7472616374732f50726f6a6563744c6962726172792e736f6c000000000000008152506060019250505060405180910390a18573ffffffffffffffffffffffffffffffffffffffff16637ec20fe889836040518363ffffffff167c0100000000000000000000000000000000000000000000000000000000028152600401808373ffffffffffffffffffffffffffffffffffffffff1673ffffffffffffffffffffffffffffffffffffffff16815260200182815260200192505050600060405180830381600087803b15156200ea7d57600080fd5b6102c65a03f115156200ea8f57600080fd5b5050507f32187d72afafe61c1e816d517e7c31bd33466eff90ade1495c8f52129f5499f960ac6040518080602001838152602001828103825260598152602001807f2f55736572732f73686f6b6973686f6b692f646576656c6f706d656e742f636f81526020017f6e73656e7379732f646973747269627574652f636f6e7472616374732f636f6e81526020017f7472616374732f50726f6a6563744c6962726172792e736f6c000000000000008152506060019250505060405180910390a18173ffffffffffffffffffffffffffffffffffffffff166373cc18da6000808573ffffffffffffffffffffffffffffffffffffffff1663d379be236000604051602001526040518163ffffffff167c0100000000000000000000000000000000000000000000000000000000028152600401602060405180830381600087803b15156200ebdb57600080fd5b6102c65a03f115156200ebed57600080fd5b505050604051805190506040518463ffffffff167c0100000000000000000000000000000000000000000000000000000000028152600401808481526020018381526020018273ffffffffffffffffffffffffffffffffffffffff1673ffffffffffffffffffffffffffffffffffffffff1681526020019350505050600060405180830381600087803b15156200ec8357600080fd5b6102c65a03f115156200ec9557600080fd5b5050506200ed65565b7f5c87c330914c4ad33602a62f96e5c2c7010d100ff52c4cc4b2b3228973117c87600b60016040518080602001848152602001838152602001828103825260598152602001807f2f55736572732f73686f6b6973686f6b692f646576656c6f706d656e742f636f81526020017f6e73656e7379732f646973747269627574652f636f6e7472616374732f636f6e81526020017f7472616374732f50726f6a6563744c6962726172792e736f6c00000000000000815250606001935050505060405180910390a15b82806001019350506200e060565b7f32187d72afafe61c1e816d517e7c31bd33466eff90ade1495c8f52129f5499f960af6040518080602001838152602001828103825260598152602001807f2f55736572732f73686f6b6973686f6b692f646576656c6f706d656e742f636f81526020017f6e73656e7379732f646973747269627574652f636f6e7472616374732f636f6e81526020017f7472616374732f50726f6a6563744c6962726172792e736f6c000000000000008152506060019250505060405180910390a17fc3583d53b6a7f4e85b847b51e286c3de3aacbbc9f400e592fffb1ca83050e92f60216040518080602001838152602001828103825260598152602001807f2f55736572732f73686f6b6973686f6b692f646576656c6f706d656e742f636f81526020017f6e73656e7379732f646973747269627574652f636f6e7472616374732f636f6e81526020017f7472616374732f50726f6a6563744c6962726172792e736f6c000000000000008152506060019250505060405180910390a1600196506200f13c565b7f5c87c330914c4ad33602a62f96e5c2c7010d100ff52c4cc4b2b3228973117c87600a60016040518080602001848152602001838152602001828103825260598152602001807f2f55736572732f73686f6b6973686f6b692f646576656c6f706d656e742f636f81526020017f6e73656e7379732f646973747269627574652f636f6e7472616374732f636f6e81526020017f7472616374732f50726f6a6563744c6962726172792e736f6c00000000000000815250606001935050505060405180910390a17f32187d72afafe61c1e816d517e7c31bd33466eff90ade1495c8f52129f5499f960b16040518080602001838152602001828103825260598152602001807f2f55736572732f73686f6b6973686f6b692f646576656c6f706d656e742f636f81526020017f6e73656e7379732f646973747269627574652f636f6e7472616374732f636f6e81526020017f7472616374732f50726f6a6563744c6962726172792e736f6c000000000000008152506060019250505060405180910390a17fc3583d53b6a7f4e85b847b51e286c3de3aacbbc9f400e592fffb1ca83050e92f60226040518080602001838152602001828103825260598152602001807f2f55736572732f73686f6b6973686f6b692f646576656c6f706d656e742f636f81526020017f6e73656e7379732f646973747269627574652f636f6e7472616374732f636f6e81526020017f7472616374732f50726f6a6563744c6962726172792e736f6c000000000000008152506060019250505060405180910390a1600096505b5050505050509392505050565b6000807fbd44212b1b989052c33c25cccc05dc159c494e554409c9c7966d0ed3dc6b3cc5600a6040518080602001838152602001828103825260598152602001807f2f55736572732f73686f6b6973686f6b692f646576656c6f706d656e742f636f81526020017f6e73656e7379732f646973747269627574652f636f6e7472616374732f636f6e81526020017f7472616374732f50726f6a6563744c6962726172792e736f6c000000000000008152506060019250505060405180910390a17f32187d72afafe61c1e816d517e7c31bd33466eff90ade1495c8f52129f5499f96101296040518080602001838152602001828103825260598152602001807f2f55736572732f73686f6b6973686f6b692f646576656c6f706d656e742f636f81526020017f6e73656e7379732f646973747269627574652f636f6e7472616374732f636f6e81526020017f7472616374732f50726f6a6563744c6962726172792e736f6c000000000000008152506060019250505060405180910390a17f2865773bd2bcc54b1fabefafb2d62a1bbb5bba42cf0ffe6cd769772ac9d1250b60176040518080602001838152602001828103825260598152602001807f2f55736572732f73686f6b6973686f6b692f646576656c6f706d656e742f636f81526020017f6e73656e7379732f646973747269627574652f636f6e7472616374732f636f6e81526020017f7472616374732f50726f6a6563744c6962726172792e736f6c000000000000008152506060019250505060405180910390a17fc3583d53b6a7f4e85b847b51e286c3de3aacbbc9f400e592fffb1ca83050e92f604080518080602001838152602001828103825260598152602001807f2f55736572732f73686f6b6973686f6b692f646576656c6f706d656e742f636f81526020017f6e73656e7379732f646973747269627574652f636f6e7472616374732f636f6e81526020017f7472616374732f50726f6a6563744c6962726172792e736f6c000000000000008152506060019250505060405180910390a16000841115156200f45057600080fd5b7f631dd81baf3474bcc9608bc2a049645125fe359730ea7452a7ef89ef9e5cafe960176040518080602001838152602001828103825260598152602001807f2f55736572732f73686f6b6973686f6b692f646576656c6f706d656e742f636f81526020017f6e73656e7379732f646973747269627574652f636f6e7472616374732f636f6e81526020017f7472616374732f50726f6a6563744c6962726172792e736f6c000000000000008152506060019250505060405180910390a17f32187d72afafe61c1e816d517e7c31bd33466eff90ade1495c8f52129f5499f961012a6040518080602001838152602001828103825260598152602001807f2f55736572732f73686f6b6973686f6b692f646576656c6f706d656e742f636f81526020017f6e73656e7379732f646973747269627574652f636f6e7472616374732f636f6e81526020017f7472616374732f50726f6a6563744c6962726172792e736f6c000000000000008152506060019250505060405180910390a17fc3583d53b6a7f4e85b847b51e286c3de3aacbbc9f400e592fffb1ca83050e92f60416040518080602001838152602001828103825260598152602001807f2f55736572732f73686f6b6973686f6b692f646576656c6f706d656e742f636f81526020017f6e73656e7379732f646973747269627574652f636f6e7472616374732f636f6e81526020017f7472616374732f50726f6a6563744c6962726172792e736f6c000000000000008152506060019250505060405180910390a18691507f32187d72afafe61c1e816d517e7c31bd33466eff90ade1495c8f52129f5499f961012b6040518080602001838152602001828103825260598152602001807f2f55736572732f73686f6b6973686f6b692f646576656c6f706d656e742f636f81526020017f6e73656e7379732f646973747269627574652f636f6e7472616374732f636f6e81526020017f7472616374732f50726f6a6563744c6962726172792e736f6c000000000000008152506060019250505060405180910390a17f2865773bd2bcc54b1fabefafb2d62a1bbb5bba42cf0ffe6cd769772ac9d1250b60186040518080602001838152602001828103825260598152602001807f2f55736572732f73686f6b6973686f6b692f646576656c6f706d656e742f636f81526020017f6e73656e7379732f646973747269627574652f636f6e7472616374732f636f6e81526020017f7472616374732f50726f6a6563744c6962726172792e736f6c000000000000008152506060019250505060405180910390a17fc3583d53b6a7f4e85b847b51e286c3de3aacbbc9f400e592fffb1ca83050e92f60426040518080602001838152602001828103825260598152602001807f2f55736572732f73686f6b6973686f6b692f646576656c6f706d656e742f636f81526020017f6e73656e7379732f646973747269627574652f636f6e7472616374732f636f6e81526020017f7472616374732f50726f6a6563744c6962726172792e736f6c000000000000008152506060019250505060405180910390a160048273ffffffffffffffffffffffffffffffffffffffff1663c19d93fb6000604051602001526040518163ffffffff167c0100000000000000000000000000000000000000000000000000000000028152600401602060405180830381600087803b15156200f93257600080fd5b6102c65a03f115156200f94457600080fd5b505050604051805190501415156200f95b57600080fd5b7f631dd81baf3474bcc9608bc2a049645125fe359730ea7452a7ef89ef9e5cafe960186040518080602001838152602001828103825260598152602001807f2f55736572732f73686f6b6973686f6b692f646576656c6f706d656e742f636f81526020017f6e73656e7379732f646973747269627574652f636f6e7472616374732f636f6e81526020017f7472616374732f50726f6a6563744c6962726172792e736f6c000000000000008152506060019250505060405180910390a17f32187d72afafe61c1e816d517e7c31bd33466eff90ade1495c8f52129f5499f961012d6040518080602001838152602001828103825260598152602001807f2f55736572732f73686f6b6973686f6b692f646576656c6f706d656e742f636f81526020017f6e73656e7379732f646973747269627574652f636f6e7472616374732f636f6e81526020017f7472616374732f50726f6a6563744c6962726172792e736f6c000000000000008152506060019250505060405180910390a17fc3583d53b6a7f4e85b847b51e286c3de3aacbbc9f400e592fffb1ca83050e92f60436040518080602001838152602001828103825260598152602001807f2f55736572732f73686f6b6973686f6b692f646576656c6f706d656e742f636f81526020017f6e73656e7379732f646973747269627574652f636f6e7472616374732f636f6e81526020017f7472616374732f50726f6a6563744c6962726172792e736f6c000000000000008152506060019250505060405180910390a18173ffffffffffffffffffffffffffffffffffffffff16638d977672866000604051602001526040518263ffffffff167c010000000000000000000000000000000000000000000000000000000002815260040180828152602001915050602060405180830381600087803b15156200fc0b57600080fd5b6102c65a03f115156200fc1d57600080fd5b5050506040518051905090507f32187d72afafe61c1e816d517e7c31bd33466eff90ade1495c8f52129f5499f961012e6040518080602001838152602001828103825260598152602001807f2f55736572732f73686f6b6973686f6b692f646576656c6f706d656e742f636f81526020017f6e73656e7379732f646973747269627574652f636f6e7472616374732f636f6e81526020017f7472616374732f50726f6a6563744c6962726172792e736f6c000000000000008152506060019250505060405180910390a17fc3583d53b6a7f4e85b847b51e286c3de3aacbbc9f400e592fffb1ca83050e92f60446040518080602001838152602001828103825260598152602001807f2f55736572732f73686f6b6973686f6b692f646576656c6f706d656e742f636f81526020017f6e73656e7379732f646973747269627574652f636f6e7472616374732f636f6e81526020017f7472616374732f50726f6a6563744c6962726172792e736f6c000000000000008152506060019250505060405180910390a1826200ff37577f5c87c330914c4ad33602a62f96e5c2c7010d100ff52c4cc4b2b3228973117c87601960016040518080602001848152602001838152602001828103825260598152602001807f2f55736572732f73686f6b6973686f6b692f646576656c6f706d656e742f636f81526020017f6e73656e7379732f646973747269627574652f636f6e7472616374732f636f6e81526020017f7472616374732f50726f6a6563744c6962726172792e736f6c00000000000000815250606001935050505060405180910390a18073ffffffffffffffffffffffffffffffffffffffff16638448a5a9876000876040518463ffffffff167c0100000000000000000000000000000000000000000000000000000000028152600401808473ffffffffffffffffffffffffffffffffffffffff1673ffffffffffffffffffffffffffffffffffffffff1681526020018381526020018281526020019350505050600060405180830381600087803b15156200ff1c57600080fd5b6102c65a03f115156200ff2e57600080fd5b505050620100bf565b7f5c87c330914c4ad33602a62f96e5c2c7010d100ff52c4cc4b2b3228973117c87601960006040518080602001848152602001838152602001828103825260598152602001807f2f55736572732f73686f6b6973686f6b692f646576656c6f706d656e742f636f81526020017f6e73656e7379732f646973747269627574652f636f6e7472616374732f636f6e81526020017f7472616374732f50726f6a6563744c6962726172792e736f6c00000000000000815250606001935050505060405180910390a18073ffffffffffffffffffffffffffffffffffffffff16638448a5a9876001876040518463ffffffff167c0100000000000000000000000000000000000000000000000000000000028152600401808473ffffffffffffffffffffffffffffffffffffffff1673ffffffffffffffffffffffffffffffffffffffff1681526020018381526020018281526020019350505050600060405180830381600087803b1515620100a957600080fd5b6102c65a03f11515620100bb57600080fd5b5050505b50505050505050565b6000807fbd44212b1b989052c33c25cccc05dc159c494e554409c9c7966d0ed3dc6b3cc560016040518080602001838152602001828103825260598152602001807f2f55736572732f73686f6b6973686f6b692f646576656c6f706d656e742f636f81526020017f6e73656e7379732f646973747269627574652f636f6e7472616374732f636f6e81526020017f7472616374732f50726f6a6563744c6962726172792e736f6c000000000000008152506060019250505060405180910390a17f32187d72afafe61c1e816d517e7c31bd33466eff90ade1495c8f52129f5499f960246040518080602001838152602001828103825260598152602001807f2f55736572732f73686f6b6973686f6b692f646576656c6f706d656e742f636f81526020017f6e73656e7379732f646973747269627574652f636f6e7472616374732f636f6e81526020017f7472616374732f50726f6a6563744c6962726172792e736f6c000000000000008152506060019250505060405180910390a17fc3583d53b6a7f4e85b847b51e286c3de3aacbbc9f400e592fffb1ca83050e92f60016040518080602001838152602001828103825260598152602001807f2f55736572732f73686f6b6973686f6b692f646576656c6f706d656e742f636f81526020017f6e73656e7379732f646973747269627574652f636f6e7472616374732f636f6e81526020017f7472616374732f50726f6a6563744c6962726172792e736f6c000000000000008152506060019250505060405180910390a18390507f32187d72afafe61c1e816d517e7c31bd33466eff90ade1495c8f52129f5499f960256040518080602001838152602001828103825260598152602001807f2f55736572732f73686f6b6973686f6b692f646576656c6f706d656e742f636f81526020017f6e73656e7379732f646973747269627574652f636f6e7472616374732f636f6e81526020017f7472616374732f50726f6a6563744c6962726172792e736f6c000000000000008152506060019250505060405180910390a17fc3583d53b6a7f4e85b847b51e286c3de3aacbbc9f400e592fffb1ca83050e92f60026040518080602001838152602001828103825260598152602001807f2f55736572732f73686f6b6973686f6b692f646576656c6f706d656e742f636f81526020017f6e73656e7379732f646973747269627574652f636f6e7472616374732f636f6e81526020017f7472616374732f50726f6a6563744c6962726172792e736f6c000000000000008152506060019250505060405180910390a160008173ffffffffffffffffffffffffffffffffffffffff1663523fba7f856000604051602001526040518263ffffffff167c0100000000000000000000000000000000000000000000000000000000028152600401808273ffffffffffffffffffffffffffffffffffffffff1673ffffffffffffffffffffffffffffffffffffffff168152602001915050602060405180830381600087803b15156201052557600080fd5b6102c65a03f115156201053757600080fd5b5050506040518051905011806201060d575060008173ffffffffffffffffffffffffffffffffffffffff166353e0a9be856000604051602001526040518263ffffffff167c0100000000000000000000000000000000000000000000000000000000028152600401808273ffffffffffffffffffffffffffffffffffffffff1673ffffffffffffffffffffffffffffffffffffffff168152602001915050602060405180830381600087803b1515620105ef57600080fd5b6102c65a03f115156201060157600080fd5b50505060405180519050115b91505092915050565b60007fbd44212b1b989052c33c25cccc05dc159c494e554409c9c7966d0ed3dc6b3cc560036040518080602001838152602001828103825260598152602001807f2f55736572732f73686f6b6973686f6b692f646576656c6f706d656e742f636f81526020017f6e73656e7379732f646973747269627574652f636f6e7472616374732f636f6e81526020017f7472616374732f50726f6a6563744c6962726172792e736f6c000000000000008152506060019250505060405180910390a17f32187d72afafe61c1e816d517e7c31bd33466eff90ade1495c8f52129f5499f9603a6040518080602001838152602001828103825260598152602001807f2f55736572732f73686f6b6973686f6b692f646576656c6f706d656e742f636f81526020017f6e73656e7379732f646973747269627574652f636f6e7472616374732f636f6e81526020017f7472616374732f50726f6a6563744c6962726172792e736f6c000000000000008152506060019250505060405180910390a17fc3583d53b6a7f4e85b847b51e286c3de3aacbbc9f400e592fffb1ca83050e92f60056040518080602001838152602001828103825260598152602001807f2f55736572732f73686f6b6973686f6b692f646576656c6f706d656e742f636f81526020017f6e73656e7379732f646973747269627574652f636f6e7472616374732f636f6e81526020017f7472616374732f50726f6a6563744c6962726172792e736f6c000000000000008152506060019250505060405180910390a18173ffffffffffffffffffffffffffffffffffffffff1663205179846000604051602001526040518163ffffffff167c0100000000000000000000000000000000000000000000000000000000028152600401602060405180830381600087803b1515620108bc57600080fd5b6102c65a03f11515620108ce57600080fd5b5050506040518051905042119050919050565b6000807fbd44212b1b989052c33c25cccc05dc159c494e554409c9c7966d0ed3dc6b3cc5600e6040518080602001838152602001828103825260598152602001807f2f55736572732f73686f6b6973686f6b692f646576656c6f706d656e742f636f81526020017f6e73656e7379732f646973747269627574652f636f6e7472616374732f636f6e81526020017f7472616374732f50726f6a6563744c6962726172792e736f6c000000000000008152506060019250505060405180910390a17f32187d72afafe61c1e816d517e7c31bd33466eff90ade1495c8f52129f5499f96101816040518080602001838152602001828103825260598152602001807f2f55736572732f73686f6b6973686f6b692f646576656c6f706d656e742f636f81526020017f6e73656e7379732f646973747269627574652f636f6e7472616374732f636f6e81526020017f7472616374732f50726f6a6563744c6962726172792e736f6c000000000000008152506060019250505060405180910390a17f32187d72afafe61c1e816d517e7c31bd33466eff90ade1495c8f52129f5499f96101836040518080602001838152602001828103825260598152602001807f2f55736572732f73686f6b6973686f6b692f646576656c6f706d656e742f636f81526020017f6e73656e7379732f646973747269627574652f636f6e7472616374732f636f6e81526020017f7472616374732f50726f6a6563744c6962726172792e736f6c000000000000008152506060019250505060405180910390a17fc3583d53b6a7f4e85b847b51e286c3de3aacbbc9f400e592fffb1ca83050e92f60596040518080602001838152602001828103825260598152602001807f2f55736572732f73686f6b6973686f6b692f646576656c6f706d656e742f636f81526020017f6e73656e7379732f646973747269627574652f636f6e7472616374732f636f6e81526020017f7472616374732f50726f6a6563744c6962726172792e736f6c000000000000008152506060019250505060405180910390a160008473ffffffffffffffffffffffffffffffffffffffff166399a033166000604051602001526040518163ffffffff167c0100000000000000000000000000000000000000000000000000000000028152600401602060405180830381600087803b151562010c4957600080fd5b6102c65a03f1151562010c5b57600080fd5b505050604051805190501415156201100d577f5c87c330914c4ad33602a62f96e5c2c7010d100ff52c4cc4b2b3228973117c87602060006040518080602001848152602001838152602001828103825260598152602001807f2f55736572732f73686f6b6973686f6b692f646576656c6f706d656e742f636f81526020017f6e73656e7379732f646973747269627574652f636f6e7472616374732f636f6e81526020017f7472616374732f50726f6a6563744c6962726172792e736f6c00000000000000815250606001935050505060405180910390a17f32187d72afafe61c1e816d517e7c31bd33466eff90ade1495c8f52129f5499f96101846040518080602001838152602001828103825260598152602001807f2f55736572732f73686f6b6973686f6b692f646576656c6f706d656e742f636f81526020017f6e73656e7379732f646973747269627574652f636f6e7472616374732f636f6e81526020017f7472616374732f50726f6a6563744c6962726172792e736f6c000000000000008152506060019250505060405180910390a17fc3583d53b6a7f4e85b847b51e286c3de3aacbbc9f400e592fffb1ca83050e92f605a6040518080602001838152602001828103825260598152602001807f2f55736572732f73686f6b6973686f6b692f646576656c6f706d656e742f636f81526020017f6e73656e7379732f646973747269627574652f636f6e7472616374732f636f6e81526020017f7472616374732f50726f6a6563744c6962726172792e736f6c000000000000008152506060019250505060405180910390a160648473ffffffffffffffffffffffffffffffffffffffff16639bebba0a6000604051602001526040518163ffffffff167c0100000000000000000000000000000000000000000000000000000000028152600401602060405180830381600087803b151562010f1d57600080fd5b6102c65a03f1151562010f2f57600080fd5b505050604051805190508573ffffffffffffffffffffffffffffffffffffffff1663523fba7f866000604051602001526040518263ffffffff167c0100000000000000000000000000000000000000000000000000000000028152600401808273ffffffffffffffffffffffffffffffffffffffff1673ffffffffffffffffffffffffffffffffffffffff168152602001915050602060405180830381600087803b151562010fdd57600080fd5b6102c65a03f1151562010fef57600080fd5b50505060405180519050028115156201100457fe5b049050620110d4565b7f5c87c330914c4ad33602a62f96e5c2c7010d100ff52c4cc4b2b3228973117c87602060016040518080602001848152602001838152602001828103825260598152602001807f2f55736572732f73686f6b6973686f6b692f646576656c6f706d656e742f636f81526020017f6e73656e7379732f646973747269627574652f636f6e7472616374732f636f6e81526020017f7472616374732f50726f6a6563744c6962726172792e736f6c00000000000000815250606001935050505060405180910390a15b7f32187d72afafe61c1e816d517e7c31bd33466eff90ade1495c8f52129f5499f96101866040518080602001838152602001828103825260598152602001807f2f55736572732f73686f6b6973686f6b692f646576656c6f706d656e742f636f81526020017f6e73656e7379732f646973747269627574652f636f6e7472616374732f636f6e81526020017f7472616374732f50726f6a6563744c6962726172792e736f6c000000000000008152506060019250505060405180910390a17fc3583d53b6a7f4e85b847b51e286c3de3aacbbc9f400e592fffb1ca83050e92f605b6040518080602001838152602001828103825260598152602001807f2f55736572732f73686f6b6973686f6b692f646576656c6f706d656e742f636f81526020017f6e73656e7379732f646973747269627574652f636f6e7472616374732f636f6e81526020017f7472616374732f50726f6a6563744c6962726172792e736f6c000000000000008152506060019250505060405180910390a17f911db51ed2e298250d30776745397b1001763f5bf87e73dddcf540c7142989528382604051808373ffffffffffffffffffffffffffffffffffffffff1673ffffffffffffffffffffffffffffffffffffffff1681526020018281526020019250505060405180910390a17f32187d72afafe61c1e816d517e7c31bd33466eff90ade1495c8f52129f5499f96101876040518080602001838152602001828103825260598152602001807f2f55736572732f73686f6b6973686f6b692f646576656c6f706d656e742f636f81526020017f6e73656e7379732f646973747269627574652f636f6e7472616374732f636f6e81526020017f7472616374732f50726f6a6563744c6962726172792e736f6c000000000000008152506060019250505060405180910390a17fc3583d53b6a7f4e85b847b51e286c3de3aacbbc9f400e592fffb1ca83050e92f605c6040518080602001838152602001828103825260598152602001807f2f55736572732f73686f6b6973686f6b692f646576656c6f706d656e742f636f81526020017f6e73656e7379732f646973747269627574652f636f6e7472616374732f636f6e81526020017f7472616374732f50726f6a6563744c6962726172792e736f6c000000000000008152506060019250505060405180910390a18091505092915050565b6000807fbd44212b1b989052c33c25cccc05dc159c494e554409c9c7966d0ed3dc6b3cc5600f6040518080602001838152602001828103825260598152602001807f2f55736572732f73686f6b6973686f6b692f646576656c6f706d656e742f636f81526020017f6e73656e7379732f646973747269627574652f636f6e7472616374732f636f6e81526020017f7472616374732f50726f6a6563744c6962726172792e736f6c000000000000008152506060019250505060405180910390a17f32187d72afafe61c1e816d517e7c31bd33466eff90ade1495c8f52129f5499f96101926040518080602001838152602001828103825260598152602001807f2f55736572732f73686f6b6973686f6b692f646576656c6f706d656e742f636f81526020017f6e73656e7379732f646973747269627574652f636f6e7472616374732f636f6e81526020017f7472616374732f50726f6a6563744c6962726172792e736f6c000000000000008152506060019250505060405180910390a17f32187d72afafe61c1e816d517e7c31bd33466eff90ade1495c8f52129f5499f96101936040518080602001838152602001828103825260598152602001807f2f55736572732f73686f6b6973686f6b692f646576656c6f706d656e742f636f81526020017f6e73656e7379732f646973747269627574652f636f6e7472616374732f636f6e81526020017f7472616374732f50726f6a6563744c6962726172792e736f6c000000000000008152506060019250505060405180910390a17fc3583d53b6a7f4e85b847b51e286c3de3aacbbc9f400e592fffb1ca83050e92f605d6040518080602001838152602001828103825260598152602001807f2f55736572732f73686f6b6973686f6b692f646576656c6f706d656e742f636f81526020017f6e73656e7379732f646973747269627574652f636f6e7472616374732f636f6e81526020017f7472616374732f50726f6a6563744c6962726172792e736f6c000000000000008152506060019250505060405180910390a160008473ffffffffffffffffffffffffffffffffffffffff1663b23dcdaf6000604051602001526040518163ffffffff167c0100000000000000000000000000000000000000000000000000000000028152600401602060405180830381600087803b1515620117a757600080fd5b6102c65a03f11515620117b957600080fd5b5050506040518051905014151562011b6b577f5c87c330914c4ad33602a62f96e5c2c7010d100ff52c4cc4b2b3228973117c87602160006040518080602001848152602001838152602001828103825260598152602001807f2f55736572732f73686f6b6973686f6b692f646576656c6f706d656e742f636f81526020017f6e73656e7379732f646973747269627574652f636f6e7472616374732f636f6e81526020017f7472616374732f50726f6a6563744c6962726172792e736f6c00000000000000815250606001935050505060405180910390a17f32187d72afafe61c1e816d517e7c31bd33466eff90ade1495c8f52129f5499f96101946040518080602001838152602001828103825260598152602001807f2f55736572732f73686f6b6973686f6b692f646576656c6f706d656e742f636f81526020017f6e73656e7379732f646973747269627574652f636f6e7472616374732f636f6e81526020017f7472616374732f50726f6a6563744c6962726172792e736f6c000000000000008152506060019250505060405180910390a17fc3583d53b6a7f4e85b847b51e286c3de3aacbbc9f400e592fffb1ca83050e92f605e6040518080602001838152602001828103825260598152602001807f2f55736572732f73686f6b6973686f6b692f646576656c6f706d656e742f636f81526020017f6e73656e7379732f646973747269627574652f636f6e7472616374732f636f6e81526020017f7472616374732f50726f6a6563744c6962726172792e736f6c000000000000008152506060019250505060405180910390a160648473ffffffffffffffffffffffffffffffffffffffff16639bebba0a6000604051602001526040518163ffffffff167c0100000000000000000000000000000000000000000000000000000000028152600401602060405180830381600087803b151562011a7b57600080fd5b6102c65a03f1151562011a8d57600080fd5b505050604051805190508573ffffffffffffffffffffffffffffffffffffffff166353e0a9be866000604051602001526040518263ffffffff167c0100000000000000000000000000000000000000000000000000000000028152600401808273ffffffffffffffffffffffffffffffffffffffff1673ffffffffffffffffffffffffffffffffffffffff168152602001915050602060405180830381600087803b151562011b3b57600080fd5b6102c65a03f1151562011b4d57600080fd5b505050604051805190500281151562011b6257fe5b04905062011c32565b7f5c87c330914c4ad33602a62f96e5c2c7010d100ff52c4cc4b2b3228973117c87602160016040518080602001848152602001838152602001828103825260598152602001807f2f55736572732f73686f6b6973686f6b692f646576656c6f706d656e742f636f81526020017f6e73656e7379732f646973747269627574652f636f6e7472616374732f636f6e81526020017f7472616374732f50726f6a6563744c6962726172792e736f6c00000000000000815250606001935050505060405180910390a15b7f32187d72afafe61c1e816d517e7c31bd33466eff90ade1495c8f52129f5499f96101966040518080602001838152602001828103825260598152602001807f2f55736572732f73686f6b6973686f6b692f646576656c6f706d656e742f636f81526020017f6e73656e7379732f646973747269627574652f636f6e7472616374732f636f6e81526020017f7472616374732f50726f6a6563744c6962726172792e736f6c000000000000008152506060019250505060405180910390a17fc3583d53b6a7f4e85b847b51e286c3de3aacbbc9f400e592fffb1ca83050e92f605f6040518080602001838152602001828103825260598152602001807f2f55736572732f73686f6b6973686f6b692f646576656c6f706d656e742f636f81526020017f6e73656e7379732f646973747269627574652f636f6e7472616374732f636f6e81526020017f7472616374732f50726f6a6563744c6962726172792e736f6c000000000000008152506060019250505060405180910390a17f900315df34b75ad2268d27c7d161ac82e1961ced587aa93250f695ce214bc685848483604051808473ffffffffffffffffffffffffffffffffffffffff1673ffffffffffffffffffffffffffffffffffffffff1681526020018373ffffffffffffffffffffffffffffffffffffffff1673ffffffffffffffffffffffffffffffffffffffff168152602001828152602001935050505060405180910390a17f32187d72afafe61c1e816d517e7c31bd33466eff90ade1495c8f52129f5499f96101976040518080602001838152602001828103825260598152602001807f2f55736572732f73686f6b6973686f6b692f646576656c6f706d656e742f636f81526020017f6e73656e7379732f646973747269627574652f636f6e7472616374732f636f6e81526020017f7472616374732f50726f6a6563744c6962726172792e736f6c000000000000008152506060019250505060405180910390a17fc3583d53b6a7f4e85b847b51e286c3de3aacbbc9f400e592fffb1ca83050e92f60606040518080602001838152602001828103825260598152602001807f2f55736572732f73686f6b6973686f6b692f646576656c6f706d656e742f636f81526020017f6e73656e7379732f646973747269627574652f636f6e7472616374732f636f6e81526020017f7472616374732f50726f6a6563744c6962726172792e736f6c000000000000008152506060019250505060405180910390a180915050929150505600a165627a7a723058207b459eb48e75aa2cb0aa8c8cb49c424b12837cd9ed13ecd2339245cc68aa3bfb0029","source":"pragma solidity ^0.4.19;\n\nimport \"./Project.sol\";\nimport \"./TokenRegistry.sol\";\nimport \"./ProjectRegistry.sol\";\nimport \"./Task.sol\";\nimport \"./library/PLCRVoting.sol\";\nimport \"./library/Division.sol\";\n\n/**\n@title Function Library for Distribute Network Projects\n@author Team: Jessica Marshall, Ashoka Finley\n@dev This library is imported into all the Registries to manage project interactions\n*/\nlibrary ProjectLibrary {event __CoverageProjectLibrary(string fileName, uint256 lineNumber);\nevent __FunctionCoverageProjectLibrary(string fileName, uint256 fnId);\nevent __StatementCoverageProjectLibrary(string fileName, uint256 statementId);\nevent __BranchCoverageProjectLibrary(string fileName, uint256 branchId, uint256 locationIdx);\nevent __AssertPreCoverageProjectLibrary(string fileName, uint256 branchId);\nevent __AssertPostCoverageProjectLibrary(string fileName, uint256 branchId);\n\n\n    // =====================================================================\n    // EVENTS\n    // =====================================================================\n\n    event tokenRefund(address staker, uint256 refund);\n    event reputationRefund(address projectAddress, address staker, uint256 refund);\n\n    // =====================================================================\n    // UTILITY\n    // =====================================================================\n\n    /**\n    @notice Returns true if `_staker` is either a token or reputation staker on project at `_projectAddress`\n    @dev Used to define control access to relevant project functions\n    @param _projectAddress Address of the project\n    @param _staker Address of the staker\n    @return A boolean representing staker status\n    */\n    function isStaker(address _projectAddress, address _staker) public  returns(bool) {__FunctionCoverageProjectLibrary('/Users/shokishoki/development/consensys/distribute/contracts/contracts/ProjectLibrary.sol',1);\n\n__CoverageProjectLibrary('/Users/shokishoki/development/consensys/distribute/contracts/contracts/ProjectLibrary.sol',36);\n         __StatementCoverageProjectLibrary('/Users/shokishoki/development/consensys/distribute/contracts/contracts/ProjectLibrary.sol',1);\nProject project = Project(_projectAddress);\n__CoverageProjectLibrary('/Users/shokishoki/development/consensys/distribute/contracts/contracts/ProjectLibrary.sol',37);\n         __StatementCoverageProjectLibrary('/Users/shokishoki/development/consensys/distribute/contracts/contracts/ProjectLibrary.sol',2);\nreturn project.tokenBalances(_staker) > 0 || project.reputationBalances(_staker) > 0;\n    }\n\n    /**\n    @notice Return true if the project at `_projectAddress` is fully staked with both tokens and reputation\n    @dev Check project staked status\n    @param _projectAddress Address of the project\n    @return A boolean representing the project staked status\n    */\n    function isStaked(address _projectAddress) public  returns (bool) {__FunctionCoverageProjectLibrary('/Users/shokishoki/development/consensys/distribute/contracts/contracts/ProjectLibrary.sol',2);\n\n__CoverageProjectLibrary('/Users/shokishoki/development/consensys/distribute/contracts/contracts/ProjectLibrary.sol',47);\n         __StatementCoverageProjectLibrary('/Users/shokishoki/development/consensys/distribute/contracts/contracts/ProjectLibrary.sol',3);\nProject project = Project(_projectAddress);\n__CoverageProjectLibrary('/Users/shokishoki/development/consensys/distribute/contracts/contracts/ProjectLibrary.sol',48);\n         __StatementCoverageProjectLibrary('/Users/shokishoki/development/consensys/distribute/contracts/contracts/ProjectLibrary.sol',4);\nreturn project.weiBal() >= project.weiCost() && project.reputationStaked() >= project.reputationCost();\n    }\n\n    /**\n    @notice Return true if the current time is greater than the next deadline of the project at `_projectAddress`\n    @dev Uses block.timestamp as a time variable. Note that this is subject to variability\n    @param _projectAddress Address of the project\n    @return A boolean representing wether the project has passed its next deadline.\n    */\n    function timesUp(address _projectAddress) public  returns (bool) {__FunctionCoverageProjectLibrary('/Users/shokishoki/development/consensys/distribute/contracts/contracts/ProjectLibrary.sol',3);\n\n__CoverageProjectLibrary('/Users/shokishoki/development/consensys/distribute/contracts/contracts/ProjectLibrary.sol',58);\n         __StatementCoverageProjectLibrary('/Users/shokishoki/development/consensys/distribute/contracts/contracts/ProjectLibrary.sol',5);\nreturn (now > Project(_projectAddress).nextDeadline());\n    }\n\n    /**\n    @notice Calculates the relative staking weight of `_address` on project at `_projectAddress.\n    Weighting is caluclated by the proportional amount of both reputation and tokens that have been\n    staked on the project.\n    @dev Returns an average of the token staking and reputation staking.\n    @param _projectAddress Address of the project\n    @param _address Address of the staker\n    @return The relaive weight of a staker as a whole integer\n    */\n    function calculateWeightOfAddress(\n        address _projectAddress,\n        address _address\n    ) public  returns (uint256) {__FunctionCoverageProjectLibrary('/Users/shokishoki/development/consensys/distribute/contracts/contracts/ProjectLibrary.sol',4);\n\n__CoverageProjectLibrary('/Users/shokishoki/development/consensys/distribute/contracts/contracts/ProjectLibrary.sol',74);\n        uint256 reputationWeight;\n__CoverageProjectLibrary('/Users/shokishoki/development/consensys/distribute/contracts/contracts/ProjectLibrary.sol',75);\n        uint256 tokenWeight;\n__CoverageProjectLibrary('/Users/shokishoki/development/consensys/distribute/contracts/contracts/ProjectLibrary.sol',76);\n         __StatementCoverageProjectLibrary('/Users/shokishoki/development/consensys/distribute/contracts/contracts/ProjectLibrary.sol',6);\nProject project = Project(_projectAddress);\n__CoverageProjectLibrary('/Users/shokishoki/development/consensys/distribute/contracts/contracts/ProjectLibrary.sol',77);\n         __StatementCoverageProjectLibrary('/Users/shokishoki/development/consensys/distribute/contracts/contracts/ProjectLibrary.sol',7);\nproject.reputationStaked() != 0\n            ? (__BranchCoverageProjectLibrary('/Users/shokishoki/development/consensys/distribute/contracts/contracts/ProjectLibrary.sol',1,0),reputationWeight = Division.percent(\n                project.reputationBalances(_address),\n                project.reputationStaked(), 2))\n            : (__BranchCoverageProjectLibrary('/Users/shokishoki/development/consensys/distribute/contracts/contracts/ProjectLibrary.sol',1,1),reputationWeight = 0);\n__CoverageProjectLibrary('/Users/shokishoki/development/consensys/distribute/contracts/contracts/ProjectLibrary.sol',82);\n         __StatementCoverageProjectLibrary('/Users/shokishoki/development/consensys/distribute/contracts/contracts/ProjectLibrary.sol',8);\nproject.tokensStaked() != 0\n            ? (__BranchCoverageProjectLibrary('/Users/shokishoki/development/consensys/distribute/contracts/contracts/ProjectLibrary.sol',2,0),tokenWeight = Division.percent(project.tokenBalances(_address), project.tokensStaked(), 2))\n            : (__BranchCoverageProjectLibrary('/Users/shokishoki/development/consensys/distribute/contracts/contracts/ProjectLibrary.sol',2,1),tokenWeight = 0);\n__CoverageProjectLibrary('/Users/shokishoki/development/consensys/distribute/contracts/contracts/ProjectLibrary.sol',85);\n         __StatementCoverageProjectLibrary('/Users/shokishoki/development/consensys/distribute/contracts/contracts/ProjectLibrary.sol',9);\nreturn (reputationWeight + tokenWeight) / 2;\n    }\n\n    // =====================================================================\n    // STATE CHANGE\n    // =====================================================================\n\n    /**\n    @notice Checks if project at `_projectAddress` is fully staked with both reputation and tokens.\n    If the project is staked the project moves to state 2: Staked, and the next deadline is set.\n    If the current time is passed the staking period, the project expires and is moved to state 8: Expired.\n    @dev The nextDeadline value for the staked state is set in the project state variables.\n    @param _projectAddress Address of the project.\n    @return Returns a bool denoting the project is in the staked state.\n    */\n    function checkStaked(address _projectAddress) public returns (bool) {__FunctionCoverageProjectLibrary('/Users/shokishoki/development/consensys/distribute/contracts/contracts/ProjectLibrary.sol',5);\n\n__CoverageProjectLibrary('/Users/shokishoki/development/consensys/distribute/contracts/contracts/ProjectLibrary.sol',101);\n         __StatementCoverageProjectLibrary('/Users/shokishoki/development/consensys/distribute/contracts/contracts/ProjectLibrary.sol',10);\nProject project = Project(_projectAddress);\n__CoverageProjectLibrary('/Users/shokishoki/development/consensys/distribute/contracts/contracts/ProjectLibrary.sol',102);\n        __AssertPreCoverageProjectLibrary('/Users/shokishoki/development/consensys/distribute/contracts/contracts/ProjectLibrary.sol',3);\n __StatementCoverageProjectLibrary('/Users/shokishoki/development/consensys/distribute/contracts/contracts/ProjectLibrary.sol',11);\nrequire(project.state() == 1);__AssertPostCoverageProjectLibrary('/Users/shokishoki/development/consensys/distribute/contracts/contracts/ProjectLibrary.sol',3);\n\n\n__CoverageProjectLibrary('/Users/shokishoki/development/consensys/distribute/contracts/contracts/ProjectLibrary.sol',104);\n         __StatementCoverageProjectLibrary('/Users/shokishoki/development/consensys/distribute/contracts/contracts/ProjectLibrary.sol',12);\nif(isStaked(_projectAddress)) {__BranchCoverageProjectLibrary('/Users/shokishoki/development/consensys/distribute/contracts/contracts/ProjectLibrary.sol',4,0);\n__CoverageProjectLibrary('/Users/shokishoki/development/consensys/distribute/contracts/contracts/ProjectLibrary.sol',105);\n             __StatementCoverageProjectLibrary('/Users/shokishoki/development/consensys/distribute/contracts/contracts/ProjectLibrary.sol',13);\nuint256 nextDeadline = now + project.stakedStatePeriod();\n__CoverageProjectLibrary('/Users/shokishoki/development/consensys/distribute/contracts/contracts/ProjectLibrary.sol',106);\n            project.setState(2, nextDeadline);\n__CoverageProjectLibrary('/Users/shokishoki/development/consensys/distribute/contracts/contracts/ProjectLibrary.sol',107);\n             __StatementCoverageProjectLibrary('/Users/shokishoki/development/consensys/distribute/contracts/contracts/ProjectLibrary.sol',14);\nreturn true;\n        } else { __StatementCoverageProjectLibrary('/Users/shokishoki/development/consensys/distribute/contracts/contracts/ProjectLibrary.sol',15);\n__BranchCoverageProjectLibrary('/Users/shokishoki/development/consensys/distribute/contracts/contracts/ProjectLibrary.sol',4,1);if(timesUp(_projectAddress)) {__BranchCoverageProjectLibrary('/Users/shokishoki/development/consensys/distribute/contracts/contracts/ProjectLibrary.sol',5,0);\n__CoverageProjectLibrary('/Users/shokishoki/development/consensys/distribute/contracts/contracts/ProjectLibrary.sol',109);\n            project.setState(8, 0);\n__CoverageProjectLibrary('/Users/shokishoki/development/consensys/distribute/contracts/contracts/ProjectLibrary.sol',110);\n            project.clearProposerStake();\n        }else { __BranchCoverageProjectLibrary('/Users/shokishoki/development/consensys/distribute/contracts/contracts/ProjectLibrary.sol',5,1);}\n}\n__CoverageProjectLibrary('/Users/shokishoki/development/consensys/distribute/contracts/contracts/ProjectLibrary.sol',112);\n         __StatementCoverageProjectLibrary('/Users/shokishoki/development/consensys/distribute/contracts/contracts/ProjectLibrary.sol',16);\nreturn false;\n    }\n\n    /**\n    @notice Checks if the project at `_projectAddress` has passed its next deadline, and if a\n    valid task hash, meaning that the accounts who have staked on the project have succefully\n    curated a list of tasks relating to project work. If a task hash exists the project is moved\n    to state 3: Active and the next deadline is set. If no task hash exists the project is moved\n    to state 7: Failed.\n    @dev The nextDeadline value for the active state is set in the project state variables.\n    @param _projectAddress Address of the project\n    @param _taskHash Address of the top weighted task hash\n    @return Returns a bool denoting the project is in the active state.\n    */\n    function checkActive(address _projectAddress, bytes32 _taskHash) public returns (bool) {__FunctionCoverageProjectLibrary('/Users/shokishoki/development/consensys/distribute/contracts/contracts/ProjectLibrary.sol',6);\n\n__CoverageProjectLibrary('/Users/shokishoki/development/consensys/distribute/contracts/contracts/ProjectLibrary.sol',127);\n         __StatementCoverageProjectLibrary('/Users/shokishoki/development/consensys/distribute/contracts/contracts/ProjectLibrary.sol',17);\nProject project = Project(_projectAddress);\n__CoverageProjectLibrary('/Users/shokishoki/development/consensys/distribute/contracts/contracts/ProjectLibrary.sol',128);\n        __AssertPreCoverageProjectLibrary('/Users/shokishoki/development/consensys/distribute/contracts/contracts/ProjectLibrary.sol',6);\n __StatementCoverageProjectLibrary('/Users/shokishoki/development/consensys/distribute/contracts/contracts/ProjectLibrary.sol',18);\nrequire(project.state() == 2);__AssertPostCoverageProjectLibrary('/Users/shokishoki/development/consensys/distribute/contracts/contracts/ProjectLibrary.sol',6);\n\n\n__CoverageProjectLibrary('/Users/shokishoki/development/consensys/distribute/contracts/contracts/ProjectLibrary.sol',130);\n         __StatementCoverageProjectLibrary('/Users/shokishoki/development/consensys/distribute/contracts/contracts/ProjectLibrary.sol',19);\nif(timesUp(_projectAddress)) {__BranchCoverageProjectLibrary('/Users/shokishoki/development/consensys/distribute/contracts/contracts/ProjectLibrary.sol',7,0);\n__CoverageProjectLibrary('/Users/shokishoki/development/consensys/distribute/contracts/contracts/ProjectLibrary.sol',131);\n            uint256 nextDeadline;\n__CoverageProjectLibrary('/Users/shokishoki/development/consensys/distribute/contracts/contracts/ProjectLibrary.sol',132);\n             __StatementCoverageProjectLibrary('/Users/shokishoki/development/consensys/distribute/contracts/contracts/ProjectLibrary.sol',20);\nif(_taskHash != 0) {__BranchCoverageProjectLibrary('/Users/shokishoki/development/consensys/distribute/contracts/contracts/ProjectLibrary.sol',8,0);\n__CoverageProjectLibrary('/Users/shokishoki/development/consensys/distribute/contracts/contracts/ProjectLibrary.sol',133);\n                 __StatementCoverageProjectLibrary('/Users/shokishoki/development/consensys/distribute/contracts/contracts/ProjectLibrary.sol',21);\nnextDeadline = now + project.activeStatePeriod();\n__CoverageProjectLibrary('/Users/shokishoki/development/consensys/distribute/contracts/contracts/ProjectLibrary.sol',134);\n                project.setState(3, nextDeadline);\n__CoverageProjectLibrary('/Users/shokishoki/development/consensys/distribute/contracts/contracts/ProjectLibrary.sol',135);\n                 __StatementCoverageProjectLibrary('/Users/shokishoki/development/consensys/distribute/contracts/contracts/ProjectLibrary.sol',22);\nreturn true;\n            } else {__BranchCoverageProjectLibrary('/Users/shokishoki/development/consensys/distribute/contracts/contracts/ProjectLibrary.sol',8,1);\n__CoverageProjectLibrary('/Users/shokishoki/development/consensys/distribute/contracts/contracts/ProjectLibrary.sol',137);\n                project.setState(7, 0);\n            }\n        }else { __BranchCoverageProjectLibrary('/Users/shokishoki/development/consensys/distribute/contracts/contracts/ProjectLibrary.sol',7,1);}\n\n__CoverageProjectLibrary('/Users/shokishoki/development/consensys/distribute/contracts/contracts/ProjectLibrary.sol',140);\n         __StatementCoverageProjectLibrary('/Users/shokishoki/development/consensys/distribute/contracts/contracts/ProjectLibrary.sol',23);\nreturn false;\n    }\n\n    /**\n    @notice Checks if the project at `_projectAddress` has passed its next deadline, and if it has\n    moves the project to state 4: Validation. It interates through the project task list and checks if the\n    project tasks have been marked complete. If a task hasn't been marked complete, its wei reward,\n    is returned to the network balance, the task reward is zeroed.\n    @dev This is an interative function and gas costs will vary depending on the number of tasks.\n    @param _projectAddress Address of the project\n    @param _tokenRegistryAddress Address of the systems Token Registry contract\n    @param _distributeTokenAddress Address of the systems DistributeToken contract\n    @return Returns a bool denoting if the project is in the validation state.\n    */\n    function checkValidate(\n        address _projectAddress,\n        address _tokenRegistryAddress,\n        address _distributeTokenAddress\n    ) public returns (bool) {__FunctionCoverageProjectLibrary('/Users/shokishoki/development/consensys/distribute/contracts/contracts/ProjectLibrary.sol',7);\n\n__CoverageProjectLibrary('/Users/shokishoki/development/consensys/distribute/contracts/contracts/ProjectLibrary.sol',159);\n         __StatementCoverageProjectLibrary('/Users/shokishoki/development/consensys/distribute/contracts/contracts/ProjectLibrary.sol',24);\nProject project = Project(_projectAddress);\n__CoverageProjectLibrary('/Users/shokishoki/development/consensys/distribute/contracts/contracts/ProjectLibrary.sol',160);\n        __AssertPreCoverageProjectLibrary('/Users/shokishoki/development/consensys/distribute/contracts/contracts/ProjectLibrary.sol',9);\n __StatementCoverageProjectLibrary('/Users/shokishoki/development/consensys/distribute/contracts/contracts/ProjectLibrary.sol',25);\nrequire(project.state() == 3);__AssertPostCoverageProjectLibrary('/Users/shokishoki/development/consensys/distribute/contracts/contracts/ProjectLibrary.sol',9);\n\n\n__CoverageProjectLibrary('/Users/shokishoki/development/consensys/distribute/contracts/contracts/ProjectLibrary.sol',162);\n         __StatementCoverageProjectLibrary('/Users/shokishoki/development/consensys/distribute/contracts/contracts/ProjectLibrary.sol',26);\nif (timesUp(_projectAddress)) {__BranchCoverageProjectLibrary('/Users/shokishoki/development/consensys/distribute/contracts/contracts/ProjectLibrary.sol',10,0);\n__CoverageProjectLibrary('/Users/shokishoki/development/consensys/distribute/contracts/contracts/ProjectLibrary.sol',163);\n             __StatementCoverageProjectLibrary('/Users/shokishoki/development/consensys/distribute/contracts/contracts/ProjectLibrary.sol',27);\nuint256 nextDeadline = now + project.validateStatePeriod();\n__CoverageProjectLibrary('/Users/shokishoki/development/consensys/distribute/contracts/contracts/ProjectLibrary.sol',164);\n            project.setState(4, nextDeadline);\n__CoverageProjectLibrary('/Users/shokishoki/development/consensys/distribute/contracts/contracts/ProjectLibrary.sol',165);\n             __StatementCoverageProjectLibrary('/Users/shokishoki/development/consensys/distribute/contracts/contracts/ProjectLibrary.sol',28);\nTokenRegistry tr = TokenRegistry(_tokenRegistryAddress);\n__CoverageProjectLibrary('/Users/shokishoki/development/consensys/distribute/contracts/contracts/ProjectLibrary.sol',166);\n             __StatementCoverageProjectLibrary('/Users/shokishoki/development/consensys/distribute/contracts/contracts/ProjectLibrary.sol',29);\nfor(uint i = 0; i < project.getTaskCount(); i++) {\n__CoverageProjectLibrary('/Users/shokishoki/development/consensys/distribute/contracts/contracts/ProjectLibrary.sol',167);\n                 __StatementCoverageProjectLibrary('/Users/shokishoki/development/consensys/distribute/contracts/contracts/ProjectLibrary.sol',30);\nTask task = Task(project.tasks(i));\n__CoverageProjectLibrary('/Users/shokishoki/development/consensys/distribute/contracts/contracts/ProjectLibrary.sol',168);\n                 __StatementCoverageProjectLibrary('/Users/shokishoki/development/consensys/distribute/contracts/contracts/ProjectLibrary.sol',31);\nif (task.complete() == false) {__BranchCoverageProjectLibrary('/Users/shokishoki/development/consensys/distribute/contracts/contracts/ProjectLibrary.sol',11,0);\n__CoverageProjectLibrary('/Users/shokishoki/development/consensys/distribute/contracts/contracts/ProjectLibrary.sol',169);\n                     __StatementCoverageProjectLibrary('/Users/shokishoki/development/consensys/distribute/contracts/contracts/ProjectLibrary.sol',32);\nuint reward = task.weiReward();\n__CoverageProjectLibrary('/Users/shokishoki/development/consensys/distribute/contracts/contracts/ProjectLibrary.sol',170);\n                    tr.revertWei(reward);\n__CoverageProjectLibrary('/Users/shokishoki/development/consensys/distribute/contracts/contracts/ProjectLibrary.sol',171);\n                    project.returnWei(_distributeTokenAddress, reward);\n__CoverageProjectLibrary('/Users/shokishoki/development/consensys/distribute/contracts/contracts/ProjectLibrary.sol',172);\n                    task.setTaskReward(0, 0, task.claimer());\n                }else { __BranchCoverageProjectLibrary('/Users/shokishoki/development/consensys/distribute/contracts/contracts/ProjectLibrary.sol',11,1);}\n\n            }\n__CoverageProjectLibrary('/Users/shokishoki/development/consensys/distribute/contracts/contracts/ProjectLibrary.sol',175);\n             __StatementCoverageProjectLibrary('/Users/shokishoki/development/consensys/distribute/contracts/contracts/ProjectLibrary.sol',33);\nreturn true;\n        }else { __BranchCoverageProjectLibrary('/Users/shokishoki/development/consensys/distribute/contracts/contracts/ProjectLibrary.sol',10,1);}\n\n__CoverageProjectLibrary('/Users/shokishoki/development/consensys/distribute/contracts/contracts/ProjectLibrary.sol',177);\n         __StatementCoverageProjectLibrary('/Users/shokishoki/development/consensys/distribute/contracts/contracts/ProjectLibrary.sol',34);\nreturn false;\n    }\n\n    /**\n    @notice Checks if the project at `_projectAddress` has passed its next deadline, and if it has\n    moves the project to state 5: Voting. It iterates through the project task list and checks if\n    there are opposing validators for each task. If there are then its starts a plcr for each\n    disputed task, otherwise it marks the task claimable by the validators, and by the reputation holder\n    who claimed the task if the validators approved the task.\n    @dev This is an interative function and gas costs will vary depending on the number of tasks.\n    @param _projectAddress Address of the project\n    @param _tokenRegistryAddress Address of the systems token registry contract\n    @param _distributeTokenAddress Address of the systems token contract\n    @param _plcrVoting Address of the systems PLCR Voting contract\n    @return Returns a bool denoting if the project is in the voting state.\n    */\n    function checkVoting(\n        address _projectAddress,\n        address _tokenRegistryAddress,\n        address _distributeTokenAddress,\n        address _plcrVoting\n    ) public returns (bool) {__FunctionCoverageProjectLibrary('/Users/shokishoki/development/consensys/distribute/contracts/contracts/ProjectLibrary.sol',8);\n\n__CoverageProjectLibrary('/Users/shokishoki/development/consensys/distribute/contracts/contracts/ProjectLibrary.sol',199);\n         __StatementCoverageProjectLibrary('/Users/shokishoki/development/consensys/distribute/contracts/contracts/ProjectLibrary.sol',35);\nProject project = Project(_projectAddress);\n__CoverageProjectLibrary('/Users/shokishoki/development/consensys/distribute/contracts/contracts/ProjectLibrary.sol',200);\n        __AssertPreCoverageProjectLibrary('/Users/shokishoki/development/consensys/distribute/contracts/contracts/ProjectLibrary.sol',12);\n __StatementCoverageProjectLibrary('/Users/shokishoki/development/consensys/distribute/contracts/contracts/ProjectLibrary.sol',36);\nrequire(project.state() == 4);__AssertPostCoverageProjectLibrary('/Users/shokishoki/development/consensys/distribute/contracts/contracts/ProjectLibrary.sol',12);\n\n\n__CoverageProjectLibrary('/Users/shokishoki/development/consensys/distribute/contracts/contracts/ProjectLibrary.sol',202);\n         __StatementCoverageProjectLibrary('/Users/shokishoki/development/consensys/distribute/contracts/contracts/ProjectLibrary.sol',37);\nif (timesUp(_projectAddress)) {__BranchCoverageProjectLibrary('/Users/shokishoki/development/consensys/distribute/contracts/contracts/ProjectLibrary.sol',13,0);\n__CoverageProjectLibrary('/Users/shokishoki/development/consensys/distribute/contracts/contracts/ProjectLibrary.sol',203);\n             __StatementCoverageProjectLibrary('/Users/shokishoki/development/consensys/distribute/contracts/contracts/ProjectLibrary.sol',38);\nuint256 nextDeadline = now + project.voteCommitPeriod() + project.voteRevealPeriod();\n__CoverageProjectLibrary('/Users/shokishoki/development/consensys/distribute/contracts/contracts/ProjectLibrary.sol',204);\n            project.setState(5, nextDeadline);\n__CoverageProjectLibrary('/Users/shokishoki/development/consensys/distribute/contracts/contracts/ProjectLibrary.sol',205);\n             __StatementCoverageProjectLibrary('/Users/shokishoki/development/consensys/distribute/contracts/contracts/ProjectLibrary.sol',39);\nTokenRegistry tr = TokenRegistry(_tokenRegistryAddress);\n__CoverageProjectLibrary('/Users/shokishoki/development/consensys/distribute/contracts/contracts/ProjectLibrary.sol',206);\n             __StatementCoverageProjectLibrary('/Users/shokishoki/development/consensys/distribute/contracts/contracts/ProjectLibrary.sol',40);\nPLCRVoting plcr = PLCRVoting(_plcrVoting);\n__CoverageProjectLibrary('/Users/shokishoki/development/consensys/distribute/contracts/contracts/ProjectLibrary.sol',207);\n             __StatementCoverageProjectLibrary('/Users/shokishoki/development/consensys/distribute/contracts/contracts/ProjectLibrary.sol',41);\nfor(uint i = 0; i < project.getTaskCount(); i++) {\n__CoverageProjectLibrary('/Users/shokishoki/development/consensys/distribute/contracts/contracts/ProjectLibrary.sol',208);\n                 __StatementCoverageProjectLibrary('/Users/shokishoki/development/consensys/distribute/contracts/contracts/ProjectLibrary.sol',42);\nTask task = Task(project.tasks(i));\n__CoverageProjectLibrary('/Users/shokishoki/development/consensys/distribute/contracts/contracts/ProjectLibrary.sol',209);\n                 __StatementCoverageProjectLibrary('/Users/shokishoki/development/consensys/distribute/contracts/contracts/ProjectLibrary.sol',43);\nif (task.complete()) {__BranchCoverageProjectLibrary('/Users/shokishoki/development/consensys/distribute/contracts/contracts/ProjectLibrary.sol',14,0);\n__CoverageProjectLibrary('/Users/shokishoki/development/consensys/distribute/contracts/contracts/ProjectLibrary.sol',210);\n                     __StatementCoverageProjectLibrary('/Users/shokishoki/development/consensys/distribute/contracts/contracts/ProjectLibrary.sol',44);\nif (task.opposingValidator()) {__BranchCoverageProjectLibrary('/Users/shokishoki/development/consensys/distribute/contracts/contracts/ProjectLibrary.sol',15,0);   // there is an opposing validator, poll required\n__CoverageProjectLibrary('/Users/shokishoki/development/consensys/distribute/contracts/contracts/ProjectLibrary.sol',211);\n                        task.setPollId(plcr.startPoll(51, project.voteCommitPeriod(), project.voteRevealPeriod())); // function handles storage of voting pollId\n                    } else {__BranchCoverageProjectLibrary('/Users/shokishoki/development/consensys/distribute/contracts/contracts/ProjectLibrary.sol',15,1);\n__CoverageProjectLibrary('/Users/shokishoki/development/consensys/distribute/contracts/contracts/ProjectLibrary.sol',213);\n                         __StatementCoverageProjectLibrary('/Users/shokishoki/development/consensys/distribute/contracts/contracts/ProjectLibrary.sol',45);\nbool repClaim = task.markTaskClaimable(true);\n__CoverageProjectLibrary('/Users/shokishoki/development/consensys/distribute/contracts/contracts/ProjectLibrary.sol',214);\n                         __StatementCoverageProjectLibrary('/Users/shokishoki/development/consensys/distribute/contracts/contracts/ProjectLibrary.sol',46);\nif (!repClaim) {__BranchCoverageProjectLibrary('/Users/shokishoki/development/consensys/distribute/contracts/contracts/ProjectLibrary.sol',16,0);\n__CoverageProjectLibrary('/Users/shokishoki/development/consensys/distribute/contracts/contracts/ProjectLibrary.sol',215);\n                             __StatementCoverageProjectLibrary('/Users/shokishoki/development/consensys/distribute/contracts/contracts/ProjectLibrary.sol',47);\nuint reward = task.weiReward();\n__CoverageProjectLibrary('/Users/shokishoki/development/consensys/distribute/contracts/contracts/ProjectLibrary.sol',216);\n                            tr.revertWei(reward);\n__CoverageProjectLibrary('/Users/shokishoki/development/consensys/distribute/contracts/contracts/ProjectLibrary.sol',217);\n                            project.returnWei(_distributeTokenAddress, reward);\n                        }else { __BranchCoverageProjectLibrary('/Users/shokishoki/development/consensys/distribute/contracts/contracts/ProjectLibrary.sol',16,1);}\n\n                    }\n                }else { __BranchCoverageProjectLibrary('/Users/shokishoki/development/consensys/distribute/contracts/contracts/ProjectLibrary.sol',14,1);}\n\n            }\n        }else { __BranchCoverageProjectLibrary('/Users/shokishoki/development/consensys/distribute/contracts/contracts/ProjectLibrary.sol',13,1);}\n\n__CoverageProjectLibrary('/Users/shokishoki/development/consensys/distribute/contracts/contracts/ProjectLibrary.sol',223);\n         __StatementCoverageProjectLibrary('/Users/shokishoki/development/consensys/distribute/contracts/contracts/ProjectLibrary.sol',48);\nreturn false;\n    }\n\n    /**\n    @notice Checks if the project at `_projectAddress` has passed its next deadline. It iterates through\n    the project task list, and checks the projects which have polls to see the poll state. If the poll has\n    passed the task is marked claimable by both the approve validators and the task claimer. Otherwise\n    the task is marked claimable for the deny validators, and the task reward is returned to the networks\n    wei balance. The amount of tasks that have passed is then calculated. If the total weighting of those\n    tasks passes the project passThreshold then the project is moved to state 6: Complete, otherwise it\n    moves to state 7: Expired.\n    @dev The project pass passThreshold is set in the project state variables\n    @param _projectAddress Address of the project\n    @param _tokenRegistryAddress Address of the systems token registry contract\n    @param _distributeTokenAddress Address of the systems token contract\n    @param _plcrVoting Address of the systems PLCR Voting contract\n    @return Returns a bool denoting if the project is its final state.\n    */\n    function checkEnd(\n        address _projectAddress,\n        address _tokenRegistryAddress,\n        address _distributeTokenAddress,\n        address _plcrVoting\n    ) public returns (bool) {__FunctionCoverageProjectLibrary('/Users/shokishoki/development/consensys/distribute/contracts/contracts/ProjectLibrary.sol',9);\n\n__CoverageProjectLibrary('/Users/shokishoki/development/consensys/distribute/contracts/contracts/ProjectLibrary.sol',247);\n         __StatementCoverageProjectLibrary('/Users/shokishoki/development/consensys/distribute/contracts/contracts/ProjectLibrary.sol',49);\nProject project = Project(_projectAddress);\n__CoverageProjectLibrary('/Users/shokishoki/development/consensys/distribute/contracts/contracts/ProjectLibrary.sol',248);\n        __AssertPreCoverageProjectLibrary('/Users/shokishoki/development/consensys/distribute/contracts/contracts/ProjectLibrary.sol',17);\n __StatementCoverageProjectLibrary('/Users/shokishoki/development/consensys/distribute/contracts/contracts/ProjectLibrary.sol',50);\nrequire(project.state() == 5);__AssertPostCoverageProjectLibrary('/Users/shokishoki/development/consensys/distribute/contracts/contracts/ProjectLibrary.sol',17);\n\n\n__CoverageProjectLibrary('/Users/shokishoki/development/consensys/distribute/contracts/contracts/ProjectLibrary.sol',250);\n         __StatementCoverageProjectLibrary('/Users/shokishoki/development/consensys/distribute/contracts/contracts/ProjectLibrary.sol',51);\nif (timesUp(_projectAddress)) {__BranchCoverageProjectLibrary('/Users/shokishoki/development/consensys/distribute/contracts/contracts/ProjectLibrary.sol',18,0);\n__CoverageProjectLibrary('/Users/shokishoki/development/consensys/distribute/contracts/contracts/ProjectLibrary.sol',251);\n             __StatementCoverageProjectLibrary('/Users/shokishoki/development/consensys/distribute/contracts/contracts/ProjectLibrary.sol',52);\nTokenRegistry tr = TokenRegistry(_tokenRegistryAddress);\n__CoverageProjectLibrary('/Users/shokishoki/development/consensys/distribute/contracts/contracts/ProjectLibrary.sol',252);\n             __StatementCoverageProjectLibrary('/Users/shokishoki/development/consensys/distribute/contracts/contracts/ProjectLibrary.sol',53);\nPLCRVoting plcr = PLCRVoting(_plcrVoting);\n__CoverageProjectLibrary('/Users/shokishoki/development/consensys/distribute/contracts/contracts/ProjectLibrary.sol',253);\n             __StatementCoverageProjectLibrary('/Users/shokishoki/development/consensys/distribute/contracts/contracts/ProjectLibrary.sol',54);\nfor (uint i = 0; i < project.getTaskCount(); i++) {\n__CoverageProjectLibrary('/Users/shokishoki/development/consensys/distribute/contracts/contracts/ProjectLibrary.sol',254);\n                 __StatementCoverageProjectLibrary('/Users/shokishoki/development/consensys/distribute/contracts/contracts/ProjectLibrary.sol',55);\nTask task = Task(project.tasks(i));\n__CoverageProjectLibrary('/Users/shokishoki/development/consensys/distribute/contracts/contracts/ProjectLibrary.sol',255);\n                 __StatementCoverageProjectLibrary('/Users/shokishoki/development/consensys/distribute/contracts/contracts/ProjectLibrary.sol',56);\nif (task.complete() && task.opposingValidator()) {__BranchCoverageProjectLibrary('/Users/shokishoki/development/consensys/distribute/contracts/contracts/ProjectLibrary.sol',19,0);      // check tasks with polls only\n__CoverageProjectLibrary('/Users/shokishoki/development/consensys/distribute/contracts/contracts/ProjectLibrary.sol',256);\n                     __StatementCoverageProjectLibrary('/Users/shokishoki/development/consensys/distribute/contracts/contracts/ProjectLibrary.sol',57);\nif (plcr.pollEnded(task.pollId())) {__BranchCoverageProjectLibrary('/Users/shokishoki/development/consensys/distribute/contracts/contracts/ProjectLibrary.sol',20,0);\n__CoverageProjectLibrary('/Users/shokishoki/development/consensys/distribute/contracts/contracts/ProjectLibrary.sol',257);\n                         __StatementCoverageProjectLibrary('/Users/shokishoki/development/consensys/distribute/contracts/contracts/ProjectLibrary.sol',58);\nif (plcr.isPassed(task.pollId())) {__BranchCoverageProjectLibrary('/Users/shokishoki/development/consensys/distribute/contracts/contracts/ProjectLibrary.sol',21,0);\n__CoverageProjectLibrary('/Users/shokishoki/development/consensys/distribute/contracts/contracts/ProjectLibrary.sol',258);\n                            task.markTaskClaimable(true);\n                        } else {__BranchCoverageProjectLibrary('/Users/shokishoki/development/consensys/distribute/contracts/contracts/ProjectLibrary.sol',21,1);\n__CoverageProjectLibrary('/Users/shokishoki/development/consensys/distribute/contracts/contracts/ProjectLibrary.sol',260);\n                            task.markTaskClaimable(false);\n__CoverageProjectLibrary('/Users/shokishoki/development/consensys/distribute/contracts/contracts/ProjectLibrary.sol',261);\n                             __StatementCoverageProjectLibrary('/Users/shokishoki/development/consensys/distribute/contracts/contracts/ProjectLibrary.sol',59);\nuint reward = task.weiReward();\n__CoverageProjectLibrary('/Users/shokishoki/development/consensys/distribute/contracts/contracts/ProjectLibrary.sol',262);\n                            tr.revertWei(reward);\n__CoverageProjectLibrary('/Users/shokishoki/development/consensys/distribute/contracts/contracts/ProjectLibrary.sol',263);\n                            project.returnWei(_distributeTokenAddress, reward);\n                        }\n                    }else { __BranchCoverageProjectLibrary('/Users/shokishoki/development/consensys/distribute/contracts/contracts/ProjectLibrary.sol',20,1);}\n\n                }else { __BranchCoverageProjectLibrary('/Users/shokishoki/development/consensys/distribute/contracts/contracts/ProjectLibrary.sol',19,1);}\n\n            }\n__CoverageProjectLibrary('/Users/shokishoki/development/consensys/distribute/contracts/contracts/ProjectLibrary.sol',268);\n             __StatementCoverageProjectLibrary('/Users/shokishoki/development/consensys/distribute/contracts/contracts/ProjectLibrary.sol',60);\ncalculatePassAmount(_projectAddress);\n__CoverageProjectLibrary('/Users/shokishoki/development/consensys/distribute/contracts/contracts/ProjectLibrary.sol',269);\n             __StatementCoverageProjectLibrary('/Users/shokishoki/development/consensys/distribute/contracts/contracts/ProjectLibrary.sol',61);\nproject.passAmount() >= project.passThreshold()\n                ? (__BranchCoverageProjectLibrary('/Users/shokishoki/development/consensys/distribute/contracts/contracts/ProjectLibrary.sol',22,0),project.setState(6, 0))\n                : (__BranchCoverageProjectLibrary('/Users/shokishoki/development/consensys/distribute/contracts/contracts/ProjectLibrary.sol',22,1),project.setState(7, 0));\n__CoverageProjectLibrary('/Users/shokishoki/development/consensys/distribute/contracts/contracts/ProjectLibrary.sol',272);\n             __StatementCoverageProjectLibrary('/Users/shokishoki/development/consensys/distribute/contracts/contracts/ProjectLibrary.sol',62);\nreturn true;\n        }else { __BranchCoverageProjectLibrary('/Users/shokishoki/development/consensys/distribute/contracts/contracts/ProjectLibrary.sol',18,1);}\n\n__CoverageProjectLibrary('/Users/shokishoki/development/consensys/distribute/contracts/contracts/ProjectLibrary.sol',274);\n         __StatementCoverageProjectLibrary('/Users/shokishoki/development/consensys/distribute/contracts/contracts/ProjectLibrary.sol',63);\nreturn false;\n    }\n\n    // =====================================================================\n    // VALIDATION\n    // =====================================================================\n\n    /**\n    @notice Stake tokens on whether the task at index `i` has been successful or not. Validator\n    `_validator` can validate either approve or deny, with `tokens` tokens.\n    @param _projectAddress Address of the project\n    @param _validator Address of the validator\n    @param _index Index of the task in the projects task array\n    @param _tokens Amount of tokens validator is staking\n    @param _validationState Bool representing validators choice.s\n    */\n    function validate(\n        address _projectAddress,\n        address _validator,\n        uint256 _index,\n        uint256 _tokens,\n        bool _validationState\n    ) public {__FunctionCoverageProjectLibrary('/Users/shokishoki/development/consensys/distribute/contracts/contracts/ProjectLibrary.sol',10);\n\n__CoverageProjectLibrary('/Users/shokishoki/development/consensys/distribute/contracts/contracts/ProjectLibrary.sol',297);\n        __AssertPreCoverageProjectLibrary('/Users/shokishoki/development/consensys/distribute/contracts/contracts/ProjectLibrary.sol',23);\n __StatementCoverageProjectLibrary('/Users/shokishoki/development/consensys/distribute/contracts/contracts/ProjectLibrary.sol',64);\nrequire(_tokens > 0);__AssertPostCoverageProjectLibrary('/Users/shokishoki/development/consensys/distribute/contracts/contracts/ProjectLibrary.sol',23);\n\n__CoverageProjectLibrary('/Users/shokishoki/development/consensys/distribute/contracts/contracts/ProjectLibrary.sol',298);\n         __StatementCoverageProjectLibrary('/Users/shokishoki/development/consensys/distribute/contracts/contracts/ProjectLibrary.sol',65);\nProject project = Project(_projectAddress);\n__CoverageProjectLibrary('/Users/shokishoki/development/consensys/distribute/contracts/contracts/ProjectLibrary.sol',299);\n        __AssertPreCoverageProjectLibrary('/Users/shokishoki/development/consensys/distribute/contracts/contracts/ProjectLibrary.sol',24);\n __StatementCoverageProjectLibrary('/Users/shokishoki/development/consensys/distribute/contracts/contracts/ProjectLibrary.sol',66);\nrequire(project.state() == 4);__AssertPostCoverageProjectLibrary('/Users/shokishoki/development/consensys/distribute/contracts/contracts/ProjectLibrary.sol',24);\n\n\n__CoverageProjectLibrary('/Users/shokishoki/development/consensys/distribute/contracts/contracts/ProjectLibrary.sol',301);\n         __StatementCoverageProjectLibrary('/Users/shokishoki/development/consensys/distribute/contracts/contracts/ProjectLibrary.sol',67);\nTask task = Task(project.tasks(_index));\n__CoverageProjectLibrary('/Users/shokishoki/development/consensys/distribute/contracts/contracts/ProjectLibrary.sol',302);\n         __StatementCoverageProjectLibrary('/Users/shokishoki/development/consensys/distribute/contracts/contracts/ProjectLibrary.sol',68);\n_validationState\n            ? (__BranchCoverageProjectLibrary('/Users/shokishoki/development/consensys/distribute/contracts/contracts/ProjectLibrary.sol',25,0),task.setValidator(_validator, 1, _tokens))\n            : (__BranchCoverageProjectLibrary('/Users/shokishoki/development/consensys/distribute/contracts/contracts/ProjectLibrary.sol',25,1),task.setValidator(_validator, 0, _tokens));\n    }\n\n    /**\n    @notice Calculates the amount of tasks that have passed for project at `_projectAddress`\n    @param _projectAddress Address of the project\n    @return Sum of the weightings of the task which have passed.\n    */\n    function calculatePassAmount(address _projectAddress) public returns (uint){__FunctionCoverageProjectLibrary('/Users/shokishoki/development/consensys/distribute/contracts/contracts/ProjectLibrary.sol',11);\n\n__CoverageProjectLibrary('/Users/shokishoki/development/consensys/distribute/contracts/contracts/ProjectLibrary.sol',313);\n         __StatementCoverageProjectLibrary('/Users/shokishoki/development/consensys/distribute/contracts/contracts/ProjectLibrary.sol',69);\nProject project = Project(_projectAddress);\n__CoverageProjectLibrary('/Users/shokishoki/development/consensys/distribute/contracts/contracts/ProjectLibrary.sol',314);\n        __AssertPreCoverageProjectLibrary('/Users/shokishoki/development/consensys/distribute/contracts/contracts/ProjectLibrary.sol',26);\n __StatementCoverageProjectLibrary('/Users/shokishoki/development/consensys/distribute/contracts/contracts/ProjectLibrary.sol',70);\nrequire(project.state() == 5);__AssertPostCoverageProjectLibrary('/Users/shokishoki/development/consensys/distribute/contracts/contracts/ProjectLibrary.sol',26);\n\n\n__CoverageProjectLibrary('/Users/shokishoki/development/consensys/distribute/contracts/contracts/ProjectLibrary.sol',316);\n        uint totalWeighting;\n__CoverageProjectLibrary('/Users/shokishoki/development/consensys/distribute/contracts/contracts/ProjectLibrary.sol',317);\n         __StatementCoverageProjectLibrary('/Users/shokishoki/development/consensys/distribute/contracts/contracts/ProjectLibrary.sol',71);\nfor (uint i = 0; i < project.getTaskCount(); i++) {\n__CoverageProjectLibrary('/Users/shokishoki/development/consensys/distribute/contracts/contracts/ProjectLibrary.sol',318);\n             __StatementCoverageProjectLibrary('/Users/shokishoki/development/consensys/distribute/contracts/contracts/ProjectLibrary.sol',72);\nTask task = Task(project.tasks(i));\n__CoverageProjectLibrary('/Users/shokishoki/development/consensys/distribute/contracts/contracts/ProjectLibrary.sol',319);\n             __StatementCoverageProjectLibrary('/Users/shokishoki/development/consensys/distribute/contracts/contracts/ProjectLibrary.sol',73);\nif (task.claimableByRep()) {__BranchCoverageProjectLibrary('/Users/shokishoki/development/consensys/distribute/contracts/contracts/ProjectLibrary.sol',27,0);  __StatementCoverageProjectLibrary('/Users/shokishoki/development/consensys/distribute/contracts/contracts/ProjectLibrary.sol',74);\ntotalWeighting += task.weighting(); }else { __BranchCoverageProjectLibrary('/Users/shokishoki/development/consensys/distribute/contracts/contracts/ProjectLibrary.sol',27,1);}\n\n        }\n__CoverageProjectLibrary('/Users/shokishoki/development/consensys/distribute/contracts/contracts/ProjectLibrary.sol',321);\n        project.setPassAmount(totalWeighting);\n__CoverageProjectLibrary('/Users/shokishoki/development/consensys/distribute/contracts/contracts/ProjectLibrary.sol',322);\n         __StatementCoverageProjectLibrary('/Users/shokishoki/development/consensys/distribute/contracts/contracts/ProjectLibrary.sol',75);\nreturn totalWeighting;\n    }\n\n    // =====================================================================\n    // TASK\n    // =====================================================================\n\n    /**\n    @notice Claim the task reward from task at index `_index` from the task array of project at\n    `_projectAddress`. If task is claimable by the reputation holder, Clears the task reward, and\n    transfers the wei reward to the task claimer. Returns the reputation reward for the claimer.\n    @param _projectAddress Address of the project\n    @param _index Index of the task in project task array\n    @return The amount of reputation the claimer staked on the task\n    */\n    function claimTaskReward(\n        address _projectAddress,\n        uint256 _index,\n        address _claimer\n    ) public returns (uint256) {__FunctionCoverageProjectLibrary('/Users/shokishoki/development/consensys/distribute/contracts/contracts/ProjectLibrary.sol',12);\n\n__CoverageProjectLibrary('/Users/shokishoki/development/consensys/distribute/contracts/contracts/ProjectLibrary.sol',342);\n         __StatementCoverageProjectLibrary('/Users/shokishoki/development/consensys/distribute/contracts/contracts/ProjectLibrary.sol',76);\nProject project = Project(_projectAddress);\n__CoverageProjectLibrary('/Users/shokishoki/development/consensys/distribute/contracts/contracts/ProjectLibrary.sol',343);\n         __StatementCoverageProjectLibrary('/Users/shokishoki/development/consensys/distribute/contracts/contracts/ProjectLibrary.sol',77);\nTask task = Task(project.tasks(_index));\n__CoverageProjectLibrary('/Users/shokishoki/development/consensys/distribute/contracts/contracts/ProjectLibrary.sol',344);\n        __AssertPreCoverageProjectLibrary('/Users/shokishoki/development/consensys/distribute/contracts/contracts/ProjectLibrary.sol',28);\n __StatementCoverageProjectLibrary('/Users/shokishoki/development/consensys/distribute/contracts/contracts/ProjectLibrary.sol',78);\nrequire(task.claimer() == _claimer && task.claimableByRep());__AssertPostCoverageProjectLibrary('/Users/shokishoki/development/consensys/distribute/contracts/contracts/ProjectLibrary.sol',28);\n\n\n__CoverageProjectLibrary('/Users/shokishoki/development/consensys/distribute/contracts/contracts/ProjectLibrary.sol',346);\n         __StatementCoverageProjectLibrary('/Users/shokishoki/development/consensys/distribute/contracts/contracts/ProjectLibrary.sol',79);\nuint256 weiReward = task.weiReward();\n__CoverageProjectLibrary('/Users/shokishoki/development/consensys/distribute/contracts/contracts/ProjectLibrary.sol',347);\n         __StatementCoverageProjectLibrary('/Users/shokishoki/development/consensys/distribute/contracts/contracts/ProjectLibrary.sol',80);\nuint256 reputationReward = task.reputationReward();\n__CoverageProjectLibrary('/Users/shokishoki/development/consensys/distribute/contracts/contracts/ProjectLibrary.sol',348);\n        task.setTaskReward(0, 0, _claimer);\n__CoverageProjectLibrary('/Users/shokishoki/development/consensys/distribute/contracts/contracts/ProjectLibrary.sol',349);\n        project.transferWeiReward(_claimer, weiReward);\n__CoverageProjectLibrary('/Users/shokishoki/development/consensys/distribute/contracts/contracts/ProjectLibrary.sol',350);\n         __StatementCoverageProjectLibrary('/Users/shokishoki/development/consensys/distribute/contracts/contracts/ProjectLibrary.sol',81);\nreturn reputationReward;\n    }\n\n    // =====================================================================\n    // STAKER\n    // =====================================================================\n\n    /**\n    @notice Refund both either reputation or token staker `_staker` for project at address `_projectAddress`\n    @dev Calls internal functions to handle either staker case.\n    @param _projectAddress Address of the project\n    @param _staker Address of the staker\n    @return The amount to be refunded to the staker.\n    */\n    function refundStaker(address _projectAddress, address _staker) public returns (uint256) {__FunctionCoverageProjectLibrary('/Users/shokishoki/development/consensys/distribute/contracts/contracts/ProjectLibrary.sol',13);\n\n__CoverageProjectLibrary('/Users/shokishoki/development/consensys/distribute/contracts/contracts/ProjectLibrary.sol',365);\n         __StatementCoverageProjectLibrary('/Users/shokishoki/development/consensys/distribute/contracts/contracts/ProjectLibrary.sol',82);\nProject project = Project(_projectAddress);\n__CoverageProjectLibrary('/Users/shokishoki/development/consensys/distribute/contracts/contracts/ProjectLibrary.sol',366);\n        __AssertPreCoverageProjectLibrary('/Users/shokishoki/development/consensys/distribute/contracts/contracts/ProjectLibrary.sol',29);\n __StatementCoverageProjectLibrary('/Users/shokishoki/development/consensys/distribute/contracts/contracts/ProjectLibrary.sol',83);\nrequire(project.state() == 6 || project.state() == 8);__AssertPostCoverageProjectLibrary('/Users/shokishoki/development/consensys/distribute/contracts/contracts/ProjectLibrary.sol',29);\n\n\n__CoverageProjectLibrary('/Users/shokishoki/development/consensys/distribute/contracts/contracts/ProjectLibrary.sol',368);\n         __StatementCoverageProjectLibrary('/Users/shokishoki/development/consensys/distribute/contracts/contracts/ProjectLibrary.sol',84);\nif (project.isTR(msg.sender)) {__BranchCoverageProjectLibrary('/Users/shokishoki/development/consensys/distribute/contracts/contracts/ProjectLibrary.sol',30,0);\n__CoverageProjectLibrary('/Users/shokishoki/development/consensys/distribute/contracts/contracts/ProjectLibrary.sol',369);\n             __StatementCoverageProjectLibrary('/Users/shokishoki/development/consensys/distribute/contracts/contracts/ProjectLibrary.sol',85);\nreturn handleTokenStaker(project, _staker);\n        } else { __StatementCoverageProjectLibrary('/Users/shokishoki/development/consensys/distribute/contracts/contracts/ProjectLibrary.sol',86);\n__BranchCoverageProjectLibrary('/Users/shokishoki/development/consensys/distribute/contracts/contracts/ProjectLibrary.sol',30,1);if (project.isRR(msg.sender)) {__BranchCoverageProjectLibrary('/Users/shokishoki/development/consensys/distribute/contracts/contracts/ProjectLibrary.sol',31,0);\n__CoverageProjectLibrary('/Users/shokishoki/development/consensys/distribute/contracts/contracts/ProjectLibrary.sol',371);\n             __StatementCoverageProjectLibrary('/Users/shokishoki/development/consensys/distribute/contracts/contracts/ProjectLibrary.sol',87);\nreturn handleReputationStaker(project, _staker);\n        } else {__BranchCoverageProjectLibrary('/Users/shokishoki/development/consensys/distribute/contracts/contracts/ProjectLibrary.sol',31,1);\n__CoverageProjectLibrary('/Users/shokishoki/development/consensys/distribute/contracts/contracts/ProjectLibrary.sol',373);\n             __StatementCoverageProjectLibrary('/Users/shokishoki/development/consensys/distribute/contracts/contracts/ProjectLibrary.sol',88);\nreturn 0;\n        }}\n    }\n\n    /**\n    @notice Handle token staker at _address on project `_project`, stake reward is multiplied by the pass amount.\n    @dev Only used internally.\n    @param _project Project instance\n    @param _staker Token staker address\n    @return The token refund to be returned to the token staker.\n    */\n    function handleTokenStaker(Project _project, address _staker) internal returns (uint256) {__FunctionCoverageProjectLibrary('/Users/shokishoki/development/consensys/distribute/contracts/contracts/ProjectLibrary.sol',14);\n\n__CoverageProjectLibrary('/Users/shokishoki/development/consensys/distribute/contracts/contracts/ProjectLibrary.sol',385);\n        uint256 refund;\n        // account for proportion of successful tasks\n__CoverageProjectLibrary('/Users/shokishoki/development/consensys/distribute/contracts/contracts/ProjectLibrary.sol',387);\n         __StatementCoverageProjectLibrary('/Users/shokishoki/development/consensys/distribute/contracts/contracts/ProjectLibrary.sol',89);\nif(_project.tokensStaked() != 0) {__BranchCoverageProjectLibrary('/Users/shokishoki/development/consensys/distribute/contracts/contracts/ProjectLibrary.sol',32,0);\n__CoverageProjectLibrary('/Users/shokishoki/development/consensys/distribute/contracts/contracts/ProjectLibrary.sol',388);\n             __StatementCoverageProjectLibrary('/Users/shokishoki/development/consensys/distribute/contracts/contracts/ProjectLibrary.sol',90);\nrefund = _project.tokenBalances(_staker) * _project.passAmount() / 100;\n        }else { __BranchCoverageProjectLibrary('/Users/shokishoki/development/consensys/distribute/contracts/contracts/ProjectLibrary.sol',32,1);}\n\n__CoverageProjectLibrary('/Users/shokishoki/development/consensys/distribute/contracts/contracts/ProjectLibrary.sol',390);\n         __StatementCoverageProjectLibrary('/Users/shokishoki/development/consensys/distribute/contracts/contracts/ProjectLibrary.sol',91);\ntokenRefund(_staker, refund);\n__CoverageProjectLibrary('/Users/shokishoki/development/consensys/distribute/contracts/contracts/ProjectLibrary.sol',391);\n         __StatementCoverageProjectLibrary('/Users/shokishoki/development/consensys/distribute/contracts/contracts/ProjectLibrary.sol',92);\nreturn refund;\n    }\n\n    /**\n    @notice Handle reputation staker at _address on project `_project`, stake reward is multiplied by the pass amount.\n    @dev Only used internally.\n    @param _project Project instance\n    @param _staker Reputation staker address\n    @return The reputation refund to be returned to the reputation staker.\n    */\n    function handleReputationStaker(Project _project, address _staker) internal returns (uint256) {__FunctionCoverageProjectLibrary('/Users/shokishoki/development/consensys/distribute/contracts/contracts/ProjectLibrary.sol',15);\n\n__CoverageProjectLibrary('/Users/shokishoki/development/consensys/distribute/contracts/contracts/ProjectLibrary.sol',402);\n        uint256 refund;\n__CoverageProjectLibrary('/Users/shokishoki/development/consensys/distribute/contracts/contracts/ProjectLibrary.sol',403);\n         __StatementCoverageProjectLibrary('/Users/shokishoki/development/consensys/distribute/contracts/contracts/ProjectLibrary.sol',93);\nif(_project.reputationStaked() != 0) {__BranchCoverageProjectLibrary('/Users/shokishoki/development/consensys/distribute/contracts/contracts/ProjectLibrary.sol',33,0);\n__CoverageProjectLibrary('/Users/shokishoki/development/consensys/distribute/contracts/contracts/ProjectLibrary.sol',404);\n             __StatementCoverageProjectLibrary('/Users/shokishoki/development/consensys/distribute/contracts/contracts/ProjectLibrary.sol',94);\nrefund = _project.reputationBalances(_staker) * _project.passAmount() / 100;\n        }else { __BranchCoverageProjectLibrary('/Users/shokishoki/development/consensys/distribute/contracts/contracts/ProjectLibrary.sol',33,1);}\n\n__CoverageProjectLibrary('/Users/shokishoki/development/consensys/distribute/contracts/contracts/ProjectLibrary.sol',406);\n         __StatementCoverageProjectLibrary('/Users/shokishoki/development/consensys/distribute/contracts/contracts/ProjectLibrary.sol',95);\nreputationRefund(address(_project), _staker, refund);\n__CoverageProjectLibrary('/Users/shokishoki/development/consensys/distribute/contracts/contracts/ProjectLibrary.sol',407);\n         __StatementCoverageProjectLibrary('/Users/shokishoki/development/consensys/distribute/contracts/contracts/ProjectLibrary.sol',96);\nreturn refund;\n    }\n}\n","sourcePath":"/Users/shokishoki/development/consensys/distribute/contracts/coverageEnv/contracts/ProjectLibrary.sol","compiler":{"name":"solc","version":"0.4.19+commit.c4cbbb05.Emscripten.clang"},"schemaVersion":"2.0.0","updatedAt":"2018-03-21T15:13:00.993Z"}