{"contractName":"Project","abi":[{"constant":true,"inputs":[],"name":"weiBal","outputs":[{"name":"","type":"uint256"}],"payable":false,"stateMutability":"view","type":"function"},{"constant":true,"inputs":[],"name":"proposerStake","outputs":[{"name":"","type":"uint256"}],"payable":false,"stateMutability":"view","type":"function"},{"constant":true,"inputs":[],"name":"weiCost","outputs":[{"name":"","type":"uint256"}],"payable":false,"stateMutability":"view","type":"function"},{"constant":true,"inputs":[],"name":"proposerType","outputs":[{"name":"","type":"uint256"}],"payable":false,"stateMutability":"view","type":"function"},{"constant":true,"inputs":[],"name":"nextDeadline","outputs":[{"name":"","type":"uint256"}],"payable":false,"stateMutability":"view","type":"function"},{"constant":true,"inputs":[],"name":"reputationCost","outputs":[{"name":"","type":"uint256"}],"payable":false,"stateMutability":"view","type":"function"},{"constant":true,"inputs":[],"name":"passThreshold","outputs":[{"name":"","type":"uint256"}],"payable":false,"stateMutability":"view","type":"function"},{"constant":true,"inputs":[{"name":"","type":"address"}],"name":"tokenBalances","outputs":[{"name":"","type":"uint256"}],"payable":false,"stateMutability":"view","type":"function"},{"constant":true,"inputs":[{"name":"","type":"address"}],"name":"reputationBalances","outputs":[{"name":"","type":"uint256"}],"payable":false,"stateMutability":"view","type":"function"},{"constant":true,"inputs":[],"name":"turnoverTime","outputs":[{"name":"","type":"uint256"}],"payable":false,"stateMutability":"view","type":"function"},{"constant":true,"inputs":[],"name":"stakedStatePeriod","outputs":[{"name":"","type":"uint256"}],"payable":false,"stateMutability":"view","type":"function"},{"constant":true,"inputs":[],"name":"validateStatePeriod","outputs":[{"name":"","type":"uint256"}],"payable":false,"stateMutability":"view","type":"function"},{"constant":true,"inputs":[{"name":"","type":"uint256"}],"name":"tasks","outputs":[{"name":"","type":"address"}],"payable":false,"stateMutability":"view","type":"function"},{"constant":true,"inputs":[],"name":"tokensStaked","outputs":[{"name":"","type":"uint256"}],"payable":false,"stateMutability":"view","type":"function"},{"constant":true,"inputs":[],"name":"passAmount","outputs":[{"name":"","type":"uint256"}],"payable":false,"stateMutability":"view","type":"function"},{"constant":true,"inputs":[],"name":"proposer","outputs":[{"name":"","type":"address"}],"payable":false,"stateMutability":"view","type":"function"},{"constant":true,"inputs":[],"name":"voteCommitPeriod","outputs":[{"name":"","type":"uint256"}],"payable":false,"stateMutability":"view","type":"function"},{"constant":true,"inputs":[],"name":"reputationStaked","outputs":[{"name":"","type":"uint256"}],"payable":false,"stateMutability":"view","type":"function"},{"constant":true,"inputs":[],"name":"voteRevealPeriod","outputs":[{"name":"","type":"uint256"}],"payable":false,"stateMutability":"view","type":"function"},{"constant":true,"inputs":[],"name":"stakingPeriod","outputs":[{"name":"","type":"uint256"}],"payable":false,"stateMutability":"view","type":"function"},{"constant":true,"inputs":[],"name":"state","outputs":[{"name":"","type":"uint256"}],"payable":false,"stateMutability":"view","type":"function"},{"constant":true,"inputs":[],"name":"ipfsHash","outputs":[{"name":"","type":"string"}],"payable":false,"stateMutability":"view","type":"function"},{"constant":true,"inputs":[],"name":"activeStatePeriod","outputs":[{"name":"","type":"uint256"}],"payable":false,"stateMutability":"view","type":"function"},{"inputs":[{"name":"_cost","type":"uint256"},{"name":"_costProportion","type":"uint256"},{"name":"_stakingPeriod","type":"uint256"},{"name":"_proposer","type":"address"},{"name":"_proposerType","type":"uint256"},{"name":"_proposerStake","type":"uint256"},{"name":"_ipfsHash","type":"string"},{"name":"_reputationRegistry","type":"address"},{"name":"_tokenRegistry","type":"address"}],"payable":false,"stateMutability":"nonpayable","type":"constructor"},{"payable":true,"stateMutability":"payable","type":"fallback"},{"constant":true,"inputs":[{"name":"_sender","type":"address"}],"name":"isTR","outputs":[{"name":"","type":"bool"}],"payable":false,"stateMutability":"view","type":"function"},{"constant":true,"inputs":[{"name":"_sender","type":"address"}],"name":"isRR","outputs":[{"name":"","type":"bool"}],"payable":false,"stateMutability":"view","type":"function"},{"constant":true,"inputs":[],"name":"getTaskCount","outputs":[{"name":"","type":"uint256"}],"payable":false,"stateMutability":"view","type":"function"},{"constant":false,"inputs":[{"name":"_state","type":"uint256"},{"name":"_nextDeadline","type":"uint256"}],"name":"setState","outputs":[],"payable":false,"stateMutability":"nonpayable","type":"function"},{"constant":false,"inputs":[],"name":"clearProposerStake","outputs":[],"payable":false,"stateMutability":"nonpayable","type":"function"},{"constant":false,"inputs":[{"name":"_staker","type":"address"}],"name":"clearTokenStake","outputs":[],"payable":false,"stateMutability":"nonpayable","type":"function"},{"constant":false,"inputs":[{"name":"_staker","type":"address"}],"name":"clearReputationStake","outputs":[],"payable":false,"stateMutability":"nonpayable","type":"function"},{"constant":false,"inputs":[],"name":"clearStake","outputs":[],"payable":false,"stateMutability":"nonpayable","type":"function"},{"constant":false,"inputs":[{"name":"_tasksLength","type":"uint256"}],"name":"setTaskLength","outputs":[],"payable":false,"stateMutability":"nonpayable","type":"function"},{"constant":false,"inputs":[{"name":"_taskAddress","type":"address"},{"name":"_index","type":"uint256"}],"name":"setTaskAddress","outputs":[],"payable":false,"stateMutability":"nonpayable","type":"function"},{"constant":false,"inputs":[{"name":"_passAmount","type":"uint256"}],"name":"setPassAmount","outputs":[],"payable":false,"stateMutability":"nonpayable","type":"function"},{"constant":false,"inputs":[{"name":"_staker","type":"address"},{"name":"_tokens","type":"uint256"},{"name":"_weiValue","type":"uint256"}],"name":"stakeTokens","outputs":[],"payable":false,"stateMutability":"nonpayable","type":"function"},{"constant":false,"inputs":[{"name":"_staker","type":"address"},{"name":"_tokens","type":"uint256"}],"name":"unstakeTokens","outputs":[{"name":"","type":"uint256"}],"payable":false,"stateMutability":"nonpayable","type":"function"},{"constant":false,"inputs":[{"name":"_staker","type":"address"},{"name":"_reputation","type":"uint256"}],"name":"stakeReputation","outputs":[],"payable":false,"stateMutability":"nonpayable","type":"function"},{"constant":false,"inputs":[{"name":"_staker","type":"address"},{"name":"_reputation","type":"uint256"}],"name":"unstakeReputation","outputs":[],"payable":false,"stateMutability":"nonpayable","type":"function"},{"constant":false,"inputs":[{"name":"_rewardee","type":"address"},{"name":"_reward","type":"uint256"}],"name":"transferWeiReward","outputs":[],"payable":false,"stateMutability":"nonpayable","type":"function"},{"constant":false,"inputs":[{"name":"_distributeToken","type":"address"},{"name":"_value","type":"uint256"}],"name":"returnWei","outputs":[],"payable":false,"stateMutability":"nonpayable","type":"function"}],"bytecode":"0x606060405262093a806004556212750060055562093a8060065562093a8060075562093a8060085562093a806009556064600a5534156200003f57600080fd5b6040516200c0d83803806200c0d8833981016040528080519060200190919080519060200190919080519060200190919080519060200190919080519060200190919080519060200190919080518201919060200180519060200190919080519060200190919050507f70818a55d36b2eee91c357097bb108cbebe9221344fa3d9a1ecd04b62164841c60066040518080602001838152602001828103825260528152602001807f2f55736572732f73686f6b6973686f6b692f646576656c6f706d656e742f636f81526020017f6e73656e7379732f646973747269627574652f636f6e7472616374732f636f6e81526020017f7472616374732f50726f6a6563742e736f6c00000000000000000000000000008152506060019250505060405180910390a17f6ca67a40d32d177c7997facc1824fca23699aa90c8a5e5622bc262c8e834a66160846040518080602001838152602001828103825260528152602001807f2f55736572732f73686f6b6973686f6b692f646576656c6f706d656e742f636f81526020017f6e73656e7379732f646973747269627574652f636f6e7472616374732f636f6e81526020017f7472616374732f50726f6a6563742e736f6c00000000000000000000000000008152506060019250505060405180910390a17f61fc2769b9825a2d640440cf05bcb75301fb5f5274ee8f22ee1df4d7776f6f1460066040518080602001838152602001828103825260528152602001807f2f55736572732f73686f6b6973686f6b692f646576656c6f706d656e742f636f81526020017f6e73656e7379732f646973747269627574652f636f6e7472616374732f636f6e81526020017f7472616374732f50726f6a6563742e736f6c00000000000000000000000000008152506060019250505060405180910390a181600160006101000a81548173ffffffffffffffffffffffffffffffffffffffff021916908373ffffffffffffffffffffffffffffffffffffffff1602179055507f6ca67a40d32d177c7997facc1824fca23699aa90c8a5e5622bc262c8e834a66160856040518080602001838152602001828103825260528152602001807f2f55736572732f73686f6b6973686f6b692f646576656c6f706d656e742f636f81526020017f6e73656e7379732f646973747269627574652f636f6e7472616374732f636f6e81526020017f7472616374732f50726f6a6563742e736f6c00000000000000000000000000008152506060019250505060405180910390a17f61fc2769b9825a2d640440cf05bcb75301fb5f5274ee8f22ee1df4d7776f6f1460076040518080602001838152602001828103825260528152602001807f2f55736572732f73686f6b6973686f6b692f646576656c6f706d656e742f636f81526020017f6e73656e7379732f646973747269627574652f636f6e7472616374732f636f6e81526020017f7472616374732f50726f6a6563742e736f6c00000000000000000000000000008152506060019250505060405180910390a1806000806101000a81548173ffffffffffffffffffffffffffffffffffffffff021916908373ffffffffffffffffffffffffffffffffffffffff1602179055507f6ca67a40d32d177c7997facc1824fca23699aa90c8a5e5622bc262c8e834a66160866040518080602001838152602001828103825260528152602001807f2f55736572732f73686f6b6973686f6b692f646576656c6f706d656e742f636f81526020017f6e73656e7379732f646973747269627574652f636f6e7472616374732f636f6e81526020017f7472616374732f50726f6a6563742e736f6c00000000000000000000000000008152506060019250505060405180910390a17f61fc2769b9825a2d640440cf05bcb75301fb5f5274ee8f22ee1df4d7776f6f1460086040518080602001838152602001828103825260528152602001807f2f55736572732f73686f6b6973686f6b692f646576656c6f706d656e742f636f81526020017f6e73656e7379732f646973747269627574652f636f6e7472616374732f636f6e81526020017f7472616374732f50726f6a6563742e736f6c00000000000000000000000000008152506060019250505060405180910390a133600260006101000a81548173ffffffffffffffffffffffffffffffffffffffff021916908373ffffffffffffffffffffffffffffffffffffffff1602179055507f6ca67a40d32d177c7997facc1824fca23699aa90c8a5e5622bc262c8e834a66160876040518080602001838152602001828103825260528152602001807f2f55736572732f73686f6b6973686f6b692f646576656c6f706d656e742f636f81526020017f6e73656e7379732f646973747269627574652f636f6e7472616374732f636f6e81526020017f7472616374732f50726f6a6563742e736f6c00000000000000000000000000008152506060019250505060405180910390a17f61fc2769b9825a2d640440cf05bcb75301fb5f5274ee8f22ee1df4d7776f6f1460096040518080602001838152602001828103825260528152602001807f2f55736572732f73686f6b6973686f6b692f646576656c6f706d656e742f636f81526020017f6e73656e7379732f646973747269627574652f636f6e7472616374732f636f6e81526020017f7472616374732f50726f6a6563742e736f6c00000000000000000000000000008152506060019250505060405180910390a1886011819055507f6ca67a40d32d177c7997facc1824fca23699aa90c8a5e5622bc262c8e834a66160886040518080602001838152602001828103825260528152602001807f2f55736572732f73686f6b6973686f6b692f646576656c6f706d656e742f636f81526020017f6e73656e7379732f646973747269627574652f636f6e7472616374732f636f6e81526020017f7472616374732f50726f6a6563742e736f6c00000000000000000000000000008152506060019250505060405180910390a17f61fc2769b9825a2d640440cf05bcb75301fb5f5274ee8f22ee1df4d7776f6f14600a6040518080602001838152602001828103825260528152602001807f2f55736572732f73686f6b6973686f6b692f646576656c6f706d656e742f636f81526020017f6e73656e7379732f646973747269627574652f636f6e7472616374732f636f6e81526020017f7472616374732f50726f6a6563742e736f6c00000000000000000000000000008152506060019250505060405180910390a16402540be4008273ffffffffffffffffffffffffffffffffffffffff166318160ddd6000604051602001526040518163ffffffff167c0100000000000000000000000000000000000000000000000000000000028152600401602060405180830381600087803b151562000a0357600080fd5b6102c65a03f1151562000a1557600080fd5b50505060405180519050890281151562000a2b57fe5b046012819055507f6ca67a40d32d177c7997facc1824fca23699aa90c8a5e5622bc262c8e834a66160896040518080602001838152602001828103825260528152602001807f2f55736572732f73686f6b6973686f6b692f646576656c6f706d656e742f636f81526020017f6e73656e7379732f646973747269627574652f636f6e7472616374732f636f6e81526020017f7472616374732f50726f6a6563742e736f6c00000000000000000000000000008152506060019250505060405180910390a17f61fc2769b9825a2d640440cf05bcb75301fb5f5274ee8f22ee1df4d7776f6f14600b6040518080602001838152602001828103825260528152602001807f2f55736572732f73686f6b6973686f6b692f646576656c6f706d656e742f636f81526020017f6e73656e7379732f646973747269627574652f636f6e7472616374732f636f6e81526020017f7472616374732f50726f6a6563742e736f6c00000000000000000000000000008152506060019250505060405180910390a160016003819055507f6ca67a40d32d177c7997facc1824fca23699aa90c8a5e5622bc262c8e834a661608a6040518080602001838152602001828103825260528152602001807f2f55736572732f73686f6b6973686f6b692f646576656c6f706d656e742f636f81526020017f6e73656e7379732f646973747269627574652f636f6e7472616374732f636f6e81526020017f7472616374732f50726f6a6563742e736f6c00000000000000000000000000008152506060019250505060405180910390a17f61fc2769b9825a2d640440cf05bcb75301fb5f5274ee8f22ee1df4d7776f6f14600c6040518080602001838152602001828103825260528152602001807f2f55736572732f73686f6b6973686f6b692f646576656c6f706d656e742f636f81526020017f6e73656e7379732f646973747269627574652f636f6e7472616374732f636f6e81526020017f7472616374732f50726f6a6563742e736f6c00000000000000000000000000008152506060019250505060405180910390a1866010819055507f6ca67a40d32d177c7997facc1824fca23699aa90c8a5e5622bc262c8e834a661608b6040518080602001838152602001828103825260528152602001807f2f55736572732f73686f6b6973686f6b692f646576656c6f706d656e742f636f81526020017f6e73656e7379732f646973747269627574652f636f6e7472616374732f636f6e81526020017f7472616374732f50726f6a6563742e736f6c00000000000000000000000000008152506060019250505060405180910390a17f61fc2769b9825a2d640440cf05bcb75301fb5f5274ee8f22ee1df4d7776f6f14600d6040518080602001838152602001828103825260528152602001807f2f55736572732f73686f6b6973686f6b692f646576656c6f706d656e742f636f81526020017f6e73656e7379732f646973747269627574652f636f6e7472616374732f636f6e81526020017f7472616374732f50726f6a6563742e736f6c00000000000000000000000000008152506060019250505060405180910390a185600b60006101000a81548173ffffffffffffffffffffffffffffffffffffffff021916908373ffffffffffffffffffffffffffffffffffffffff1602179055507f6ca67a40d32d177c7997facc1824fca23699aa90c8a5e5622bc262c8e834a661608c6040518080602001838152602001828103825260528152602001807f2f55736572732f73686f6b6973686f6b692f646576656c6f706d656e742f636f81526020017f6e73656e7379732f646973747269627574652f636f6e7472616374732f636f6e81526020017f7472616374732f50726f6a6563742e736f6c00000000000000000000000000008152506060019250505060405180910390a17f61fc2769b9825a2d640440cf05bcb75301fb5f5274ee8f22ee1df4d7776f6f14600e6040518080602001838152602001828103825260528152602001807f2f55736572732f73686f6b6973686f6b692f646576656c6f706d656e742f636f81526020017f6e73656e7379732f646973747269627574652f636f6e7472616374732f636f6e81526020017f7472616374732f50726f6a6563742e736f6c00000000000000000000000000008152506060019250505060405180910390a184600c819055507f6ca67a40d32d177c7997facc1824fca23699aa90c8a5e5622bc262c8e834a661608d6040518080602001838152602001828103825260528152602001807f2f55736572732f73686f6b6973686f6b692f646576656c6f706d656e742f636f81526020017f6e73656e7379732f646973747269627574652f636f6e7472616374732f636f6e81526020017f7472616374732f50726f6a6563742e736f6c00000000000000000000000000008152506060019250505060405180910390a17f61fc2769b9825a2d640440cf05bcb75301fb5f5274ee8f22ee1df4d7776f6f14600f6040518080602001838152602001828103825260528152602001807f2f55736572732f73686f6b6973686f6b692f646576656c6f706d656e742f636f81526020017f6e73656e7379732f646973747269627574652f636f6e7472616374732f636f6e81526020017f7472616374732f50726f6a6563742e736f6c00000000000000000000000000008152506060019250505060405180910390a183600d819055507f6ca67a40d32d177c7997facc1824fca23699aa90c8a5e5622bc262c8e834a661608e6040518080602001838152602001828103825260528152602001807f2f55736572732f73686f6b6973686f6b692f646576656c6f706d656e742f636f81526020017f6e73656e7379732f646973747269627574652f636f6e7472616374732f636f6e81526020017f7472616374732f50726f6a6563742e736f6c00000000000000000000000000008152506060019250505060405180910390a17f61fc2769b9825a2d640440cf05bcb75301fb5f5274ee8f22ee1df4d7776f6f1460106040518080602001838152602001828103825260528152602001807f2f55736572732f73686f6b6973686f6b692f646576656c6f706d656e742f636f81526020017f6e73656e7379732f646973747269627574652f636f6e7472616374732f636f6e81526020017f7472616374732f50726f6a6563742e736f6c00000000000000000000000000008152506060019250505060405180910390a182601390805190602001906200138492919062001394565b5050505050505050505062001443565b828054600181600116156101000203166002900490600052602060002090601f016020900481019282601f10620013d757805160ff191683800117855562001408565b8280016001018555821562001408579182015b8281111562001407578251825591602001919060010190620013ea565b5b5090506200141791906200141b565b5090565b6200144091905b808211156200143c57600081600090555060010162001422565b5090565b90565b61ac8580620014536000396000f3006060604052600436106101ee576000357c0100000000000000000000000000000000000000000000000000000000900463ffffffff16806303f2f928146102ad578063065d5d0a146102ef57806306a5ab2c146103185780630c328306146103515780630cff8e8f1461037a5780630df44ec5146103c557806312ff35bc146103e857806316ddf02114610411578063205179841461043a57806336df7df7146104635780633c79fe741461048c578063476da566146104ce5780634b3a9a2c146104e3578063523fba7f1461050c57806353e0a9be146105595780635a6fb81f146105a6578063710c096e146105cf578063764c8a00146105f85780637ec20fe8146106315780637f306ba11461067357806385955896146106b55780638a77e915146106de5780638d9776721461070157806399a03316146107645780639bebba0a1461078d578063a8e4fb90146107b6578063b10bbaab1461080b578063b11eda5a1461084d578063b23dcdaf14610876578063b532b1131461089f578063b5b29838146108f0578063b7eabbf914610941578063b9d77bfc1461096a578063c03d5b4714610996578063c17a340e146109bf578063c19d93fb146109e8578063c623674f14610a11578063cbd368bc14610a9f578063e89a173e14610ab4578063ff04322d14610b0a575b7f70818a55d36b2eee91c357097bb108cbebe9221344fa3d9a1ecd04b62164841c60076040518080602001838152602001828103825260528152602001807f2f55736572732f73686f6b6973686f6b692f646576656c6f706d656e742f636f81526020017f6e73656e7379732f646973747269627574652f636f6e7472616374732f636f6e81526020017f7472616374732f50726f6a6563742e736f6c00000000000000000000000000008152506060019250505060405180910390a1005b34156102b857600080fd5b6102ed600480803573ffffffffffffffffffffffffffffffffffffffff16906020019091908035906020019091905050610b33565b005b34156102fa57600080fd5b610302611595565b6040518082815260200191505060405180910390f35b341561032357600080fd5b61034f600480803573ffffffffffffffffffffffffffffffffffffffff1690602001909190505061159b565b005b341561035c57600080fd5b610364611ce3565b6040518082815260200191505060405180910390f35b341561038557600080fd5b6103c3600480803573ffffffffffffffffffffffffffffffffffffffff16906020019091908035906020019091908035906020019091905050611ce9565b005b34156103d057600080fd5b6103e66004808035906020019091905050612a57565b005b34156103f357600080fd5b6103fb613162565b6040518082815260200191505060405180910390f35b341561041c57600080fd5b610424613168565b6040518082815260200191505060405180910390f35b341561044557600080fd5b61044d61316e565b6040518082815260200191505060405180910390f35b341561046e57600080fd5b610476613174565b6040518082815260200191505060405180910390f35b341561049757600080fd5b6104cc600480803573ffffffffffffffffffffffffffffffffffffffff1690602001909190803590602001909190505061317a565b005b34156104d957600080fd5b6104e161413c565b005b34156104ee57600080fd5b6104f66149c9565b6040518082815260200191505060405180910390f35b341561051757600080fd5b610543600480803573ffffffffffffffffffffffffffffffffffffffff169060200190919050506149cf565b6040518082815260200191505060405180910390f35b341561056457600080fd5b610590600480803573ffffffffffffffffffffffffffffffffffffffff169060200190919050506149e7565b6040518082815260200191505060405180910390f35b34156105b157600080fd5b6105b96149ff565b6040518082815260200191505060405180910390f35b34156105da57600080fd5b6105e2614a05565b6040518082815260200191505060405180910390f35b341561060357600080fd5b61062f600480803573ffffffffffffffffffffffffffffffffffffffff16906020019091905050614a0b565b005b341561063c57600080fd5b610671600480803573ffffffffffffffffffffffffffffffffffffffff16906020019091908035906020019091905050615154565b005b341561067e57600080fd5b6106b3600480803573ffffffffffffffffffffffffffffffffffffffff169060200190919080359060200190919050506157dd565b005b34156106c057600080fd5b6106c8616744565b6040518082815260200191505060405180910390f35b34156106e957600080fd5b6106ff600480803590602001909190505061674a565b005b341561070c57600080fd5b6107226004808035906020019091905050616e5d565b604051808273ffffffffffffffffffffffffffffffffffffffff1673ffffffffffffffffffffffffffffffffffffffff16815260200191505060405180910390f35b341561076f57600080fd5b610777616e9c565b6040518082815260200191505060405180910390f35b341561079857600080fd5b6107a0616ea2565b6040518082815260200191505060405180910390f35b34156107c157600080fd5b6107c9616ea8565b604051808273ffffffffffffffffffffffffffffffffffffffff1673ffffffffffffffffffffffffffffffffffffffff16815260200191505060405180910390f35b341561081657600080fd5b61084b600480803573ffffffffffffffffffffffffffffffffffffffff16906020019091908035906020019091905050616ece565b005b341561085857600080fd5b6108606179e8565b6040518082815260200191505060405180910390f35b341561088157600080fd5b6108896179ee565b6040518082815260200191505060405180910390f35b34156108aa57600080fd5b6108d6600480803573ffffffffffffffffffffffffffffffffffffffff169060200190919050506179f4565b604051808215151515815260200191505060405180910390f35b34156108fb57600080fd5b610927600480803573ffffffffffffffffffffffffffffffffffffffff16906020019091905050617c92565b604051808215151515815260200191505060405180910390f35b341561094c57600080fd5b610954617f31565b6040518082815260200191505060405180910390f35b341561097557600080fd5b6109946004808035906020019091908035906020019091905050617f37565b005b34156109a157600080fd5b6109a96187c4565b6040518082815260200191505060405180910390f35b34156109ca57600080fd5b6109d26187ca565b6040518082815260200191505060405180910390f35b34156109f357600080fd5b6109fb618a0e565b6040518082815260200191505060405180910390f35b3415610a1c57600080fd5b610a24618a14565b6040518080602001828103825283818151815260200191508051906020019080838360005b83811015610a64578082015181840152602081019050610a49565b50505050905090810190601f168015610a915780820380516001836020036101000a031916815260200191505b509250505060405180910390f35b3415610aaa57600080fd5b610ab2618ab2565b005b3415610abf57600080fd5b610af4600480803573ffffffffffffffffffffffffffffffffffffffff169060200190919080359060200190919050506191bd565b6040518082815260200191505060405180910390f35b3415610b1557600080fd5b610b1d61a6be565b6040518082815260200191505060405180910390f35b7f70818a55d36b2eee91c357097bb108cbebe9221344fa3d9a1ecd04b62164841c60016040518080602001838152602001828103825260528152602001807f2f55736572732f73686f6b6973686f6b692f646576656c6f706d656e742f636f81526020017f6e73656e7379732f646973747269627574652f636f6e7472616374732f636f6e81526020017f7472616374732f50726f6a6563742e736f6c00000000000000000000000000008152506060019250505060405180910390a17f6ca67a40d32d177c7997facc1824fca23699aa90c8a5e5622bc262c8e834a661604d6040518080602001838152602001828103825260528152602001807f2f55736572732f73686f6b6973686f6b692f646576656c6f706d656e742f636f81526020017f6e73656e7379732f646973747269627574652f636f6e7472616374732f636f6e81526020017f7472616374732f50726f6a6563742e736f6c00000000000000000000000000008152506060019250505060405180910390a17ff08ade2f0c0da67baa7ba1d57e38dbeef0e2081dd536e8a78fb8250e1a496e1760016040518080602001838152602001828103825260528152602001807f2f55736572732f73686f6b6973686f6b692f646576656c6f706d656e742f636f81526020017f6e73656e7379732f646973747269627574652f636f6e7472616374732f636f6e81526020017f7472616374732f50726f6a6563742e736f6c00000000000000000000000000008152506060019250505060405180910390a17f61fc2769b9825a2d640440cf05bcb75301fb5f5274ee8f22ee1df4d7776f6f1460016040518080602001838152602001828103825260528152602001807f2f55736572732f73686f6b6973686f6b692f646576656c6f706d656e742f636f81526020017f6e73656e7379732f646973747269627574652f636f6e7472616374732f636f6e81526020017f7472616374732f50726f6a6563742e736f6c00000000000000000000000000008152506060019250505060405180910390a1600260009054906101000a900473ffffffffffffffffffffffffffffffffffffffff1673ffffffffffffffffffffffffffffffffffffffff163373ffffffffffffffffffffffffffffffffffffffff16141515610e8357600080fd5b7fc87527bec65de4402250ac9da174a21e20ab4caf5f8e8811bd1c43d217af323e60016040518080602001838152602001828103825260528152602001807f2f55736572732f73686f6b6973686f6b692f646576656c6f706d656e742f636f81526020017f6e73656e7379732f646973747269627574652f636f6e7472616374732f636f6e81526020017f7472616374732f50726f6a6563742e736f6c00000000000000000000000000008152506060019250505060405180910390a17f6ca67a40d32d177c7997facc1824fca23699aa90c8a5e5622bc262c8e834a661604e6040518080602001838152602001828103825260528152602001807f2f55736572732f73686f6b6973686f6b692f646576656c6f706d656e742f636f81526020017f6e73656e7379732f646973747269627574652f636f6e7472616374732f636f6e81526020017f7472616374732f50726f6a6563742e736f6c00000000000000000000000000008152506060019250505060405180910390a17f70818a55d36b2eee91c357097bb108cbebe9221344fa3d9a1ecd04b62164841c600f6040518080602001838152602001828103825260528152602001807f2f55736572732f73686f6b6973686f6b692f646576656c6f706d656e742f636f81526020017f6e73656e7379732f646973747269627574652f636f6e7472616374732f636f6e81526020017f7472616374732f50726f6a6563742e736f6c00000000000000000000000000008152506060019250505060405180910390a17f6ca67a40d32d177c7997facc1824fca23699aa90c8a5e5622bc262c8e834a66160e56040518080602001838152602001828103825260528152602001807f2f55736572732f73686f6b6973686f6b692f646576656c6f706d656e742f636f81526020017f6e73656e7379732f646973747269627574652f636f6e7472616374732f636f6e81526020017f7472616374732f50726f6a6563742e736f6c00000000000000000000000000008152506060019250505060405180910390a17ff08ade2f0c0da67baa7ba1d57e38dbeef0e2081dd536e8a78fb8250e1a496e1760046040518080602001838152602001828103825260528152602001807f2f55736572732f73686f6b6973686f6b692f646576656c6f706d656e742f636f81526020017f6e73656e7379732f646973747269627574652f636f6e7472616374732f636f6e81526020017f7472616374732f50726f6a6563742e736f6c00000000000000000000000000008152506060019250505060405180910390a17f61fc2769b9825a2d640440cf05bcb75301fb5f5274ee8f22ee1df4d7776f6f14601a6040518080602001838152602001828103825260528152602001807f2f55736572732f73686f6b6973686f6b692f646576656c6f706d656e742f636f81526020017f6e73656e7379732f646973747269627574652f636f6e7472616374732f636f6e81526020017f7472616374732f50726f6a6563742e736f6c00000000000000000000000000008152506060019250505060405180910390a16003805414151561130157600080fd5b7fc87527bec65de4402250ac9da174a21e20ab4caf5f8e8811bd1c43d217af323e60046040518080602001838152602001828103825260528152602001807f2f55736572732f73686f6b6973686f6b692f646576656c6f706d656e742f636f81526020017f6e73656e7379732f646973747269627574652f636f6e7472616374732f636f6e81526020017f7472616374732f50726f6a6563742e736f6c00000000000000000000000000008152506060019250505060405180910390a17f6ca67a40d32d177c7997facc1824fca23699aa90c8a5e5622bc262c8e834a66160e66040518080602001838152602001828103825260528152602001807f2f55736572732f73686f6b6973686f6b692f646576656c6f706d656e742f636f81526020017f6e73656e7379732f646973747269627574652f636f6e7472616374732f636f6e81526020017f7472616374732f50726f6a6563742e736f6c00000000000000000000000000008152506060019250505060405180910390a17f61fc2769b9825a2d640440cf05bcb75301fb5f5274ee8f22ee1df4d7776f6f14601b6040518080602001838152602001828103825260528152602001807f2f55736572732f73686f6b6973686f6b692f646576656c6f706d656e742f636f81526020017f6e73656e7379732f646973747269627574652f636f6e7472616374732f636f6e81526020017f7472616374732f50726f6a6563742e736f6c00000000000000000000000000008152506060019250505060405180910390a18160188281548110151561154857fe5b906000526020600020900160006101000a81548173ffffffffffffffffffffffffffffffffffffffff021916908373ffffffffffffffffffffffffffffffffffffffff1602179055505050565b600f5481565b7f70818a55d36b2eee91c357097bb108cbebe9221344fa3d9a1ecd04b62164841c60026040518080602001838152602001828103825260528152602001807f2f55736572732f73686f6b6973686f6b692f646576656c6f706d656e742f636f81526020017f6e73656e7379732f646973747269627574652f636f6e7472616374732f636f6e81526020017f7472616374732f50726f6a6563742e736f6c00000000000000000000000000008152506060019250505060405180910390a17f6ca67a40d32d177c7997facc1824fca23699aa90c8a5e5622bc262c8e834a66160526040518080602001838152602001828103825260528152602001807f2f55736572732f73686f6b6973686f6b692f646576656c6f706d656e742f636f81526020017f6e73656e7379732f646973747269627574652f636f6e7472616374732f636f6e81526020017f7472616374732f50726f6a6563742e736f6c00000000000000000000000000008152506060019250505060405180910390a17ff08ade2f0c0da67baa7ba1d57e38dbeef0e2081dd536e8a78fb8250e1a496e1760026040518080602001838152602001828103825260528152602001807f2f55736572732f73686f6b6973686f6b692f646576656c6f706d656e742f636f81526020017f6e73656e7379732f646973747269627574652f636f6e7472616374732f636f6e81526020017f7472616374732f50726f6a6563742e736f6c00000000000000000000000000008152506060019250505060405180910390a17f61fc2769b9825a2d640440cf05bcb75301fb5f5274ee8f22ee1df4d7776f6f1460026040518080602001838152602001828103825260528152602001807f2f55736572732f73686f6b6973686f6b692f646576656c6f706d656e742f636f81526020017f6e73656e7379732f646973747269627574652f636f6e7472616374732f636f6e81526020017f7472616374732f50726f6a6563742e736f6c00000000000000000000000000008152506060019250505060405180910390a16000809054906101000a900473ffffffffffffffffffffffffffffffffffffffff1673ffffffffffffffffffffffffffffffffffffffff163373ffffffffffffffffffffffffffffffffffffffff161415156118ea57600080fd5b7fc87527bec65de4402250ac9da174a21e20ab4caf5f8e8811bd1c43d217af323e60026040518080602001838152602001828103825260528152602001807f2f55736572732f73686f6b6973686f6b692f646576656c6f706d656e742f636f81526020017f6e73656e7379732f646973747269627574652f636f6e7472616374732f636f6e81526020017f7472616374732f50726f6a6563742e736f6c00000000000000000000000000008152506060019250505060405180910390a17f6ca67a40d32d177c7997facc1824fca23699aa90c8a5e5622bc262c8e834a66160536040518080602001838152602001828103825260528152602001807f2f55736572732f73686f6b6973686f6b692f646576656c6f706d656e742f636f81526020017f6e73656e7379732f646973747269627574652f636f6e7472616374732f636f6e81526020017f7472616374732f50726f6a6563742e736f6c00000000000000000000000000008152506060019250505060405180910390a17f70818a55d36b2eee91c357097bb108cbebe9221344fa3d9a1ecd04b62164841c600b6040518080602001838152602001828103825260528152602001807f2f55736572732f73686f6b6973686f6b692f646576656c6f706d656e742f636f81526020017f6e73656e7379732f646973747269627574652f636f6e7472616374732f636f6e81526020017f7472616374732f50726f6a6563742e736f6c00000000000000000000000000008152506060019250505060405180910390a17f6ca67a40d32d177c7997facc1824fca23699aa90c8a5e5622bc262c8e834a66160c06040518080602001838152602001828103825260528152602001807f2f55736572732f73686f6b6973686f6b692f646576656c6f706d656e742f636f81526020017f6e73656e7379732f646973747269627574652f636f6e7472616374732f636f6e81526020017f7472616374732f50726f6a6563742e736f6c00000000000000000000000000008152506060019250505060405180910390a17f61fc2769b9825a2d640440cf05bcb75301fb5f5274ee8f22ee1df4d7776f6f1460156040518080602001838152602001828103825260528152602001807f2f55736572732f73686f6b6973686f6b692f646576656c6f706d656e742f636f81526020017f6e73656e7379732f646973747269627574652f636f6e7472616374732f636f6e81526020017f7472616374732f50726f6a6563742e736f6c00000000000000000000000000008152506060019250505060405180910390a16000601660008373ffffffffffffffffffffffffffffffffffffffff1673ffffffffffffffffffffffffffffffffffffffff1681526020019081526020016000208190555050565b600d5481565b7f70818a55d36b2eee91c357097bb108cbebe9221344fa3d9a1ecd04b62164841c60026040518080602001838152602001828103825260528152602001807f2f55736572732f73686f6b6973686f6b692f646576656c6f706d656e742f636f81526020017f6e73656e7379732f646973747269627574652f636f6e7472616374732f636f6e81526020017f7472616374732f50726f6a6563742e736f6c00000000000000000000000000008152506060019250505060405180910390a17f6ca67a40d32d177c7997facc1824fca23699aa90c8a5e5622bc262c8e834a66160526040518080602001838152602001828103825260528152602001807f2f55736572732f73686f6b6973686f6b692f646576656c6f706d656e742f636f81526020017f6e73656e7379732f646973747269627574652f636f6e7472616374732f636f6e81526020017f7472616374732f50726f6a6563742e736f6c00000000000000000000000000008152506060019250505060405180910390a17ff08ade2f0c0da67baa7ba1d57e38dbeef0e2081dd536e8a78fb8250e1a496e1760026040518080602001838152602001828103825260528152602001807f2f55736572732f73686f6b6973686f6b692f646576656c6f706d656e742f636f81526020017f6e73656e7379732f646973747269627574652f636f6e7472616374732f636f6e81526020017f7472616374732f50726f6a6563742e736f6c00000000000000000000000000008152506060019250505060405180910390a17f61fc2769b9825a2d640440cf05bcb75301fb5f5274ee8f22ee1df4d7776f6f1460026040518080602001838152602001828103825260528152602001807f2f55736572732f73686f6b6973686f6b692f646576656c6f706d656e742f636f81526020017f6e73656e7379732f646973747269627574652f636f6e7472616374732f636f6e81526020017f7472616374732f50726f6a6563742e736f6c00000000000000000000000000008152506060019250505060405180910390a16000809054906101000a900473ffffffffffffffffffffffffffffffffffffffff1673ffffffffffffffffffffffffffffffffffffffff163373ffffffffffffffffffffffffffffffffffffffff1614151561203857600080fd5b7fc87527bec65de4402250ac9da174a21e20ab4caf5f8e8811bd1c43d217af323e60026040518080602001838152602001828103825260528152602001807f2f55736572732f73686f6b6973686f6b692f646576656c6f706d656e742f636f81526020017f6e73656e7379732f646973747269627574652f636f6e7472616374732f636f6e81526020017f7472616374732f50726f6a6563742e736f6c00000000000000000000000000008152506060019250505060405180910390a17f6ca67a40d32d177c7997facc1824fca23699aa90c8a5e5622bc262c8e834a66160536040518080602001838152602001828103825260528152602001807f2f55736572732f73686f6b6973686f6b692f646576656c6f706d656e742f636f81526020017f6e73656e7379732f646973747269627574652f636f6e7472616374732f636f6e81526020017f7472616374732f50726f6a6563742e736f6c00000000000000000000000000008152506060019250505060405180910390a17f70818a55d36b2eee91c357097bb108cbebe9221344fa3d9a1ecd04b62164841c60116040518080602001838152602001828103825260528152602001807f2f55736572732f73686f6b6973686f6b692f646576656c6f706d656e742f636f81526020017f6e73656e7379732f646973747269627574652f636f6e7472616374732f636f6e81526020017f7472616374732f50726f6a6563742e736f6c00000000000000000000000000008152506060019250505060405180910390a17f6ca67a40d32d177c7997facc1824fca23699aa90c8a5e5622bc262c8e834a66160fe6040518080602001838152602001828103825260528152602001807f2f55736572732f73686f6b6973686f6b692f646576656c6f706d656e742f636f81526020017f6e73656e7379732f646973747269627574652f636f6e7472616374732f636f6e81526020017f7472616374732f50726f6a6563742e736f6c00000000000000000000000000008152506060019250505060405180910390a17ff08ade2f0c0da67baa7ba1d57e38dbeef0e2081dd536e8a78fb8250e1a496e1760056040518080602001838152602001828103825260528152602001807f2f55736572732f73686f6b6973686f6b692f646576656c6f706d656e742f636f81526020017f6e73656e7379732f646973747269627574652f636f6e7472616374732f636f6e81526020017f7472616374732f50726f6a6563742e736f6c00000000000000000000000000008152506060019250505060405180910390a17f61fc2769b9825a2d640440cf05bcb75301fb5f5274ee8f22ee1df4d7776f6f14601d6040518080602001838152602001828103825260528152602001807f2f55736572732f73686f6b6973686f6b692f646576656c6f706d656e742f636f81526020017f6e73656e7379732f646973747269627574652f636f6e7472616374732f636f6e81526020017f7472616374732f50726f6a6563742e736f6c00000000000000000000000000008152506060019250505060405180910390a160016003541415156124b757600080fd5b7fc87527bec65de4402250ac9da174a21e20ab4caf5f8e8811bd1c43d217af323e60056040518080602001838152602001828103825260528152602001807f2f55736572732f73686f6b6973686f6b692f646576656c6f706d656e742f636f81526020017f6e73656e7379732f646973747269627574652f636f6e7472616374732f636f6e81526020017f7472616374732f50726f6a6563742e736f6c00000000000000000000000000008152506060019250505060405180910390a17f6ca67a40d32d177c7997facc1824fca23699aa90c8a5e5622bc262c8e834a6616101006040518080602001838152602001828103825260528152602001807f2f55736572732f73686f6b6973686f6b692f646576656c6f706d656e742f636f81526020017f6e73656e7379732f646973747269627574652f636f6e7472616374732f636f6e81526020017f7472616374732f50726f6a6563742e736f6c00000000000000000000000000008152506060019250505060405180910390a17f61fc2769b9825a2d640440cf05bcb75301fb5f5274ee8f22ee1df4d7776f6f14601e6040518080602001838152602001828103825260528152602001807f2f55736572732f73686f6b6973686f6b692f646576656c6f706d656e742f636f81526020017f6e73656e7379732f646973747269627574652f636f6e7472616374732f636f6e81526020017f7472616374732f50726f6a6563742e736f6c00000000000000000000000000008152506060019250505060405180910390a181601660008573ffffffffffffffffffffffffffffffffffffffff1673ffffffffffffffffffffffffffffffffffffffff168152602001908152602001600020600082825401925050819055507f6ca67a40d32d177c7997facc1824fca23699aa90c8a5e5622bc262c8e834a6616101016040518080602001838152602001828103825260528152602001807f2f55736572732f73686f6b6973686f6b692f646576656c6f706d656e742f636f81526020017f6e73656e7379732f646973747269627574652f636f6e7472616374732f636f6e81526020017f7472616374732f50726f6a6563742e736f6c00000000000000000000000000008152506060019250505060405180910390a17f61fc2769b9825a2d640440cf05bcb75301fb5f5274ee8f22ee1df4d7776f6f14601f6040518080602001838152602001828103825260528152602001807f2f55736572732f73686f6b6973686f6b692f646576656c6f706d656e742f636f81526020017f6e73656e7379732f646973747269627574652f636f6e7472616374732f636f6e81526020017f7472616374732f50726f6a6563742e736f6c00000000000000000000000000008152506060019250505060405180910390a1816014600082825401925050819055507f6ca67a40d32d177c7997facc1824fca23699aa90c8a5e5622bc262c8e834a6616101026040518080602001838152602001828103825260528152602001807f2f55736572732f73686f6b6973686f6b692f646576656c6f706d656e742f636f81526020017f6e73656e7379732f646973747269627574652f636f6e7472616374732f636f6e81526020017f7472616374732f50726f6a6563742e736f6c00000000000000000000000000008152506060019250505060405180910390a17f61fc2769b9825a2d640440cf05bcb75301fb5f5274ee8f22ee1df4d7776f6f1460206040518080602001838152602001828103825260528152602001807f2f55736572732f73686f6b6973686f6b692f646576656c6f706d656e742f636f81526020017f6e73656e7379732f646973747269627574652f636f6e7472616374732f636f6e81526020017f7472616374732f50726f6a6563742e736f6c00000000000000000000000000008152506060019250505060405180910390a180600f60008282540192505081905550505050565b7f70818a55d36b2eee91c357097bb108cbebe9221344fa3d9a1ecd04b62164841c60016040518080602001838152602001828103825260528152602001807f2f55736572732f73686f6b6973686f6b692f646576656c6f706d656e742f636f81526020017f6e73656e7379732f646973747269627574652f636f6e7472616374732f636f6e81526020017f7472616374732f50726f6a6563742e736f6c00000000000000000000000000008152506060019250505060405180910390a17f6ca67a40d32d177c7997facc1824fca23699aa90c8a5e5622bc262c8e834a661604d6040518080602001838152602001828103825260528152602001807f2f55736572732f73686f6b6973686f6b692f646576656c6f706d656e742f636f81526020017f6e73656e7379732f646973747269627574652f636f6e7472616374732f636f6e81526020017f7472616374732f50726f6a6563742e736f6c00000000000000000000000000008152506060019250505060405180910390a17ff08ade2f0c0da67baa7ba1d57e38dbeef0e2081dd536e8a78fb8250e1a496e1760016040518080602001838152602001828103825260528152602001807f2f55736572732f73686f6b6973686f6b692f646576656c6f706d656e742f636f81526020017f6e73656e7379732f646973747269627574652f636f6e7472616374732f636f6e81526020017f7472616374732f50726f6a6563742e736f6c00000000000000000000000000008152506060019250505060405180910390a17f61fc2769b9825a2d640440cf05bcb75301fb5f5274ee8f22ee1df4d7776f6f1460016040518080602001838152602001828103825260528152602001807f2f55736572732f73686f6b6973686f6b692f646576656c6f706d656e742f636f81526020017f6e73656e7379732f646973747269627574652f636f6e7472616374732f636f6e81526020017f7472616374732f50726f6a6563742e736f6c00000000000000000000000000008152506060019250505060405180910390a1600260009054906101000a900473ffffffffffffffffffffffffffffffffffffffff1673ffffffffffffffffffffffffffffffffffffffff163373ffffffffffffffffffffffffffffffffffffffff16141515612da757600080fd5b7fc87527bec65de4402250ac9da174a21e20ab4caf5f8e8811bd1c43d217af323e60016040518080602001838152602001828103825260528152602001807f2f55736572732f73686f6b6973686f6b692f646576656c6f706d656e742f636f81526020017f6e73656e7379732f646973747269627574652f636f6e7472616374732f636f6e81526020017f7472616374732f50726f6a6563742e736f6c00000000000000000000000000008152506060019250505060405180910390a17f6ca67a40d32d177c7997facc1824fca23699aa90c8a5e5622bc262c8e834a661604e6040518080602001838152602001828103825260528152602001807f2f55736572732f73686f6b6973686f6b692f646576656c6f706d656e742f636f81526020017f6e73656e7379732f646973747269627574652f636f6e7472616374732f636f6e81526020017f7472616374732f50726f6a6563742e736f6c00000000000000000000000000008152506060019250505060405180910390a17f70818a55d36b2eee91c357097bb108cbebe9221344fa3d9a1ecd04b62164841c60106040518080602001838152602001828103825260528152602001807f2f55736572732f73686f6b6973686f6b692f646576656c6f706d656e742f636f81526020017f6e73656e7379732f646973747269627574652f636f6e7472616374732f636f6e81526020017f7472616374732f50726f6a6563742e736f6c00000000000000000000000000008152506060019250505060405180910390a17f6ca67a40d32d177c7997facc1824fca23699aa90c8a5e5622bc262c8e834a66160ef6040518080602001838152602001828103825260528152602001807f2f55736572732f73686f6b6973686f6b692f646576656c6f706d656e742f636f81526020017f6e73656e7379732f646973747269627574652f636f6e7472616374732f636f6e81526020017f7472616374732f50726f6a6563742e736f6c00000000000000000000000000008152506060019250505060405180910390a17f61fc2769b9825a2d640440cf05bcb75301fb5f5274ee8f22ee1df4d7776f6f14601c6040518080602001838152602001828103825260528152602001807f2f55736572732f73686f6b6973686f6b692f646576656c6f706d656e742f636f81526020017f6e73656e7379732f646973747269627574652f636f6e7472616374732f636f6e81526020017f7472616374732f50726f6a6563742e736f6c00000000000000000000000000008152506060019250505060405180910390a18060198190555050565b60115481565b600c5481565b60105481565b60125481565b7f70818a55d36b2eee91c357097bb108cbebe9221344fa3d9a1ecd04b62164841c60036040518080602001838152602001828103825260528152602001807f2f55736572732f73686f6b6973686f6b692f646576656c6f706d656e742f636f81526020017f6e73656e7379732f646973747269627574652f636f6e7472616374732f636f6e81526020017f7472616374732f50726f6a6563742e736f6c00000000000000000000000000008152506060019250505060405180910390a17f6ca67a40d32d177c7997facc1824fca23699aa90c8a5e5622bc262c8e834a66160576040518080602001838152602001828103825260528152602001807f2f55736572732f73686f6b6973686f6b692f646576656c6f706d656e742f636f81526020017f6e73656e7379732f646973747269627574652f636f6e7472616374732f636f6e81526020017f7472616374732f50726f6a6563742e736f6c00000000000000000000000000008152506060019250505060405180910390a17ff08ade2f0c0da67baa7ba1d57e38dbeef0e2081dd536e8a78fb8250e1a496e1760036040518080602001838152602001828103825260528152602001807f2f55736572732f73686f6b6973686f6b692f646576656c6f706d656e742f636f81526020017f6e73656e7379732f646973747269627574652f636f6e7472616374732f636f6e81526020017f7472616374732f50726f6a6563742e736f6c00000000000000000000000000008152506060019250505060405180910390a17f61fc2769b9825a2d640440cf05bcb75301fb5f5274ee8f22ee1df4d7776f6f1460036040518080602001838152602001828103825260528152602001807f2f55736572732f73686f6b6973686f6b692f646576656c6f706d656e742f636f81526020017f6e73656e7379732f646973747269627574652f636f6e7472616374732f636f6e81526020017f7472616374732f50726f6a6563742e736f6c00000000000000000000000000008152506060019250505060405180910390a1600160009054906101000a900473ffffffffffffffffffffffffffffffffffffffff1673ffffffffffffffffffffffffffffffffffffffff163373ffffffffffffffffffffffffffffffffffffffff161415156134ca57600080fd5b7fc87527bec65de4402250ac9da174a21e20ab4caf5f8e8811bd1c43d217af323e60036040518080602001838152602001828103825260528152602001807f2f55736572732f73686f6b6973686f6b692f646576656c6f706d656e742f636f81526020017f6e73656e7379732f646973747269627574652f636f6e7472616374732f636f6e81526020017f7472616374732f50726f6a6563742e736f6c00000000000000000000000000008152506060019250505060405180910390a17f6ca67a40d32d177c7997facc1824fca23699aa90c8a5e5622bc262c8e834a66160586040518080602001838152602001828103825260528152602001807f2f55736572732f73686f6b6973686f6b692f646576656c6f706d656e742f636f81526020017f6e73656e7379732f646973747269627574652f636f6e7472616374732f636f6e81526020017f7472616374732f50726f6a6563742e736f6c00000000000000000000000000008152506060019250505060405180910390a17f70818a55d36b2eee91c357097bb108cbebe9221344fa3d9a1ecd04b62164841c60146040518080602001838152602001828103825260528152602001807f2f55736572732f73686f6b6973686f6b692f646576656c6f706d656e742f636f81526020017f6e73656e7379732f646973747269627574652f636f6e7472616374732f636f6e81526020017f7472616374732f50726f6a6563742e736f6c00000000000000000000000000008152506060019250505060405180910390a17f6ca67a40d32d177c7997facc1824fca23699aa90c8a5e5622bc262c8e834a6616101316040518080602001838152602001828103825260528152602001807f2f55736572732f73686f6b6973686f6b692f646576656c6f706d656e742f636f81526020017f6e73656e7379732f646973747269627574652f636f6e7472616374732f636f6e81526020017f7472616374732f50726f6a6563742e736f6c00000000000000000000000000008152506060019250505060405180910390a17ff08ade2f0c0da67baa7ba1d57e38dbeef0e2081dd536e8a78fb8250e1a496e17600a6040518080602001838152602001828103825260528152602001807f2f55736572732f73686f6b6973686f6b692f646576656c6f706d656e742f636f81526020017f6e73656e7379732f646973747269627574652f636f6e7472616374732f636f6e81526020017f7472616374732f50726f6a6563742e736f6c00000000000000000000000000008152506060019250505060405180910390a17f61fc2769b9825a2d640440cf05bcb75301fb5f5274ee8f22ee1df4d7776f6f14602c6040518080602001838152602001828103825260528152602001807f2f55736572732f73686f6b6973686f6b692f646576656c6f706d656e742f636f81526020017f6e73656e7379732f646973747269627574652f636f6e7472616374732f636f6e81526020017f7472616374732f50726f6a6563742e736f6c00000000000000000000000000008152506060019250505060405180910390a1600160035414151561394a57600080fd5b7fc87527bec65de4402250ac9da174a21e20ab4caf5f8e8811bd1c43d217af323e600a6040518080602001838152602001828103825260528152602001807f2f55736572732f73686f6b6973686f6b692f646576656c6f706d656e742f636f81526020017f6e73656e7379732f646973747269627574652f636f6e7472616374732f636f6e81526020017f7472616374732f50726f6a6563742e736f6c00000000000000000000000000008152506060019250505060405180910390a17f6ca67a40d32d177c7997facc1824fca23699aa90c8a5e5622bc262c8e834a6616101326040518080602001838152602001828103825260528152602001807f2f55736572732f73686f6b6973686f6b692f646576656c6f706d656e742f636f81526020017f6e73656e7379732f646973747269627574652f636f6e7472616374732f636f6e81526020017f7472616374732f50726f6a6563742e736f6c00000000000000000000000000008152506060019250505060405180910390a17ff08ade2f0c0da67baa7ba1d57e38dbeef0e2081dd536e8a78fb8250e1a496e17600b6040518080602001838152602001828103825260528152602001807f2f55736572732f73686f6b6973686f6b692f646576656c6f706d656e742f636f81526020017f6e73656e7379732f646973747269627574652f636f6e7472616374732f636f6e81526020017f7472616374732f50726f6a6563742e736f6c00000000000000000000000000008152506060019250505060405180910390a17f61fc2769b9825a2d640440cf05bcb75301fb5f5274ee8f22ee1df4d7776f6f14602d6040518080602001838152602001828103825260528152602001807f2f55736572732f73686f6b6973686f6b692f646576656c6f706d656e742f636f81526020017f6e73656e7379732f646973747269627574652f636f6e7472616374732f636f6e81526020017f7472616374732f50726f6a6563742e736f6c00000000000000000000000000008152506060019250505060405180910390a1601760008373ffffffffffffffffffffffffffffffffffffffff1673ffffffffffffffffffffffffffffffffffffffff16815260200190815260200160002054613cd182601760008673ffffffffffffffffffffffffffffffffffffffff1673ffffffffffffffffffffffffffffffffffffffff1681526020019081526020016000205461a6c490919063ffffffff16565b108015613d1d575080601760008473ffffffffffffffffffffffffffffffffffffffff1673ffffffffffffffffffffffffffffffffffffffff1681526020019081526020016000205410155b1515613d2857600080fd5b7fc87527bec65de4402250ac9da174a21e20ab4caf5f8e8811bd1c43d217af323e600b6040518080602001838152602001828103825260528152602001807f2f55736572732f73686f6b6973686f6b692f646576656c6f706d656e742f636f81526020017f6e73656e7379732f646973747269627574652f636f6e7472616374732f636f6e81526020017f7472616374732f50726f6a6563742e736f6c00000000000000000000000000008152506060019250505060405180910390a17f6ca67a40d32d177c7997facc1824fca23699aa90c8a5e5622bc262c8e834a6616101376040518080602001838152602001828103825260528152602001807f2f55736572732f73686f6b6973686f6b692f646576656c6f706d656e742f636f81526020017f6e73656e7379732f646973747269627574652f636f6e7472616374732f636f6e81526020017f7472616374732f50726f6a6563742e736f6c00000000000000000000000000008152506060019250505060405180910390a17f61fc2769b9825a2d640440cf05bcb75301fb5f5274ee8f22ee1df4d7776f6f14602e6040518080602001838152602001828103825260528152602001807f2f55736572732f73686f6b6973686f6b692f646576656c6f706d656e742f636f81526020017f6e73656e7379732f646973747269627574652f636f6e7472616374732f636f6e81526020017f7472616374732f50726f6a6563742e736f6c00000000000000000000000000008152506060019250505060405180910390a180601760008473ffffffffffffffffffffffffffffffffffffffff1673ffffffffffffffffffffffffffffffffffffffff168152602001908152602001600020600082825403925050819055507f6ca67a40d32d177c7997facc1824fca23699aa90c8a5e5622bc262c8e834a6616101386040518080602001838152602001828103825260528152602001807f2f55736572732f73686f6b6973686f6b692f646576656c6f706d656e742f636f81526020017f6e73656e7379732f646973747269627574652f636f6e7472616374732f636f6e81526020017f7472616374732f50726f6a6563742e736f6c00000000000000000000000000008152506060019250505060405180910390a17f61fc2769b9825a2d640440cf05bcb75301fb5f5274ee8f22ee1df4d7776f6f14602f6040518080602001838152602001828103825260528152602001807f2f55736572732f73686f6b6973686f6b692f646576656c6f706d656e742f636f81526020017f6e73656e7379732f646973747269627574652f636f6e7472616374732f636f6e81526020017f7472616374732f50726f6a6563742e736f6c00000000000000000000000000008152506060019250505060405180910390a1806015600082825403925050819055505050565b7f70818a55d36b2eee91c357097bb108cbebe9221344fa3d9a1ecd04b62164841c60016040518080602001838152602001828103825260528152602001807f2f55736572732f73686f6b6973686f6b692f646576656c6f706d656e742f636f81526020017f6e73656e7379732f646973747269627574652f636f6e7472616374732f636f6e81526020017f7472616374732f50726f6a6563742e736f6c00000000000000000000000000008152506060019250505060405180910390a17f6ca67a40d32d177c7997facc1824fca23699aa90c8a5e5622bc262c8e834a661604d6040518080602001838152602001828103825260528152602001807f2f55736572732f73686f6b6973686f6b692f646576656c6f706d656e742f636f81526020017f6e73656e7379732f646973747269627574652f636f6e7472616374732f636f6e81526020017f7472616374732f50726f6a6563742e736f6c00000000000000000000000000008152506060019250505060405180910390a17ff08ade2f0c0da67baa7ba1d57e38dbeef0e2081dd536e8a78fb8250e1a496e1760016040518080602001838152602001828103825260528152602001807f2f55736572732f73686f6b6973686f6b692f646576656c6f706d656e742f636f81526020017f6e73656e7379732f646973747269627574652f636f6e7472616374732f636f6e81526020017f7472616374732f50726f6a6563742e736f6c00000000000000000000000000008152506060019250505060405180910390a17f61fc2769b9825a2d640440cf05bcb75301fb5f5274ee8f22ee1df4d7776f6f1460016040518080602001838152602001828103825260528152602001807f2f55736572732f73686f6b6973686f6b692f646576656c6f706d656e742f636f81526020017f6e73656e7379732f646973747269627574652f636f6e7472616374732f636f6e81526020017f7472616374732f50726f6a6563742e736f6c00000000000000000000000000008152506060019250505060405180910390a1600260009054906101000a900473ffffffffffffffffffffffffffffffffffffffff1673ffffffffffffffffffffffffffffffffffffffff163373ffffffffffffffffffffffffffffffffffffffff1614151561448c57600080fd5b7fc87527bec65de4402250ac9da174a21e20ab4caf5f8e8811bd1c43d217af323e60016040518080602001838152602001828103825260528152602001807f2f55736572732f73686f6b6973686f6b692f646576656c6f706d656e742f636f81526020017f6e73656e7379732f646973747269627574652f636f6e7472616374732f636f6e81526020017f7472616374732f50726f6a6563742e736f6c00000000000000000000000000008152506060019250505060405180910390a17f6ca67a40d32d177c7997facc1824fca23699aa90c8a5e5622bc262c8e834a661604e6040518080602001838152602001828103825260528152602001807f2f55736572732f73686f6b6973686f6b692f646576656c6f706d656e742f636f81526020017f6e73656e7379732f646973747269627574652f636f6e7472616374732f636f6e81526020017f7472616374732f50726f6a6563742e736f6c00000000000000000000000000008152506060019250505060405180910390a17f70818a55d36b2eee91c357097bb108cbebe9221344fa3d9a1ecd04b62164841c600d6040518080602001838152602001828103825260528152602001807f2f55736572732f73686f6b6973686f6b692f646576656c6f706d656e742f636f81526020017f6e73656e7379732f646973747269627574652f636f6e7472616374732f636f6e81526020017f7472616374732f50726f6a6563742e736f6c00000000000000000000000000008152506060019250505060405180910390a17f6ca67a40d32d177c7997facc1824fca23699aa90c8a5e5622bc262c8e834a66160d16040518080602001838152602001828103825260528152602001807f2f55736572732f73686f6b6973686f6b692f646576656c6f706d656e742f636f81526020017f6e73656e7379732f646973747269627574652f636f6e7472616374732f636f6e81526020017f7472616374732f50726f6a6563742e736f6c00000000000000000000000000008152506060019250505060405180910390a17f61fc2769b9825a2d640440cf05bcb75301fb5f5274ee8f22ee1df4d7776f6f1460176040518080602001838152602001828103825260528152602001807f2f55736572732f73686f6b6973686f6b692f646576656c6f706d656e742f636f81526020017f6e73656e7379732f646973747269627574652f636f6e7472616374732f636f6e81526020017f7472616374732f50726f6a6563742e736f6c00000000000000000000000000008152506060019250505060405180910390a160006014819055507f6ca67a40d32d177c7997facc1824fca23699aa90c8a5e5622bc262c8e834a66160d26040518080602001838152602001828103825260528152602001807f2f55736572732f73686f6b6973686f6b692f646576656c6f706d656e742f636f81526020017f6e73656e7379732f646973747269627574652f636f6e7472616374732f636f6e81526020017f7472616374732f50726f6a6563742e736f6c00000000000000000000000000008152506060019250505060405180910390a17f61fc2769b9825a2d640440cf05bcb75301fb5f5274ee8f22ee1df4d7776f6f1460186040518080602001838152602001828103825260528152602001807f2f55736572732f73686f6b6973686f6b692f646576656c6f706d656e742f636f81526020017f6e73656e7379732f646973747269627574652f636f6e7472616374732f636f6e81526020017f7472616374732f50726f6a6563742e736f6c00000000000000000000000000008152506060019250505060405180910390a16000601581905550565b600a5481565b60166020528060005260406000206000915090505481565b60176020528060005260406000206000915090505481565b60065481565b60045481565b7f70818a55d36b2eee91c357097bb108cbebe9221344fa3d9a1ecd04b62164841c60036040518080602001838152602001828103825260528152602001807f2f55736572732f73686f6b6973686f6b692f646576656c6f706d656e742f636f81526020017f6e73656e7379732f646973747269627574652f636f6e7472616374732f636f6e81526020017f7472616374732f50726f6a6563742e736f6c00000000000000000000000000008152506060019250505060405180910390a17f6ca67a40d32d177c7997facc1824fca23699aa90c8a5e5622bc262c8e834a66160576040518080602001838152602001828103825260528152602001807f2f55736572732f73686f6b6973686f6b692f646576656c6f706d656e742f636f81526020017f6e73656e7379732f646973747269627574652f636f6e7472616374732f636f6e81526020017f7472616374732f50726f6a6563742e736f6c00000000000000000000000000008152506060019250505060405180910390a17ff08ade2f0c0da67baa7ba1d57e38dbeef0e2081dd536e8a78fb8250e1a496e1760036040518080602001838152602001828103825260528152602001807f2f55736572732f73686f6b6973686f6b692f646576656c6f706d656e742f636f81526020017f6e73656e7379732f646973747269627574652f636f6e7472616374732f636f6e81526020017f7472616374732f50726f6a6563742e736f6c00000000000000000000000000008152506060019250505060405180910390a17f61fc2769b9825a2d640440cf05bcb75301fb5f5274ee8f22ee1df4d7776f6f1460036040518080602001838152602001828103825260528152602001807f2f55736572732f73686f6b6973686f6b692f646576656c6f706d656e742f636f81526020017f6e73656e7379732f646973747269627574652f636f6e7472616374732f636f6e81526020017f7472616374732f50726f6a6563742e736f6c00000000000000000000000000008152506060019250505060405180910390a1600160009054906101000a900473ffffffffffffffffffffffffffffffffffffffff1673ffffffffffffffffffffffffffffffffffffffff163373ffffffffffffffffffffffffffffffffffffffff16141515614d5b57600080fd5b7fc87527bec65de4402250ac9da174a21e20ab4caf5f8e8811bd1c43d217af323e60036040518080602001838152602001828103825260528152602001807f2f55736572732f73686f6b6973686f6b692f646576656c6f706d656e742f636f81526020017f6e73656e7379732f646973747269627574652f636f6e7472616374732f636f6e81526020017f7472616374732f50726f6a6563742e736f6c00000000000000000000000000008152506060019250505060405180910390a17f6ca67a40d32d177c7997facc1824fca23699aa90c8a5e5622bc262c8e834a66160586040518080602001838152602001828103825260528152602001807f2f55736572732f73686f6b6973686f6b692f646576656c6f706d656e742f636f81526020017f6e73656e7379732f646973747269627574652f636f6e7472616374732f636f6e81526020017f7472616374732f50726f6a6563742e736f6c00000000000000000000000000008152506060019250505060405180910390a17f70818a55d36b2eee91c357097bb108cbebe9221344fa3d9a1ecd04b62164841c600c6040518080602001838152602001828103825260528152602001807f2f55736572732f73686f6b6973686f6b692f646576656c6f706d656e742f636f81526020017f6e73656e7379732f646973747269627574652f636f6e7472616374732f636f6e81526020017f7472616374732f50726f6a6563742e736f6c00000000000000000000000000008152506060019250505060405180910390a17f6ca67a40d32d177c7997facc1824fca23699aa90c8a5e5622bc262c8e834a66160c96040518080602001838152602001828103825260528152602001807f2f55736572732f73686f6b6973686f6b692f646576656c6f706d656e742f636f81526020017f6e73656e7379732f646973747269627574652f636f6e7472616374732f636f6e81526020017f7472616374732f50726f6a6563742e736f6c00000000000000000000000000008152506060019250505060405180910390a17f61fc2769b9825a2d640440cf05bcb75301fb5f5274ee8f22ee1df4d7776f6f1460166040518080602001838152602001828103825260528152602001807f2f55736572732f73686f6b6973686f6b692f646576656c6f706d656e742f636f81526020017f6e73656e7379732f646973747269627574652f636f6e7472616374732f636f6e81526020017f7472616374732f50726f6a6563742e736f6c00000000000000000000000000008152506060019250505060405180910390a16000601760008373ffffffffffffffffffffffffffffffffffffffff1673ffffffffffffffffffffffffffffffffffffffff1681526020019081526020016000208190555050565b7f70818a55d36b2eee91c357097bb108cbebe9221344fa3d9a1ecd04b62164841c60016040518080602001838152602001828103825260528152602001807f2f55736572732f73686f6b6973686f6b692f646576656c6f706d656e742f636f81526020017f6e73656e7379732f646973747269627574652f636f6e7472616374732f636f6e81526020017f7472616374732f50726f6a6563742e736f6c00000000000000000000000000008152506060019250505060405180910390a17f6ca67a40d32d177c7997facc1824fca23699aa90c8a5e5622bc262c8e834a661604d6040518080602001838152602001828103825260528152602001807f2f55736572732f73686f6b6973686f6b692f646576656c6f706d656e742f636f81526020017f6e73656e7379732f646973747269627574652f636f6e7472616374732f636f6e81526020017f7472616374732f50726f6a6563742e736f6c00000000000000000000000000008152506060019250505060405180910390a17ff08ade2f0c0da67baa7ba1d57e38dbeef0e2081dd536e8a78fb8250e1a496e1760016040518080602001838152602001828103825260528152602001807f2f55736572732f73686f6b6973686f6b692f646576656c6f706d656e742f636f81526020017f6e73656e7379732f646973747269627574652f636f6e7472616374732f636f6e81526020017f7472616374732f50726f6a6563742e736f6c00000000000000000000000000008152506060019250505060405180910390a17f61fc2769b9825a2d640440cf05bcb75301fb5f5274ee8f22ee1df4d7776f6f1460016040518080602001838152602001828103825260528152602001807f2f55736572732f73686f6b6973686f6b692f646576656c6f706d656e742f636f81526020017f6e73656e7379732f646973747269627574652f636f6e7472616374732f636f6e81526020017f7472616374732f50726f6a6563742e736f6c00000000000000000000000000008152506060019250505060405180910390a1600260009054906101000a900473ffffffffffffffffffffffffffffffffffffffff1673ffffffffffffffffffffffffffffffffffffffff163373ffffffffffffffffffffffffffffffffffffffff161415156154a457600080fd5b7fc87527bec65de4402250ac9da174a21e20ab4caf5f8e8811bd1c43d217af323e60016040518080602001838152602001828103825260528152602001807f2f55736572732f73686f6b6973686f6b692f646576656c6f706d656e742f636f81526020017f6e73656e7379732f646973747269627574652f636f6e7472616374732f636f6e81526020017f7472616374732f50726f6a6563742e736f6c00000000000000000000000000008152506060019250505060405180910390a17f6ca67a40d32d177c7997facc1824fca23699aa90c8a5e5622bc262c8e834a661604e6040518080602001838152602001828103825260528152602001807f2f55736572732f73686f6b6973686f6b692f646576656c6f706d656e742f636f81526020017f6e73656e7379732f646973747269627574652f636f6e7472616374732f636f6e81526020017f7472616374732f50726f6a6563742e736f6c00000000000000000000000000008152506060019250505060405180910390a17f70818a55d36b2eee91c357097bb108cbebe9221344fa3d9a1ecd04b62164841c60166040518080602001838152602001828103825260528152602001807f2f55736572732f73686f6b6973686f6b692f646576656c6f706d656e742f636f81526020017f6e73656e7379732f646973747269627574652f636f6e7472616374732f636f6e81526020017f7472616374732f50726f6a6563742e736f6c00000000000000000000000000008152506060019250505060405180910390a17f6ca67a40d32d177c7997facc1824fca23699aa90c8a5e5622bc262c8e834a6616101526040518080602001838152602001828103825260528152602001807f2f55736572732f73686f6b6973686f6b692f646576656c6f706d656e742f636f81526020017f6e73656e7379732f646973747269627574652f636f6e7472616374732f636f6e81526020017f7472616374732f50726f6a6563742e736f6c00000000000000000000000000008152506060019250505060405180910390a18173ffffffffffffffffffffffffffffffffffffffff166108fc829081150290604051600060405180830381858888f1935050505015156157d957600080fd5b5050565b7f70818a55d36b2eee91c357097bb108cbebe9221344fa3d9a1ecd04b62164841c60036040518080602001838152602001828103825260528152602001807f2f55736572732f73686f6b6973686f6b692f646576656c6f706d656e742f636f81526020017f6e73656e7379732f646973747269627574652f636f6e7472616374732f636f6e81526020017f7472616374732f50726f6a6563742e736f6c00000000000000000000000000008152506060019250505060405180910390a17f6ca67a40d32d177c7997facc1824fca23699aa90c8a5e5622bc262c8e834a66160576040518080602001838152602001828103825260528152602001807f2f55736572732f73686f6b6973686f6b692f646576656c6f706d656e742f636f81526020017f6e73656e7379732f646973747269627574652f636f6e7472616374732f636f6e81526020017f7472616374732f50726f6a6563742e736f6c00000000000000000000000000008152506060019250505060405180910390a17ff08ade2f0c0da67baa7ba1d57e38dbeef0e2081dd536e8a78fb8250e1a496e1760036040518080602001838152602001828103825260528152602001807f2f55736572732f73686f6b6973686f6b692f646576656c6f706d656e742f636f81526020017f6e73656e7379732f646973747269627574652f636f6e7472616374732f636f6e81526020017f7472616374732f50726f6a6563742e736f6c00000000000000000000000000008152506060019250505060405180910390a17f61fc2769b9825a2d640440cf05bcb75301fb5f5274ee8f22ee1df4d7776f6f1460036040518080602001838152602001828103825260528152602001807f2f55736572732f73686f6b6973686f6b692f646576656c6f706d656e742f636f81526020017f6e73656e7379732f646973747269627574652f636f6e7472616374732f636f6e81526020017f7472616374732f50726f6a6563742e736f6c00000000000000000000000000008152506060019250505060405180910390a1600160009054906101000a900473ffffffffffffffffffffffffffffffffffffffff1673ffffffffffffffffffffffffffffffffffffffff163373ffffffffffffffffffffffffffffffffffffffff16141515615b2d57600080fd5b7fc87527bec65de4402250ac9da174a21e20ab4caf5f8e8811bd1c43d217af323e60036040518080602001838152602001828103825260528152602001807f2f55736572732f73686f6b6973686f6b692f646576656c6f706d656e742f636f81526020017f6e73656e7379732f646973747269627574652f636f6e7472616374732f636f6e81526020017f7472616374732f50726f6a6563742e736f6c00000000000000000000000000008152506060019250505060405180910390a17f6ca67a40d32d177c7997facc1824fca23699aa90c8a5e5622bc262c8e834a66160586040518080602001838152602001828103825260528152602001807f2f55736572732f73686f6b6973686f6b692f646576656c6f706d656e742f636f81526020017f6e73656e7379732f646973747269627574652f636f6e7472616374732f636f6e81526020017f7472616374732f50726f6a6563742e736f6c00000000000000000000000000008152506060019250505060405180910390a17f70818a55d36b2eee91c357097bb108cbebe9221344fa3d9a1ecd04b62164841c60136040518080602001838152602001828103825260528152602001807f2f55736572732f73686f6b6973686f6b692f646576656c6f706d656e742f636f81526020017f6e73656e7379732f646973747269627574652f636f6e7472616374732f636f6e81526020017f7472616374732f50726f6a6563742e736f6c00000000000000000000000000008152506060019250505060405180910390a17f6ca67a40d32d177c7997facc1824fca23699aa90c8a5e5622bc262c8e834a6616101236040518080602001838152602001828103825260528152602001807f2f55736572732f73686f6b6973686f6b692f646576656c6f706d656e742f636f81526020017f6e73656e7379732f646973747269627574652f636f6e7472616374732f636f6e81526020017f7472616374732f50726f6a6563742e736f6c00000000000000000000000000008152506060019250505060405180910390a17ff08ade2f0c0da67baa7ba1d57e38dbeef0e2081dd536e8a78fb8250e1a496e1760086040518080602001838152602001828103825260528152602001807f2f55736572732f73686f6b6973686f6b692f646576656c6f706d656e742f636f81526020017f6e73656e7379732f646973747269627574652f636f6e7472616374732f636f6e81526020017f7472616374732f50726f6a6563742e736f6c00000000000000000000000000008152506060019250505060405180910390a17f61fc2769b9825a2d640440cf05bcb75301fb5f5274ee8f22ee1df4d7776f6f1460286040518080602001838152602001828103825260528152602001807f2f55736572732f73686f6b6973686f6b692f646576656c6f706d656e742f636f81526020017f6e73656e7379732f646973747269627574652f636f6e7472616374732f636f6e81526020017f7472616374732f50726f6a6563742e736f6c00000000000000000000000000008152506060019250505060405180910390a16001600354141515615fad57600080fd5b7fc87527bec65de4402250ac9da174a21e20ab4caf5f8e8811bd1c43d217af323e60086040518080602001838152602001828103825260528152602001807f2f55736572732f73686f6b6973686f6b692f646576656c6f706d656e742f636f81526020017f6e73656e7379732f646973747269627574652f636f6e7472616374732f636f6e81526020017f7472616374732f50726f6a6563742e736f6c00000000000000000000000000008152506060019250505060405180910390a17f6ca67a40d32d177c7997facc1824fca23699aa90c8a5e5622bc262c8e834a6616101246040518080602001838152602001828103825260528152602001807f2f55736572732f73686f6b6973686f6b692f646576656c6f706d656e742f636f81526020017f6e73656e7379732f646973747269627574652f636f6e7472616374732f636f6e81526020017f7472616374732f50726f6a6563742e736f6c00000000000000000000000000008152506060019250505060405180910390a17ff08ade2f0c0da67baa7ba1d57e38dbeef0e2081dd536e8a78fb8250e1a496e1760096040518080602001838152602001828103825260528152602001807f2f55736572732f73686f6b6973686f6b692f646576656c6f706d656e742f636f81526020017f6e73656e7379732f646973747269627574652f636f6e7472616374732f636f6e81526020017f7472616374732f50726f6a6563742e736f6c00000000000000000000000000008152506060019250505060405180910390a17f61fc2769b9825a2d640440cf05bcb75301fb5f5274ee8f22ee1df4d7776f6f1460296040518080602001838152602001828103825260528152602001807f2f55736572732f73686f6b6973686f6b692f646576656c6f706d656e742f636f81526020017f6e73656e7379732f646973747269627574652f636f6e7472616374732f636f6e81526020017f7472616374732f50726f6a6563742e736f6c00000000000000000000000000008152506060019250505060405180910390a1601760008373ffffffffffffffffffffffffffffffffffffffff1673ffffffffffffffffffffffffffffffffffffffff1681526020019081526020016000205481601760008573ffffffffffffffffffffffffffffffffffffffff1673ffffffffffffffffffffffffffffffffffffffff168152602001908152602001600020540111151561633057600080fd5b7fc87527bec65de4402250ac9da174a21e20ab4caf5f8e8811bd1c43d217af323e60096040518080602001838152602001828103825260528152602001807f2f55736572732f73686f6b6973686f6b692f646576656c6f706d656e742f636f81526020017f6e73656e7379732f646973747269627574652f636f6e7472616374732f636f6e81526020017f7472616374732f50726f6a6563742e736f6c00000000000000000000000000008152506060019250505060405180910390a17f6ca67a40d32d177c7997facc1824fca23699aa90c8a5e5622bc262c8e834a6616101266040518080602001838152602001828103825260528152602001807f2f55736572732f73686f6b6973686f6b692f646576656c6f706d656e742f636f81526020017f6e73656e7379732f646973747269627574652f636f6e7472616374732f636f6e81526020017f7472616374732f50726f6a6563742e736f6c00000000000000000000000000008152506060019250505060405180910390a17f61fc2769b9825a2d640440cf05bcb75301fb5f5274ee8f22ee1df4d7776f6f14602a6040518080602001838152602001828103825260528152602001807f2f55736572732f73686f6b6973686f6b692f646576656c6f706d656e742f636f81526020017f6e73656e7379732f646973747269627574652f636f6e7472616374732f636f6e81526020017f7472616374732f50726f6a6563742e736f6c00000000000000000000000000008152506060019250505060405180910390a180601760008473ffffffffffffffffffffffffffffffffffffffff1673ffffffffffffffffffffffffffffffffffffffff168152602001908152602001600020600082825401925050819055507f6ca67a40d32d177c7997facc1824fca23699aa90c8a5e5622bc262c8e834a6616101276040518080602001838152602001828103825260528152602001807f2f55736572732f73686f6b6973686f6b692f646576656c6f706d656e742f636f81526020017f6e73656e7379732f646973747269627574652f636f6e7472616374732f636f6e81526020017f7472616374732f50726f6a6563742e736f6c00000000000000000000000000008152506060019250505060405180910390a17f61fc2769b9825a2d640440cf05bcb75301fb5f5274ee8f22ee1df4d7776f6f14602b6040518080602001838152602001828103825260528152602001807f2f55736572732f73686f6b6973686f6b692f646576656c6f706d656e742f636f81526020017f6e73656e7379732f646973747269627574652f636f6e7472616374732f636f6e81526020017f7472616374732f50726f6a6563742e736f6c00000000000000000000000000008152506060019250505060405180910390a1806015600082825401925050819055505050565b60075481565b7f70818a55d36b2eee91c357097bb108cbebe9221344fa3d9a1ecd04b62164841c60016040518080602001838152602001828103825260528152602001807f2f55736572732f73686f6b6973686f6b692f646576656c6f706d656e742f636f81526020017f6e73656e7379732f646973747269627574652f636f6e7472616374732f636f6e81526020017f7472616374732f50726f6a6563742e736f6c00000000000000000000000000008152506060019250505060405180910390a17f6ca67a40d32d177c7997facc1824fca23699aa90c8a5e5622bc262c8e834a661604d6040518080602001838152602001828103825260528152602001807f2f55736572732f73686f6b6973686f6b692f646576656c6f706d656e742f636f81526020017f6e73656e7379732f646973747269627574652f636f6e7472616374732f636f6e81526020017f7472616374732f50726f6a6563742e736f6c00000000000000000000000000008152506060019250505060405180910390a17ff08ade2f0c0da67baa7ba1d57e38dbeef0e2081dd536e8a78fb8250e1a496e1760016040518080602001838152602001828103825260528152602001807f2f55736572732f73686f6b6973686f6b692f646576656c6f706d656e742f636f81526020017f6e73656e7379732f646973747269627574652f636f6e7472616374732f636f6e81526020017f7472616374732f50726f6a6563742e736f6c00000000000000000000000000008152506060019250505060405180910390a17f61fc2769b9825a2d640440cf05bcb75301fb5f5274ee8f22ee1df4d7776f6f1460016040518080602001838152602001828103825260528152602001807f2f55736572732f73686f6b6973686f6b692f646576656c6f706d656e742f636f81526020017f6e73656e7379732f646973747269627574652f636f6e7472616374732f636f6e81526020017f7472616374732f50726f6a6563742e736f6c00000000000000000000000000008152506060019250505060405180910390a1600260009054906101000a900473ffffffffffffffffffffffffffffffffffffffff1673ffffffffffffffffffffffffffffffffffffffff163373ffffffffffffffffffffffffffffffffffffffff16141515616a9a57600080fd5b7fc87527bec65de4402250ac9da174a21e20ab4caf5f8e8811bd1c43d217af323e60016040518080602001838152602001828103825260528152602001807f2f55736572732f73686f6b6973686f6b692f646576656c6f706d656e742f636f81526020017f6e73656e7379732f646973747269627574652f636f6e7472616374732f636f6e81526020017f7472616374732f50726f6a6563742e736f6c00000000000000000000000000008152506060019250505060405180910390a17f6ca67a40d32d177c7997facc1824fca23699aa90c8a5e5622bc262c8e834a661604e6040518080602001838152602001828103825260528152602001807f2f55736572732f73686f6b6973686f6b692f646576656c6f706d656e742f636f81526020017f6e73656e7379732f646973747269627574652f636f6e7472616374732f636f6e81526020017f7472616374732f50726f6a6563742e736f6c00000000000000000000000000008152506060019250505060405180910390a17f70818a55d36b2eee91c357097bb108cbebe9221344fa3d9a1ecd04b62164841c600e6040518080602001838152602001828103825260528152602001807f2f55736572732f73686f6b6973686f6b692f646576656c6f706d656e742f636f81526020017f6e73656e7379732f646973747269627574652f636f6e7472616374732f636f6e81526020017f7472616374732f50726f6a6563742e736f6c00000000000000000000000000008152506060019250505060405180910390a17f6ca67a40d32d177c7997facc1824fca23699aa90c8a5e5622bc262c8e834a66160db6040518080602001838152602001828103825260528152602001807f2f55736572732f73686f6b6973686f6b692f646576656c6f706d656e742f636f81526020017f6e73656e7379732f646973747269627574652f636f6e7472616374732f636f6e81526020017f7472616374732f50726f6a6563742e736f6c00000000000000000000000000008152506060019250505060405180910390a17f61fc2769b9825a2d640440cf05bcb75301fb5f5274ee8f22ee1df4d7776f6f1460196040518080602001838152602001828103825260528152602001807f2f55736572732f73686f6b6973686f6b692f646576656c6f706d656e742f636f81526020017f6e73656e7379732f646973747269627574652f636f6e7472616374732f636f6e81526020017f7472616374732f50726f6a6563742e736f6c00000000000000000000000000008152506060019250505060405180910390a180601881616e59919061ac08565b5050565b601881815481101515616e6c57fe5b90600052602060002090016000915054906101000a900473ffffffffffffffffffffffffffffffffffffffff1681565b60145481565b60195481565b600b60009054906101000a900473ffffffffffffffffffffffffffffffffffffffff1681565b7f70818a55d36b2eee91c357097bb108cbebe9221344fa3d9a1ecd04b62164841c60036040518080602001838152602001828103825260528152602001807f2f55736572732f73686f6b6973686f6b692f646576656c6f706d656e742f636f81526020017f6e73656e7379732f646973747269627574652f636f6e7472616374732f636f6e81526020017f7472616374732f50726f6a6563742e736f6c00000000000000000000000000008152506060019250505060405180910390a17f6ca67a40d32d177c7997facc1824fca23699aa90c8a5e5622bc262c8e834a66160576040518080602001838152602001828103825260528152602001807f2f55736572732f73686f6b6973686f6b692f646576656c6f706d656e742f636f81526020017f6e73656e7379732f646973747269627574652f636f6e7472616374732f636f6e81526020017f7472616374732f50726f6a6563742e736f6c00000000000000000000000000008152506060019250505060405180910390a17ff08ade2f0c0da67baa7ba1d57e38dbeef0e2081dd536e8a78fb8250e1a496e1760036040518080602001838152602001828103825260528152602001807f2f55736572732f73686f6b6973686f6b692f646576656c6f706d656e742f636f81526020017f6e73656e7379732f646973747269627574652f636f6e7472616374732f636f6e81526020017f7472616374732f50726f6a6563742e736f6c00000000000000000000000000008152506060019250505060405180910390a17f61fc2769b9825a2d640440cf05bcb75301fb5f5274ee8f22ee1df4d7776f6f1460036040518080602001838152602001828103825260528152602001807f2f55736572732f73686f6b6973686f6b692f646576656c6f706d656e742f636f81526020017f6e73656e7379732f646973747269627574652f636f6e7472616374732f636f6e81526020017f7472616374732f50726f6a6563742e736f6c00000000000000000000000000008152506060019250505060405180910390a1600160009054906101000a900473ffffffffffffffffffffffffffffffffffffffff1673ffffffffffffffffffffffffffffffffffffffff163373ffffffffffffffffffffffffffffffffffffffff1614151561721e57600080fd5b7fc87527bec65de4402250ac9da174a21e20ab4caf5f8e8811bd1c43d217af323e60036040518080602001838152602001828103825260528152602001807f2f55736572732f73686f6b6973686f6b692f646576656c6f706d656e742f636f81526020017f6e73656e7379732f646973747269627574652f636f6e7472616374732f636f6e81526020017f7472616374732f50726f6a6563742e736f6c00000000000000000000000000008152506060019250505060405180910390a17f6ca67a40d32d177c7997facc1824fca23699aa90c8a5e5622bc262c8e834a66160586040518080602001838152602001828103825260528152602001807f2f55736572732f73686f6b6973686f6b692f646576656c6f706d656e742f636f81526020017f6e73656e7379732f646973747269627574652f636f6e7472616374732f636f6e81526020017f7472616374732f50726f6a6563742e736f6c00000000000000000000000000008152506060019250505060405180910390a17f70818a55d36b2eee91c357097bb108cbebe9221344fa3d9a1ecd04b62164841c60156040518080602001838152602001828103825260528152602001807f2f55736572732f73686f6b6973686f6b692f646576656c6f706d656e742f636f81526020017f6e73656e7379732f646973747269627574652f636f6e7472616374732f636f6e81526020017f7472616374732f50726f6a6563742e736f6c00000000000000000000000000008152506060019250505060405180910390a17f6ca67a40d32d177c7997facc1824fca23699aa90c8a5e5622bc262c8e834a6616101456040518080602001838152602001828103825260528152602001807f2f55736572732f73686f6b6973686f6b692f646576656c6f706d656e742f636f81526020017f6e73656e7379732f646973747269627574652f636f6e7472616374732f636f6e81526020017f7472616374732f50726f6a6563742e736f6c00000000000000000000000000008152506060019250505060405180910390a17ff08ade2f0c0da67baa7ba1d57e38dbeef0e2081dd536e8a78fb8250e1a496e17600c6040518080602001838152602001828103825260528152602001807f2f55736572732f73686f6b6973686f6b692f646576656c6f706d656e742f636f81526020017f6e73656e7379732f646973747269627574652f636f6e7472616374732f636f6e81526020017f7472616374732f50726f6a6563742e736f6c00000000000000000000000000008152506060019250505060405180910390a17f61fc2769b9825a2d640440cf05bcb75301fb5f5274ee8f22ee1df4d7776f6f1460306040518080602001838152602001828103825260528152602001807f2f55736572732f73686f6b6973686f6b692f646576656c6f706d656e742f636f81526020017f6e73656e7379732f646973747269627574652f636f6e7472616374732f636f6e81526020017f7472616374732f50726f6a6563742e736f6c00000000000000000000000000008152506060019250505060405180910390a1600f54811115151561769e57600080fd5b7fc87527bec65de4402250ac9da174a21e20ab4caf5f8e8811bd1c43d217af323e600c6040518080602001838152602001828103825260528152602001807f2f55736572732f73686f6b6973686f6b692f646576656c6f706d656e742f636f81526020017f6e73656e7379732f646973747269627574652f636f6e7472616374732f636f6e81526020017f7472616374732f50726f6a6563742e736f6c00000000000000000000000000008152506060019250505060405180910390a17f6ca67a40d32d177c7997facc1824fca23699aa90c8a5e5622bc262c8e834a6616101476040518080602001838152602001828103825260528152602001807f2f55736572732f73686f6b6973686f6b692f646576656c6f706d656e742f636f81526020017f6e73656e7379732f646973747269627574652f636f6e7472616374732f636f6e81526020017f7472616374732f50726f6a6563742e736f6c00000000000000000000000000008152506060019250505060405180910390a17f61fc2769b9825a2d640440cf05bcb75301fb5f5274ee8f22ee1df4d7776f6f1460316040518080602001838152602001828103825260528152602001807f2f55736572732f73686f6b6973686f6b692f646576656c6f706d656e742f636f81526020017f6e73656e7379732f646973747269627574652f636f6e7472616374732f636f6e81526020017f7472616374732f50726f6a6563742e736f6c00000000000000000000000000008152506060019250505060405180910390a180600f600082825403925050819055507f6ca67a40d32d177c7997facc1824fca23699aa90c8a5e5622bc262c8e834a6616101486040518080602001838152602001828103825260528152602001807f2f55736572732f73686f6b6973686f6b692f646576656c6f706d656e742f636f81526020017f6e73656e7379732f646973747269627574652f636f6e7472616374732f636f6e81526020017f7472616374732f50726f6a6563742e736f6c00000000000000000000000000008152506060019250505060405180910390a18173ffffffffffffffffffffffffffffffffffffffff166108fc829081150290604051600060405180830381858888f1935050505015156179e457600080fd5b5050565b60085481565b60155481565b60007f70818a55d36b2eee91c357097bb108cbebe9221344fa3d9a1ecd04b62164841c60046040518080602001838152602001828103825260528152602001807f2f55736572732f73686f6b6973686f6b692f646576656c6f706d656e742f636f81526020017f6e73656e7379732f646973747269627574652f636f6e7472616374732f636f6e81526020017f7472616374732f50726f6a6563742e736f6c00000000000000000000000000008152506060019250505060405180910390a17f6ca67a40d32d177c7997facc1824fca23699aa90c8a5e5622bc262c8e834a661605c6040518080602001838152602001828103825260528152602001807f2f55736572732f73686f6b6973686f6b692f646576656c6f706d656e742f636f81526020017f6e73656e7379732f646973747269627574652f636f6e7472616374732f636f6e81526020017f7472616374732f50726f6a6563742e736f6c00000000000000000000000000008152506060019250505060405180910390a17f61fc2769b9825a2d640440cf05bcb75301fb5f5274ee8f22ee1df4d7776f6f1460046040518080602001838152602001828103825260528152602001807f2f55736572732f73686f6b6973686f6b692f646576656c6f706d656e742f636f81526020017f6e73656e7379732f646973747269627574652f636f6e7472616374732f636f6e81526020017f7472616374732f50726f6a6563742e736f6c00000000000000000000000000008152506060019250505060405180910390a16000809054906101000a900473ffffffffffffffffffffffffffffffffffffffff1673ffffffffffffffffffffffffffffffffffffffff168273ffffffffffffffffffffffffffffffffffffffff1614617c88576000617c8b565b60015b9050919050565b60007f70818a55d36b2eee91c357097bb108cbebe9221344fa3d9a1ecd04b62164841c60056040518080602001838152602001828103825260528152602001807f2f55736572732f73686f6b6973686f6b692f646576656c6f706d656e742f636f81526020017f6e73656e7379732f646973747269627574652f636f6e7472616374732f636f6e81526020017f7472616374732f50726f6a6563742e736f6c00000000000000000000000000008152506060019250505060405180910390a17f6ca67a40d32d177c7997facc1824fca23699aa90c8a5e5622bc262c8e834a66160626040518080602001838152602001828103825260528152602001807f2f55736572732f73686f6b6973686f6b692f646576656c6f706d656e742f636f81526020017f6e73656e7379732f646973747269627574652f636f6e7472616374732f636f6e81526020017f7472616374732f50726f6a6563742e736f6c00000000000000000000000000008152506060019250505060405180910390a17f61fc2769b9825a2d640440cf05bcb75301fb5f5274ee8f22ee1df4d7776f6f1460056040518080602001838152602001828103825260528152602001807f2f55736572732f73686f6b6973686f6b692f646576656c6f706d656e742f636f81526020017f6e73656e7379732f646973747269627574652f636f6e7472616374732f636f6e81526020017f7472616374732f50726f6a6563742e736f6c00000000000000000000000000008152506060019250505060405180910390a1600160009054906101000a900473ffffffffffffffffffffffffffffffffffffffff1673ffffffffffffffffffffffffffffffffffffffff168273ffffffffffffffffffffffffffffffffffffffff1614617f27576000617f2a565b60015b9050919050565b60095481565b7f70818a55d36b2eee91c357097bb108cbebe9221344fa3d9a1ecd04b62164841c60016040518080602001838152602001828103825260528152602001807f2f55736572732f73686f6b6973686f6b692f646576656c6f706d656e742f636f81526020017f6e73656e7379732f646973747269627574652f636f6e7472616374732f636f6e81526020017f7472616374732f50726f6a6563742e736f6c00000000000000000000000000008152506060019250505060405180910390a17f6ca67a40d32d177c7997facc1824fca23699aa90c8a5e5622bc262c8e834a661604d6040518080602001838152602001828103825260528152602001807f2f55736572732f73686f6b6973686f6b692f646576656c6f706d656e742f636f81526020017f6e73656e7379732f646973747269627574652f636f6e7472616374732f636f6e81526020017f7472616374732f50726f6a6563742e736f6c00000000000000000000000000008152506060019250505060405180910390a17ff08ade2f0c0da67baa7ba1d57e38dbeef0e2081dd536e8a78fb8250e1a496e1760016040518080602001838152602001828103825260528152602001807f2f55736572732f73686f6b6973686f6b692f646576656c6f706d656e742f636f81526020017f6e73656e7379732f646973747269627574652f636f6e7472616374732f636f6e81526020017f7472616374732f50726f6a6563742e736f6c00000000000000000000000000008152506060019250505060405180910390a17f61fc2769b9825a2d640440cf05bcb75301fb5f5274ee8f22ee1df4d7776f6f1460016040518080602001838152602001828103825260528152602001807f2f55736572732f73686f6b6973686f6b692f646576656c6f706d656e742f636f81526020017f6e73656e7379732f646973747269627574652f636f6e7472616374732f636f6e81526020017f7472616374732f50726f6a6563742e736f6c00000000000000000000000000008152506060019250505060405180910390a1600260009054906101000a900473ffffffffffffffffffffffffffffffffffffffff1673ffffffffffffffffffffffffffffffffffffffff163373ffffffffffffffffffffffffffffffffffffffff1614151561828757600080fd5b7fc87527bec65de4402250ac9da174a21e20ab4caf5f8e8811bd1c43d217af323e60016040518080602001838152602001828103825260528152602001807f2f55736572732f73686f6b6973686f6b692f646576656c6f706d656e742f636f81526020017f6e73656e7379732f646973747269627574652f636f6e7472616374732f636f6e81526020017f7472616374732f50726f6a6563742e736f6c00000000000000000000000000008152506060019250505060405180910390a17f6ca67a40d32d177c7997facc1824fca23699aa90c8a5e5622bc262c8e834a661604e6040518080602001838152602001828103825260528152602001807f2f55736572732f73686f6b6973686f6b692f646576656c6f706d656e742f636f81526020017f6e73656e7379732f646973747269627574652f636f6e7472616374732f636f6e81526020017f7472616374732f50726f6a6563742e736f6c00000000000000000000000000008152506060019250505060405180910390a17f70818a55d36b2eee91c357097bb108cbebe9221344fa3d9a1ecd04b62164841c60096040518080602001838152602001828103825260528152602001807f2f55736572732f73686f6b6973686f6b692f646576656c6f706d656e742f636f81526020017f6e73656e7379732f646973747269627574652f636f6e7472616374732f636f6e81526020017f7472616374732f50726f6a6563742e736f6c00000000000000000000000000008152506060019250505060405180910390a17f6ca67a40d32d177c7997facc1824fca23699aa90c8a5e5622bc262c8e834a66160ae6040518080602001838152602001828103825260528152602001807f2f55736572732f73686f6b6973686f6b692f646576656c6f706d656e742f636f81526020017f6e73656e7379732f646973747269627574652f636f6e7472616374732f636f6e81526020017f7472616374732f50726f6a6563742e736f6c00000000000000000000000000008152506060019250505060405180910390a17f61fc2769b9825a2d640440cf05bcb75301fb5f5274ee8f22ee1df4d7776f6f1460126040518080602001838152602001828103825260528152602001807f2f55736572732f73686f6b6973686f6b692f646576656c6f706d656e742f636f81526020017f6e73656e7379732f646973747269627574652f636f6e7472616374732f636f6e81526020017f7472616374732f50726f6a6563742e736f6c00000000000000000000000000008152506060019250505060405180910390a1816003819055507f6ca67a40d32d177c7997facc1824fca23699aa90c8a5e5622bc262c8e834a66160af6040518080602001838152602001828103825260528152602001807f2f55736572732f73686f6b6973686f6b692f646576656c6f706d656e742f636f81526020017f6e73656e7379732f646973747269627574652f636f6e7472616374732f636f6e81526020017f7472616374732f50726f6a6563742e736f6c00000000000000000000000000008152506060019250505060405180910390a17f61fc2769b9825a2d640440cf05bcb75301fb5f5274ee8f22ee1df4d7776f6f1460136040518080602001838152602001828103825260528152602001807f2f55736572732f73686f6b6973686f6b692f646576656c6f706d656e742f636f81526020017f6e73656e7379732f646973747269627574652f636f6e7472616374732f636f6e81526020017f7472616374732f50726f6a6563742e736f6c00000000000000000000000000008152506060019250505060405180910390a1806010819055505050565b600e5481565b60007f70818a55d36b2eee91c357097bb108cbebe9221344fa3d9a1ecd04b62164841c60086040518080602001838152602001828103825260528152602001807f2f55736572732f73686f6b6973686f6b692f646576656c6f706d656e742f636f81526020017f6e73656e7379732f646973747269627574652f636f6e7472616374732f636f6e81526020017f7472616374732f50726f6a6563742e736f6c00000000000000000000000000008152506060019250505060405180910390a17f6ca67a40d32d177c7997facc1824fca23699aa90c8a5e5622bc262c8e834a66160a06040518080602001838152602001828103825260528152602001807f2f55736572732f73686f6b6973686f6b692f646576656c6f706d656e742f636f81526020017f6e73656e7379732f646973747269627574652f636f6e7472616374732f636f6e81526020017f7472616374732f50726f6a6563742e736f6c00000000000000000000000000008152506060019250505060405180910390a17f61fc2769b9825a2d640440cf05bcb75301fb5f5274ee8f22ee1df4d7776f6f1460116040518080602001838152602001828103825260528152602001807f2f55736572732f73686f6b6973686f6b692f646576656c6f706d656e742f636f81526020017f6e73656e7379732f646973747269627574652f636f6e7472616374732f636f6e81526020017f7472616374732f50726f6a6563742e736f6c00000000000000000000000000008152506060019250505060405180910390a1601880549050905090565b60035481565b60138054600181600116156101000203166002900480601f016020809104026020016040519081016040528092919081815260200182805460018160011615610100020316600290048015618aaa5780601f10618a7f57610100808354040283529160200191618aaa565b820191906000526020600020905b815481529060010190602001808311618a8d57829003601f168201915b505050505081565b7f70818a55d36b2eee91c357097bb108cbebe9221344fa3d9a1ecd04b62164841c60016040518080602001838152602001828103825260528152602001807f2f55736572732f73686f6b6973686f6b692f646576656c6f706d656e742f636f81526020017f6e73656e7379732f646973747269627574652f636f6e7472616374732f636f6e81526020017f7472616374732f50726f6a6563742e736f6c00000000000000000000000000008152506060019250505060405180910390a17f6ca67a40d32d177c7997facc1824fca23699aa90c8a5e5622bc262c8e834a661604d6040518080602001838152602001828103825260528152602001807f2f55736572732f73686f6b6973686f6b692f646576656c6f706d656e742f636f81526020017f6e73656e7379732f646973747269627574652f636f6e7472616374732f636f6e81526020017f7472616374732f50726f6a6563742e736f6c00000000000000000000000000008152506060019250505060405180910390a17ff08ade2f0c0da67baa7ba1d57e38dbeef0e2081dd536e8a78fb8250e1a496e1760016040518080602001838152602001828103825260528152602001807f2f55736572732f73686f6b6973686f6b692f646576656c6f706d656e742f636f81526020017f6e73656e7379732f646973747269627574652f636f6e7472616374732f636f6e81526020017f7472616374732f50726f6a6563742e736f6c00000000000000000000000000008152506060019250505060405180910390a17f61fc2769b9825a2d640440cf05bcb75301fb5f5274ee8f22ee1df4d7776f6f1460016040518080602001838152602001828103825260528152602001807f2f55736572732f73686f6b6973686f6b692f646576656c6f706d656e742f636f81526020017f6e73656e7379732f646973747269627574652f636f6e7472616374732f636f6e81526020017f7472616374732f50726f6a6563742e736f6c00000000000000000000000000008152506060019250505060405180910390a1600260009054906101000a900473ffffffffffffffffffffffffffffffffffffffff1673ffffffffffffffffffffffffffffffffffffffff163373ffffffffffffffffffffffffffffffffffffffff16141515618e0257600080fd5b7fc87527bec65de4402250ac9da174a21e20ab4caf5f8e8811bd1c43d217af323e60016040518080602001838152602001828103825260528152602001807f2f55736572732f73686f6b6973686f6b692f646576656c6f706d656e742f636f81526020017f6e73656e7379732f646973747269627574652f636f6e7472616374732f636f6e81526020017f7472616374732f50726f6a6563742e736f6c00000000000000000000000000008152506060019250505060405180910390a17f6ca67a40d32d177c7997facc1824fca23699aa90c8a5e5622bc262c8e834a661604e6040518080602001838152602001828103825260528152602001807f2f55736572732f73686f6b6973686f6b692f646576656c6f706d656e742f636f81526020017f6e73656e7379732f646973747269627574652f636f6e7472616374732f636f6e81526020017f7472616374732f50726f6a6563742e736f6c00000000000000000000000000008152506060019250505060405180910390a17f70818a55d36b2eee91c357097bb108cbebe9221344fa3d9a1ecd04b62164841c600a6040518080602001838152602001828103825260528152602001807f2f55736572732f73686f6b6973686f6b692f646576656c6f706d656e742f636f81526020017f6e73656e7379732f646973747269627574652f636f6e7472616374732f636f6e81526020017f7472616374732f50726f6a6563742e736f6c00000000000000000000000000008152506060019250505060405180910390a17f6ca67a40d32d177c7997facc1824fca23699aa90c8a5e5622bc262c8e834a66160b76040518080602001838152602001828103825260528152602001807f2f55736572732f73686f6b6973686f6b692f646576656c6f706d656e742f636f81526020017f6e73656e7379732f646973747269627574652f636f6e7472616374732f636f6e81526020017f7472616374732f50726f6a6563742e736f6c00000000000000000000000000008152506060019250505060405180910390a17f61fc2769b9825a2d640440cf05bcb75301fb5f5274ee8f22ee1df4d7776f6f1460146040518080602001838152602001828103825260528152602001807f2f55736572732f73686f6b6973686f6b692f646576656c6f706d656e742f636f81526020017f6e73656e7379732f646973747269627574652f636f6e7472616374732f636f6e81526020017f7472616374732f50726f6a6563742e736f6c00000000000000000000000000008152506060019250505060405180910390a16000600d81905550565b6000807f70818a55d36b2eee91c357097bb108cbebe9221344fa3d9a1ecd04b62164841c60026040518080602001838152602001828103825260528152602001807f2f55736572732f73686f6b6973686f6b692f646576656c6f706d656e742f636f81526020017f6e73656e7379732f646973747269627574652f636f6e7472616374732f636f6e81526020017f7472616374732f50726f6a6563742e736f6c00000000000000000000000000008152506060019250505060405180910390a17f6ca67a40d32d177c7997facc1824fca23699aa90c8a5e5622bc262c8e834a66160526040518080602001838152602001828103825260528152602001807f2f55736572732f73686f6b6973686f6b692f646576656c6f706d656e742f636f81526020017f6e73656e7379732f646973747269627574652f636f6e7472616374732f636f6e81526020017f7472616374732f50726f6a6563742e736f6c00000000000000000000000000008152506060019250505060405180910390a17ff08ade2f0c0da67baa7ba1d57e38dbeef0e2081dd536e8a78fb8250e1a496e1760026040518080602001838152602001828103825260528152602001807f2f55736572732f73686f6b6973686f6b692f646576656c6f706d656e742f636f81526020017f6e73656e7379732f646973747269627574652f636f6e7472616374732f636f6e81526020017f7472616374732f50726f6a6563742e736f6c00000000000000000000000000008152506060019250505060405180910390a17f61fc2769b9825a2d640440cf05bcb75301fb5f5274ee8f22ee1df4d7776f6f1460026040518080602001838152602001828103825260528152602001807f2f55736572732f73686f6b6973686f6b692f646576656c6f706d656e742f636f81526020017f6e73656e7379732f646973747269627574652f636f6e7472616374732f636f6e81526020017f7472616374732f50726f6a6563742e736f6c00000000000000000000000000008152506060019250505060405180910390a16000809054906101000a900473ffffffffffffffffffffffffffffffffffffffff1673ffffffffffffffffffffffffffffffffffffffff163373ffffffffffffffffffffffffffffffffffffffff1614151561950f57600080fd5b7fc87527bec65de4402250ac9da174a21e20ab4caf5f8e8811bd1c43d217af323e60026040518080602001838152602001828103825260528152602001807f2f55736572732f73686f6b6973686f6b692f646576656c6f706d656e742f636f81526020017f6e73656e7379732f646973747269627574652f636f6e7472616374732f636f6e81526020017f7472616374732f50726f6a6563742e736f6c00000000000000000000000000008152506060019250505060405180910390a17f6ca67a40d32d177c7997facc1824fca23699aa90c8a5e5622bc262c8e834a66160536040518080602001838152602001828103825260528152602001807f2f55736572732f73686f6b6973686f6b692f646576656c6f706d656e742f636f81526020017f6e73656e7379732f646973747269627574652f636f6e7472616374732f636f6e81526020017f7472616374732f50726f6a6563742e736f6c00000000000000000000000000008152506060019250505060405180910390a17f70818a55d36b2eee91c357097bb108cbebe9221344fa3d9a1ecd04b62164841c60126040518080602001838152602001828103825260528152602001807f2f55736572732f73686f6b6973686f6b692f646576656c6f706d656e742f636f81526020017f6e73656e7379732f646973747269627574652f636f6e7472616374732f636f6e81526020017f7472616374732f50726f6a6563742e736f6c00000000000000000000000000008152506060019250505060405180910390a17f6ca67a40d32d177c7997facc1824fca23699aa90c8a5e5622bc262c8e834a66161010f6040518080602001838152602001828103825260528152602001807f2f55736572732f73686f6b6973686f6b692f646576656c6f706d656e742f636f81526020017f6e73656e7379732f646973747269627574652f636f6e7472616374732f636f6e81526020017f7472616374732f50726f6a6563742e736f6c00000000000000000000000000008152506060019250505060405180910390a17ff08ade2f0c0da67baa7ba1d57e38dbeef0e2081dd536e8a78fb8250e1a496e1760066040518080602001838152602001828103825260528152602001807f2f55736572732f73686f6b6973686f6b692f646576656c6f706d656e742f636f81526020017f6e73656e7379732f646973747269627574652f636f6e7472616374732f636f6e81526020017f7472616374732f50726f6a6563742e736f6c00000000000000000000000000008152506060019250505060405180910390a17f61fc2769b9825a2d640440cf05bcb75301fb5f5274ee8f22ee1df4d7776f6f1460216040518080602001838152602001828103825260528152602001807f2f55736572732f73686f6b6973686f6b692f646576656c6f706d656e742f636f81526020017f6e73656e7379732f646973747269627574652f636f6e7472616374732f636f6e81526020017f7472616374732f50726f6a6563742e736f6c00000000000000000000000000008152506060019250505060405180910390a1600160035414151561998f57600080fd5b7fc87527bec65de4402250ac9da174a21e20ab4caf5f8e8811bd1c43d217af323e60066040518080602001838152602001828103825260528152602001807f2f55736572732f73686f6b6973686f6b692f646576656c6f706d656e742f636f81526020017f6e73656e7379732f646973747269627574652f636f6e7472616374732f636f6e81526020017f7472616374732f50726f6a6563742e736f6c00000000000000000000000000008152506060019250505060405180910390a17f6ca67a40d32d177c7997facc1824fca23699aa90c8a5e5622bc262c8e834a6616101106040518080602001838152602001828103825260528152602001807f2f55736572732f73686f6b6973686f6b692f646576656c6f706d656e742f636f81526020017f6e73656e7379732f646973747269627574652f636f6e7472616374732f636f6e81526020017f7472616374732f50726f6a6563742e736f6c00000000000000000000000000008152506060019250505060405180910390a17ff08ade2f0c0da67baa7ba1d57e38dbeef0e2081dd536e8a78fb8250e1a496e1760076040518080602001838152602001828103825260528152602001807f2f55736572732f73686f6b6973686f6b692f646576656c6f706d656e742f636f81526020017f6e73656e7379732f646973747269627574652f636f6e7472616374732f636f6e81526020017f7472616374732f50726f6a6563742e736f6c00000000000000000000000000008152506060019250505060405180910390a17f61fc2769b9825a2d640440cf05bcb75301fb5f5274ee8f22ee1df4d7776f6f1460226040518080602001838152602001828103825260528152602001807f2f55736572732f73686f6b6973686f6b692f646576656c6f706d656e742f636f81526020017f6e73656e7379732f646973747269627574652f636f6e7472616374732f636f6e81526020017f7472616374732f50726f6a6563742e736f6c00000000000000000000000000008152506060019250505060405180910390a1601660008573ffffffffffffffffffffffffffffffffffffffff1673ffffffffffffffffffffffffffffffffffffffff16815260200190815260200160002054619d1684601660008873ffffffffffffffffffffffffffffffffffffffff1673ffffffffffffffffffffffffffffffffffffffff1681526020019081526020016000205461a6c490919063ffffffff16565b108015619d62575082601660008673ffffffffffffffffffffffffffffffffffffffff1673ffffffffffffffffffffffffffffffffffffffff1681526020019081526020016000205410155b1515619d6d57600080fd5b7fc87527bec65de4402250ac9da174a21e20ab4caf5f8e8811bd1c43d217af323e60076040518080602001838152602001828103825260528152602001807f2f55736572732f73686f6b6973686f6b692f646576656c6f706d656e742f636f81526020017f6e73656e7379732f646973747269627574652f636f6e7472616374732f636f6e81526020017f7472616374732f50726f6a6563742e736f6c00000000000000000000000000008152506060019250505060405180910390a17f6ca67a40d32d177c7997facc1824fca23699aa90c8a5e5622bc262c8e834a6616101156040518080602001838152602001828103825260528152602001807f2f55736572732f73686f6b6973686f6b692f646576656c6f706d656e742f636f81526020017f6e73656e7379732f646973747269627574652f636f6e7472616374732f636f6e81526020017f7472616374732f50726f6a6563742e736f6c00000000000000000000000000008152506060019250505060405180910390a17f61fc2769b9825a2d640440cf05bcb75301fb5f5274ee8f22ee1df4d7776f6f1460236040518080602001838152602001828103825260528152602001807f2f55736572732f73686f6b6973686f6b692f646576656c6f706d656e742f636f81526020017f6e73656e7379732f646973747269627574652f636f6e7472616374732f636f6e81526020017f7472616374732f50726f6a6563742e736f6c00000000000000000000000000008152506060019250505060405180910390a16402540be400600f5473__Division______________________________622c1a9e86601454600a6000604051602001526040518463ffffffff167c010000000000000000000000000000000000000000000000000000000002815260040180848152602001838152602001828152602001935050505060206040518083038186803b151561a03357600080fd5b6102c65a03f4151561a04457600080fd5b505050604051805190500281151561a05857fe5b0490507f6ca67a40d32d177c7997facc1824fca23699aa90c8a5e5622bc262c8e834a6616101166040518080602001838152602001828103825260528152602001807f2f55736572732f73686f6b6973686f6b692f646576656c6f706d656e742f636f81526020017f6e73656e7379732f646973747269627574652f636f6e7472616374732f636f6e81526020017f7472616374732f50726f6a6563742e736f6c00000000000000000000000000008152506060019250505060405180910390a17f61fc2769b9825a2d640440cf05bcb75301fb5f5274ee8f22ee1df4d7776f6f1460246040518080602001838152602001828103825260528152602001807f2f55736572732f73686f6b6973686f6b692f646576656c6f706d656e742f636f81526020017f6e73656e7379732f646973747269627574652f636f6e7472616374732f636f6e81526020017f7472616374732f50726f6a6563742e736f6c00000000000000000000000000008152506060019250505060405180910390a182601660008673ffffffffffffffffffffffffffffffffffffffff1673ffffffffffffffffffffffffffffffffffffffff168152602001908152602001600020600082825403925050819055507f6ca67a40d32d177c7997facc1824fca23699aa90c8a5e5622bc262c8e834a6616101176040518080602001838152602001828103825260528152602001807f2f55736572732f73686f6b6973686f6b692f646576656c6f706d656e742f636f81526020017f6e73656e7379732f646973747269627574652f636f6e7472616374732f636f6e81526020017f7472616374732f50726f6a6563742e736f6c00000000000000000000000000008152506060019250505060405180910390a17f61fc2769b9825a2d640440cf05bcb75301fb5f5274ee8f22ee1df4d7776f6f1460256040518080602001838152602001828103825260528152602001807f2f55736572732f73686f6b6973686f6b692f646576656c6f706d656e742f636f81526020017f6e73656e7379732f646973747269627574652f636f6e7472616374732f636f6e81526020017f7472616374732f50726f6a6563742e736f6c00000000000000000000000000008152506060019250505060405180910390a1826014600082825403925050819055507f6ca67a40d32d177c7997facc1824fca23699aa90c8a5e5622bc262c8e834a6616101186040518080602001838152602001828103825260528152602001807f2f55736572732f73686f6b6973686f6b692f646576656c6f706d656e742f636f81526020017f6e73656e7379732f646973747269627574652f636f6e7472616374732f636f6e81526020017f7472616374732f50726f6a6563742e736f6c00000000000000000000000000008152506060019250505060405180910390a17f61fc2769b9825a2d640440cf05bcb75301fb5f5274ee8f22ee1df4d7776f6f1460266040518080602001838152602001828103825260528152602001807f2f55736572732f73686f6b6973686f6b692f646576656c6f706d656e742f636f81526020017f6e73656e7379732f646973747269627574652f636f6e7472616374732f636f6e81526020017f7472616374732f50726f6a6563742e736f6c00000000000000000000000000008152506060019250505060405180910390a180600f600082825403925050819055507f6ca67a40d32d177c7997facc1824fca23699aa90c8a5e5622bc262c8e834a6616101196040518080602001838152602001828103825260528152602001807f2f55736572732f73686f6b6973686f6b692f646576656c6f706d656e742f636f81526020017f6e73656e7379732f646973747269627574652f636f6e7472616374732f636f6e81526020017f7472616374732f50726f6a6563742e736f6c00000000000000000000000000008152506060019250505060405180910390a17f61fc2769b9825a2d640440cf05bcb75301fb5f5274ee8f22ee1df4d7776f6f1460276040518080602001838152602001828103825260528152602001807f2f55736572732f73686f6b6973686f6b692f646576656c6f706d656e742f636f81526020017f6e73656e7379732f646973747269627574652f636f6e7472616374732f636f6e81526020017f7472616374732f50726f6a6563742e736f6c00000000000000000000000000008152506060019250505060405180910390a18091505092915050565b60055481565b60007f9fa68cf8d737dd79618664e3f784f666b17e866f7a6a5ec90e90e14322fb6c42600360405180806020018381526020018281038252605b8152602001807f2f55736572732f73686f6b6973686f6b692f646576656c6f706d656e742f636f81526020017f6e73656e7379732f646973747269627574652f636f6e7472616374732f636f6e81526020017f7472616374732f6c6962726172792f536166654d6174682e736f6c00000000008152506060019250505060405180910390a17f310edbc0827c5bdae64c54b31460ee27a9b51163364c93d2801d2e514e2213c1602360405180806020018381526020018281038252605b8152602001807f2f55736572732f73686f6b6973686f6b692f646576656c6f706d656e742f636f81526020017f6e73656e7379732f646973747269627574652f636f6e7472616374732f636f6e81526020017f7472616374732f6c6962726172792f536166654d6174682e736f6c00000000008152506060019250505060405180910390a17ff845edff3c911bb719be19d1dd85ef72b046324d200a799322db75ff48847b7a600360405180806020018381526020018281038252605b8152602001807f2f55736572732f73686f6b6973686f6b692f646576656c6f706d656e742f636f81526020017f6e73656e7379732f646973747269627574652f636f6e7472616374732f636f6e81526020017f7472616374732f6c6962726172792f536166654d6174682e736f6c00000000008152506060019250505060405180910390a17f278e28d126ebc390c541b58a9665ba5e5102ba9d342b94345e6b97c33f35e809600860405180806020018381526020018281038252605b8152602001807f2f55736572732f73686f6b6973686f6b692f646576656c6f706d656e742f636f81526020017f6e73656e7379732f646973747269627574652f636f6e7472616374732f636f6e81526020017f7472616374732f6c6962726172792f536166654d6174682e736f6c00000000008152506060019250505060405180910390a182821115151561a9c657fe5b7f07c25c2aea8196dea33396ea8a440ece1bab5adae3e4959e934995df029e22e6600360405180806020018381526020018281038252605b8152602001807f2f55736572732f73686f6b6973686f6b692f646576656c6f706d656e742f636f81526020017f6e73656e7379732f646973747269627574652f636f6e7472616374732f636f6e81526020017f7472616374732f6c6962726172792f536166654d6174682e736f6c00000000008152506060019250505060405180910390a17f310edbc0827c5bdae64c54b31460ee27a9b51163364c93d2801d2e514e2213c1602460405180806020018381526020018281038252605b8152602001807f2f55736572732f73686f6b6973686f6b692f646576656c6f706d656e742f636f81526020017f6e73656e7379732f646973747269627574652f636f6e7472616374732f636f6e81526020017f7472616374732f6c6962726172792f536166654d6174682e736f6c00000000008152506060019250505060405180910390a17f278e28d126ebc390c541b58a9665ba5e5102ba9d342b94345e6b97c33f35e809600960405180806020018381526020018281038252605b8152602001807f2f55736572732f73686f6b6973686f6b692f646576656c6f706d656e742f636f81526020017f6e73656e7379732f646973747269627574652f636f6e7472616374732f636f6e81526020017f7472616374732f6c6962726172792f536166654d6174682e736f6c00000000008152506060019250505060405180910390a1818303905092915050565b81548183558181151161ac2f5781836000526020600020918201910161ac2e919061ac34565b5b505050565b61ac5691905b8082111561ac5257600081600090555060010161ac3a565b5090565b905600a165627a7a72305820c6cb4448d427c996035b4e7d6f9504fcd883d6d422f8885bd106ca45a4c64f5b0029","source":"pragma solidity ^0.4.19;\n\nimport \"./ProjectRegistry.sol\";\nimport \"./ReputationRegistry.sol\";\nimport \"./Task.sol\";\nimport \"./library/SafeMath.sol\";\nimport \"./library/Division.sol\";\n\n/**\n@title An individual project in the distribute DAO system\n@author Team: Jessica Marshall, Ashoka Finley\n@notice This contract is used to manage the state of all project related parameters while also\nmaintaining a wei balance to be used in the case of reward. The project can be in 8 state represented by\nintegers. They are as follows: [1: Proposed, 2: Staked, 3: Active, 4: Validation, 5: Voting, 6: Complete,\n7: Failed, 8: Expired]\n@dev This contract is managed and deployed by a Project Registry contract, and must be initialized\nwith a ReputationRegistry and TokenRegistry for full control.\n*/\ncontract Project {event __CoverageProject(string fileName, uint256 lineNumber);\nevent __FunctionCoverageProject(string fileName, uint256 fnId);\nevent __StatementCoverageProject(string fileName, uint256 statementId);\nevent __BranchCoverageProject(string fileName, uint256 branchId, uint256 locationIdx);\nevent __AssertPreCoverageProject(string fileName, uint256 branchId);\nevent __AssertPostCoverageProject(string fileName, uint256 branchId);\n\n\n    using SafeMath for uint256;\n\n    // =====================================================================\n    // STATE VARIABLES\n    // =====================================================================\n\n    address tokenRegistryAddress;\n    address reputationRegistryAddress;\n    address projectRegistryAddress;\n\n    uint256 public state;\n\n    /*\n    POSSIBLE PROJECT STATES\n        1: Proposed,\n        2: Staked,\n        3: Active,\n        4: Validation,\n        5: Voting,\n        6: Complete,\n        7: Failed,\n        8: Expired\n    */\n\n    uint256 public stakedStatePeriod = 1 weeks;\n    uint256 public activeStatePeriod = 2 weeks;\n    uint256 public turnoverTime = 1 weeks;\n    uint256 public validateStatePeriod = 1 weeks;\n    uint256 public voteCommitPeriod = 1 weeks;\n    uint256 public voteRevealPeriod = 1 weeks;\n    uint256 public passThreshold = 100;\n\n    address public proposer;\n    uint256 public proposerType;\n    uint256 public proposerStake;\n    uint256 public stakingPeriod;\n    uint256 public weiBal;\n    uint256 public nextDeadline;\n    uint256 public weiCost;\n    uint256 public reputationCost;\n    string public ipfsHash;\n\n    uint256 public tokensStaked;\n    uint256 public reputationStaked;\n    mapping (address => uint) public tokenBalances;\n    mapping (address => uint) public reputationBalances;\n\n    address[] public tasks;\n\n    uint256 public passAmount;\n\n    // =====================================================================\n    // MODIFIERS\n    // =====================================================================\n\n    modifier onlyPR() {__FunctionCoverageProject('/Users/shokishoki/development/consensys/distribute/contracts/contracts/Project.sol',1);\n\n__CoverageProject('/Users/shokishoki/development/consensys/distribute/contracts/contracts/Project.sol',77);\n        __AssertPreCoverageProject('/Users/shokishoki/development/consensys/distribute/contracts/contracts/Project.sol',1);\n __StatementCoverageProject('/Users/shokishoki/development/consensys/distribute/contracts/contracts/Project.sol',1);\nrequire(msg.sender == projectRegistryAddress);__AssertPostCoverageProject('/Users/shokishoki/development/consensys/distribute/contracts/contracts/Project.sol',1);\n\n__CoverageProject('/Users/shokishoki/development/consensys/distribute/contracts/contracts/Project.sol',78);\n        _;\n    }\n\n    modifier onlyTR() {__FunctionCoverageProject('/Users/shokishoki/development/consensys/distribute/contracts/contracts/Project.sol',2);\n\n__CoverageProject('/Users/shokishoki/development/consensys/distribute/contracts/contracts/Project.sol',82);\n        __AssertPreCoverageProject('/Users/shokishoki/development/consensys/distribute/contracts/contracts/Project.sol',2);\n __StatementCoverageProject('/Users/shokishoki/development/consensys/distribute/contracts/contracts/Project.sol',2);\nrequire(msg.sender == tokenRegistryAddress);__AssertPostCoverageProject('/Users/shokishoki/development/consensys/distribute/contracts/contracts/Project.sol',2);\n\n__CoverageProject('/Users/shokishoki/development/consensys/distribute/contracts/contracts/Project.sol',83);\n        _;\n    }\n\n    modifier onlyRR() {__FunctionCoverageProject('/Users/shokishoki/development/consensys/distribute/contracts/contracts/Project.sol',3);\n\n__CoverageProject('/Users/shokishoki/development/consensys/distribute/contracts/contracts/Project.sol',87);\n        __AssertPreCoverageProject('/Users/shokishoki/development/consensys/distribute/contracts/contracts/Project.sol',3);\n __StatementCoverageProject('/Users/shokishoki/development/consensys/distribute/contracts/contracts/Project.sol',3);\nrequire(msg.sender == reputationRegistryAddress);__AssertPostCoverageProject('/Users/shokishoki/development/consensys/distribute/contracts/contracts/Project.sol',3);\n\n__CoverageProject('/Users/shokishoki/development/consensys/distribute/contracts/contracts/Project.sol',88);\n        _;\n    }\n\n    function isTR(address _sender) public  returns (bool) {__FunctionCoverageProject('/Users/shokishoki/development/consensys/distribute/contracts/contracts/Project.sol',4);\n\n__CoverageProject('/Users/shokishoki/development/consensys/distribute/contracts/contracts/Project.sol',92);\n         __StatementCoverageProject('/Users/shokishoki/development/consensys/distribute/contracts/contracts/Project.sol',4);\nreturn _sender == tokenRegistryAddress\n            ? true\n            : false;\n    }\n\n    function isRR(address _sender) public  returns (bool) {__FunctionCoverageProject('/Users/shokishoki/development/consensys/distribute/contracts/contracts/Project.sol',5);\n\n__CoverageProject('/Users/shokishoki/development/consensys/distribute/contracts/contracts/Project.sol',98);\n         __StatementCoverageProject('/Users/shokishoki/development/consensys/distribute/contracts/contracts/Project.sol',5);\nreturn _sender == reputationRegistryAddress\n            ? true\n            : false;\n    }\n\n    // =====================================================================\n    // CONSTRUCTOR\n    // =====================================================================\n\n    /**\n    @dev Initialize a Project with a Reputation Registry and a Token Registry, and all related project values.\n    @param _cost The total cost of the project in wei\n    @param _costProportion The proportion of the project cost divided by theDistributeToken weiBal\n    represented as integer\n    @param _stakingPeriod The length of time this project is open for staking\n    @param _proposer The address of the user proposing the project\n    @param _proposerType Denotes if a proposer is using reputation or tokens,\n    value must be 1: tokens or 2: reputation\n    @param _proposerStake The amount of reputation or tokens needed to create the proposal\n    @param _ipfsHash The ipfs hash of the full project description\n    @param _reputationRegistry Address of the Reputation Registry\n    @param _tokenRegistry Address of the contract system Token Registry\n    */\n    function Project(\n        uint256 _cost,\n        uint256 _costProportion,\n        uint256 _stakingPeriod,\n        address _proposer,\n        uint256 _proposerType,\n        uint256 _proposerStake,\n        string _ipfsHash,\n        address _reputationRegistry,\n        address _tokenRegistry\n    ) public {__FunctionCoverageProject('/Users/shokishoki/development/consensys/distribute/contracts/contracts/Project.sol',6);\n\n__CoverageProject('/Users/shokishoki/development/consensys/distribute/contracts/contracts/Project.sol',132);\n         __StatementCoverageProject('/Users/shokishoki/development/consensys/distribute/contracts/contracts/Project.sol',6);\nreputationRegistryAddress = _reputationRegistry;\n__CoverageProject('/Users/shokishoki/development/consensys/distribute/contracts/contracts/Project.sol',133);\n         __StatementCoverageProject('/Users/shokishoki/development/consensys/distribute/contracts/contracts/Project.sol',7);\ntokenRegistryAddress = _tokenRegistry;\n__CoverageProject('/Users/shokishoki/development/consensys/distribute/contracts/contracts/Project.sol',134);\n         __StatementCoverageProject('/Users/shokishoki/development/consensys/distribute/contracts/contracts/Project.sol',8);\nprojectRegistryAddress = msg.sender;\n__CoverageProject('/Users/shokishoki/development/consensys/distribute/contracts/contracts/Project.sol',135);\n         __StatementCoverageProject('/Users/shokishoki/development/consensys/distribute/contracts/contracts/Project.sol',9);\nweiCost = _cost;\n__CoverageProject('/Users/shokishoki/development/consensys/distribute/contracts/contracts/Project.sol',136);\n         __StatementCoverageProject('/Users/shokishoki/development/consensys/distribute/contracts/contracts/Project.sol',10);\nreputationCost = _costProportion * ReputationRegistry(_reputationRegistry).totalSupply() / 10000000000;\n__CoverageProject('/Users/shokishoki/development/consensys/distribute/contracts/contracts/Project.sol',137);\n         __StatementCoverageProject('/Users/shokishoki/development/consensys/distribute/contracts/contracts/Project.sol',11);\nstate = 1;\n__CoverageProject('/Users/shokishoki/development/consensys/distribute/contracts/contracts/Project.sol',138);\n         __StatementCoverageProject('/Users/shokishoki/development/consensys/distribute/contracts/contracts/Project.sol',12);\nnextDeadline = _stakingPeriod;\n__CoverageProject('/Users/shokishoki/development/consensys/distribute/contracts/contracts/Project.sol',139);\n         __StatementCoverageProject('/Users/shokishoki/development/consensys/distribute/contracts/contracts/Project.sol',13);\nproposer = _proposer;\n__CoverageProject('/Users/shokishoki/development/consensys/distribute/contracts/contracts/Project.sol',140);\n         __StatementCoverageProject('/Users/shokishoki/development/consensys/distribute/contracts/contracts/Project.sol',14);\nproposerType = _proposerType;\n__CoverageProject('/Users/shokishoki/development/consensys/distribute/contracts/contracts/Project.sol',141);\n         __StatementCoverageProject('/Users/shokishoki/development/consensys/distribute/contracts/contracts/Project.sol',15);\nproposerStake = _proposerStake;\n__CoverageProject('/Users/shokishoki/development/consensys/distribute/contracts/contracts/Project.sol',142);\n         __StatementCoverageProject('/Users/shokishoki/development/consensys/distribute/contracts/contracts/Project.sol',16);\nipfsHash = _ipfsHash;\n    }\n\n    // =====================================================================\n    // FALLBACK\n    // =====================================================================\n\n    function() public payable {__FunctionCoverageProject('/Users/shokishoki/development/consensys/distribute/contracts/contracts/Project.sol',7);\n}\n\n    // =====================================================================\n    // GETTERS\n    // =====================================================================\n    /**\n    @notice The amount of tasks created in the project during the Staked period.\n    @dev Helper function used by the project library\n    @return The number of tasks in the task array\n    */\n    function getTaskCount() public  returns (uint256) {__FunctionCoverageProject('/Users/shokishoki/development/consensys/distribute/contracts/contracts/Project.sol',8);\n\n__CoverageProject('/Users/shokishoki/development/consensys/distribute/contracts/contracts/Project.sol',160);\n         __StatementCoverageProject('/Users/shokishoki/development/consensys/distribute/contracts/contracts/Project.sol',17);\nreturn tasks.length;\n    }\n\n    // =====================================================================\n    // SETTERS\n    // =====================================================================\n\n    /**\n    @notice Set the project state to `_state`, and update the nextDeadline to `_nextDeadline`\n    @dev Only callable by the Project Registry initialized during construction\n    @param _state The state to update the project to\n    @param _nextDeadline The nextDeadline to transition project to the next state\n    */\n    function setState(uint256 _state, uint256 _nextDeadline) public onlyPR {__FunctionCoverageProject('/Users/shokishoki/development/consensys/distribute/contracts/contracts/Project.sol',9);\n\n__CoverageProject('/Users/shokishoki/development/consensys/distribute/contracts/contracts/Project.sol',174);\n         __StatementCoverageProject('/Users/shokishoki/development/consensys/distribute/contracts/contracts/Project.sol',18);\nstate = _state;\n__CoverageProject('/Users/shokishoki/development/consensys/distribute/contracts/contracts/Project.sol',175);\n         __StatementCoverageProject('/Users/shokishoki/development/consensys/distribute/contracts/contracts/Project.sol',19);\nnextDeadline = _nextDeadline;\n    }\n\n    /**\n    @notice Clears the proposer stake on proposal expiration\n    @dev Only callable by the Project Registry initialized during construction\n    */\n    function clearProposerStake() public onlyPR {__FunctionCoverageProject('/Users/shokishoki/development/consensys/distribute/contracts/contracts/Project.sol',10);\n\n__CoverageProject('/Users/shokishoki/development/consensys/distribute/contracts/contracts/Project.sol',183);\n         __StatementCoverageProject('/Users/shokishoki/development/consensys/distribute/contracts/contracts/Project.sol',20);\nproposerStake = 0;\n    }\n\n    /**\n    @notice Clear the token stake of `_staker`, used during stake claiming\n    @dev Only callable by the Token Registry initialized during construction\n    @param _staker Address of the staker\n    */\n    function clearTokenStake(address _staker) public onlyTR {__FunctionCoverageProject('/Users/shokishoki/development/consensys/distribute/contracts/contracts/Project.sol',11);\n\n__CoverageProject('/Users/shokishoki/development/consensys/distribute/contracts/contracts/Project.sol',192);\n         __StatementCoverageProject('/Users/shokishoki/development/consensys/distribute/contracts/contracts/Project.sol',21);\ntokenBalances[_staker] = 0;\n    }\n\n    /**\n    @notice Clear the reputation stake of `_staker`, used during stake claiming\n    @dev Only callable by the Reputation Registry initialized during construction\n    @param _staker Address of the staker\n    */\n    function clearReputationStake(address _staker) public onlyRR {__FunctionCoverageProject('/Users/shokishoki/development/consensys/distribute/contracts/contracts/Project.sol',12);\n\n__CoverageProject('/Users/shokishoki/development/consensys/distribute/contracts/contracts/Project.sol',201);\n         __StatementCoverageProject('/Users/shokishoki/development/consensys/distribute/contracts/contracts/Project.sol',22);\nreputationBalances[_staker] = 0;\n    }\n\n    /**\n    @notice Clear the stake of all stakers in the event of Project failure\n    @dev Only callable by the Project Registry initialized during construction, in the case of project failure\n    */\n    function clearStake() public onlyPR {__FunctionCoverageProject('/Users/shokishoki/development/consensys/distribute/contracts/contracts/Project.sol',13);\n\n__CoverageProject('/Users/shokishoki/development/consensys/distribute/contracts/contracts/Project.sol',209);\n         __StatementCoverageProject('/Users/shokishoki/development/consensys/distribute/contracts/contracts/Project.sol',23);\ntokensStaked = 0;\n__CoverageProject('/Users/shokishoki/development/consensys/distribute/contracts/contracts/Project.sol',210);\n         __StatementCoverageProject('/Users/shokishoki/development/consensys/distribute/contracts/contracts/Project.sol',24);\nreputationStaked = 0;\n    }\n\n    /**\n    @notice Set the number of project tasks to `_tasksLength` as defined by the project stakers\n    @dev Only callable by the Project Registry initialized during construction\n    @param _tasksLength The amount of tasks as defined by the project stakers\n    */\n    function setTaskLength(uint _tasksLength) public onlyPR {__FunctionCoverageProject('/Users/shokishoki/development/consensys/distribute/contracts/contracts/Project.sol',14);\n\n__CoverageProject('/Users/shokishoki/development/consensys/distribute/contracts/contracts/Project.sol',219);\n         __StatementCoverageProject('/Users/shokishoki/development/consensys/distribute/contracts/contracts/Project.sol',25);\ntasks.length = _tasksLength;\n    }\n\n    /**\n    @notice Set the address of a task at index `_index`\n    @dev Only callable by the Project Registry initialized during construction\n    @param _taskAddress Address of the task contract\n    @param _index Index of the task in the tasks array\n    */\n    function setTaskAddress(address _taskAddress, uint _index) public onlyPR {__FunctionCoverageProject('/Users/shokishoki/development/consensys/distribute/contracts/contracts/Project.sol',15);\n\n__CoverageProject('/Users/shokishoki/development/consensys/distribute/contracts/contracts/Project.sol',229);\n        __AssertPreCoverageProject('/Users/shokishoki/development/consensys/distribute/contracts/contracts/Project.sol',4);\n __StatementCoverageProject('/Users/shokishoki/development/consensys/distribute/contracts/contracts/Project.sol',26);\nrequire(state == 3);__AssertPostCoverageProject('/Users/shokishoki/development/consensys/distribute/contracts/contracts/Project.sol',4);\n\n__CoverageProject('/Users/shokishoki/development/consensys/distribute/contracts/contracts/Project.sol',230);\n         __StatementCoverageProject('/Users/shokishoki/development/consensys/distribute/contracts/contracts/Project.sol',27);\ntasks[_index] = _taskAddress;\n    }\n\n    /**\n    @notice Set the weighting of the amount of tasks that passed to `_passAmount`\n    @dev Only callable by the Project Registry initialized during construction\n    @param _passAmount The total weighting of all tasks which passed\n    */\n    function setPassAmount(uint256 _passAmount) public onlyPR {__FunctionCoverageProject('/Users/shokishoki/development/consensys/distribute/contracts/contracts/Project.sol',16);\n\n__CoverageProject('/Users/shokishoki/development/consensys/distribute/contracts/contracts/Project.sol',239);\n         __StatementCoverageProject('/Users/shokishoki/development/consensys/distribute/contracts/contracts/Project.sol',28);\npassAmount = _passAmount;\n    }\n\n    // =====================================================================\n    // STAKE\n    // =====================================================================\n\n    /**\n    @notice Stake `_tokens` tokens from `_staker` and add `_weiValue` to the project ether balance\n    @dev Only callable by the Token Registry initialized during construction, to maintain control flow\n    @param _staker Address of the staker who is staking\n    @param _tokens Amount of tokens to stake on the project\n    @param _weiValue Amount of wei transferred to the project\n    */\n    function stakeTokens(address _staker, uint256 _tokens, uint256 _weiValue) public onlyTR {__FunctionCoverageProject('/Users/shokishoki/development/consensys/distribute/contracts/contracts/Project.sol',17);\n\n__CoverageProject('/Users/shokishoki/development/consensys/distribute/contracts/contracts/Project.sol',254);\n        __AssertPreCoverageProject('/Users/shokishoki/development/consensys/distribute/contracts/contracts/Project.sol',5);\n __StatementCoverageProject('/Users/shokishoki/development/consensys/distribute/contracts/contracts/Project.sol',29);\nrequire(state == 1);__AssertPostCoverageProject('/Users/shokishoki/development/consensys/distribute/contracts/contracts/Project.sol',5);\n\n\n__CoverageProject('/Users/shokishoki/development/consensys/distribute/contracts/contracts/Project.sol',256);\n         __StatementCoverageProject('/Users/shokishoki/development/consensys/distribute/contracts/contracts/Project.sol',30);\ntokenBalances[_staker] += _tokens;\n__CoverageProject('/Users/shokishoki/development/consensys/distribute/contracts/contracts/Project.sol',257);\n         __StatementCoverageProject('/Users/shokishoki/development/consensys/distribute/contracts/contracts/Project.sol',31);\ntokensStaked += _tokens;\n__CoverageProject('/Users/shokishoki/development/consensys/distribute/contracts/contracts/Project.sol',258);\n         __StatementCoverageProject('/Users/shokishoki/development/consensys/distribute/contracts/contracts/Project.sol',32);\nweiBal += _weiValue;\n    }\n\n    /**\n    @notice Unstake `_tokens` tokens from the project, subtract this value from the balance of `_staker`\n    Returns the amount of ether to subtract from the project's ether balance\n    @dev Only callable by the Token Registry initialized during construction, to maintain control flow\n    @param _staker Address of the staker who is unstaking\n    @param _tokens Amount of tokens to unstake on the project\n    @return The amount of ether to deduct from the projects balance\n\n    */\n    function unstakeTokens(address _staker, uint256 _tokens) public onlyTR returns (uint256) {__FunctionCoverageProject('/Users/shokishoki/development/consensys/distribute/contracts/contracts/Project.sol',18);\n\n__CoverageProject('/Users/shokishoki/development/consensys/distribute/contracts/contracts/Project.sol',271);\n        __AssertPreCoverageProject('/Users/shokishoki/development/consensys/distribute/contracts/contracts/Project.sol',6);\n __StatementCoverageProject('/Users/shokishoki/development/consensys/distribute/contracts/contracts/Project.sol',33);\nrequire(state == 1);__AssertPostCoverageProject('/Users/shokishoki/development/consensys/distribute/contracts/contracts/Project.sol',6);\n\n__CoverageProject('/Users/shokishoki/development/consensys/distribute/contracts/contracts/Project.sol',272);\n        __AssertPreCoverageProject('/Users/shokishoki/development/consensys/distribute/contracts/contracts/Project.sol',7);\n __StatementCoverageProject('/Users/shokishoki/development/consensys/distribute/contracts/contracts/Project.sol',34);\nrequire(\n            tokenBalances[_staker].sub(_tokens) < tokenBalances[_staker] &&  //check overflow\n            tokenBalances[_staker] >= _tokens   //make sure _staker has the tokens staked to unstake */\n        );__AssertPostCoverageProject('/Users/shokishoki/development/consensys/distribute/contracts/contracts/Project.sol',7);\n\n\n__CoverageProject('/Users/shokishoki/development/consensys/distribute/contracts/contracts/Project.sol',277);\n         __StatementCoverageProject('/Users/shokishoki/development/consensys/distribute/contracts/contracts/Project.sol',35);\nuint256 weiVal = (Division.percent(_tokens, tokensStaked, 10) * weiBal) / 10000000000;\n__CoverageProject('/Users/shokishoki/development/consensys/distribute/contracts/contracts/Project.sol',278);\n         __StatementCoverageProject('/Users/shokishoki/development/consensys/distribute/contracts/contracts/Project.sol',36);\ntokenBalances[_staker] -= _tokens;\n__CoverageProject('/Users/shokishoki/development/consensys/distribute/contracts/contracts/Project.sol',279);\n         __StatementCoverageProject('/Users/shokishoki/development/consensys/distribute/contracts/contracts/Project.sol',37);\ntokensStaked -= _tokens;\n__CoverageProject('/Users/shokishoki/development/consensys/distribute/contracts/contracts/Project.sol',280);\n         __StatementCoverageProject('/Users/shokishoki/development/consensys/distribute/contracts/contracts/Project.sol',38);\nweiBal -= weiVal;\n__CoverageProject('/Users/shokishoki/development/consensys/distribute/contracts/contracts/Project.sol',281);\n         __StatementCoverageProject('/Users/shokishoki/development/consensys/distribute/contracts/contracts/Project.sol',39);\nreturn weiVal;\n    }\n\n    /**\n    @notice Stake `_reputation` reputation from `_staker`\n    @dev Only callable by the Reputation Registry initialized during construction, to maintain control flow\n    @param _staker Address of the staker who is staking\n    @param _reputation Amount of reputation to stake on the project\n    */\n    function stakeReputation(address _staker, uint256 _reputation) public onlyRR {__FunctionCoverageProject('/Users/shokishoki/development/consensys/distribute/contracts/contracts/Project.sol',19);\n\n__CoverageProject('/Users/shokishoki/development/consensys/distribute/contracts/contracts/Project.sol',291);\n        __AssertPreCoverageProject('/Users/shokishoki/development/consensys/distribute/contracts/contracts/Project.sol',8);\n __StatementCoverageProject('/Users/shokishoki/development/consensys/distribute/contracts/contracts/Project.sol',40);\nrequire(state == 1);__AssertPostCoverageProject('/Users/shokishoki/development/consensys/distribute/contracts/contracts/Project.sol',8);\n\n__CoverageProject('/Users/shokishoki/development/consensys/distribute/contracts/contracts/Project.sol',292);\n        __AssertPreCoverageProject('/Users/shokishoki/development/consensys/distribute/contracts/contracts/Project.sol',9);\n __StatementCoverageProject('/Users/shokishoki/development/consensys/distribute/contracts/contracts/Project.sol',41);\nrequire(reputationBalances[_staker] + _reputation > reputationBalances[_staker]);__AssertPostCoverageProject('/Users/shokishoki/development/consensys/distribute/contracts/contracts/Project.sol',9);\n\n\n__CoverageProject('/Users/shokishoki/development/consensys/distribute/contracts/contracts/Project.sol',294);\n         __StatementCoverageProject('/Users/shokishoki/development/consensys/distribute/contracts/contracts/Project.sol',42);\nreputationBalances[_staker] += _reputation;\n__CoverageProject('/Users/shokishoki/development/consensys/distribute/contracts/contracts/Project.sol',295);\n         __StatementCoverageProject('/Users/shokishoki/development/consensys/distribute/contracts/contracts/Project.sol',43);\nreputationStaked += _reputation;\n    }\n\n    /**\n    @notice Unstake `_reputation` reputation from the project, and update staked balance of `_staker`\n    @dev Only callable by the Reputation Registry initialized during construction, to maintain control flow\n    @param _staker Address of the staker who is unstaking\n    @param _reputation Amount of reputation to unstake on the project\n    */\n    function unstakeReputation(address _staker, uint256 _reputation) public onlyRR {__FunctionCoverageProject('/Users/shokishoki/development/consensys/distribute/contracts/contracts/Project.sol',20);\n\n__CoverageProject('/Users/shokishoki/development/consensys/distribute/contracts/contracts/Project.sol',305);\n        __AssertPreCoverageProject('/Users/shokishoki/development/consensys/distribute/contracts/contracts/Project.sol',10);\n __StatementCoverageProject('/Users/shokishoki/development/consensys/distribute/contracts/contracts/Project.sol',44);\nrequire(state == 1);__AssertPostCoverageProject('/Users/shokishoki/development/consensys/distribute/contracts/contracts/Project.sol',10);\n\n__CoverageProject('/Users/shokishoki/development/consensys/distribute/contracts/contracts/Project.sol',306);\n        __AssertPreCoverageProject('/Users/shokishoki/development/consensys/distribute/contracts/contracts/Project.sol',11);\n __StatementCoverageProject('/Users/shokishoki/development/consensys/distribute/contracts/contracts/Project.sol',45);\nrequire(\n            reputationBalances[_staker].sub(_reputation) < reputationBalances[_staker] &&  //check overflow\n            reputationBalances[_staker] >= _reputation //make sure _staker has the tokens staked to unstake\n        );__AssertPostCoverageProject('/Users/shokishoki/development/consensys/distribute/contracts/contracts/Project.sol',11);\n\n\n__CoverageProject('/Users/shokishoki/development/consensys/distribute/contracts/contracts/Project.sol',311);\n         __StatementCoverageProject('/Users/shokishoki/development/consensys/distribute/contracts/contracts/Project.sol',46);\nreputationBalances[_staker] -= _reputation;\n__CoverageProject('/Users/shokishoki/development/consensys/distribute/contracts/contracts/Project.sol',312);\n         __StatementCoverageProject('/Users/shokishoki/development/consensys/distribute/contracts/contracts/Project.sol',47);\nreputationStaked -= _reputation;\n    }\n\n    // =====================================================================\n    // REWARD\n    // =====================================================================\n\n    /**\n    @notice Transfer `_reward` wei as reward for completing a task to `_rewardee\n    @dev Only callable by the Reputation Registry initialized during construction, to maintain control flow\n    @param _rewardee The account who claimed and completed the task.\n    */\n    function transferWeiReward(address _rewardee, uint _reward) public onlyRR {__FunctionCoverageProject('/Users/shokishoki/development/consensys/distribute/contracts/contracts/Project.sol',21);\n\n__CoverageProject('/Users/shokishoki/development/consensys/distribute/contracts/contracts/Project.sol',325);\n        __AssertPreCoverageProject('/Users/shokishoki/development/consensys/distribute/contracts/contracts/Project.sol',12);\n __StatementCoverageProject('/Users/shokishoki/development/consensys/distribute/contracts/contracts/Project.sol',48);\nrequire(_reward <= weiBal);__AssertPostCoverageProject('/Users/shokishoki/development/consensys/distribute/contracts/contracts/Project.sol',12);\n\n\n__CoverageProject('/Users/shokishoki/development/consensys/distribute/contracts/contracts/Project.sol',327);\n         __StatementCoverageProject('/Users/shokishoki/development/consensys/distribute/contracts/contracts/Project.sol',49);\nweiBal -= _reward;\n__CoverageProject('/Users/shokishoki/development/consensys/distribute/contracts/contracts/Project.sol',328);\n        _rewardee.transfer(_reward);\n    }\n\n    /**\n    @notice Transfer `_value` wei back to distribute token balance on task failure\n    @dev Only callable by the Project Registry initialized during construction, to maintain control flow\n    @param _distributeToken The address of the systems token contract.\n    @param _value The amount of ether to send\n    */\n    function returnWei(address _distributeToken, uint _value) public onlyPR {__FunctionCoverageProject('/Users/shokishoki/development/consensys/distribute/contracts/contracts/Project.sol',22);\n\n__CoverageProject('/Users/shokishoki/development/consensys/distribute/contracts/contracts/Project.sol',338);\n        _distributeToken.transfer(_value);\n    }\n\n}\n","sourcePath":"/Users/shokishoki/development/consensys/distribute/contracts/coverageEnv/contracts/Project.sol","compiler":{"name":"solc","version":"0.4.19+commit.c4cbbb05.Emscripten.clang"},"schemaVersion":"2.0.0","updatedAt":"2018-03-21T15:13:00.987Z"}