{"contractName":"ProjectRegistry","abi":[{"constant":true,"inputs":[{"name":"","type":"address"}],"name":"stakedProjects","outputs":[{"name":"topTaskHash","type":"bytes32"}],"payable":false,"stateMutability":"view","type":"function"},{"anonymous":false,"inputs":[{"indexed":true,"name":"projectAddress","type":"address"},{"indexed":false,"name":"proposerAddress","type":"address"},{"indexed":false,"name":"projectCost","type":"uint256"},{"indexed":false,"name":"proposerStake","type":"uint256"}],"name":"LogProjectCreated","type":"event"},{"constant":false,"inputs":[{"name":"_distributeToken","type":"address"},{"name":"_tokenRegistry","type":"address"},{"name":"_reputationRegistry","type":"address"},{"name":"_plcrVoting","type":"address"}],"name":"init","outputs":[],"payable":false,"stateMutability":"nonpayable","type":"function"},{"constant":false,"inputs":[{"name":"_projectAddress","type":"address"}],"name":"checkStaked","outputs":[{"name":"","type":"bool"}],"payable":false,"stateMutability":"nonpayable","type":"function"},{"constant":false,"inputs":[{"name":"_projectAddress","type":"address"}],"name":"checkActive","outputs":[{"name":"","type":"bool"}],"payable":false,"stateMutability":"nonpayable","type":"function"},{"constant":false,"inputs":[{"name":"_projectAddress","type":"address"}],"name":"checkValidate","outputs":[],"payable":false,"stateMutability":"nonpayable","type":"function"},{"constant":false,"inputs":[{"name":"_projectAddress","type":"address"}],"name":"checkVoting","outputs":[],"payable":false,"stateMutability":"nonpayable","type":"function"},{"constant":false,"inputs":[{"name":"_projectAddress","type":"address"}],"name":"checkEnd","outputs":[],"payable":false,"stateMutability":"nonpayable","type":"function"},{"constant":false,"inputs":[{"name":"_cost","type":"uint256"},{"name":"_costProportion","type":"uint256"},{"name":"_stakingPeriod","type":"uint256"},{"name":"_proposer","type":"address"},{"name":"_proposerType","type":"uint256"},{"name":"_proposerStake","type":"uint256"},{"name":"_ipfsHash","type":"string"}],"name":"createProject","outputs":[{"name":"","type":"address"}],"payable":false,"stateMutability":"nonpayable","type":"function"},{"constant":false,"inputs":[{"name":"_projectAddress","type":"address"}],"name":"refundProposer","outputs":[{"name":"","type":"uint256[2]"}],"payable":false,"stateMutability":"nonpayable","type":"function"},{"constant":false,"inputs":[{"name":"_projectAddress","type":"address"},{"name":"_taskHash","type":"bytes32"}],"name":"addTaskHash","outputs":[],"payable":false,"stateMutability":"nonpayable","type":"function"},{"constant":false,"inputs":[{"name":"_projectAddress","type":"address"},{"name":"_hashes","type":"bytes32[]"}],"name":"submitHashList","outputs":[],"payable":false,"stateMutability":"nonpayable","type":"function"},{"constant":false,"inputs":[{"name":"_projectAddress","type":"address"},{"name":"_index","type":"uint256"},{"name":"_taskDescription","type":"bytes32"},{"name":"_claimer","type":"address"},{"name":"_weighting","type":"uint256"},{"name":"_weiVal","type":"uint256"},{"name":"_reputationVal","type":"uint256"}],"name":"claimTask","outputs":[],"payable":false,"stateMutability":"nonpayable","type":"function"},{"constant":false,"inputs":[{"name":"_projectAddress","type":"address"},{"name":"_index","type":"uint256"}],"name":"submitTaskComplete","outputs":[],"payable":false,"stateMutability":"nonpayable","type":"function"}],"bytecode":"0x606060405234156200001057600080fd5b6201ce2180620000216000396000f300606060405260043610620000d1576000357c0100000000000000000000000000000000000000000000000000000000900463ffffffff16806221135314620000d6578062a750af146200011257806306552ff314620001fe578063247f8e1414620002975780632487514814620002eb5780632a5ec89014620003275780633330dcd814620003635780634012c2a214620003ef57806347c34c0b14620004695780639dff79ea14620004e5578063c00296a7146200052e578063ed7dd44e1462000573578063ef12f3f814620005c7575b600080fd5b3415620000e257600080fd5b62000110600480803573ffffffffffffffffffffffffffffffffffffffff169060200190919050506200061f565b005b34156200011e57600080fd5b620001bc600480803590602001909190803590602001909190803590602001909190803573ffffffffffffffffffffffffffffffffffffffff1690602001909190803590602001909190803590602001909190803590602001908201803590602001908080601f0160208091040260200160405190810160405280939291908181526020018383808284378201915050505050509190505062000972565b604051808273ffffffffffffffffffffffffffffffffffffffff1673ffffffffffffffffffffffffffffffffffffffff16815260200191505060405180910390f35b34156200020a57600080fd5b62000295600480803573ffffffffffffffffffffffffffffffffffffffff1690602001909190803573ffffffffffffffffffffffffffffffffffffffff1690602001909190803573ffffffffffffffffffffffffffffffffffffffff1690602001909190803573ffffffffffffffffffffffffffffffffffffffff169060200190919050506200177a565b005b3415620002a357600080fd5b620002d1600480803573ffffffffffffffffffffffffffffffffffffffff16906020019091905050620022ee565b604051808215151515815260200191505060405180910390f35b3415620002f757600080fd5b62000325600480803573ffffffffffffffffffffffffffffffffffffffff1690602001909190505062002602565b005b34156200033357600080fd5b62000361600480803573ffffffffffffffffffffffffffffffffffffffff16906020019091905050620034fa565b005b34156200036f57600080fd5b620003ed600480803573ffffffffffffffffffffffffffffffffffffffff169060200190919080359060200190919080356000191690602001909190803573ffffffffffffffffffffffffffffffffffffffff16906020019091908035906020019091908035906020019091908035906020019091905050620037f8565b005b3415620003fb57600080fd5b62000429600480803573ffffffffffffffffffffffffffffffffffffffff1690602001909190505062005076565b6040518082600260200280838360005b838110156200045657808201518184015260208101905062000439565b5050505090500191505060405180910390f35b34156200047557600080fd5b620004e3600480803573ffffffffffffffffffffffffffffffffffffffff169060200190919080359060200190820180359060200190808060200260200160405190810160405280939291908181526020018383602002808284378201915050505050509190505062006746565b005b3415620004f157600080fd5b6200052c600480803573ffffffffffffffffffffffffffffffffffffffff1690602001909190803560001916906020019091905050620073e5565b005b34156200053a57600080fd5b62000571600480803573ffffffffffffffffffffffffffffffffffffffff1690602001909190803590602001909190505062008368565b005b34156200057f57600080fd5b620005ad600480803573ffffffffffffffffffffffffffffffffffffffff16906020019091905050620093ca565b604051808215151515815260200191505060405180910390f35b3415620005d357600080fd5b62000601600480803573ffffffffffffffffffffffffffffffffffffffff1690602001909190505062009730565b60405180826000191660001916815260200191505060405180910390f35b7fb2a99b28b0b83961661e058eb3408ee38de876f43b0525042d8cca709e5b8119600860405180806020018381526020018281038252605a8152602001807f2f55736572732f73686f6b6973686f6b692f646576656c6f706d656e742f636f81526020017f6e73656e7379732f646973747269627574652f636f6e7472616374732f636f6e81526020017f7472616374732f50726f6a65637452656769737472792e736f6c0000000000008152506060019250505060405180910390a17fb7509a7b70cc84e1f34502fae8101dd25f39fa8bdf2729ed20b3bac1db82fa88608b60405180806020018381526020018281038252605a8152602001807f2f55736572732f73686f6b6973686f6b692f646576656c6f706d656e742f636f81526020017f6e73656e7379732f646973747269627574652f636f6e7472616374732f636f6e81526020017f7472616374732f50726f6a65637452656769737472792e736f6c0000000000008152506060019250505060405180910390a18073ffffffffffffffffffffffffffffffffffffffff1673__ProjectLibrary________________________637c6d052c9091600160009054906101000a900473ffffffffffffffffffffffffffffffffffffffff16600360009054906101000a900473ffffffffffffffffffffffffffffffffffffffff166000809054906101000a900473ffffffffffffffffffffffffffffffffffffffff166000604051602001526040518563ffffffff167c0100000000000000000000000000000000000000000000000000000000028152600401808573ffffffffffffffffffffffffffffffffffffffff1673ffffffffffffffffffffffffffffffffffffffff1681526020018473ffffffffffffffffffffffffffffffffffffffff1673ffffffffffffffffffffffffffffffffffffffff1681526020018373ffffffffffffffffffffffffffffffffffffffff1673ffffffffffffffffffffffffffffffffffffffff1681526020018273ffffffffffffffffffffffffffffffffffffffff1673ffffffffffffffffffffffffffffffffffffffff16815260200194505050505060206040518083038186803b15156200095257600080fd5b6102c65a03f415156200096457600080fd5b505050604051805190505050565b60008060007fb2a99b28b0b83961661e058eb3408ee38de876f43b0525042d8cca709e5b8119600360405180806020018381526020018281038252605a8152602001807f2f55736572732f73686f6b6973686f6b692f646576656c6f706d656e742f636f81526020017f6e73656e7379732f646973747269627574652f636f6e7472616374732f636f6e81526020017f7472616374732f50726f6a65637452656769737472792e736f6c0000000000008152506060019250505060405180910390a17fb7509a7b70cc84e1f34502fae8101dd25f39fa8bdf2729ed20b3bac1db82fa88603f60405180806020018381526020018281038252605a8152602001807f2f55736572732f73686f6b6973686f6b692f646576656c6f706d656e742f636f81526020017f6e73656e7379732f646973747269627574652f636f6e7472616374732f636f6e81526020017f7472616374732f50726f6a65637452656769737472792e736f6c0000000000008152506060019250505060405180910390a17fffd77e43b890df3f40a8c35c2f0ecbbc681f52d886ca1bd2a64469ea232029cc600360405180806020018381526020018281038252605a8152602001807f2f55736572732f73686f6b6973686f6b692f646576656c6f706d656e742f636f81526020017f6e73656e7379732f646973747269627574652f636f6e7472616374732f636f6e81526020017f7472616374732f50726f6a65637452656769737472792e736f6c0000000000008152506060019250505060405180910390a17f0193a79eaa200f037162b94be4260ea71c18b70db265b9107c3eca79c5b6380a600360405180806020018381526020018281038252605a8152602001807f2f55736572732f73686f6b6973686f6b692f646576656c6f706d656e742f636f81526020017f6e73656e7379732f646973747269627574652f636f6e7472616374732f636f6e81526020017f7472616374732f50726f6a65637452656769737472792e736f6c0000000000008152506060019250505060405180910390a1600160009054906101000a900473ffffffffffffffffffffffffffffffffffffffff1673ffffffffffffffffffffffffffffffffffffffff163373ffffffffffffffffffffffffffffffffffffffff16148062000d155750600260009054906101000a900473ffffffffffffffffffffffffffffffffffffffff1673ffffffffffffffffffffffffffffffffffffffff163373ffffffffffffffffffffffffffffffffffffffff16145b151562000d2157600080fd5b7fe3467b15b248ac5a1f88dc95f811bc35e0bcae2b45fef32410cab12b29240fe7600360405180806020018381526020018281038252605a8152602001807f2f55736572732f73686f6b6973686f6b692f646576656c6f706d656e742f636f81526020017f6e73656e7379732f646973747269627574652f636f6e7472616374732f636f6e81526020017f7472616374732f50726f6a65637452656769737472792e736f6c0000000000008152506060019250505060405180910390a17fb7509a7b70cc84e1f34502fae8101dd25f39fa8bdf2729ed20b3bac1db82fa886040805180806020018381526020018281038252605a8152602001807f2f55736572732f73686f6b6973686f6b692f646576656c6f706d656e742f636f81526020017f6e73656e7379732f646973747269627574652f636f6e7472616374732f636f6e81526020017f7472616374732f50726f6a65637452656769737472792e736f6c0000000000008152506060019250505060405180910390a17fb2a99b28b0b83961661e058eb3408ee38de876f43b0525042d8cca709e5b8119600a60405180806020018381526020018281038252605a8152602001807f2f55736572732f73686f6b6973686f6b692f646576656c6f706d656e742f636f81526020017f6e73656e7379732f646973747269627574652f636f6e7472616374732f636f6e81526020017f7472616374732f50726f6a65637452656769737472792e736f6c0000000000008152506060019250505060405180910390a17fb7509a7b70cc84e1f34502fae8101dd25f39fa8bdf2729ed20b3bac1db82fa8860bb60405180806020018381526020018281038252605a8152602001807f2f55736572732f73686f6b6973686f6b692f646576656c6f706d656e742f636f81526020017f6e73656e7379732f646973747269627574652f636f6e7472616374732f636f6e81526020017f7472616374732f50726f6a65637452656769737472792e736f6c0000000000008152506060019250505060405180910390a17f0193a79eaa200f037162b94be4260ea71c18b70db265b9107c3eca79c5b6380a600f60405180806020018381526020018281038252605a8152602001807f2f55736572732f73686f6b6973686f6b692f646576656c6f706d656e742f636f81526020017f6e73656e7379732f646973747269627574652f636f6e7472616374732f636f6e81526020017f7472616374732f50726f6a65637452656769737472792e736f6c0000000000008152506060019250505060405180910390a189898989898989600260009054906101000a900473ffffffffffffffffffffffffffffffffffffffff16600160009054906101000a900473ffffffffffffffffffffffffffffffffffffffff16620011286200a8e0565b808a81526020018981526020018881526020018773ffffffffffffffffffffffffffffffffffffffff1673ffffffffffffffffffffffffffffffffffffffff168152602001868152602001858152602001806020018473ffffffffffffffffffffffffffffffffffffffff1673ffffffffffffffffffffffffffffffffffffffff1681526020018373ffffffffffffffffffffffffffffffffffffffff1673ffffffffffffffffffffffffffffffffffffffff168152602001828103825285818151815260200191508051906020019080838360005b838110156200121b578082015181840152602081019050620011fe565b50505050905090810190601f168015620012495780820380516001836020036101000a031916815260200191505b509a5050505050505050505050604051809103906000f08015156200126d57600080fd5b91507fb7509a7b70cc84e1f34502fae8101dd25f39fa8bdf2729ed20b3bac1db82fa8860c660405180806020018381526020018281038252605a8152602001807f2f55736572732f73686f6b6973686f6b692f646576656c6f706d656e742f636f81526020017f6e73656e7379732f646973747269627574652f636f6e7472616374732f636f6e81526020017f7472616374732f50726f6a65637452656769737472792e736f6c0000000000008152506060019250505060405180910390a17f0193a79eaa200f037162b94be4260ea71c18b70db265b9107c3eca79c5b6380a601060405180806020018381526020018281038252605a8152602001807f2f55736572732f73686f6b6973686f6b692f646576656c6f706d656e742f636f81526020017f6e73656e7379732f646973747269627574652f636f6e7472616374732f636f6e81526020017f7472616374732f50726f6a65637452656769737472792e736f6c0000000000008152506060019250505060405180910390a18190507fb7509a7b70cc84e1f34502fae8101dd25f39fa8bdf2729ed20b3bac1db82fa8860c760405180806020018381526020018281038252605a8152602001807f2f55736572732f73686f6b6973686f6b692f646576656c6f706d656e742f636f81526020017f6e73656e7379732f646973747269627574652f636f6e7472616374732f636f6e81526020017f7472616374732f50726f6a65637452656769737472792e736f6c0000000000008152506060019250505060405180910390a17f0193a79eaa200f037162b94be4260ea71c18b70db265b9107c3eca79c5b6380a601160405180806020018381526020018281038252605a8152602001807f2f55736572732f73686f6b6973686f6b692f646576656c6f706d656e742f636f81526020017f6e73656e7379732f646973747269627574652f636f6e7472616374732f636f6e81526020017f7472616374732f50726f6a65637452656769737472792e736f6c0000000000008152506060019250505060405180910390a18073ffffffffffffffffffffffffffffffffffffffff167f6cb45e03ea51ba05240653a6fc8b8ee5dc326992d7d7cbbcfdf272004ba1bebf888c88604051808473ffffffffffffffffffffffffffffffffffffffff1673ffffffffffffffffffffffffffffffffffffffff168152602001838152602001828152602001935050505060405180910390a27fb7509a7b70cc84e1f34502fae8101dd25f39fa8bdf2729ed20b3bac1db82fa8860c860405180806020018381526020018281038252605a8152602001807f2f55736572732f73686f6b6973686f6b692f646576656c6f706d656e742f636f81526020017f6e73656e7379732f646973747269627574652f636f6e7472616374732f636f6e81526020017f7472616374732f50726f6a65637452656769737472792e736f6c0000000000008152506060019250505060405180910390a17f0193a79eaa200f037162b94be4260ea71c18b70db265b9107c3eca79c5b6380a601260405180806020018381526020018281038252605a8152602001807f2f55736572732f73686f6b6973686f6b692f646576656c6f706d656e742f636f81526020017f6e73656e7379732f646973747269627574652f636f6e7472616374732f636f6e81526020017f7472616374732f50726f6a65637452656769737472792e736f6c0000000000008152506060019250505060405180910390a18092505050979650505050505050565b7fb2a99b28b0b83961661e058eb3408ee38de876f43b0525042d8cca709e5b8119600460405180806020018381526020018281038252605a8152602001807f2f55736572732f73686f6b6973686f6b692f646576656c6f706d656e742f636f81526020017f6e73656e7379732f646973747269627574652f636f6e7472616374732f636f6e81526020017f7472616374732f50726f6a65637452656769737472792e736f6c0000000000008152506060019250505060405180910390a17fb7509a7b70cc84e1f34502fae8101dd25f39fa8bdf2729ed20b3bac1db82fa88605660405180806020018381526020018281038252605a8152602001807f2f55736572732f73686f6b6973686f6b692f646576656c6f706d656e742f636f81526020017f6e73656e7379732f646973747269627574652f636f6e7472616374732f636f6e81526020017f7472616374732f50726f6a65637452656769737472792e736f6c0000000000008152506060019250505060405180910390a17fffd77e43b890df3f40a8c35c2f0ecbbc681f52d886ca1bd2a64469ea232029cc600460405180806020018381526020018281038252605a8152602001807f2f55736572732f73686f6b6973686f6b692f646576656c6f706d656e742f636f81526020017f6e73656e7379732f646973747269627574652f636f6e7472616374732f636f6e81526020017f7472616374732f50726f6a65637452656769737472792e736f6c0000000000008152506060019250505060405180910390a17f0193a79eaa200f037162b94be4260ea71c18b70db265b9107c3eca79c5b6380a600460405180806020018381526020018281038252605a8152602001807f2f55736572732f73686f6b6973686f6b692f646576656c6f706d656e742f636f81526020017f6e73656e7379732f646973747269627574652f636f6e7472616374732f636f6e81526020017f7472616374732f50726f6a65637452656769737472792e736f6c0000000000008152506060019250505060405180910390a16000600160009054906101000a900473ffffffffffffffffffffffffffffffffffffffff1673ffffffffffffffffffffffffffffffffffffffff1614801562001aef57506000600260009054906101000a900473ffffffffffffffffffffffffffffffffffffffff1673ffffffffffffffffffffffffffffffffffffffff16145b801562001b3457506000600360009054906101000a900473ffffffffffffffffffffffffffffffffffffffff1673ffffffffffffffffffffffffffffffffffffffff16145b151562001b4057600080fd5b7fe3467b15b248ac5a1f88dc95f811bc35e0bcae2b45fef32410cab12b29240fe7600460405180806020018381526020018281038252605a8152602001807f2f55736572732f73686f6b6973686f6b692f646576656c6f706d656e742f636f81526020017f6e73656e7379732f646973747269627574652f636f6e7472616374732f636f6e81526020017f7472616374732f50726f6a65637452656769737472792e736f6c0000000000008152506060019250505060405180910390a17fb7509a7b70cc84e1f34502fae8101dd25f39fa8bdf2729ed20b3bac1db82fa88605b60405180806020018381526020018281038252605a8152602001807f2f55736572732f73686f6b6973686f6b692f646576656c6f706d656e742f636f81526020017f6e73656e7379732f646973747269627574652f636f6e7472616374732f636f6e81526020017f7472616374732f50726f6a65637452656769737472792e736f6c0000000000008152506060019250505060405180910390a17f0193a79eaa200f037162b94be4260ea71c18b70db265b9107c3eca79c5b6380a600560405180806020018381526020018281038252605a8152602001807f2f55736572732f73686f6b6973686f6b692f646576656c6f706d656e742f636f81526020017f6e73656e7379732f646973747269627574652f636f6e7472616374732f636f6e81526020017f7472616374732f50726f6a65637452656769737472792e736f6c0000000000008152506060019250505060405180910390a183600360006101000a81548173ffffffffffffffffffffffffffffffffffffffff021916908373ffffffffffffffffffffffffffffffffffffffff1602179055507fb7509a7b70cc84e1f34502fae8101dd25f39fa8bdf2729ed20b3bac1db82fa88605c60405180806020018381526020018281038252605a8152602001807f2f55736572732f73686f6b6973686f6b692f646576656c6f706d656e742f636f81526020017f6e73656e7379732f646973747269627574652f636f6e7472616374732f636f6e81526020017f7472616374732f50726f6a65637452656769737472792e736f6c0000000000008152506060019250505060405180910390a17f0193a79eaa200f037162b94be4260ea71c18b70db265b9107c3eca79c5b6380a600660405180806020018381526020018281038252605a8152602001807f2f55736572732f73686f6b6973686f6b692f646576656c6f706d656e742f636f81526020017f6e73656e7379732f646973747269627574652f636f6e7472616374732f636f6e81526020017f7472616374732f50726f6a65637452656769737472792e736f6c0000000000008152506060019250505060405180910390a182600160006101000a81548173ffffffffffffffffffffffffffffffffffffffff021916908373ffffffffffffffffffffffffffffffffffffffff1602179055507fb7509a7b70cc84e1f34502fae8101dd25f39fa8bdf2729ed20b3bac1db82fa88605d60405180806020018381526020018281038252605a8152602001807f2f55736572732f73686f6b6973686f6b692f646576656c6f706d656e742f636f81526020017f6e73656e7379732f646973747269627574652f636f6e7472616374732f636f6e81526020017f7472616374732f50726f6a65637452656769737472792e736f6c0000000000008152506060019250505060405180910390a17f0193a79eaa200f037162b94be4260ea71c18b70db265b9107c3eca79c5b6380a600760405180806020018381526020018281038252605a8152602001807f2f55736572732f73686f6b6973686f6b692f646576656c6f706d656e742f636f81526020017f6e73656e7379732f646973747269627574652f636f6e7472616374732f636f6e81526020017f7472616374732f50726f6a65637452656769737472792e736f6c0000000000008152506060019250505060405180910390a181600260006101000a81548173ffffffffffffffffffffffffffffffffffffffff021916908373ffffffffffffffffffffffffffffffffffffffff1602179055507fb7509a7b70cc84e1f34502fae8101dd25f39fa8bdf2729ed20b3bac1db82fa88605e60405180806020018381526020018281038252605a8152602001807f2f55736572732f73686f6b6973686f6b692f646576656c6f706d656e742f636f81526020017f6e73656e7379732f646973747269627574652f636f6e7472616374732f636f6e81526020017f7472616374732f50726f6a65637452656769737472792e736f6c0000000000008152506060019250505060405180910390a17f0193a79eaa200f037162b94be4260ea71c18b70db265b9107c3eca79c5b6380a600860405180806020018381526020018281038252605a8152602001807f2f55736572732f73686f6b6973686f6b692f646576656c6f706d656e742f636f81526020017f6e73656e7379732f646973747269627574652f636f6e7472616374732f636f6e81526020017f7472616374732f50726f6a65637452656769737472792e736f6c0000000000008152506060019250505060405180910390a1806000806101000a81548173ffffffffffffffffffffffffffffffffffffffff021916908373ffffffffffffffffffffffffffffffffffffffff16021790555050505050565b60007fb2a99b28b0b83961661e058eb3408ee38de876f43b0525042d8cca709e5b8119600560405180806020018381526020018281038252605a8152602001807f2f55736572732f73686f6b6973686f6b692f646576656c6f706d656e742f636f81526020017f6e73656e7379732f646973747269627574652f636f6e7472616374732f636f6e81526020017f7472616374732f50726f6a65637452656769737472792e736f6c0000000000008152506060019250505060405180910390a17fb7509a7b70cc84e1f34502fae8101dd25f39fa8bdf2729ed20b3bac1db82fa88606c60405180806020018381526020018281038252605a8152602001807f2f55736572732f73686f6b6973686f6b692f646576656c6f706d656e742f636f81526020017f6e73656e7379732f646973747269627574652f636f6e7472616374732f636f6e81526020017f7472616374732f50726f6a65637452656769737472792e736f6c0000000000008152506060019250505060405180910390a17f0193a79eaa200f037162b94be4260ea71c18b70db265b9107c3eca79c5b6380a600960405180806020018381526020018281038252605a8152602001807f2f55736572732f73686f6b6973686f6b692f646576656c6f706d656e742f636f81526020017f6e73656e7379732f646973747269627574652f636f6e7472616374732f636f6e81526020017f7472616374732f50726f6a65637452656769737472792e736f6c0000000000008152506060019250505060405180910390a18173ffffffffffffffffffffffffffffffffffffffff1673__ProjectLibrary________________________63247f8e1490916000604051602001526040518263ffffffff167c0100000000000000000000000000000000000000000000000000000000028152600401808273ffffffffffffffffffffffffffffffffffffffff1673ffffffffffffffffffffffffffffffffffffffff16815260200191505060206040518083038186803b1515620025df57600080fd5b6102c65a03f41515620025f157600080fd5b505050604051805190509050919050565b60007fb2a99b28b0b83961661e058eb3408ee38de876f43b0525042d8cca709e5b8119600960405180806020018381526020018281038252605a8152602001807f2f55736572732f73686f6b6973686f6b692f646576656c6f706d656e742f636f81526020017f6e73656e7379732f646973747269627574652f636f6e7472616374732f636f6e81526020017f7472616374732f50726f6a65637452656769737472792e736f6c0000000000008152506060019250505060405180910390a17fb7509a7b70cc84e1f34502fae8101dd25f39fa8bdf2729ed20b3bac1db82fa88609560405180806020018381526020018281038252605a8152602001807f2f55736572732f73686f6b6973686f6b692f646576656c6f706d656e742f636f81526020017f6e73656e7379732f646973747269627574652f636f6e7472616374732f636f6e81526020017f7472616374732f50726f6a65637452656769737472792e736f6c0000000000008152506060019250505060405180910390a18173ffffffffffffffffffffffffffffffffffffffff1673__ProjectLibrary________________________638e692ec39091600160009054906101000a900473ffffffffffffffffffffffffffffffffffffffff16600360009054906101000a900473ffffffffffffffffffffffffffffffffffffffff166000809054906101000a900473ffffffffffffffffffffffffffffffffffffffff166000604051602001526040518563ffffffff167c0100000000000000000000000000000000000000000000000000000000028152600401808573ffffffffffffffffffffffffffffffffffffffff1673ffffffffffffffffffffffffffffffffffffffff1681526020018473ffffffffffffffffffffffffffffffffffffffff1673ffffffffffffffffffffffffffffffffffffffff1681526020018373ffffffffffffffffffffffffffffffffffffffff1673ffffffffffffffffffffffffffffffffffffffff1681526020018273ffffffffffffffffffffffffffffffffffffffff1673ffffffffffffffffffffffffffffffffffffffff16815260200194505050505060206040518083038186803b15156200293757600080fd5b6102c65a03f415156200294957600080fd5b50505060405180519050507fb7509a7b70cc84e1f34502fae8101dd25f39fa8bdf2729ed20b3bac1db82fa88609660405180806020018381526020018281038252605a8152602001807f2f55736572732f73686f6b6973686f6b692f646576656c6f706d656e742f636f81526020017f6e73656e7379732f646973747269627574652f636f6e7472616374732f636f6e81526020017f7472616374732f50726f6a65637452656769737472792e736f6c0000000000008152506060019250505060405180910390a17f0193a79eaa200f037162b94be4260ea71c18b70db265b9107c3eca79c5b6380a600b60405180806020018381526020018281038252605a8152602001807f2f55736572732f73686f6b6973686f6b692f646576656c6f706d656e742f636f81526020017f6e73656e7379732f646973747269627574652f636f6e7472616374732f636f6e81526020017f7472616374732f50726f6a65637452656769737472792e736f6c0000000000008152506060019250505060405180910390a18190507fb7509a7b70cc84e1f34502fae8101dd25f39fa8bdf2729ed20b3bac1db82fa88609760405180806020018381526020018281038252605a8152602001807f2f55736572732f73686f6b6973686f6b692f646576656c6f706d656e742f636f81526020017f6e73656e7379732f646973747269627574652f636f6e7472616374732f636f6e81526020017f7472616374732f50726f6a65637452656769737472792e736f6c0000000000008152506060019250505060405180910390a17f0193a79eaa200f037162b94be4260ea71c18b70db265b9107c3eca79c5b6380a600c60405180806020018381526020018281038252605a8152602001807f2f55736572732f73686f6b6973686f6b692f646576656c6f706d656e742f636f81526020017f6e73656e7379732f646973747269627574652f636f6e7472616374732f636f6e81526020017f7472616374732f50726f6a65637452656769737472792e736f6c0000000000008152506060019250505060405180910390a160078173ffffffffffffffffffffffffffffffffffffffff1663c19d93fb6000604051602001526040518163ffffffff167c0100000000000000000000000000000000000000000000000000000000028152600401602060405180830381600087803b151562002cba57600080fd5b6102c65a03f1151562002ccc57600080fd5b5050506040518051905014156200342f577fd84eaebda198bac47526b78316f8f1e4e4e3efd18672e1cb0b3bc7fb43da50ae6005600060405180806020018481526020018381526020018281038252605a8152602001807f2f55736572732f73686f6b6973686f6b692f646576656c6f706d656e742f636f81526020017f6e73656e7379732f646973747269627574652f636f6e7472616374732f636f6e81526020017f7472616374732f50726f6a65637452656769737472792e736f6c000000000000815250606001935050505060405180910390a17fb7509a7b70cc84e1f34502fae8101dd25f39fa8bdf2729ed20b3bac1db82fa88609860405180806020018381526020018281038252605a8152602001807f2f55736572732f73686f6b6973686f6b692f646576656c6f706d656e742f636f81526020017f6e73656e7379732f646973747269627574652f636f6e7472616374732f636f6e81526020017f7472616374732f50726f6a65637452656769737472792e736f6c0000000000008152506060019250505060405180910390a17f0193a79eaa200f037162b94be4260ea71c18b70db265b9107c3eca79c5b6380a600d60405180806020018381526020018281038252605a8152602001807f2f55736572732f73686f6b6973686f6b692f646576656c6f706d656e742f636f81526020017f6e73656e7379732f646973747269627574652f636f6e7472616374732f636f6e81526020017f7472616374732f50726f6a65637452656769737472792e736f6c0000000000008152506060019250505060405180910390a1600160009054906101000a900473ffffffffffffffffffffffffffffffffffffffff1673ffffffffffffffffffffffffffffffffffffffff16636d1b229d8273ffffffffffffffffffffffffffffffffffffffff166399a033166000604051602001526040518163ffffffff167c0100000000000000000000000000000000000000000000000000000000028152600401602060405180830381600087803b151562002fc857600080fd5b6102c65a03f1151562002fda57600080fd5b505050604051805190506040518263ffffffff167c010000000000000000000000000000000000000000000000000000000002815260040180828152602001915050600060405180830381600087803b15156200303657600080fd5b6102c65a03f115156200304857600080fd5b5050507fb7509a7b70cc84e1f34502fae8101dd25f39fa8bdf2729ed20b3bac1db82fa88609960405180806020018381526020018281038252605a8152602001807f2f55736572732f73686f6b6973686f6b692f646576656c6f706d656e742f636f81526020017f6e73656e7379732f646973747269627574652f636f6e7472616374732f636f6e81526020017f7472616374732f50726f6a65637452656769737472792e736f6c0000000000008152506060019250505060405180910390a17f0193a79eaa200f037162b94be4260ea71c18b70db265b9107c3eca79c5b6380a600e60405180806020018381526020018281038252605a8152602001807f2f55736572732f73686f6b6973686f6b692f646576656c6f706d656e742f636f81526020017f6e73656e7379732f646973747269627574652f636f6e7472616374732f636f6e81526020017f7472616374732f50726f6a65637452656769737472792e736f6c0000000000008152506060019250505060405180910390a1600260009054906101000a900473ffffffffffffffffffffffffffffffffffffffff1673ffffffffffffffffffffffffffffffffffffffff16639c6c34398273ffffffffffffffffffffffffffffffffffffffff1663b23dcdaf6000604051602001526040518163ffffffff167c0100000000000000000000000000000000000000000000000000000000028152600401602060405180830381600087803b15156200327057600080fd5b6102c65a03f115156200328257600080fd5b505050604051805190506040518263ffffffff167c010000000000000000000000000000000000000000000000000000000002815260040180828152602001915050600060405180830381600087803b1515620032de57600080fd5b6102c65a03f11515620032f057600080fd5b5050507fb7509a7b70cc84e1f34502fae8101dd25f39fa8bdf2729ed20b3bac1db82fa88609a60405180806020018381526020018281038252605a8152602001807f2f55736572732f73686f6b6973686f6b692f646576656c6f706d656e742f636f81526020017f6e73656e7379732f646973747269627574652f636f6e7472616374732f636f6e81526020017f7472616374732f50726f6a65637452656769737472792e736f6c0000000000008152506060019250505060405180910390a18073ffffffffffffffffffffffffffffffffffffffff1663476da5666040518163ffffffff167c0100000000000000000000000000000000000000000000000000000000028152600401600060405180830381600087803b15156200341457600080fd5b6102c65a03f115156200342657600080fd5b505050620034f6565b7fd84eaebda198bac47526b78316f8f1e4e4e3efd18672e1cb0b3bc7fb43da50ae6005600160405180806020018481526020018381526020018281038252605a8152602001807f2f55736572732f73686f6b6973686f6b692f646576656c6f706d656e742f636f81526020017f6e73656e7379732f646973747269627574652f636f6e7472616374732f636f6e81526020017f7472616374732f50726f6a65637452656769737472792e736f6c000000000000815250606001935050505060405180910390a15b5050565b7fb2a99b28b0b83961661e058eb3408ee38de876f43b0525042d8cca709e5b8119600760405180806020018381526020018281038252605a8152602001807f2f55736572732f73686f6b6973686f6b692f646576656c6f706d656e742f636f81526020017f6e73656e7379732f646973747269627574652f636f6e7472616374732f636f6e81526020017f7472616374732f50726f6a65637452656769737472792e736f6c0000000000008152506060019250505060405180910390a17fb7509a7b70cc84e1f34502fae8101dd25f39fa8bdf2729ed20b3bac1db82fa88608160405180806020018381526020018281038252605a8152602001807f2f55736572732f73686f6b6973686f6b692f646576656c6f706d656e742f636f81526020017f6e73656e7379732f646973747269627574652f636f6e7472616374732f636f6e81526020017f7472616374732f50726f6a65637452656769737472792e736f6c0000000000008152506060019250505060405180910390a18073ffffffffffffffffffffffffffffffffffffffff1673__ProjectLibrary________________________63af8e4c769091600160009054906101000a900473ffffffffffffffffffffffffffffffffffffffff16600360009054906101000a900473ffffffffffffffffffffffffffffffffffffffff166000604051602001526040518463ffffffff167c0100000000000000000000000000000000000000000000000000000000028152600401808473ffffffffffffffffffffffffffffffffffffffff1673ffffffffffffffffffffffffffffffffffffffff1681526020018373ffffffffffffffffffffffffffffffffffffffff1673ffffffffffffffffffffffffffffffffffffffff1681526020018273ffffffffffffffffffffffffffffffffffffffff1673ffffffffffffffffffffffffffffffffffffffff168152602001935050505060206040518083038186803b1515620037d857600080fd5b6102c65a03f41515620037ea57600080fd5b505050604051805190505050565b6000807fb2a99b28b0b83961661e058eb3408ee38de876f43b0525042d8cca709e5b8119600260405180806020018381526020018281038252605a8152602001807f2f55736572732f73686f6b6973686f6b692f646576656c6f706d656e742f636f81526020017f6e73656e7379732f646973747269627574652f636f6e7472616374732f636f6e81526020017f7472616374732f50726f6a65637452656769737472792e736f6c0000000000008152506060019250505060405180910390a17fb7509a7b70cc84e1f34502fae8101dd25f39fa8bdf2729ed20b3bac1db82fa88603b60405180806020018381526020018281038252605a8152602001807f2f55736572732f73686f6b6973686f6b692f646576656c6f706d656e742f636f81526020017f6e73656e7379732f646973747269627574652f636f6e7472616374732f636f6e81526020017f7472616374732f50726f6a65637452656769737472792e736f6c0000000000008152506060019250505060405180910390a17fffd77e43b890df3f40a8c35c2f0ecbbc681f52d886ca1bd2a64469ea232029cc600260405180806020018381526020018281038252605a8152602001807f2f55736572732f73686f6b6973686f6b692f646576656c6f706d656e742f636f81526020017f6e73656e7379732f646973747269627574652f636f6e7472616374732f636f6e81526020017f7472616374732f50726f6a65637452656769737472792e736f6c0000000000008152506060019250505060405180910390a17f0193a79eaa200f037162b94be4260ea71c18b70db265b9107c3eca79c5b6380a600260405180806020018381526020018281038252605a8152602001807f2f55736572732f73686f6b6973686f6b692f646576656c6f706d656e742f636f81526020017f6e73656e7379732f646973747269627574652f636f6e7472616374732f636f6e81526020017f7472616374732f50726f6a65637452656769737472792e736f6c0000000000008152506060019250505060405180910390a1600260009054906101000a900473ffffffffffffffffffffffffffffffffffffffff1673ffffffffffffffffffffffffffffffffffffffff163373ffffffffffffffffffffffffffffffffffffffff1614151562003b4c57600080fd5b7fe3467b15b248ac5a1f88dc95f811bc35e0bcae2b45fef32410cab12b29240fe7600260405180806020018381526020018281038252605a8152602001807f2f55736572732f73686f6b6973686f6b692f646576656c6f706d656e742f636f81526020017f6e73656e7379732f646973747269627574652f636f6e7472616374732f636f6e81526020017f7472616374732f50726f6a65637452656769737472792e736f6c0000000000008152506060019250505060405180910390a17fb7509a7b70cc84e1f34502fae8101dd25f39fa8bdf2729ed20b3bac1db82fa88603c60405180806020018381526020018281038252605a8152602001807f2f55736572732f73686f6b6973686f6b692f646576656c6f706d656e742f636f81526020017f6e73656e7379732f646973747269627574652f636f6e7472616374732f636f6e81526020017f7472616374732f50726f6a65637452656769737472792e736f6c0000000000008152506060019250505060405180910390a17fb2a99b28b0b83961661e058eb3408ee38de876f43b0525042d8cca709e5b8119600f60405180806020018381526020018281038252605a8152602001807f2f55736572732f73686f6b6973686f6b692f646576656c6f706d656e742f636f81526020017f6e73656e7379732f646973747269627574652f636f6e7472616374732f636f6e81526020017f7472616374732f50726f6a65637452656769737472792e736f6c0000000000008152506060019250505060405180910390a17fb7509a7b70cc84e1f34502fae8101dd25f39fa8bdf2729ed20b3bac1db82fa8861013e60405180806020018381526020018281038252605a8152602001807f2f55736572732f73686f6b6973686f6b692f646576656c6f706d656e742f636f81526020017f6e73656e7379732f646973747269627574652f636f6e7472616374732f636f6e81526020017f7472616374732f50726f6a65637452656769737472792e736f6c0000000000008152506060019250505060405180910390a17f0193a79eaa200f037162b94be4260ea71c18b70db265b9107c3eca79c5b6380a602b60405180806020018381526020018281038252605a8152602001807f2f55736572732f73686f6b6973686f6b692f646576656c6f706d656e742f636f81526020017f6e73656e7379732f646973747269627574652f636f6e7472616374732f636f6e81526020017f7472616374732f50726f6a65637452656769737472792e736f6c0000000000008152506060019250505060405180910390a18891507fb7509a7b70cc84e1f34502fae8101dd25f39fa8bdf2729ed20b3bac1db82fa8861013f60405180806020018381526020018281038252605a8152602001807f2f55736572732f73686f6b6973686f6b692f646576656c6f706d656e742f636f81526020017f6e73656e7379732f646973747269627574652f636f6e7472616374732f636f6e81526020017f7472616374732f50726f6a65637452656769737472792e736f6c0000000000008152506060019250505060405180910390a17fffd77e43b890df3f40a8c35c2f0ecbbc681f52d886ca1bd2a64469ea232029cc600d60405180806020018381526020018281038252605a8152602001807f2f55736572732f73686f6b6973686f6b692f646576656c6f706d656e742f636f81526020017f6e73656e7379732f646973747269627574652f636f6e7472616374732f636f6e81526020017f7472616374732f50726f6a65637452656769737472792e736f6c0000000000008152506060019250505060405180910390a17f0193a79eaa200f037162b94be4260ea71c18b70db265b9107c3eca79c5b6380a602c60405180806020018381526020018281038252605a8152602001807f2f55736572732f73686f6b6973686f6b692f646576656c6f706d656e742f636f81526020017f6e73656e7379732f646973747269627574652f636f6e7472616374732f636f6e81526020017f7472616374732f50726f6a65637452656769737472792e736f6c0000000000008152506060019250505060405180910390a160038273ffffffffffffffffffffffffffffffffffffffff1663c19d93fb6000604051602001526040518163ffffffff167c0100000000000000000000000000000000000000000000000000000000028152600401602060405180830381600087803b1515620041a857600080fd5b6102c65a03f11515620041ba57600080fd5b50505060405180519050141515620041d157600080fd5b7fe3467b15b248ac5a1f88dc95f811bc35e0bcae2b45fef32410cab12b29240fe7600d60405180806020018381526020018281038252605a8152602001807f2f55736572732f73686f6b6973686f6b692f646576656c6f706d656e742f636f81526020017f6e73656e7379732f646973747269627574652f636f6e7472616374732f636f6e81526020017f7472616374732f50726f6a65637452656769737472792e736f6c0000000000008152506060019250505060405180910390a17fb7509a7b70cc84e1f34502fae8101dd25f39fa8bdf2729ed20b3bac1db82fa8861014060405180806020018381526020018281038252605a8152602001807f2f55736572732f73686f6b6973686f6b692f646576656c6f706d656e742f636f81526020017f6e73656e7379732f646973747269627574652f636f6e7472616374732f636f6e81526020017f7472616374732f50726f6a65637452656769737472792e736f6c0000000000008152506060019250505060405180910390a17f0193a79eaa200f037162b94be4260ea71c18b70db265b9107c3eca79c5b6380a602d60405180806020018381526020018281038252605a8152602001807f2f55736572732f73686f6b6973686f6b692f646576656c6f706d656e742f636f81526020017f6e73656e7379732f646973747269627574652f636f6e7472616374732f636f6e81526020017f7472616374732f50726f6a65637452656769737472792e736f6c0000000000008152506060019250505060405180910390a18173ffffffffffffffffffffffffffffffffffffffff16638d977672896000604051602001526040518263ffffffff167c010000000000000000000000000000000000000000000000000000000002815260040180828152602001915050602060405180830381600087803b15156200448157600080fd5b6102c65a03f115156200449357600080fd5b5050506040518051905090507fb7509a7b70cc84e1f34502fae8101dd25f39fa8bdf2729ed20b3bac1db82fa8861014160405180806020018381526020018281038252605a8152602001807f2f55736572732f73686f6b6973686f6b692f646576656c6f706d656e742f636f81526020017f6e73656e7379732f646973747269627574652f636f6e7472616374732f636f6e81526020017f7472616374732f50726f6a65637452656769737472792e736f6c0000000000008152506060019250505060405180910390a17fffd77e43b890df3f40a8c35c2f0ecbbc681f52d886ca1bd2a64469ea232029cc600e60405180806020018381526020018281038252605a8152602001807f2f55736572732f73686f6b6973686f6b692f646576656c6f706d656e742f636f81526020017f6e73656e7379732f646973747269627574652f636f6e7472616374732f636f6e81526020017f7472616374732f50726f6a65637452656769737472792e736f6c0000000000008152506060019250505060405180910390a17f0193a79eaa200f037162b94be4260ea71c18b70db265b9107c3eca79c5b6380a602e60405180806020018381526020018281038252605a8152602001807f2f55736572732f73686f6b6973686f6b692f646576656c6f706d656e742f636f81526020017f6e73656e7379732f646973747269627574652f636f6e7472616374732f636f6e81526020017f7472616374732f50726f6a65637452656769737472792e736f6c0000000000008152506060019250505060405180910390a18073ffffffffffffffffffffffffffffffffffffffff1663b3e9fd2c6000604051602001526040518163ffffffff167c0100000000000000000000000000000000000000000000000000000000028152600401602060405180830381600087803b15156200474457600080fd5b6102c65a03f115156200475657600080fd5b50505060405180519050600019168786604051808360001916600019168152602001828152602001925050506040518091039020600019161415156200479b57600080fd5b7fe3467b15b248ac5a1f88dc95f811bc35e0bcae2b45fef32410cab12b29240fe7600e60405180806020018381526020018281038252605a8152602001807f2f55736572732f73686f6b6973686f6b692f646576656c6f706d656e742f636f81526020017f6e73656e7379732f646973747269627574652f636f6e7472616374732f636f6e81526020017f7472616374732f50726f6a65637452656769737472792e736f6c0000000000008152506060019250505060405180910390a17fb7509a7b70cc84e1f34502fae8101dd25f39fa8bdf2729ed20b3bac1db82fa8861014260405180806020018381526020018281038252605a8152602001807f2f55736572732f73686f6b6973686f6b692f646576656c6f706d656e742f636f81526020017f6e73656e7379732f646973747269627574652f636f6e7472616374732f636f6e81526020017f7472616374732f50726f6a65637452656769737472792e736f6c0000000000008152506060019250505060405180910390a17fffd77e43b890df3f40a8c35c2f0ecbbc681f52d886ca1bd2a64469ea232029cc600f60405180806020018381526020018281038252605a8152602001807f2f55736572732f73686f6b6973686f6b692f646576656c6f706d656e742f636f81526020017f6e73656e7379732f646973747269627574652f636f6e7472616374732f636f6e81526020017f7472616374732f50726f6a65637452656769737472792e736f6c0000000000008152506060019250505060405180910390a17f0193a79eaa200f037162b94be4260ea71c18b70db265b9107c3eca79c5b6380a602f60405180806020018381526020018281038252605a8152602001807f2f55736572732f73686f6b6973686f6b692f646576656c6f706d656e742f636f81526020017f6e73656e7379732f646973747269627574652f636f6e7472616374732f636f6e81526020017f7472616374732f50726f6a65637452656769737472792e736f6c0000000000008152506060019250505060405180910390a160008173ffffffffffffffffffffffffffffffffffffffff1663d379be236000604051602001526040518163ffffffff167c0100000000000000000000000000000000000000000000000000000000028152600401602060405180830381600087803b151562004aff57600080fd5b6102c65a03f1151562004b1157600080fd5b5050506040518051905073ffffffffffffffffffffffffffffffffffffffff16148062004ce257508173ffffffffffffffffffffffffffffffffffffffff16635a6fb81f6000604051602001526040518163ffffffff167c0100000000000000000000000000000000000000000000000000000000028152600401602060405180830381600087803b151562004ba657600080fd5b6102c65a03f1151562004bb857600080fd5b505050604051805190508173ffffffffffffffffffffffffffffffffffffffff166327b3bf116000604051602001526040518163ffffffff167c0100000000000000000000000000000000000000000000000000000000028152600401602060405180830381600087803b151562004c2f57600080fd5b6102c65a03f1151562004c4157600080fd5b50505060405180519050014211801562004ce157508073ffffffffffffffffffffffffffffffffffffffff1663522e11776000604051602001526040518163ffffffff167c0100000000000000000000000000000000000000000000000000000000028152600401602060405180830381600087803b151562004cc357600080fd5b6102c65a03f1151562004cd557600080fd5b50505060405180519050155b5b151562004cee57600080fd5b7fe3467b15b248ac5a1f88dc95f811bc35e0bcae2b45fef32410cab12b29240fe7600f60405180806020018381526020018281038252605a8152602001807f2f55736572732f73686f6b6973686f6b692f646576656c6f706d656e742f636f81526020017f6e73656e7379732f646973747269627574652f636f6e7472616374732f636f6e81526020017f7472616374732f50726f6a65637452656769737472792e736f6c0000000000008152506060019250505060405180910390a17fb7509a7b70cc84e1f34502fae8101dd25f39fa8bdf2729ed20b3bac1db82fa8861014660405180806020018381526020018281038252605a8152602001807f2f55736572732f73686f6b6973686f6b692f646576656c6f706d656e742f636f81526020017f6e73656e7379732f646973747269627574652f636f6e7472616374732f636f6e81526020017f7472616374732f50726f6a65637452656769737472792e736f6c0000000000008152506060019250505060405180910390a18073ffffffffffffffffffffffffffffffffffffffff16630a139925866040518263ffffffff167c010000000000000000000000000000000000000000000000000000000002815260040180828152602001915050600060405180830381600087803b151562004ed857600080fd5b6102c65a03f1151562004eea57600080fd5b5050507fb7509a7b70cc84e1f34502fae8101dd25f39fa8bdf2729ed20b3bac1db82fa8861014760405180806020018381526020018281038252605a8152602001807f2f55736572732f73686f6b6973686f6b692f646576656c6f706d656e742f636f81526020017f6e73656e7379732f646973747269627574652f636f6e7472616374732f636f6e81526020017f7472616374732f50726f6a65637452656769737472792e736f6c0000000000008152506060019250505060405180910390a18073ffffffffffffffffffffffffffffffffffffffff166373cc18da8585896040518463ffffffff167c0100000000000000000000000000000000000000000000000000000000028152600401808481526020018381526020018273ffffffffffffffffffffffffffffffffffffffff1673ffffffffffffffffffffffffffffffffffffffff1681526020019350505050600060405180830381600087803b15156200505657600080fd5b6102c65a03f115156200506857600080fd5b505050505050505050505050565b620050806200a8f1565b60006200508c6200a8f1565b7fb2a99b28b0b83961661e058eb3408ee38de876f43b0525042d8cca709e5b8119600360405180806020018381526020018281038252605a8152602001807f2f55736572732f73686f6b6973686f6b692f646576656c6f706d656e742f636f81526020017f6e73656e7379732f646973747269627574652f636f6e7472616374732f636f6e81526020017f7472616374732f50726f6a65637452656769737472792e736f6c0000000000008152506060019250505060405180910390a17fb7509a7b70cc84e1f34502fae8101dd25f39fa8bdf2729ed20b3bac1db82fa88603f60405180806020018381526020018281038252605a8152602001807f2f55736572732f73686f6b6973686f6b692f646576656c6f706d656e742f636f81526020017f6e73656e7379732f646973747269627574652f636f6e7472616374732f636f6e81526020017f7472616374732f50726f6a65637452656769737472792e736f6c0000000000008152506060019250505060405180910390a17fffd77e43b890df3f40a8c35c2f0ecbbc681f52d886ca1bd2a64469ea232029cc600360405180806020018381526020018281038252605a8152602001807f2f55736572732f73686f6b6973686f6b692f646576656c6f706d656e742f636f81526020017f6e73656e7379732f646973747269627574652f636f6e7472616374732f636f6e81526020017f7472616374732f50726f6a65637452656769737472792e736f6c0000000000008152506060019250505060405180910390a17f0193a79eaa200f037162b94be4260ea71c18b70db265b9107c3eca79c5b6380a600360405180806020018381526020018281038252605a8152602001807f2f55736572732f73686f6b6973686f6b692f646576656c6f706d656e742f636f81526020017f6e73656e7379732f646973747269627574652f636f6e7472616374732f636f6e81526020017f7472616374732f50726f6a65637452656769737472792e736f6c0000000000008152506060019250505060405180910390a1600160009054906101000a900473ffffffffffffffffffffffffffffffffffffffff1673ffffffffffffffffffffffffffffffffffffffff163373ffffffffffffffffffffffffffffffffffffffff1614806200542a5750600260009054906101000a900473ffffffffffffffffffffffffffffffffffffffff1673ffffffffffffffffffffffffffffffffffffffff163373ffffffffffffffffffffffffffffffffffffffff16145b15156200543657600080fd5b7fe3467b15b248ac5a1f88dc95f811bc35e0bcae2b45fef32410cab12b29240fe7600360405180806020018381526020018281038252605a8152602001807f2f55736572732f73686f6b6973686f6b692f646576656c6f706d656e742f636f81526020017f6e73656e7379732f646973747269627574652f636f6e7472616374732f636f6e81526020017f7472616374732f50726f6a65637452656769737472792e736f6c0000000000008152506060019250505060405180910390a17fb7509a7b70cc84e1f34502fae8101dd25f39fa8bdf2729ed20b3bac1db82fa886040805180806020018381526020018281038252605a8152602001807f2f55736572732f73686f6b6973686f6b692f646576656c6f706d656e742f636f81526020017f6e73656e7379732f646973747269627574652f636f6e7472616374732f636f6e81526020017f7472616374732f50726f6a65637452656769737472792e736f6c0000000000008152506060019250505060405180910390a17fb2a99b28b0b83961661e058eb3408ee38de876f43b0525042d8cca709e5b8119600b60405180806020018381526020018281038252605a8152602001807f2f55736572732f73686f6b6973686f6b692f646576656c6f706d656e742f636f81526020017f6e73656e7379732f646973747269627574652f636f6e7472616374732f636f6e81526020017f7472616374732f50726f6a65637452656769737472792e736f6c0000000000008152506060019250505060405180910390a17fb7509a7b70cc84e1f34502fae8101dd25f39fa8bdf2729ed20b3bac1db82fa8860d360405180806020018381526020018281038252605a8152602001807f2f55736572732f73686f6b6973686f6b692f646576656c6f706d656e742f636f81526020017f6e73656e7379732f646973747269627574652f636f6e7472616374732f636f6e81526020017f7472616374732f50726f6a65637452656769737472792e736f6c0000000000008152506060019250505060405180910390a17f0193a79eaa200f037162b94be4260ea71c18b70db265b9107c3eca79c5b6380a601360405180806020018381526020018281038252605a8152602001807f2f55736572732f73686f6b6973686f6b692f646576656c6f706d656e742f636f81526020017f6e73656e7379732f646973747269627574652f636f6e7472616374732f636f6e81526020017f7472616374732f50726f6a65637452656769737472792e736f6c0000000000008152506060019250505060405180910390a18391507fb7509a7b70cc84e1f34502fae8101dd25f39fa8bdf2729ed20b3bac1db82fa8860d460405180806020018381526020018281038252605a8152602001807f2f55736572732f73686f6b6973686f6b692f646576656c6f706d656e742f636f81526020017f6e73656e7379732f646973747269627574652f636f6e7472616374732f636f6e81526020017f7472616374732f50726f6a65637452656769737472792e736f6c0000000000008152506060019250505060405180910390a17fffd77e43b890df3f40a8c35c2f0ecbbc681f52d886ca1bd2a64469ea232029cc600660405180806020018381526020018281038252605a8152602001807f2f55736572732f73686f6b6973686f6b692f646576656c6f706d656e742f636f81526020017f6e73656e7379732f646973747269627574652f636f6e7472616374732f636f6e81526020017f7472616374732f50726f6a65637452656769737472792e736f6c0000000000008152506060019250505060405180910390a17f0193a79eaa200f037162b94be4260ea71c18b70db265b9107c3eca79c5b6380a601460405180806020018381526020018281038252605a8152602001807f2f55736572732f73686f6b6973686f6b692f646576656c6f706d656e742f636f81526020017f6e73656e7379732f646973747269627574652f636f6e7472616374732f636f6e81526020017f7472616374732f50726f6a65637452656769737472792e736f6c0000000000008152506060019250505060405180910390a160018273ffffffffffffffffffffffffffffffffffffffff1663c19d93fb6000604051602001526040518163ffffffff167c0100000000000000000000000000000000000000000000000000000000028152600401602060405180830381600087803b151562005a8f57600080fd5b6102c65a03f1151562005aa157600080fd5b5050506040518051905011801562005b42575060088273ffffffffffffffffffffffffffffffffffffffff1663c19d93fb6000604051602001526040518163ffffffff167c0100000000000000000000000000000000000000000000000000000000028152600401602060405180830381600087803b151562005b2357600080fd5b6102c65a03f1151562005b3557600080fd5b5050506040518051905014155b151562005b4e57600080fd5b7fe3467b15b248ac5a1f88dc95f811bc35e0bcae2b45fef32410cab12b29240fe7600660405180806020018381526020018281038252605a8152602001807f2f55736572732f73686f6b6973686f6b692f646576656c6f706d656e742f636f81526020017f6e73656e7379732f646973747269627574652f636f6e7472616374732f636f6e81526020017f7472616374732f50726f6a65637452656769737472792e736f6c0000000000008152506060019250505060405180910390a17fb7509a7b70cc84e1f34502fae8101dd25f39fa8bdf2729ed20b3bac1db82fa8860d560405180806020018381526020018281038252605a8152602001807f2f55736572732f73686f6b6973686f6b692f646576656c6f706d656e742f636f81526020017f6e73656e7379732f646973747269627574652f636f6e7472616374732f636f6e81526020017f7472616374732f50726f6a65637452656769737472792e736f6c0000000000008152506060019250505060405180910390a17fffd77e43b890df3f40a8c35c2f0ecbbc681f52d886ca1bd2a64469ea232029cc600760405180806020018381526020018281038252605a8152602001807f2f55736572732f73686f6b6973686f6b692f646576656c6f706d656e742f636f81526020017f6e73656e7379732f646973747269627574652f636f6e7472616374732f636f6e81526020017f7472616374732f50726f6a65637452656769737472792e736f6c0000000000008152506060019250505060405180910390a17f0193a79eaa200f037162b94be4260ea71c18b70db265b9107c3eca79c5b6380a601560405180806020018381526020018281038252605a8152602001807f2f55736572732f73686f6b6973686f6b692f646576656c6f706d656e742f636f81526020017f6e73656e7379732f646973747269627574652f636f6e7472616374732f636f6e81526020017f7472616374732f50726f6a65637452656769737472792e736f6c0000000000008152506060019250505060405180910390a160008273ffffffffffffffffffffffffffffffffffffffff16630c3283066000604051602001526040518163ffffffff167c0100000000000000000000000000000000000000000000000000000000028152600401602060405180830381600087803b151562005eb157600080fd5b6102c65a03f1151562005ec357600080fd5b5050506040518051905011151562005eda57600080fd5b7fe3467b15b248ac5a1f88dc95f811bc35e0bcae2b45fef32410cab12b29240fe7600760405180806020018381526020018281038252605a8152602001807f2f55736572732f73686f6b6973686f6b692f646576656c6f706d656e742f636f81526020017f6e73656e7379732f646973747269627574652f636f6e7472616374732f636f6e81526020017f7472616374732f50726f6a65637452656769737472792e736f6c0000000000008152506060019250505060405180910390a17fb7509a7b70cc84e1f34502fae8101dd25f39fa8bdf2729ed20b3bac1db82fa8860d760405180806020018381526020018281038252605a8152602001807f2f55736572732f73686f6b6973686f6b692f646576656c6f706d656e742f636f81526020017f6e73656e7379732f646973747269627574652f636f6e7472616374732f636f6e81526020017f7472616374732f50726f6a65637452656769737472792e736f6c0000000000008152506060019250505060405180910390a17fb7509a7b70cc84e1f34502fae8101dd25f39fa8bdf2729ed20b3bac1db82fa8860d860405180806020018381526020018281038252605a8152602001807f2f55736572732f73686f6b6973686f6b692f646576656c6f706d656e742f636f81526020017f6e73656e7379732f646973747269627574652f636f6e7472616374732f636f6e81526020017f7472616374732f50726f6a65637452656769737472792e736f6c0000000000008152506060019250505060405180910390a17f0193a79eaa200f037162b94be4260ea71c18b70db265b9107c3eca79c5b6380a601660405180806020018381526020018281038252605a8152602001807f2f55736572732f73686f6b6973686f6b692f646576656c6f706d656e742f636f81526020017f6e73656e7379732f646973747269627574652f636f6e7472616374732f636f6e81526020017f7472616374732f50726f6a65637452656769737472792e736f6c0000000000008152506060019250505060405180910390a18173ffffffffffffffffffffffffffffffffffffffff166312ff35bc6000604051602001526040518163ffffffff167c0100000000000000000000000000000000000000000000000000000000028152600401602060405180830381600087803b15156200623b57600080fd5b6102c65a03f115156200624d57600080fd5b505050604051805190508160006002811015156200626757fe5b6020020181815250507fb7509a7b70cc84e1f34502fae8101dd25f39fa8bdf2729ed20b3bac1db82fa8860d960405180806020018381526020018281038252605a8152602001807f2f55736572732f73686f6b6973686f6b692f646576656c6f706d656e742f636f81526020017f6e73656e7379732f646973747269627574652f636f6e7472616374732f636f6e81526020017f7472616374732f50726f6a65637452656769737472792e736f6c0000000000008152506060019250505060405180910390a17f0193a79eaa200f037162b94be4260ea71c18b70db265b9107c3eca79c5b6380a601760405180806020018381526020018281038252605a8152602001807f2f55736572732f73686f6b6973686f6b692f646576656c6f706d656e742f636f81526020017f6e73656e7379732f646973747269627574652f636f6e7472616374732f636f6e81526020017f7472616374732f50726f6a65637452656769737472792e736f6c0000000000008152506060019250505060405180910390a18173ffffffffffffffffffffffffffffffffffffffff16630c3283066000604051602001526040518163ffffffff167c0100000000000000000000000000000000000000000000000000000000028152600401602060405180830381600087803b15156200645757600080fd5b6102c65a03f115156200646957600080fd5b505050604051805190508160016002811015156200648357fe5b6020020181815250507fb7509a7b70cc84e1f34502fae8101dd25f39fa8bdf2729ed20b3bac1db82fa8860da60405180806020018381526020018281038252605a8152602001807f2f55736572732f73686f6b6973686f6b692f646576656c6f706d656e742f636f81526020017f6e73656e7379732f646973747269627574652f636f6e7472616374732f636f6e81526020017f7472616374732f50726f6a65637452656769737472792e736f6c0000000000008152506060019250505060405180910390a18173ffffffffffffffffffffffffffffffffffffffff1663cbd368bc6040518163ffffffff167c0100000000000000000000000000000000000000000000000000000000028152600401600060405180830381600087803b1515620065ad57600080fd5b6102c65a03f11515620065bf57600080fd5b5050507fb7509a7b70cc84e1f34502fae8101dd25f39fa8bdf2729ed20b3bac1db82fa8860db60405180806020018381526020018281038252605a8152602001807f2f55736572732f73686f6b6973686f6b692f646576656c6f706d656e742f636f81526020017f6e73656e7379732f646973747269627574652f636f6e7472616374732f636f6e81526020017f7472616374732f50726f6a65637452656769737472792e736f6c0000000000008152506060019250505060405180910390a17f0193a79eaa200f037162b94be4260ea71c18b70db265b9107c3eca79c5b6380a601860405180806020018381526020018281038252605a8152602001807f2f55736572732f73686f6b6973686f6b692f646576656c6f706d656e742f636f81526020017f6e73656e7379732f646973747269627574652f636f6e7472616374732f636f6e81526020017f7472616374732f50726f6a65637452656769737472792e736f6c0000000000008152506060019250505060405180910390a18092505050919050565b60008060007fb2a99b28b0b83961661e058eb3408ee38de876f43b0525042d8cca709e5b8119600e60405180806020018381526020018281038252605a8152602001807f2f55736572732f73686f6b6973686f6b692f646576656c6f706d656e742f636f81526020017f6e73656e7379732f646973747269627574652f636f6e7472616374732f636f6e81526020017f7472616374732f50726f6a65637452656769737472792e736f6c0000000000008152506060019250505060405180910390a17fb7509a7b70cc84e1f34502fae8101dd25f39fa8bdf2729ed20b3bac1db82fa8861011d60405180806020018381526020018281038252605a8152602001807f2f55736572732f73686f6b6973686f6b692f646576656c6f706d656e742f636f81526020017f6e73656e7379732f646973747269627574652f636f6e7472616374732f636f6e81526020017f7472616374732f50726f6a65637452656769737472792e736f6c0000000000008152506060019250505060405180910390a17f0193a79eaa200f037162b94be4260ea71c18b70db265b9107c3eca79c5b6380a602760405180806020018381526020018281038252605a8152602001807f2f55736572732f73686f6b6973686f6b692f646576656c6f706d656e742f636f81526020017f6e73656e7379732f646973747269627574652f636f6e7472616374732f636f6e81526020017f7472616374732f50726f6a65637452656769737472792e736f6c0000000000008152506060019250505060405180910390a18492507fb7509a7b70cc84e1f34502fae8101dd25f39fa8bdf2729ed20b3bac1db82fa8861011e60405180806020018381526020018281038252605a8152602001807f2f55736572732f73686f6b6973686f6b692f646576656c6f706d656e742f636f81526020017f6e73656e7379732f646973747269627574652f636f6e7472616374732f636f6e81526020017f7472616374732f50726f6a65637452656769737472792e736f6c0000000000008152506060019250505060405180910390a17fffd77e43b890df3f40a8c35c2f0ecbbc681f52d886ca1bd2a64469ea232029cc600c60405180806020018381526020018281038252605a8152602001807f2f55736572732f73686f6b6973686f6b692f646576656c6f706d656e742f636f81526020017f6e73656e7379732f646973747269627574652f636f6e7472616374732f636f6e81526020017f7472616374732f50726f6a65637452656769737472792e736f6c0000000000008152506060019250505060405180910390a17f0193a79eaa200f037162b94be4260ea71c18b70db265b9107c3eca79c5b6380a602860405180806020018381526020018281038252605a8152602001807f2f55736572732f73686f6b6973686f6b692f646576656c6f706d656e742f636f81526020017f6e73656e7379732f646973747269627574652f636f6e7472616374732f636f6e81526020017f7472616374732f50726f6a65637452656769737472792e736f6c0000000000008152506060019250505060405180910390a1600460008673ffffffffffffffffffffffffffffffffffffffff1673ffffffffffffffffffffffffffffffffffffffff16815260200190815260200160002060000154600019168460405180828051906020019060200280838360005b8381101562006c3857808201518184015260208101905062006c1b565b5050505090500191505060405180910390206000191614151562006c5b57600080fd5b7fe3467b15b248ac5a1f88dc95f811bc35e0bcae2b45fef32410cab12b29240fe7600c60405180806020018381526020018281038252605a8152602001807f2f55736572732f73686f6b6973686f6b692f646576656c6f706d656e742f636f81526020017f6e73656e7379732f646973747269627574652f636f6e7472616374732f636f6e81526020017f7472616374732f50726f6a65637452656769737472792e736f6c0000000000008152506060019250505060405180910390a17fb7509a7b70cc84e1f34502fae8101dd25f39fa8bdf2729ed20b3bac1db82fa8861012060405180806020018381526020018281038252605a8152602001807f2f55736572732f73686f6b6973686f6b692f646576656c6f706d656e742f636f81526020017f6e73656e7379732f646973747269627574652f636f6e7472616374732f636f6e81526020017f7472616374732f50726f6a65637452656769737472792e736f6c0000000000008152506060019250505060405180910390a18273ffffffffffffffffffffffffffffffffffffffff16638a77e91585516040518263ffffffff167c010000000000000000000000000000000000000000000000000000000002815260040180828152602001915050600060405180830381600087803b151562006e4657600080fd5b6102c65a03f1151562006e5857600080fd5b5050507fb7509a7b70cc84e1f34502fae8101dd25f39fa8bdf2729ed20b3bac1db82fa8861012160405180806020018381526020018281038252605a8152602001807f2f55736572732f73686f6b6973686f6b692f646576656c6f706d656e742f636f81526020017f6e73656e7379732f646973747269627574652f636f6e7472616374732f636f6e81526020017f7472616374732f50726f6a65637452656769737472792e736f6c0000000000008152506060019250505060405180910390a17f0193a79eaa200f037162b94be4260ea71c18b70db265b9107c3eca79c5b6380a602960405180806020018381526020018281038252605a8152602001807f2f55736572732f73686f6b6973686f6b692f646576656c6f706d656e742f636f81526020017f6e73656e7379732f646973747269627574652f636f6e7472616374732f636f6e81526020017f7472616374732f50726f6a65637452656769737472792e736f6c0000000000008152506060019250505060405180910390a1600091505b8351821015620073de577fb7509a7b70cc84e1f34502fae8101dd25f39fa8bdf2729ed20b3bac1db82fa8861012260405180806020018381526020018281038252605a8152602001807f2f55736572732f73686f6b6973686f6b692f646576656c6f706d656e742f636f81526020017f6e73656e7379732f646973747269627574652f636f6e7472616374732f636f6e81526020017f7472616374732f50726f6a65637452656769737472792e736f6c0000000000008152506060019250505060405180910390a17f0193a79eaa200f037162b94be4260ea71c18b70db265b9107c3eca79c5b6380a602a60405180806020018381526020018281038252605a8152602001807f2f55736572732f73686f6b6973686f6b692f646576656c6f706d656e742f636f81526020017f6e73656e7379732f646973747269627574652f636f6e7472616374732f636f6e81526020017f7472616374732f50726f6a65637452656769737472792e736f6c0000000000008152506060019250505060405180910390a183828151811015156200716f57fe5b90602001906020020151600160009054906101000a900473ffffffffffffffffffffffffffffffffffffffff16600260009054906101000a900473ffffffffffffffffffffffffffffffffffffffff16620071c96200a919565b8084600019166000191681526020018373ffffffffffffffffffffffffffffffffffffffff1673ffffffffffffffffffffffffffffffffffffffff1681526020018273ffffffffffffffffffffffffffffffffffffffff1673ffffffffffffffffffffffffffffffffffffffff1681526020019350505050604051809103906000f08015156200725857600080fd5b90507fb7509a7b70cc84e1f34502fae8101dd25f39fa8bdf2729ed20b3bac1db82fa8861012360405180806020018381526020018281038252605a8152602001807f2f55736572732f73686f6b6973686f6b692f646576656c6f706d656e742f636f81526020017f6e73656e7379732f646973747269627574652f636f6e7472616374732f636f6e81526020017f7472616374732f50726f6a65637452656769737472792e736f6c0000000000008152506060019250505060405180910390a18273ffffffffffffffffffffffffffffffffffffffff166303f2f92882846040518363ffffffff167c0100000000000000000000000000000000000000000000000000000000028152600401808373ffffffffffffffffffffffffffffffffffffffff1673ffffffffffffffffffffffffffffffffffffffff16815260200182815260200192505050600060405180830381600087803b1515620073bb57600080fd5b6102c65a03f11515620073cd57600080fd5b505050818060010192505062006fdb565b5050505050565b6000807fb2a99b28b0b83961661e058eb3408ee38de876f43b0525042d8cca709e5b8119600c60405180806020018381526020018281038252605a8152602001807f2f55736572732f73686f6b6973686f6b692f646576656c6f706d656e742f636f81526020017f6e73656e7379732f646973747269627574652f636f6e7472616374732f636f6e81526020017f7472616374732f50726f6a65637452656769737472792e736f6c0000000000008152506060019250505060405180910390a17fb7509a7b70cc84e1f34502fae8101dd25f39fa8bdf2729ed20b3bac1db82fa8860ea60405180806020018381526020018281038252605a8152602001807f2f55736572732f73686f6b6973686f6b692f646576656c6f706d656e742f636f81526020017f6e73656e7379732f646973747269627574652f636f6e7472616374732f636f6e81526020017f7472616374732f50726f6a65637452656769737472792e736f6c0000000000008152506060019250505060405180910390a17f0193a79eaa200f037162b94be4260ea71c18b70db265b9107c3eca79c5b6380a601960405180806020018381526020018281038252605a8152602001807f2f55736572732f73686f6b6973686f6b692f646576656c6f706d656e742f636f81526020017f6e73656e7379732f646973747269627574652f636f6e7472616374732f636f6e81526020017f7472616374732f50726f6a65637452656769737472792e736f6c0000000000008152506060019250505060405180910390a18391507fb7509a7b70cc84e1f34502fae8101dd25f39fa8bdf2729ed20b3bac1db82fa8860eb60405180806020018381526020018281038252605a8152602001807f2f55736572732f73686f6b6973686f6b692f646576656c6f706d656e742f636f81526020017f6e73656e7379732f646973747269627574652f636f6e7472616374732f636f6e81526020017f7472616374732f50726f6a65637452656769737472792e736f6c0000000000008152506060019250505060405180910390a17fffd77e43b890df3f40a8c35c2f0ecbbc681f52d886ca1bd2a64469ea232029cc600860405180806020018381526020018281038252605a8152602001807f2f55736572732f73686f6b6973686f6b692f646576656c6f706d656e742f636f81526020017f6e73656e7379732f646973747269627574652f636f6e7472616374732f636f6e81526020017f7472616374732f50726f6a65637452656769737472792e736f6c0000000000008152506060019250505060405180910390a17f0193a79eaa200f037162b94be4260ea71c18b70db265b9107c3eca79c5b6380a601a60405180806020018381526020018281038252605a8152602001807f2f55736572732f73686f6b6973686f6b692f646576656c6f706d656e742f636f81526020017f6e73656e7379732f646973747269627574652f636f6e7472616374732f636f6e81526020017f7472616374732f50726f6a65637452656769737472792e736f6c0000000000008152506060019250505060405180910390a1600115158473ffffffffffffffffffffffffffffffffffffffff1673__ProjectLibrary________________________63f60b0d5c9091336000604051602001526040518363ffffffff167c0100000000000000000000000000000000000000000000000000000000028152600401808373ffffffffffffffffffffffffffffffffffffffff1673ffffffffffffffffffffffffffffffffffffffff1681526020018273ffffffffffffffffffffffffffffffffffffffff1673ffffffffffffffffffffffffffffffffffffffff1681526020019250505060206040518083038186803b15156200794957600080fd5b6102c65a03f415156200795b57600080fd5b5050506040518051905015151415156200797457600080fd5b7fe3467b15b248ac5a1f88dc95f811bc35e0bcae2b45fef32410cab12b29240fe7600860405180806020018381526020018281038252605a8152602001807f2f55736572732f73686f6b6973686f6b692f646576656c6f706d656e742f636f81526020017f6e73656e7379732f646973747269627574652f636f6e7472616374732f636f6e81526020017f7472616374732f50726f6a65637452656769737472792e736f6c0000000000008152506060019250505060405180910390a17fb7509a7b70cc84e1f34502fae8101dd25f39fa8bdf2729ed20b3bac1db82fa8860ed60405180806020018381526020018281038252605a8152602001807f2f55736572732f73686f6b6973686f6b692f646576656c6f706d656e742f636f81526020017f6e73656e7379732f646973747269627574652f636f6e7472616374732f636f6e81526020017f7472616374732f50726f6a65637452656769737472792e736f6c0000000000008152506060019250505060405180910390a17f0193a79eaa200f037162b94be4260ea71c18b70db265b9107c3eca79c5b6380a601b60405180806020018381526020018281038252605a8152602001807f2f55736572732f73686f6b6973686f6b692f646576656c6f706d656e742f636f81526020017f6e73656e7379732f646973747269627574652f636f6e7472616374732f636f6e81526020017f7472616374732f50726f6a65637452656769737472792e736f6c0000000000008152506060019250505060405180910390a162007bb684620093ca565b507fb7509a7b70cc84e1f34502fae8101dd25f39fa8bdf2729ed20b3bac1db82fa8860ee60405180806020018381526020018281038252605a8152602001807f2f55736572732f73686f6b6973686f6b692f646576656c6f706d656e742f636f81526020017f6e73656e7379732f646973747269627574652f636f6e7472616374732f636f6e81526020017f7472616374732f50726f6a65637452656769737472792e736f6c0000000000008152506060019250505060405180910390a17f0193a79eaa200f037162b94be4260ea71c18b70db265b9107c3eca79c5b6380a601c60405180806020018381526020018281038252605a8152602001807f2f55736572732f73686f6b6973686f6b692f646576656c6f706d656e742f636f81526020017f6e73656e7379732f646973747269627574652f636f6e7472616374732f636f6e81526020017f7472616374732f50726f6a65637452656769737472792e736f6c0000000000008152506060019250505060405180910390a160028273ffffffffffffffffffffffffffffffffffffffff1663c19d93fb6000604051602001526040518163ffffffff167c0100000000000000000000000000000000000000000000000000000000028152600401602060405180830381600087803b151562007da057600080fd5b6102c65a03f1151562007db257600080fd5b5050506040518051905014156200829b577fd84eaebda198bac47526b78316f8f1e4e4e3efd18672e1cb0b3bc7fb43da50ae6009600060405180806020018481526020018381526020018281038252605a8152602001807f2f55736572732f73686f6b6973686f6b692f646576656c6f706d656e742f636f81526020017f6e73656e7379732f646973747269627574652f636f6e7472616374732f636f6e81526020017f7472616374732f50726f6a65637452656769737472792e736f6c000000000000815250606001935050505060405180910390a17fb7509a7b70cc84e1f34502fae8101dd25f39fa8bdf2729ed20b3bac1db82fa8860ef60405180806020018381526020018281038252605a8152602001807f2f55736572732f73686f6b6973686f6b692f646576656c6f706d656e742f636f81526020017f6e73656e7379732f646973747269627574652f636f6e7472616374732f636f6e81526020017f7472616374732f50726f6a65637452656769737472792e736f6c0000000000008152506060019250505060405180910390a17f0193a79eaa200f037162b94be4260ea71c18b70db265b9107c3eca79c5b6380a601d60405180806020018381526020018281038252605a8152602001807f2f55736572732f73686f6b6973686f6b692f646576656c6f706d656e742f636f81526020017f6e73656e7379732f646973747269627574652f636f6e7472616374732f636f6e81526020017f7472616374732f50726f6a65637452656769737472792e736f6c0000000000008152506060019250505060405180910390a18373ffffffffffffffffffffffffffffffffffffffff1673__ProjectLibrary________________________6343fa21d79091336000604051602001526040518363ffffffff167c0100000000000000000000000000000000000000000000000000000000028152600401808373ffffffffffffffffffffffffffffffffffffffff1673ffffffffffffffffffffffffffffffffffffffff1681526020018273ffffffffffffffffffffffffffffffffffffffff1673ffffffffffffffffffffffffffffffffffffffff1681526020019250505060206040518083038186803b1515620080ef57600080fd5b6102c65a03f415156200810157600080fd5b5050506040518051905090507fb7509a7b70cc84e1f34502fae8101dd25f39fa8bdf2729ed20b3bac1db82fa8860f060405180806020018381526020018281038252605a8152602001807f2f55736572732f73686f6b6973686f6b692f646576656c6f706d656e742f636f81526020017f6e73656e7379732f646973747269627574652f636f6e7472616374732f636f6e81526020017f7472616374732f50726f6a65637452656769737472792e736f6c0000000000008152506060019250505060405180910390a17f0193a79eaa200f037162b94be4260ea71c18b70db265b9107c3eca79c5b6380a601e60405180806020018381526020018281038252605a8152602001807f2f55736572732f73686f6b6973686f6b692f646576656c6f706d656e742f636f81526020017f6e73656e7379732f646973747269627574652f636f6e7472616374732f636f6e81526020017f7472616374732f50726f6a65637452656769737472792e736f6c0000000000008152506060019250505060405180910390a162008295843385846200974e565b62008362565b7fd84eaebda198bac47526b78316f8f1e4e4e3efd18672e1cb0b3bc7fb43da50ae6009600160405180806020018481526020018381526020018281038252605a8152602001807f2f55736572732f73686f6b6973686f6b692f646576656c6f706d656e742f636f81526020017f6e73656e7379732f646973747269627574652f636f6e7472616374732f636f6e81526020017f7472616374732f50726f6a65637452656769737472792e736f6c000000000000815250606001935050505060405180910390a15b50505050565b6000807fb2a99b28b0b83961661e058eb3408ee38de876f43b0525042d8cca709e5b8119601060405180806020018381526020018281038252605a8152602001807f2f55736572732f73686f6b6973686f6b692f646576656c6f706d656e742f636f81526020017f6e73656e7379732f646973747269627574652f636f6e7472616374732f636f6e81526020017f7472616374732f50726f6a65637452656769737472792e736f6c0000000000008152506060019250505060405180910390a17fb7509a7b70cc84e1f34502fae8101dd25f39fa8bdf2729ed20b3bac1db82fa8861015260405180806020018381526020018281038252605a8152602001807f2f55736572732f73686f6b6973686f6b692f646576656c6f706d656e742f636f81526020017f6e73656e7379732f646973747269627574652f636f6e7472616374732f636f6e81526020017f7472616374732f50726f6a65637452656769737472792e736f6c0000000000008152506060019250505060405180910390a17f0193a79eaa200f037162b94be4260ea71c18b70db265b9107c3eca79c5b6380a603060405180806020018381526020018281038252605a8152602001807f2f55736572732f73686f6b6973686f6b692f646576656c6f706d656e742f636f81526020017f6e73656e7379732f646973747269627574652f636f6e7472616374732f636f6e81526020017f7472616374732f50726f6a65637452656769737472792e736f6c0000000000008152506060019250505060405180910390a18391507fb7509a7b70cc84e1f34502fae8101dd25f39fa8bdf2729ed20b3bac1db82fa8861015360405180806020018381526020018281038252605a8152602001807f2f55736572732f73686f6b6973686f6b692f646576656c6f706d656e742f636f81526020017f6e73656e7379732f646973747269627574652f636f6e7472616374732f636f6e81526020017f7472616374732f50726f6a65637452656769737472792e736f6c0000000000008152506060019250505060405180910390a17f0193a79eaa200f037162b94be4260ea71c18b70db265b9107c3eca79c5b6380a603160405180806020018381526020018281038252605a8152602001807f2f55736572732f73686f6b6973686f6b692f646576656c6f706d656e742f636f81526020017f6e73656e7379732f646973747269627574652f636f6e7472616374732f636f6e81526020017f7472616374732f50726f6a65637452656769737472792e736f6c0000000000008152506060019250505060405180910390a18173ffffffffffffffffffffffffffffffffffffffff16638d977672846000604051602001526040518263ffffffff167c010000000000000000000000000000000000000000000000000000000002815260040180828152602001915050602060405180830381600087803b15156200879957600080fd5b6102c65a03f11515620087ab57600080fd5b5050506040518051905090507fb7509a7b70cc84e1f34502fae8101dd25f39fa8bdf2729ed20b3bac1db82fa8861015460405180806020018381526020018281038252605a8152602001807f2f55736572732f73686f6b6973686f6b692f646576656c6f706d656e742f636f81526020017f6e73656e7379732f646973747269627574652f636f6e7472616374732f636f6e81526020017f7472616374732f50726f6a65637452656769737472792e736f6c0000000000008152506060019250505060405180910390a17fffd77e43b890df3f40a8c35c2f0ecbbc681f52d886ca1bd2a64469ea232029cc601060405180806020018381526020018281038252605a8152602001807f2f55736572732f73686f6b6973686f6b692f646576656c6f706d656e742f636f81526020017f6e73656e7379732f646973747269627574652f636f6e7472616374732f636f6e81526020017f7472616374732f50726f6a65637452656769737472792e736f6c0000000000008152506060019250505060405180910390a17f0193a79eaa200f037162b94be4260ea71c18b70db265b9107c3eca79c5b6380a603260405180806020018381526020018281038252605a8152602001807f2f55736572732f73686f6b6973686f6b692f646576656c6f706d656e742f636f81526020017f6e73656e7379732f646973747269627574652f636f6e7472616374732f636f6e81526020017f7472616374732f50726f6a65637452656769737472792e736f6c0000000000008152506060019250505060405180910390a13373ffffffffffffffffffffffffffffffffffffffff168173ffffffffffffffffffffffffffffffffffffffff1663d379be236000604051602001526040518163ffffffff167c0100000000000000000000000000000000000000000000000000000000028152600401602060405180830381600087803b151562008a7357600080fd5b6102c65a03f1151562008a8557600080fd5b5050506040518051905073ffffffffffffffffffffffffffffffffffffffff1614151562008ab257600080fd5b7fe3467b15b248ac5a1f88dc95f811bc35e0bcae2b45fef32410cab12b29240fe7601060405180806020018381526020018281038252605a8152602001807f2f55736572732f73686f6b6973686f6b692f646576656c6f706d656e742f636f81526020017f6e73656e7379732f646973747269627574652f636f6e7472616374732f636f6e81526020017f7472616374732f50726f6a65637452656769737472792e736f6c0000000000008152506060019250505060405180910390a17fb7509a7b70cc84e1f34502fae8101dd25f39fa8bdf2729ed20b3bac1db82fa8861015560405180806020018381526020018281038252605a8152602001807f2f55736572732f73686f6b6973686f6b692f646576656c6f706d656e742f636f81526020017f6e73656e7379732f646973747269627574652f636f6e7472616374732f636f6e81526020017f7472616374732f50726f6a65637452656769737472792e736f6c0000000000008152506060019250505060405180910390a17fffd77e43b890df3f40a8c35c2f0ecbbc681f52d886ca1bd2a64469ea232029cc601160405180806020018381526020018281038252605a8152602001807f2f55736572732f73686f6b6973686f6b692f646576656c6f706d656e742f636f81526020017f6e73656e7379732f646973747269627574652f636f6e7472616374732f636f6e81526020017f7472616374732f50726f6a65637452656769737472792e736f6c0000000000008152506060019250505060405180910390a17f0193a79eaa200f037162b94be4260ea71c18b70db265b9107c3eca79c5b6380a603360405180806020018381526020018281038252605a8152602001807f2f55736572732f73686f6b6973686f6b692f646576656c6f706d656e742f636f81526020017f6e73656e7379732f646973747269627574652f636f6e7472616374732f636f6e81526020017f7472616374732f50726f6a65637452656769737472792e736f6c0000000000008152506060019250505060405180910390a1600015158173ffffffffffffffffffffffffffffffffffffffff1663522e11776000604051602001526040518163ffffffff167c0100000000000000000000000000000000000000000000000000000000028152600401602060405180830381600087803b151562008e1857600080fd5b6102c65a03f1151562008e2a57600080fd5b50505060405180519050151514151562008e4357600080fd5b7fe3467b15b248ac5a1f88dc95f811bc35e0bcae2b45fef32410cab12b29240fe7601160405180806020018381526020018281038252605a8152602001807f2f55736572732f73686f6b6973686f6b692f646576656c6f706d656e742f636f81526020017f6e73656e7379732f646973747269627574652f636f6e7472616374732f636f6e81526020017f7472616374732f50726f6a65637452656769737472792e736f6c0000000000008152506060019250505060405180910390a17fb7509a7b70cc84e1f34502fae8101dd25f39fa8bdf2729ed20b3bac1db82fa8861015660405180806020018381526020018281038252605a8152602001807f2f55736572732f73686f6b6973686f6b692f646576656c6f706d656e742f636f81526020017f6e73656e7379732f646973747269627574652f636f6e7472616374732f636f6e81526020017f7472616374732f50726f6a65637452656769737472792e736f6c0000000000008152506060019250505060405180910390a17fffd77e43b890df3f40a8c35c2f0ecbbc681f52d886ca1bd2a64469ea232029cc601260405180806020018381526020018281038252605a8152602001807f2f55736572732f73686f6b6973686f6b692f646576656c6f706d656e742f636f81526020017f6e73656e7379732f646973747269627574652f636f6e7472616374732f636f6e81526020017f7472616374732f50726f6a65637452656769737472792e736f6c0000000000008152506060019250505060405180910390a17f0193a79eaa200f037162b94be4260ea71c18b70db265b9107c3eca79c5b6380a603460405180806020018381526020018281038252605a8152602001807f2f55736572732f73686f6b6973686f6b692f646576656c6f706d656e742f636f81526020017f6e73656e7379732f646973747269627574652f636f6e7472616374732f636f6e81526020017f7472616374732f50726f6a65637452656769737472792e736f6c0000000000008152506060019250505060405180910390a160038273ffffffffffffffffffffffffffffffffffffffff1663c19d93fb6000604051602001526040518163ffffffff167c0100000000000000000000000000000000000000000000000000000000028152600401602060405180830381600087803b1515620091a757600080fd5b6102c65a03f11515620091b957600080fd5b50505060405180519050141515620091d057600080fd5b7fe3467b15b248ac5a1f88dc95f811bc35e0bcae2b45fef32410cab12b29240fe7601260405180806020018381526020018281038252605a8152602001807f2f55736572732f73686f6b6973686f6b692f646576656c6f706d656e742f636f81526020017f6e73656e7379732f646973747269627574652f636f6e7472616374732f636f6e81526020017f7472616374732f50726f6a65637452656769737472792e736f6c0000000000008152506060019250505060405180910390a17fb7509a7b70cc84e1f34502fae8101dd25f39fa8bdf2729ed20b3bac1db82fa8861015860405180806020018381526020018281038252605a8152602001807f2f55736572732f73686f6b6973686f6b692f646576656c6f706d656e742f636f81526020017f6e73656e7379732f646973747269627574652f636f6e7472616374732f636f6e81526020017f7472616374732f50726f6a65637452656769737472792e736f6c0000000000008152506060019250505060405180910390a18073ffffffffffffffffffffffffffffffffffffffff1663c41a32656040518163ffffffff167c0100000000000000000000000000000000000000000000000000000000028152600401600060405180830381600087803b1515620093af57600080fd5b6102c65a03f11515620093c157600080fd5b50505050505050565b60007fb2a99b28b0b83961661e058eb3408ee38de876f43b0525042d8cca709e5b8119600660405180806020018381526020018281038252605a8152602001807f2f55736572732f73686f6b6973686f6b692f646576656c6f706d656e742f636f81526020017f6e73656e7379732f646973747269627574652f636f6e7472616374732f636f6e81526020017f7472616374732f50726f6a65637452656769737472792e736f6c0000000000008152506060019250505060405180910390a17fb7509a7b70cc84e1f34502fae8101dd25f39fa8bdf2729ed20b3bac1db82fa88607760405180806020018381526020018281038252605a8152602001807f2f55736572732f73686f6b6973686f6b692f646576656c6f706d656e742f636f81526020017f6e73656e7379732f646973747269627574652f636f6e7472616374732f636f6e81526020017f7472616374732f50726f6a65637452656769737472792e736f6c0000000000008152506060019250505060405180910390a17f0193a79eaa200f037162b94be4260ea71c18b70db265b9107c3eca79c5b6380a600a60405180806020018381526020018281038252605a8152602001807f2f55736572732f73686f6b6973686f6b692f646576656c6f706d656e742f636f81526020017f6e73656e7379732f646973747269627574652f636f6e7472616374732f636f6e81526020017f7472616374732f50726f6a65637452656769737472792e736f6c0000000000008152506060019250505060405180910390a18173ffffffffffffffffffffffffffffffffffffffff1673__ProjectLibrary________________________63989d1aa49091600460008673ffffffffffffffffffffffffffffffffffffffff1673ffffffffffffffffffffffffffffffffffffffff168152602001908152602001600020600001546000604051602001526040518363ffffffff167c0100000000000000000000000000000000000000000000000000000000028152600401808373ffffffffffffffffffffffffffffffffffffffff1673ffffffffffffffffffffffffffffffffffffffff16815260200182600019166000191681526020019250505060206040518083038186803b15156200970d57600080fd5b6102c65a03f415156200971f57600080fd5b505050604051805190509050919050565b60046020528060005260406000206000915090508060000154905081565b6000807fb2a99b28b0b83961661e058eb3408ee38de876f43b0525042d8cca709e5b8119600d60405180806020018381526020018281038252605a8152602001807f2f55736572732f73686f6b6973686f6b692f646576656c6f706d656e742f636f81526020017f6e73656e7379732f646973747269627574652f636f6e7472616374732f636f6e81526020017f7472616374732f50726f6a65637452656769737472792e736f6c0000000000008152506060019250505060405180910390a17fb7509a7b70cc84e1f34502fae8101dd25f39fa8bdf2729ed20b3bac1db82fa8861010360405180806020018381526020018281038252605a8152602001807f2f55736572732f73686f6b6973686f6b692f646576656c6f706d656e742f636f81526020017f6e73656e7379732f646973747269627574652f636f6e7472616374732f636f6e81526020017f7472616374732f50726f6a65637452656769737472792e736f6c0000000000008152506060019250505060405180910390a17f0193a79eaa200f037162b94be4260ea71c18b70db265b9107c3eca79c5b6380a601f60405180806020018381526020018281038252605a8152602001807f2f55736572732f73686f6b6973686f6b692f646576656c6f706d656e742f636f81526020017f6e73656e7379732f646973747269627574652f636f6e7472616374732f636f6e81526020017f7472616374732f50726f6a65637452656769737472792e736f6c0000000000008152506060019250505060405180910390a1600460008773ffffffffffffffffffffffffffffffffffffffff1673ffffffffffffffffffffffffffffffffffffffff16815260200190815260200160002091507fb7509a7b70cc84e1f34502fae8101dd25f39fa8bdf2729ed20b3bac1db82fa8861010460405180806020018381526020018281038252605a8152602001807f2f55736572732f73686f6b6973686f6b692f646576656c6f706d656e742f636f81526020017f6e73656e7379732f646973747269627574652f636f6e7472616374732f636f6e81526020017f7472616374732f50726f6a65637452656769737472792e736f6c0000000000008152506060019250505060405180910390a17f0193a79eaa200f037162b94be4260ea71c18b70db265b9107c3eca79c5b6380a602060405180806020018381526020018281038252605a8152602001807f2f55736572732f73686f6b6973686f6b692f646576656c6f706d656e742f636f81526020017f6e73656e7379732f646973747269627574652f636f6e7472616374732f636f6e81526020017f7472616374732f50726f6a65637452656769737472792e736f6c0000000000008152506060019250505060405180910390a160006001028260010160008773ffffffffffffffffffffffffffffffffffffffff1673ffffffffffffffffffffffffffffffffffffffff168152602001908152602001600020546000191614151562009fc9577fd84eaebda198bac47526b78316f8f1e4e4e3efd18672e1cb0b3bc7fb43da50ae600a600060405180806020018481526020018381526020018281038252605a8152602001807f2f55736572732f73686f6b6973686f6b692f646576656c6f706d656e742f636f81526020017f6e73656e7379732f646973747269627574652f636f6e7472616374732f636f6e81526020017f7472616374732f50726f6a65637452656769737472792e736f6c000000000000815250606001935050505060405180910390a17fb7509a7b70cc84e1f34502fae8101dd25f39fa8bdf2729ed20b3bac1db82fa8861010560405180806020018381526020018281038252605a8152602001807f2f55736572732f73686f6b6973686f6b692f646576656c6f706d656e742f636f81526020017f6e73656e7379732f646973747269627574652f636f6e7472616374732f636f6e81526020017f7472616374732f50726f6a65637452656769737472792e736f6c0000000000008152506060019250505060405180910390a17f0193a79eaa200f037162b94be4260ea71c18b70db265b9107c3eca79c5b6380a602160405180806020018381526020018281038252605a8152602001807f2f55736572732f73686f6b6973686f6b692f646576656c6f706d656e742f636f81526020017f6e73656e7379732f646973747269627574652f636f6e7472616374732f636f6e81526020017f7472616374732f50726f6a65637452656769737472792e736f6c0000000000008152506060019250505060405180910390a18160010160008673ffffffffffffffffffffffffffffffffffffffff1673ffffffffffffffffffffffffffffffffffffffff1681526020019081526020016000205490507fb7509a7b70cc84e1f34502fae8101dd25f39fa8bdf2729ed20b3bac1db82fa8861010660405180806020018381526020018281038252605a8152602001807f2f55736572732f73686f6b6973686f6b692f646576656c6f706d656e742f636f81526020017f6e73656e7379732f646973747269627574652f636f6e7472616374732f636f6e81526020017f7472616374732f50726f6a65637452656769737472792e736f6c0000000000008152506060019250505060405180910390a17f0193a79eaa200f037162b94be4260ea71c18b70db265b9107c3eca79c5b6380a602260405180806020018381526020018281038252605a8152602001807f2f55736572732f73686f6b6973686f6b692f646576656c6f706d656e742f636f81526020017f6e73656e7379732f646973747269627574652f636f6e7472616374732f636f6e81526020017f7472616374732f50726f6a65637452656769737472792e736f6c0000000000008152506060019250505060405180910390a1828260020160008360001916600019168152602001908152602001600020600082825403925050819055506200a090565b7fd84eaebda198bac47526b78316f8f1e4e4e3efd18672e1cb0b3bc7fb43da50ae600a600160405180806020018481526020018381526020018281038252605a8152602001807f2f55736572732f73686f6b6973686f6b692f646576656c6f706d656e742f636f81526020017f6e73656e7379732f646973747269627574652f636f6e7472616374732f636f6e81526020017f7472616374732f50726f6a65637452656769737472792e736f6c000000000000815250606001935050505060405180910390a15b7fb7509a7b70cc84e1f34502fae8101dd25f39fa8bdf2729ed20b3bac1db82fa8861010860405180806020018381526020018281038252605a8152602001807f2f55736572732f73686f6b6973686f6b692f646576656c6f706d656e742f636f81526020017f6e73656e7379732f646973747269627574652f636f6e7472616374732f636f6e81526020017f7472616374732f50726f6a65637452656769737472792e736f6c0000000000008152506060019250505060405180910390a17f0193a79eaa200f037162b94be4260ea71c18b70db265b9107c3eca79c5b6380a602360405180806020018381526020018281038252605a8152602001807f2f55736572732f73686f6b6973686f6b692f646576656c6f706d656e742f636f81526020017f6e73656e7379732f646973747269627574652f636f6e7472616374732f636f6e81526020017f7472616374732f50726f6a65637452656769737472792e736f6c0000000000008152506060019250505060405180910390a1828260020160008660001916600019168152602001908152602001600020600082825401925050819055507fb7509a7b70cc84e1f34502fae8101dd25f39fa8bdf2729ed20b3bac1db82fa8861010960405180806020018381526020018281038252605a8152602001807f2f55736572732f73686f6b6973686f6b692f646576656c6f706d656e742f636f81526020017f6e73656e7379732f646973747269627574652f636f6e7472616374732f636f6e81526020017f7472616374732f50726f6a65637452656769737472792e736f6c0000000000008152506060019250505060405180910390a17f0193a79eaa200f037162b94be4260ea71c18b70db265b9107c3eca79c5b6380a602460405180806020018381526020018281038252605a8152602001807f2f55736572732f73686f6b6973686f6b692f646576656c6f706d656e742f636f81526020017f6e73656e7379732f646973747269627574652f636f6e7472616374732f636f6e81526020017f7472616374732f50726f6a65637452656769737472792e736f6c0000000000008152506060019250505060405180910390a1838260010160008773ffffffffffffffffffffffffffffffffffffffff1673ffffffffffffffffffffffffffffffffffffffff16815260200190815260200160002081600019169055507fb7509a7b70cc84e1f34502fae8101dd25f39fa8bdf2729ed20b3bac1db82fa8861010a60405180806020018381526020018281038252605a8152602001807f2f55736572732f73686f6b6973686f6b692f646576656c6f706d656e742f636f81526020017f6e73656e7379732f646973747269627574652f636f6e7472616374732f636f6e81526020017f7472616374732f50726f6a65637452656769737472792e736f6c0000000000008152506060019250505060405180910390a17f0193a79eaa200f037162b94be4260ea71c18b70db265b9107c3eca79c5b6380a602560405180806020018381526020018281038252605a8152602001807f2f55736572732f73686f6b6973686f6b692f646576656c6f706d656e742f636f81526020017f6e73656e7379732f646973747269627574652f636f6e7472616374732f636f6e81526020017f7472616374732f50726f6a65637452656769737472792e736f6c0000000000008152506060019250505060405180910390a18160020160008360000154600019166000191681526020019081526020016000205482600201600086600019166000191681526020019081526020016000205411156200a811577fd84eaebda198bac47526b78316f8f1e4e4e3efd18672e1cb0b3bc7fb43da50ae600b600060405180806020018481526020018381526020018281038252605a8152602001807f2f55736572732f73686f6b6973686f6b692f646576656c6f706d656e742f636f81526020017f6e73656e7379732f646973747269627574652f636f6e7472616374732f636f6e81526020017f7472616374732f50726f6a65637452656769737472792e736f6c000000000000815250606001935050505060405180910390a17fb7509a7b70cc84e1f34502fae8101dd25f39fa8bdf2729ed20b3bac1db82fa8861010b60405180806020018381526020018281038252605a8152602001807f2f55736572732f73686f6b6973686f6b692f646576656c6f706d656e742f636f81526020017f6e73656e7379732f646973747269627574652f636f6e7472616374732f636f6e81526020017f7472616374732f50726f6a65637452656769737472792e736f6c0000000000008152506060019250505060405180910390a17f0193a79eaa200f037162b94be4260ea71c18b70db265b9107c3eca79c5b6380a602660405180806020018381526020018281038252605a8152602001807f2f55736572732f73686f6b6973686f6b692f646576656c6f706d656e742f636f81526020017f6e73656e7379732f646973747269627574652f636f6e7472616374732f636f6e81526020017f7472616374732f50726f6a65637452656769737472792e736f6c0000000000008152506060019250505060405180910390a1838260000181600019169055506200a8d8565b7fd84eaebda198bac47526b78316f8f1e4e4e3efd18672e1cb0b3bc7fb43da50ae600b600160405180806020018481526020018381526020018281038252605a8152602001807f2f55736572732f73686f6b6973686f6b692f646576656c6f706d656e742f636f81526020017f6e73656e7379732f646973747269627574652f636f6e7472616374732f636f6e81526020017f7472616374732f50726f6a65637452656769737472792e736f6c000000000000815250606001935050505060405180910390a15b505050505050565b60405161c0d8806200a92b83390190565b60408051908101604052806002905b60008152602001906001900390816200a9005790505090565b6040516163f38062016a03833901905600606060405262093a806004556212750060055562093a8060065562093a8060075562093a8060085562093a806009556064600a5534156200003f57600080fd5b6040516200c0d83803806200c0d8833981016040528080519060200190919080519060200190919080519060200190919080519060200190919080519060200190919080519060200190919080518201919060200180519060200190919080519060200190919050507f70818a55d36b2eee91c357097bb108cbebe9221344fa3d9a1ecd04b62164841c60066040518080602001838152602001828103825260528152602001807f2f55736572732f73686f6b6973686f6b692f646576656c6f706d656e742f636f81526020017f6e73656e7379732f646973747269627574652f636f6e7472616374732f636f6e81526020017f7472616374732f50726f6a6563742e736f6c00000000000000000000000000008152506060019250505060405180910390a17f6ca67a40d32d177c7997facc1824fca23699aa90c8a5e5622bc262c8e834a66160846040518080602001838152602001828103825260528152602001807f2f55736572732f73686f6b6973686f6b692f646576656c6f706d656e742f636f81526020017f6e73656e7379732f646973747269627574652f636f6e7472616374732f636f6e81526020017f7472616374732f50726f6a6563742e736f6c00000000000000000000000000008152506060019250505060405180910390a17f61fc2769b9825a2d640440cf05bcb75301fb5f5274ee8f22ee1df4d7776f6f1460066040518080602001838152602001828103825260528152602001807f2f55736572732f73686f6b6973686f6b692f646576656c6f706d656e742f636f81526020017f6e73656e7379732f646973747269627574652f636f6e7472616374732f636f6e81526020017f7472616374732f50726f6a6563742e736f6c00000000000000000000000000008152506060019250505060405180910390a181600160006101000a81548173ffffffffffffffffffffffffffffffffffffffff021916908373ffffffffffffffffffffffffffffffffffffffff1602179055507f6ca67a40d32d177c7997facc1824fca23699aa90c8a5e5622bc262c8e834a66160856040518080602001838152602001828103825260528152602001807f2f55736572732f73686f6b6973686f6b692f646576656c6f706d656e742f636f81526020017f6e73656e7379732f646973747269627574652f636f6e7472616374732f636f6e81526020017f7472616374732f50726f6a6563742e736f6c00000000000000000000000000008152506060019250505060405180910390a17f61fc2769b9825a2d640440cf05bcb75301fb5f5274ee8f22ee1df4d7776f6f1460076040518080602001838152602001828103825260528152602001807f2f55736572732f73686f6b6973686f6b692f646576656c6f706d656e742f636f81526020017f6e73656e7379732f646973747269627574652f636f6e7472616374732f636f6e81526020017f7472616374732f50726f6a6563742e736f6c00000000000000000000000000008152506060019250505060405180910390a1806000806101000a81548173ffffffffffffffffffffffffffffffffffffffff021916908373ffffffffffffffffffffffffffffffffffffffff1602179055507f6ca67a40d32d177c7997facc1824fca23699aa90c8a5e5622bc262c8e834a66160866040518080602001838152602001828103825260528152602001807f2f55736572732f73686f6b6973686f6b692f646576656c6f706d656e742f636f81526020017f6e73656e7379732f646973747269627574652f636f6e7472616374732f636f6e81526020017f7472616374732f50726f6a6563742e736f6c00000000000000000000000000008152506060019250505060405180910390a17f61fc2769b9825a2d640440cf05bcb75301fb5f5274ee8f22ee1df4d7776f6f1460086040518080602001838152602001828103825260528152602001807f2f55736572732f73686f6b6973686f6b692f646576656c6f706d656e742f636f81526020017f6e73656e7379732f646973747269627574652f636f6e7472616374732f636f6e81526020017f7472616374732f50726f6a6563742e736f6c00000000000000000000000000008152506060019250505060405180910390a133600260006101000a81548173ffffffffffffffffffffffffffffffffffffffff021916908373ffffffffffffffffffffffffffffffffffffffff1602179055507f6ca67a40d32d177c7997facc1824fca23699aa90c8a5e5622bc262c8e834a66160876040518080602001838152602001828103825260528152602001807f2f55736572732f73686f6b6973686f6b692f646576656c6f706d656e742f636f81526020017f6e73656e7379732f646973747269627574652f636f6e7472616374732f636f6e81526020017f7472616374732f50726f6a6563742e736f6c00000000000000000000000000008152506060019250505060405180910390a17f61fc2769b9825a2d640440cf05bcb75301fb5f5274ee8f22ee1df4d7776f6f1460096040518080602001838152602001828103825260528152602001807f2f55736572732f73686f6b6973686f6b692f646576656c6f706d656e742f636f81526020017f6e73656e7379732f646973747269627574652f636f6e7472616374732f636f6e81526020017f7472616374732f50726f6a6563742e736f6c00000000000000000000000000008152506060019250505060405180910390a1886011819055507f6ca67a40d32d177c7997facc1824fca23699aa90c8a5e5622bc262c8e834a66160886040518080602001838152602001828103825260528152602001807f2f55736572732f73686f6b6973686f6b692f646576656c6f706d656e742f636f81526020017f6e73656e7379732f646973747269627574652f636f6e7472616374732f636f6e81526020017f7472616374732f50726f6a6563742e736f6c00000000000000000000000000008152506060019250505060405180910390a17f61fc2769b9825a2d640440cf05bcb75301fb5f5274ee8f22ee1df4d7776f6f14600a6040518080602001838152602001828103825260528152602001807f2f55736572732f73686f6b6973686f6b692f646576656c6f706d656e742f636f81526020017f6e73656e7379732f646973747269627574652f636f6e7472616374732f636f6e81526020017f7472616374732f50726f6a6563742e736f6c00000000000000000000000000008152506060019250505060405180910390a16402540be4008273ffffffffffffffffffffffffffffffffffffffff166318160ddd6000604051602001526040518163ffffffff167c0100000000000000000000000000000000000000000000000000000000028152600401602060405180830381600087803b151562000a0357600080fd5b6102c65a03f1151562000a1557600080fd5b50505060405180519050890281151562000a2b57fe5b046012819055507f6ca67a40d32d177c7997facc1824fca23699aa90c8a5e5622bc262c8e834a66160896040518080602001838152602001828103825260528152602001807f2f55736572732f73686f6b6973686f6b692f646576656c6f706d656e742f636f81526020017f6e73656e7379732f646973747269627574652f636f6e7472616374732f636f6e81526020017f7472616374732f50726f6a6563742e736f6c00000000000000000000000000008152506060019250505060405180910390a17f61fc2769b9825a2d640440cf05bcb75301fb5f5274ee8f22ee1df4d7776f6f14600b6040518080602001838152602001828103825260528152602001807f2f55736572732f73686f6b6973686f6b692f646576656c6f706d656e742f636f81526020017f6e73656e7379732f646973747269627574652f636f6e7472616374732f636f6e81526020017f7472616374732f50726f6a6563742e736f6c00000000000000000000000000008152506060019250505060405180910390a160016003819055507f6ca67a40d32d177c7997facc1824fca23699aa90c8a5e5622bc262c8e834a661608a6040518080602001838152602001828103825260528152602001807f2f55736572732f73686f6b6973686f6b692f646576656c6f706d656e742f636f81526020017f6e73656e7379732f646973747269627574652f636f6e7472616374732f636f6e81526020017f7472616374732f50726f6a6563742e736f6c00000000000000000000000000008152506060019250505060405180910390a17f61fc2769b9825a2d640440cf05bcb75301fb5f5274ee8f22ee1df4d7776f6f14600c6040518080602001838152602001828103825260528152602001807f2f55736572732f73686f6b6973686f6b692f646576656c6f706d656e742f636f81526020017f6e73656e7379732f646973747269627574652f636f6e7472616374732f636f6e81526020017f7472616374732f50726f6a6563742e736f6c00000000000000000000000000008152506060019250505060405180910390a1866010819055507f6ca67a40d32d177c7997facc1824fca23699aa90c8a5e5622bc262c8e834a661608b6040518080602001838152602001828103825260528152602001807f2f55736572732f73686f6b6973686f6b692f646576656c6f706d656e742f636f81526020017f6e73656e7379732f646973747269627574652f636f6e7472616374732f636f6e81526020017f7472616374732f50726f6a6563742e736f6c00000000000000000000000000008152506060019250505060405180910390a17f61fc2769b9825a2d640440cf05bcb75301fb5f5274ee8f22ee1df4d7776f6f14600d6040518080602001838152602001828103825260528152602001807f2f55736572732f73686f6b6973686f6b692f646576656c6f706d656e742f636f81526020017f6e73656e7379732f646973747269627574652f636f6e7472616374732f636f6e81526020017f7472616374732f50726f6a6563742e736f6c00000000000000000000000000008152506060019250505060405180910390a185600b60006101000a81548173ffffffffffffffffffffffffffffffffffffffff021916908373ffffffffffffffffffffffffffffffffffffffff1602179055507f6ca67a40d32d177c7997facc1824fca23699aa90c8a5e5622bc262c8e834a661608c6040518080602001838152602001828103825260528152602001807f2f55736572732f73686f6b6973686f6b692f646576656c6f706d656e742f636f81526020017f6e73656e7379732f646973747269627574652f636f6e7472616374732f636f6e81526020017f7472616374732f50726f6a6563742e736f6c00000000000000000000000000008152506060019250505060405180910390a17f61fc2769b9825a2d640440cf05bcb75301fb5f5274ee8f22ee1df4d7776f6f14600e6040518080602001838152602001828103825260528152602001807f2f55736572732f73686f6b6973686f6b692f646576656c6f706d656e742f636f81526020017f6e73656e7379732f646973747269627574652f636f6e7472616374732f636f6e81526020017f7472616374732f50726f6a6563742e736f6c00000000000000000000000000008152506060019250505060405180910390a184600c819055507f6ca67a40d32d177c7997facc1824fca23699aa90c8a5e5622bc262c8e834a661608d6040518080602001838152602001828103825260528152602001807f2f55736572732f73686f6b6973686f6b692f646576656c6f706d656e742f636f81526020017f6e73656e7379732f646973747269627574652f636f6e7472616374732f636f6e81526020017f7472616374732f50726f6a6563742e736f6c00000000000000000000000000008152506060019250505060405180910390a17f61fc2769b9825a2d640440cf05bcb75301fb5f5274ee8f22ee1df4d7776f6f14600f6040518080602001838152602001828103825260528152602001807f2f55736572732f73686f6b6973686f6b692f646576656c6f706d656e742f636f81526020017f6e73656e7379732f646973747269627574652f636f6e7472616374732f636f6e81526020017f7472616374732f50726f6a6563742e736f6c00000000000000000000000000008152506060019250505060405180910390a183600d819055507f6ca67a40d32d177c7997facc1824fca23699aa90c8a5e5622bc262c8e834a661608e6040518080602001838152602001828103825260528152602001807f2f55736572732f73686f6b6973686f6b692f646576656c6f706d656e742f636f81526020017f6e73656e7379732f646973747269627574652f636f6e7472616374732f636f6e81526020017f7472616374732f50726f6a6563742e736f6c00000000000000000000000000008152506060019250505060405180910390a17f61fc2769b9825a2d640440cf05bcb75301fb5f5274ee8f22ee1df4d7776f6f1460106040518080602001838152602001828103825260528152602001807f2f55736572732f73686f6b6973686f6b692f646576656c6f706d656e742f636f81526020017f6e73656e7379732f646973747269627574652f636f6e7472616374732f636f6e81526020017f7472616374732f50726f6a6563742e736f6c00000000000000000000000000008152506060019250505060405180910390a182601390805190602001906200138492919062001394565b5050505050505050505062001443565b828054600181600116156101000203166002900490600052602060002090601f016020900481019282601f10620013d757805160ff191683800117855562001408565b8280016001018555821562001408579182015b8281111562001407578251825591602001919060010190620013ea565b5b5090506200141791906200141b565b5090565b6200144091905b808211156200143c57600081600090555060010162001422565b5090565b90565b61ac8580620014536000396000f3006060604052600436106101ee576000357c0100000000000000000000000000000000000000000000000000000000900463ffffffff16806303f2f928146102ad578063065d5d0a146102ef57806306a5ab2c146103185780630c328306146103515780630cff8e8f1461037a5780630df44ec5146103c557806312ff35bc146103e857806316ddf02114610411578063205179841461043a57806336df7df7146104635780633c79fe741461048c578063476da566146104ce5780634b3a9a2c146104e3578063523fba7f1461050c57806353e0a9be146105595780635a6fb81f146105a6578063710c096e146105cf578063764c8a00146105f85780637ec20fe8146106315780637f306ba11461067357806385955896146106b55780638a77e915146106de5780638d9776721461070157806399a03316146107645780639bebba0a1461078d578063a8e4fb90146107b6578063b10bbaab1461080b578063b11eda5a1461084d578063b23dcdaf14610876578063b532b1131461089f578063b5b29838146108f0578063b7eabbf914610941578063b9d77bfc1461096a578063c03d5b4714610996578063c17a340e146109bf578063c19d93fb146109e8578063c623674f14610a11578063cbd368bc14610a9f578063e89a173e14610ab4578063ff04322d14610b0a575b7f70818a55d36b2eee91c357097bb108cbebe9221344fa3d9a1ecd04b62164841c60076040518080602001838152602001828103825260528152602001807f2f55736572732f73686f6b6973686f6b692f646576656c6f706d656e742f636f81526020017f6e73656e7379732f646973747269627574652f636f6e7472616374732f636f6e81526020017f7472616374732f50726f6a6563742e736f6c00000000000000000000000000008152506060019250505060405180910390a1005b34156102b857600080fd5b6102ed600480803573ffffffffffffffffffffffffffffffffffffffff16906020019091908035906020019091905050610b33565b005b34156102fa57600080fd5b610302611595565b6040518082815260200191505060405180910390f35b341561032357600080fd5b61034f600480803573ffffffffffffffffffffffffffffffffffffffff1690602001909190505061159b565b005b341561035c57600080fd5b610364611ce3565b6040518082815260200191505060405180910390f35b341561038557600080fd5b6103c3600480803573ffffffffffffffffffffffffffffffffffffffff16906020019091908035906020019091908035906020019091905050611ce9565b005b34156103d057600080fd5b6103e66004808035906020019091905050612a57565b005b34156103f357600080fd5b6103fb613162565b6040518082815260200191505060405180910390f35b341561041c57600080fd5b610424613168565b6040518082815260200191505060405180910390f35b341561044557600080fd5b61044d61316e565b6040518082815260200191505060405180910390f35b341561046e57600080fd5b610476613174565b6040518082815260200191505060405180910390f35b341561049757600080fd5b6104cc600480803573ffffffffffffffffffffffffffffffffffffffff1690602001909190803590602001909190505061317a565b005b34156104d957600080fd5b6104e161413c565b005b34156104ee57600080fd5b6104f66149c9565b6040518082815260200191505060405180910390f35b341561051757600080fd5b610543600480803573ffffffffffffffffffffffffffffffffffffffff169060200190919050506149cf565b6040518082815260200191505060405180910390f35b341561056457600080fd5b610590600480803573ffffffffffffffffffffffffffffffffffffffff169060200190919050506149e7565b6040518082815260200191505060405180910390f35b34156105b157600080fd5b6105b96149ff565b6040518082815260200191505060405180910390f35b34156105da57600080fd5b6105e2614a05565b6040518082815260200191505060405180910390f35b341561060357600080fd5b61062f600480803573ffffffffffffffffffffffffffffffffffffffff16906020019091905050614a0b565b005b341561063c57600080fd5b610671600480803573ffffffffffffffffffffffffffffffffffffffff16906020019091908035906020019091905050615154565b005b341561067e57600080fd5b6106b3600480803573ffffffffffffffffffffffffffffffffffffffff169060200190919080359060200190919050506157dd565b005b34156106c057600080fd5b6106c8616744565b6040518082815260200191505060405180910390f35b34156106e957600080fd5b6106ff600480803590602001909190505061674a565b005b341561070c57600080fd5b6107226004808035906020019091905050616e5d565b604051808273ffffffffffffffffffffffffffffffffffffffff1673ffffffffffffffffffffffffffffffffffffffff16815260200191505060405180910390f35b341561076f57600080fd5b610777616e9c565b6040518082815260200191505060405180910390f35b341561079857600080fd5b6107a0616ea2565b6040518082815260200191505060405180910390f35b34156107c157600080fd5b6107c9616ea8565b604051808273ffffffffffffffffffffffffffffffffffffffff1673ffffffffffffffffffffffffffffffffffffffff16815260200191505060405180910390f35b341561081657600080fd5b61084b600480803573ffffffffffffffffffffffffffffffffffffffff16906020019091908035906020019091905050616ece565b005b341561085857600080fd5b6108606179e8565b6040518082815260200191505060405180910390f35b341561088157600080fd5b6108896179ee565b6040518082815260200191505060405180910390f35b34156108aa57600080fd5b6108d6600480803573ffffffffffffffffffffffffffffffffffffffff169060200190919050506179f4565b604051808215151515815260200191505060405180910390f35b34156108fb57600080fd5b610927600480803573ffffffffffffffffffffffffffffffffffffffff16906020019091905050617c92565b604051808215151515815260200191505060405180910390f35b341561094c57600080fd5b610954617f31565b6040518082815260200191505060405180910390f35b341561097557600080fd5b6109946004808035906020019091908035906020019091905050617f37565b005b34156109a157600080fd5b6109a96187c4565b6040518082815260200191505060405180910390f35b34156109ca57600080fd5b6109d26187ca565b6040518082815260200191505060405180910390f35b34156109f357600080fd5b6109fb618a0e565b6040518082815260200191505060405180910390f35b3415610a1c57600080fd5b610a24618a14565b6040518080602001828103825283818151815260200191508051906020019080838360005b83811015610a64578082015181840152602081019050610a49565b50505050905090810190601f168015610a915780820380516001836020036101000a031916815260200191505b509250505060405180910390f35b3415610aaa57600080fd5b610ab2618ab2565b005b3415610abf57600080fd5b610af4600480803573ffffffffffffffffffffffffffffffffffffffff169060200190919080359060200190919050506191bd565b6040518082815260200191505060405180910390f35b3415610b1557600080fd5b610b1d61a6be565b6040518082815260200191505060405180910390f35b7f70818a55d36b2eee91c357097bb108cbebe9221344fa3d9a1ecd04b62164841c60016040518080602001838152602001828103825260528152602001807f2f55736572732f73686f6b6973686f6b692f646576656c6f706d656e742f636f81526020017f6e73656e7379732f646973747269627574652f636f6e7472616374732f636f6e81526020017f7472616374732f50726f6a6563742e736f6c00000000000000000000000000008152506060019250505060405180910390a17f6ca67a40d32d177c7997facc1824fca23699aa90c8a5e5622bc262c8e834a661604d6040518080602001838152602001828103825260528152602001807f2f55736572732f73686f6b6973686f6b692f646576656c6f706d656e742f636f81526020017f6e73656e7379732f646973747269627574652f636f6e7472616374732f636f6e81526020017f7472616374732f50726f6a6563742e736f6c00000000000000000000000000008152506060019250505060405180910390a17ff08ade2f0c0da67baa7ba1d57e38dbeef0e2081dd536e8a78fb8250e1a496e1760016040518080602001838152602001828103825260528152602001807f2f55736572732f73686f6b6973686f6b692f646576656c6f706d656e742f636f81526020017f6e73656e7379732f646973747269627574652f636f6e7472616374732f636f6e81526020017f7472616374732f50726f6a6563742e736f6c00000000000000000000000000008152506060019250505060405180910390a17f61fc2769b9825a2d640440cf05bcb75301fb5f5274ee8f22ee1df4d7776f6f1460016040518080602001838152602001828103825260528152602001807f2f55736572732f73686f6b6973686f6b692f646576656c6f706d656e742f636f81526020017f6e73656e7379732f646973747269627574652f636f6e7472616374732f636f6e81526020017f7472616374732f50726f6a6563742e736f6c00000000000000000000000000008152506060019250505060405180910390a1600260009054906101000a900473ffffffffffffffffffffffffffffffffffffffff1673ffffffffffffffffffffffffffffffffffffffff163373ffffffffffffffffffffffffffffffffffffffff16141515610e8357600080fd5b7fc87527bec65de4402250ac9da174a21e20ab4caf5f8e8811bd1c43d217af323e60016040518080602001838152602001828103825260528152602001807f2f55736572732f73686f6b6973686f6b692f646576656c6f706d656e742f636f81526020017f6e73656e7379732f646973747269627574652f636f6e7472616374732f636f6e81526020017f7472616374732f50726f6a6563742e736f6c00000000000000000000000000008152506060019250505060405180910390a17f6ca67a40d32d177c7997facc1824fca23699aa90c8a5e5622bc262c8e834a661604e6040518080602001838152602001828103825260528152602001807f2f55736572732f73686f6b6973686f6b692f646576656c6f706d656e742f636f81526020017f6e73656e7379732f646973747269627574652f636f6e7472616374732f636f6e81526020017f7472616374732f50726f6a6563742e736f6c00000000000000000000000000008152506060019250505060405180910390a17f70818a55d36b2eee91c357097bb108cbebe9221344fa3d9a1ecd04b62164841c600f6040518080602001838152602001828103825260528152602001807f2f55736572732f73686f6b6973686f6b692f646576656c6f706d656e742f636f81526020017f6e73656e7379732f646973747269627574652f636f6e7472616374732f636f6e81526020017f7472616374732f50726f6a6563742e736f6c00000000000000000000000000008152506060019250505060405180910390a17f6ca67a40d32d177c7997facc1824fca23699aa90c8a5e5622bc262c8e834a66160e56040518080602001838152602001828103825260528152602001807f2f55736572732f73686f6b6973686f6b692f646576656c6f706d656e742f636f81526020017f6e73656e7379732f646973747269627574652f636f6e7472616374732f636f6e81526020017f7472616374732f50726f6a6563742e736f6c00000000000000000000000000008152506060019250505060405180910390a17ff08ade2f0c0da67baa7ba1d57e38dbeef0e2081dd536e8a78fb8250e1a496e1760046040518080602001838152602001828103825260528152602001807f2f55736572732f73686f6b6973686f6b692f646576656c6f706d656e742f636f81526020017f6e73656e7379732f646973747269627574652f636f6e7472616374732f636f6e81526020017f7472616374732f50726f6a6563742e736f6c00000000000000000000000000008152506060019250505060405180910390a17f61fc2769b9825a2d640440cf05bcb75301fb5f5274ee8f22ee1df4d7776f6f14601a6040518080602001838152602001828103825260528152602001807f2f55736572732f73686f6b6973686f6b692f646576656c6f706d656e742f636f81526020017f6e73656e7379732f646973747269627574652f636f6e7472616374732f636f6e81526020017f7472616374732f50726f6a6563742e736f6c00000000000000000000000000008152506060019250505060405180910390a16003805414151561130157600080fd5b7fc87527bec65de4402250ac9da174a21e20ab4caf5f8e8811bd1c43d217af323e60046040518080602001838152602001828103825260528152602001807f2f55736572732f73686f6b6973686f6b692f646576656c6f706d656e742f636f81526020017f6e73656e7379732f646973747269627574652f636f6e7472616374732f636f6e81526020017f7472616374732f50726f6a6563742e736f6c00000000000000000000000000008152506060019250505060405180910390a17f6ca67a40d32d177c7997facc1824fca23699aa90c8a5e5622bc262c8e834a66160e66040518080602001838152602001828103825260528152602001807f2f55736572732f73686f6b6973686f6b692f646576656c6f706d656e742f636f81526020017f6e73656e7379732f646973747269627574652f636f6e7472616374732f636f6e81526020017f7472616374732f50726f6a6563742e736f6c00000000000000000000000000008152506060019250505060405180910390a17f61fc2769b9825a2d640440cf05bcb75301fb5f5274ee8f22ee1df4d7776f6f14601b6040518080602001838152602001828103825260528152602001807f2f55736572732f73686f6b6973686f6b692f646576656c6f706d656e742f636f81526020017f6e73656e7379732f646973747269627574652f636f6e7472616374732f636f6e81526020017f7472616374732f50726f6a6563742e736f6c00000000000000000000000000008152506060019250505060405180910390a18160188281548110151561154857fe5b906000526020600020900160006101000a81548173ffffffffffffffffffffffffffffffffffffffff021916908373ffffffffffffffffffffffffffffffffffffffff1602179055505050565b600f5481565b7f70818a55d36b2eee91c357097bb108cbebe9221344fa3d9a1ecd04b62164841c60026040518080602001838152602001828103825260528152602001807f2f55736572732f73686f6b6973686f6b692f646576656c6f706d656e742f636f81526020017f6e73656e7379732f646973747269627574652f636f6e7472616374732f636f6e81526020017f7472616374732f50726f6a6563742e736f6c00000000000000000000000000008152506060019250505060405180910390a17f6ca67a40d32d177c7997facc1824fca23699aa90c8a5e5622bc262c8e834a66160526040518080602001838152602001828103825260528152602001807f2f55736572732f73686f6b6973686f6b692f646576656c6f706d656e742f636f81526020017f6e73656e7379732f646973747269627574652f636f6e7472616374732f636f6e81526020017f7472616374732f50726f6a6563742e736f6c00000000000000000000000000008152506060019250505060405180910390a17ff08ade2f0c0da67baa7ba1d57e38dbeef0e2081dd536e8a78fb8250e1a496e1760026040518080602001838152602001828103825260528152602001807f2f55736572732f73686f6b6973686f6b692f646576656c6f706d656e742f636f81526020017f6e73656e7379732f646973747269627574652f636f6e7472616374732f636f6e81526020017f7472616374732f50726f6a6563742e736f6c00000000000000000000000000008152506060019250505060405180910390a17f61fc2769b9825a2d640440cf05bcb75301fb5f5274ee8f22ee1df4d7776f6f1460026040518080602001838152602001828103825260528152602001807f2f55736572732f73686f6b6973686f6b692f646576656c6f706d656e742f636f81526020017f6e73656e7379732f646973747269627574652f636f6e7472616374732f636f6e81526020017f7472616374732f50726f6a6563742e736f6c00000000000000000000000000008152506060019250505060405180910390a16000809054906101000a900473ffffffffffffffffffffffffffffffffffffffff1673ffffffffffffffffffffffffffffffffffffffff163373ffffffffffffffffffffffffffffffffffffffff161415156118ea57600080fd5b7fc87527bec65de4402250ac9da174a21e20ab4caf5f8e8811bd1c43d217af323e60026040518080602001838152602001828103825260528152602001807f2f55736572732f73686f6b6973686f6b692f646576656c6f706d656e742f636f81526020017f6e73656e7379732f646973747269627574652f636f6e7472616374732f636f6e81526020017f7472616374732f50726f6a6563742e736f6c00000000000000000000000000008152506060019250505060405180910390a17f6ca67a40d32d177c7997facc1824fca23699aa90c8a5e5622bc262c8e834a66160536040518080602001838152602001828103825260528152602001807f2f55736572732f73686f6b6973686f6b692f646576656c6f706d656e742f636f81526020017f6e73656e7379732f646973747269627574652f636f6e7472616374732f636f6e81526020017f7472616374732f50726f6a6563742e736f6c00000000000000000000000000008152506060019250505060405180910390a17f70818a55d36b2eee91c357097bb108cbebe9221344fa3d9a1ecd04b62164841c600b6040518080602001838152602001828103825260528152602001807f2f55736572732f73686f6b6973686f6b692f646576656c6f706d656e742f636f81526020017f6e73656e7379732f646973747269627574652f636f6e7472616374732f636f6e81526020017f7472616374732f50726f6a6563742e736f6c00000000000000000000000000008152506060019250505060405180910390a17f6ca67a40d32d177c7997facc1824fca23699aa90c8a5e5622bc262c8e834a66160c06040518080602001838152602001828103825260528152602001807f2f55736572732f73686f6b6973686f6b692f646576656c6f706d656e742f636f81526020017f6e73656e7379732f646973747269627574652f636f6e7472616374732f636f6e81526020017f7472616374732f50726f6a6563742e736f6c00000000000000000000000000008152506060019250505060405180910390a17f61fc2769b9825a2d640440cf05bcb75301fb5f5274ee8f22ee1df4d7776f6f1460156040518080602001838152602001828103825260528152602001807f2f55736572732f73686f6b6973686f6b692f646576656c6f706d656e742f636f81526020017f6e73656e7379732f646973747269627574652f636f6e7472616374732f636f6e81526020017f7472616374732f50726f6a6563742e736f6c00000000000000000000000000008152506060019250505060405180910390a16000601660008373ffffffffffffffffffffffffffffffffffffffff1673ffffffffffffffffffffffffffffffffffffffff1681526020019081526020016000208190555050565b600d5481565b7f70818a55d36b2eee91c357097bb108cbebe9221344fa3d9a1ecd04b62164841c60026040518080602001838152602001828103825260528152602001807f2f55736572732f73686f6b6973686f6b692f646576656c6f706d656e742f636f81526020017f6e73656e7379732f646973747269627574652f636f6e7472616374732f636f6e81526020017f7472616374732f50726f6a6563742e736f6c00000000000000000000000000008152506060019250505060405180910390a17f6ca67a40d32d177c7997facc1824fca23699aa90c8a5e5622bc262c8e834a66160526040518080602001838152602001828103825260528152602001807f2f55736572732f73686f6b6973686f6b692f646576656c6f706d656e742f636f81526020017f6e73656e7379732f646973747269627574652f636f6e7472616374732f636f6e81526020017f7472616374732f50726f6a6563742e736f6c00000000000000000000000000008152506060019250505060405180910390a17ff08ade2f0c0da67baa7ba1d57e38dbeef0e2081dd536e8a78fb8250e1a496e1760026040518080602001838152602001828103825260528152602001807f2f55736572732f73686f6b6973686f6b692f646576656c6f706d656e742f636f81526020017f6e73656e7379732f646973747269627574652f636f6e7472616374732f636f6e81526020017f7472616374732f50726f6a6563742e736f6c00000000000000000000000000008152506060019250505060405180910390a17f61fc2769b9825a2d640440cf05bcb75301fb5f5274ee8f22ee1df4d7776f6f1460026040518080602001838152602001828103825260528152602001807f2f55736572732f73686f6b6973686f6b692f646576656c6f706d656e742f636f81526020017f6e73656e7379732f646973747269627574652f636f6e7472616374732f636f6e81526020017f7472616374732f50726f6a6563742e736f6c00000000000000000000000000008152506060019250505060405180910390a16000809054906101000a900473ffffffffffffffffffffffffffffffffffffffff1673ffffffffffffffffffffffffffffffffffffffff163373ffffffffffffffffffffffffffffffffffffffff1614151561203857600080fd5b7fc87527bec65de4402250ac9da174a21e20ab4caf5f8e8811bd1c43d217af323e60026040518080602001838152602001828103825260528152602001807f2f55736572732f73686f6b6973686f6b692f646576656c6f706d656e742f636f81526020017f6e73656e7379732f646973747269627574652f636f6e7472616374732f636f6e81526020017f7472616374732f50726f6a6563742e736f6c00000000000000000000000000008152506060019250505060405180910390a17f6ca67a40d32d177c7997facc1824fca23699aa90c8a5e5622bc262c8e834a66160536040518080602001838152602001828103825260528152602001807f2f55736572732f73686f6b6973686f6b692f646576656c6f706d656e742f636f81526020017f6e73656e7379732f646973747269627574652f636f6e7472616374732f636f6e81526020017f7472616374732f50726f6a6563742e736f6c00000000000000000000000000008152506060019250505060405180910390a17f70818a55d36b2eee91c357097bb108cbebe9221344fa3d9a1ecd04b62164841c60116040518080602001838152602001828103825260528152602001807f2f55736572732f73686f6b6973686f6b692f646576656c6f706d656e742f636f81526020017f6e73656e7379732f646973747269627574652f636f6e7472616374732f636f6e81526020017f7472616374732f50726f6a6563742e736f6c00000000000000000000000000008152506060019250505060405180910390a17f6ca67a40d32d177c7997facc1824fca23699aa90c8a5e5622bc262c8e834a66160fe6040518080602001838152602001828103825260528152602001807f2f55736572732f73686f6b6973686f6b692f646576656c6f706d656e742f636f81526020017f6e73656e7379732f646973747269627574652f636f6e7472616374732f636f6e81526020017f7472616374732f50726f6a6563742e736f6c00000000000000000000000000008152506060019250505060405180910390a17ff08ade2f0c0da67baa7ba1d57e38dbeef0e2081dd536e8a78fb8250e1a496e1760056040518080602001838152602001828103825260528152602001807f2f55736572732f73686f6b6973686f6b692f646576656c6f706d656e742f636f81526020017f6e73656e7379732f646973747269627574652f636f6e7472616374732f636f6e81526020017f7472616374732f50726f6a6563742e736f6c00000000000000000000000000008152506060019250505060405180910390a17f61fc2769b9825a2d640440cf05bcb75301fb5f5274ee8f22ee1df4d7776f6f14601d6040518080602001838152602001828103825260528152602001807f2f55736572732f73686f6b6973686f6b692f646576656c6f706d656e742f636f81526020017f6e73656e7379732f646973747269627574652f636f6e7472616374732f636f6e81526020017f7472616374732f50726f6a6563742e736f6c00000000000000000000000000008152506060019250505060405180910390a160016003541415156124b757600080fd5b7fc87527bec65de4402250ac9da174a21e20ab4caf5f8e8811bd1c43d217af323e60056040518080602001838152602001828103825260528152602001807f2f55736572732f73686f6b6973686f6b692f646576656c6f706d656e742f636f81526020017f6e73656e7379732f646973747269627574652f636f6e7472616374732f636f6e81526020017f7472616374732f50726f6a6563742e736f6c00000000000000000000000000008152506060019250505060405180910390a17f6ca67a40d32d177c7997facc1824fca23699aa90c8a5e5622bc262c8e834a6616101006040518080602001838152602001828103825260528152602001807f2f55736572732f73686f6b6973686f6b692f646576656c6f706d656e742f636f81526020017f6e73656e7379732f646973747269627574652f636f6e7472616374732f636f6e81526020017f7472616374732f50726f6a6563742e736f6c00000000000000000000000000008152506060019250505060405180910390a17f61fc2769b9825a2d640440cf05bcb75301fb5f5274ee8f22ee1df4d7776f6f14601e6040518080602001838152602001828103825260528152602001807f2f55736572732f73686f6b6973686f6b692f646576656c6f706d656e742f636f81526020017f6e73656e7379732f646973747269627574652f636f6e7472616374732f636f6e81526020017f7472616374732f50726f6a6563742e736f6c00000000000000000000000000008152506060019250505060405180910390a181601660008573ffffffffffffffffffffffffffffffffffffffff1673ffffffffffffffffffffffffffffffffffffffff168152602001908152602001600020600082825401925050819055507f6ca67a40d32d177c7997facc1824fca23699aa90c8a5e5622bc262c8e834a6616101016040518080602001838152602001828103825260528152602001807f2f55736572732f73686f6b6973686f6b692f646576656c6f706d656e742f636f81526020017f6e73656e7379732f646973747269627574652f636f6e7472616374732f636f6e81526020017f7472616374732f50726f6a6563742e736f6c00000000000000000000000000008152506060019250505060405180910390a17f61fc2769b9825a2d640440cf05bcb75301fb5f5274ee8f22ee1df4d7776f6f14601f6040518080602001838152602001828103825260528152602001807f2f55736572732f73686f6b6973686f6b692f646576656c6f706d656e742f636f81526020017f6e73656e7379732f646973747269627574652f636f6e7472616374732f636f6e81526020017f7472616374732f50726f6a6563742e736f6c00000000000000000000000000008152506060019250505060405180910390a1816014600082825401925050819055507f6ca67a40d32d177c7997facc1824fca23699aa90c8a5e5622bc262c8e834a6616101026040518080602001838152602001828103825260528152602001807f2f55736572732f73686f6b6973686f6b692f646576656c6f706d656e742f636f81526020017f6e73656e7379732f646973747269627574652f636f6e7472616374732f636f6e81526020017f7472616374732f50726f6a6563742e736f6c00000000000000000000000000008152506060019250505060405180910390a17f61fc2769b9825a2d640440cf05bcb75301fb5f5274ee8f22ee1df4d7776f6f1460206040518080602001838152602001828103825260528152602001807f2f55736572732f73686f6b6973686f6b692f646576656c6f706d656e742f636f81526020017f6e73656e7379732f646973747269627574652f636f6e7472616374732f636f6e81526020017f7472616374732f50726f6a6563742e736f6c00000000000000000000000000008152506060019250505060405180910390a180600f60008282540192505081905550505050565b7f70818a55d36b2eee91c357097bb108cbebe9221344fa3d9a1ecd04b62164841c60016040518080602001838152602001828103825260528152602001807f2f55736572732f73686f6b6973686f6b692f646576656c6f706d656e742f636f81526020017f6e73656e7379732f646973747269627574652f636f6e7472616374732f636f6e81526020017f7472616374732f50726f6a6563742e736f6c00000000000000000000000000008152506060019250505060405180910390a17f6ca67a40d32d177c7997facc1824fca23699aa90c8a5e5622bc262c8e834a661604d6040518080602001838152602001828103825260528152602001807f2f55736572732f73686f6b6973686f6b692f646576656c6f706d656e742f636f81526020017f6e73656e7379732f646973747269627574652f636f6e7472616374732f636f6e81526020017f7472616374732f50726f6a6563742e736f6c00000000000000000000000000008152506060019250505060405180910390a17ff08ade2f0c0da67baa7ba1d57e38dbeef0e2081dd536e8a78fb8250e1a496e1760016040518080602001838152602001828103825260528152602001807f2f55736572732f73686f6b6973686f6b692f646576656c6f706d656e742f636f81526020017f6e73656e7379732f646973747269627574652f636f6e7472616374732f636f6e81526020017f7472616374732f50726f6a6563742e736f6c00000000000000000000000000008152506060019250505060405180910390a17f61fc2769b9825a2d640440cf05bcb75301fb5f5274ee8f22ee1df4d7776f6f1460016040518080602001838152602001828103825260528152602001807f2f55736572732f73686f6b6973686f6b692f646576656c6f706d656e742f636f81526020017f6e73656e7379732f646973747269627574652f636f6e7472616374732f636f6e81526020017f7472616374732f50726f6a6563742e736f6c00000000000000000000000000008152506060019250505060405180910390a1600260009054906101000a900473ffffffffffffffffffffffffffffffffffffffff1673ffffffffffffffffffffffffffffffffffffffff163373ffffffffffffffffffffffffffffffffffffffff16141515612da757600080fd5b7fc87527bec65de4402250ac9da174a21e20ab4caf5f8e8811bd1c43d217af323e60016040518080602001838152602001828103825260528152602001807f2f55736572732f73686f6b6973686f6b692f646576656c6f706d656e742f636f81526020017f6e73656e7379732f646973747269627574652f636f6e7472616374732f636f6e81526020017f7472616374732f50726f6a6563742e736f6c00000000000000000000000000008152506060019250505060405180910390a17f6ca67a40d32d177c7997facc1824fca23699aa90c8a5e5622bc262c8e834a661604e6040518080602001838152602001828103825260528152602001807f2f55736572732f73686f6b6973686f6b692f646576656c6f706d656e742f636f81526020017f6e73656e7379732f646973747269627574652f636f6e7472616374732f636f6e81526020017f7472616374732f50726f6a6563742e736f6c00000000000000000000000000008152506060019250505060405180910390a17f70818a55d36b2eee91c357097bb108cbebe9221344fa3d9a1ecd04b62164841c60106040518080602001838152602001828103825260528152602001807f2f55736572732f73686f6b6973686f6b692f646576656c6f706d656e742f636f81526020017f6e73656e7379732f646973747269627574652f636f6e7472616374732f636f6e81526020017f7472616374732f50726f6a6563742e736f6c00000000000000000000000000008152506060019250505060405180910390a17f6ca67a40d32d177c7997facc1824fca23699aa90c8a5e5622bc262c8e834a66160ef6040518080602001838152602001828103825260528152602001807f2f55736572732f73686f6b6973686f6b692f646576656c6f706d656e742f636f81526020017f6e73656e7379732f646973747269627574652f636f6e7472616374732f636f6e81526020017f7472616374732f50726f6a6563742e736f6c00000000000000000000000000008152506060019250505060405180910390a17f61fc2769b9825a2d640440cf05bcb75301fb5f5274ee8f22ee1df4d7776f6f14601c6040518080602001838152602001828103825260528152602001807f2f55736572732f73686f6b6973686f6b692f646576656c6f706d656e742f636f81526020017f6e73656e7379732f646973747269627574652f636f6e7472616374732f636f6e81526020017f7472616374732f50726f6a6563742e736f6c00000000000000000000000000008152506060019250505060405180910390a18060198190555050565b60115481565b600c5481565b60105481565b60125481565b7f70818a55d36b2eee91c357097bb108cbebe9221344fa3d9a1ecd04b62164841c60036040518080602001838152602001828103825260528152602001807f2f55736572732f73686f6b6973686f6b692f646576656c6f706d656e742f636f81526020017f6e73656e7379732f646973747269627574652f636f6e7472616374732f636f6e81526020017f7472616374732f50726f6a6563742e736f6c00000000000000000000000000008152506060019250505060405180910390a17f6ca67a40d32d177c7997facc1824fca23699aa90c8a5e5622bc262c8e834a66160576040518080602001838152602001828103825260528152602001807f2f55736572732f73686f6b6973686f6b692f646576656c6f706d656e742f636f81526020017f6e73656e7379732f646973747269627574652f636f6e7472616374732f636f6e81526020017f7472616374732f50726f6a6563742e736f6c00000000000000000000000000008152506060019250505060405180910390a17ff08ade2f0c0da67baa7ba1d57e38dbeef0e2081dd536e8a78fb8250e1a496e1760036040518080602001838152602001828103825260528152602001807f2f55736572732f73686f6b6973686f6b692f646576656c6f706d656e742f636f81526020017f6e73656e7379732f646973747269627574652f636f6e7472616374732f636f6e81526020017f7472616374732f50726f6a6563742e736f6c00000000000000000000000000008152506060019250505060405180910390a17f61fc2769b9825a2d640440cf05bcb75301fb5f5274ee8f22ee1df4d7776f6f1460036040518080602001838152602001828103825260528152602001807f2f55736572732f73686f6b6973686f6b692f646576656c6f706d656e742f636f81526020017f6e73656e7379732f646973747269627574652f636f6e7472616374732f636f6e81526020017f7472616374732f50726f6a6563742e736f6c00000000000000000000000000008152506060019250505060405180910390a1600160009054906101000a900473ffffffffffffffffffffffffffffffffffffffff1673ffffffffffffffffffffffffffffffffffffffff163373ffffffffffffffffffffffffffffffffffffffff161415156134ca57600080fd5b7fc87527bec65de4402250ac9da174a21e20ab4caf5f8e8811bd1c43d217af323e60036040518080602001838152602001828103825260528152602001807f2f55736572732f73686f6b6973686f6b692f646576656c6f706d656e742f636f81526020017f6e73656e7379732f646973747269627574652f636f6e7472616374732f636f6e81526020017f7472616374732f50726f6a6563742e736f6c00000000000000000000000000008152506060019250505060405180910390a17f6ca67a40d32d177c7997facc1824fca23699aa90c8a5e5622bc262c8e834a66160586040518080602001838152602001828103825260528152602001807f2f55736572732f73686f6b6973686f6b692f646576656c6f706d656e742f636f81526020017f6e73656e7379732f646973747269627574652f636f6e7472616374732f636f6e81526020017f7472616374732f50726f6a6563742e736f6c00000000000000000000000000008152506060019250505060405180910390a17f70818a55d36b2eee91c357097bb108cbebe9221344fa3d9a1ecd04b62164841c60146040518080602001838152602001828103825260528152602001807f2f55736572732f73686f6b6973686f6b692f646576656c6f706d656e742f636f81526020017f6e73656e7379732f646973747269627574652f636f6e7472616374732f636f6e81526020017f7472616374732f50726f6a6563742e736f6c00000000000000000000000000008152506060019250505060405180910390a17f6ca67a40d32d177c7997facc1824fca23699aa90c8a5e5622bc262c8e834a6616101316040518080602001838152602001828103825260528152602001807f2f55736572732f73686f6b6973686f6b692f646576656c6f706d656e742f636f81526020017f6e73656e7379732f646973747269627574652f636f6e7472616374732f636f6e81526020017f7472616374732f50726f6a6563742e736f6c00000000000000000000000000008152506060019250505060405180910390a17ff08ade2f0c0da67baa7ba1d57e38dbeef0e2081dd536e8a78fb8250e1a496e17600a6040518080602001838152602001828103825260528152602001807f2f55736572732f73686f6b6973686f6b692f646576656c6f706d656e742f636f81526020017f6e73656e7379732f646973747269627574652f636f6e7472616374732f636f6e81526020017f7472616374732f50726f6a6563742e736f6c00000000000000000000000000008152506060019250505060405180910390a17f61fc2769b9825a2d640440cf05bcb75301fb5f5274ee8f22ee1df4d7776f6f14602c6040518080602001838152602001828103825260528152602001807f2f55736572732f73686f6b6973686f6b692f646576656c6f706d656e742f636f81526020017f6e73656e7379732f646973747269627574652f636f6e7472616374732f636f6e81526020017f7472616374732f50726f6a6563742e736f6c00000000000000000000000000008152506060019250505060405180910390a1600160035414151561394a57600080fd5b7fc87527bec65de4402250ac9da174a21e20ab4caf5f8e8811bd1c43d217af323e600a6040518080602001838152602001828103825260528152602001807f2f55736572732f73686f6b6973686f6b692f646576656c6f706d656e742f636f81526020017f6e73656e7379732f646973747269627574652f636f6e7472616374732f636f6e81526020017f7472616374732f50726f6a6563742e736f6c00000000000000000000000000008152506060019250505060405180910390a17f6ca67a40d32d177c7997facc1824fca23699aa90c8a5e5622bc262c8e834a6616101326040518080602001838152602001828103825260528152602001807f2f55736572732f73686f6b6973686f6b692f646576656c6f706d656e742f636f81526020017f6e73656e7379732f646973747269627574652f636f6e7472616374732f636f6e81526020017f7472616374732f50726f6a6563742e736f6c00000000000000000000000000008152506060019250505060405180910390a17ff08ade2f0c0da67baa7ba1d57e38dbeef0e2081dd536e8a78fb8250e1a496e17600b6040518080602001838152602001828103825260528152602001807f2f55736572732f73686f6b6973686f6b692f646576656c6f706d656e742f636f81526020017f6e73656e7379732f646973747269627574652f636f6e7472616374732f636f6e81526020017f7472616374732f50726f6a6563742e736f6c00000000000000000000000000008152506060019250505060405180910390a17f61fc2769b9825a2d640440cf05bcb75301fb5f5274ee8f22ee1df4d7776f6f14602d6040518080602001838152602001828103825260528152602001807f2f55736572732f73686f6b6973686f6b692f646576656c6f706d656e742f636f81526020017f6e73656e7379732f646973747269627574652f636f6e7472616374732f636f6e81526020017f7472616374732f50726f6a6563742e736f6c00000000000000000000000000008152506060019250505060405180910390a1601760008373ffffffffffffffffffffffffffffffffffffffff1673ffffffffffffffffffffffffffffffffffffffff16815260200190815260200160002054613cd182601760008673ffffffffffffffffffffffffffffffffffffffff1673ffffffffffffffffffffffffffffffffffffffff1681526020019081526020016000205461a6c490919063ffffffff16565b108015613d1d575080601760008473ffffffffffffffffffffffffffffffffffffffff1673ffffffffffffffffffffffffffffffffffffffff1681526020019081526020016000205410155b1515613d2857600080fd5b7fc87527bec65de4402250ac9da174a21e20ab4caf5f8e8811bd1c43d217af323e600b6040518080602001838152602001828103825260528152602001807f2f55736572732f73686f6b6973686f6b692f646576656c6f706d656e742f636f81526020017f6e73656e7379732f646973747269627574652f636f6e7472616374732f636f6e81526020017f7472616374732f50726f6a6563742e736f6c00000000000000000000000000008152506060019250505060405180910390a17f6ca67a40d32d177c7997facc1824fca23699aa90c8a5e5622bc262c8e834a6616101376040518080602001838152602001828103825260528152602001807f2f55736572732f73686f6b6973686f6b692f646576656c6f706d656e742f636f81526020017f6e73656e7379732f646973747269627574652f636f6e7472616374732f636f6e81526020017f7472616374732f50726f6a6563742e736f6c00000000000000000000000000008152506060019250505060405180910390a17f61fc2769b9825a2d640440cf05bcb75301fb5f5274ee8f22ee1df4d7776f6f14602e6040518080602001838152602001828103825260528152602001807f2f55736572732f73686f6b6973686f6b692f646576656c6f706d656e742f636f81526020017f6e73656e7379732f646973747269627574652f636f6e7472616374732f636f6e81526020017f7472616374732f50726f6a6563742e736f6c00000000000000000000000000008152506060019250505060405180910390a180601760008473ffffffffffffffffffffffffffffffffffffffff1673ffffffffffffffffffffffffffffffffffffffff168152602001908152602001600020600082825403925050819055507f6ca67a40d32d177c7997facc1824fca23699aa90c8a5e5622bc262c8e834a6616101386040518080602001838152602001828103825260528152602001807f2f55736572732f73686f6b6973686f6b692f646576656c6f706d656e742f636f81526020017f6e73656e7379732f646973747269627574652f636f6e7472616374732f636f6e81526020017f7472616374732f50726f6a6563742e736f6c00000000000000000000000000008152506060019250505060405180910390a17f61fc2769b9825a2d640440cf05bcb75301fb5f5274ee8f22ee1df4d7776f6f14602f6040518080602001838152602001828103825260528152602001807f2f55736572732f73686f6b6973686f6b692f646576656c6f706d656e742f636f81526020017f6e73656e7379732f646973747269627574652f636f6e7472616374732f636f6e81526020017f7472616374732f50726f6a6563742e736f6c00000000000000000000000000008152506060019250505060405180910390a1806015600082825403925050819055505050565b7f70818a55d36b2eee91c357097bb108cbebe9221344fa3d9a1ecd04b62164841c60016040518080602001838152602001828103825260528152602001807f2f55736572732f73686f6b6973686f6b692f646576656c6f706d656e742f636f81526020017f6e73656e7379732f646973747269627574652f636f6e7472616374732f636f6e81526020017f7472616374732f50726f6a6563742e736f6c00000000000000000000000000008152506060019250505060405180910390a17f6ca67a40d32d177c7997facc1824fca23699aa90c8a5e5622bc262c8e834a661604d6040518080602001838152602001828103825260528152602001807f2f55736572732f73686f6b6973686f6b692f646576656c6f706d656e742f636f81526020017f6e73656e7379732f646973747269627574652f636f6e7472616374732f636f6e81526020017f7472616374732f50726f6a6563742e736f6c00000000000000000000000000008152506060019250505060405180910390a17ff08ade2f0c0da67baa7ba1d57e38dbeef0e2081dd536e8a78fb8250e1a496e1760016040518080602001838152602001828103825260528152602001807f2f55736572732f73686f6b6973686f6b692f646576656c6f706d656e742f636f81526020017f6e73656e7379732f646973747269627574652f636f6e7472616374732f636f6e81526020017f7472616374732f50726f6a6563742e736f6c00000000000000000000000000008152506060019250505060405180910390a17f61fc2769b9825a2d640440cf05bcb75301fb5f5274ee8f22ee1df4d7776f6f1460016040518080602001838152602001828103825260528152602001807f2f55736572732f73686f6b6973686f6b692f646576656c6f706d656e742f636f81526020017f6e73656e7379732f646973747269627574652f636f6e7472616374732f636f6e81526020017f7472616374732f50726f6a6563742e736f6c00000000000000000000000000008152506060019250505060405180910390a1600260009054906101000a900473ffffffffffffffffffffffffffffffffffffffff1673ffffffffffffffffffffffffffffffffffffffff163373ffffffffffffffffffffffffffffffffffffffff1614151561448c57600080fd5b7fc87527bec65de4402250ac9da174a21e20ab4caf5f8e8811bd1c43d217af323e60016040518080602001838152602001828103825260528152602001807f2f55736572732f73686f6b6973686f6b692f646576656c6f706d656e742f636f81526020017f6e73656e7379732f646973747269627574652f636f6e7472616374732f636f6e81526020017f7472616374732f50726f6a6563742e736f6c00000000000000000000000000008152506060019250505060405180910390a17f6ca67a40d32d177c7997facc1824fca23699aa90c8a5e5622bc262c8e834a661604e6040518080602001838152602001828103825260528152602001807f2f55736572732f73686f6b6973686f6b692f646576656c6f706d656e742f636f81526020017f6e73656e7379732f646973747269627574652f636f6e7472616374732f636f6e81526020017f7472616374732f50726f6a6563742e736f6c00000000000000000000000000008152506060019250505060405180910390a17f70818a55d36b2eee91c357097bb108cbebe9221344fa3d9a1ecd04b62164841c600d6040518080602001838152602001828103825260528152602001807f2f55736572732f73686f6b6973686f6b692f646576656c6f706d656e742f636f81526020017f6e73656e7379732f646973747269627574652f636f6e7472616374732f636f6e81526020017f7472616374732f50726f6a6563742e736f6c00000000000000000000000000008152506060019250505060405180910390a17f6ca67a40d32d177c7997facc1824fca23699aa90c8a5e5622bc262c8e834a66160d16040518080602001838152602001828103825260528152602001807f2f55736572732f73686f6b6973686f6b692f646576656c6f706d656e742f636f81526020017f6e73656e7379732f646973747269627574652f636f6e7472616374732f636f6e81526020017f7472616374732f50726f6a6563742e736f6c00000000000000000000000000008152506060019250505060405180910390a17f61fc2769b9825a2d640440cf05bcb75301fb5f5274ee8f22ee1df4d7776f6f1460176040518080602001838152602001828103825260528152602001807f2f55736572732f73686f6b6973686f6b692f646576656c6f706d656e742f636f81526020017f6e73656e7379732f646973747269627574652f636f6e7472616374732f636f6e81526020017f7472616374732f50726f6a6563742e736f6c00000000000000000000000000008152506060019250505060405180910390a160006014819055507f6ca67a40d32d177c7997facc1824fca23699aa90c8a5e5622bc262c8e834a66160d26040518080602001838152602001828103825260528152602001807f2f55736572732f73686f6b6973686f6b692f646576656c6f706d656e742f636f81526020017f6e73656e7379732f646973747269627574652f636f6e7472616374732f636f6e81526020017f7472616374732f50726f6a6563742e736f6c00000000000000000000000000008152506060019250505060405180910390a17f61fc2769b9825a2d640440cf05bcb75301fb5f5274ee8f22ee1df4d7776f6f1460186040518080602001838152602001828103825260528152602001807f2f55736572732f73686f6b6973686f6b692f646576656c6f706d656e742f636f81526020017f6e73656e7379732f646973747269627574652f636f6e7472616374732f636f6e81526020017f7472616374732f50726f6a6563742e736f6c00000000000000000000000000008152506060019250505060405180910390a16000601581905550565b600a5481565b60166020528060005260406000206000915090505481565b60176020528060005260406000206000915090505481565b60065481565b60045481565b7f70818a55d36b2eee91c357097bb108cbebe9221344fa3d9a1ecd04b62164841c60036040518080602001838152602001828103825260528152602001807f2f55736572732f73686f6b6973686f6b692f646576656c6f706d656e742f636f81526020017f6e73656e7379732f646973747269627574652f636f6e7472616374732f636f6e81526020017f7472616374732f50726f6a6563742e736f6c00000000000000000000000000008152506060019250505060405180910390a17f6ca67a40d32d177c7997facc1824fca23699aa90c8a5e5622bc262c8e834a66160576040518080602001838152602001828103825260528152602001807f2f55736572732f73686f6b6973686f6b692f646576656c6f706d656e742f636f81526020017f6e73656e7379732f646973747269627574652f636f6e7472616374732f636f6e81526020017f7472616374732f50726f6a6563742e736f6c00000000000000000000000000008152506060019250505060405180910390a17ff08ade2f0c0da67baa7ba1d57e38dbeef0e2081dd536e8a78fb8250e1a496e1760036040518080602001838152602001828103825260528152602001807f2f55736572732f73686f6b6973686f6b692f646576656c6f706d656e742f636f81526020017f6e73656e7379732f646973747269627574652f636f6e7472616374732f636f6e81526020017f7472616374732f50726f6a6563742e736f6c00000000000000000000000000008152506060019250505060405180910390a17f61fc2769b9825a2d640440cf05bcb75301fb5f5274ee8f22ee1df4d7776f6f1460036040518080602001838152602001828103825260528152602001807f2f55736572732f73686f6b6973686f6b692f646576656c6f706d656e742f636f81526020017f6e73656e7379732f646973747269627574652f636f6e7472616374732f636f6e81526020017f7472616374732f50726f6a6563742e736f6c00000000000000000000000000008152506060019250505060405180910390a1600160009054906101000a900473ffffffffffffffffffffffffffffffffffffffff1673ffffffffffffffffffffffffffffffffffffffff163373ffffffffffffffffffffffffffffffffffffffff16141515614d5b57600080fd5b7fc87527bec65de4402250ac9da174a21e20ab4caf5f8e8811bd1c43d217af323e60036040518080602001838152602001828103825260528152602001807f2f55736572732f73686f6b6973686f6b692f646576656c6f706d656e742f636f81526020017f6e73656e7379732f646973747269627574652f636f6e7472616374732f636f6e81526020017f7472616374732f50726f6a6563742e736f6c00000000000000000000000000008152506060019250505060405180910390a17f6ca67a40d32d177c7997facc1824fca23699aa90c8a5e5622bc262c8e834a66160586040518080602001838152602001828103825260528152602001807f2f55736572732f73686f6b6973686f6b692f646576656c6f706d656e742f636f81526020017f6e73656e7379732f646973747269627574652f636f6e7472616374732f636f6e81526020017f7472616374732f50726f6a6563742e736f6c00000000000000000000000000008152506060019250505060405180910390a17f70818a55d36b2eee91c357097bb108cbebe9221344fa3d9a1ecd04b62164841c600c6040518080602001838152602001828103825260528152602001807f2f55736572732f73686f6b6973686f6b692f646576656c6f706d656e742f636f81526020017f6e73656e7379732f646973747269627574652f636f6e7472616374732f636f6e81526020017f7472616374732f50726f6a6563742e736f6c00000000000000000000000000008152506060019250505060405180910390a17f6ca67a40d32d177c7997facc1824fca23699aa90c8a5e5622bc262c8e834a66160c96040518080602001838152602001828103825260528152602001807f2f55736572732f73686f6b6973686f6b692f646576656c6f706d656e742f636f81526020017f6e73656e7379732f646973747269627574652f636f6e7472616374732f636f6e81526020017f7472616374732f50726f6a6563742e736f6c00000000000000000000000000008152506060019250505060405180910390a17f61fc2769b9825a2d640440cf05bcb75301fb5f5274ee8f22ee1df4d7776f6f1460166040518080602001838152602001828103825260528152602001807f2f55736572732f73686f6b6973686f6b692f646576656c6f706d656e742f636f81526020017f6e73656e7379732f646973747269627574652f636f6e7472616374732f636f6e81526020017f7472616374732f50726f6a6563742e736f6c00000000000000000000000000008152506060019250505060405180910390a16000601760008373ffffffffffffffffffffffffffffffffffffffff1673ffffffffffffffffffffffffffffffffffffffff1681526020019081526020016000208190555050565b7f70818a55d36b2eee91c357097bb108cbebe9221344fa3d9a1ecd04b62164841c60016040518080602001838152602001828103825260528152602001807f2f55736572732f73686f6b6973686f6b692f646576656c6f706d656e742f636f81526020017f6e73656e7379732f646973747269627574652f636f6e7472616374732f636f6e81526020017f7472616374732f50726f6a6563742e736f6c00000000000000000000000000008152506060019250505060405180910390a17f6ca67a40d32d177c7997facc1824fca23699aa90c8a5e5622bc262c8e834a661604d6040518080602001838152602001828103825260528152602001807f2f55736572732f73686f6b6973686f6b692f646576656c6f706d656e742f636f81526020017f6e73656e7379732f646973747269627574652f636f6e7472616374732f636f6e81526020017f7472616374732f50726f6a6563742e736f6c00000000000000000000000000008152506060019250505060405180910390a17ff08ade2f0c0da67baa7ba1d57e38dbeef0e2081dd536e8a78fb8250e1a496e1760016040518080602001838152602001828103825260528152602001807f2f55736572732f73686f6b6973686f6b692f646576656c6f706d656e742f636f81526020017f6e73656e7379732f646973747269627574652f636f6e7472616374732f636f6e81526020017f7472616374732f50726f6a6563742e736f6c00000000000000000000000000008152506060019250505060405180910390a17f61fc2769b9825a2d640440cf05bcb75301fb5f5274ee8f22ee1df4d7776f6f1460016040518080602001838152602001828103825260528152602001807f2f55736572732f73686f6b6973686f6b692f646576656c6f706d656e742f636f81526020017f6e73656e7379732f646973747269627574652f636f6e7472616374732f636f6e81526020017f7472616374732f50726f6a6563742e736f6c00000000000000000000000000008152506060019250505060405180910390a1600260009054906101000a900473ffffffffffffffffffffffffffffffffffffffff1673ffffffffffffffffffffffffffffffffffffffff163373ffffffffffffffffffffffffffffffffffffffff161415156154a457600080fd5b7fc87527bec65de4402250ac9da174a21e20ab4caf5f8e8811bd1c43d217af323e60016040518080602001838152602001828103825260528152602001807f2f55736572732f73686f6b6973686f6b692f646576656c6f706d656e742f636f81526020017f6e73656e7379732f646973747269627574652f636f6e7472616374732f636f6e81526020017f7472616374732f50726f6a6563742e736f6c00000000000000000000000000008152506060019250505060405180910390a17f6ca67a40d32d177c7997facc1824fca23699aa90c8a5e5622bc262c8e834a661604e6040518080602001838152602001828103825260528152602001807f2f55736572732f73686f6b6973686f6b692f646576656c6f706d656e742f636f81526020017f6e73656e7379732f646973747269627574652f636f6e7472616374732f636f6e81526020017f7472616374732f50726f6a6563742e736f6c00000000000000000000000000008152506060019250505060405180910390a17f70818a55d36b2eee91c357097bb108cbebe9221344fa3d9a1ecd04b62164841c60166040518080602001838152602001828103825260528152602001807f2f55736572732f73686f6b6973686f6b692f646576656c6f706d656e742f636f81526020017f6e73656e7379732f646973747269627574652f636f6e7472616374732f636f6e81526020017f7472616374732f50726f6a6563742e736f6c00000000000000000000000000008152506060019250505060405180910390a17f6ca67a40d32d177c7997facc1824fca23699aa90c8a5e5622bc262c8e834a6616101526040518080602001838152602001828103825260528152602001807f2f55736572732f73686f6b6973686f6b692f646576656c6f706d656e742f636f81526020017f6e73656e7379732f646973747269627574652f636f6e7472616374732f636f6e81526020017f7472616374732f50726f6a6563742e736f6c00000000000000000000000000008152506060019250505060405180910390a18173ffffffffffffffffffffffffffffffffffffffff166108fc829081150290604051600060405180830381858888f1935050505015156157d957600080fd5b5050565b7f70818a55d36b2eee91c357097bb108cbebe9221344fa3d9a1ecd04b62164841c60036040518080602001838152602001828103825260528152602001807f2f55736572732f73686f6b6973686f6b692f646576656c6f706d656e742f636f81526020017f6e73656e7379732f646973747269627574652f636f6e7472616374732f636f6e81526020017f7472616374732f50726f6a6563742e736f6c00000000000000000000000000008152506060019250505060405180910390a17f6ca67a40d32d177c7997facc1824fca23699aa90c8a5e5622bc262c8e834a66160576040518080602001838152602001828103825260528152602001807f2f55736572732f73686f6b6973686f6b692f646576656c6f706d656e742f636f81526020017f6e73656e7379732f646973747269627574652f636f6e7472616374732f636f6e81526020017f7472616374732f50726f6a6563742e736f6c00000000000000000000000000008152506060019250505060405180910390a17ff08ade2f0c0da67baa7ba1d57e38dbeef0e2081dd536e8a78fb8250e1a496e1760036040518080602001838152602001828103825260528152602001807f2f55736572732f73686f6b6973686f6b692f646576656c6f706d656e742f636f81526020017f6e73656e7379732f646973747269627574652f636f6e7472616374732f636f6e81526020017f7472616374732f50726f6a6563742e736f6c00000000000000000000000000008152506060019250505060405180910390a17f61fc2769b9825a2d640440cf05bcb75301fb5f5274ee8f22ee1df4d7776f6f1460036040518080602001838152602001828103825260528152602001807f2f55736572732f73686f6b6973686f6b692f646576656c6f706d656e742f636f81526020017f6e73656e7379732f646973747269627574652f636f6e7472616374732f636f6e81526020017f7472616374732f50726f6a6563742e736f6c00000000000000000000000000008152506060019250505060405180910390a1600160009054906101000a900473ffffffffffffffffffffffffffffffffffffffff1673ffffffffffffffffffffffffffffffffffffffff163373ffffffffffffffffffffffffffffffffffffffff16141515615b2d57600080fd5b7fc87527bec65de4402250ac9da174a21e20ab4caf5f8e8811bd1c43d217af323e60036040518080602001838152602001828103825260528152602001807f2f55736572732f73686f6b6973686f6b692f646576656c6f706d656e742f636f81526020017f6e73656e7379732f646973747269627574652f636f6e7472616374732f636f6e81526020017f7472616374732f50726f6a6563742e736f6c00000000000000000000000000008152506060019250505060405180910390a17f6ca67a40d32d177c7997facc1824fca23699aa90c8a5e5622bc262c8e834a66160586040518080602001838152602001828103825260528152602001807f2f55736572732f73686f6b6973686f6b692f646576656c6f706d656e742f636f81526020017f6e73656e7379732f646973747269627574652f636f6e7472616374732f636f6e81526020017f7472616374732f50726f6a6563742e736f6c00000000000000000000000000008152506060019250505060405180910390a17f70818a55d36b2eee91c357097bb108cbebe9221344fa3d9a1ecd04b62164841c60136040518080602001838152602001828103825260528152602001807f2f55736572732f73686f6b6973686f6b692f646576656c6f706d656e742f636f81526020017f6e73656e7379732f646973747269627574652f636f6e7472616374732f636f6e81526020017f7472616374732f50726f6a6563742e736f6c00000000000000000000000000008152506060019250505060405180910390a17f6ca67a40d32d177c7997facc1824fca23699aa90c8a5e5622bc262c8e834a6616101236040518080602001838152602001828103825260528152602001807f2f55736572732f73686f6b6973686f6b692f646576656c6f706d656e742f636f81526020017f6e73656e7379732f646973747269627574652f636f6e7472616374732f636f6e81526020017f7472616374732f50726f6a6563742e736f6c00000000000000000000000000008152506060019250505060405180910390a17ff08ade2f0c0da67baa7ba1d57e38dbeef0e2081dd536e8a78fb8250e1a496e1760086040518080602001838152602001828103825260528152602001807f2f55736572732f73686f6b6973686f6b692f646576656c6f706d656e742f636f81526020017f6e73656e7379732f646973747269627574652f636f6e7472616374732f636f6e81526020017f7472616374732f50726f6a6563742e736f6c00000000000000000000000000008152506060019250505060405180910390a17f61fc2769b9825a2d640440cf05bcb75301fb5f5274ee8f22ee1df4d7776f6f1460286040518080602001838152602001828103825260528152602001807f2f55736572732f73686f6b6973686f6b692f646576656c6f706d656e742f636f81526020017f6e73656e7379732f646973747269627574652f636f6e7472616374732f636f6e81526020017f7472616374732f50726f6a6563742e736f6c00000000000000000000000000008152506060019250505060405180910390a16001600354141515615fad57600080fd5b7fc87527bec65de4402250ac9da174a21e20ab4caf5f8e8811bd1c43d217af323e60086040518080602001838152602001828103825260528152602001807f2f55736572732f73686f6b6973686f6b692f646576656c6f706d656e742f636f81526020017f6e73656e7379732f646973747269627574652f636f6e7472616374732f636f6e81526020017f7472616374732f50726f6a6563742e736f6c00000000000000000000000000008152506060019250505060405180910390a17f6ca67a40d32d177c7997facc1824fca23699aa90c8a5e5622bc262c8e834a6616101246040518080602001838152602001828103825260528152602001807f2f55736572732f73686f6b6973686f6b692f646576656c6f706d656e742f636f81526020017f6e73656e7379732f646973747269627574652f636f6e7472616374732f636f6e81526020017f7472616374732f50726f6a6563742e736f6c00000000000000000000000000008152506060019250505060405180910390a17ff08ade2f0c0da67baa7ba1d57e38dbeef0e2081dd536e8a78fb8250e1a496e1760096040518080602001838152602001828103825260528152602001807f2f55736572732f73686f6b6973686f6b692f646576656c6f706d656e742f636f81526020017f6e73656e7379732f646973747269627574652f636f6e7472616374732f636f6e81526020017f7472616374732f50726f6a6563742e736f6c00000000000000000000000000008152506060019250505060405180910390a17f61fc2769b9825a2d640440cf05bcb75301fb5f5274ee8f22ee1df4d7776f6f1460296040518080602001838152602001828103825260528152602001807f2f55736572732f73686f6b6973686f6b692f646576656c6f706d656e742f636f81526020017f6e73656e7379732f646973747269627574652f636f6e7472616374732f636f6e81526020017f7472616374732f50726f6a6563742e736f6c00000000000000000000000000008152506060019250505060405180910390a1601760008373ffffffffffffffffffffffffffffffffffffffff1673ffffffffffffffffffffffffffffffffffffffff1681526020019081526020016000205481601760008573ffffffffffffffffffffffffffffffffffffffff1673ffffffffffffffffffffffffffffffffffffffff168152602001908152602001600020540111151561633057600080fd5b7fc87527bec65de4402250ac9da174a21e20ab4caf5f8e8811bd1c43d217af323e60096040518080602001838152602001828103825260528152602001807f2f55736572732f73686f6b6973686f6b692f646576656c6f706d656e742f636f81526020017f6e73656e7379732f646973747269627574652f636f6e7472616374732f636f6e81526020017f7472616374732f50726f6a6563742e736f6c00000000000000000000000000008152506060019250505060405180910390a17f6ca67a40d32d177c7997facc1824fca23699aa90c8a5e5622bc262c8e834a6616101266040518080602001838152602001828103825260528152602001807f2f55736572732f73686f6b6973686f6b692f646576656c6f706d656e742f636f81526020017f6e73656e7379732f646973747269627574652f636f6e7472616374732f636f6e81526020017f7472616374732f50726f6a6563742e736f6c00000000000000000000000000008152506060019250505060405180910390a17f61fc2769b9825a2d640440cf05bcb75301fb5f5274ee8f22ee1df4d7776f6f14602a6040518080602001838152602001828103825260528152602001807f2f55736572732f73686f6b6973686f6b692f646576656c6f706d656e742f636f81526020017f6e73656e7379732f646973747269627574652f636f6e7472616374732f636f6e81526020017f7472616374732f50726f6a6563742e736f6c00000000000000000000000000008152506060019250505060405180910390a180601760008473ffffffffffffffffffffffffffffffffffffffff1673ffffffffffffffffffffffffffffffffffffffff168152602001908152602001600020600082825401925050819055507f6ca67a40d32d177c7997facc1824fca23699aa90c8a5e5622bc262c8e834a6616101276040518080602001838152602001828103825260528152602001807f2f55736572732f73686f6b6973686f6b692f646576656c6f706d656e742f636f81526020017f6e73656e7379732f646973747269627574652f636f6e7472616374732f636f6e81526020017f7472616374732f50726f6a6563742e736f6c00000000000000000000000000008152506060019250505060405180910390a17f61fc2769b9825a2d640440cf05bcb75301fb5f5274ee8f22ee1df4d7776f6f14602b6040518080602001838152602001828103825260528152602001807f2f55736572732f73686f6b6973686f6b692f646576656c6f706d656e742f636f81526020017f6e73656e7379732f646973747269627574652f636f6e7472616374732f636f6e81526020017f7472616374732f50726f6a6563742e736f6c00000000000000000000000000008152506060019250505060405180910390a1806015600082825401925050819055505050565b60075481565b7f70818a55d36b2eee91c357097bb108cbebe9221344fa3d9a1ecd04b62164841c60016040518080602001838152602001828103825260528152602001807f2f55736572732f73686f6b6973686f6b692f646576656c6f706d656e742f636f81526020017f6e73656e7379732f646973747269627574652f636f6e7472616374732f636f6e81526020017f7472616374732f50726f6a6563742e736f6c00000000000000000000000000008152506060019250505060405180910390a17f6ca67a40d32d177c7997facc1824fca23699aa90c8a5e5622bc262c8e834a661604d6040518080602001838152602001828103825260528152602001807f2f55736572732f73686f6b6973686f6b692f646576656c6f706d656e742f636f81526020017f6e73656e7379732f646973747269627574652f636f6e7472616374732f636f6e81526020017f7472616374732f50726f6a6563742e736f6c00000000000000000000000000008152506060019250505060405180910390a17ff08ade2f0c0da67baa7ba1d57e38dbeef0e2081dd536e8a78fb8250e1a496e1760016040518080602001838152602001828103825260528152602001807f2f55736572732f73686f6b6973686f6b692f646576656c6f706d656e742f636f81526020017f6e73656e7379732f646973747269627574652f636f6e7472616374732f636f6e81526020017f7472616374732f50726f6a6563742e736f6c00000000000000000000000000008152506060019250505060405180910390a17f61fc2769b9825a2d640440cf05bcb75301fb5f5274ee8f22ee1df4d7776f6f1460016040518080602001838152602001828103825260528152602001807f2f55736572732f73686f6b6973686f6b692f646576656c6f706d656e742f636f81526020017f6e73656e7379732f646973747269627574652f636f6e7472616374732f636f6e81526020017f7472616374732f50726f6a6563742e736f6c00000000000000000000000000008152506060019250505060405180910390a1600260009054906101000a900473ffffffffffffffffffffffffffffffffffffffff1673ffffffffffffffffffffffffffffffffffffffff163373ffffffffffffffffffffffffffffffffffffffff16141515616a9a57600080fd5b7fc87527bec65de4402250ac9da174a21e20ab4caf5f8e8811bd1c43d217af323e60016040518080602001838152602001828103825260528152602001807f2f55736572732f73686f6b6973686f6b692f646576656c6f706d656e742f636f81526020017f6e73656e7379732f646973747269627574652f636f6e7472616374732f636f6e81526020017f7472616374732f50726f6a6563742e736f6c00000000000000000000000000008152506060019250505060405180910390a17f6ca67a40d32d177c7997facc1824fca23699aa90c8a5e5622bc262c8e834a661604e6040518080602001838152602001828103825260528152602001807f2f55736572732f73686f6b6973686f6b692f646576656c6f706d656e742f636f81526020017f6e73656e7379732f646973747269627574652f636f6e7472616374732f636f6e81526020017f7472616374732f50726f6a6563742e736f6c00000000000000000000000000008152506060019250505060405180910390a17f70818a55d36b2eee91c357097bb108cbebe9221344fa3d9a1ecd04b62164841c600e6040518080602001838152602001828103825260528152602001807f2f55736572732f73686f6b6973686f6b692f646576656c6f706d656e742f636f81526020017f6e73656e7379732f646973747269627574652f636f6e7472616374732f636f6e81526020017f7472616374732f50726f6a6563742e736f6c00000000000000000000000000008152506060019250505060405180910390a17f6ca67a40d32d177c7997facc1824fca23699aa90c8a5e5622bc262c8e834a66160db6040518080602001838152602001828103825260528152602001807f2f55736572732f73686f6b6973686f6b692f646576656c6f706d656e742f636f81526020017f6e73656e7379732f646973747269627574652f636f6e7472616374732f636f6e81526020017f7472616374732f50726f6a6563742e736f6c00000000000000000000000000008152506060019250505060405180910390a17f61fc2769b9825a2d640440cf05bcb75301fb5f5274ee8f22ee1df4d7776f6f1460196040518080602001838152602001828103825260528152602001807f2f55736572732f73686f6b6973686f6b692f646576656c6f706d656e742f636f81526020017f6e73656e7379732f646973747269627574652f636f6e7472616374732f636f6e81526020017f7472616374732f50726f6a6563742e736f6c00000000000000000000000000008152506060019250505060405180910390a180601881616e59919061ac08565b5050565b601881815481101515616e6c57fe5b90600052602060002090016000915054906101000a900473ffffffffffffffffffffffffffffffffffffffff1681565b60145481565b60195481565b600b60009054906101000a900473ffffffffffffffffffffffffffffffffffffffff1681565b7f70818a55d36b2eee91c357097bb108cbebe9221344fa3d9a1ecd04b62164841c60036040518080602001838152602001828103825260528152602001807f2f55736572732f73686f6b6973686f6b692f646576656c6f706d656e742f636f81526020017f6e73656e7379732f646973747269627574652f636f6e7472616374732f636f6e81526020017f7472616374732f50726f6a6563742e736f6c00000000000000000000000000008152506060019250505060405180910390a17f6ca67a40d32d177c7997facc1824fca23699aa90c8a5e5622bc262c8e834a66160576040518080602001838152602001828103825260528152602001807f2f55736572732f73686f6b6973686f6b692f646576656c6f706d656e742f636f81526020017f6e73656e7379732f646973747269627574652f636f6e7472616374732f636f6e81526020017f7472616374732f50726f6a6563742e736f6c00000000000000000000000000008152506060019250505060405180910390a17ff08ade2f0c0da67baa7ba1d57e38dbeef0e2081dd536e8a78fb8250e1a496e1760036040518080602001838152602001828103825260528152602001807f2f55736572732f73686f6b6973686f6b692f646576656c6f706d656e742f636f81526020017f6e73656e7379732f646973747269627574652f636f6e7472616374732f636f6e81526020017f7472616374732f50726f6a6563742e736f6c00000000000000000000000000008152506060019250505060405180910390a17f61fc2769b9825a2d640440cf05bcb75301fb5f5274ee8f22ee1df4d7776f6f1460036040518080602001838152602001828103825260528152602001807f2f55736572732f73686f6b6973686f6b692f646576656c6f706d656e742f636f81526020017f6e73656e7379732f646973747269627574652f636f6e7472616374732f636f6e81526020017f7472616374732f50726f6a6563742e736f6c00000000000000000000000000008152506060019250505060405180910390a1600160009054906101000a900473ffffffffffffffffffffffffffffffffffffffff1673ffffffffffffffffffffffffffffffffffffffff163373ffffffffffffffffffffffffffffffffffffffff1614151561721e57600080fd5b7fc87527bec65de4402250ac9da174a21e20ab4caf5f8e8811bd1c43d217af323e60036040518080602001838152602001828103825260528152602001807f2f55736572732f73686f6b6973686f6b692f646576656c6f706d656e742f636f81526020017f6e73656e7379732f646973747269627574652f636f6e7472616374732f636f6e81526020017f7472616374732f50726f6a6563742e736f6c00000000000000000000000000008152506060019250505060405180910390a17f6ca67a40d32d177c7997facc1824fca23699aa90c8a5e5622bc262c8e834a66160586040518080602001838152602001828103825260528152602001807f2f55736572732f73686f6b6973686f6b692f646576656c6f706d656e742f636f81526020017f6e73656e7379732f646973747269627574652f636f6e7472616374732f636f6e81526020017f7472616374732f50726f6a6563742e736f6c00000000000000000000000000008152506060019250505060405180910390a17f70818a55d36b2eee91c357097bb108cbebe9221344fa3d9a1ecd04b62164841c60156040518080602001838152602001828103825260528152602001807f2f55736572732f73686f6b6973686f6b692f646576656c6f706d656e742f636f81526020017f6e73656e7379732f646973747269627574652f636f6e7472616374732f636f6e81526020017f7472616374732f50726f6a6563742e736f6c00000000000000000000000000008152506060019250505060405180910390a17f6ca67a40d32d177c7997facc1824fca23699aa90c8a5e5622bc262c8e834a6616101456040518080602001838152602001828103825260528152602001807f2f55736572732f73686f6b6973686f6b692f646576656c6f706d656e742f636f81526020017f6e73656e7379732f646973747269627574652f636f6e7472616374732f636f6e81526020017f7472616374732f50726f6a6563742e736f6c00000000000000000000000000008152506060019250505060405180910390a17ff08ade2f0c0da67baa7ba1d57e38dbeef0e2081dd536e8a78fb8250e1a496e17600c6040518080602001838152602001828103825260528152602001807f2f55736572732f73686f6b6973686f6b692f646576656c6f706d656e742f636f81526020017f6e73656e7379732f646973747269627574652f636f6e7472616374732f636f6e81526020017f7472616374732f50726f6a6563742e736f6c00000000000000000000000000008152506060019250505060405180910390a17f61fc2769b9825a2d640440cf05bcb75301fb5f5274ee8f22ee1df4d7776f6f1460306040518080602001838152602001828103825260528152602001807f2f55736572732f73686f6b6973686f6b692f646576656c6f706d656e742f636f81526020017f6e73656e7379732f646973747269627574652f636f6e7472616374732f636f6e81526020017f7472616374732f50726f6a6563742e736f6c00000000000000000000000000008152506060019250505060405180910390a1600f54811115151561769e57600080fd5b7fc87527bec65de4402250ac9da174a21e20ab4caf5f8e8811bd1c43d217af323e600c6040518080602001838152602001828103825260528152602001807f2f55736572732f73686f6b6973686f6b692f646576656c6f706d656e742f636f81526020017f6e73656e7379732f646973747269627574652f636f6e7472616374732f636f6e81526020017f7472616374732f50726f6a6563742e736f6c00000000000000000000000000008152506060019250505060405180910390a17f6ca67a40d32d177c7997facc1824fca23699aa90c8a5e5622bc262c8e834a6616101476040518080602001838152602001828103825260528152602001807f2f55736572732f73686f6b6973686f6b692f646576656c6f706d656e742f636f81526020017f6e73656e7379732f646973747269627574652f636f6e7472616374732f636f6e81526020017f7472616374732f50726f6a6563742e736f6c00000000000000000000000000008152506060019250505060405180910390a17f61fc2769b9825a2d640440cf05bcb75301fb5f5274ee8f22ee1df4d7776f6f1460316040518080602001838152602001828103825260528152602001807f2f55736572732f73686f6b6973686f6b692f646576656c6f706d656e742f636f81526020017f6e73656e7379732f646973747269627574652f636f6e7472616374732f636f6e81526020017f7472616374732f50726f6a6563742e736f6c00000000000000000000000000008152506060019250505060405180910390a180600f600082825403925050819055507f6ca67a40d32d177c7997facc1824fca23699aa90c8a5e5622bc262c8e834a6616101486040518080602001838152602001828103825260528152602001807f2f55736572732f73686f6b6973686f6b692f646576656c6f706d656e742f636f81526020017f6e73656e7379732f646973747269627574652f636f6e7472616374732f636f6e81526020017f7472616374732f50726f6a6563742e736f6c00000000000000000000000000008152506060019250505060405180910390a18173ffffffffffffffffffffffffffffffffffffffff166108fc829081150290604051600060405180830381858888f1935050505015156179e457600080fd5b5050565b60085481565b60155481565b60007f70818a55d36b2eee91c357097bb108cbebe9221344fa3d9a1ecd04b62164841c60046040518080602001838152602001828103825260528152602001807f2f55736572732f73686f6b6973686f6b692f646576656c6f706d656e742f636f81526020017f6e73656e7379732f646973747269627574652f636f6e7472616374732f636f6e81526020017f7472616374732f50726f6a6563742e736f6c00000000000000000000000000008152506060019250505060405180910390a17f6ca67a40d32d177c7997facc1824fca23699aa90c8a5e5622bc262c8e834a661605c6040518080602001838152602001828103825260528152602001807f2f55736572732f73686f6b6973686f6b692f646576656c6f706d656e742f636f81526020017f6e73656e7379732f646973747269627574652f636f6e7472616374732f636f6e81526020017f7472616374732f50726f6a6563742e736f6c00000000000000000000000000008152506060019250505060405180910390a17f61fc2769b9825a2d640440cf05bcb75301fb5f5274ee8f22ee1df4d7776f6f1460046040518080602001838152602001828103825260528152602001807f2f55736572732f73686f6b6973686f6b692f646576656c6f706d656e742f636f81526020017f6e73656e7379732f646973747269627574652f636f6e7472616374732f636f6e81526020017f7472616374732f50726f6a6563742e736f6c00000000000000000000000000008152506060019250505060405180910390a16000809054906101000a900473ffffffffffffffffffffffffffffffffffffffff1673ffffffffffffffffffffffffffffffffffffffff168273ffffffffffffffffffffffffffffffffffffffff1614617c88576000617c8b565b60015b9050919050565b60007f70818a55d36b2eee91c357097bb108cbebe9221344fa3d9a1ecd04b62164841c60056040518080602001838152602001828103825260528152602001807f2f55736572732f73686f6b6973686f6b692f646576656c6f706d656e742f636f81526020017f6e73656e7379732f646973747269627574652f636f6e7472616374732f636f6e81526020017f7472616374732f50726f6a6563742e736f6c00000000000000000000000000008152506060019250505060405180910390a17f6ca67a40d32d177c7997facc1824fca23699aa90c8a5e5622bc262c8e834a66160626040518080602001838152602001828103825260528152602001807f2f55736572732f73686f6b6973686f6b692f646576656c6f706d656e742f636f81526020017f6e73656e7379732f646973747269627574652f636f6e7472616374732f636f6e81526020017f7472616374732f50726f6a6563742e736f6c00000000000000000000000000008152506060019250505060405180910390a17f61fc2769b9825a2d640440cf05bcb75301fb5f5274ee8f22ee1df4d7776f6f1460056040518080602001838152602001828103825260528152602001807f2f55736572732f73686f6b6973686f6b692f646576656c6f706d656e742f636f81526020017f6e73656e7379732f646973747269627574652f636f6e7472616374732f636f6e81526020017f7472616374732f50726f6a6563742e736f6c00000000000000000000000000008152506060019250505060405180910390a1600160009054906101000a900473ffffffffffffffffffffffffffffffffffffffff1673ffffffffffffffffffffffffffffffffffffffff168273ffffffffffffffffffffffffffffffffffffffff1614617f27576000617f2a565b60015b9050919050565b60095481565b7f70818a55d36b2eee91c357097bb108cbebe9221344fa3d9a1ecd04b62164841c60016040518080602001838152602001828103825260528152602001807f2f55736572732f73686f6b6973686f6b692f646576656c6f706d656e742f636f81526020017f6e73656e7379732f646973747269627574652f636f6e7472616374732f636f6e81526020017f7472616374732f50726f6a6563742e736f6c00000000000000000000000000008152506060019250505060405180910390a17f6ca67a40d32d177c7997facc1824fca23699aa90c8a5e5622bc262c8e834a661604d6040518080602001838152602001828103825260528152602001807f2f55736572732f73686f6b6973686f6b692f646576656c6f706d656e742f636f81526020017f6e73656e7379732f646973747269627574652f636f6e7472616374732f636f6e81526020017f7472616374732f50726f6a6563742e736f6c00000000000000000000000000008152506060019250505060405180910390a17ff08ade2f0c0da67baa7ba1d57e38dbeef0e2081dd536e8a78fb8250e1a496e1760016040518080602001838152602001828103825260528152602001807f2f55736572732f73686f6b6973686f6b692f646576656c6f706d656e742f636f81526020017f6e73656e7379732f646973747269627574652f636f6e7472616374732f636f6e81526020017f7472616374732f50726f6a6563742e736f6c00000000000000000000000000008152506060019250505060405180910390a17f61fc2769b9825a2d640440cf05bcb75301fb5f5274ee8f22ee1df4d7776f6f1460016040518080602001838152602001828103825260528152602001807f2f55736572732f73686f6b6973686f6b692f646576656c6f706d656e742f636f81526020017f6e73656e7379732f646973747269627574652f636f6e7472616374732f636f6e81526020017f7472616374732f50726f6a6563742e736f6c00000000000000000000000000008152506060019250505060405180910390a1600260009054906101000a900473ffffffffffffffffffffffffffffffffffffffff1673ffffffffffffffffffffffffffffffffffffffff163373ffffffffffffffffffffffffffffffffffffffff1614151561828757600080fd5b7fc87527bec65de4402250ac9da174a21e20ab4caf5f8e8811bd1c43d217af323e60016040518080602001838152602001828103825260528152602001807f2f55736572732f73686f6b6973686f6b692f646576656c6f706d656e742f636f81526020017f6e73656e7379732f646973747269627574652f636f6e7472616374732f636f6e81526020017f7472616374732f50726f6a6563742e736f6c00000000000000000000000000008152506060019250505060405180910390a17f6ca67a40d32d177c7997facc1824fca23699aa90c8a5e5622bc262c8e834a661604e6040518080602001838152602001828103825260528152602001807f2f55736572732f73686f6b6973686f6b692f646576656c6f706d656e742f636f81526020017f6e73656e7379732f646973747269627574652f636f6e7472616374732f636f6e81526020017f7472616374732f50726f6a6563742e736f6c00000000000000000000000000008152506060019250505060405180910390a17f70818a55d36b2eee91c357097bb108cbebe9221344fa3d9a1ecd04b62164841c60096040518080602001838152602001828103825260528152602001807f2f55736572732f73686f6b6973686f6b692f646576656c6f706d656e742f636f81526020017f6e73656e7379732f646973747269627574652f636f6e7472616374732f636f6e81526020017f7472616374732f50726f6a6563742e736f6c00000000000000000000000000008152506060019250505060405180910390a17f6ca67a40d32d177c7997facc1824fca23699aa90c8a5e5622bc262c8e834a66160ae6040518080602001838152602001828103825260528152602001807f2f55736572732f73686f6b6973686f6b692f646576656c6f706d656e742f636f81526020017f6e73656e7379732f646973747269627574652f636f6e7472616374732f636f6e81526020017f7472616374732f50726f6a6563742e736f6c00000000000000000000000000008152506060019250505060405180910390a17f61fc2769b9825a2d640440cf05bcb75301fb5f5274ee8f22ee1df4d7776f6f1460126040518080602001838152602001828103825260528152602001807f2f55736572732f73686f6b6973686f6b692f646576656c6f706d656e742f636f81526020017f6e73656e7379732f646973747269627574652f636f6e7472616374732f636f6e81526020017f7472616374732f50726f6a6563742e736f6c00000000000000000000000000008152506060019250505060405180910390a1816003819055507f6ca67a40d32d177c7997facc1824fca23699aa90c8a5e5622bc262c8e834a66160af6040518080602001838152602001828103825260528152602001807f2f55736572732f73686f6b6973686f6b692f646576656c6f706d656e742f636f81526020017f6e73656e7379732f646973747269627574652f636f6e7472616374732f636f6e81526020017f7472616374732f50726f6a6563742e736f6c00000000000000000000000000008152506060019250505060405180910390a17f61fc2769b9825a2d640440cf05bcb75301fb5f5274ee8f22ee1df4d7776f6f1460136040518080602001838152602001828103825260528152602001807f2f55736572732f73686f6b6973686f6b692f646576656c6f706d656e742f636f81526020017f6e73656e7379732f646973747269627574652f636f6e7472616374732f636f6e81526020017f7472616374732f50726f6a6563742e736f6c00000000000000000000000000008152506060019250505060405180910390a1806010819055505050565b600e5481565b60007f70818a55d36b2eee91c357097bb108cbebe9221344fa3d9a1ecd04b62164841c60086040518080602001838152602001828103825260528152602001807f2f55736572732f73686f6b6973686f6b692f646576656c6f706d656e742f636f81526020017f6e73656e7379732f646973747269627574652f636f6e7472616374732f636f6e81526020017f7472616374732f50726f6a6563742e736f6c00000000000000000000000000008152506060019250505060405180910390a17f6ca67a40d32d177c7997facc1824fca23699aa90c8a5e5622bc262c8e834a66160a06040518080602001838152602001828103825260528152602001807f2f55736572732f73686f6b6973686f6b692f646576656c6f706d656e742f636f81526020017f6e73656e7379732f646973747269627574652f636f6e7472616374732f636f6e81526020017f7472616374732f50726f6a6563742e736f6c00000000000000000000000000008152506060019250505060405180910390a17f61fc2769b9825a2d640440cf05bcb75301fb5f5274ee8f22ee1df4d7776f6f1460116040518080602001838152602001828103825260528152602001807f2f55736572732f73686f6b6973686f6b692f646576656c6f706d656e742f636f81526020017f6e73656e7379732f646973747269627574652f636f6e7472616374732f636f6e81526020017f7472616374732f50726f6a6563742e736f6c00000000000000000000000000008152506060019250505060405180910390a1601880549050905090565b60035481565b60138054600181600116156101000203166002900480601f016020809104026020016040519081016040528092919081815260200182805460018160011615610100020316600290048015618aaa5780601f10618a7f57610100808354040283529160200191618aaa565b820191906000526020600020905b815481529060010190602001808311618a8d57829003601f168201915b505050505081565b7f70818a55d36b2eee91c357097bb108cbebe9221344fa3d9a1ecd04b62164841c60016040518080602001838152602001828103825260528152602001807f2f55736572732f73686f6b6973686f6b692f646576656c6f706d656e742f636f81526020017f6e73656e7379732f646973747269627574652f636f6e7472616374732f636f6e81526020017f7472616374732f50726f6a6563742e736f6c00000000000000000000000000008152506060019250505060405180910390a17f6ca67a40d32d177c7997facc1824fca23699aa90c8a5e5622bc262c8e834a661604d6040518080602001838152602001828103825260528152602001807f2f55736572732f73686f6b6973686f6b692f646576656c6f706d656e742f636f81526020017f6e73656e7379732f646973747269627574652f636f6e7472616374732f636f6e81526020017f7472616374732f50726f6a6563742e736f6c00000000000000000000000000008152506060019250505060405180910390a17ff08ade2f0c0da67baa7ba1d57e38dbeef0e2081dd536e8a78fb8250e1a496e1760016040518080602001838152602001828103825260528152602001807f2f55736572732f73686f6b6973686f6b692f646576656c6f706d656e742f636f81526020017f6e73656e7379732f646973747269627574652f636f6e7472616374732f636f6e81526020017f7472616374732f50726f6a6563742e736f6c00000000000000000000000000008152506060019250505060405180910390a17f61fc2769b9825a2d640440cf05bcb75301fb5f5274ee8f22ee1df4d7776f6f1460016040518080602001838152602001828103825260528152602001807f2f55736572732f73686f6b6973686f6b692f646576656c6f706d656e742f636f81526020017f6e73656e7379732f646973747269627574652f636f6e7472616374732f636f6e81526020017f7472616374732f50726f6a6563742e736f6c00000000000000000000000000008152506060019250505060405180910390a1600260009054906101000a900473ffffffffffffffffffffffffffffffffffffffff1673ffffffffffffffffffffffffffffffffffffffff163373ffffffffffffffffffffffffffffffffffffffff16141515618e0257600080fd5b7fc87527bec65de4402250ac9da174a21e20ab4caf5f8e8811bd1c43d217af323e60016040518080602001838152602001828103825260528152602001807f2f55736572732f73686f6b6973686f6b692f646576656c6f706d656e742f636f81526020017f6e73656e7379732f646973747269627574652f636f6e7472616374732f636f6e81526020017f7472616374732f50726f6a6563742e736f6c00000000000000000000000000008152506060019250505060405180910390a17f6ca67a40d32d177c7997facc1824fca23699aa90c8a5e5622bc262c8e834a661604e6040518080602001838152602001828103825260528152602001807f2f55736572732f73686f6b6973686f6b692f646576656c6f706d656e742f636f81526020017f6e73656e7379732f646973747269627574652f636f6e7472616374732f636f6e81526020017f7472616374732f50726f6a6563742e736f6c00000000000000000000000000008152506060019250505060405180910390a17f70818a55d36b2eee91c357097bb108cbebe9221344fa3d9a1ecd04b62164841c600a6040518080602001838152602001828103825260528152602001807f2f55736572732f73686f6b6973686f6b692f646576656c6f706d656e742f636f81526020017f6e73656e7379732f646973747269627574652f636f6e7472616374732f636f6e81526020017f7472616374732f50726f6a6563742e736f6c00000000000000000000000000008152506060019250505060405180910390a17f6ca67a40d32d177c7997facc1824fca23699aa90c8a5e5622bc262c8e834a66160b76040518080602001838152602001828103825260528152602001807f2f55736572732f73686f6b6973686f6b692f646576656c6f706d656e742f636f81526020017f6e73656e7379732f646973747269627574652f636f6e7472616374732f636f6e81526020017f7472616374732f50726f6a6563742e736f6c00000000000000000000000000008152506060019250505060405180910390a17f61fc2769b9825a2d640440cf05bcb75301fb5f5274ee8f22ee1df4d7776f6f1460146040518080602001838152602001828103825260528152602001807f2f55736572732f73686f6b6973686f6b692f646576656c6f706d656e742f636f81526020017f6e73656e7379732f646973747269627574652f636f6e7472616374732f636f6e81526020017f7472616374732f50726f6a6563742e736f6c00000000000000000000000000008152506060019250505060405180910390a16000600d81905550565b6000807f70818a55d36b2eee91c357097bb108cbebe9221344fa3d9a1ecd04b62164841c60026040518080602001838152602001828103825260528152602001807f2f55736572732f73686f6b6973686f6b692f646576656c6f706d656e742f636f81526020017f6e73656e7379732f646973747269627574652f636f6e7472616374732f636f6e81526020017f7472616374732f50726f6a6563742e736f6c00000000000000000000000000008152506060019250505060405180910390a17f6ca67a40d32d177c7997facc1824fca23699aa90c8a5e5622bc262c8e834a66160526040518080602001838152602001828103825260528152602001807f2f55736572732f73686f6b6973686f6b692f646576656c6f706d656e742f636f81526020017f6e73656e7379732f646973747269627574652f636f6e7472616374732f636f6e81526020017f7472616374732f50726f6a6563742e736f6c00000000000000000000000000008152506060019250505060405180910390a17ff08ade2f0c0da67baa7ba1d57e38dbeef0e2081dd536e8a78fb8250e1a496e1760026040518080602001838152602001828103825260528152602001807f2f55736572732f73686f6b6973686f6b692f646576656c6f706d656e742f636f81526020017f6e73656e7379732f646973747269627574652f636f6e7472616374732f636f6e81526020017f7472616374732f50726f6a6563742e736f6c00000000000000000000000000008152506060019250505060405180910390a17f61fc2769b9825a2d640440cf05bcb75301fb5f5274ee8f22ee1df4d7776f6f1460026040518080602001838152602001828103825260528152602001807f2f55736572732f73686f6b6973686f6b692f646576656c6f706d656e742f636f81526020017f6e73656e7379732f646973747269627574652f636f6e7472616374732f636f6e81526020017f7472616374732f50726f6a6563742e736f6c00000000000000000000000000008152506060019250505060405180910390a16000809054906101000a900473ffffffffffffffffffffffffffffffffffffffff1673ffffffffffffffffffffffffffffffffffffffff163373ffffffffffffffffffffffffffffffffffffffff1614151561950f57600080fd5b7fc87527bec65de4402250ac9da174a21e20ab4caf5f8e8811bd1c43d217af323e60026040518080602001838152602001828103825260528152602001807f2f55736572732f73686f6b6973686f6b692f646576656c6f706d656e742f636f81526020017f6e73656e7379732f646973747269627574652f636f6e7472616374732f636f6e81526020017f7472616374732f50726f6a6563742e736f6c00000000000000000000000000008152506060019250505060405180910390a17f6ca67a40d32d177c7997facc1824fca23699aa90c8a5e5622bc262c8e834a66160536040518080602001838152602001828103825260528152602001807f2f55736572732f73686f6b6973686f6b692f646576656c6f706d656e742f636f81526020017f6e73656e7379732f646973747269627574652f636f6e7472616374732f636f6e81526020017f7472616374732f50726f6a6563742e736f6c00000000000000000000000000008152506060019250505060405180910390a17f70818a55d36b2eee91c357097bb108cbebe9221344fa3d9a1ecd04b62164841c60126040518080602001838152602001828103825260528152602001807f2f55736572732f73686f6b6973686f6b692f646576656c6f706d656e742f636f81526020017f6e73656e7379732f646973747269627574652f636f6e7472616374732f636f6e81526020017f7472616374732f50726f6a6563742e736f6c00000000000000000000000000008152506060019250505060405180910390a17f6ca67a40d32d177c7997facc1824fca23699aa90c8a5e5622bc262c8e834a66161010f6040518080602001838152602001828103825260528152602001807f2f55736572732f73686f6b6973686f6b692f646576656c6f706d656e742f636f81526020017f6e73656e7379732f646973747269627574652f636f6e7472616374732f636f6e81526020017f7472616374732f50726f6a6563742e736f6c00000000000000000000000000008152506060019250505060405180910390a17ff08ade2f0c0da67baa7ba1d57e38dbeef0e2081dd536e8a78fb8250e1a496e1760066040518080602001838152602001828103825260528152602001807f2f55736572732f73686f6b6973686f6b692f646576656c6f706d656e742f636f81526020017f6e73656e7379732f646973747269627574652f636f6e7472616374732f636f6e81526020017f7472616374732f50726f6a6563742e736f6c00000000000000000000000000008152506060019250505060405180910390a17f61fc2769b9825a2d640440cf05bcb75301fb5f5274ee8f22ee1df4d7776f6f1460216040518080602001838152602001828103825260528152602001807f2f55736572732f73686f6b6973686f6b692f646576656c6f706d656e742f636f81526020017f6e73656e7379732f646973747269627574652f636f6e7472616374732f636f6e81526020017f7472616374732f50726f6a6563742e736f6c00000000000000000000000000008152506060019250505060405180910390a1600160035414151561998f57600080fd5b7fc87527bec65de4402250ac9da174a21e20ab4caf5f8e8811bd1c43d217af323e60066040518080602001838152602001828103825260528152602001807f2f55736572732f73686f6b6973686f6b692f646576656c6f706d656e742f636f81526020017f6e73656e7379732f646973747269627574652f636f6e7472616374732f636f6e81526020017f7472616374732f50726f6a6563742e736f6c00000000000000000000000000008152506060019250505060405180910390a17f6ca67a40d32d177c7997facc1824fca23699aa90c8a5e5622bc262c8e834a6616101106040518080602001838152602001828103825260528152602001807f2f55736572732f73686f6b6973686f6b692f646576656c6f706d656e742f636f81526020017f6e73656e7379732f646973747269627574652f636f6e7472616374732f636f6e81526020017f7472616374732f50726f6a6563742e736f6c00000000000000000000000000008152506060019250505060405180910390a17ff08ade2f0c0da67baa7ba1d57e38dbeef0e2081dd536e8a78fb8250e1a496e1760076040518080602001838152602001828103825260528152602001807f2f55736572732f73686f6b6973686f6b692f646576656c6f706d656e742f636f81526020017f6e73656e7379732f646973747269627574652f636f6e7472616374732f636f6e81526020017f7472616374732f50726f6a6563742e736f6c00000000000000000000000000008152506060019250505060405180910390a17f61fc2769b9825a2d640440cf05bcb75301fb5f5274ee8f22ee1df4d7776f6f1460226040518080602001838152602001828103825260528152602001807f2f55736572732f73686f6b6973686f6b692f646576656c6f706d656e742f636f81526020017f6e73656e7379732f646973747269627574652f636f6e7472616374732f636f6e81526020017f7472616374732f50726f6a6563742e736f6c00000000000000000000000000008152506060019250505060405180910390a1601660008573ffffffffffffffffffffffffffffffffffffffff1673ffffffffffffffffffffffffffffffffffffffff16815260200190815260200160002054619d1684601660008873ffffffffffffffffffffffffffffffffffffffff1673ffffffffffffffffffffffffffffffffffffffff1681526020019081526020016000205461a6c490919063ffffffff16565b108015619d62575082601660008673ffffffffffffffffffffffffffffffffffffffff1673ffffffffffffffffffffffffffffffffffffffff1681526020019081526020016000205410155b1515619d6d57600080fd5b7fc87527bec65de4402250ac9da174a21e20ab4caf5f8e8811bd1c43d217af323e60076040518080602001838152602001828103825260528152602001807f2f55736572732f73686f6b6973686f6b692f646576656c6f706d656e742f636f81526020017f6e73656e7379732f646973747269627574652f636f6e7472616374732f636f6e81526020017f7472616374732f50726f6a6563742e736f6c00000000000000000000000000008152506060019250505060405180910390a17f6ca67a40d32d177c7997facc1824fca23699aa90c8a5e5622bc262c8e834a6616101156040518080602001838152602001828103825260528152602001807f2f55736572732f73686f6b6973686f6b692f646576656c6f706d656e742f636f81526020017f6e73656e7379732f646973747269627574652f636f6e7472616374732f636f6e81526020017f7472616374732f50726f6a6563742e736f6c00000000000000000000000000008152506060019250505060405180910390a17f61fc2769b9825a2d640440cf05bcb75301fb5f5274ee8f22ee1df4d7776f6f1460236040518080602001838152602001828103825260528152602001807f2f55736572732f73686f6b6973686f6b692f646576656c6f706d656e742f636f81526020017f6e73656e7379732f646973747269627574652f636f6e7472616374732f636f6e81526020017f7472616374732f50726f6a6563742e736f6c00000000000000000000000000008152506060019250505060405180910390a16402540be400600f5473__Division______________________________622c1a9e86601454600a6000604051602001526040518463ffffffff167c010000000000000000000000000000000000000000000000000000000002815260040180848152602001838152602001828152602001935050505060206040518083038186803b151561a03357600080fd5b6102c65a03f4151561a04457600080fd5b505050604051805190500281151561a05857fe5b0490507f6ca67a40d32d177c7997facc1824fca23699aa90c8a5e5622bc262c8e834a6616101166040518080602001838152602001828103825260528152602001807f2f55736572732f73686f6b6973686f6b692f646576656c6f706d656e742f636f81526020017f6e73656e7379732f646973747269627574652f636f6e7472616374732f636f6e81526020017f7472616374732f50726f6a6563742e736f6c00000000000000000000000000008152506060019250505060405180910390a17f61fc2769b9825a2d640440cf05bcb75301fb5f5274ee8f22ee1df4d7776f6f1460246040518080602001838152602001828103825260528152602001807f2f55736572732f73686f6b6973686f6b692f646576656c6f706d656e742f636f81526020017f6e73656e7379732f646973747269627574652f636f6e7472616374732f636f6e81526020017f7472616374732f50726f6a6563742e736f6c00000000000000000000000000008152506060019250505060405180910390a182601660008673ffffffffffffffffffffffffffffffffffffffff1673ffffffffffffffffffffffffffffffffffffffff168152602001908152602001600020600082825403925050819055507f6ca67a40d32d177c7997facc1824fca23699aa90c8a5e5622bc262c8e834a6616101176040518080602001838152602001828103825260528152602001807f2f55736572732f73686f6b6973686f6b692f646576656c6f706d656e742f636f81526020017f6e73656e7379732f646973747269627574652f636f6e7472616374732f636f6e81526020017f7472616374732f50726f6a6563742e736f6c00000000000000000000000000008152506060019250505060405180910390a17f61fc2769b9825a2d640440cf05bcb75301fb5f5274ee8f22ee1df4d7776f6f1460256040518080602001838152602001828103825260528152602001807f2f55736572732f73686f6b6973686f6b692f646576656c6f706d656e742f636f81526020017f6e73656e7379732f646973747269627574652f636f6e7472616374732f636f6e81526020017f7472616374732f50726f6a6563742e736f6c00000000000000000000000000008152506060019250505060405180910390a1826014600082825403925050819055507f6ca67a40d32d177c7997facc1824fca23699aa90c8a5e5622bc262c8e834a6616101186040518080602001838152602001828103825260528152602001807f2f55736572732f73686f6b6973686f6b692f646576656c6f706d656e742f636f81526020017f6e73656e7379732f646973747269627574652f636f6e7472616374732f636f6e81526020017f7472616374732f50726f6a6563742e736f6c00000000000000000000000000008152506060019250505060405180910390a17f61fc2769b9825a2d640440cf05bcb75301fb5f5274ee8f22ee1df4d7776f6f1460266040518080602001838152602001828103825260528152602001807f2f55736572732f73686f6b6973686f6b692f646576656c6f706d656e742f636f81526020017f6e73656e7379732f646973747269627574652f636f6e7472616374732f636f6e81526020017f7472616374732f50726f6a6563742e736f6c00000000000000000000000000008152506060019250505060405180910390a180600f600082825403925050819055507f6ca67a40d32d177c7997facc1824fca23699aa90c8a5e5622bc262c8e834a6616101196040518080602001838152602001828103825260528152602001807f2f55736572732f73686f6b6973686f6b692f646576656c6f706d656e742f636f81526020017f6e73656e7379732f646973747269627574652f636f6e7472616374732f636f6e81526020017f7472616374732f50726f6a6563742e736f6c00000000000000000000000000008152506060019250505060405180910390a17f61fc2769b9825a2d640440cf05bcb75301fb5f5274ee8f22ee1df4d7776f6f1460276040518080602001838152602001828103825260528152602001807f2f55736572732f73686f6b6973686f6b692f646576656c6f706d656e742f636f81526020017f6e73656e7379732f646973747269627574652f636f6e7472616374732f636f6e81526020017f7472616374732f50726f6a6563742e736f6c00000000000000000000000000008152506060019250505060405180910390a18091505092915050565b60055481565b60007f9fa68cf8d737dd79618664e3f784f666b17e866f7a6a5ec90e90e14322fb6c42600360405180806020018381526020018281038252605b8152602001807f2f55736572732f73686f6b6973686f6b692f646576656c6f706d656e742f636f81526020017f6e73656e7379732f646973747269627574652f636f6e7472616374732f636f6e81526020017f7472616374732f6c6962726172792f536166654d6174682e736f6c00000000008152506060019250505060405180910390a17f310edbc0827c5bdae64c54b31460ee27a9b51163364c93d2801d2e514e2213c1602360405180806020018381526020018281038252605b8152602001807f2f55736572732f73686f6b6973686f6b692f646576656c6f706d656e742f636f81526020017f6e73656e7379732f646973747269627574652f636f6e7472616374732f636f6e81526020017f7472616374732f6c6962726172792f536166654d6174682e736f6c00000000008152506060019250505060405180910390a17ff845edff3c911bb719be19d1dd85ef72b046324d200a799322db75ff48847b7a600360405180806020018381526020018281038252605b8152602001807f2f55736572732f73686f6b6973686f6b692f646576656c6f706d656e742f636f81526020017f6e73656e7379732f646973747269627574652f636f6e7472616374732f636f6e81526020017f7472616374732f6c6962726172792f536166654d6174682e736f6c00000000008152506060019250505060405180910390a17f278e28d126ebc390c541b58a9665ba5e5102ba9d342b94345e6b97c33f35e809600860405180806020018381526020018281038252605b8152602001807f2f55736572732f73686f6b6973686f6b692f646576656c6f706d656e742f636f81526020017f6e73656e7379732f646973747269627574652f636f6e7472616374732f636f6e81526020017f7472616374732f6c6962726172792f536166654d6174682e736f6c00000000008152506060019250505060405180910390a182821115151561a9c657fe5b7f07c25c2aea8196dea33396ea8a440ece1bab5adae3e4959e934995df029e22e6600360405180806020018381526020018281038252605b8152602001807f2f55736572732f73686f6b6973686f6b692f646576656c6f706d656e742f636f81526020017f6e73656e7379732f646973747269627574652f636f6e7472616374732f636f6e81526020017f7472616374732f6c6962726172792f536166654d6174682e736f6c00000000008152506060019250505060405180910390a17f310edbc0827c5bdae64c54b31460ee27a9b51163364c93d2801d2e514e2213c1602460405180806020018381526020018281038252605b8152602001807f2f55736572732f73686f6b6973686f6b692f646576656c6f706d656e742f636f81526020017f6e73656e7379732f646973747269627574652f636f6e7472616374732f636f6e81526020017f7472616374732f6c6962726172792f536166654d6174682e736f6c00000000008152506060019250505060405180910390a17f278e28d126ebc390c541b58a9665ba5e5102ba9d342b94345e6b97c33f35e809600960405180806020018381526020018281038252605b8152602001807f2f55736572732f73686f6b6973686f6b692f646576656c6f706d656e742f636f81526020017f6e73656e7379732f646973747269627574652f636f6e7472616374732f636f6e81526020017f7472616374732f6c6962726172792f536166654d6174682e736f6c00000000008152506060019250505060405180910390a1818303905092915050565b81548183558181151161ac2f5781836000526020600020918201910161ac2e919061ac34565b5b505050565b61ac5691905b8082111561ac5257600081600090555060010161ac3a565b5090565b905600a165627a7a72305820c6cb4448d427c996035b4e7d6f9504fcd883d6d422f8885bd106ca45a4c64f5b002960606040526000600a60156101000a81548160ff021916908315150217905550341561002a57600080fd5b604051606080620063f3833981016040528080519060200190919080519060200190919080519060200190919050507fa752e27bc51e9eb778ad98bde789076ff681a66d141f00385f19f40bd465b515600460405180806020018381526020018281038252604f8152602001807f2f55736572732f73686f6b6973686f6b692f646576656c6f706d656e742f636f81526020017f6e73656e7379732f646973747269627574652f636f6e7472616374732f636f6e81526020017f7472616374732f5461736b2e736f6c00000000000000000000000000000000008152506060019250505060405180910390a17fb8679f046d83266c74431d76de105af34c44346257bf1ad5e5b5e78728958d98604f60405180806020018381526020018281038252604f8152602001807f2f55736572732f73686f6b6973686f6b692f646576656c6f706d656e742f636f81526020017f6e73656e7379732f646973747269627574652f636f6e7472616374732f636f6e81526020017f7472616374732f5461736b2e736f6c00000000000000000000000000000000008152506060019250505060405180910390a17f6f0975f9e319aef91b40172211ac445fd069f2a5f1469791a8c0397358ef5819600460405180806020018381526020018281038252604f8152602001807f2f55736572732f73686f6b6973686f6b692f646576656c6f706d656e742f636f81526020017f6e73656e7379732f646973747269627574652f636f6e7472616374732f636f6e81526020017f7472616374732f5461736b2e736f6c00000000000000000000000000000000008152506060019250505060405180910390a1336000806101000a81548173ffffffffffffffffffffffffffffffffffffffff021916908373ffffffffffffffffffffffffffffffffffffffff1602179055507fb8679f046d83266c74431d76de105af34c44346257bf1ad5e5b5e78728958d98605060405180806020018381526020018281038252604f8152602001807f2f55736572732f73686f6b6973686f6b692f646576656c6f706d656e742f636f81526020017f6e73656e7379732f646973747269627574652f636f6e7472616374732f636f6e81526020017f7472616374732f5461736b2e736f6c00000000000000000000000000000000008152506060019250505060405180910390a17f6f0975f9e319aef91b40172211ac445fd069f2a5f1469791a8c0397358ef5819600560405180806020018381526020018281038252604f8152602001807f2f55736572732f73686f6b6973686f6b692f646576656c6f706d656e742f636f81526020017f6e73656e7379732f646973747269627574652f636f6e7472616374732f636f6e81526020017f7472616374732f5461736b2e736f6c00000000000000000000000000000000008152506060019250505060405180910390a181600160006101000a81548173ffffffffffffffffffffffffffffffffffffffff021916908373ffffffffffffffffffffffffffffffffffffffff1602179055507fb8679f046d83266c74431d76de105af34c44346257bf1ad5e5b5e78728958d98605160405180806020018381526020018281038252604f8152602001807f2f55736572732f73686f6b6973686f6b692f646576656c6f706d656e742f636f81526020017f6e73656e7379732f646973747269627574652f636f6e7472616374732f636f6e81526020017f7472616374732f5461736b2e736f6c00000000000000000000000000000000008152506060019250505060405180910390a17f6f0975f9e319aef91b40172211ac445fd069f2a5f1469791a8c0397358ef5819600660405180806020018381526020018281038252604f8152602001807f2f55736572732f73686f6b6973686f6b692f646576656c6f706d656e742f636f81526020017f6e73656e7379732f646973747269627574652f636f6e7472616374732f636f6e81526020017f7472616374732f5461736b2e736f6c00000000000000000000000000000000008152506060019250505060405180910390a180600260006101000a81548173ffffffffffffffffffffffffffffffffffffffff021916908373ffffffffffffffffffffffffffffffffffffffff1602179055507fb8679f046d83266c74431d76de105af34c44346257bf1ad5e5b5e78728958d98605260405180806020018381526020018281038252604f8152602001807f2f55736572732f73686f6b6973686f6b692f646576656c6f706d656e742f636f81526020017f6e73656e7379732f646973747269627574652f636f6e7472616374732f636f6e81526020017f7472616374732f5461736b2e736f6c00000000000000000000000000000000008152506060019250505060405180910390a17f6f0975f9e319aef91b40172211ac445fd069f2a5f1469791a8c0397358ef5819600760405180806020018381526020018281038252604f8152602001807f2f55736572732f73686f6b6973686f6b692f646576656c6f706d656e742f636f81526020017f6e73656e7379732f646973747269627574652f636f6e7472616374732f636f6e81526020017f7472616374732f5461736b2e736f6c00000000000000000000000000000000008152506060019250505060405180910390a18260038160001916905550505050615c1580620007de6000396000f300606060405260043610610128576000357c0100000000000000000000000000000000000000000000000000000000900463ffffffff1680630a1399251461012d57806327b3bf1114610150578063522e117714610179578063599b6d23146101a65780636f13ab00146101cf57806373cc18da146101f85780637b566860146102435780638448a5a91461026c5780639bf71e1a146102b7578063a58fcbaa146102f0578063af38d75714610313578063b1ed11d114610340578063b3e9fd2c1461037d578063c41a3265146103ae578063d379be23146103c3578063da16fe8d14610418578063e24e8a6a14610445578063ed1ff6d81461046e578063ed9bbff514610497578063edb151a8146104c0578063fa52c7d8146104ed578063fb92bdd814610541575b600080fd5b341561013857600080fd5b61014e600480803590602001909190505061056a565b005b341561015b57600080fd5b610163610c74565b6040518082815260200191505060405180910390f35b341561018457600080fd5b61018c610c7a565b604051808215151515815260200191505060405180910390f35b34156101b157600080fd5b6101b9610c8d565b6040518082815260200191505060405180910390f35b34156101da57600080fd5b6101e2610c93565b6040518082815260200191505060405180910390f35b341561020357600080fd5b610241600480803590602001909190803590602001909190803573ffffffffffffffffffffffffffffffffffffffff16906020019091905050610c99565b005b341561024e57600080fd5b610256611a4f565b6040518082815260200191505060405180910390f35b341561027757600080fd5b6102b5600480803573ffffffffffffffffffffffffffffffffffffffff16906020019091908035906020019091908035906020019091905050611a55565b005b34156102c257600080fd5b6102ee600480803573ffffffffffffffffffffffffffffffffffffffff169060200190919050506129ce565b005b34156102fb57600080fd5b610311600480803590602001909190505061311a565b005b341561031e57600080fd5b610326613b29565b604051808215151515815260200191505060405180910390f35b341561034b57600080fd5b61036360048080351515906020019091905050613b3c565b604051808215151515815260200191505060405180910390f35b341561038857600080fd5b61039061543e565b60405180826000191660001916815260200191505060405180910390f35b34156103b957600080fd5b6103c1615444565b005b34156103ce57600080fd5b6103d6615b61565b604051808273ffffffffffffffffffffffffffffffffffffffff1673ffffffffffffffffffffffffffffffffffffffff16815260200191505060405180910390f35b341561042357600080fd5b61042b615b87565b604051808215151515815260200191505060405180910390f35b341561045057600080fd5b610458615b9a565b6040518082815260200191505060405180910390f35b341561047957600080fd5b610481615ba0565b6040518082815260200191505060405180910390f35b34156104a257600080fd5b6104aa615ba6565b6040518082815260200191505060405180910390f35b34156104cb57600080fd5b6104d3615bac565b604051808215151515815260200191505060405180910390f35b34156104f857600080fd5b610524600480803573ffffffffffffffffffffffffffffffffffffffff16906020019091905050615bbf565b604051808381526020018281526020019250505060405180910390f35b341561054c57600080fd5b610554615be3565b6040518082815260200191505060405180910390f35b7fa752e27bc51e9eb778ad98bde789076ff681a66d141f00385f19f40bd465b515600160405180806020018381526020018281038252604f8152602001807f2f55736572732f73686f6b6973686f6b692f646576656c6f706d656e742f636f81526020017f6e73656e7379732f646973747269627574652f636f6e7472616374732f636f6e81526020017f7472616374732f5461736b2e736f6c00000000000000000000000000000000008152506060019250505060405180910390a17fb8679f046d83266c74431d76de105af34c44346257bf1ad5e5b5e78728958d98603360405180806020018381526020018281038252604f8152602001807f2f55736572732f73686f6b6973686f6b692f646576656c6f706d656e742f636f81526020017f6e73656e7379732f646973747269627574652f636f6e7472616374732f636f6e81526020017f7472616374732f5461736b2e736f6c00000000000000000000000000000000008152506060019250505060405180910390a17f50c7af8f9f2114059c442002478177596876a49f89f83ebc53dfa756a4f4a540600160405180806020018381526020018281038252604f8152602001807f2f55736572732f73686f6b6973686f6b692f646576656c6f706d656e742f636f81526020017f6e73656e7379732f646973747269627574652f636f6e7472616374732f636f6e81526020017f7472616374732f5461736b2e736f6c00000000000000000000000000000000008152506060019250505060405180910390a17f6f0975f9e319aef91b40172211ac445fd069f2a5f1469791a8c0397358ef5819600160405180806020018381526020018281038252604f8152602001807f2f55736572732f73686f6b6973686f6b692f646576656c6f706d656e742f636f81526020017f6e73656e7379732f646973747269627574652f636f6e7472616374732f636f6e81526020017f7472616374732f5461736b2e736f6c00000000000000000000000000000000008152506060019250505060405180910390a16000809054906101000a900473ffffffffffffffffffffffffffffffffffffffff1673ffffffffffffffffffffffffffffffffffffffff163373ffffffffffffffffffffffffffffffffffffffff161415156108b957600080fd5b7f4e793477562d0bdb92a9f8a67e167ab8f016d648d7bd8b0430f25d68b440f3c6600160405180806020018381526020018281038252604f8152602001807f2f55736572732f73686f6b6973686f6b692f646576656c6f706d656e742f636f81526020017f6e73656e7379732f646973747269627574652f636f6e7472616374732f636f6e81526020017f7472616374732f5461736b2e736f6c00000000000000000000000000000000008152506060019250505060405180910390a17fb8679f046d83266c74431d76de105af34c44346257bf1ad5e5b5e78728958d98603460405180806020018381526020018281038252604f8152602001807f2f55736572732f73686f6b6973686f6b692f646576656c6f706d656e742f636f81526020017f6e73656e7379732f646973747269627574652f636f6e7472616374732f636f6e81526020017f7472616374732f5461736b2e736f6c00000000000000000000000000000000008152506060019250505060405180910390a17fa752e27bc51e9eb778ad98bde789076ff681a66d141f00385f19f40bd465b515600560405180806020018381526020018281038252604f8152602001807f2f55736572732f73686f6b6973686f6b692f646576656c6f706d656e742f636f81526020017f6e73656e7379732f646973747269627574652f636f6e7472616374732f636f6e81526020017f7472616374732f5461736b2e736f6c00000000000000000000000000000000008152506060019250505060405180910390a17fb8679f046d83266c74431d76de105af34c44346257bf1ad5e5b5e78728958d98606060405180806020018381526020018281038252604f8152602001807f2f55736572732f73686f6b6973686f6b692f646576656c6f706d656e742f636f81526020017f6e73656e7379732f646973747269627574652f636f6e7472616374732f636f6e81526020017f7472616374732f5461736b2e736f6c00000000000000000000000000000000008152506060019250505060405180910390a17f6f0975f9e319aef91b40172211ac445fd069f2a5f1469791a8c0397358ef5819600860405180806020018381526020018281038252604f8152602001807f2f55736572732f73686f6b6973686f6b692f646576656c6f706d656e742f636f81526020017f6e73656e7379732f646973747269627574652f636f6e7472616374732f636f6e81526020017f7472616374732f5461736b2e736f6c00000000000000000000000000000000008152506060019250505060405180910390a18060068190555050565b60095481565b600a60009054906101000a900460ff1681565b60065481565b60055481565b7fa752e27bc51e9eb778ad98bde789076ff681a66d141f00385f19f40bd465b515600360405180806020018381526020018281038252604f8152602001807f2f55736572732f73686f6b6973686f6b692f646576656c6f706d656e742f636f81526020017f6e73656e7379732f646973747269627574652f636f6e7472616374732f636f6e81526020017f7472616374732f5461736b2e736f6c00000000000000000000000000000000008152506060019250505060405180910390a17fb8679f046d83266c74431d76de105af34c44346257bf1ad5e5b5e78728958d98603d60405180806020018381526020018281038252604f8152602001807f2f55736572732f73686f6b6973686f6b692f646576656c6f706d656e742f636f81526020017f6e73656e7379732f646973747269627574652f636f6e7472616374732f636f6e81526020017f7472616374732f5461736b2e736f6c00000000000000000000000000000000008152506060019250505060405180910390a17f50c7af8f9f2114059c442002478177596876a49f89f83ebc53dfa756a4f4a540600360405180806020018381526020018281038252604f8152602001807f2f55736572732f73686f6b6973686f6b692f646576656c6f706d656e742f636f81526020017f6e73656e7379732f646973747269627574652f636f6e7472616374732f636f6e81526020017f7472616374732f5461736b2e736f6c00000000000000000000000000000000008152506060019250505060405180910390a17f6f0975f9e319aef91b40172211ac445fd069f2a5f1469791a8c0397358ef5819600360405180806020018381526020018281038252604f8152602001807f2f55736572732f73686f6b6973686f6b692f646576656c6f706d656e742f636f81526020017f6e73656e7379732f646973747269627574652f636f6e7472616374732f636f6e81526020017f7472616374732f5461736b2e736f6c00000000000000000000000000000000008152506060019250505060405180910390a16000809054906101000a900473ffffffffffffffffffffffffffffffffffffffff1673ffffffffffffffffffffffffffffffffffffffff163373ffffffffffffffffffffffffffffffffffffffff1614806110355750600260009054906101000a900473ffffffffffffffffffffffffffffffffffffffff1673ffffffffffffffffffffffffffffffffffffffff163373ffffffffffffffffffffffffffffffffffffffff16145b151561104057600080fd5b7f4e793477562d0bdb92a9f8a67e167ab8f016d648d7bd8b0430f25d68b440f3c6600360405180806020018381526020018281038252604f8152602001807f2f55736572732f73686f6b6973686f6b692f646576656c6f706d656e742f636f81526020017f6e73656e7379732f646973747269627574652f636f6e7472616374732f636f6e81526020017f7472616374732f5461736b2e736f6c00000000000000000000000000000000008152506060019250505060405180910390a17fb8679f046d83266c74431d76de105af34c44346257bf1ad5e5b5e78728958d98603e60405180806020018381526020018281038252604f8152602001807f2f55736572732f73686f6b6973686f6b692f646576656c6f706d656e742f636f81526020017f6e73656e7379732f646973747269627574652f636f6e7472616374732f636f6e81526020017f7472616374732f5461736b2e736f6c00000000000000000000000000000000008152506060019250505060405180910390a17fa752e27bc51e9eb778ad98bde789076ff681a66d141f00385f19f40bd465b515600660405180806020018381526020018281038252604f8152602001807f2f55736572732f73686f6b6973686f6b692f646576656c6f706d656e742f636f81526020017f6e73656e7379732f646973747269627574652f636f6e7472616374732f636f6e81526020017f7472616374732f5461736b2e736f6c00000000000000000000000000000000008152506060019250505060405180910390a17fb8679f046d83266c74431d76de105af34c44346257bf1ad5e5b5e78728958d98606c60405180806020018381526020018281038252604f8152602001807f2f55736572732f73686f6b6973686f6b692f646576656c6f706d656e742f636f81526020017f6e73656e7379732f646973747269627574652f636f6e7472616374732f636f6e81526020017f7472616374732f5461736b2e736f6c00000000000000000000000000000000008152506060019250505060405180910390a17f6f0975f9e319aef91b40172211ac445fd069f2a5f1469791a8c0397358ef5819600960405180806020018381526020018281038252604f8152602001807f2f55736572732f73686f6b6973686f6b692f646576656c6f706d656e742f636f81526020017f6e73656e7379732f646973747269627574652f636f6e7472616374732f636f6e81526020017f7472616374732f5461736b2e736f6c00000000000000000000000000000000008152506060019250505060405180910390a1826007819055507fb8679f046d83266c74431d76de105af34c44346257bf1ad5e5b5e78728958d98606d60405180806020018381526020018281038252604f8152602001807f2f55736572732f73686f6b6973686f6b692f646576656c6f706d656e742f636f81526020017f6e73656e7379732f646973747269627574652f636f6e7472616374732f636f6e81526020017f7472616374732f5461736b2e736f6c00000000000000000000000000000000008152506060019250505060405180910390a17f6f0975f9e319aef91b40172211ac445fd069f2a5f1469791a8c0397358ef5819600a60405180806020018381526020018281038252604f8152602001807f2f55736572732f73686f6b6973686f6b692f646576656c6f706d656e742f636f81526020017f6e73656e7379732f646973747269627574652f636f6e7472616374732f636f6e81526020017f7472616374732f5461736b2e736f6c00000000000000000000000000000000008152506060019250505060405180910390a1816008819055507fb8679f046d83266c74431d76de105af34c44346257bf1ad5e5b5e78728958d98606e60405180806020018381526020018281038252604f8152602001807f2f55736572732f73686f6b6973686f6b692f646576656c6f706d656e742f636f81526020017f6e73656e7379732f646973747269627574652f636f6e7472616374732f636f6e81526020017f7472616374732f5461736b2e736f6c00000000000000000000000000000000008152506060019250505060405180910390a17f6f0975f9e319aef91b40172211ac445fd069f2a5f1469791a8c0397358ef5819600b60405180806020018381526020018281038252604f8152602001807f2f55736572732f73686f6b6973686f6b692f646576656c6f706d656e742f636f81526020017f6e73656e7379732f646973747269627574652f636f6e7472616374732f636f6e81526020017f7472616374732f5461736b2e736f6c00000000000000000000000000000000008152506060019250505060405180910390a1426009819055507fb8679f046d83266c74431d76de105af34c44346257bf1ad5e5b5e78728958d98606f60405180806020018381526020018281038252604f8152602001807f2f55736572732f73686f6b6973686f6b692f646576656c6f706d656e742f636f81526020017f6e73656e7379732f646973747269627574652f636f6e7472616374732f636f6e81526020017f7472616374732f5461736b2e736f6c00000000000000000000000000000000008152506060019250505060405180910390a17f6f0975f9e319aef91b40172211ac445fd069f2a5f1469791a8c0397358ef5819600c60405180806020018381526020018281038252604f8152602001807f2f55736572732f73686f6b6973686f6b692f646576656c6f706d656e742f636f81526020017f6e73656e7379732f646973747269627574652f636f6e7472616374732f636f6e81526020017f7472616374732f5461736b2e736f6c00000000000000000000000000000000008152506060019250505060405180910390a16000600a60006101000a81548160ff0219169083151502179055507fb8679f046d83266c74431d76de105af34c44346257bf1ad5e5b5e78728958d98607060405180806020018381526020018281038252604f8152602001807f2f55736572732f73686f6b6973686f6b692f646576656c6f706d656e742f636f81526020017f6e73656e7379732f646973747269627574652f636f6e7472616374732f636f6e81526020017f7472616374732f5461736b2e736f6c00000000000000000000000000000000008152506060019250505060405180910390a17f6f0975f9e319aef91b40172211ac445fd069f2a5f1469791a8c0397358ef5819600d60405180806020018381526020018281038252604f8152602001807f2f55736572732f73686f6b6973686f6b692f646576656c6f706d656e742f636f81526020017f6e73656e7379732f646973747269627574652f636f6e7472616374732f636f6e81526020017f7472616374732f5461736b2e736f6c00000000000000000000000000000000008152506060019250505060405180910390a180600a60016101000a81548173ffffffffffffffffffffffffffffffffffffffff021916908373ffffffffffffffffffffffffffffffffffffffff160217905550505050565b60075481565b7fa752e27bc51e9eb778ad98bde789076ff681a66d141f00385f19f40bd465b515600260405180806020018381526020018281038252604f8152602001807f2f55736572732f73686f6b6973686f6b692f646576656c6f706d656e742f636f81526020017f6e73656e7379732f646973747269627574652f636f6e7472616374732f636f6e81526020017f7472616374732f5461736b2e736f6c00000000000000000000000000000000008152506060019250505060405180910390a17fb8679f046d83266c74431d76de105af34c44346257bf1ad5e5b5e78728958d98603860405180806020018381526020018281038252604f8152602001807f2f55736572732f73686f6b6973686f6b692f646576656c6f706d656e742f636f81526020017f6e73656e7379732f646973747269627574652f636f6e7472616374732f636f6e81526020017f7472616374732f5461736b2e736f6c00000000000000000000000000000000008152506060019250505060405180910390a17f50c7af8f9f2114059c442002478177596876a49f89f83ebc53dfa756a4f4a540600260405180806020018381526020018281038252604f8152602001807f2f55736572732f73686f6b6973686f6b692f646576656c6f706d656e742f636f81526020017f6e73656e7379732f646973747269627574652f636f6e7472616374732f636f6e81526020017f7472616374732f5461736b2e736f6c00000000000000000000000000000000008152506060019250505060405180910390a17f6f0975f9e319aef91b40172211ac445fd069f2a5f1469791a8c0397358ef5819600260405180806020018381526020018281038252604f8152602001807f2f55736572732f73686f6b6973686f6b692f646576656c6f706d656e742f636f81526020017f6e73656e7379732f646973747269627574652f636f6e7472616374732f636f6e81526020017f7472616374732f5461736b2e736f6c00000000000000000000000000000000008152506060019250505060405180910390a1600160009054906101000a900473ffffffffffffffffffffffffffffffffffffffff1673ffffffffffffffffffffffffffffffffffffffff163373ffffffffffffffffffffffffffffffffffffffff16141515611da557600080fd5b7f4e793477562d0bdb92a9f8a67e167ab8f016d648d7bd8b0430f25d68b440f3c6600260405180806020018381526020018281038252604f8152602001807f2f55736572732f73686f6b6973686f6b692f646576656c6f706d656e742f636f81526020017f6e73656e7379732f646973747269627574652f636f6e7472616374732f636f6e81526020017f7472616374732f5461736b2e736f6c00000000000000000000000000000000008152506060019250505060405180910390a17fb8679f046d83266c74431d76de105af34c44346257bf1ad5e5b5e78728958d98603960405180806020018381526020018281038252604f8152602001807f2f55736572732f73686f6b6973686f6b692f646576656c6f706d656e742f636f81526020017f6e73656e7379732f646973747269627574652f636f6e7472616374732f636f6e81526020017f7472616374732f5461736b2e736f6c00000000000000000000000000000000008152506060019250505060405180910390a17fa752e27bc51e9eb778ad98bde789076ff681a66d141f00385f19f40bd465b515600860405180806020018381526020018281038252604f8152602001807f2f55736572732f73686f6b6973686f6b692f646576656c6f706d656e742f636f81526020017f6e73656e7379732f646973747269627574652f636f6e7472616374732f636f6e81526020017f7472616374732f5461736b2e736f6c00000000000000000000000000000000008152506060019250505060405180910390a17fb8679f046d83266c74431d76de105af34c44346257bf1ad5e5b5e78728958d98608460405180806020018381526020018281038252604f8152602001807f2f55736572732f73686f6b6973686f6b692f646576656c6f706d656e742f636f81526020017f6e73656e7379732f646973747269627574652f636f6e7472616374732f636f6e81526020017f7472616374732f5461736b2e736f6c00000000000000000000000000000000008152506060019250505060405180910390a17f6f0975f9e319aef91b40172211ac445fd069f2a5f1469791a8c0397358ef5819600f60405180806020018381526020018281038252604f8152602001807f2f55736572732f73686f6b6973686f6b692f646576656c6f706d656e742f636f81526020017f6e73656e7379732f646973747269627574652f636f6e7472616374732f636f6e81526020017f7472616374732f5461736b2e736f6c00000000000000000000000000000000008152506060019250505060405180910390a1604080519081016040528083815260200182815250600c60008573ffffffffffffffffffffffffffffffffffffffff1673ffffffffffffffffffffffffffffffffffffffff16815260200190815260200160002060008201518160000155602082015181600101559050507fb8679f046d83266c74431d76de105af34c44346257bf1ad5e5b5e78728958d98608560405180806020018381526020018281038252604f8152602001807f2f55736572732f73686f6b6973686f6b692f646576656c6f706d656e742f636f81526020017f6e73656e7379732f646973747269627574652f636f6e7472616374732f636f6e81526020017f7472616374732f5461736b2e736f6c00000000000000000000000000000000008152506060019250505060405180910390a17f6f0975f9e319aef91b40172211ac445fd069f2a5f1469791a8c0397358ef5819601060405180806020018381526020018281038252604f8152602001807f2f55736572732f73686f6b6973686f6b692f646576656c6f706d656e742f636f81526020017f6e73656e7379732f646973747269627574652f636f6e7472616374732f636f6e81526020017f7472616374732f5461736b2e736f6c00000000000000000000000000000000008152506060019250505060405180910390a16001821461241d577fe7ce2bb2e339a4de0af41c7dbc37c99d3a8a34d522bfc4fe0206d8e8a04ad09c6004600160405180806020018481526020018381526020018281038252604f8152602001807f2f55736572732f73686f6b6973686f6b692f646576656c6f706d656e742f636f81526020017f6e73656e7379732f646973747269627574652f636f6e7472616374732f636f6e81526020017f7472616374732f5461736b2e736f6c0000000000000000000000000000000000815250606001935050505060405180910390a180600e6000828254019250508190556124f3565b7fe7ce2bb2e339a4de0af41c7dbc37c99d3a8a34d522bfc4fe0206d8e8a04ad09c6004600060405180806020018481526020018381526020018281038252604f8152602001807f2f55736572732f73686f6b6973686f6b692f646576656c6f706d656e742f636f81526020017f6e73656e7379732f646973747269627574652f636f6e7472616374732f636f6e81526020017f7472616374732f5461736b2e736f6c0000000000000000000000000000000000815250606001935050505060405180910390a180600d6000828254019250508190555b507fb8679f046d83266c74431d76de105af34c44346257bf1ad5e5b5e78728958d98608860405180806020018381526020018281038252604f8152602001807f2f55736572732f73686f6b6973686f6b692f646576656c6f706d656e742f636f81526020017f6e73656e7379732f646973747269627574652f636f6e7472616374732f636f6e81526020017f7472616374732f5461736b2e736f6c00000000000000000000000000000000008152506060019250505060405180910390a17f6f0975f9e319aef91b40172211ac445fd069f2a5f1469791a8c0397358ef5819601160405180806020018381526020018281038252604f8152602001807f2f55736572732f73686f6b6973686f6b692f646576656c6f706d656e742f636f81526020017f6e73656e7379732f646973747269627574652f636f6e7472616374732f636f6e81526020017f7472616374732f5461736b2e736f6c00000000000000000000000000000000008152506060019250505060405180910390a1600a60159054906101000a900460ff1615801561269d57506000600d541415801561269c57506000600e5414155b5b15612902577fe7ce2bb2e339a4de0af41c7dbc37c99d3a8a34d522bfc4fe0206d8e8a04ad09c6005600060405180806020018481526020018381526020018281038252604f8152602001807f2f55736572732f73686f6b6973686f6b692f646576656c6f706d656e742f636f81526020017f6e73656e7379732f646973747269627574652f636f6e7472616374732f636f6e81526020017f7472616374732f5461736b2e736f6c0000000000000000000000000000000000815250606001935050505060405180910390a17fb8679f046d83266c74431d76de105af34c44346257bf1ad5e5b5e78728958d98608960405180806020018381526020018281038252604f8152602001807f2f55736572732f73686f6b6973686f6b692f646576656c6f706d656e742f636f81526020017f6e73656e7379732f646973747269627574652f636f6e7472616374732f636f6e81526020017f7472616374732f5461736b2e736f6c00000000000000000000000000000000008152506060019250505060405180910390a17f6f0975f9e319aef91b40172211ac445fd069f2a5f1469791a8c0397358ef5819601260405180806020018381526020018281038252604f8152602001807f2f55736572732f73686f6b6973686f6b692f646576656c6f706d656e742f636f81526020017f6e73656e7379732f646973747269627574652f636f6e7472616374732f636f6e81526020017f7472616374732f5461736b2e736f6c00000000000000000000000000000000008152506060019250505060405180910390a16001600a60156101000a81548160ff0219169083151502179055506129c9565b7fe7ce2bb2e339a4de0af41c7dbc37c99d3a8a34d522bfc4fe0206d8e8a04ad09c6005600160405180806020018481526020018381526020018281038252604f8152602001807f2f55736572732f73686f6b6973686f6b692f646576656c6f706d656e742f636f81526020017f6e73656e7379732f646973747269627574652f636f6e7472616374732f636f6e81526020017f7472616374732f5461736b2e736f6c0000000000000000000000000000000000815250606001935050505060405180910390a15b505050565b7fa752e27bc51e9eb778ad98bde789076ff681a66d141f00385f19f40bd465b515600260405180806020018381526020018281038252604f8152602001807f2f55736572732f73686f6b6973686f6b692f646576656c6f706d656e742f636f81526020017f6e73656e7379732f646973747269627574652f636f6e7472616374732f636f6e81526020017f7472616374732f5461736b2e736f6c00000000000000000000000000000000008152506060019250505060405180910390a17fb8679f046d83266c74431d76de105af34c44346257bf1ad5e5b5e78728958d98603860405180806020018381526020018281038252604f8152602001807f2f55736572732f73686f6b6973686f6b692f646576656c6f706d656e742f636f81526020017f6e73656e7379732f646973747269627574652f636f6e7472616374732f636f6e81526020017f7472616374732f5461736b2e736f6c00000000000000000000000000000000008152506060019250505060405180910390a17f50c7af8f9f2114059c442002478177596876a49f89f83ebc53dfa756a4f4a540600260405180806020018381526020018281038252604f8152602001807f2f55736572732f73686f6b6973686f6b692f646576656c6f706d656e742f636f81526020017f6e73656e7379732f646973747269627574652f636f6e7472616374732f636f6e81526020017f7472616374732f5461736b2e736f6c00000000000000000000000000000000008152506060019250505060405180910390a17f6f0975f9e319aef91b40172211ac445fd069f2a5f1469791a8c0397358ef5819600260405180806020018381526020018281038252604f8152602001807f2f55736572732f73686f6b6973686f6b692f646576656c6f706d656e742f636f81526020017f6e73656e7379732f646973747269627574652f636f6e7472616374732f636f6e81526020017f7472616374732f5461736b2e736f6c00000000000000000000000000000000008152506060019250505060405180910390a1600160009054906101000a900473ffffffffffffffffffffffffffffffffffffffff1673ffffffffffffffffffffffffffffffffffffffff163373ffffffffffffffffffffffffffffffffffffffff16141515612d1e57600080fd5b7f4e793477562d0bdb92a9f8a67e167ab8f016d648d7bd8b0430f25d68b440f3c6600260405180806020018381526020018281038252604f8152602001807f2f55736572732f73686f6b6973686f6b692f646576656c6f706d656e742f636f81526020017f6e73656e7379732f646973747269627574652f636f6e7472616374732f636f6e81526020017f7472616374732f5461736b2e736f6c00000000000000000000000000000000008152506060019250505060405180910390a17fb8679f046d83266c74431d76de105af34c44346257bf1ad5e5b5e78728958d98603960405180806020018381526020018281038252604f8152602001807f2f55736572732f73686f6b6973686f6b692f646576656c6f706d656e742f636f81526020017f6e73656e7379732f646973747269627574652f636f6e7472616374732f636f6e81526020017f7472616374732f5461736b2e736f6c00000000000000000000000000000000008152506060019250505060405180910390a17fa752e27bc51e9eb778ad98bde789076ff681a66d141f00385f19f40bd465b515600b60405180806020018381526020018281038252604f8152602001807f2f55736572732f73686f6b6973686f6b692f646576656c6f706d656e742f636f81526020017f6e73656e7379732f646973747269627574652f636f6e7472616374732f636f6e81526020017f7472616374732f5461736b2e736f6c00000000000000000000000000000000008152506060019250505060405180910390a17fb8679f046d83266c74431d76de105af34c44346257bf1ad5e5b5e78728958d9860b360405180806020018381526020018281038252604f8152602001807f2f55736572732f73686f6b6973686f6b692f646576656c6f706d656e742f636f81526020017f6e73656e7379732f646973747269627574652f636f6e7472616374732f636f6e81526020017f7472616374732f5461736b2e736f6c00000000000000000000000000000000008152506060019250505060405180910390a17f6f0975f9e319aef91b40172211ac445fd069f2a5f1469791a8c0397358ef5819601f60405180806020018381526020018281038252604f8152602001807f2f55736572732f73686f6b6973686f6b692f646576656c6f706d656e742f636f81526020017f6e73656e7379732f646973747269627574652f636f6e7472616374732f636f6e81526020017f7472616374732f5461736b2e736f6c00000000000000000000000000000000008152506060019250505060405180910390a16000600c60008373ffffffffffffffffffffffffffffffffffffffff1673ffffffffffffffffffffffffffffffffffffffff1681526020019081526020016000206001018190555050565b7fa752e27bc51e9eb778ad98bde789076ff681a66d141f00385f19f40bd465b515600160405180806020018381526020018281038252604f8152602001807f2f55736572732f73686f6b6973686f6b692f646576656c6f706d656e742f636f81526020017f6e73656e7379732f646973747269627574652f636f6e7472616374732f636f6e81526020017f7472616374732f5461736b2e736f6c00000000000000000000000000000000008152506060019250505060405180910390a17fb8679f046d83266c74431d76de105af34c44346257bf1ad5e5b5e78728958d98603360405180806020018381526020018281038252604f8152602001807f2f55736572732f73686f6b6973686f6b692f646576656c6f706d656e742f636f81526020017f6e73656e7379732f646973747269627574652f636f6e7472616374732f636f6e81526020017f7472616374732f5461736b2e736f6c00000000000000000000000000000000008152506060019250505060405180910390a17f50c7af8f9f2114059c442002478177596876a49f89f83ebc53dfa756a4f4a540600160405180806020018381526020018281038252604f8152602001807f2f55736572732f73686f6b6973686f6b692f646576656c6f706d656e742f636f81526020017f6e73656e7379732f646973747269627574652f636f6e7472616374732f636f6e81526020017f7472616374732f5461736b2e736f6c00000000000000000000000000000000008152506060019250505060405180910390a17f6f0975f9e319aef91b40172211ac445fd069f2a5f1469791a8c0397358ef5819600160405180806020018381526020018281038252604f8152602001807f2f55736572732f73686f6b6973686f6b692f646576656c6f706d656e742f636f81526020017f6e73656e7379732f646973747269627574652f636f6e7472616374732f636f6e81526020017f7472616374732f5461736b2e736f6c00000000000000000000000000000000008152506060019250505060405180910390a16000809054906101000a900473ffffffffffffffffffffffffffffffffffffffff1673ffffffffffffffffffffffffffffffffffffffff163373ffffffffffffffffffffffffffffffffffffffff1614151561346957600080fd5b7f4e793477562d0bdb92a9f8a67e167ab8f016d648d7bd8b0430f25d68b440f3c6600160405180806020018381526020018281038252604f8152602001807f2f55736572732f73686f6b6973686f6b692f646576656c6f706d656e742f636f81526020017f6e73656e7379732f646973747269627574652f636f6e7472616374732f636f6e81526020017f7472616374732f5461736b2e736f6c00000000000000000000000000000000008152506060019250505060405180910390a17fb8679f046d83266c74431d76de105af34c44346257bf1ad5e5b5e78728958d98603460405180806020018381526020018281038252604f8152602001807f2f55736572732f73686f6b6973686f6b692f646576656c6f706d656e742f636f81526020017f6e73656e7379732f646973747269627574652f636f6e7472616374732f636f6e81526020017f7472616374732f5461736b2e736f6c00000000000000000000000000000000008152506060019250505060405180910390a17fa752e27bc51e9eb778ad98bde789076ff681a66d141f00385f19f40bd465b515600960405180806020018381526020018281038252604f8152602001807f2f55736572732f73686f6b6973686f6b692f646576656c6f706d656e742f636f81526020017f6e73656e7379732f646973747269627574652f636f6e7472616374732f636f6e81526020017f7472616374732f5461736b2e736f6c00000000000000000000000000000000008152506060019250505060405180910390a17fb8679f046d83266c74431d76de105af34c44346257bf1ad5e5b5e78728958d98609360405180806020018381526020018281038252604f8152602001807f2f55736572732f73686f6b6973686f6b692f646576656c6f706d656e742f636f81526020017f6e73656e7379732f646973747269627574652f636f6e7472616374732f636f6e81526020017f7472616374732f5461736b2e736f6c00000000000000000000000000000000008152506060019250505060405180910390a17f50c7af8f9f2114059c442002478177596876a49f89f83ebc53dfa756a4f4a540600660405180806020018381526020018281038252604f8152602001807f2f55736572732f73686f6b6973686f6b692f646576656c6f706d656e742f636f81526020017f6e73656e7379732f646973747269627574652f636f6e7472616374732f636f6e81526020017f7472616374732f5461736b2e736f6c00000000000000000000000000000000008152506060019250505060405180910390a17f6f0975f9e319aef91b40172211ac445fd069f2a5f1469791a8c0397358ef5819601360405180806020018381526020018281038252604f8152602001807f2f55736572732f73686f6b6973686f6b692f646576656c6f706d656e742f636f81526020017f6e73656e7379732f646973747269627574652f636f6e7472616374732f636f6e81526020017f7472616374732f5461736b2e736f6c00000000000000000000000000000000008152506060019250505060405180910390a160006005541415156138e857600080fd5b7f4e793477562d0bdb92a9f8a67e167ab8f016d648d7bd8b0430f25d68b440f3c6600660405180806020018381526020018281038252604f8152602001807f2f55736572732f73686f6b6973686f6b692f646576656c6f706d656e742f636f81526020017f6e73656e7379732f646973747269627574652f636f6e7472616374732f636f6e81526020017f7472616374732f5461736b2e736f6c00000000000000000000000000000000008152506060019250505060405180910390a17fb8679f046d83266c74431d76de105af34c44346257bf1ad5e5b5e78728958d98609460405180806020018381526020018281038252604f8152602001807f2f55736572732f73686f6b6973686f6b692f646576656c6f706d656e742f636f81526020017f6e73656e7379732f646973747269627574652f636f6e7472616374732f636f6e81526020017f7472616374732f5461736b2e736f6c00000000000000000000000000000000008152506060019250505060405180910390a17f6f0975f9e319aef91b40172211ac445fd069f2a5f1469791a8c0397358ef5819601460405180806020018381526020018281038252604f8152602001807f2f55736572732f73686f6b6973686f6b692f646576656c6f706d656e742f636f81526020017f6e73656e7379732f646973747269627574652f636f6e7472616374732f636f6e81526020017f7472616374732f5461736b2e736f6c00000000000000000000000000000000008152506060019250505060405180910390a18060058190555050565b600460009054906101000a900460ff1681565b60007fa752e27bc51e9eb778ad98bde789076ff681a66d141f00385f19f40bd465b515600160405180806020018381526020018281038252604f8152602001807f2f55736572732f73686f6b6973686f6b692f646576656c6f706d656e742f636f81526020017f6e73656e7379732f646973747269627574652f636f6e7472616374732f636f6e81526020017f7472616374732f5461736b2e736f6c00000000000000000000000000000000008152506060019250505060405180910390a17fb8679f046d83266c74431d76de105af34c44346257bf1ad5e5b5e78728958d98603360405180806020018381526020018281038252604f8152602001807f2f55736572732f73686f6b6973686f6b692f646576656c6f706d656e742f636f81526020017f6e73656e7379732f646973747269627574652f636f6e7472616374732f636f6e81526020017f7472616374732f5461736b2e736f6c00000000000000000000000000000000008152506060019250505060405180910390a17f50c7af8f9f2114059c442002478177596876a49f89f83ebc53dfa756a4f4a540600160405180806020018381526020018281038252604f8152602001807f2f55736572732f73686f6b6973686f6b692f646576656c6f706d656e742f636f81526020017f6e73656e7379732f646973747269627574652f636f6e7472616374732f636f6e81526020017f7472616374732f5461736b2e736f6c00000000000000000000000000000000008152506060019250505060405180910390a17f6f0975f9e319aef91b40172211ac445fd069f2a5f1469791a8c0397358ef5819600160405180806020018381526020018281038252604f8152602001807f2f55736572732f73686f6b6973686f6b692f646576656c6f706d656e742f636f81526020017f6e73656e7379732f646973747269627574652f636f6e7472616374732f636f6e81526020017f7472616374732f5461736b2e736f6c00000000000000000000000000000000008152506060019250505060405180910390a16000809054906101000a900473ffffffffffffffffffffffffffffffffffffffff1673ffffffffffffffffffffffffffffffffffffffff163373ffffffffffffffffffffffffffffffffffffffff16141515613e8d57600080fd5b7f4e793477562d0bdb92a9f8a67e167ab8f016d648d7bd8b0430f25d68b440f3c6600160405180806020018381526020018281038252604f8152602001807f2f55736572732f73686f6b6973686f6b692f646576656c6f706d656e742f636f81526020017f6e73656e7379732f646973747269627574652f636f6e7472616374732f636f6e81526020017f7472616374732f5461736b2e736f6c00000000000000000000000000000000008152506060019250505060405180910390a17fb8679f046d83266c74431d76de105af34c44346257bf1ad5e5b5e78728958d98603460405180806020018381526020018281038252604f8152602001807f2f55736572732f73686f6b6973686f6b692f646576656c6f706d656e742f636f81526020017f6e73656e7379732f646973747269627574652f636f6e7472616374732f636f6e81526020017f7472616374732f5461736b2e736f6c00000000000000000000000000000000008152506060019250505060405180910390a17fa752e27bc51e9eb778ad98bde789076ff681a66d141f00385f19f40bd465b515600a60405180806020018381526020018281038252604f8152602001807f2f55736572732f73686f6b6973686f6b692f646576656c6f706d656e742f636f81526020017f6e73656e7379732f646973747269627574652f636f6e7472616374732f636f6e81526020017f7472616374732f5461736b2e736f6c00000000000000000000000000000000008152506060019250505060405180910390a17fb8679f046d83266c74431d76de105af34c44346257bf1ad5e5b5e78728958d98609e60405180806020018381526020018281038252604f8152602001807f2f55736572732f73686f6b6973686f6b692f646576656c6f706d656e742f636f81526020017f6e73656e7379732f646973747269627574652f636f6e7472616374732f636f6e81526020017f7472616374732f5461736b2e736f6c00000000000000000000000000000000008152506060019250505060405180910390a17f6f0975f9e319aef91b40172211ac445fd069f2a5f1469791a8c0397358ef5819601560405180806020018381526020018281038252604f8152602001807f2f55736572732f73686f6b6973686f6b692f646576656c6f706d656e742f636f81526020017f6e73656e7379732f646973747269627574652f636f6e7472616374732f636f6e81526020017f7472616374732f5461736b2e736f6c00000000000000000000000000000000008152506060019250505060405180910390a16000600d54148061425157506000600e54145b156148a6577fe7ce2bb2e339a4de0af41c7dbc37c99d3a8a34d522bfc4fe0206d8e8a04ad09c6007600060405180806020018481526020018381526020018281038252604f8152602001807f2f55736572732f73686f6b6973686f6b692f646576656c6f706d656e742f636f81526020017f6e73656e7379732f646973747269627574652f636f6e7472616374732f636f6e81526020017f7472616374732f5461736b2e736f6c0000000000000000000000000000000000815250606001935050505060405180910390a17fb8679f046d83266c74431d76de105af34c44346257bf1ad5e5b5e78728958d98609f60405180806020018381526020018281038252604f8152602001807f2f55736572732f73686f6b6973686f6b692f646576656c6f706d656e742f636f81526020017f6e73656e7379732f646973747269627574652f636f6e7472616374732f636f6e81526020017f7472616374732f5461736b2e736f6c00000000000000000000000000000000008152506060019250505060405180910390a17f6f0975f9e319aef91b40172211ac445fd069f2a5f1469791a8c0397358ef5819601660405180806020018381526020018281038252604f8152602001807f2f55736572732f73686f6b6973686f6b692f646576656c6f706d656e742f636f81526020017f6e73656e7379732f646973747269627574652f636f6e7472616374732f636f6e81526020017f7472616374732f5461736b2e736f6c00000000000000000000000000000000008152506060019250505060405180910390a16001600460006101000a81548160ff0219169083151502179055507fb8679f046d83266c74431d76de105af34c44346257bf1ad5e5b5e78728958d9860a060405180806020018381526020018281038252604f8152602001807f2f55736572732f73686f6b6973686f6b692f646576656c6f706d656e742f636f81526020017f6e73656e7379732f646973747269627574652f636f6e7472616374732f636f6e81526020017f7472616374732f5461736b2e736f6c00000000000000000000000000000000008152506060019250505060405180910390a17f6f0975f9e319aef91b40172211ac445fd069f2a5f1469791a8c0397358ef5819601760405180806020018381526020018281038252604f8152602001807f2f55736572732f73686f6b6973686f6b692f646576656c6f706d656e742f636f81526020017f6e73656e7379732f646973747269627574652f636f6e7472616374732f636f6e81526020017f7472616374732f5461736b2e736f6c00000000000000000000000000000000008152506060019250505060405180910390a1600e54600d5411156147da577fe7ce2bb2e339a4de0af41c7dbc37c99d3a8a34d522bfc4fe0206d8e8a04ad09c6008600060405180806020018481526020018381526020018281038252604f8152602001807f2f55736572732f73686f6b6973686f6b692f646576656c6f706d656e742f636f81526020017f6e73656e7379732f646973747269627574652f636f6e7472616374732f636f6e81526020017f7472616374732f5461736b2e736f6c0000000000000000000000000000000000815250606001935050505060405180910390a17f6f0975f9e319aef91b40172211ac445fd069f2a5f1469791a8c0397358ef5819601860405180806020018381526020018281038252604f8152602001807f2f55736572732f73686f6b6973686f6b692f646576656c6f706d656e742f636f81526020017f6e73656e7379732f646973747269627574652f636f6e7472616374732f636f6e81526020017f7472616374732f5461736b2e736f6c00000000000000000000000000000000008152506060019250505060405180910390a16001600460016101000a81548160ff0219169083151502179055506148a1565b7fe7ce2bb2e339a4de0af41c7dbc37c99d3a8a34d522bfc4fe0206d8e8a04ad09c6008600160405180806020018481526020018381526020018281038252604f8152602001807f2f55736572732f73686f6b6973686f6b692f646576656c6f706d656e742f636f81526020017f6e73656e7379732f646973747269627574652f636f6e7472616374732f636f6e81526020017f7472616374732f5461736b2e736f6c0000000000000000000000000000000000815250606001935050505060405180910390a15b6152ad565b7fe7ce2bb2e339a4de0af41c7dbc37c99d3a8a34d522bfc4fe0206d8e8a04ad09c6007600160405180806020018481526020018381526020018281038252604f8152602001807f2f55736572732f73686f6b6973686f6b692f646576656c6f706d656e742f636f81526020017f6e73656e7379732f646973747269627574652f636f6e7472616374732f636f6e81526020017f7472616374732f5461736b2e736f6c0000000000000000000000000000000000815250606001935050505060405180910390a17fb8679f046d83266c74431d76de105af34c44346257bf1ad5e5b5e78728958d9860a260405180806020018381526020018281038252604f8152602001807f2f55736572732f73686f6b6973686f6b692f646576656c6f706d656e742f636f81526020017f6e73656e7379732f646973747269627574652f636f6e7472616374732f636f6e81526020017f7472616374732f5461736b2e736f6c00000000000000000000000000000000008152506060019250505060405180910390a17f6f0975f9e319aef91b40172211ac445fd069f2a5f1469791a8c0397358ef5819601960405180806020018381526020018281038252604f8152602001807f2f55736572732f73686f6b6973686f6b692f646576656c6f706d656e742f636f81526020017f6e73656e7379732f646973747269627574652f636f6e7472616374732f636f6e81526020017f7472616374732f5461736b2e736f6c00000000000000000000000000000000008152506060019250505060405180910390a16001600460006101000a81548160ff0219169083151502179055507fb8679f046d83266c74431d76de105af34c44346257bf1ad5e5b5e78728958d9860a360405180806020018381526020018281038252604f8152602001807f2f55736572732f73686f6b6973686f6b692f646576656c6f706d656e742f636f81526020017f6e73656e7379732f646973747269627574652f636f6e7472616374732f636f6e81526020017f7472616374732f5461736b2e736f6c00000000000000000000000000000000008152506060019250505060405180910390a17f6f0975f9e319aef91b40172211ac445fd069f2a5f1469791a8c0397358ef5819601a60405180806020018381526020018281038252604f8152602001807f2f55736572732f73686f6b6973686f6b692f646576656c6f706d656e742f636f81526020017f6e73656e7379732f646973747269627574652f636f6e7472616374732f636f6e81526020017f7472616374732f5461736b2e736f6c00000000000000000000000000000000008152506060019250505060405180910390a18115615063577fe7ce2bb2e339a4de0af41c7dbc37c99d3a8a34d522bfc4fe0206d8e8a04ad09c6009600060405180806020018481526020018381526020018281038252604f8152602001807f2f55736572732f73686f6b6973686f6b692f646576656c6f706d656e742f636f81526020017f6e73656e7379732f646973747269627574652f636f6e7472616374732f636f6e81526020017f7472616374732f5461736b2e736f6c0000000000000000000000000000000000815250606001935050505060405180910390a17fb8679f046d83266c74431d76de105af34c44346257bf1ad5e5b5e78728958d9860a460405180806020018381526020018281038252604f8152602001807f2f55736572732f73686f6b6973686f6b692f646576656c6f706d656e742f636f81526020017f6e73656e7379732f646973747269627574652f636f6e7472616374732f636f6e81526020017f7472616374732f5461736b2e736f6c00000000000000000000000000000000008152506060019250505060405180910390a17f6f0975f9e319aef91b40172211ac445fd069f2a5f1469791a8c0397358ef5819601b60405180806020018381526020018281038252604f8152602001807f2f55736572732f73686f6b6973686f6b692f646576656c6f706d656e742f636f81526020017f6e73656e7379732f646973747269627574652f636f6e7472616374732f636f6e81526020017f7472616374732f5461736b2e736f6c00000000000000000000000000000000008152506060019250505060405180910390a16001600460016101000a81548160ff0219169083151502179055507fb8679f046d83266c74431d76de105af34c44346257bf1ad5e5b5e78728958d9860a560405180806020018381526020018281038252604f8152602001807f2f55736572732f73686f6b6973686f6b692f646576656c6f706d656e742f636f81526020017f6e73656e7379732f646973747269627574652f636f6e7472616374732f636f6e81526020017f7472616374732f5461736b2e736f6c00000000000000000000000000000000008152506060019250505060405180910390a17f6f0975f9e319aef91b40172211ac445fd069f2a5f1469791a8c0397358ef5819601c60405180806020018381526020018281038252604f8152602001807f2f55736572732f73686f6b6973686f6b692f646576656c6f706d656e742f636f81526020017f6e73656e7379732f646973747269627574652f636f6e7472616374732f636f6e81526020017f7472616374732f5461736b2e736f6c00000000000000000000000000000000008152506060019250505060405180910390a16000600e819055506152ac565b7fe7ce2bb2e339a4de0af41c7dbc37c99d3a8a34d522bfc4fe0206d8e8a04ad09c6009600160405180806020018481526020018381526020018281038252604f8152602001807f2f55736572732f73686f6b6973686f6b692f646576656c6f706d656e742f636f81526020017f6e73656e7379732f646973747269627574652f636f6e7472616374732f636f6e81526020017f7472616374732f5461736b2e736f6c0000000000000000000000000000000000815250606001935050505060405180910390a17fb8679f046d83266c74431d76de105af34c44346257bf1ad5e5b5e78728958d9860a760405180806020018381526020018281038252604f8152602001807f2f55736572732f73686f6b6973686f6b692f646576656c6f706d656e742f636f81526020017f6e73656e7379732f646973747269627574652f636f6e7472616374732f636f6e81526020017f7472616374732f5461736b2e736f6c00000000000000000000000000000000008152506060019250505060405180910390a17f6f0975f9e319aef91b40172211ac445fd069f2a5f1469791a8c0397358ef5819601d60405180806020018381526020018281038252604f8152602001807f2f55736572732f73686f6b6973686f6b692f646576656c6f706d656e742f636f81526020017f6e73656e7379732f646973747269627574652f636f6e7472616374732f636f6e81526020017f7472616374732f5461736b2e736f6c00000000000000000000000000000000008152506060019250505060405180910390a16000600d819055505b5b7fb8679f046d83266c74431d76de105af34c44346257bf1ad5e5b5e78728958d9860aa60405180806020018381526020018281038252604f8152602001807f2f55736572732f73686f6b6973686f6b692f646576656c6f706d656e742f636f81526020017f6e73656e7379732f646973747269627574652f636f6e7472616374732f636f6e81526020017f7472616374732f5461736b2e736f6c00000000000000000000000000000000008152506060019250505060405180910390a17f6f0975f9e319aef91b40172211ac445fd069f2a5f1469791a8c0397358ef5819601e60405180806020018381526020018281038252604f8152602001807f2f55736572732f73686f6b6973686f6b692f646576656c6f706d656e742f636f81526020017f6e73656e7379732f646973747269627574652f636f6e7472616374732f636f6e81526020017f7472616374732f5461736b2e736f6c00000000000000000000000000000000008152506060019250505060405180910390a1600460019054906101000a900460ff169050919050565b60035481565b7fa752e27bc51e9eb778ad98bde789076ff681a66d141f00385f19f40bd465b515600160405180806020018381526020018281038252604f8152602001807f2f55736572732f73686f6b6973686f6b692f646576656c6f706d656e742f636f81526020017f6e73656e7379732f646973747269627574652f636f6e7472616374732f636f6e81526020017f7472616374732f5461736b2e736f6c00000000000000000000000000000000008152506060019250505060405180910390a17fb8679f046d83266c74431d76de105af34c44346257bf1ad5e5b5e78728958d98603360405180806020018381526020018281038252604f8152602001807f2f55736572732f73686f6b6973686f6b692f646576656c6f706d656e742f636f81526020017f6e73656e7379732f646973747269627574652f636f6e7472616374732f636f6e81526020017f7472616374732f5461736b2e736f6c00000000000000000000000000000000008152506060019250505060405180910390a17f50c7af8f9f2114059c442002478177596876a49f89f83ebc53dfa756a4f4a540600160405180806020018381526020018281038252604f8152602001807f2f55736572732f73686f6b6973686f6b692f646576656c6f706d656e742f636f81526020017f6e73656e7379732f646973747269627574652f636f6e7472616374732f636f6e81526020017f7472616374732f5461736b2e736f6c00000000000000000000000000000000008152506060019250505060405180910390a17f6f0975f9e319aef91b40172211ac445fd069f2a5f1469791a8c0397358ef5819600160405180806020018381526020018281038252604f8152602001807f2f55736572732f73686f6b6973686f6b692f646576656c6f706d656e742f636f81526020017f6e73656e7379732f646973747269627574652f636f6e7472616374732f636f6e81526020017f7472616374732f5461736b2e736f6c00000000000000000000000000000000008152506060019250505060405180910390a16000809054906101000a900473ffffffffffffffffffffffffffffffffffffffff1673ffffffffffffffffffffffffffffffffffffffff163373ffffffffffffffffffffffffffffffffffffffff1614151561579357600080fd5b7f4e793477562d0bdb92a9f8a67e167ab8f016d648d7bd8b0430f25d68b440f3c6600160405180806020018381526020018281038252604f8152602001807f2f55736572732f73686f6b6973686f6b692f646576656c6f706d656e742f636f81526020017f6e73656e7379732f646973747269627574652f636f6e7472616374732f636f6e81526020017f7472616374732f5461736b2e736f6c00000000000000000000000000000000008152506060019250505060405180910390a17fb8679f046d83266c74431d76de105af34c44346257bf1ad5e5b5e78728958d98603460405180806020018381526020018281038252604f8152602001807f2f55736572732f73686f6b6973686f6b692f646576656c6f706d656e742f636f81526020017f6e73656e7379732f646973747269627574652f636f6e7472616374732f636f6e81526020017f7472616374732f5461736b2e736f6c00000000000000000000000000000000008152506060019250505060405180910390a17fa752e27bc51e9eb778ad98bde789076ff681a66d141f00385f19f40bd465b515600760405180806020018381526020018281038252604f8152602001807f2f55736572732f73686f6b6973686f6b692f646576656c6f706d656e742f636f81526020017f6e73656e7379732f646973747269627574652f636f6e7472616374732f636f6e81526020017f7472616374732f5461736b2e736f6c00000000000000000000000000000000008152506060019250505060405180910390a17fb8679f046d83266c74431d76de105af34c44346257bf1ad5e5b5e78728958d98607860405180806020018381526020018281038252604f8152602001807f2f55736572732f73686f6b6973686f6b692f646576656c6f706d656e742f636f81526020017f6e73656e7379732f646973747269627574652f636f6e7472616374732f636f6e81526020017f7472616374732f5461736b2e736f6c00000000000000000000000000000000008152506060019250505060405180910390a17f6f0975f9e319aef91b40172211ac445fd069f2a5f1469791a8c0397358ef5819600e60405180806020018381526020018281038252604f8152602001807f2f55736572732f73686f6b6973686f6b692f646576656c6f706d656e742f636f81526020017f6e73656e7379732f646973747269627574652f636f6e7472616374732f636f6e81526020017f7472616374732f5461736b2e736f6c00000000000000000000000000000000008152506060019250505060405180910390a16001600a60006101000a81548160ff021916908315150217905550565b600a60019054906101000a900473ffffffffffffffffffffffffffffffffffffffff1681565b600a60159054906101000a900460ff1681565b600e5481565b60085481565b600d5481565b600460019054906101000a900460ff1681565b600c6020528060005260406000206000915090508060000154908060010154905082565b600b54815600a165627a7a72305820b7b2498aa1fa8e48ccf1358ff37ad58aec22d7767dea56d7daa861733fd7f9f50029a165627a7a723058200d0455fa2ec856e92f277bd0d79e28d7a35a294ba89a43d7586dff19d126db8a0029","source":"pragma solidity ^0.4.19;\n\nimport \"./library/PLCRVoting.sol\";\nimport \"./ReputationRegistry.sol\";\nimport \"./Project.sol\";\nimport \"./ProjectLibrary.sol\";\nimport \"./Task.sol\";\n\n/**\n@title Project Registry for Distribute Network\n@author Team: Jessica Marshall, Ashoka Finley\n@notice This project uses the Project Library to manage the state of Distribute Network projects.\n@dev This contract must be initialized with the address of a valid Token Registry, Reputation Registry\nand Distribute Token\n*/\ncontract ProjectRegistry {event __CoverageProjectRegistry(string fileName, uint256 lineNumber);\nevent __FunctionCoverageProjectRegistry(string fileName, uint256 fnId);\nevent __StatementCoverageProjectRegistry(string fileName, uint256 statementId);\nevent __BranchCoverageProjectRegistry(string fileName, uint256 branchId, uint256 locationIdx);\nevent __AssertPreCoverageProjectRegistry(string fileName, uint256 branchId);\nevent __AssertPostCoverageProjectRegistry(string fileName, uint256 branchId);\n\n\n    using ProjectLibrary for address;\n\n    // =====================================================================\n    // EVENTS\n    // =====================================================================\n\n    event LogProjectCreated(\n        address indexed projectAddress,\n        address proposerAddress,\n        uint256 projectCost,\n        uint256 proposerStake\n    );\n\n    // =====================================================================\n    // STATE VARIABLES\n    // =====================================================================\n\n    PLCRVoting plcrVoting;\n\n    address tokenRegistryAddress;\n    address reputationRegistryAddress;\n    address distributeTokenAddress;\n\n    struct StakedState {\n        bytes32 topTaskHash;\n        mapping(address => bytes32) taskHashSubmissions;\n        mapping(bytes32 => uint256) numSubmissionsByWeight;\n    }\n\n    mapping (address => StakedState) public stakedProjects;\n\n    // =====================================================================\n    // MODIFIERS\n    // =====================================================================\n\n    modifier onlyTR() {__FunctionCoverageProjectRegistry('/Users/shokishoki/development/consensys/distribute/contracts/contracts/ProjectRegistry.sol',1);\n\n__CoverageProjectRegistry('/Users/shokishoki/development/consensys/distribute/contracts/contracts/ProjectRegistry.sol',54);\n        __AssertPreCoverageProjectRegistry('/Users/shokishoki/development/consensys/distribute/contracts/contracts/ProjectRegistry.sol',1);\n __StatementCoverageProjectRegistry('/Users/shokishoki/development/consensys/distribute/contracts/contracts/ProjectRegistry.sol',1);\nrequire(msg.sender == tokenRegistryAddress);__AssertPostCoverageProjectRegistry('/Users/shokishoki/development/consensys/distribute/contracts/contracts/ProjectRegistry.sol',1);\n\n__CoverageProjectRegistry('/Users/shokishoki/development/consensys/distribute/contracts/contracts/ProjectRegistry.sol',55);\n        _;\n    }\n\n    modifier onlyRR() {__FunctionCoverageProjectRegistry('/Users/shokishoki/development/consensys/distribute/contracts/contracts/ProjectRegistry.sol',2);\n\n__CoverageProjectRegistry('/Users/shokishoki/development/consensys/distribute/contracts/contracts/ProjectRegistry.sol',59);\n        __AssertPreCoverageProjectRegistry('/Users/shokishoki/development/consensys/distribute/contracts/contracts/ProjectRegistry.sol',2);\n __StatementCoverageProjectRegistry('/Users/shokishoki/development/consensys/distribute/contracts/contracts/ProjectRegistry.sol',2);\nrequire(msg.sender == reputationRegistryAddress);__AssertPostCoverageProjectRegistry('/Users/shokishoki/development/consensys/distribute/contracts/contracts/ProjectRegistry.sol',2);\n\n__CoverageProjectRegistry('/Users/shokishoki/development/consensys/distribute/contracts/contracts/ProjectRegistry.sol',60);\n        _;\n    }\n    modifier onlyTRorRR() {__FunctionCoverageProjectRegistry('/Users/shokishoki/development/consensys/distribute/contracts/contracts/ProjectRegistry.sol',3);\n\n__CoverageProjectRegistry('/Users/shokishoki/development/consensys/distribute/contracts/contracts/ProjectRegistry.sol',63);\n        __AssertPreCoverageProjectRegistry('/Users/shokishoki/development/consensys/distribute/contracts/contracts/ProjectRegistry.sol',3);\n __StatementCoverageProjectRegistry('/Users/shokishoki/development/consensys/distribute/contracts/contracts/ProjectRegistry.sol',3);\nrequire(msg.sender == tokenRegistryAddress || msg.sender == reputationRegistryAddress);__AssertPostCoverageProjectRegistry('/Users/shokishoki/development/consensys/distribute/contracts/contracts/ProjectRegistry.sol',3);\n\n__CoverageProjectRegistry('/Users/shokishoki/development/consensys/distribute/contracts/contracts/ProjectRegistry.sol',64);\n        _;\n    }\n\n    // =====================================================================\n    // CONSTRUCTOR\n    // =====================================================================\n\n    /**\n    @notice\n    @dev Quasi constructor is called after thr project is deployed. Requires that all relevant contract\n    address are not yet intialized.\n    @param _distributeToken Address of the distributeToken contract\n    @param _tokenRegistry Address of the token registry contract\n    @param _reputationRegistry Address of the reputation registry contract\n    @param _plcrVoting Address of the plcr voting contract\n    */\n    function init(\n        address _distributeToken,\n        address _tokenRegistry,\n        address _reputationRegistry,\n        address _plcrVoting\n    ) public {__FunctionCoverageProjectRegistry('/Users/shokishoki/development/consensys/distribute/contracts/contracts/ProjectRegistry.sol',4);\n       //contract is created\n__CoverageProjectRegistry('/Users/shokishoki/development/consensys/distribute/contracts/contracts/ProjectRegistry.sol',86);\n        __AssertPreCoverageProjectRegistry('/Users/shokishoki/development/consensys/distribute/contracts/contracts/ProjectRegistry.sol',4);\n __StatementCoverageProjectRegistry('/Users/shokishoki/development/consensys/distribute/contracts/contracts/ProjectRegistry.sol',4);\nrequire(\n            tokenRegistryAddress == 0 &&\n            reputationRegistryAddress == 0 &&\n            distributeTokenAddress == 0\n        );__AssertPostCoverageProjectRegistry('/Users/shokishoki/development/consensys/distribute/contracts/contracts/ProjectRegistry.sol',4);\n\n__CoverageProjectRegistry('/Users/shokishoki/development/consensys/distribute/contracts/contracts/ProjectRegistry.sol',91);\n         __StatementCoverageProjectRegistry('/Users/shokishoki/development/consensys/distribute/contracts/contracts/ProjectRegistry.sol',5);\ndistributeTokenAddress = _distributeToken;\n__CoverageProjectRegistry('/Users/shokishoki/development/consensys/distribute/contracts/contracts/ProjectRegistry.sol',92);\n         __StatementCoverageProjectRegistry('/Users/shokishoki/development/consensys/distribute/contracts/contracts/ProjectRegistry.sol',6);\ntokenRegistryAddress = _tokenRegistry;\n__CoverageProjectRegistry('/Users/shokishoki/development/consensys/distribute/contracts/contracts/ProjectRegistry.sol',93);\n         __StatementCoverageProjectRegistry('/Users/shokishoki/development/consensys/distribute/contracts/contracts/ProjectRegistry.sol',7);\nreputationRegistryAddress = _reputationRegistry;\n__CoverageProjectRegistry('/Users/shokishoki/development/consensys/distribute/contracts/contracts/ProjectRegistry.sol',94);\n         __StatementCoverageProjectRegistry('/Users/shokishoki/development/consensys/distribute/contracts/contracts/ProjectRegistry.sol',8);\nplcrVoting = PLCRVoting(_plcrVoting);\n    }\n\n    // =====================================================================\n    // STATE CHANGE\n    // =====================================================================\n\n    /**\n    @notice Calls the project library checkStaked function\n    @dev Used to create the correct msg.sender to manage control\n    @param _projectAddress Address of the project\n    @return Boolean representing Staked status\n    */\n    function checkStaked(address _projectAddress) public returns (bool) {__FunctionCoverageProjectRegistry('/Users/shokishoki/development/consensys/distribute/contracts/contracts/ProjectRegistry.sol',5);\n\n__CoverageProjectRegistry('/Users/shokishoki/development/consensys/distribute/contracts/contracts/ProjectRegistry.sol',108);\n         __StatementCoverageProjectRegistry('/Users/shokishoki/development/consensys/distribute/contracts/contracts/ProjectRegistry.sol',9);\nreturn _projectAddress.checkStaked();\n    }\n\n    /**\n    @notice Calls the project library checkActive function, passing along the topTaskHash of the\n    project at `_projectAddress`\n    @dev Used to create the correct msg.sender to manage control\n    @param _projectAddress Address of the project\n    @return Boolean representing Active status\n    */\n    function checkActive(address _projectAddress) public returns (bool) {__FunctionCoverageProjectRegistry('/Users/shokishoki/development/consensys/distribute/contracts/contracts/ProjectRegistry.sol',6);\n\n__CoverageProjectRegistry('/Users/shokishoki/development/consensys/distribute/contracts/contracts/ProjectRegistry.sol',119);\n         __StatementCoverageProjectRegistry('/Users/shokishoki/development/consensys/distribute/contracts/contracts/ProjectRegistry.sol',10);\nreturn _projectAddress.checkActive(stakedProjects[_projectAddress].topTaskHash);\n    }\n\n    /**\n    @notice Calls the project library checkValidate function\n    @dev Used to create the correct msg.sender to manage control\n    @param _projectAddress Address of the project\n    @return Boolean representing Validate status\n    */\n    function checkValidate(address _projectAddress) public {__FunctionCoverageProjectRegistry('/Users/shokishoki/development/consensys/distribute/contracts/contracts/ProjectRegistry.sol',7);\n\n__CoverageProjectRegistry('/Users/shokishoki/development/consensys/distribute/contracts/contracts/ProjectRegistry.sol',129);\n        _projectAddress.checkValidate(tokenRegistryAddress, distributeTokenAddress);\n    }\n\n    /**\n    @notice Calls the project library checkVoting function\n    @dev Used to create the correct msg.sender to manage control\n    @param _projectAddress Address of the project\n    @return Boolean representing Voting status\n    */\n    function checkVoting(address _projectAddress) public {__FunctionCoverageProjectRegistry('/Users/shokishoki/development/consensys/distribute/contracts/contracts/ProjectRegistry.sol',8);\n\n__CoverageProjectRegistry('/Users/shokishoki/development/consensys/distribute/contracts/contracts/ProjectRegistry.sol',139);\n        _projectAddress.checkVoting(tokenRegistryAddress, distributeTokenAddress, address(plcrVoting));\n    }\n\n    /**\n    @notice Calls the project library checkEnd function. Burns tokens and reputation if the project fails\n    @dev Used to create the correct msg.sender to manage control\n    @param _projectAddress Address of the project\n    @return Boolean representing Final Status\n    */\n    function checkEnd(address _projectAddress) public {__FunctionCoverageProjectRegistry('/Users/shokishoki/development/consensys/distribute/contracts/contracts/ProjectRegistry.sol',9);\n\n__CoverageProjectRegistry('/Users/shokishoki/development/consensys/distribute/contracts/contracts/ProjectRegistry.sol',149);\n        _projectAddress.checkEnd(tokenRegistryAddress, distributeTokenAddress, address(plcrVoting));\n__CoverageProjectRegistry('/Users/shokishoki/development/consensys/distribute/contracts/contracts/ProjectRegistry.sol',150);\n         __StatementCoverageProjectRegistry('/Users/shokishoki/development/consensys/distribute/contracts/contracts/ProjectRegistry.sol',11);\nProject project = Project(_projectAddress);\n__CoverageProjectRegistry('/Users/shokishoki/development/consensys/distribute/contracts/contracts/ProjectRegistry.sol',151);\n         __StatementCoverageProjectRegistry('/Users/shokishoki/development/consensys/distribute/contracts/contracts/ProjectRegistry.sol',12);\nif (project.state() == 7) {__BranchCoverageProjectRegistry('/Users/shokishoki/development/consensys/distribute/contracts/contracts/ProjectRegistry.sol',5,0);\n__CoverageProjectRegistry('/Users/shokishoki/development/consensys/distribute/contracts/contracts/ProjectRegistry.sol',152);\n             __StatementCoverageProjectRegistry('/Users/shokishoki/development/consensys/distribute/contracts/contracts/ProjectRegistry.sol',13);\nTokenRegistry(tokenRegistryAddress).burnTokens(project.tokensStaked());\n__CoverageProjectRegistry('/Users/shokishoki/development/consensys/distribute/contracts/contracts/ProjectRegistry.sol',153);\n             __StatementCoverageProjectRegistry('/Users/shokishoki/development/consensys/distribute/contracts/contracts/ProjectRegistry.sol',14);\nReputationRegistry(reputationRegistryAddress).burnReputation(project.reputationStaked());\n__CoverageProjectRegistry('/Users/shokishoki/development/consensys/distribute/contracts/contracts/ProjectRegistry.sol',154);\n            project.clearStake();\n        }else { __BranchCoverageProjectRegistry('/Users/shokishoki/development/consensys/distribute/contracts/contracts/ProjectRegistry.sol',5,1);}\n\n    }\n\n    // =====================================================================\n    // PROPOSER\n    // =====================================================================\n\n    /**\n    @notice Create a project with a cost of `_cost`, a ratio of `_costProportion`, a staking period\n    length of `_stakingPeriod`, by proposer `_proposer` of type `_proposerType` with stake of\n    `_proposerStake` defined by ipfsHash `_ipfsHash`\n    @dev Only callable by the ReputationRegistry or TokenRegistry, after proposer stake is confirmed.\n    @param _cost The total cost of the project in wei\n    @param _costProportion The proportion of the project cost divided by the DistributeToken weiBal\n    represented as integer\n    @param _stakingPeriod The length of time this project is open for staking\n    @param _proposer The address of the user proposing the project\n    @param _proposerType Denotes if a proposer is using reputation or tokens,\n    value must be 1: tokens or 2: reputation\n    @param _proposerStake The amount of reputation or tokens needed to create the proposal\n    @param _ipfsHash The ipfs hash of the full project description\n    @return Address of the created project\n    */\n    function createProject(\n        uint256 _cost,\n        uint256 _costProportion,\n        uint256 _stakingPeriod,\n        address _proposer,\n        uint256 _proposerType,\n        uint256 _proposerStake,\n        string _ipfsHash\n    ) public onlyTRorRR returns (address) {__FunctionCoverageProjectRegistry('/Users/shokishoki/development/consensys/distribute/contracts/contracts/ProjectRegistry.sol',10);\n\n__CoverageProjectRegistry('/Users/shokishoki/development/consensys/distribute/contracts/contracts/ProjectRegistry.sol',187);\n         __StatementCoverageProjectRegistry('/Users/shokishoki/development/consensys/distribute/contracts/contracts/ProjectRegistry.sol',15);\nProject newProject = new Project(\n            _cost,\n            _costProportion,\n            _stakingPeriod,\n            _proposer,\n            _proposerType,\n            _proposerStake,\n            _ipfsHash,\n            reputationRegistryAddress,\n            tokenRegistryAddress\n        );\n__CoverageProjectRegistry('/Users/shokishoki/development/consensys/distribute/contracts/contracts/ProjectRegistry.sol',198);\n         __StatementCoverageProjectRegistry('/Users/shokishoki/development/consensys/distribute/contracts/contracts/ProjectRegistry.sol',16);\naddress projectAddress = address(newProject);\n__CoverageProjectRegistry('/Users/shokishoki/development/consensys/distribute/contracts/contracts/ProjectRegistry.sol',199);\n         __StatementCoverageProjectRegistry('/Users/shokishoki/development/consensys/distribute/contracts/contracts/ProjectRegistry.sol',17);\nLogProjectCreated(projectAddress, _proposer, _cost, _proposerStake);\n__CoverageProjectRegistry('/Users/shokishoki/development/consensys/distribute/contracts/contracts/ProjectRegistry.sol',200);\n         __StatementCoverageProjectRegistry('/Users/shokishoki/development/consensys/distribute/contracts/contracts/ProjectRegistry.sol',18);\nreturn projectAddress;\n    }\n\n    /**\n    @notice Refund a proposer if the project at `_projectAddress` is not in state: 1 Proposed or\n    state: 8 Expired.\n    @dev Only called by the TokenRegistry or ReputationRegistry\n    @param _projectAddress Address of the project\n    @return An array with the weiCost of the project and the proposers stake\n    */\n    function refundProposer(address _projectAddress) public onlyTRorRR returns (uint256[2]) {__FunctionCoverageProjectRegistry('/Users/shokishoki/development/consensys/distribute/contracts/contracts/ProjectRegistry.sol',11);\n\n__CoverageProjectRegistry('/Users/shokishoki/development/consensys/distribute/contracts/contracts/ProjectRegistry.sol',211);\n         __StatementCoverageProjectRegistry('/Users/shokishoki/development/consensys/distribute/contracts/contracts/ProjectRegistry.sol',19);\nProject project =  Project(_projectAddress);\n__CoverageProjectRegistry('/Users/shokishoki/development/consensys/distribute/contracts/contracts/ProjectRegistry.sol',212);\n        __AssertPreCoverageProjectRegistry('/Users/shokishoki/development/consensys/distribute/contracts/contracts/ProjectRegistry.sol',6);\n __StatementCoverageProjectRegistry('/Users/shokishoki/development/consensys/distribute/contracts/contracts/ProjectRegistry.sol',20);\nrequire(project.state() > 1 && project.state() != 8);__AssertPostCoverageProjectRegistry('/Users/shokishoki/development/consensys/distribute/contracts/contracts/ProjectRegistry.sol',6);\n\n__CoverageProjectRegistry('/Users/shokishoki/development/consensys/distribute/contracts/contracts/ProjectRegistry.sol',213);\n        __AssertPreCoverageProjectRegistry('/Users/shokishoki/development/consensys/distribute/contracts/contracts/ProjectRegistry.sol',7);\n __StatementCoverageProjectRegistry('/Users/shokishoki/development/consensys/distribute/contracts/contracts/ProjectRegistry.sol',21);\nrequire(project.proposerStake() > 0);__AssertPostCoverageProjectRegistry('/Users/shokishoki/development/consensys/distribute/contracts/contracts/ProjectRegistry.sol',7);\n\n\n__CoverageProjectRegistry('/Users/shokishoki/development/consensys/distribute/contracts/contracts/ProjectRegistry.sol',215);\n        uint256[2] memory returnValues;\n__CoverageProjectRegistry('/Users/shokishoki/development/consensys/distribute/contracts/contracts/ProjectRegistry.sol',216);\n         __StatementCoverageProjectRegistry('/Users/shokishoki/development/consensys/distribute/contracts/contracts/ProjectRegistry.sol',22);\nreturnValues[0] = project.weiCost();\n__CoverageProjectRegistry('/Users/shokishoki/development/consensys/distribute/contracts/contracts/ProjectRegistry.sol',217);\n         __StatementCoverageProjectRegistry('/Users/shokishoki/development/consensys/distribute/contracts/contracts/ProjectRegistry.sol',23);\nreturnValues[1] = project.proposerStake();\n__CoverageProjectRegistry('/Users/shokishoki/development/consensys/distribute/contracts/contracts/ProjectRegistry.sol',218);\n        project.clearProposerStake();\n__CoverageProjectRegistry('/Users/shokishoki/development/consensys/distribute/contracts/contracts/ProjectRegistry.sol',219);\n         __StatementCoverageProjectRegistry('/Users/shokishoki/development/consensys/distribute/contracts/contracts/ProjectRegistry.sol',24);\nreturn returnValues;\n    }\n\n    // =====================================================================\n    // STAKED\n    // =====================================================================\n\n    /**\n    @notice Submit a hash of a task list `_taskHash` to project at `_projectAddress` by staker\n    `msg.sender`. Makes sure the Project is in the Active State, and calls stakedTaskHash.\n    @dev This library is imported into all the Registries to manage project interactions\n    @param _projectAddress Address of the project\n    @param _taskHash Hash of the task list\n    */\n    function addTaskHash(address _projectAddress, bytes32 _taskHash) public  {__FunctionCoverageProjectRegistry('/Users/shokishoki/development/consensys/distribute/contracts/contracts/ProjectRegistry.sol',12);\n      // format of has should be 'description', 'percentage', check via js that percentages add up to 100 prior to calling contract\n__CoverageProjectRegistry('/Users/shokishoki/development/consensys/distribute/contracts/contracts/ProjectRegistry.sol',234);\n         __StatementCoverageProjectRegistry('/Users/shokishoki/development/consensys/distribute/contracts/contracts/ProjectRegistry.sol',25);\nProject project = Project(_projectAddress);\n__CoverageProjectRegistry('/Users/shokishoki/development/consensys/distribute/contracts/contracts/ProjectRegistry.sol',235);\n        __AssertPreCoverageProjectRegistry('/Users/shokishoki/development/consensys/distribute/contracts/contracts/ProjectRegistry.sol',8);\n __StatementCoverageProjectRegistry('/Users/shokishoki/development/consensys/distribute/contracts/contracts/ProjectRegistry.sol',26);\nrequire(_projectAddress.isStaker(msg.sender) == true);__AssertPostCoverageProjectRegistry('/Users/shokishoki/development/consensys/distribute/contracts/contracts/ProjectRegistry.sol',8);\n\n\n__CoverageProjectRegistry('/Users/shokishoki/development/consensys/distribute/contracts/contracts/ProjectRegistry.sol',237);\n         __StatementCoverageProjectRegistry('/Users/shokishoki/development/consensys/distribute/contracts/contracts/ProjectRegistry.sol',27);\ncheckActive(_projectAddress);\n__CoverageProjectRegistry('/Users/shokishoki/development/consensys/distribute/contracts/contracts/ProjectRegistry.sol',238);\n         __StatementCoverageProjectRegistry('/Users/shokishoki/development/consensys/distribute/contracts/contracts/ProjectRegistry.sol',28);\nif (project.state() == 2) {__BranchCoverageProjectRegistry('/Users/shokishoki/development/consensys/distribute/contracts/contracts/ProjectRegistry.sol',9,0);\n__CoverageProjectRegistry('/Users/shokishoki/development/consensys/distribute/contracts/contracts/ProjectRegistry.sol',239);\n             __StatementCoverageProjectRegistry('/Users/shokishoki/development/consensys/distribute/contracts/contracts/ProjectRegistry.sol',29);\nuint256 stakerWeight = _projectAddress.calculateWeightOfAddress(msg.sender);\n__CoverageProjectRegistry('/Users/shokishoki/development/consensys/distribute/contracts/contracts/ProjectRegistry.sol',240);\n             __StatementCoverageProjectRegistry('/Users/shokishoki/development/consensys/distribute/contracts/contracts/ProjectRegistry.sol',30);\nstakedTaskHash(_projectAddress, msg.sender, _taskHash, stakerWeight);\n        }else { __BranchCoverageProjectRegistry('/Users/shokishoki/development/consensys/distribute/contracts/contracts/ProjectRegistry.sol',9,1);}\n\n    }\n\n    /**\n    @notice Calculates the taskHash that has the highest weight of all tasks hashes submitted by stakers\n    and stores this as the top task hash.\n    @dev Internal helper function used to calculate the top task hash.\n    @param _projectAddress Address of the project\n    @param _staker Address of the staker\n    @param _taskHash Hash of the task list\n    @param _stakerWeight Weight of the staker\n    */\n    function stakedTaskHash(\n        address _projectAddress,\n        address _staker,\n        bytes32 _taskHash,\n        uint256 _stakerWeight\n    ) internal {__FunctionCoverageProjectRegistry('/Users/shokishoki/development/consensys/distribute/contracts/contracts/ProjectRegistry.sol',13);\n\n__CoverageProjectRegistry('/Users/shokishoki/development/consensys/distribute/contracts/contracts/ProjectRegistry.sol',259);\n         __StatementCoverageProjectRegistry('/Users/shokishoki/development/consensys/distribute/contracts/contracts/ProjectRegistry.sol',31);\nStakedState storage ss = stakedProjects[_projectAddress];\n__CoverageProjectRegistry('/Users/shokishoki/development/consensys/distribute/contracts/contracts/ProjectRegistry.sol',260);\n         __StatementCoverageProjectRegistry('/Users/shokishoki/development/consensys/distribute/contracts/contracts/ProjectRegistry.sol',32);\nif(ss.taskHashSubmissions[_staker] !=  0) {__BranchCoverageProjectRegistry('/Users/shokishoki/development/consensys/distribute/contracts/contracts/ProjectRegistry.sol',10,0);   //Not time submission for this particular address\n__CoverageProjectRegistry('/Users/shokishoki/development/consensys/distribute/contracts/contracts/ProjectRegistry.sol',261);\n             __StatementCoverageProjectRegistry('/Users/shokishoki/development/consensys/distribute/contracts/contracts/ProjectRegistry.sol',33);\nbytes32 submittedTaskHash = ss.taskHashSubmissions[_staker];\n__CoverageProjectRegistry('/Users/shokishoki/development/consensys/distribute/contracts/contracts/ProjectRegistry.sol',262);\n             __StatementCoverageProjectRegistry('/Users/shokishoki/development/consensys/distribute/contracts/contracts/ProjectRegistry.sol',34);\nss.numSubmissionsByWeight[submittedTaskHash] -= _stakerWeight;\n        }else { __BranchCoverageProjectRegistry('/Users/shokishoki/development/consensys/distribute/contracts/contracts/ProjectRegistry.sol',10,1);}\n\n__CoverageProjectRegistry('/Users/shokishoki/development/consensys/distribute/contracts/contracts/ProjectRegistry.sol',264);\n         __StatementCoverageProjectRegistry('/Users/shokishoki/development/consensys/distribute/contracts/contracts/ProjectRegistry.sol',35);\nss.numSubmissionsByWeight[_taskHash] += _stakerWeight;\n__CoverageProjectRegistry('/Users/shokishoki/development/consensys/distribute/contracts/contracts/ProjectRegistry.sol',265);\n         __StatementCoverageProjectRegistry('/Users/shokishoki/development/consensys/distribute/contracts/contracts/ProjectRegistry.sol',36);\nss.taskHashSubmissions[_staker] = _taskHash;\n__CoverageProjectRegistry('/Users/shokishoki/development/consensys/distribute/contracts/contracts/ProjectRegistry.sol',266);\n         __StatementCoverageProjectRegistry('/Users/shokishoki/development/consensys/distribute/contracts/contracts/ProjectRegistry.sol',37);\nif(ss.numSubmissionsByWeight[_taskHash] > ss.numSubmissionsByWeight[ss.topTaskHash]) {__BranchCoverageProjectRegistry('/Users/shokishoki/development/consensys/distribute/contracts/contracts/ProjectRegistry.sol',11,0);\n__CoverageProjectRegistry('/Users/shokishoki/development/consensys/distribute/contracts/contracts/ProjectRegistry.sol',267);\n             __StatementCoverageProjectRegistry('/Users/shokishoki/development/consensys/distribute/contracts/contracts/ProjectRegistry.sol',38);\nss.topTaskHash = _taskHash;\n        }else { __BranchCoverageProjectRegistry('/Users/shokishoki/development/consensys/distribute/contracts/contracts/ProjectRegistry.sol',11,1);}\n\n    }\n\n    // =====================================================================\n    // ACTIVE\n    // =====================================================================\n\n    /**\n    @notice Submit the final task list with hashed tasks `_hashes` for project at `_projectAddress`.\n    Hashes the submitted task list to validate it is the top task hash list, and creates a task for\n    each list item with the respective hash.\n    @dev This function is an interation and requires variable gas.\n    @param _projectAddress Address of the project\n    @param _hashes Array of task hashes\n    */\n    // Doesn't Change State Here Could Possibly move to ProjectLibrary\n    function submitHashList(address _projectAddress, bytes32[] _hashes) public {__FunctionCoverageProjectRegistry('/Users/shokishoki/development/consensys/distribute/contracts/contracts/ProjectRegistry.sol',14);\n\n__CoverageProjectRegistry('/Users/shokishoki/development/consensys/distribute/contracts/contracts/ProjectRegistry.sol',285);\n         __StatementCoverageProjectRegistry('/Users/shokishoki/development/consensys/distribute/contracts/contracts/ProjectRegistry.sol',39);\nProject project = Project(_projectAddress);\n__CoverageProjectRegistry('/Users/shokishoki/development/consensys/distribute/contracts/contracts/ProjectRegistry.sol',286);\n        __AssertPreCoverageProjectRegistry('/Users/shokishoki/development/consensys/distribute/contracts/contracts/ProjectRegistry.sol',12);\n __StatementCoverageProjectRegistry('/Users/shokishoki/development/consensys/distribute/contracts/contracts/ProjectRegistry.sol',40);\nrequire(keccak256(_hashes) == stakedProjects[_projectAddress].topTaskHash);__AssertPostCoverageProjectRegistry('/Users/shokishoki/development/consensys/distribute/contracts/contracts/ProjectRegistry.sol',12);\n\n\n__CoverageProjectRegistry('/Users/shokishoki/development/consensys/distribute/contracts/contracts/ProjectRegistry.sol',288);\n        project.setTaskLength(_hashes.length);\n__CoverageProjectRegistry('/Users/shokishoki/development/consensys/distribute/contracts/contracts/ProjectRegistry.sol',289);\n         __StatementCoverageProjectRegistry('/Users/shokishoki/development/consensys/distribute/contracts/contracts/ProjectRegistry.sol',41);\nfor (uint256 i = 0; i < _hashes.length; i++) {\n__CoverageProjectRegistry('/Users/shokishoki/development/consensys/distribute/contracts/contracts/ProjectRegistry.sol',290);\n             __StatementCoverageProjectRegistry('/Users/shokishoki/development/consensys/distribute/contracts/contracts/ProjectRegistry.sol',42);\nTask newTask = new Task(_hashes[i], tokenRegistryAddress, reputationRegistryAddress);\n__CoverageProjectRegistry('/Users/shokishoki/development/consensys/distribute/contracts/contracts/ProjectRegistry.sol',291);\n            project.setTaskAddress(address(newTask), i);\n        }\n    }\n\n    /**\n    @notice Claim a task at index `_index` from project at `_projectAddress` with description\n    `_taskDescription`, weighting `_weighting` by claimer `_claimer. Set the ether reward of the task\n    to `_weiVal` and the repuation needed to claim the task to `_reputationVal`\n    @dev Only callable by the ReputationRegistry\n    @param _projectAddress Address of project\n    @param _index Index of the task in task array.\n    @param _taskDescription Description of the task.\n    @param _claimer Address of account to claim task.\n    @param _weighting Weighting of this particular task (proportion of project funds)\n    @param _weiVal Ether reward of task\n    @param _reputationVal Reputation required to claim task\n    */\n    // Doesn't Change State Here Could Possibly move to ProjectLibrary\n    function claimTask(\n        address _projectAddress,\n        uint256 _index,\n        bytes32 _taskDescription,\n        address _claimer,\n        uint _weighting,\n        uint _weiVal,\n        uint _reputationVal\n    ) public onlyRR {__FunctionCoverageProjectRegistry('/Users/shokishoki/development/consensys/distribute/contracts/contracts/ProjectRegistry.sol',15);\n\n__CoverageProjectRegistry('/Users/shokishoki/development/consensys/distribute/contracts/contracts/ProjectRegistry.sol',318);\n         __StatementCoverageProjectRegistry('/Users/shokishoki/development/consensys/distribute/contracts/contracts/ProjectRegistry.sol',43);\nProject project = Project(_projectAddress);\n__CoverageProjectRegistry('/Users/shokishoki/development/consensys/distribute/contracts/contracts/ProjectRegistry.sol',319);\n        __AssertPreCoverageProjectRegistry('/Users/shokishoki/development/consensys/distribute/contracts/contracts/ProjectRegistry.sol',13);\n __StatementCoverageProjectRegistry('/Users/shokishoki/development/consensys/distribute/contracts/contracts/ProjectRegistry.sol',44);\nrequire(project.state() == 3);__AssertPostCoverageProjectRegistry('/Users/shokishoki/development/consensys/distribute/contracts/contracts/ProjectRegistry.sol',13);\n\n__CoverageProjectRegistry('/Users/shokishoki/development/consensys/distribute/contracts/contracts/ProjectRegistry.sol',320);\n         __StatementCoverageProjectRegistry('/Users/shokishoki/development/consensys/distribute/contracts/contracts/ProjectRegistry.sol',45);\nTask task = Task(project.tasks(_index));\n__CoverageProjectRegistry('/Users/shokishoki/development/consensys/distribute/contracts/contracts/ProjectRegistry.sol',321);\n        __AssertPreCoverageProjectRegistry('/Users/shokishoki/development/consensys/distribute/contracts/contracts/ProjectRegistry.sol',14);\n __StatementCoverageProjectRegistry('/Users/shokishoki/development/consensys/distribute/contracts/contracts/ProjectRegistry.sol',46);\nrequire(keccak256(_taskDescription, _weighting) == task.taskHash());__AssertPostCoverageProjectRegistry('/Users/shokishoki/development/consensys/distribute/contracts/contracts/ProjectRegistry.sol',14);\n\n__CoverageProjectRegistry('/Users/shokishoki/development/consensys/distribute/contracts/contracts/ProjectRegistry.sol',322);\n        __AssertPreCoverageProjectRegistry('/Users/shokishoki/development/consensys/distribute/contracts/contracts/ProjectRegistry.sol',15);\n __StatementCoverageProjectRegistry('/Users/shokishoki/development/consensys/distribute/contracts/contracts/ProjectRegistry.sol',47);\nrequire(\n            task.claimer() == 0 ||\n            (now > (task.claimTime() + project.turnoverTime()) && !task.complete())\n        );__AssertPostCoverageProjectRegistry('/Users/shokishoki/development/consensys/distribute/contracts/contracts/ProjectRegistry.sol',15);\n\n__CoverageProjectRegistry('/Users/shokishoki/development/consensys/distribute/contracts/contracts/ProjectRegistry.sol',326);\n        task.setWeighting(_weighting);\n__CoverageProjectRegistry('/Users/shokishoki/development/consensys/distribute/contracts/contracts/ProjectRegistry.sol',327);\n        task.setTaskReward(_weiVal, _reputationVal, _claimer);\n    }\n\n    /**\n    @notice Mark that task at index `_index` in project at `_projectAddress` as completed by the claimer\n    `msg.sender`\n    @param _projectAddress Address of project\n    @param _index Index of the task in task array\n    */\n    // Doesn't Change State Here Could Possibly move to ProjectLibrary\n    function submitTaskComplete(address _projectAddress, uint256 _index) public {__FunctionCoverageProjectRegistry('/Users/shokishoki/development/consensys/distribute/contracts/contracts/ProjectRegistry.sol',16);\n\n__CoverageProjectRegistry('/Users/shokishoki/development/consensys/distribute/contracts/contracts/ProjectRegistry.sol',338);\n         __StatementCoverageProjectRegistry('/Users/shokishoki/development/consensys/distribute/contracts/contracts/ProjectRegistry.sol',48);\nProject project = Project(_projectAddress);\n__CoverageProjectRegistry('/Users/shokishoki/development/consensys/distribute/contracts/contracts/ProjectRegistry.sol',339);\n         __StatementCoverageProjectRegistry('/Users/shokishoki/development/consensys/distribute/contracts/contracts/ProjectRegistry.sol',49);\nTask task = Task(project.tasks(_index));\n__CoverageProjectRegistry('/Users/shokishoki/development/consensys/distribute/contracts/contracts/ProjectRegistry.sol',340);\n        __AssertPreCoverageProjectRegistry('/Users/shokishoki/development/consensys/distribute/contracts/contracts/ProjectRegistry.sol',16);\n __StatementCoverageProjectRegistry('/Users/shokishoki/development/consensys/distribute/contracts/contracts/ProjectRegistry.sol',50);\nrequire(task.claimer() == msg.sender);__AssertPostCoverageProjectRegistry('/Users/shokishoki/development/consensys/distribute/contracts/contracts/ProjectRegistry.sol',16);\n\n__CoverageProjectRegistry('/Users/shokishoki/development/consensys/distribute/contracts/contracts/ProjectRegistry.sol',341);\n        __AssertPreCoverageProjectRegistry('/Users/shokishoki/development/consensys/distribute/contracts/contracts/ProjectRegistry.sol',17);\n __StatementCoverageProjectRegistry('/Users/shokishoki/development/consensys/distribute/contracts/contracts/ProjectRegistry.sol',51);\nrequire(task.complete() == false);__AssertPostCoverageProjectRegistry('/Users/shokishoki/development/consensys/distribute/contracts/contracts/ProjectRegistry.sol',17);\n\n__CoverageProjectRegistry('/Users/shokishoki/development/consensys/distribute/contracts/contracts/ProjectRegistry.sol',342);\n        __AssertPreCoverageProjectRegistry('/Users/shokishoki/development/consensys/distribute/contracts/contracts/ProjectRegistry.sol',18);\n __StatementCoverageProjectRegistry('/Users/shokishoki/development/consensys/distribute/contracts/contracts/ProjectRegistry.sol',52);\nrequire(project.state() == 3);__AssertPostCoverageProjectRegistry('/Users/shokishoki/development/consensys/distribute/contracts/contracts/ProjectRegistry.sol',18);\n\n\n__CoverageProjectRegistry('/Users/shokishoki/development/consensys/distribute/contracts/contracts/ProjectRegistry.sol',344);\n        task.markTaskComplete();\n    }\n}\n","sourcePath":"/Users/shokishoki/development/consensys/distribute/contracts/coverageEnv/contracts/ProjectRegistry.sol","compiler":{"name":"solc","version":"0.4.19+commit.c4cbbb05.Emscripten.clang"},"schemaVersion":"2.0.0","updatedAt":"2018-03-21T15:13:01.009Z"}