{"contractName":"ReputationRegistry","abi":[{"constant":true,"inputs":[],"name":"initialRepVal","outputs":[{"name":"","type":"uint256"}],"payable":false,"stateMutability":"view","type":"function"},{"constant":true,"inputs":[],"name":"totalSupply","outputs":[{"name":"","type":"uint256"}],"payable":false,"stateMutability":"view","type":"function"},{"constant":true,"inputs":[{"name":"","type":"address"}],"name":"balances","outputs":[{"name":"","type":"uint256"}],"payable":false,"stateMutability":"view","type":"function"},{"constant":true,"inputs":[{"name":"","type":"address"}],"name":"lastAccess","outputs":[{"name":"","type":"uint256"}],"payable":false,"stateMutability":"view","type":"function"},{"constant":true,"inputs":[],"name":"totalUsers","outputs":[{"name":"","type":"uint256"}],"payable":false,"stateMutability":"view","type":"function"},{"constant":true,"inputs":[{"name":"","type":"address"}],"name":"first","outputs":[{"name":"","type":"bool"}],"payable":false,"stateMutability":"view","type":"function"},{"anonymous":false,"inputs":[{"indexed":true,"name":"projectAddress","type":"address"},{"indexed":false,"name":"projectCost","type":"uint256"},{"indexed":false,"name":"proposerStake","type":"uint256"}],"name":"ProjectCreated","type":"event"},{"constant":false,"inputs":[{"name":"_distributeToken","type":"address"},{"name":"_projectRegistry","type":"address"},{"name":"_plcrVoting","type":"address"}],"name":"init","outputs":[],"payable":false,"stateMutability":"nonpayable","type":"function"},{"constant":true,"inputs":[],"name":"averageBalance","outputs":[{"name":"","type":"uint256"}],"payable":false,"stateMutability":"view","type":"function"},{"constant":false,"inputs":[],"name":"register","outputs":[],"payable":false,"stateMutability":"nonpayable","type":"function"},{"constant":false,"inputs":[{"name":"_cost","type":"uint256"},{"name":"_stakingPeriod","type":"uint256"},{"name":"_ipfsHash","type":"string"}],"name":"proposeProject","outputs":[],"payable":false,"stateMutability":"nonpayable","type":"function"},{"constant":false,"inputs":[{"name":"_projectAddress","type":"address"}],"name":"refundProposer","outputs":[],"payable":false,"stateMutability":"nonpayable","type":"function"},{"constant":false,"inputs":[{"name":"_projectAddress","type":"address"},{"name":"_reputation","type":"uint256"}],"name":"stakeReputation","outputs":[],"payable":false,"stateMutability":"nonpayable","type":"function"},{"constant":false,"inputs":[{"name":"_projectAddress","type":"address"},{"name":"_reputation","type":"uint256"}],"name":"unstakeReputation","outputs":[],"payable":false,"stateMutability":"nonpayable","type":"function"},{"constant":false,"inputs":[{"name":"_projectAddress","type":"address"},{"name":"_index","type":"uint256"},{"name":"_taskDescription","type":"bytes32"},{"name":"_weighting","type":"uint256"}],"name":"claimTask","outputs":[],"payable":false,"stateMutability":"nonpayable","type":"function"},{"constant":false,"inputs":[{"name":"_projectAddress","type":"address"},{"name":"_index","type":"uint8"}],"name":"rewardTask","outputs":[],"payable":false,"stateMutability":"nonpayable","type":"function"},{"constant":false,"inputs":[{"name":"_projectAddress","type":"address"},{"name":"_index","type":"uint256"},{"name":"_reputation","type":"uint256"},{"name":"_secretHash","type":"bytes32"},{"name":"_prevPollID","type":"uint256"}],"name":"voteCommit","outputs":[],"payable":false,"stateMutability":"nonpayable","type":"function"},{"constant":false,"inputs":[{"name":"_projectAddress","type":"address"},{"name":"_index","type":"uint256"},{"name":"_voteOption","type":"uint256"},{"name":"_salt","type":"uint256"}],"name":"voteReveal","outputs":[],"payable":false,"stateMutability":"nonpayable","type":"function"},{"constant":false,"inputs":[{"name":"_reputation","type":"uint256"}],"name":"refundVotingReputation","outputs":[],"payable":false,"stateMutability":"nonpayable","type":"function"},{"constant":false,"inputs":[{"name":"_projectAddress","type":"address"}],"name":"refundStaker","outputs":[],"payable":false,"stateMutability":"nonpayable","type":"function"},{"constant":false,"inputs":[{"name":"_projectAddress","type":"address"},{"name":"_index","type":"uint256"}],"name":"rescueTokens","outputs":[],"payable":false,"stateMutability":"nonpayable","type":"function"},{"constant":false,"inputs":[{"name":"_reputation","type":"uint256"}],"name":"burnReputation","outputs":[],"payable":false,"stateMutability":"nonpayable","type":"function"}],"bytecode":"0x6060604052642e90edd0006008556064600955612710600a5534156200002457600080fd5b61a2a580620000346000396000f30060606040526004361061011d576000357c0100000000000000000000000000000000000000000000000000000000900463ffffffff1680630db803241461012257806318160ddd1461014b578063184b9559146101745780631aa3a008146101eb5780631b73e0951461020057806327e235e3146102585780632f27ea1f146102a55780633c79fe74146103065780634012c2a214610348578063408489871461038157806357376198146103a45780635890b1e2146103e65780635c352318146104555780635d151b191461048e5780637f306ba1146104b75780639c6c3439146104f9578063a06bbcbf1461051c578063bff1f9e114610569578063cf1613f014610592578063e096fff0146105d7578063fc73d7711461062b575b600080fd5b341561012d57600080fd5b61013561067c565b6040518082815260200191505060405180910390f35b341561015657600080fd5b61015e610682565b6040518082815260200191505060405180910390f35b341561017f57600080fd5b6101e9600480803573ffffffffffffffffffffffffffffffffffffffff1690602001909190803573ffffffffffffffffffffffffffffffffffffffff1690602001909190803573ffffffffffffffffffffffffffffffffffffffff16906020019091905050610688565b005b34156101f657600080fd5b6101fe61103c565b005b341561020b57600080fd5b610256600480803573ffffffffffffffffffffffffffffffffffffffff1690602001909190803590602001909190803560001916906020019091908035906020019091905050611b42565b005b341561026357600080fd5b61028f600480803573ffffffffffffffffffffffffffffffffffffffff169060200190919050506128a6565b6040518082815260200191505060405180910390f35b34156102b057600080fd5b610304600480803573ffffffffffffffffffffffffffffffffffffffff16906020019091908035906020019091908035906020019091908035600019169060200190919080359060200190919050506128be565b005b341561031157600080fd5b610346600480803573ffffffffffffffffffffffffffffffffffffffff16906020019091908035906020019091905050613ec4565b005b341561035357600080fd5b61037f600480803573ffffffffffffffffffffffffffffffffffffffff1690602001909190505061467f565b005b341561038c57600080fd5b6103a260048080359060200190919050506155f0565b005b34156103af57600080fd5b6103e4600480803573ffffffffffffffffffffffffffffffffffffffff16906020019091908035906020019091905050615a0e565b005b34156103f157600080fd5b610453600480803590602001909190803590602001909190803590602001908201803590602001908080601f01602080910402602001604051908101604052809392919081815260200183838082843782019150505050505091905050615efd565b005b341561046057600080fd5b61048c600480803573ffffffffffffffffffffffffffffffffffffffff16906020019091905050617235565b005b341561049957600080fd5b6104a1617c7f565b6040518082815260200191505060405180910390f35b34156104c257600080fd5b6104f7600480803573ffffffffffffffffffffffffffffffffffffffff16906020019091908035906020019091905050617ecd565b005b341561050457600080fd5b61051a6004808035906020019091905050618f9a565b005b341561052757600080fd5b610553600480803573ffffffffffffffffffffffffffffffffffffffff169060200190919050506196af565b6040518082815260200191505060405180910390f35b341561057457600080fd5b61057c6196c7565b6040518082815260200191505060405180910390f35b341561059d57600080fd5b6105d5600480803573ffffffffffffffffffffffffffffffffffffffff1690602001909190803560ff169060200190919050506196cd565b005b34156105e257600080fd5b610629600480803573ffffffffffffffffffffffffffffffffffffffff16906020019091908035906020019091908035906020019091908035906020019091905050619be5565b005b341561063657600080fd5b610662600480803573ffffffffffffffffffffffffffffffffffffffff1690602001909190505061a232565b604051808215151515815260200191505060405180910390f35b600a5481565b60065481565b7f43f4c8199ed005777e208ee60df415103b7c188bf1d5d54d26d3ee09f2011f6d600260405180806020018381526020018281038252605d8152602001807f2f55736572732f73686f6b6973686f6b692f646576656c6f706d656e742f636f81526020017f6e73656e7379732f646973747269627574652f636f6e7472616374732f636f6e81526020017f7472616374732f52657075746174696f6e52656769737472792e736f6c0000008152506060019250505060405180910390a17ff2c98d86a1524dbd5d2f33701ed1a21292b9cedfdc2e1f7e4748dc32cad39f01604d60405180806020018381526020018281038252605d8152602001807f2f55736572732f73686f6b6973686f6b692f646576656c6f706d656e742f636f81526020017f6e73656e7379732f646973747269627574652f636f6e7472616374732f636f6e81526020017f7472616374732f52657075746174696f6e52656769737472792e736f6c0000008152506060019250505060405180910390a17fe6775d367bbeddcabb546a7e19bac27b198dffe4c9a8b448cd2296da3ab4950f600260405180806020018381526020018281038252605d8152602001807f2f55736572732f73686f6b6973686f6b692f646576656c6f706d656e742f636f81526020017f6e73656e7379732f646973747269627574652f636f6e7472616374732f636f6e81526020017f7472616374732f52657075746174696f6e52656769737472792e736f6c0000008152506060019250505060405180910390a17f27e2b032ff8b76bc35284176f2163560750ae326e54d6efd9486a4a2330e9907600260405180806020018381526020018281038252605d8152602001807f2f55736572732f73686f6b6973686f6b692f646576656c6f706d656e742f636f81526020017f6e73656e7379732f646973747269627574652f636f6e7472616374732f636f6e81526020017f7472616374732f52657075746174696f6e52656769737472792e736f6c0000008152506060019250505060405180910390a160008060009054906101000a900473ffffffffffffffffffffffffffffffffffffffff1673ffffffffffffffffffffffffffffffffffffffff161480156109fb57506000600160009054906101000a900473ffffffffffffffffffffffffffffffffffffffff1673ffffffffffffffffffffffffffffffffffffffff16145b8015610a3f57506000600260009054906101000a900473ffffffffffffffffffffffffffffffffffffffff1673ffffffffffffffffffffffffffffffffffffffff16145b1515610a4a57600080fd5b7f03bf8b2c94434e81262f69030d3c8a797d07a80631f768ea1d4b1255f24cae9e600260405180806020018381526020018281038252605d8152602001807f2f55736572732f73686f6b6973686f6b692f646576656c6f706d656e742f636f81526020017f6e73656e7379732f646973747269627574652f636f6e7472616374732f636f6e81526020017f7472616374732f52657075746174696f6e52656769737472792e736f6c0000008152506060019250505060405180910390a17ff2c98d86a1524dbd5d2f33701ed1a21292b9cedfdc2e1f7e4748dc32cad39f01605260405180806020018381526020018281038252605d8152602001807f2f55736572732f73686f6b6973686f6b692f646576656c6f706d656e742f636f81526020017f6e73656e7379732f646973747269627574652f636f6e7472616374732f636f6e81526020017f7472616374732f52657075746174696f6e52656769737472792e736f6c0000008152506060019250505060405180910390a17f27e2b032ff8b76bc35284176f2163560750ae326e54d6efd9486a4a2330e9907600360405180806020018381526020018281038252605d8152602001807f2f55736572732f73686f6b6973686f6b692f646576656c6f706d656e742f636f81526020017f6e73656e7379732f646973747269627574652f636f6e7472616374732f636f6e81526020017f7472616374732f52657075746174696f6e52656769737472792e736f6c0000008152506060019250505060405180910390a181600160006101000a81548173ffffffffffffffffffffffffffffffffffffffff021916908373ffffffffffffffffffffffffffffffffffffffff1602179055507ff2c98d86a1524dbd5d2f33701ed1a21292b9cedfdc2e1f7e4748dc32cad39f01605360405180806020018381526020018281038252605d8152602001807f2f55736572732f73686f6b6973686f6b692f646576656c6f706d656e742f636f81526020017f6e73656e7379732f646973747269627574652f636f6e7472616374732f636f6e81526020017f7472616374732f52657075746174696f6e52656769737472792e736f6c0000008152506060019250505060405180910390a17f27e2b032ff8b76bc35284176f2163560750ae326e54d6efd9486a4a2330e9907600460405180806020018381526020018281038252605d8152602001807f2f55736572732f73686f6b6973686f6b692f646576656c6f706d656e742f636f81526020017f6e73656e7379732f646973747269627574652f636f6e7472616374732f636f6e81526020017f7472616374732f52657075746174696f6e52656769737472792e736f6c0000008152506060019250505060405180910390a180600260006101000a81548173ffffffffffffffffffffffffffffffffffffffff021916908373ffffffffffffffffffffffffffffffffffffffff1602179055507ff2c98d86a1524dbd5d2f33701ed1a21292b9cedfdc2e1f7e4748dc32cad39f01605460405180806020018381526020018281038252605d8152602001807f2f55736572732f73686f6b6973686f6b692f646576656c6f706d656e742f636f81526020017f6e73656e7379732f646973747269627574652f636f6e7472616374732f636f6e81526020017f7472616374732f52657075746174696f6e52656769737472792e736f6c0000008152506060019250505060405180910390a17f27e2b032ff8b76bc35284176f2163560750ae326e54d6efd9486a4a2330e9907600560405180806020018381526020018281038252605d8152602001807f2f55736572732f73686f6b6973686f6b692f646576656c6f706d656e742f636f81526020017f6e73656e7379732f646973747269627574652f636f6e7472616374732f636f6e81526020017f7472616374732f52657075746174696f6e52656769737472792e736f6c0000008152506060019250505060405180910390a1826000806101000a81548173ffffffffffffffffffffffffffffffffffffffff021916908373ffffffffffffffffffffffffffffffffffffffff160217905550505050565b7f43f4c8199ed005777e208ee60df415103b7c188bf1d5d54d26d3ee09f2011f6d600460405180806020018381526020018281038252605d8152602001807f2f55736572732f73686f6b6973686f6b692f646576656c6f706d656e742f636f81526020017f6e73656e7379732f646973747269627574652f636f6e7472616374732f636f6e81526020017f7472616374732f52657075746174696f6e52656769737472792e736f6c0000008152506060019250505060405180910390a17ff2c98d86a1524dbd5d2f33701ed1a21292b9cedfdc2e1f7e4748dc32cad39f01606d60405180806020018381526020018281038252605d8152602001807f2f55736572732f73686f6b6973686f6b692f646576656c6f706d656e742f636f81526020017f6e73656e7379732f646973747269627574652f636f6e7472616374732f636f6e81526020017f7472616374732f52657075746174696f6e52656769737472792e736f6c0000008152506060019250505060405180910390a17fe6775d367bbeddcabb546a7e19bac27b198dffe4c9a8b448cd2296da3ab4950f600360405180806020018381526020018281038252605d8152602001807f2f55736572732f73686f6b6973686f6b692f646576656c6f706d656e742f636f81526020017f6e73656e7379732f646973747269627574652f636f6e7472616374732f636f6e81526020017f7472616374732f52657075746174696f6e52656769737472792e736f6c0000008152506060019250505060405180910390a17f27e2b032ff8b76bc35284176f2163560750ae326e54d6efd9486a4a2330e9907600760405180806020018381526020018281038252605d8152602001807f2f55736572732f73686f6b6973686f6b692f646576656c6f706d656e742f636f81526020017f6e73656e7379732f646973747269627574652f636f6e7472616374732f636f6e81526020017f7472616374732f52657075746174696f6e52656769737472792e736f6c0000008152506060019250505060405180910390a16000600360003373ffffffffffffffffffffffffffffffffffffffff1673ffffffffffffffffffffffffffffffffffffffff168152602001908152602001600020541480156113cf575060001515600460003373ffffffffffffffffffffffffffffffffffffffff1673ffffffffffffffffffffffffffffffffffffffff16815260200190815260200160002060009054906101000a900460ff161515145b15156113da57600080fd5b7f03bf8b2c94434e81262f69030d3c8a797d07a80631f768ea1d4b1255f24cae9e600360405180806020018381526020018281038252605d8152602001807f2f55736572732f73686f6b6973686f6b692f646576656c6f706d656e742f636f81526020017f6e73656e7379732f646973747269627574652f636f6e7472616374732f636f6e81526020017f7472616374732f52657075746174696f6e52656769737472792e736f6c0000008152506060019250505060405180910390a17ff2c98d86a1524dbd5d2f33701ed1a21292b9cedfdc2e1f7e4748dc32cad39f01606e60405180806020018381526020018281038252605d8152602001807f2f55736572732f73686f6b6973686f6b692f646576656c6f706d656e742f636f81526020017f6e73656e7379732f646973747269627574652f636f6e7472616374732f636f6e81526020017f7472616374732f52657075746174696f6e52656769737472792e736f6c0000008152506060019250505060405180910390a17f27e2b032ff8b76bc35284176f2163560750ae326e54d6efd9486a4a2330e9907600860405180806020018381526020018281038252605d8152602001807f2f55736572732f73686f6b6973686f6b692f646576656c6f706d656e742f636f81526020017f6e73656e7379732f646973747269627574652f636f6e7472616374732f636f6e81526020017f7472616374732f52657075746174696f6e52656769737472792e736f6c0000008152506060019250505060405180910390a16001600460003373ffffffffffffffffffffffffffffffffffffffff1673ffffffffffffffffffffffffffffffffffffffff16815260200190815260200160002060006101000a81548160ff0219169083151502179055507ff2c98d86a1524dbd5d2f33701ed1a21292b9cedfdc2e1f7e4748dc32cad39f01606f60405180806020018381526020018281038252605d8152602001807f2f55736572732f73686f6b6973686f6b692f646576656c6f706d656e742f636f81526020017f6e73656e7379732f646973747269627574652f636f6e7472616374732f636f6e81526020017f7472616374732f52657075746174696f6e52656769737472792e736f6c0000008152506060019250505060405180910390a17f27e2b032ff8b76bc35284176f2163560750ae326e54d6efd9486a4a2330e9907600960405180806020018381526020018281038252605d8152602001807f2f55736572732f73686f6b6973686f6b692f646576656c6f706d656e742f636f81526020017f6e73656e7379732f646973747269627574652f636f6e7472616374732f636f6e81526020017f7472616374732f52657075746174696f6e52656769737472792e736f6c0000008152506060019250505060405180910390a1600a54600360003373ffffffffffffffffffffffffffffffffffffffff1673ffffffffffffffffffffffffffffffffffffffff168152602001908152602001600020819055507ff2c98d86a1524dbd5d2f33701ed1a21292b9cedfdc2e1f7e4748dc32cad39f01607060405180806020018381526020018281038252605d8152602001807f2f55736572732f73686f6b6973686f6b692f646576656c6f706d656e742f636f81526020017f6e73656e7379732f646973747269627574652f636f6e7472616374732f636f6e81526020017f7472616374732f52657075746174696f6e52656769737472792e736f6c0000008152506060019250505060405180910390a17f27e2b032ff8b76bc35284176f2163560750ae326e54d6efd9486a4a2330e9907600a60405180806020018381526020018281038252605d8152602001807f2f55736572732f73686f6b6973686f6b692f646576656c6f706d656e742f636f81526020017f6e73656e7379732f646973747269627574652f636f6e7472616374732f636f6e81526020017f7472616374732f52657075746174696f6e52656769737472792e736f6c0000008152506060019250505060405180910390a1600a546006600082825401925050819055507ff2c98d86a1524dbd5d2f33701ed1a21292b9cedfdc2e1f7e4748dc32cad39f01607160405180806020018381526020018281038252605d8152602001807f2f55736572732f73686f6b6973686f6b692f646576656c6f706d656e742f636f81526020017f6e73656e7379732f646973747269627574652f636f6e7472616374732f636f6e81526020017f7472616374732f52657075746174696f6e52656769737472792e736f6c0000008152506060019250505060405180910390a17f27e2b032ff8b76bc35284176f2163560750ae326e54d6efd9486a4a2330e9907600b60405180806020018381526020018281038252605d8152602001807f2f55736572732f73686f6b6973686f6b692f646576656c6f706d656e742f636f81526020017f6e73656e7379732f646973747269627574652f636f6e7472616374732f636f6e81526020017f7472616374732f52657075746174696f6e52656769737472792e736f6c0000008152506060019250505060405180910390a16001600760008282540192505081905550565b60008060007f43f4c8199ed005777e208ee60df415103b7c188bf1d5d54d26d3ee09f2011f6d600960405180806020018381526020018281038252605d8152602001807f2f55736572732f73686f6b6973686f6b692f646576656c6f706d656e742f636f81526020017f6e73656e7379732f646973747269627574652f636f6e7472616374732f636f6e81526020017f7472616374732f52657075746174696f6e52656769737472792e736f6c0000008152506060019250505060405180910390a17ff2c98d86a1524dbd5d2f33701ed1a21292b9cedfdc2e1f7e4748dc32cad39f0160da60405180806020018381526020018281038252605d8152602001807f2f55736572732f73686f6b6973686f6b692f646576656c6f706d656e742f636f81526020017f6e73656e7379732f646973747269627574652f636f6e7472616374732f636f6e81526020017f7472616374732f52657075746174696f6e52656769737472792e736f6c0000008152506060019250505060405180910390a17f27e2b032ff8b76bc35284176f2163560750ae326e54d6efd9486a4a2330e9907602160405180806020018381526020018281038252605d8152602001807f2f55736572732f73686f6b6973686f6b692f646576656c6f706d656e742f636f81526020017f6e73656e7379732f646973747269627574652f636f6e7472616374732f636f6e81526020017f7472616374732f52657075746174696f6e52656769737472792e736f6c0000008152506060019250505060405180910390a18692507ff2c98d86a1524dbd5d2f33701ed1a21292b9cedfdc2e1f7e4748dc32cad39f0160db60405180806020018381526020018281038252605d8152602001807f2f55736572732f73686f6b6973686f6b692f646576656c6f706d656e742f636f81526020017f6e73656e7379732f646973747269627574652f636f6e7472616374732f636f6e81526020017f7472616374732f52657075746174696f6e52656769737472792e736f6c0000008152506060019250505060405180910390a17f27e2b032ff8b76bc35284176f2163560750ae326e54d6efd9486a4a2330e9907602260405180806020018381526020018281038252605d8152602001807f2f55736572732f73686f6b6973686f6b692f646576656c6f706d656e742f636f81526020017f6e73656e7379732f646973747269627574652f636f6e7472616374732f636f6e81526020017f7472616374732f52657075746174696f6e52656769737472792e736f6c0000008152506060019250505060405180910390a16064848473ffffffffffffffffffffffffffffffffffffffff166336df7df76000604051602001526040518163ffffffff167c0100000000000000000000000000000000000000000000000000000000028152600401602060405180830381600087803b1515611f6a57600080fd5b6102c65a03f11515611f7b57600080fd5b5050506040518051905002811515611f8f57fe5b0491507ff2c98d86a1524dbd5d2f33701ed1a21292b9cedfdc2e1f7e4748dc32cad39f0160dc60405180806020018381526020018281038252605d8152602001807f2f55736572732f73686f6b6973686f6b692f646576656c6f706d656e742f636f81526020017f6e73656e7379732f646973747269627574652f636f6e7472616374732f636f6e81526020017f7472616374732f52657075746174696f6e52656769737472792e736f6c0000008152506060019250505060405180910390a17fe6775d367bbeddcabb546a7e19bac27b198dffe4c9a8b448cd2296da3ab4950f600b60405180806020018381526020018281038252605d8152602001807f2f55736572732f73686f6b6973686f6b692f646576656c6f706d656e742f636f81526020017f6e73656e7379732f646973747269627574652f636f6e7472616374732f636f6e81526020017f7472616374732f52657075746174696f6e52656769737472792e736f6c0000008152506060019250505060405180910390a17f27e2b032ff8b76bc35284176f2163560750ae326e54d6efd9486a4a2330e9907602360405180806020018381526020018281038252605d8152602001807f2f55736572732f73686f6b6973686f6b692f646576656c6f706d656e742f636f81526020017f6e73656e7379732f646973747269627574652f636f6e7472616374732f636f6e81526020017f7472616374732f52657075746174696f6e52656769737472792e736f6c0000008152506060019250505060405180910390a181600360003373ffffffffffffffffffffffffffffffffffffffff1673ffffffffffffffffffffffffffffffffffffffff168152602001908152602001600020541015151561221757600080fd5b7f03bf8b2c94434e81262f69030d3c8a797d07a80631f768ea1d4b1255f24cae9e600b60405180806020018381526020018281038252605d8152602001807f2f55736572732f73686f6b6973686f6b692f646576656c6f706d656e742f636f81526020017f6e73656e7379732f646973747269627574652f636f6e7472616374732f636f6e81526020017f7472616374732f52657075746174696f6e52656769737472792e736f6c0000008152506060019250505060405180910390a17ff2c98d86a1524dbd5d2f33701ed1a21292b9cedfdc2e1f7e4748dc32cad39f0160dd60405180806020018381526020018281038252605d8152602001807f2f55736572732f73686f6b6973686f6b692f646576656c6f706d656e742f636f81526020017f6e73656e7379732f646973747269627574652f636f6e7472616374732f636f6e81526020017f7472616374732f52657075746174696f6e52656769737472792e736f6c0000008152506060019250505060405180910390a17f27e2b032ff8b76bc35284176f2163560750ae326e54d6efd9486a4a2330e9907602460405180806020018381526020018281038252605d8152602001807f2f55736572732f73686f6b6973686f6b692f646576656c6f706d656e742f636f81526020017f6e73656e7379732f646973747269627574652f636f6e7472616374732f636f6e81526020017f7472616374732f52657075746174696f6e52656769737472792e736f6c0000008152506060019250505060405180910390a16064848473ffffffffffffffffffffffffffffffffffffffff166312ff35bc6000604051602001526040518163ffffffff167c0100000000000000000000000000000000000000000000000000000000028152600401602060405180830381600087803b15156124bd57600080fd5b6102c65a03f115156124ce57600080fd5b50505060405180519050028115156124e257fe5b0490507ff2c98d86a1524dbd5d2f33701ed1a21292b9cedfdc2e1f7e4748dc32cad39f0160de60405180806020018381526020018281038252605d8152602001807f2f55736572732f73686f6b6973686f6b692f646576656c6f706d656e742f636f81526020017f6e73656e7379732f646973747269627574652f636f6e7472616374732f636f6e81526020017f7472616374732f52657075746174696f6e52656769737472792e736f6c0000008152506060019250505060405180910390a17f27e2b032ff8b76bc35284176f2163560750ae326e54d6efd9486a4a2330e9907602560405180806020018381526020018281038252605d8152602001807f2f55736572732f73686f6b6973686f6b692f646576656c6f706d656e742f636f81526020017f6e73656e7379732f646973747269627574652f636f6e7472616374732f636f6e81526020017f7472616374732f52657075746174696f6e52656769737472792e736f6c0000008152506060019250505060405180910390a181600360003373ffffffffffffffffffffffffffffffffffffffff1673ffffffffffffffffffffffffffffffffffffffff168152602001908152602001600020600082825403925050819055507ff2c98d86a1524dbd5d2f33701ed1a21292b9cedfdc2e1f7e4748dc32cad39f0160df60405180806020018381526020018281038252605d8152602001807f2f55736572732f73686f6b6973686f6b692f646576656c6f706d656e742f636f81526020017f6e73656e7379732f646973747269627574652f636f6e7472616374732f636f6e81526020017f7472616374732f52657075746174696f6e52656769737472792e736f6c0000008152506060019250505060405180910390a1600160009054906101000a900473ffffffffffffffffffffffffffffffffffffffff1673ffffffffffffffffffffffffffffffffffffffff16633330dcd8888888338987896040518863ffffffff167c0100000000000000000000000000000000000000000000000000000000028152600401808873ffffffffffffffffffffffffffffffffffffffff1673ffffffffffffffffffffffffffffffffffffffff16815260200187815260200186600019166000191681526020018573ffffffffffffffffffffffffffffffffffffffff1673ffffffffffffffffffffffffffffffffffffffff168152602001848152602001838152602001828152602001975050505050505050600060405180830381600087803b151561288957600080fd5b6102c65a03f1151561289a57600080fd5b50505050505050505050565b60036020528060005260406000206000915090505481565b60008060007f43f4c8199ed005777e208ee60df415103b7c188bf1d5d54d26d3ee09f2011f6d600b60405180806020018381526020018281038252605d8152602001807f2f55736572732f73686f6b6973686f6b692f646576656c6f706d656e742f636f81526020017f6e73656e7379732f646973747269627574652f636f6e7472616374732f636f6e81526020017f7472616374732f52657075746174696f6e52656769737472792e736f6c0000008152506060019250505060405180910390a17ff2c98d86a1524dbd5d2f33701ed1a21292b9cedfdc2e1f7e4748dc32cad39f0161010a60405180806020018381526020018281038252605d8152602001807f2f55736572732f73686f6b6973686f6b692f646576656c6f706d656e742f636f81526020017f6e73656e7379732f646973747269627574652f636f6e7472616374732f636f6e81526020017f7472616374732f52657075746174696f6e52656769737472792e736f6c0000008152506060019250505060405180910390a17fe6775d367bbeddcabb546a7e19bac27b198dffe4c9a8b448cd2296da3ab4950f600c60405180806020018381526020018281038252605d8152602001807f2f55736572732f73686f6b6973686f6b692f646576656c6f706d656e742f636f81526020017f6e73656e7379732f646973747269627574652f636f6e7472616374732f636f6e81526020017f7472616374732f52657075746174696f6e52656769737472792e736f6c0000008152506060019250505060405180910390a17f27e2b032ff8b76bc35284176f2163560750ae326e54d6efd9486a4a2330e9907602860405180806020018381526020018281038252605d8152602001807f2f55736572732f73686f6b6973686f6b692f646576656c6f706d656e742f636f81526020017f6e73656e7379732f646973747269627574652f636f6e7472616374732f636f6e81526020017f7472616374732f52657075746174696f6e52656769737472792e736f6c0000008152506060019250505060405180910390a1612710600360003373ffffffffffffffffffffffffffffffffffffffff1673ffffffffffffffffffffffffffffffffffffffff16815260200190815260200160002054111515612c0757600080fd5b7f03bf8b2c94434e81262f69030d3c8a797d07a80631f768ea1d4b1255f24cae9e600c60405180806020018381526020018281038252605d8152602001807f2f55736572732f73686f6b6973686f6b692f646576656c6f706d656e742f636f81526020017f6e73656e7379732f646973747269627574652f636f6e7472616374732f636f6e81526020017f7472616374732f52657075746174696f6e52656769737472792e736f6c0000008152506060019250505060405180910390a17ff2c98d86a1524dbd5d2f33701ed1a21292b9cedfdc2e1f7e4748dc32cad39f0161010b60405180806020018381526020018281038252605d8152602001807f2f55736572732f73686f6b6973686f6b692f646576656c6f706d656e742f636f81526020017f6e73656e7379732f646973747269627574652f636f6e7472616374732f636f6e81526020017f7472616374732f52657075746174696f6e52656769737472792e736f6c0000008152506060019250505060405180910390a17f27e2b032ff8b76bc35284176f2163560750ae326e54d6efd9486a4a2330e9907602960405180806020018381526020018281038252605d8152602001807f2f55736572732f73686f6b6973686f6b692f646576656c6f706d656e742f636f81526020017f6e73656e7379732f646973747269627574652f636f6e7472616374732f636f6e81526020017f7472616374732f52657075746174696f6e52656769737472792e736f6c0000008152506060019250505060405180910390a18792507ff2c98d86a1524dbd5d2f33701ed1a21292b9cedfdc2e1f7e4748dc32cad39f0161010c60405180806020018381526020018281038252605d8152602001807f2f55736572732f73686f6b6973686f6b692f646576656c6f706d656e742f636f81526020017f6e73656e7379732f646973747269627574652f636f6e7472616374732f636f6e81526020017f7472616374732f52657075746174696f6e52656769737472792e736f6c0000008152506060019250505060405180910390a17f27e2b032ff8b76bc35284176f2163560750ae326e54d6efd9486a4a2330e9907602a60405180806020018381526020018281038252605d8152602001807f2f55736572732f73686f6b6973686f6b692f646576656c6f706d656e742f636f81526020017f6e73656e7379732f646973747269627574652f636f6e7472616374732f636f6e81526020017f7472616374732f52657075746174696f6e52656769737472792e736f6c0000008152506060019250505060405180910390a18273ffffffffffffffffffffffffffffffffffffffff16638d977672886000604051602001526040518263ffffffff167c010000000000000000000000000000000000000000000000000000000002815260040180828152602001915050602060405180830381600087803b151561303457600080fd5b6102c65a03f1151561304557600080fd5b5050506040518051905073ffffffffffffffffffffffffffffffffffffffff16636f13ab006000604051602001526040518163ffffffff167c0100000000000000000000000000000000000000000000000000000000028152600401602060405180830381600087803b15156130ba57600080fd5b6102c65a03f115156130cb57600080fd5b5050506040518051905091507ff2c98d86a1524dbd5d2f33701ed1a21292b9cedfdc2e1f7e4748dc32cad39f0161010e60405180806020018381526020018281038252605d8152602001807f2f55736572732f73686f6b6973686f6b692f646576656c6f706d656e742f636f81526020017f6e73656e7379732f646973747269627574652f636f6e7472616374732f636f6e81526020017f7472616374732f52657075746174696f6e52656769737472792e736f6c0000008152506060019250505060405180910390a17f27e2b032ff8b76bc35284176f2163560750ae326e54d6efd9486a4a2330e9907602b60405180806020018381526020018281038252605d8152602001807f2f55736572732f73686f6b6973686f6b692f646576656c6f706d656e742f636f81526020017f6e73656e7379732f646973747269627574652f636f6e7472616374732f636f6e81526020017f7472616374732f52657075746174696f6e52656769737472792e736f6c0000008152506060019250505060405180910390a1600260009054906101000a900473ffffffffffffffffffffffffffffffffffffffff1673ffffffffffffffffffffffffffffffffffffffff16639f68ce543360026000604051602001526040518363ffffffff167c0100000000000000000000000000000000000000000000000000000000028152600401808373ffffffffffffffffffffffffffffffffffffffff1673ffffffffffffffffffffffffffffffffffffffff16815260200182815260200192505050602060405180830381600087803b151561332057600080fd5b6102c65a03f1151561333157600080fd5b5050506040518051905090507ff2c98d86a1524dbd5d2f33701ed1a21292b9cedfdc2e1f7e4748dc32cad39f0161011160405180806020018381526020018281038252605d8152602001807f2f55736572732f73686f6b6973686f6b692f646576656c6f706d656e742f636f81526020017f6e73656e7379732f646973747269627574652f636f6e7472616374732f636f6e81526020017f7472616374732f52657075746174696f6e52656769737472792e736f6c0000008152506060019250505060405180910390a17f27e2b032ff8b76bc35284176f2163560750ae326e54d6efd9486a4a2330e9907602c60405180806020018381526020018281038252605d8152602001807f2f55736572732f73686f6b6973686f6b692f646576656c6f706d656e742f636f81526020017f6e73656e7379732f646973747269627574652f636f6e7472616374732f636f6e81526020017f7472616374732f52657075746174696f6e52656769737472792e736f6c0000008152506060019250505060405180910390a185811015613c3d577fbf140d458f1c85238897f679cfcdc0b5c8e51d73847d7f7b15959883c24dd1ae600d600060405180806020018481526020018381526020018281038252605d8152602001807f2f55736572732f73686f6b6973686f6b692f646576656c6f706d656e742f636f81526020017f6e73656e7379732f646973747269627574652f636f6e7472616374732f636f6e81526020017f7472616374732f52657075746174696f6e52656769737472792e736f6c000000815250606001935050505060405180910390a17ff2c98d86a1524dbd5d2f33701ed1a21292b9cedfdc2e1f7e4748dc32cad39f0161011260405180806020018381526020018281038252605d8152602001807f2f55736572732f73686f6b6973686f6b692f646576656c6f706d656e742f636f81526020017f6e73656e7379732f646973747269627574652f636f6e7472616374732f636f6e81526020017f7472616374732f52657075746174696f6e52656769737472792e736f6c0000008152506060019250505060405180910390a17fe6775d367bbeddcabb546a7e19bac27b198dffe4c9a8b448cd2296da3ab4950f600e60405180806020018381526020018281038252605d8152602001807f2f55736572732f73686f6b6973686f6b692f646576656c6f706d656e742f636f81526020017f6e73656e7379732f646973747269627574652f636f6e7472616374732f636f6e81526020017f7472616374732f52657075746174696f6e52656769737472792e736f6c0000008152506060019250505060405180910390a17f27e2b032ff8b76bc35284176f2163560750ae326e54d6efd9486a4a2330e9907602d60405180806020018381526020018281038252605d8152602001807f2f55736572732f73686f6b6973686f6b692f646576656c6f706d656e742f636f81526020017f6e73656e7379732f646973747269627574652f636f6e7472616374732f636f6e81526020017f7472616374732f52657075746174696f6e52656769737472792e736f6c0000008152506060019250505060405180910390a1808603600360003373ffffffffffffffffffffffffffffffffffffffff1673ffffffffffffffffffffffffffffffffffffffff1681526020019081526020016000205410158015613810575060008214155b151561381b57600080fd5b7f03bf8b2c94434e81262f69030d3c8a797d07a80631f768ea1d4b1255f24cae9e600e60405180806020018381526020018281038252605d8152602001807f2f55736572732f73686f6b6973686f6b692f646576656c6f706d656e742f636f81526020017f6e73656e7379732f646973747269627574652f636f6e7472616374732f636f6e81526020017f7472616374732f52657075746174696f6e52656769737472792e736f6c0000008152506060019250505060405180910390a17ff2c98d86a1524dbd5d2f33701ed1a21292b9cedfdc2e1f7e4748dc32cad39f0161011360405180806020018381526020018281038252605d8152602001807f2f55736572732f73686f6b6973686f6b692f646576656c6f706d656e742f636f81526020017f6e73656e7379732f646973747269627574652f636f6e7472616374732f636f6e81526020017f7472616374732f52657075746174696f6e52656769737472792e736f6c0000008152506060019250505060405180910390a17f27e2b032ff8b76bc35284176f2163560750ae326e54d6efd9486a4a2330e9907602e60405180806020018381526020018281038252605d8152602001807f2f55736572732f73686f6b6973686f6b692f646576656c6f706d656e742f636f81526020017f6e73656e7379732f646973747269627574652f636f6e7472616374732f636f6e81526020017f7472616374732f52657075746174696f6e52656769737472792e736f6c0000008152506060019250505060405180910390a185600360003373ffffffffffffffffffffffffffffffffffffffff1673ffffffffffffffffffffffffffffffffffffffff168152602001908152602001600020600082825403925050819055507ff2c98d86a1524dbd5d2f33701ed1a21292b9cedfdc2e1f7e4748dc32cad39f0161011460405180806020018381526020018281038252605d8152602001807f2f55736572732f73686f6b6973686f6b692f646576656c6f706d656e742f636f81526020017f6e73656e7379732f646973747269627574652f636f6e7472616374732f636f6e81526020017f7472616374732f52657075746174696f6e52656769737472792e736f6c0000008152506060019250505060405180910390a1600260009054906101000a900473ffffffffffffffffffffffffffffffffffffffff1673ffffffffffffffffffffffffffffffffffffffff1663c5fa801b338389036040518363ffffffff167c0100000000000000000000000000000000000000000000000000000000028152600401808373ffffffffffffffffffffffffffffffffffffffff1673ffffffffffffffffffffffffffffffffffffffff16815260200182815260200192505050600060405180830381600087803b1515613c2457600080fd5b6102c65a03f11515613c3557600080fd5b505050613d04565b7fbf140d458f1c85238897f679cfcdc0b5c8e51d73847d7f7b15959883c24dd1ae600d600160405180806020018481526020018381526020018281038252605d8152602001807f2f55736572732f73686f6b6973686f6b692f646576656c6f706d656e742f636f81526020017f6e73656e7379732f646973747269627574652f636f6e7472616374732f636f6e81526020017f7472616374732f52657075746174696f6e52656769737472792e736f6c000000815250606001935050505060405180910390a15b7ff2c98d86a1524dbd5d2f33701ed1a21292b9cedfdc2e1f7e4748dc32cad39f0161011660405180806020018381526020018281038252605d8152602001807f2f55736572732f73686f6b6973686f6b692f646576656c6f706d656e742f636f81526020017f6e73656e7379732f646973747269627574652f636f6e7472616374732f636f6e81526020017f7472616374732f52657075746174696f6e52656769737472792e736f6c0000008152506060019250505060405180910390a1600260009054906101000a900473ffffffffffffffffffffffffffffffffffffffff1673ffffffffffffffffffffffffffffffffffffffff16635e28fd5e3384888a896040518663ffffffff167c0100000000000000000000000000000000000000000000000000000000028152600401808673ffffffffffffffffffffffffffffffffffffffff1673ffffffffffffffffffffffffffffffffffffffff168152602001858152602001846000191660001916815260200183815260200182815260200195505050505050600060405180830381600087803b1515613ea657600080fd5b6102c65a03f11515613eb757600080fd5b5050505050505050505050565b7f43f4c8199ed005777e208ee60df415103b7c188bf1d5d54d26d3ee09f2011f6d600860405180806020018381526020018281038252605d8152602001807f2f55736572732f73686f6b6973686f6b692f646576656c6f706d656e742f636f81526020017f6e73656e7379732f646973747269627574652f636f6e7472616374732f636f6e81526020017f7472616374732f52657075746174696f6e52656769737472792e736f6c0000008152506060019250505060405180910390a17ff2c98d86a1524dbd5d2f33701ed1a21292b9cedfdc2e1f7e4748dc32cad39f0160c260405180806020018381526020018281038252605d8152602001807f2f55736572732f73686f6b6973686f6b692f646576656c6f706d656e742f636f81526020017f6e73656e7379732f646973747269627574652f636f6e7472616374732f636f6e81526020017f7472616374732f52657075746174696f6e52656769737472792e736f6c0000008152506060019250505060405180910390a17fe6775d367bbeddcabb546a7e19bac27b198dffe4c9a8b448cd2296da3ab4950f600a60405180806020018381526020018281038252605d8152602001807f2f55736572732f73686f6b6973686f6b692f646576656c6f706d656e742f636f81526020017f6e73656e7379732f646973747269627574652f636f6e7472616374732f636f6e81526020017f7472616374732f52657075746174696f6e52656769737472792e736f6c0000008152506060019250505060405180910390a17f27e2b032ff8b76bc35284176f2163560750ae326e54d6efd9486a4a2330e9907601e60405180806020018381526020018281038252605d8152602001807f2f55736572732f73686f6b6973686f6b692f646576656c6f706d656e742f636f81526020017f6e73656e7379732f646973747269627574652f636f6e7472616374732f636f6e81526020017f7472616374732f52657075746174696f6e52656769737472792e736f6c0000008152506060019250505060405180910390a16000811115156141c757600080fd5b7f03bf8b2c94434e81262f69030d3c8a797d07a80631f768ea1d4b1255f24cae9e600a60405180806020018381526020018281038252605d8152602001807f2f55736572732f73686f6b6973686f6b692f646576656c6f706d656e742f636f81526020017f6e73656e7379732f646973747269627574652f636f6e7472616374732f636f6e81526020017f7472616374732f52657075746174696f6e52656769737472792e736f6c0000008152506060019250505060405180910390a17ff2c98d86a1524dbd5d2f33701ed1a21292b9cedfdc2e1f7e4748dc32cad39f0160c360405180806020018381526020018281038252605d8152602001807f2f55736572732f73686f6b6973686f6b692f646576656c6f706d656e742f636f81526020017f6e73656e7379732f646973747269627574652f636f6e7472616374732f636f6e81526020017f7472616374732f52657075746174696f6e52656769737472792e736f6c0000008152506060019250505060405180910390a17f27e2b032ff8b76bc35284176f2163560750ae326e54d6efd9486a4a2330e9907601f60405180806020018381526020018281038252605d8152602001807f2f55736572732f73686f6b6973686f6b692f646576656c6f706d656e742f636f81526020017f6e73656e7379732f646973747269627574652f636f6e7472616374732f636f6e81526020017f7472616374732f52657075746174696f6e52656769737472792e736f6c0000008152506060019250505060405180910390a180600360003373ffffffffffffffffffffffffffffffffffffffff1673ffffffffffffffffffffffffffffffffffffffff168152602001908152602001600020600082825401925050819055507ff2c98d86a1524dbd5d2f33701ed1a21292b9cedfdc2e1f7e4748dc32cad39f0160c460405180806020018381526020018281038252605d8152602001807f2f55736572732f73686f6b6973686f6b692f646576656c6f706d656e742f636f81526020017f6e73656e7379732f646973747269627574652f636f6e7472616374732f636f6e81526020017f7472616374732f52657075746174696f6e52656769737472792e736f6c0000008152506060019250505060405180910390a17f27e2b032ff8b76bc35284176f2163560750ae326e54d6efd9486a4a2330e9907602060405180806020018381526020018281038252605d8152602001807f2f55736572732f73686f6b6973686f6b692f646576656c6f706d656e742f636f81526020017f6e73656e7379732f646973747269627574652f636f6e7472616374732f636f6e81526020017f7472616374732f52657075746174696f6e52656769737472792e736f6c0000008152506060019250505060405180910390a18173ffffffffffffffffffffffffffffffffffffffff16633c79fe7433836040518363ffffffff167c0100000000000000000000000000000000000000000000000000000000028152600401808373ffffffffffffffffffffffffffffffffffffffff1673ffffffffffffffffffffffffffffffffffffffff16815260200182815260200192505050600060405180830381600087803b151561466757600080fd5b6102c65a03f1151561467857600080fd5b5050505050565b600061468961a252565b7f43f4c8199ed005777e208ee60df415103b7c188bf1d5d54d26d3ee09f2011f6d600660405180806020018381526020018281038252605d8152602001807f2f55736572732f73686f6b6973686f6b692f646576656c6f706d656e742f636f81526020017f6e73656e7379732f646973747269627574652f636f6e7472616374732f636f6e81526020017f7472616374732f52657075746174696f6e52656769737472792e736f6c0000008152506060019250505060405180910390a17ff2c98d86a1524dbd5d2f33701ed1a21292b9cedfdc2e1f7e4748dc32cad39f01609f60405180806020018381526020018281038252605d8152602001807f2f55736572732f73686f6b6973686f6b692f646576656c6f706d656e742f636f81526020017f6e73656e7379732f646973747269627574652f636f6e7472616374732f636f6e81526020017f7472616374732f52657075746174696f6e52656769737472792e736f6c0000008152506060019250505060405180910390a17f27e2b032ff8b76bc35284176f2163560750ae326e54d6efd9486a4a2330e9907601360405180806020018381526020018281038252605d8152602001807f2f55736572732f73686f6b6973686f6b692f646576656c6f706d656e742f636f81526020017f6e73656e7379732f646973747269627574652f636f6e7472616374732f636f6e81526020017f7472616374732f52657075746174696f6e52656769737472792e736f6c0000008152506060019250505060405180910390a18291507ff2c98d86a1524dbd5d2f33701ed1a21292b9cedfdc2e1f7e4748dc32cad39f0160a060405180806020018381526020018281038252605d8152602001807f2f55736572732f73686f6b6973686f6b692f646576656c6f706d656e742f636f81526020017f6e73656e7379732f646973747269627574652f636f6e7472616374732f636f6e81526020017f7472616374732f52657075746174696f6e52656769737472792e736f6c0000008152506060019250505060405180910390a17fe6775d367bbeddcabb546a7e19bac27b198dffe4c9a8b448cd2296da3ab4950f600660405180806020018381526020018281038252605d8152602001807f2f55736572732f73686f6b6973686f6b692f646576656c6f706d656e742f636f81526020017f6e73656e7379732f646973747269627574652f636f6e7472616374732f636f6e81526020017f7472616374732f52657075746174696f6e52656769737472792e736f6c0000008152506060019250505060405180910390a17f27e2b032ff8b76bc35284176f2163560750ae326e54d6efd9486a4a2330e9907601460405180806020018381526020018281038252605d8152602001807f2f55736572732f73686f6b6973686f6b692f646576656c6f706d656e742f636f81526020017f6e73656e7379732f646973747269627574652f636f6e7472616374732f636f6e81526020017f7472616374732f52657075746174696f6e52656769737472792e736f6c0000008152506060019250505060405180910390a13373ffffffffffffffffffffffffffffffffffffffff168273ffffffffffffffffffffffffffffffffffffffff1663a8e4fb906000604051602001526040518163ffffffff167c0100000000000000000000000000000000000000000000000000000000028152600401602060405180830381600087803b1515614b7d57600080fd5b6102c65a03f11515614b8e57600080fd5b5050506040518051905073ffffffffffffffffffffffffffffffffffffffff16141515614bba57600080fd5b7f03bf8b2c94434e81262f69030d3c8a797d07a80631f768ea1d4b1255f24cae9e600660405180806020018381526020018281038252605d8152602001807f2f55736572732f73686f6b6973686f6b692f646576656c6f706d656e742f636f81526020017f6e73656e7379732f646973747269627574652f636f6e7472616374732f636f6e81526020017f7472616374732f52657075746174696f6e52656769737472792e736f6c0000008152506060019250505060405180910390a17ff2c98d86a1524dbd5d2f33701ed1a21292b9cedfdc2e1f7e4748dc32cad39f0160a160405180806020018381526020018281038252605d8152602001807f2f55736572732f73686f6b6973686f6b692f646576656c6f706d656e742f636f81526020017f6e73656e7379732f646973747269627574652f636f6e7472616374732f636f6e81526020017f7472616374732f52657075746174696f6e52656769737472792e736f6c0000008152506060019250505060405180910390a17fe6775d367bbeddcabb546a7e19bac27b198dffe4c9a8b448cd2296da3ab4950f600760405180806020018381526020018281038252605d8152602001807f2f55736572732f73686f6b6973686f6b692f646576656c6f706d656e742f636f81526020017f6e73656e7379732f646973747269627574652f636f6e7472616374732f636f6e81526020017f7472616374732f52657075746174696f6e52656769737472792e736f6c0000008152506060019250505060405180910390a17f27e2b032ff8b76bc35284176f2163560750ae326e54d6efd9486a4a2330e9907601560405180806020018381526020018281038252605d8152602001807f2f55736572732f73686f6b6973686f6b692f646576656c6f706d656e742f636f81526020017f6e73656e7379732f646973747269627574652f636f6e7472616374732f636f6e81526020017f7472616374732f52657075746174696f6e52656769737472792e736f6c0000008152506060019250505060405180910390a160028273ffffffffffffffffffffffffffffffffffffffff166316ddf0216000604051602001526040518163ffffffff167c0100000000000000000000000000000000000000000000000000000000028152600401602060405180830381600087803b1515614f1c57600080fd5b6102c65a03f11515614f2d57600080fd5b50505060405180519050141515614f4357600080fd5b7f03bf8b2c94434e81262f69030d3c8a797d07a80631f768ea1d4b1255f24cae9e600760405180806020018381526020018281038252605d8152602001807f2f55736572732f73686f6b6973686f6b692f646576656c6f706d656e742f636f81526020017f6e73656e7379732f646973747269627574652f636f6e7472616374732f636f6e81526020017f7472616374732f52657075746174696f6e52656769737472792e736f6c0000008152506060019250505060405180910390a17ff2c98d86a1524dbd5d2f33701ed1a21292b9cedfdc2e1f7e4748dc32cad39f0160a260405180806020018381526020018281038252605d8152602001807f2f55736572732f73686f6b6973686f6b692f646576656c6f706d656e742f636f81526020017f6e73656e7379732f646973747269627574652f636f6e7472616374732f636f6e81526020017f7472616374732f52657075746174696f6e52656769737472792e736f6c0000008152506060019250505060405180910390a17f27e2b032ff8b76bc35284176f2163560750ae326e54d6efd9486a4a2330e9907601660405180806020018381526020018281038252605d8152602001807f2f55736572732f73686f6b6973686f6b692f646576656c6f706d656e742f636f81526020017f6e73656e7379732f646973747269627574652f636f6e7472616374732f636f6e81526020017f7472616374732f52657075746174696f6e52656769737472792e736f6c0000008152506060019250505060405180910390a1600160009054906101000a900473ffffffffffffffffffffffffffffffffffffffff1673ffffffffffffffffffffffffffffffffffffffff16634012c2a2846000604051604001526040518263ffffffff167c0100000000000000000000000000000000000000000000000000000000028152600401808273ffffffffffffffffffffffffffffffffffffffff1673ffffffffffffffffffffffffffffffffffffffff1681526020019150506040805180830381600087803b151561523e57600080fd5b6102c65a03f1151561524f57600080fd5b5050506040518060400160405290507ff2c98d86a1524dbd5d2f33701ed1a21292b9cedfdc2e1f7e4748dc32cad39f0160a360405180806020018381526020018281038252605d8152602001807f2f55736572732f73686f6b6973686f6b692f646576656c6f706d656e742f636f81526020017f6e73656e7379732f646973747269627574652f636f6e7472616374732f636f6e81526020017f7472616374732f52657075746174696f6e52656769737472792e736f6c0000008152506060019250505060405180910390a17f27e2b032ff8b76bc35284176f2163560750ae326e54d6efd9486a4a2330e9907601760405180806020018381526020018281038252605d8152602001807f2f55736572732f73686f6b6973686f6b692f646576656c6f706d656e742f636f81526020017f6e73656e7379732f646973747269627574652f636f6e7472616374732f636f6e81526020017f7472616374732f52657075746174696f6e52656769737472792e736f6c0000008152506060019250505060405180910390a18060016002811015156153e757fe5b6020020151600360003373ffffffffffffffffffffffffffffffffffffffff1673ffffffffffffffffffffffffffffffffffffffff168152602001908152602001600020600082825401925050819055507ff2c98d86a1524dbd5d2f33701ed1a21292b9cedfdc2e1f7e4748dc32cad39f0160a460405180806020018381526020018281038252605d8152602001807f2f55736572732f73686f6b6973686f6b692f646576656c6f706d656e742f636f81526020017f6e73656e7379732f646973747269627574652f636f6e7472616374732f636f6e81526020017f7472616374732f52657075746174696f6e52656769737472792e736f6c0000008152506060019250505060405180910390a16000809054906101000a900473ffffffffffffffffffffffffffffffffffffffff1673ffffffffffffffffffffffffffffffffffffffff166353c333cd33606484600060028110151561554457fe5b602002015181151561555257fe5b046040518363ffffffff167c0100000000000000000000000000000000000000000000000000000000028152600401808373ffffffffffffffffffffffffffffffffffffffff1673ffffffffffffffffffffffffffffffffffffffff16815260200182815260200192505050600060405180830381600087803b15156155d757600080fd5b6102c65a03f115156155e857600080fd5b505050505050565b7f43f4c8199ed005777e208ee60df415103b7c188bf1d5d54d26d3ee09f2011f6d600d60405180806020018381526020018281038252605d8152602001807f2f55736572732f73686f6b6973686f6b692f646576656c6f706d656e742f636f81526020017f6e73656e7379732f646973747269627574652f636f6e7472616374732f636f6e81526020017f7472616374732f52657075746174696f6e52656769737472792e736f6c0000008152506060019250505060405180910390a17ff2c98d86a1524dbd5d2f33701ed1a21292b9cedfdc2e1f7e4748dc32cad39f0161013060405180806020018381526020018281038252605d8152602001807f2f55736572732f73686f6b6973686f6b692f646576656c6f706d656e742f636f81526020017f6e73656e7379732f646973747269627574652f636f6e7472616374732f636f6e81526020017f7472616374732f52657075746174696f6e52656769737472792e736f6c0000008152506060019250505060405180910390a1600260009054906101000a900473ffffffffffffffffffffffffffffffffffffffff1673ffffffffffffffffffffffffffffffffffffffff1663ef348e4033836040518363ffffffff167c0100000000000000000000000000000000000000000000000000000000028152600401808373ffffffffffffffffffffffffffffffffffffffff1673ffffffffffffffffffffffffffffffffffffffff16815260200182815260200192505050600060405180830381600087803b151561582f57600080fd5b6102c65a03f1151561584057600080fd5b5050507ff2c98d86a1524dbd5d2f33701ed1a21292b9cedfdc2e1f7e4748dc32cad39f0161013160405180806020018381526020018281038252605d8152602001807f2f55736572732f73686f6b6973686f6b692f646576656c6f706d656e742f636f81526020017f6e73656e7379732f646973747269627574652f636f6e7472616374732f636f6e81526020017f7472616374732f52657075746174696f6e52656769737472792e736f6c0000008152506060019250505060405180910390a17f27e2b032ff8b76bc35284176f2163560750ae326e54d6efd9486a4a2330e9907603160405180806020018381526020018281038252605d8152602001807f2f55736572732f73686f6b6973686f6b692f646576656c6f706d656e742f636f81526020017f6e73656e7379732f646973747269627574652f636f6e7472616374732f636f6e81526020017f7472616374732f52657075746174696f6e52656769737472792e736f6c0000008152506060019250505060405180910390a180600360003373ffffffffffffffffffffffffffffffffffffffff1673ffffffffffffffffffffffffffffffffffffffff1681526020019081526020016000206000828254019250508190555050565b60007f43f4c8199ed005777e208ee60df415103b7c188bf1d5d54d26d3ee09f2011f6d600f60405180806020018381526020018281038252605d8152602001807f2f55736572732f73686f6b6973686f6b692f646576656c6f706d656e742f636f81526020017f6e73656e7379732f646973747269627574652f636f6e7472616374732f636f6e81526020017f7472616374732f52657075746174696f6e52656769737472792e736f6c0000008152506060019250505060405180910390a17ff2c98d86a1524dbd5d2f33701ed1a21292b9cedfdc2e1f7e4748dc32cad39f0161014b60405180806020018381526020018281038252605d8152602001807f2f55736572732f73686f6b6973686f6b692f646576656c6f706d656e742f636f81526020017f6e73656e7379732f646973747269627574652f636f6e7472616374732f636f6e81526020017f7472616374732f52657075746174696f6e52656769737472792e736f6c0000008152506060019250505060405180910390a17f27e2b032ff8b76bc35284176f2163560750ae326e54d6efd9486a4a2330e9907603660405180806020018381526020018281038252605d8152602001807f2f55736572732f73686f6b6973686f6b692f646576656c6f706d656e742f636f81526020017f6e73656e7379732f646973747269627574652f636f6e7472616374732f636f6e81526020017f7472616374732f52657075746174696f6e52656769737472792e736f6c0000008152506060019250505060405180910390a18273ffffffffffffffffffffffffffffffffffffffff16638d977672836000604051602001526040518263ffffffff167c010000000000000000000000000000000000000000000000000000000002815260040180828152602001915050602060405180830381600087803b1515615cbf57600080fd5b6102c65a03f11515615cd057600080fd5b5050506040518051905073ffffffffffffffffffffffffffffffffffffffff16636f13ab006000604051602001526040518163ffffffff167c0100000000000000000000000000000000000000000000000000000000028152600401602060405180830381600087803b1515615d4557600080fd5b6102c65a03f11515615d5657600080fd5b5050506040518051905090507ff2c98d86a1524dbd5d2f33701ed1a21292b9cedfdc2e1f7e4748dc32cad39f0161014c60405180806020018381526020018281038252605d8152602001807f2f55736572732f73686f6b6973686f6b692f646576656c6f706d656e742f636f81526020017f6e73656e7379732f646973747269627574652f636f6e7472616374732f636f6e81526020017f7472616374732f52657075746174696f6e52656769737472792e736f6c0000008152506060019250505060405180910390a1600260009054906101000a900473ffffffffffffffffffffffffffffffffffffffff1673ffffffffffffffffffffffffffffffffffffffff16635737619833836040518363ffffffff167c0100000000000000000000000000000000000000000000000000000000028152600401808373ffffffffffffffffffffffffffffffffffffffff1673ffffffffffffffffffffffffffffffffffffffff16815260200182815260200192505050600060405180830381600087803b1515615ee457600080fd5b6102c65a03f11515615ef557600080fd5b505050505050565b60008060007f43f4c8199ed005777e208ee60df415103b7c188bf1d5d54d26d3ee09f2011f6d600560405180806020018381526020018281038252605d8152602001807f2f55736572732f73686f6b6973686f6b692f646576656c6f706d656e742f636f81526020017f6e73656e7379732f646973747269627574652f636f6e7472616374732f636f6e81526020017f7472616374732f52657075746174696f6e52656769737472792e736f6c0000008152506060019250505060405180910390a17ff2c98d86a1524dbd5d2f33701ed1a21292b9cedfdc2e1f7e4748dc32cad39f01608360405180806020018381526020018281038252605d8152602001807f2f55736572732f73686f6b6973686f6b692f646576656c6f706d656e742f636f81526020017f6e73656e7379732f646973747269627574652f636f6e7472616374732f636f6e81526020017f7472616374732f52657075746174696f6e52656769737472792e736f6c0000008152506060019250505060405180910390a17fe6775d367bbeddcabb546a7e19bac27b198dffe4c9a8b448cd2296da3ab4950f600460405180806020018381526020018281038252605d8152602001807f2f55736572732f73686f6b6973686f6b692f646576656c6f706d656e742f636f81526020017f6e73656e7379732f646973747269627574652f636f6e7472616374732f636f6e81526020017f7472616374732f52657075746174696f6e52656769737472792e736f6c0000008152506060019250505060405180910390a17f27e2b032ff8b76bc35284176f2163560750ae326e54d6efd9486a4a2330e9907600c60405180806020018381526020018281038252605d8152602001807f2f55736572732f73686f6b6973686f6b692f646576656c6f706d656e742f636f81526020017f6e73656e7379732f646973747269627574652f636f6e7472616374732f636f6e81526020017f7472616374732f52657075746174696f6e52656769737472792e736f6c0000008152506060019250505060405180910390a184421080156162055750600086115b151561621057600080fd5b7f03bf8b2c94434e81262f69030d3c8a797d07a80631f768ea1d4b1255f24cae9e600460405180806020018381526020018281038252605d8152602001807f2f55736572732f73686f6b6973686f6b692f646576656c6f706d656e742f636f81526020017f6e73656e7379732f646973747269627574652f636f6e7472616374732f636f6e81526020017f7472616374732f52657075746174696f6e52656769737472792e736f6c0000008152506060019250505060405180910390a17ff2c98d86a1524dbd5d2f33701ed1a21292b9cedfdc2e1f7e4748dc32cad39f01608560405180806020018381526020018281038252605d8152602001807f2f55736572732f73686f6b6973686f6b692f646576656c6f706d656e742f636f81526020017f6e73656e7379732f646973747269627574652f636f6e7472616374732f636f6e81526020017f7472616374732f52657075746174696f6e52656769737472792e736f6c0000008152506060019250505060405180910390a17f27e2b032ff8b76bc35284176f2163560750ae326e54d6efd9486a4a2330e9907600d60405180806020018381526020018281038252605d8152602001807f2f55736572732f73686f6b6973686f6b692f646576656c6f706d656e742f636f81526020017f6e73656e7379732f646973747269627574652f636f6e7472616374732f636f6e81526020017f7472616374732f52657075746174696f6e52656769737472792e736f6c0000008152506060019250505060405180910390a173__Division______________________________622c1a9e876000809054906101000a900473ffffffffffffffffffffffffffffffffffffffff1673ffffffffffffffffffffffffffffffffffffffff1663065d5d0a6000604051602001526040518163ffffffff167c0100000000000000000000000000000000000000000000000000000000028152600401602060405180830381600087803b15156164ee57600080fd5b6102c65a03f115156164ff57600080fd5b50505060405180519050600a6000604051602001526040518463ffffffff167c010000000000000000000000000000000000000000000000000000000002815260040180848152602001838152602001828152602001935050505060206040518083038186803b151561657157600080fd5b6102c65a03f4151561658257600080fd5b5050506040518051905092507ff2c98d86a1524dbd5d2f33701ed1a21292b9cedfdc2e1f7e4748dc32cad39f01608660405180806020018381526020018281038252605d8152602001807f2f55736572732f73686f6b6973686f6b692f646576656c6f706d656e742f636f81526020017f6e73656e7379732f646973747269627574652f636f6e7472616374732f636f6e81526020017f7472616374732f52657075746174696f6e52656769737472792e736f6c0000008152506060019250505060405180910390a17f27e2b032ff8b76bc35284176f2163560750ae326e54d6efd9486a4a2330e9907600e60405180806020018381526020018281038252605d8152602001807f2f55736572732f73686f6b6973686f6b692f646576656c6f706d656e742f636f81526020017f6e73656e7379732f646973747269627574652f636f6e7472616374732f636f6e81526020017f7472616374732f52657075746174696f6e52656769737472792e736f6c0000008152506060019250505060405180910390a16402540be4006000809054906101000a900473ffffffffffffffffffffffffffffffffffffffff1673ffffffffffffffffffffffffffffffffffffffff166318160ddd6000604051602001526040518163ffffffff167c0100000000000000000000000000000000000000000000000000000000028152600401602060405180830381600087803b151561679b57600080fd5b6102c65a03f115156167ac57600080fd5b5050506040518051905073__Division______________________________622c1a9e86600854600a6000604051602001526040518463ffffffff167c010000000000000000000000000000000000000000000000000000000002815260040180848152602001838152602001828152602001935050505060206040518083038186803b151561683b57600080fd5b6102c65a03f4151561684c57600080fd5b505050604051805190500281151561686057fe5b0491507ff2c98d86a1524dbd5d2f33701ed1a21292b9cedfdc2e1f7e4748dc32cad39f01608a60405180806020018381526020018281038252605d8152602001807f2f55736572732f73686f6b6973686f6b692f646576656c6f706d656e742f636f81526020017f6e73656e7379732f646973747269627574652f636f6e7472616374732f636f6e81526020017f7472616374732f52657075746174696f6e52656769737472792e736f6c0000008152506060019250505060405180910390a17fe6775d367bbeddcabb546a7e19bac27b198dffe4c9a8b448cd2296da3ab4950f600560405180806020018381526020018281038252605d8152602001807f2f55736572732f73686f6b6973686f6b692f646576656c6f706d656e742f636f81526020017f6e73656e7379732f646973747269627574652f636f6e7472616374732f636f6e81526020017f7472616374732f52657075746174696f6e52656769737472792e736f6c0000008152506060019250505060405180910390a17f27e2b032ff8b76bc35284176f2163560750ae326e54d6efd9486a4a2330e9907600f60405180806020018381526020018281038252605d8152602001807f2f55736572732f73686f6b6973686f6b692f646576656c6f706d656e742f636f81526020017f6e73656e7379732f646973747269627574652f636f6e7472616374732f636f6e81526020017f7472616374732f52657075746174696f6e52656769737472792e736f6c0000008152506060019250505060405180910390a181600360003373ffffffffffffffffffffffffffffffffffffffff1673ffffffffffffffffffffffffffffffffffffffff1681526020019081526020016000205410151515616ae857600080fd5b7f03bf8b2c94434e81262f69030d3c8a797d07a80631f768ea1d4b1255f24cae9e600560405180806020018381526020018281038252605d8152602001807f2f55736572732f73686f6b6973686f6b692f646576656c6f706d656e742f636f81526020017f6e73656e7379732f646973747269627574652f636f6e7472616374732f636f6e81526020017f7472616374732f52657075746174696f6e52656769737472792e736f6c0000008152506060019250505060405180910390a17ff2c98d86a1524dbd5d2f33701ed1a21292b9cedfdc2e1f7e4748dc32cad39f01608c60405180806020018381526020018281038252605d8152602001807f2f55736572732f73686f6b6973686f6b692f646576656c6f706d656e742f636f81526020017f6e73656e7379732f646973747269627574652f636f6e7472616374732f636f6e81526020017f7472616374732f52657075746174696f6e52656769737472792e736f6c0000008152506060019250505060405180910390a17f27e2b032ff8b76bc35284176f2163560750ae326e54d6efd9486a4a2330e9907601060405180806020018381526020018281038252605d8152602001807f2f55736572732f73686f6b6973686f6b692f646576656c6f706d656e742f636f81526020017f6e73656e7379732f646973747269627574652f636f6e7472616374732f636f6e81526020017f7472616374732f52657075746174696f6e52656769737472792e736f6c0000008152506060019250505060405180910390a181600360003373ffffffffffffffffffffffffffffffffffffffff1673ffffffffffffffffffffffffffffffffffffffff168152602001908152602001600020600082825403925050819055507ff2c98d86a1524dbd5d2f33701ed1a21292b9cedfdc2e1f7e4748dc32cad39f01608d60405180806020018381526020018281038252605d8152602001807f2f55736572732f73686f6b6973686f6b692f646576656c6f706d656e742f636f81526020017f6e73656e7379732f646973747269627574652f636f6e7472616374732f636f6e81526020017f7472616374732f52657075746174696f6e52656769737472792e736f6c0000008152506060019250505060405180910390a17f27e2b032ff8b76bc35284176f2163560750ae326e54d6efd9486a4a2330e9907601160405180806020018381526020018281038252605d8152602001807f2f55736572732f73686f6b6973686f6b692f646576656c6f706d656e742f636f81526020017f6e73656e7379732f646973747269627574652f636f6e7472616374732f636f6e81526020017f7472616374732f52657075746174696f6e52656769737472792e736f6c0000008152506060019250505060405180910390a1600160009054906101000a900473ffffffffffffffffffffffffffffffffffffffff1673ffffffffffffffffffffffffffffffffffffffff1662a750af878588336002888b6000604051602001526040518863ffffffff167c0100000000000000000000000000000000000000000000000000000000028152600401808881526020018781526020018681526020018573ffffffffffffffffffffffffffffffffffffffff1673ffffffffffffffffffffffffffffffffffffffff16815260200184815260200183815260200180602001828103825283818151815260200191508051906020019080838360005b83811015616fef578082015181840152602081019050616fd4565b50505050905090810190601f16801561701c5780820380516001836020036101000a031916815260200191505b5098505050505050505050602060405180830381600087803b151561704057600080fd5b6102c65a03f1151561705157600080fd5b5050506040518051905090507ff2c98d86a1524dbd5d2f33701ed1a21292b9cedfdc2e1f7e4748dc32cad39f01609660405180806020018381526020018281038252605d8152602001807f2f55736572732f73686f6b6973686f6b692f646576656c6f706d656e742f636f81526020017f6e73656e7379732f646973747269627574652f636f6e7472616374732f636f6e81526020017f7472616374732f52657075746174696f6e52656769737472792e736f6c0000008152506060019250505060405180910390a17f27e2b032ff8b76bc35284176f2163560750ae326e54d6efd9486a4a2330e9907601260405180806020018381526020018281038252605d8152602001807f2f55736572732f73686f6b6973686f6b692f646576656c6f706d656e742f636f81526020017f6e73656e7379732f646973747269627574652f636f6e7472616374732f636f6e81526020017f7472616374732f52657075746174696f6e52656769737472792e736f6c0000008152506060019250505060405180910390a18073ffffffffffffffffffffffffffffffffffffffff167f142e33e8ca08dd930acf904a42633a4d41d34f15ccb4bd31bee212de71def2e78784604051808381526020018281526020019250505060405180910390a2505050505050565b60007f43f4c8199ed005777e208ee60df415103b7c188bf1d5d54d26d3ee09f2011f6d600e60405180806020018381526020018281038252605d8152602001807f2f55736572732f73686f6b6973686f6b692f646576656c6f706d656e742f636f81526020017f6e73656e7379732f646973747269627574652f636f6e7472616374732f636f6e81526020017f7472616374732f52657075746174696f6e52656769737472792e736f6c0000008152506060019250505060405180910390a17ff2c98d86a1524dbd5d2f33701ed1a21292b9cedfdc2e1f7e4748dc32cad39f0161013d60405180806020018381526020018281038252605d8152602001807f2f55736572732f73686f6b6973686f6b692f646576656c6f706d656e742f636f81526020017f6e73656e7379732f646973747269627574652f636f6e7472616374732f636f6e81526020017f7472616374732f52657075746174696f6e52656769737472792e736f6c0000008152506060019250505060405180910390a17f27e2b032ff8b76bc35284176f2163560750ae326e54d6efd9486a4a2330e9907603260405180806020018381526020018281038252605d8152602001807f2f55736572732f73686f6b6973686f6b692f646576656c6f706d656e742f636f81526020017f6e73656e7379732f646973747269627574652f636f6e7472616374732f636f6e81526020017f7472616374732f52657075746174696f6e52656769737472792e736f6c0000008152506060019250505060405180910390a18173ffffffffffffffffffffffffffffffffffffffff1673__ProjectLibrary________________________63a3ffcc479091336000604051602001526040518363ffffffff167c0100000000000000000000000000000000000000000000000000000000028152600401808373ffffffffffffffffffffffffffffffffffffffff1673ffffffffffffffffffffffffffffffffffffffff1681526020018273ffffffffffffffffffffffffffffffffffffffff1673ffffffffffffffffffffffffffffffffffffffff1681526020019250505060206040518083038186803b151561755a57600080fd5b6102c65a03f4151561756b57600080fd5b5050506040518051905090507ff2c98d86a1524dbd5d2f33701ed1a21292b9cedfdc2e1f7e4748dc32cad39f0161013e60405180806020018381526020018281038252605d8152602001807f2f55736572732f73686f6b6973686f6b692f646576656c6f706d656e742f636f81526020017f6e73656e7379732f646973747269627574652f636f6e7472616374732f636f6e81526020017f7472616374732f52657075746174696f6e52656769737472792e736f6c0000008152506060019250505060405180910390a17fe6775d367bbeddcabb546a7e19bac27b198dffe4c9a8b448cd2296da3ab4950f600f60405180806020018381526020018281038252605d8152602001807f2f55736572732f73686f6b6973686f6b692f646576656c6f706d656e742f636f81526020017f6e73656e7379732f646973747269627574652f636f6e7472616374732f636f6e81526020017f7472616374732f52657075746174696f6e52656769737472792e736f6c0000008152506060019250505060405180910390a17f27e2b032ff8b76bc35284176f2163560750ae326e54d6efd9486a4a2330e9907603360405180806020018381526020018281038252605d8152602001807f2f55736572732f73686f6b6973686f6b692f646576656c6f706d656e742f636f81526020017f6e73656e7379732f646973747269627574652f636f6e7472616374732f636f6e81526020017f7472616374732f52657075746174696f6e52656769737472792e736f6c0000008152506060019250505060405180910390a16000811115156177be57600080fd5b7f03bf8b2c94434e81262f69030d3c8a797d07a80631f768ea1d4b1255f24cae9e600f60405180806020018381526020018281038252605d8152602001807f2f55736572732f73686f6b6973686f6b692f646576656c6f706d656e742f636f81526020017f6e73656e7379732f646973747269627574652f636f6e7472616374732f636f6e81526020017f7472616374732f52657075746174696f6e52656769737472792e736f6c0000008152506060019250505060405180910390a17ff2c98d86a1524dbd5d2f33701ed1a21292b9cedfdc2e1f7e4748dc32cad39f0161013f60405180806020018381526020018281038252605d8152602001807f2f55736572732f73686f6b6973686f6b692f646576656c6f706d656e742f636f81526020017f6e73656e7379732f646973747269627574652f636f6e7472616374732f636f6e81526020017f7472616374732f52657075746174696f6e52656769737472792e736f6c0000008152506060019250505060405180910390a17f27e2b032ff8b76bc35284176f2163560750ae326e54d6efd9486a4a2330e9907603460405180806020018381526020018281038252605d8152602001807f2f55736572732f73686f6b6973686f6b692f646576656c6f706d656e742f636f81526020017f6e73656e7379732f646973747269627574652f636f6e7472616374732f636f6e81526020017f7472616374732f52657075746174696f6e52656769737472792e736f6c0000008152506060019250505060405180910390a18173ffffffffffffffffffffffffffffffffffffffff1663764c8a00336040518263ffffffff167c0100000000000000000000000000000000000000000000000000000000028152600401808273ffffffffffffffffffffffffffffffffffffffff1673ffffffffffffffffffffffffffffffffffffffff168152602001915050600060405180830381600087803b1515617a9057600080fd5b6102c65a03f11515617aa157600080fd5b5050507ff2c98d86a1524dbd5d2f33701ed1a21292b9cedfdc2e1f7e4748dc32cad39f0161014060405180806020018381526020018281038252605d8152602001807f2f55736572732f73686f6b6973686f6b692f646576656c6f706d656e742f636f81526020017f6e73656e7379732f646973747269627574652f636f6e7472616374732f636f6e81526020017f7472616374732f52657075746174696f6e52656769737472792e736f6c0000008152506060019250505060405180910390a17f27e2b032ff8b76bc35284176f2163560750ae326e54d6efd9486a4a2330e9907603560405180806020018381526020018281038252605d8152602001807f2f55736572732f73686f6b6973686f6b692f646576656c6f706d656e742f636f81526020017f6e73656e7379732f646973747269627574652f636f6e7472616374732f636f6e81526020017f7472616374732f52657075746174696f6e52656769737472792e736f6c0000008152506060019250505060405180910390a1600260038202811515617c2e57fe5b04600360003373ffffffffffffffffffffffffffffffffffffffff1673ffffffffffffffffffffffffffffffffffffffff168152602001908152602001600020600082825401925050819055505050565b60007f43f4c8199ed005777e208ee60df415103b7c188bf1d5d54d26d3ee09f2011f6d600360405180806020018381526020018281038252605d8152602001807f2f55736572732f73686f6b6973686f6b692f646576656c6f706d656e742f636f81526020017f6e73656e7379732f646973747269627574652f636f6e7472616374732f636f6e81526020017f7472616374732f52657075746174696f6e52656769737472792e736f6c0000008152506060019250505060405180910390a17ff2c98d86a1524dbd5d2f33701ed1a21292b9cedfdc2e1f7e4748dc32cad39f01606060405180806020018381526020018281038252605d8152602001807f2f55736572732f73686f6b6973686f6b692f646576656c6f706d656e742f636f81526020017f6e73656e7379732f646973747269627574652f636f6e7472616374732f636f6e81526020017f7472616374732f52657075746174696f6e52656769737472792e736f6c0000008152506060019250505060405180910390a17f27e2b032ff8b76bc35284176f2163560750ae326e54d6efd9486a4a2330e9907600660405180806020018381526020018281038252605d8152602001807f2f55736572732f73686f6b6973686f6b692f646576656c6f706d656e742f636f81526020017f6e73656e7379732f646973747269627574652f636f6e7472616374732f636f6e81526020017f7472616374732f52657075746174696f6e52656769737472792e736f6c0000008152506060019250505060405180910390a1600754600654811515617ec757fe5b04905090565b60008060007f43f4c8199ed005777e208ee60df415103b7c188bf1d5d54d26d3ee09f2011f6d600760405180806020018381526020018281038252605d8152602001807f2f55736572732f73686f6b6973686f6b692f646576656c6f706d656e742f636f81526020017f6e73656e7379732f646973747269627574652f636f6e7472616374732f636f6e81526020017f7472616374732f52657075746174696f6e52656769737472792e736f6c0000008152506060019250505060405180910390a17ff2c98d86a1524dbd5d2f33701ed1a21292b9cedfdc2e1f7e4748dc32cad39f0160b260405180806020018381526020018281038252605d8152602001807f2f55736572732f73686f6b6973686f6b692f646576656c6f706d656e742f636f81526020017f6e73656e7379732f646973747269627574652f636f6e7472616374732f636f6e81526020017f7472616374732f52657075746174696f6e52656769737472792e736f6c0000008152506060019250505060405180910390a17fe6775d367bbeddcabb546a7e19bac27b198dffe4c9a8b448cd2296da3ab4950f600860405180806020018381526020018281038252605d8152602001807f2f55736572732f73686f6b6973686f6b692f646576656c6f706d656e742f636f81526020017f6e73656e7379732f646973747269627574652f636f6e7472616374732f636f6e81526020017f7472616374732f52657075746174696f6e52656769737472792e736f6c0000008152506060019250505060405180910390a17f27e2b032ff8b76bc35284176f2163560750ae326e54d6efd9486a4a2330e9907601860405180806020018381526020018281038252605d8152602001807f2f55736572732f73686f6b6973686f6b692f646576656c6f706d656e742f636f81526020017f6e73656e7379732f646973747269627574652f636f6e7472616374732f636f6e81526020017f7472616374732f52657075746174696f6e52656769737472792e736f6c0000008152506060019250505060405180910390a183600360003373ffffffffffffffffffffffffffffffffffffffff1673ffffffffffffffffffffffffffffffffffffffff16815260200190815260200160002054101580156182155750600084115b151561822057600080fd5b7f03bf8b2c94434e81262f69030d3c8a797d07a80631f768ea1d4b1255f24cae9e600860405180806020018381526020018281038252605d8152602001807f2f55736572732f73686f6b6973686f6b692f646576656c6f706d656e742f636f81526020017f6e73656e7379732f646973747269627574652f636f6e7472616374732f636f6e81526020017f7472616374732f52657075746174696f6e52656769737472792e736f6c0000008152506060019250505060405180910390a17ff2c98d86a1524dbd5d2f33701ed1a21292b9cedfdc2e1f7e4748dc32cad39f0160b360405180806020018381526020018281038252605d8152602001807f2f55736572732f73686f6b6973686f6b692f646576656c6f706d656e742f636f81526020017f6e73656e7379732f646973747269627574652f636f6e7472616374732f636f6e81526020017f7472616374732f52657075746174696f6e52656769737472792e736f6c0000008152506060019250505060405180910390a17f27e2b032ff8b76bc35284176f2163560750ae326e54d6efd9486a4a2330e9907601960405180806020018381526020018281038252605d8152602001807f2f55736572732f73686f6b6973686f6b692f646576656c6f706d656e742f636f81526020017f6e73656e7379732f646973747269627574652f636f6e7472616374732f636f6e81526020017f7472616374732f52657075746174696f6e52656769737472792e736f6c0000008152506060019250505060405180910390a18492507ff2c98d86a1524dbd5d2f33701ed1a21292b9cedfdc2e1f7e4748dc32cad39f0160b460405180806020018381526020018281038252605d8152602001807f2f55736572732f73686f6b6973686f6b692f646576656c6f706d656e742f636f81526020017f6e73656e7379732f646973747269627574652f636f6e7472616374732f636f6e81526020017f7472616374732f52657075746174696f6e52656769737472792e736f6c0000008152506060019250505060405180910390a17f27e2b032ff8b76bc35284176f2163560750ae326e54d6efd9486a4a2330e9907601a60405180806020018381526020018281038252605d8152602001807f2f55736572732f73686f6b6973686f6b692f646576656c6f706d656e742f636f81526020017f6e73656e7379732f646973747269627574652f636f6e7472616374732f636f6e81526020017f7472616374732f52657075746174696f6e52656769737472792e736f6c0000008152506060019250505060405180910390a18273ffffffffffffffffffffffffffffffffffffffff1663b23dcdaf6000604051602001526040518163ffffffff167c0100000000000000000000000000000000000000000000000000000000028152600401602060405180830381600087803b151561864057600080fd5b6102c65a03f1151561865157600080fd5b505050604051805190508373ffffffffffffffffffffffffffffffffffffffff166336df7df76000604051602001526040518163ffffffff167c0100000000000000000000000000000000000000000000000000000000028152600401602060405180830381600087803b15156186c757600080fd5b6102c65a03f115156186d857600080fd5b505050604051805190500391507ff2c98d86a1524dbd5d2f33701ed1a21292b9cedfdc2e1f7e4748dc32cad39f0160b560405180806020018381526020018281038252605d8152602001807f2f55736572732f73686f6b6973686f6b692f646576656c6f706d656e742f636f81526020017f6e73656e7379732f646973747269627574652f636f6e7472616374732f636f6e81526020017f7472616374732f52657075746174696f6e52656769737472792e736f6c0000008152506060019250505060405180910390a17f27e2b032ff8b76bc35284176f2163560750ae326e54d6efd9486a4a2330e9907601b60405180806020018381526020018281038252605d8152602001807f2f55736572732f73686f6b6973686f6b692f646576656c6f706d656e742f636f81526020017f6e73656e7379732f646973747269627574652f636f6e7472616374732f636f6e81526020017f7472616374732f52657075746174696f6e52656769737472792e736f6c0000008152506060019250505060405180910390a1818410618932577fbf140d458f1c85238897f679cfcdc0b5c8e51d73847d7f7b15959883c24dd1ae6009600160405180806020018481526020018381526020018281038252605d8152602001807f2f55736572732f73686f6b6973686f6b692f646576656c6f706d656e742f636f81526020017f6e73656e7379732f646973747269627574652f636f6e7472616374732f636f6e81526020017f7472616374732f52657075746174696f6e52656769737472792e736f6c000000815250606001935050505060405180910390a1816189fa565b7fbf140d458f1c85238897f679cfcdc0b5c8e51d73847d7f7b15959883c24dd1ae6009600060405180806020018481526020018381526020018281038252605d8152602001807f2f55736572732f73686f6b6973686f6b692f646576656c6f706d656e742f636f81526020017f6e73656e7379732f646973747269627574652f636f6e7472616374732f636f6e81526020017f7472616374732f52657075746174696f6e52656769737472792e736f6c000000815250606001935050505060405180910390a1835b809150507ff2c98d86a1524dbd5d2f33701ed1a21292b9cedfdc2e1f7e4748dc32cad39f0160b660405180806020018381526020018281038252605d8152602001807f2f55736572732f73686f6b6973686f6b692f646576656c6f706d656e742f636f81526020017f6e73656e7379732f646973747269627574652f636f6e7472616374732f636f6e81526020017f7472616374732f52657075746174696f6e52656769737472792e736f6c0000008152506060019250505060405180910390a17f27e2b032ff8b76bc35284176f2163560750ae326e54d6efd9486a4a2330e9907601c60405180806020018381526020018281038252605d8152602001807f2f55736572732f73686f6b6973686f6b692f646576656c6f706d656e742f636f81526020017f6e73656e7379732f646973747269627574652f636f6e7472616374732f636f6e81526020017f7472616374732f52657075746174696f6e52656769737472792e736f6c0000008152506060019250505060405180910390a180600360003373ffffffffffffffffffffffffffffffffffffffff1673ffffffffffffffffffffffffffffffffffffffff168152602001908152602001600020600082825403925050819055507ff2c98d86a1524dbd5d2f33701ed1a21292b9cedfdc2e1f7e4748dc32cad39f0160b760405180806020018381526020018281038252605d8152602001807f2f55736572732f73686f6b6973686f6b692f646576656c6f706d656e742f636f81526020017f6e73656e7379732f646973747269627574652f636f6e7472616374732f636f6e81526020017f7472616374732f52657075746174696f6e52656769737472792e736f6c0000008152506060019250505060405180910390a17f27e2b032ff8b76bc35284176f2163560750ae326e54d6efd9486a4a2330e9907601d60405180806020018381526020018281038252605d8152602001807f2f55736572732f73686f6b6973686f6b692f646576656c6f706d656e742f636f81526020017f6e73656e7379732f646973747269627574652f636f6e7472616374732f636f6e81526020017f7472616374732f52657075746174696f6e52656769737472792e736f6c0000008152506060019250505060405180910390a18473ffffffffffffffffffffffffffffffffffffffff16637f306ba133836040518363ffffffff167c0100000000000000000000000000000000000000000000000000000000028152600401808373ffffffffffffffffffffffffffffffffffffffff1673ffffffffffffffffffffffffffffffffffffffff16815260200182815260200192505050600060405180830381600087803b1515618de157600080fd5b6102c65a03f11515618df257600080fd5b5050507ff2c98d86a1524dbd5d2f33701ed1a21292b9cedfdc2e1f7e4748dc32cad39f0160b860405180806020018381526020018281038252605d8152602001807f2f55736572732f73686f6b6973686f6b692f646576656c6f706d656e742f636f81526020017f6e73656e7379732f646973747269627574652f636f6e7472616374732f636f6e81526020017f7472616374732f52657075746174696f6e52656769737472792e736f6c0000008152506060019250505060405180910390a1600160009054906101000a900473ffffffffffffffffffffffffffffffffffffffff1673ffffffffffffffffffffffffffffffffffffffff1663247f8e14866000604051602001526040518263ffffffff167c0100000000000000000000000000000000000000000000000000000000028152600401808273ffffffffffffffffffffffffffffffffffffffff1673ffffffffffffffffffffffffffffffffffffffff168152602001915050602060405180830381600087803b1515618f7757600080fd5b6102c65a03f11515618f8857600080fd5b50505060405180519050505050505050565b7f43f4c8199ed005777e208ee60df415103b7c188bf1d5d54d26d3ee09f2011f6d600160405180806020018381526020018281038252605d8152602001807f2f55736572732f73686f6b6973686f6b692f646576656c6f706d656e742f636f81526020017f6e73656e7379732f646973747269627574652f636f6e7472616374732f636f6e81526020017f7472616374732f52657075746174696f6e52656769737472792e736f6c0000008152506060019250505060405180910390a17ff2c98d86a1524dbd5d2f33701ed1a21292b9cedfdc2e1f7e4748dc32cad39f01603d60405180806020018381526020018281038252605d8152602001807f2f55736572732f73686f6b6973686f6b692f646576656c6f706d656e742f636f81526020017f6e73656e7379732f646973747269627574652f636f6e7472616374732f636f6e81526020017f7472616374732f52657075746174696f6e52656769737472792e736f6c0000008152506060019250505060405180910390a17fe6775d367bbeddcabb546a7e19bac27b198dffe4c9a8b448cd2296da3ab4950f600160405180806020018381526020018281038252605d8152602001807f2f55736572732f73686f6b6973686f6b692f646576656c6f706d656e742f636f81526020017f6e73656e7379732f646973747269627574652f636f6e7472616374732f636f6e81526020017f7472616374732f52657075746174696f6e52656769737472792e736f6c0000008152506060019250505060405180910390a17f27e2b032ff8b76bc35284176f2163560750ae326e54d6efd9486a4a2330e9907600160405180806020018381526020018281038252605d8152602001807f2f55736572732f73686f6b6973686f6b692f646576656c6f706d656e742f636f81526020017f6e73656e7379732f646973747269627574652f636f6e7472616374732f636f6e81526020017f7472616374732f52657075746174696f6e52656769737472792e736f6c0000008152506060019250505060405180910390a1600160009054906101000a900473ffffffffffffffffffffffffffffffffffffffff1673ffffffffffffffffffffffffffffffffffffffff163373ffffffffffffffffffffffffffffffffffffffff161415156192ea57600080fd5b7f03bf8b2c94434e81262f69030d3c8a797d07a80631f768ea1d4b1255f24cae9e600160405180806020018381526020018281038252605d8152602001807f2f55736572732f73686f6b6973686f6b692f646576656c6f706d656e742f636f81526020017f6e73656e7379732f646973747269627574652f636f6e7472616374732f636f6e81526020017f7472616374732f52657075746174696f6e52656769737472792e736f6c0000008152506060019250505060405180910390a17ff2c98d86a1524dbd5d2f33701ed1a21292b9cedfdc2e1f7e4748dc32cad39f01603e60405180806020018381526020018281038252605d8152602001807f2f55736572732f73686f6b6973686f6b692f646576656c6f706d656e742f636f81526020017f6e73656e7379732f646973747269627574652f636f6e7472616374732f636f6e81526020017f7472616374732f52657075746174696f6e52656769737472792e736f6c0000008152506060019250505060405180910390a17f43f4c8199ed005777e208ee60df415103b7c188bf1d5d54d26d3ee09f2011f6d601060405180806020018381526020018281038252605d8152602001807f2f55736572732f73686f6b6973686f6b692f646576656c6f706d656e742f636f81526020017f6e73656e7379732f646973747269627574652f636f6e7472616374732f636f6e81526020017f7472616374732f52657075746174696f6e52656769737472792e736f6c0000008152506060019250505060405180910390a17ff2c98d86a1524dbd5d2f33701ed1a21292b9cedfdc2e1f7e4748dc32cad39f0161015a60405180806020018381526020018281038252605d8152602001807f2f55736572732f73686f6b6973686f6b692f646576656c6f706d656e742f636f81526020017f6e73656e7379732f646973747269627574652f636f6e7472616374732f636f6e81526020017f7472616374732f52657075746174696f6e52656769737472792e736f6c0000008152506060019250505060405180910390a17f27e2b032ff8b76bc35284176f2163560750ae326e54d6efd9486a4a2330e9907603760405180806020018381526020018281038252605d8152602001807f2f55736572732f73686f6b6973686f6b692f646576656c6f706d656e742f636f81526020017f6e73656e7379732f646973747269627574652f636f6e7472616374732f636f6e81526020017f7472616374732f52657075746174696f6e52656769737472792e736f6c0000008152506060019250505060405180910390a18060066000828254039250508190555050565b60056020528060005260406000206000915090505481565b60075481565b60007f43f4c8199ed005777e208ee60df415103b7c188bf1d5d54d26d3ee09f2011f6d600a60405180806020018381526020018281038252605d8152602001807f2f55736572732f73686f6b6973686f6b692f646576656c6f706d656e742f636f81526020017f6e73656e7379732f646973747269627574652f636f6e7472616374732f636f6e81526020017f7472616374732f52657075746174696f6e52656769737472792e736f6c0000008152506060019250505060405180910390a17ff2c98d86a1524dbd5d2f33701ed1a21292b9cedfdc2e1f7e4748dc32cad39f0160f160405180806020018381526020018281038252605d8152602001807f2f55736572732f73686f6b6973686f6b692f646576656c6f706d656e742f636f81526020017f6e73656e7379732f646973747269627574652f636f6e7472616374732f636f6e81526020017f7472616374732f52657075746174696f6e52656769737472792e736f6c0000008152506060019250505060405180910390a17f27e2b032ff8b76bc35284176f2163560750ae326e54d6efd9486a4a2330e9907602660405180806020018381526020018281038252605d8152602001807f2f55736572732f73686f6b6973686f6b692f646576656c6f706d656e742f636f81526020017f6e73656e7379732f646973747269627574652f636f6e7472616374732f636f6e81526020017f7472616374732f52657075746174696f6e52656769737472792e736f6c0000008152506060019250505060405180910390a18273ffffffffffffffffffffffffffffffffffffffff1673__ProjectLibrary________________________6325bc963e909184336000604051602001526040518463ffffffff167c0100000000000000000000000000000000000000000000000000000000028152600401808473ffffffffffffffffffffffffffffffffffffffff1673ffffffffffffffffffffffffffffffffffffffff1681526020018360ff1681526020018273ffffffffffffffffffffffffffffffffffffffff1673ffffffffffffffffffffffffffffffffffffffff168152602001935050505060206040518083038186803b15156199fc57600080fd5b6102c65a03f41515619a0d57600080fd5b5050506040518051905090507ff2c98d86a1524dbd5d2f33701ed1a21292b9cedfdc2e1f7e4748dc32cad39f0160f260405180806020018381526020018281038252605d8152602001807f2f55736572732f73686f6b6973686f6b692f646576656c6f706d656e742f636f81526020017f6e73656e7379732f646973747269627574652f636f6e7472616374732f636f6e81526020017f7472616374732f52657075746174696f6e52656769737472792e736f6c0000008152506060019250505060405180910390a17f27e2b032ff8b76bc35284176f2163560750ae326e54d6efd9486a4a2330e9907602760405180806020018381526020018281038252605d8152602001807f2f55736572732f73686f6b6973686f6b692f646576656c6f706d656e742f636f81526020017f6e73656e7379732f646973747269627574652f636f6e7472616374732f636f6e81526020017f7472616374732f52657075746174696f6e52656769737472792e736f6c0000008152506060019250505060405180910390a180600360003373ffffffffffffffffffffffffffffffffffffffff1673ffffffffffffffffffffffffffffffffffffffff16815260200190815260200160002060008282540192505081905550505050565b6000807f43f4c8199ed005777e208ee60df415103b7c188bf1d5d54d26d3ee09f2011f6d600c60405180806020018381526020018281038252605d8152602001807f2f55736572732f73686f6b6973686f6b692f646576656c6f706d656e742f636f81526020017f6e73656e7379732f646973747269627574652f636f6e7472616374732f636f6e81526020017f7472616374732f52657075746174696f6e52656769737472792e736f6c0000008152506060019250505060405180910390a17ff2c98d86a1524dbd5d2f33701ed1a21292b9cedfdc2e1f7e4748dc32cad39f0161012660405180806020018381526020018281038252605d8152602001807f2f55736572732f73686f6b6973686f6b692f646576656c6f706d656e742f636f81526020017f6e73656e7379732f646973747269627574652f636f6e7472616374732f636f6e81526020017f7472616374732f52657075746174696f6e52656769737472792e736f6c0000008152506060019250505060405180910390a17f27e2b032ff8b76bc35284176f2163560750ae326e54d6efd9486a4a2330e9907602f60405180806020018381526020018281038252605d8152602001807f2f55736572732f73686f6b6973686f6b692f646576656c6f706d656e742f636f81526020017f6e73656e7379732f646973747269627574652f636f6e7472616374732f636f6e81526020017f7472616374732f52657075746174696f6e52656769737472792e736f6c0000008152506060019250505060405180910390a18591507ff2c98d86a1524dbd5d2f33701ed1a21292b9cedfdc2e1f7e4748dc32cad39f0161012760405180806020018381526020018281038252605d8152602001807f2f55736572732f73686f6b6973686f6b692f646576656c6f706d656e742f636f81526020017f6e73656e7379732f646973747269627574652f636f6e7472616374732f636f6e81526020017f7472616374732f52657075746174696f6e52656769737472792e736f6c0000008152506060019250505060405180910390a17f27e2b032ff8b76bc35284176f2163560750ae326e54d6efd9486a4a2330e9907603060405180806020018381526020018281038252605d8152602001807f2f55736572732f73686f6b6973686f6b692f646576656c6f706d656e742f636f81526020017f6e73656e7379732f646973747269627574652f636f6e7472616374732f636f6e81526020017f7472616374732f52657075746174696f6e52656769737472792e736f6c0000008152506060019250505060405180910390a18173ffffffffffffffffffffffffffffffffffffffff16638d977672866000604051602001526040518263ffffffff167c010000000000000000000000000000000000000000000000000000000002815260040180828152602001915050602060405180830381600087803b151561a01557600080fd5b6102c65a03f1151561a02657600080fd5b5050506040518051905073ffffffffffffffffffffffffffffffffffffffff16636f13ab006000604051602001526040518163ffffffff167c0100000000000000000000000000000000000000000000000000000000028152600401602060405180830381600087803b151561a09b57600080fd5b6102c65a03f1151561a0ac57600080fd5b5050506040518051905090507ff2c98d86a1524dbd5d2f33701ed1a21292b9cedfdc2e1f7e4748dc32cad39f0161012860405180806020018381526020018281038252605d8152602001807f2f55736572732f73686f6b6973686f6b692f646576656c6f706d656e742f636f81526020017f6e73656e7379732f646973747269627574652f636f6e7472616374732f636f6e81526020017f7472616374732f52657075746174696f6e52656769737472792e736f6c0000008152506060019250505060405180910390a1600260009054906101000a900473ffffffffffffffffffffffffffffffffffffffff1673ffffffffffffffffffffffffffffffffffffffff1663b11d8bb88286866040518463ffffffff167c0100000000000000000000000000000000000000000000000000000000028152600401808481526020018381526020018281526020019350505050600060405180830381600087803b151561a21657600080fd5b6102c65a03f1151561a22757600080fd5b505050505050505050565b60046020528060005260406000206000915054906101000a900460ff1681565b60408051908101604052806002905b600081526020019060019003908161a26157905050905600a165627a7a723058203625c05dfb278d0593af8be68bc3074dca6fc0728e9dd93ba43699fcb42d0f210029","source":"pragma solidity ^0.4.19;\n\nimport \"./Project.sol\";\nimport \"./ProjectLibrary.sol\";\nimport \"./ProjectRegistry.sol\";\nimport \"./DistributeToken.sol\";\nimport \"./Task.sol\";\nimport \"./library/PLCRVoting.sol\";\nimport \"./library/Division.sol\";\n\n/**\n@title Reputation Registry for Distribute Network\n@author Team: Jessica Marshall, Ashoka Finley\n@notice This contract manages the reputation balances of each user and serves as the interface through\nwhich users stake reputation, come to consensus around tasks, claim tasks, vote, refund their stakes,\nand claim their task rewards.\n@dev This contract must be initialized with the address of a valid DistributeToken, ProjectRegistry,\nand PLCR Voting contract\n*/\n// ===================================================================== //\n//\n// ===================================================================== //\ncontract ReputationRegistry{event __CoverageReputationRegistry(string fileName, uint256 lineNumber);\nevent __FunctionCoverageReputationRegistry(string fileName, uint256 fnId);\nevent __StatementCoverageReputationRegistry(string fileName, uint256 statementId);\nevent __BranchCoverageReputationRegistry(string fileName, uint256 branchId, uint256 locationIdx);\nevent __AssertPreCoverageReputationRegistry(string fileName, uint256 branchId);\nevent __AssertPostCoverageReputationRegistry(string fileName, uint256 branchId);\n\n\n    using ProjectLibrary for address;\n\n    // =====================================================================\n    // EVENTS\n    // =====================================================================\n\n    event ProjectCreated(\n        address indexed projectAddress,\n        uint256 projectCost,\n        uint256 proposerStake\n    );\n\n    // =====================================================================\n    // STATE VARIABLES\n    // =====================================================================\n\n    DistributeToken distributeToken;\n    ProjectRegistry projectRegistry;\n    PLCRVoting plcrVoting;\n\n    mapping (address => uint) public balances;\n    mapping (address => bool) public first;   //indicates if address has registerd\n    mapping (address => uint) public lastAccess;\n\n    uint256 public totalSupply;               //total supply of reputation in all states\n    uint256 public totalUsers;\n\n    uint256 proposeProportion = 200000000000; // tokensupply/proposeProportion is the number of tokens the proposer must stake\n    uint256 rewardProportion = 100;\n    uint256 public initialRepVal = 10000;\n\n    // =====================================================================\n    // MODIFIERS\n    // =====================================================================\n\n    modifier onlyPR() {__FunctionCoverageReputationRegistry('/Users/shokishoki/development/consensys/distribute/contracts/contracts/ReputationRegistry.sol',1);\n\n__CoverageReputationRegistry('/Users/shokishoki/development/consensys/distribute/contracts/contracts/ReputationRegistry.sol',61);\n        __AssertPreCoverageReputationRegistry('/Users/shokishoki/development/consensys/distribute/contracts/contracts/ReputationRegistry.sol',1);\n __StatementCoverageReputationRegistry('/Users/shokishoki/development/consensys/distribute/contracts/contracts/ReputationRegistry.sol',1);\nrequire(msg.sender == address(projectRegistry));__AssertPostCoverageReputationRegistry('/Users/shokishoki/development/consensys/distribute/contracts/contracts/ReputationRegistry.sol',1);\n\n__CoverageReputationRegistry('/Users/shokishoki/development/consensys/distribute/contracts/contracts/ReputationRegistry.sol',62);\n        _;\n    }\n\n    // =====================================================================\n    // QUASI-CONSTRUCTOR\n    // =====================================================================\n\n    /**\n    @dev Quasi contstructor is called after contract is deployed, must be called with distributeToken,\n    projectRegistry, and plcrVoting intialized to 0\n    @param _distributeToken Address of DistributeToken contract\n    @param _projectRegistry Address of ProjectRegistry contract\n    @param _plcrVoting Address of PLCRVoting contract\n    */\n    function init(address _distributeToken, address _projectRegistry, address _plcrVoting) public {__FunctionCoverageReputationRegistry('/Users/shokishoki/development/consensys/distribute/contracts/contracts/ReputationRegistry.sol',2);\n\n__CoverageReputationRegistry('/Users/shokishoki/development/consensys/distribute/contracts/contracts/ReputationRegistry.sol',77);\n        __AssertPreCoverageReputationRegistry('/Users/shokishoki/development/consensys/distribute/contracts/contracts/ReputationRegistry.sol',2);\n __StatementCoverageReputationRegistry('/Users/shokishoki/development/consensys/distribute/contracts/contracts/ReputationRegistry.sol',2);\nrequire(\n            address(distributeToken) == 0 &&\n            address(projectRegistry) == 0 &&\n            address(plcrVoting) == 0\n        );__AssertPostCoverageReputationRegistry('/Users/shokishoki/development/consensys/distribute/contracts/contracts/ReputationRegistry.sol',2);\n\n__CoverageReputationRegistry('/Users/shokishoki/development/consensys/distribute/contracts/contracts/ReputationRegistry.sol',82);\n         __StatementCoverageReputationRegistry('/Users/shokishoki/development/consensys/distribute/contracts/contracts/ReputationRegistry.sol',3);\nprojectRegistry = ProjectRegistry(_projectRegistry);\n__CoverageReputationRegistry('/Users/shokishoki/development/consensys/distribute/contracts/contracts/ReputationRegistry.sol',83);\n         __StatementCoverageReputationRegistry('/Users/shokishoki/development/consensys/distribute/contracts/contracts/ReputationRegistry.sol',4);\nplcrVoting = PLCRVoting(_plcrVoting);\n__CoverageReputationRegistry('/Users/shokishoki/development/consensys/distribute/contracts/contracts/ReputationRegistry.sol',84);\n         __StatementCoverageReputationRegistry('/Users/shokishoki/development/consensys/distribute/contracts/contracts/ReputationRegistry.sol',5);\ndistributeToken= DistributeToken(_distributeToken);\n    }\n\n    // =====================================================================\n    // UTILITY\n    // =====================================================================\n\n    /**\n    @notice Return the average reputation balance of the network users\n    @return Average balance of each user\n    */\n    function averageBalance() public  returns(uint256) {__FunctionCoverageReputationRegistry('/Users/shokishoki/development/consensys/distribute/contracts/contracts/ReputationRegistry.sol',3);\n\n__CoverageReputationRegistry('/Users/shokishoki/development/consensys/distribute/contracts/contracts/ReputationRegistry.sol',96);\n         __StatementCoverageReputationRegistry('/Users/shokishoki/development/consensys/distribute/contracts/contracts/ReputationRegistry.sol',6);\nreturn totalSupply / totalUsers;\n    }\n\n    // =====================================================================\n    // START UP\n    // =====================================================================\n\n    /**\n    @notice Register an account `msg.sender` for the first time in the reputation registry, grant 10,000\n    repuation to start.\n    @dev Has no sybil protection, thus a user can auto generate accounts to receive excess reputation.\n    */\n    function register() public {__FunctionCoverageReputationRegistry('/Users/shokishoki/development/consensys/distribute/contracts/contracts/ReputationRegistry.sol',4);\n\n__CoverageReputationRegistry('/Users/shokishoki/development/consensys/distribute/contracts/contracts/ReputationRegistry.sol',109);\n        __AssertPreCoverageReputationRegistry('/Users/shokishoki/development/consensys/distribute/contracts/contracts/ReputationRegistry.sol',3);\n __StatementCoverageReputationRegistry('/Users/shokishoki/development/consensys/distribute/contracts/contracts/ReputationRegistry.sol',7);\nrequire(balances[msg.sender] == 0 && first[msg.sender] == false);__AssertPostCoverageReputationRegistry('/Users/shokishoki/development/consensys/distribute/contracts/contracts/ReputationRegistry.sol',3);\n\n__CoverageReputationRegistry('/Users/shokishoki/development/consensys/distribute/contracts/contracts/ReputationRegistry.sol',110);\n         __StatementCoverageReputationRegistry('/Users/shokishoki/development/consensys/distribute/contracts/contracts/ReputationRegistry.sol',8);\nfirst[msg.sender] = true;\n__CoverageReputationRegistry('/Users/shokishoki/development/consensys/distribute/contracts/contracts/ReputationRegistry.sol',111);\n         __StatementCoverageReputationRegistry('/Users/shokishoki/development/consensys/distribute/contracts/contracts/ReputationRegistry.sol',9);\nbalances[msg.sender] = initialRepVal;\n__CoverageReputationRegistry('/Users/shokishoki/development/consensys/distribute/contracts/contracts/ReputationRegistry.sol',112);\n         __StatementCoverageReputationRegistry('/Users/shokishoki/development/consensys/distribute/contracts/contracts/ReputationRegistry.sol',10);\ntotalSupply += initialRepVal;\n__CoverageReputationRegistry('/Users/shokishoki/development/consensys/distribute/contracts/contracts/ReputationRegistry.sol',113);\n         __StatementCoverageReputationRegistry('/Users/shokishoki/development/consensys/distribute/contracts/contracts/ReputationRegistry.sol',11);\ntotalUsers += 1;\n    }\n\n    // =====================================================================\n    // PROPOSE\n    // =====================================================================\n\n    /**\n    @notice Propose a project of cost `_cost` with staking period `_stakingPeriod` and hash `_ipfsHash`,\n    with reputation.\n    @dev Calls ProjectRegistry.createProject finalize transaction\n    @param _cost Total project cost in wei\n    @param _stakingPeriod Length of time the project can be staked before it expires\n    @param _ipfsHash Hash of the project description\n    */\n    function proposeProject(uint256 _cost, uint256 _stakingPeriod, string _ipfsHash) public {__FunctionCoverageReputationRegistry('/Users/shokishoki/development/consensys/distribute/contracts/contracts/ReputationRegistry.sol',5);\n    //_cost of project in ether\n        //calculate cost of project in tokens currently (_cost in wei)\n        //check proposer has at least 5% of the proposed cost in tokens\n__CoverageReputationRegistry('/Users/shokishoki/development/consensys/distribute/contracts/contracts/ReputationRegistry.sol',131);\n        __AssertPreCoverageReputationRegistry('/Users/shokishoki/development/consensys/distribute/contracts/contracts/ReputationRegistry.sol',4);\n __StatementCoverageReputationRegistry('/Users/shokishoki/development/consensys/distribute/contracts/contracts/ReputationRegistry.sol',12);\nrequire(now < _stakingPeriod && _cost > 0);__AssertPostCoverageReputationRegistry('/Users/shokishoki/development/consensys/distribute/contracts/contracts/ReputationRegistry.sol',4);\n\n\n__CoverageReputationRegistry('/Users/shokishoki/development/consensys/distribute/contracts/contracts/ReputationRegistry.sol',133);\n         __StatementCoverageReputationRegistry('/Users/shokishoki/development/consensys/distribute/contracts/contracts/ReputationRegistry.sol',13);\nuint256 costProportion = Division.percent(_cost, distributeToken.weiBal(), 10);\n__CoverageReputationRegistry('/Users/shokishoki/development/consensys/distribute/contracts/contracts/ReputationRegistry.sol',134);\n         __StatementCoverageReputationRegistry('/Users/shokishoki/development/consensys/distribute/contracts/contracts/ReputationRegistry.sol',14);\nuint256 proposerReputationCost = ( //divide by 20 to get 5 percent of tokens\n        Division.percent(costProportion, proposeProportion, 10) *\n        distributeToken.totalSupply()) /\n        10000000000;\n__CoverageReputationRegistry('/Users/shokishoki/development/consensys/distribute/contracts/contracts/ReputationRegistry.sol',138);\n        __AssertPreCoverageReputationRegistry('/Users/shokishoki/development/consensys/distribute/contracts/contracts/ReputationRegistry.sol',5);\n __StatementCoverageReputationRegistry('/Users/shokishoki/development/consensys/distribute/contracts/contracts/ReputationRegistry.sol',15);\nrequire(balances[msg.sender] >= proposerReputationCost);__AssertPostCoverageReputationRegistry('/Users/shokishoki/development/consensys/distribute/contracts/contracts/ReputationRegistry.sol',5);\n\n\n__CoverageReputationRegistry('/Users/shokishoki/development/consensys/distribute/contracts/contracts/ReputationRegistry.sol',140);\n         __StatementCoverageReputationRegistry('/Users/shokishoki/development/consensys/distribute/contracts/contracts/ReputationRegistry.sol',16);\nbalances[msg.sender] -= proposerReputationCost;\n__CoverageReputationRegistry('/Users/shokishoki/development/consensys/distribute/contracts/contracts/ReputationRegistry.sol',141);\n         __StatementCoverageReputationRegistry('/Users/shokishoki/development/consensys/distribute/contracts/contracts/ReputationRegistry.sol',17);\naddress projectAddress = projectRegistry.createProject(\n            _cost,\n            costProportion,\n            _stakingPeriod,\n            msg.sender,\n            2,\n            proposerReputationCost,\n            _ipfsHash\n        );\n__CoverageReputationRegistry('/Users/shokishoki/development/consensys/distribute/contracts/contracts/ReputationRegistry.sol',150);\n         __StatementCoverageReputationRegistry('/Users/shokishoki/development/consensys/distribute/contracts/contracts/ReputationRegistry.sol',18);\nProjectCreated(projectAddress, _cost, proposerReputationCost);\n    }\n\n    /**\n    @notice Refund a reputation proposer upon proposal success, transfer 1% of the project cost in\n    wei as a reward along with any reputation staked.\n    @param _projectAddress Address of the project\n    */\n    function refundProposer(address _projectAddress) public {__FunctionCoverageReputationRegistry('/Users/shokishoki/development/consensys/distribute/contracts/contracts/ReputationRegistry.sol',6);\n\n__CoverageReputationRegistry('/Users/shokishoki/development/consensys/distribute/contracts/contracts/ReputationRegistry.sol',159);\n         __StatementCoverageReputationRegistry('/Users/shokishoki/development/consensys/distribute/contracts/contracts/ReputationRegistry.sol',19);\nProject project = Project(_projectAddress);                                         //called by proposer to get refund once project is active\n__CoverageReputationRegistry('/Users/shokishoki/development/consensys/distribute/contracts/contracts/ReputationRegistry.sol',160);\n        __AssertPreCoverageReputationRegistry('/Users/shokishoki/development/consensys/distribute/contracts/contracts/ReputationRegistry.sol',6);\n __StatementCoverageReputationRegistry('/Users/shokishoki/development/consensys/distribute/contracts/contracts/ReputationRegistry.sol',20);\nrequire(project.proposer() == msg.sender);__AssertPostCoverageReputationRegistry('/Users/shokishoki/development/consensys/distribute/contracts/contracts/ReputationRegistry.sol',6);\n\n__CoverageReputationRegistry('/Users/shokishoki/development/consensys/distribute/contracts/contracts/ReputationRegistry.sol',161);\n        __AssertPreCoverageReputationRegistry('/Users/shokishoki/development/consensys/distribute/contracts/contracts/ReputationRegistry.sol',7);\n __StatementCoverageReputationRegistry('/Users/shokishoki/development/consensys/distribute/contracts/contracts/ReputationRegistry.sol',21);\nrequire(project.proposerType() == 2);__AssertPostCoverageReputationRegistry('/Users/shokishoki/development/consensys/distribute/contracts/contracts/ReputationRegistry.sol',7);\n\n__CoverageReputationRegistry('/Users/shokishoki/development/consensys/distribute/contracts/contracts/ReputationRegistry.sol',162);\n         __StatementCoverageReputationRegistry('/Users/shokishoki/development/consensys/distribute/contracts/contracts/ReputationRegistry.sol',22);\nuint256[2] memory proposerVals = projectRegistry.refundProposer(_projectAddress);   //call project to \"send back\" staked tokens to put in proposer's balances\n__CoverageReputationRegistry('/Users/shokishoki/development/consensys/distribute/contracts/contracts/ReputationRegistry.sol',163);\n         __StatementCoverageReputationRegistry('/Users/shokishoki/development/consensys/distribute/contracts/contracts/ReputationRegistry.sol',23);\nbalances[msg.sender] += proposerVals[1];\n__CoverageReputationRegistry('/Users/shokishoki/development/consensys/distribute/contracts/contracts/ReputationRegistry.sol',164);\n        distributeToken.transferWeiTo(msg.sender, proposerVals[0] / 100);\n    }\n\n    // =====================================================================\n    // STAKE\n    // =====================================================================\n\n    /**\n    @notice Stake `_reputation` reputation on project at `_projectAddress`\n    @dev Prevents over staking and returns any excess reputation staked.\n    @param _projectAddress Address of the project\n    @param _reputation Amount of reputation to stake\n    */\n    function stakeReputation(address _projectAddress, uint256 _reputation) public {__FunctionCoverageReputationRegistry('/Users/shokishoki/development/consensys/distribute/contracts/contracts/ReputationRegistry.sol',7);\n\n__CoverageReputationRegistry('/Users/shokishoki/development/consensys/distribute/contracts/contracts/ReputationRegistry.sol',178);\n        __AssertPreCoverageReputationRegistry('/Users/shokishoki/development/consensys/distribute/contracts/contracts/ReputationRegistry.sol',8);\n __StatementCoverageReputationRegistry('/Users/shokishoki/development/consensys/distribute/contracts/contracts/ReputationRegistry.sol',24);\nrequire(balances[msg.sender] >= _reputation && _reputation > 0);__AssertPostCoverageReputationRegistry('/Users/shokishoki/development/consensys/distribute/contracts/contracts/ReputationRegistry.sol',8);\n                    //make sure project exists & RH has tokens to stake\n__CoverageReputationRegistry('/Users/shokishoki/development/consensys/distribute/contracts/contracts/ReputationRegistry.sol',179);\n         __StatementCoverageReputationRegistry('/Users/shokishoki/development/consensys/distribute/contracts/contracts/ReputationRegistry.sol',25);\nProject project = Project(_projectAddress);\n__CoverageReputationRegistry('/Users/shokishoki/development/consensys/distribute/contracts/contracts/ReputationRegistry.sol',180);\n         __StatementCoverageReputationRegistry('/Users/shokishoki/development/consensys/distribute/contracts/contracts/ReputationRegistry.sol',26);\nuint256 repRemaining = project.reputationCost() - project.reputationStaked();\n__CoverageReputationRegistry('/Users/shokishoki/development/consensys/distribute/contracts/contracts/ReputationRegistry.sol',181);\n         __StatementCoverageReputationRegistry('/Users/shokishoki/development/consensys/distribute/contracts/contracts/ReputationRegistry.sol',27);\nuint256 reputationVal; (,reputationVal) = _reputation < repRemaining ? (__BranchCoverageReputationRegistry('/Users/shokishoki/development/consensys/distribute/contracts/contracts/ReputationRegistry.sol',9,0),_reputation) : (__BranchCoverageReputationRegistry('/Users/shokishoki/development/consensys/distribute/contracts/contracts/ReputationRegistry.sol',9,1),repRemaining);\n__CoverageReputationRegistry('/Users/shokishoki/development/consensys/distribute/contracts/contracts/ReputationRegistry.sol',182);\n         __StatementCoverageReputationRegistry('/Users/shokishoki/development/consensys/distribute/contracts/contracts/ReputationRegistry.sol',28);\nbalances[msg.sender] -= reputationVal;\n__CoverageReputationRegistry('/Users/shokishoki/development/consensys/distribute/contracts/contracts/ReputationRegistry.sol',183);\n         __StatementCoverageReputationRegistry('/Users/shokishoki/development/consensys/distribute/contracts/contracts/ReputationRegistry.sol',29);\nProject(_projectAddress).stakeReputation(msg.sender, reputationVal);\n__CoverageReputationRegistry('/Users/shokishoki/development/consensys/distribute/contracts/contracts/ReputationRegistry.sol',184);\n        projectRegistry.checkStaked(_projectAddress);\n    }\n\n    /**\n    @notice Unstake `_reputation` reputation from project at `_projectAddress`\n    @dev Require repuation unstaked is greater than 0\n    @param _projectAddress Address of the project\n    @param _reputation Amount of reputation to unstake\n    */\n    function unstakeReputation(address _projectAddress, uint256 _reputation) public {__FunctionCoverageReputationRegistry('/Users/shokishoki/development/consensys/distribute/contracts/contracts/ReputationRegistry.sol',8);\n\n__CoverageReputationRegistry('/Users/shokishoki/development/consensys/distribute/contracts/contracts/ReputationRegistry.sol',194);\n        __AssertPreCoverageReputationRegistry('/Users/shokishoki/development/consensys/distribute/contracts/contracts/ReputationRegistry.sol',10);\n __StatementCoverageReputationRegistry('/Users/shokishoki/development/consensys/distribute/contracts/contracts/ReputationRegistry.sol',30);\nrequire(_reputation > 0);__AssertPostCoverageReputationRegistry('/Users/shokishoki/development/consensys/distribute/contracts/contracts/ReputationRegistry.sol',10);\n\n__CoverageReputationRegistry('/Users/shokishoki/development/consensys/distribute/contracts/contracts/ReputationRegistry.sol',195);\n         __StatementCoverageReputationRegistry('/Users/shokishoki/development/consensys/distribute/contracts/contracts/ReputationRegistry.sol',31);\nbalances[msg.sender] += _reputation;\n__CoverageReputationRegistry('/Users/shokishoki/development/consensys/distribute/contracts/contracts/ReputationRegistry.sol',196);\n         __StatementCoverageReputationRegistry('/Users/shokishoki/development/consensys/distribute/contracts/contracts/ReputationRegistry.sol',32);\nProject(_projectAddress).unstakeReputation(msg.sender, _reputation);\n    }\n\n    // =====================================================================\n    // TASK\n    // =====================================================================\n\n    /**\n    @notice Claim a task at index `_index` from project at `_projectAddress` with description\n    `_taskDescription` and weighting `_weighting`\n    @dev Requires the reputation of msg.sender to be greater than the reputationVal of the task\n    @param _projectAddress Address of the project\n    @param _index Index of the task\n    @param _taskDescription Description of the task\n    @param _weighting Weighting of the task\n    */\n    function claimTask(\n        address _projectAddress,\n        uint256 _index,\n        bytes32 _taskDescription,\n        uint _weighting\n    ) public {__FunctionCoverageReputationRegistry('/Users/shokishoki/development/consensys/distribute/contracts/contracts/ReputationRegistry.sol',9);\n\n__CoverageReputationRegistry('/Users/shokishoki/development/consensys/distribute/contracts/contracts/ReputationRegistry.sol',218);\n         __StatementCoverageReputationRegistry('/Users/shokishoki/development/consensys/distribute/contracts/contracts/ReputationRegistry.sol',33);\nProject project = Project(_projectAddress);\n__CoverageReputationRegistry('/Users/shokishoki/development/consensys/distribute/contracts/contracts/ReputationRegistry.sol',219);\n         __StatementCoverageReputationRegistry('/Users/shokishoki/development/consensys/distribute/contracts/contracts/ReputationRegistry.sol',34);\nuint reputationVal = project.reputationCost() * _weighting / 100;\n__CoverageReputationRegistry('/Users/shokishoki/development/consensys/distribute/contracts/contracts/ReputationRegistry.sol',220);\n        __AssertPreCoverageReputationRegistry('/Users/shokishoki/development/consensys/distribute/contracts/contracts/ReputationRegistry.sol',11);\n __StatementCoverageReputationRegistry('/Users/shokishoki/development/consensys/distribute/contracts/contracts/ReputationRegistry.sol',35);\nrequire(balances[msg.sender] >= reputationVal);__AssertPostCoverageReputationRegistry('/Users/shokishoki/development/consensys/distribute/contracts/contracts/ReputationRegistry.sol',11);\n\n__CoverageReputationRegistry('/Users/shokishoki/development/consensys/distribute/contracts/contracts/ReputationRegistry.sol',221);\n         __StatementCoverageReputationRegistry('/Users/shokishoki/development/consensys/distribute/contracts/contracts/ReputationRegistry.sol',36);\nuint weiVal = project.weiCost() * _weighting / 100;\n__CoverageReputationRegistry('/Users/shokishoki/development/consensys/distribute/contracts/contracts/ReputationRegistry.sol',222);\n         __StatementCoverageReputationRegistry('/Users/shokishoki/development/consensys/distribute/contracts/contracts/ReputationRegistry.sol',37);\nbalances[msg.sender] -= reputationVal;\n__CoverageReputationRegistry('/Users/shokishoki/development/consensys/distribute/contracts/contracts/ReputationRegistry.sol',223);\n        projectRegistry.claimTask(\n            _projectAddress,\n            _index,\n            _taskDescription,\n            msg.sender,\n            _weighting,\n            weiVal,\n            reputationVal\n        );\n    }\n\n    /**\n    @notice Reward the claimer of a task that has been successfully validated.\n    @param _projectAddress Address of the project\n    @param _index Index of the task\n    */\n    //called by reputation holder who completed a task\n    function rewardTask(address _projectAddress, uint8 _index) public {__FunctionCoverageReputationRegistry('/Users/shokishoki/development/consensys/distribute/contracts/contracts/ReputationRegistry.sol',10);\n\n__CoverageReputationRegistry('/Users/shokishoki/development/consensys/distribute/contracts/contracts/ReputationRegistry.sol',241);\n         __StatementCoverageReputationRegistry('/Users/shokishoki/development/consensys/distribute/contracts/contracts/ReputationRegistry.sol',38);\nuint256 reward = _projectAddress.claimTaskReward(_index, msg.sender);\n__CoverageReputationRegistry('/Users/shokishoki/development/consensys/distribute/contracts/contracts/ReputationRegistry.sol',242);\n         __StatementCoverageReputationRegistry('/Users/shokishoki/development/consensys/distribute/contracts/contracts/ReputationRegistry.sol',39);\nbalances[msg.sender] += reward;\n    }\n\n    // =====================================================================\n    // VOTING\n    // =====================================================================\n\n    /**\n    @notice First part of voting process. Commits a vote using reputation to task at index `_index`\n    of project at `projectAddress` for reputation `_reputation`. Submits a secrect hash `_secretHash`,\n    which is a tightly packed hash of the voters choice and their salt\n    @param _projectAddress Address of the project\n    @param _index Index of the task\n    @param _reputation Reputation to vote with\n    @param _secretHash Secret Hash of voter choice and salt\n    @param _prevPollID The nonce of the previous poll. This is stored off chain\n    */\n    function voteCommit(\n        address _projectAddress,\n        uint256 _index,\n        uint256 _reputation,\n        bytes32 _secretHash,\n        uint256 _prevPollID\n    ) public {__FunctionCoverageReputationRegistry('/Users/shokishoki/development/consensys/distribute/contracts/contracts/ReputationRegistry.sol',11);\n     //_secretHash Commit keccak256 hash of voter's choice and salt (tightly packed in this order), done off-chain\n__CoverageReputationRegistry('/Users/shokishoki/development/consensys/distribute/contracts/contracts/ReputationRegistry.sol',266);\n        __AssertPreCoverageReputationRegistry('/Users/shokishoki/development/consensys/distribute/contracts/contracts/ReputationRegistry.sol',12);\n __StatementCoverageReputationRegistry('/Users/shokishoki/development/consensys/distribute/contracts/contracts/ReputationRegistry.sol',40);\nrequire(balances[msg.sender] > 10000);__AssertPostCoverageReputationRegistry('/Users/shokishoki/development/consensys/distribute/contracts/contracts/ReputationRegistry.sol',12);\n //prevent network effect of new account creation\n__CoverageReputationRegistry('/Users/shokishoki/development/consensys/distribute/contracts/contracts/ReputationRegistry.sol',267);\n         __StatementCoverageReputationRegistry('/Users/shokishoki/development/consensys/distribute/contracts/contracts/ReputationRegistry.sol',41);\nProject project = Project(_projectAddress);\n__CoverageReputationRegistry('/Users/shokishoki/development/consensys/distribute/contracts/contracts/ReputationRegistry.sol',268);\n         __StatementCoverageReputationRegistry('/Users/shokishoki/development/consensys/distribute/contracts/contracts/ReputationRegistry.sol',42);\nuint256 pollId = Task(project.tasks(_index)).pollId();\n        //calculate available tokens for voting\n__CoverageReputationRegistry('/Users/shokishoki/development/consensys/distribute/contracts/contracts/ReputationRegistry.sol',270);\n         __StatementCoverageReputationRegistry('/Users/shokishoki/development/consensys/distribute/contracts/contracts/ReputationRegistry.sol',43);\nuint256 availableTokens = plcrVoting.getAvailableTokens(msg.sender, 2);\n        //make sure msg.sender has tokens available in PLCR contract\n        //if not, request voting rights for token holder\n__CoverageReputationRegistry('/Users/shokishoki/development/consensys/distribute/contracts/contracts/ReputationRegistry.sol',273);\n         __StatementCoverageReputationRegistry('/Users/shokishoki/development/consensys/distribute/contracts/contracts/ReputationRegistry.sol',44);\nif (availableTokens < _reputation) {__BranchCoverageReputationRegistry('/Users/shokishoki/development/consensys/distribute/contracts/contracts/ReputationRegistry.sol',13,0);\n__CoverageReputationRegistry('/Users/shokishoki/development/consensys/distribute/contracts/contracts/ReputationRegistry.sol',274);\n            __AssertPreCoverageReputationRegistry('/Users/shokishoki/development/consensys/distribute/contracts/contracts/ReputationRegistry.sol',14);\n __StatementCoverageReputationRegistry('/Users/shokishoki/development/consensys/distribute/contracts/contracts/ReputationRegistry.sol',45);\nrequire(balances[msg.sender] >= _reputation - availableTokens && pollId != 0);__AssertPostCoverageReputationRegistry('/Users/shokishoki/development/consensys/distribute/contracts/contracts/ReputationRegistry.sol',14);\n\n__CoverageReputationRegistry('/Users/shokishoki/development/consensys/distribute/contracts/contracts/ReputationRegistry.sol',275);\n             __StatementCoverageReputationRegistry('/Users/shokishoki/development/consensys/distribute/contracts/contracts/ReputationRegistry.sol',46);\nbalances[msg.sender] -= _reputation;\n__CoverageReputationRegistry('/Users/shokishoki/development/consensys/distribute/contracts/contracts/ReputationRegistry.sol',276);\n            plcrVoting.requestVotingRights(msg.sender, _reputation - availableTokens);\n        }else { __BranchCoverageReputationRegistry('/Users/shokishoki/development/consensys/distribute/contracts/contracts/ReputationRegistry.sol',13,1);}\n\n__CoverageReputationRegistry('/Users/shokishoki/development/consensys/distribute/contracts/contracts/ReputationRegistry.sol',278);\n        plcrVoting.commitVote(msg.sender, pollId, _secretHash, _reputation, _prevPollID);\n    }\n\n    /**\n    @notice Second part of voting process. Reveal existing vote.\n    @param _projectAddress Address of the project\n    @param _index Index of the task\n    @param _voteOption Vote choice of account\n    @param _salt Salt of account\n    */\n    function voteReveal(\n        address _projectAddress,\n        uint256 _index,\n        uint256 _voteOption,\n        uint _salt\n    ) public {__FunctionCoverageReputationRegistry('/Users/shokishoki/development/consensys/distribute/contracts/contracts/ReputationRegistry.sol',12);\n\n__CoverageReputationRegistry('/Users/shokishoki/development/consensys/distribute/contracts/contracts/ReputationRegistry.sol',294);\n         __StatementCoverageReputationRegistry('/Users/shokishoki/development/consensys/distribute/contracts/contracts/ReputationRegistry.sol',47);\nProject project = Project(_projectAddress);\n__CoverageReputationRegistry('/Users/shokishoki/development/consensys/distribute/contracts/contracts/ReputationRegistry.sol',295);\n         __StatementCoverageReputationRegistry('/Users/shokishoki/development/consensys/distribute/contracts/contracts/ReputationRegistry.sol',48);\nuint256 pollId = Task(project.tasks(_index)).pollId();\n__CoverageReputationRegistry('/Users/shokishoki/development/consensys/distribute/contracts/contracts/ReputationRegistry.sol',296);\n        plcrVoting.revealVote(pollId, _voteOption, _salt);\n    }\n\n    /**\n    @notice Withdraw voting rights from PLCR Contract\n    @param _reputation Amount of reputation to withdraw\n    */\n    function refundVotingReputation(uint256 _reputation) public {__FunctionCoverageReputationRegistry('/Users/shokishoki/development/consensys/distribute/contracts/contracts/ReputationRegistry.sol',13);\n\n__CoverageReputationRegistry('/Users/shokishoki/development/consensys/distribute/contracts/contracts/ReputationRegistry.sol',304);\n        plcrVoting.withdrawVotingRights(msg.sender, _reputation);\n__CoverageReputationRegistry('/Users/shokishoki/development/consensys/distribute/contracts/contracts/ReputationRegistry.sol',305);\n         __StatementCoverageReputationRegistry('/Users/shokishoki/development/consensys/distribute/contracts/contracts/ReputationRegistry.sol',49);\nbalances[msg.sender] += _reputation;\n    }\n\n    // =====================================================================\n    // COMPLETE\n    // =====================================================================\n\n    /**\n    @notice Refund a reputation staker from project at `_projectAddress`\n    @param _projectAddress Address of the project\n    */\n    function refundStaker(address _projectAddress) public {__FunctionCoverageReputationRegistry('/Users/shokishoki/development/consensys/distribute/contracts/contracts/ReputationRegistry.sol',14);\n     //called by worker who staked or voted\n__CoverageReputationRegistry('/Users/shokishoki/development/consensys/distribute/contracts/contracts/ReputationRegistry.sol',317);\n         __StatementCoverageReputationRegistry('/Users/shokishoki/development/consensys/distribute/contracts/contracts/ReputationRegistry.sol',50);\nuint256 _refund = _projectAddress.refundStaker(msg.sender);\n__CoverageReputationRegistry('/Users/shokishoki/development/consensys/distribute/contracts/contracts/ReputationRegistry.sol',318);\n        __AssertPreCoverageReputationRegistry('/Users/shokishoki/development/consensys/distribute/contracts/contracts/ReputationRegistry.sol',15);\n __StatementCoverageReputationRegistry('/Users/shokishoki/development/consensys/distribute/contracts/contracts/ReputationRegistry.sol',51);\nrequire(_refund > 0);__AssertPostCoverageReputationRegistry('/Users/shokishoki/development/consensys/distribute/contracts/contracts/ReputationRegistry.sol',15);\n\n__CoverageReputationRegistry('/Users/shokishoki/development/consensys/distribute/contracts/contracts/ReputationRegistry.sol',319);\n         __StatementCoverageReputationRegistry('/Users/shokishoki/development/consensys/distribute/contracts/contracts/ReputationRegistry.sol',52);\nProject(_projectAddress).clearReputationStake(msg.sender);\n__CoverageReputationRegistry('/Users/shokishoki/development/consensys/distribute/contracts/contracts/ReputationRegistry.sol',320);\n         __StatementCoverageReputationRegistry('/Users/shokishoki/development/consensys/distribute/contracts/contracts/ReputationRegistry.sol',53);\nbalances[msg.sender] += _refund * 3 / 2;\n    }\n\n    /**\n    @notice Rescue unrevealed reputation votes from expired polls of task at `_index` of project at\n    `_projectAddress`\n    @param _projectAddress Address of the project\n    @param _index Index of the task\n    */\n    function rescueTokens(address _projectAddress, uint _index) public {__FunctionCoverageReputationRegistry('/Users/shokishoki/development/consensys/distribute/contracts/contracts/ReputationRegistry.sol',15);\n\n        //rescue locked reputation that wasn't revealed\n__CoverageReputationRegistry('/Users/shokishoki/development/consensys/distribute/contracts/contracts/ReputationRegistry.sol',331);\n         __StatementCoverageReputationRegistry('/Users/shokishoki/development/consensys/distribute/contracts/contracts/ReputationRegistry.sol',54);\nuint256 pollId = Task(Project(_projectAddress).tasks(_index)).pollId();\n__CoverageReputationRegistry('/Users/shokishoki/development/consensys/distribute/contracts/contracts/ReputationRegistry.sol',332);\n        plcrVoting.rescueTokens(msg.sender, pollId);\n    }\n\n\n    // =====================================================================\n    // FAILED\n    // =====================================================================\n\n    /**\n    @notice Burn reputation in event of project failure\n    @dev Only callable by the ProjectRegistry contract\n    @param _reputation Amount of reputation to burn\n    */\n    function burnReputation(uint256 _reputation) public onlyPR {__FunctionCoverageReputationRegistry('/Users/shokishoki/development/consensys/distribute/contracts/contracts/ReputationRegistry.sol',16);\n\n__CoverageReputationRegistry('/Users/shokishoki/development/consensys/distribute/contracts/contracts/ReputationRegistry.sol',346);\n         __StatementCoverageReputationRegistry('/Users/shokishoki/development/consensys/distribute/contracts/contracts/ReputationRegistry.sol',55);\ntotalSupply -= _reputation;\n    }\n\n}\n","sourcePath":"/Users/shokishoki/development/consensys/distribute/contracts/coverageEnv/contracts/ReputationRegistry.sol","compiler":{"name":"solc","version":"0.4.19+commit.c4cbbb05.Emscripten.clang"},"schemaVersion":"2.0.0","updatedAt":"2018-03-21T15:13:01.018Z"}