{"contractName":"Task","abi":[{"constant":true,"inputs":[],"name":"claimTime","outputs":[{"name":"","type":"uint256"}],"payable":false,"stateMutability":"view","type":"function"},{"constant":true,"inputs":[],"name":"complete","outputs":[{"name":"","type":"bool"}],"payable":false,"stateMutability":"view","type":"function"},{"constant":true,"inputs":[],"name":"weighting","outputs":[{"name":"","type":"uint256"}],"payable":false,"stateMutability":"view","type":"function"},{"constant":true,"inputs":[],"name":"pollId","outputs":[{"name":"","type":"uint256"}],"payable":false,"stateMutability":"view","type":"function"},{"constant":true,"inputs":[],"name":"weiReward","outputs":[{"name":"","type":"uint256"}],"payable":false,"stateMutability":"view","type":"function"},{"constant":true,"inputs":[],"name":"claimable","outputs":[{"name":"","type":"bool"}],"payable":false,"stateMutability":"view","type":"function"},{"constant":true,"inputs":[],"name":"taskHash","outputs":[{"name":"","type":"bytes32"}],"payable":false,"stateMutability":"view","type":"function"},{"constant":true,"inputs":[],"name":"claimer","outputs":[{"name":"","type":"address"}],"payable":false,"stateMutability":"view","type":"function"},{"constant":true,"inputs":[],"name":"opposingValidator","outputs":[{"name":"","type":"bool"}],"payable":false,"stateMutability":"view","type":"function"},{"constant":true,"inputs":[],"name":"totalValidateNegative","outputs":[{"name":"","type":"uint256"}],"payable":false,"stateMutability":"view","type":"function"},{"constant":true,"inputs":[],"name":"reputationReward","outputs":[{"name":"","type":"uint256"}],"payable":false,"stateMutability":"view","type":"function"},{"constant":true,"inputs":[],"name":"totalValidateAffirmative","outputs":[{"name":"","type":"uint256"}],"payable":false,"stateMutability":"view","type":"function"},{"constant":true,"inputs":[],"name":"claimableByRep","outputs":[{"name":"","type":"bool"}],"payable":false,"stateMutability":"view","type":"function"},{"constant":true,"inputs":[{"name":"","type":"address"}],"name":"validators","outputs":[{"name":"status","type":"uint256"},{"name":"stake","type":"uint256"}],"payable":false,"stateMutability":"view","type":"function"},{"constant":true,"inputs":[],"name":"validateReward","outputs":[{"name":"","type":"uint256"}],"payable":false,"stateMutability":"view","type":"function"},{"inputs":[{"name":"_hash","type":"bytes32"},{"name":"_tokenRegistry","type":"address"},{"name":"_reputationRegistry","type":"address"}],"payable":false,"stateMutability":"nonpayable","type":"constructor"},{"constant":false,"inputs":[{"name":"_weighting","type":"uint256"}],"name":"setWeighting","outputs":[],"payable":false,"stateMutability":"nonpayable","type":"function"},{"constant":false,"inputs":[{"name":"_weiVal","type":"uint256"},{"name":"_reputationVal","type":"uint256"},{"name":"_claimer","type":"address"}],"name":"setTaskReward","outputs":[],"payable":false,"stateMutability":"nonpayable","type":"function"},{"constant":false,"inputs":[],"name":"markTaskComplete","outputs":[],"payable":false,"stateMutability":"nonpayable","type":"function"},{"constant":false,"inputs":[{"name":"_validator","type":"address"},{"name":"_validationVal","type":"uint256"},{"name":"_tokens","type":"uint256"}],"name":"setValidator","outputs":[],"payable":false,"stateMutability":"nonpayable","type":"function"},{"constant":false,"inputs":[{"name":"_pollId","type":"uint256"}],"name":"setPollId","outputs":[],"payable":false,"stateMutability":"nonpayable","type":"function"},{"constant":false,"inputs":[{"name":"_passed","type":"bool"}],"name":"markTaskClaimable","outputs":[{"name":"","type":"bool"}],"payable":false,"stateMutability":"nonpayable","type":"function"},{"constant":false,"inputs":[{"name":"_validator","type":"address"}],"name":"clearValidatorStake","outputs":[],"payable":false,"stateMutability":"nonpayable","type":"function"}],"bytecode":"0x60606040526000600a60156101000a81548160ff021916908315150217905550341561002a57600080fd5b604051606080620063f3833981016040528080519060200190919080519060200190919080519060200190919050507fa752e27bc51e9eb778ad98bde789076ff681a66d141f00385f19f40bd465b515600460405180806020018381526020018281038252604f8152602001807f2f55736572732f73686f6b6973686f6b692f646576656c6f706d656e742f636f81526020017f6e73656e7379732f646973747269627574652f636f6e7472616374732f636f6e81526020017f7472616374732f5461736b2e736f6c00000000000000000000000000000000008152506060019250505060405180910390a17fb8679f046d83266c74431d76de105af34c44346257bf1ad5e5b5e78728958d98604f60405180806020018381526020018281038252604f8152602001807f2f55736572732f73686f6b6973686f6b692f646576656c6f706d656e742f636f81526020017f6e73656e7379732f646973747269627574652f636f6e7472616374732f636f6e81526020017f7472616374732f5461736b2e736f6c00000000000000000000000000000000008152506060019250505060405180910390a17f6f0975f9e319aef91b40172211ac445fd069f2a5f1469791a8c0397358ef5819600460405180806020018381526020018281038252604f8152602001807f2f55736572732f73686f6b6973686f6b692f646576656c6f706d656e742f636f81526020017f6e73656e7379732f646973747269627574652f636f6e7472616374732f636f6e81526020017f7472616374732f5461736b2e736f6c00000000000000000000000000000000008152506060019250505060405180910390a1336000806101000a81548173ffffffffffffffffffffffffffffffffffffffff021916908373ffffffffffffffffffffffffffffffffffffffff1602179055507fb8679f046d83266c74431d76de105af34c44346257bf1ad5e5b5e78728958d98605060405180806020018381526020018281038252604f8152602001807f2f55736572732f73686f6b6973686f6b692f646576656c6f706d656e742f636f81526020017f6e73656e7379732f646973747269627574652f636f6e7472616374732f636f6e81526020017f7472616374732f5461736b2e736f6c00000000000000000000000000000000008152506060019250505060405180910390a17f6f0975f9e319aef91b40172211ac445fd069f2a5f1469791a8c0397358ef5819600560405180806020018381526020018281038252604f8152602001807f2f55736572732f73686f6b6973686f6b692f646576656c6f706d656e742f636f81526020017f6e73656e7379732f646973747269627574652f636f6e7472616374732f636f6e81526020017f7472616374732f5461736b2e736f6c00000000000000000000000000000000008152506060019250505060405180910390a181600160006101000a81548173ffffffffffffffffffffffffffffffffffffffff021916908373ffffffffffffffffffffffffffffffffffffffff1602179055507fb8679f046d83266c74431d76de105af34c44346257bf1ad5e5b5e78728958d98605160405180806020018381526020018281038252604f8152602001807f2f55736572732f73686f6b6973686f6b692f646576656c6f706d656e742f636f81526020017f6e73656e7379732f646973747269627574652f636f6e7472616374732f636f6e81526020017f7472616374732f5461736b2e736f6c00000000000000000000000000000000008152506060019250505060405180910390a17f6f0975f9e319aef91b40172211ac445fd069f2a5f1469791a8c0397358ef5819600660405180806020018381526020018281038252604f8152602001807f2f55736572732f73686f6b6973686f6b692f646576656c6f706d656e742f636f81526020017f6e73656e7379732f646973747269627574652f636f6e7472616374732f636f6e81526020017f7472616374732f5461736b2e736f6c00000000000000000000000000000000008152506060019250505060405180910390a180600260006101000a81548173ffffffffffffffffffffffffffffffffffffffff021916908373ffffffffffffffffffffffffffffffffffffffff1602179055507fb8679f046d83266c74431d76de105af34c44346257bf1ad5e5b5e78728958d98605260405180806020018381526020018281038252604f8152602001807f2f55736572732f73686f6b6973686f6b692f646576656c6f706d656e742f636f81526020017f6e73656e7379732f646973747269627574652f636f6e7472616374732f636f6e81526020017f7472616374732f5461736b2e736f6c00000000000000000000000000000000008152506060019250505060405180910390a17f6f0975f9e319aef91b40172211ac445fd069f2a5f1469791a8c0397358ef5819600760405180806020018381526020018281038252604f8152602001807f2f55736572732f73686f6b6973686f6b692f646576656c6f706d656e742f636f81526020017f6e73656e7379732f646973747269627574652f636f6e7472616374732f636f6e81526020017f7472616374732f5461736b2e736f6c00000000000000000000000000000000008152506060019250505060405180910390a18260038160001916905550505050615c1580620007de6000396000f300606060405260043610610128576000357c0100000000000000000000000000000000000000000000000000000000900463ffffffff1680630a1399251461012d57806327b3bf1114610150578063522e117714610179578063599b6d23146101a65780636f13ab00146101cf57806373cc18da146101f85780637b566860146102435780638448a5a91461026c5780639bf71e1a146102b7578063a58fcbaa146102f0578063af38d75714610313578063b1ed11d114610340578063b3e9fd2c1461037d578063c41a3265146103ae578063d379be23146103c3578063da16fe8d14610418578063e24e8a6a14610445578063ed1ff6d81461046e578063ed9bbff514610497578063edb151a8146104c0578063fa52c7d8146104ed578063fb92bdd814610541575b600080fd5b341561013857600080fd5b61014e600480803590602001909190505061056a565b005b341561015b57600080fd5b610163610c74565b6040518082815260200191505060405180910390f35b341561018457600080fd5b61018c610c7a565b604051808215151515815260200191505060405180910390f35b34156101b157600080fd5b6101b9610c8d565b6040518082815260200191505060405180910390f35b34156101da57600080fd5b6101e2610c93565b6040518082815260200191505060405180910390f35b341561020357600080fd5b610241600480803590602001909190803590602001909190803573ffffffffffffffffffffffffffffffffffffffff16906020019091905050610c99565b005b341561024e57600080fd5b610256611a4f565b6040518082815260200191505060405180910390f35b341561027757600080fd5b6102b5600480803573ffffffffffffffffffffffffffffffffffffffff16906020019091908035906020019091908035906020019091905050611a55565b005b34156102c257600080fd5b6102ee600480803573ffffffffffffffffffffffffffffffffffffffff169060200190919050506129ce565b005b34156102fb57600080fd5b610311600480803590602001909190505061311a565b005b341561031e57600080fd5b610326613b29565b604051808215151515815260200191505060405180910390f35b341561034b57600080fd5b61036360048080351515906020019091905050613b3c565b604051808215151515815260200191505060405180910390f35b341561038857600080fd5b61039061543e565b60405180826000191660001916815260200191505060405180910390f35b34156103b957600080fd5b6103c1615444565b005b34156103ce57600080fd5b6103d6615b61565b604051808273ffffffffffffffffffffffffffffffffffffffff1673ffffffffffffffffffffffffffffffffffffffff16815260200191505060405180910390f35b341561042357600080fd5b61042b615b87565b604051808215151515815260200191505060405180910390f35b341561045057600080fd5b610458615b9a565b6040518082815260200191505060405180910390f35b341561047957600080fd5b610481615ba0565b6040518082815260200191505060405180910390f35b34156104a257600080fd5b6104aa615ba6565b6040518082815260200191505060405180910390f35b34156104cb57600080fd5b6104d3615bac565b604051808215151515815260200191505060405180910390f35b34156104f857600080fd5b610524600480803573ffffffffffffffffffffffffffffffffffffffff16906020019091905050615bbf565b604051808381526020018281526020019250505060405180910390f35b341561054c57600080fd5b610554615be3565b6040518082815260200191505060405180910390f35b7fa752e27bc51e9eb778ad98bde789076ff681a66d141f00385f19f40bd465b515600160405180806020018381526020018281038252604f8152602001807f2f55736572732f73686f6b6973686f6b692f646576656c6f706d656e742f636f81526020017f6e73656e7379732f646973747269627574652f636f6e7472616374732f636f6e81526020017f7472616374732f5461736b2e736f6c00000000000000000000000000000000008152506060019250505060405180910390a17fb8679f046d83266c74431d76de105af34c44346257bf1ad5e5b5e78728958d98603360405180806020018381526020018281038252604f8152602001807f2f55736572732f73686f6b6973686f6b692f646576656c6f706d656e742f636f81526020017f6e73656e7379732f646973747269627574652f636f6e7472616374732f636f6e81526020017f7472616374732f5461736b2e736f6c00000000000000000000000000000000008152506060019250505060405180910390a17f50c7af8f9f2114059c442002478177596876a49f89f83ebc53dfa756a4f4a540600160405180806020018381526020018281038252604f8152602001807f2f55736572732f73686f6b6973686f6b692f646576656c6f706d656e742f636f81526020017f6e73656e7379732f646973747269627574652f636f6e7472616374732f636f6e81526020017f7472616374732f5461736b2e736f6c00000000000000000000000000000000008152506060019250505060405180910390a17f6f0975f9e319aef91b40172211ac445fd069f2a5f1469791a8c0397358ef5819600160405180806020018381526020018281038252604f8152602001807f2f55736572732f73686f6b6973686f6b692f646576656c6f706d656e742f636f81526020017f6e73656e7379732f646973747269627574652f636f6e7472616374732f636f6e81526020017f7472616374732f5461736b2e736f6c00000000000000000000000000000000008152506060019250505060405180910390a16000809054906101000a900473ffffffffffffffffffffffffffffffffffffffff1673ffffffffffffffffffffffffffffffffffffffff163373ffffffffffffffffffffffffffffffffffffffff161415156108b957600080fd5b7f4e793477562d0bdb92a9f8a67e167ab8f016d648d7bd8b0430f25d68b440f3c6600160405180806020018381526020018281038252604f8152602001807f2f55736572732f73686f6b6973686f6b692f646576656c6f706d656e742f636f81526020017f6e73656e7379732f646973747269627574652f636f6e7472616374732f636f6e81526020017f7472616374732f5461736b2e736f6c00000000000000000000000000000000008152506060019250505060405180910390a17fb8679f046d83266c74431d76de105af34c44346257bf1ad5e5b5e78728958d98603460405180806020018381526020018281038252604f8152602001807f2f55736572732f73686f6b6973686f6b692f646576656c6f706d656e742f636f81526020017f6e73656e7379732f646973747269627574652f636f6e7472616374732f636f6e81526020017f7472616374732f5461736b2e736f6c00000000000000000000000000000000008152506060019250505060405180910390a17fa752e27bc51e9eb778ad98bde789076ff681a66d141f00385f19f40bd465b515600560405180806020018381526020018281038252604f8152602001807f2f55736572732f73686f6b6973686f6b692f646576656c6f706d656e742f636f81526020017f6e73656e7379732f646973747269627574652f636f6e7472616374732f636f6e81526020017f7472616374732f5461736b2e736f6c00000000000000000000000000000000008152506060019250505060405180910390a17fb8679f046d83266c74431d76de105af34c44346257bf1ad5e5b5e78728958d98606060405180806020018381526020018281038252604f8152602001807f2f55736572732f73686f6b6973686f6b692f646576656c6f706d656e742f636f81526020017f6e73656e7379732f646973747269627574652f636f6e7472616374732f636f6e81526020017f7472616374732f5461736b2e736f6c00000000000000000000000000000000008152506060019250505060405180910390a17f6f0975f9e319aef91b40172211ac445fd069f2a5f1469791a8c0397358ef5819600860405180806020018381526020018281038252604f8152602001807f2f55736572732f73686f6b6973686f6b692f646576656c6f706d656e742f636f81526020017f6e73656e7379732f646973747269627574652f636f6e7472616374732f636f6e81526020017f7472616374732f5461736b2e736f6c00000000000000000000000000000000008152506060019250505060405180910390a18060068190555050565b60095481565b600a60009054906101000a900460ff1681565b60065481565b60055481565b7fa752e27bc51e9eb778ad98bde789076ff681a66d141f00385f19f40bd465b515600360405180806020018381526020018281038252604f8152602001807f2f55736572732f73686f6b6973686f6b692f646576656c6f706d656e742f636f81526020017f6e73656e7379732f646973747269627574652f636f6e7472616374732f636f6e81526020017f7472616374732f5461736b2e736f6c00000000000000000000000000000000008152506060019250505060405180910390a17fb8679f046d83266c74431d76de105af34c44346257bf1ad5e5b5e78728958d98603d60405180806020018381526020018281038252604f8152602001807f2f55736572732f73686f6b6973686f6b692f646576656c6f706d656e742f636f81526020017f6e73656e7379732f646973747269627574652f636f6e7472616374732f636f6e81526020017f7472616374732f5461736b2e736f6c00000000000000000000000000000000008152506060019250505060405180910390a17f50c7af8f9f2114059c442002478177596876a49f89f83ebc53dfa756a4f4a540600360405180806020018381526020018281038252604f8152602001807f2f55736572732f73686f6b6973686f6b692f646576656c6f706d656e742f636f81526020017f6e73656e7379732f646973747269627574652f636f6e7472616374732f636f6e81526020017f7472616374732f5461736b2e736f6c00000000000000000000000000000000008152506060019250505060405180910390a17f6f0975f9e319aef91b40172211ac445fd069f2a5f1469791a8c0397358ef5819600360405180806020018381526020018281038252604f8152602001807f2f55736572732f73686f6b6973686f6b692f646576656c6f706d656e742f636f81526020017f6e73656e7379732f646973747269627574652f636f6e7472616374732f636f6e81526020017f7472616374732f5461736b2e736f6c00000000000000000000000000000000008152506060019250505060405180910390a16000809054906101000a900473ffffffffffffffffffffffffffffffffffffffff1673ffffffffffffffffffffffffffffffffffffffff163373ffffffffffffffffffffffffffffffffffffffff1614806110355750600260009054906101000a900473ffffffffffffffffffffffffffffffffffffffff1673ffffffffffffffffffffffffffffffffffffffff163373ffffffffffffffffffffffffffffffffffffffff16145b151561104057600080fd5b7f4e793477562d0bdb92a9f8a67e167ab8f016d648d7bd8b0430f25d68b440f3c6600360405180806020018381526020018281038252604f8152602001807f2f55736572732f73686f6b6973686f6b692f646576656c6f706d656e742f636f81526020017f6e73656e7379732f646973747269627574652f636f6e7472616374732f636f6e81526020017f7472616374732f5461736b2e736f6c00000000000000000000000000000000008152506060019250505060405180910390a17fb8679f046d83266c74431d76de105af34c44346257bf1ad5e5b5e78728958d98603e60405180806020018381526020018281038252604f8152602001807f2f55736572732f73686f6b6973686f6b692f646576656c6f706d656e742f636f81526020017f6e73656e7379732f646973747269627574652f636f6e7472616374732f636f6e81526020017f7472616374732f5461736b2e736f6c00000000000000000000000000000000008152506060019250505060405180910390a17fa752e27bc51e9eb778ad98bde789076ff681a66d141f00385f19f40bd465b515600660405180806020018381526020018281038252604f8152602001807f2f55736572732f73686f6b6973686f6b692f646576656c6f706d656e742f636f81526020017f6e73656e7379732f646973747269627574652f636f6e7472616374732f636f6e81526020017f7472616374732f5461736b2e736f6c00000000000000000000000000000000008152506060019250505060405180910390a17fb8679f046d83266c74431d76de105af34c44346257bf1ad5e5b5e78728958d98606c60405180806020018381526020018281038252604f8152602001807f2f55736572732f73686f6b6973686f6b692f646576656c6f706d656e742f636f81526020017f6e73656e7379732f646973747269627574652f636f6e7472616374732f636f6e81526020017f7472616374732f5461736b2e736f6c00000000000000000000000000000000008152506060019250505060405180910390a17f6f0975f9e319aef91b40172211ac445fd069f2a5f1469791a8c0397358ef5819600960405180806020018381526020018281038252604f8152602001807f2f55736572732f73686f6b6973686f6b692f646576656c6f706d656e742f636f81526020017f6e73656e7379732f646973747269627574652f636f6e7472616374732f636f6e81526020017f7472616374732f5461736b2e736f6c00000000000000000000000000000000008152506060019250505060405180910390a1826007819055507fb8679f046d83266c74431d76de105af34c44346257bf1ad5e5b5e78728958d98606d60405180806020018381526020018281038252604f8152602001807f2f55736572732f73686f6b6973686f6b692f646576656c6f706d656e742f636f81526020017f6e73656e7379732f646973747269627574652f636f6e7472616374732f636f6e81526020017f7472616374732f5461736b2e736f6c00000000000000000000000000000000008152506060019250505060405180910390a17f6f0975f9e319aef91b40172211ac445fd069f2a5f1469791a8c0397358ef5819600a60405180806020018381526020018281038252604f8152602001807f2f55736572732f73686f6b6973686f6b692f646576656c6f706d656e742f636f81526020017f6e73656e7379732f646973747269627574652f636f6e7472616374732f636f6e81526020017f7472616374732f5461736b2e736f6c00000000000000000000000000000000008152506060019250505060405180910390a1816008819055507fb8679f046d83266c74431d76de105af34c44346257bf1ad5e5b5e78728958d98606e60405180806020018381526020018281038252604f8152602001807f2f55736572732f73686f6b6973686f6b692f646576656c6f706d656e742f636f81526020017f6e73656e7379732f646973747269627574652f636f6e7472616374732f636f6e81526020017f7472616374732f5461736b2e736f6c00000000000000000000000000000000008152506060019250505060405180910390a17f6f0975f9e319aef91b40172211ac445fd069f2a5f1469791a8c0397358ef5819600b60405180806020018381526020018281038252604f8152602001807f2f55736572732f73686f6b6973686f6b692f646576656c6f706d656e742f636f81526020017f6e73656e7379732f646973747269627574652f636f6e7472616374732f636f6e81526020017f7472616374732f5461736b2e736f6c00000000000000000000000000000000008152506060019250505060405180910390a1426009819055507fb8679f046d83266c74431d76de105af34c44346257bf1ad5e5b5e78728958d98606f60405180806020018381526020018281038252604f8152602001807f2f55736572732f73686f6b6973686f6b692f646576656c6f706d656e742f636f81526020017f6e73656e7379732f646973747269627574652f636f6e7472616374732f636f6e81526020017f7472616374732f5461736b2e736f6c00000000000000000000000000000000008152506060019250505060405180910390a17f6f0975f9e319aef91b40172211ac445fd069f2a5f1469791a8c0397358ef5819600c60405180806020018381526020018281038252604f8152602001807f2f55736572732f73686f6b6973686f6b692f646576656c6f706d656e742f636f81526020017f6e73656e7379732f646973747269627574652f636f6e7472616374732f636f6e81526020017f7472616374732f5461736b2e736f6c00000000000000000000000000000000008152506060019250505060405180910390a16000600a60006101000a81548160ff0219169083151502179055507fb8679f046d83266c74431d76de105af34c44346257bf1ad5e5b5e78728958d98607060405180806020018381526020018281038252604f8152602001807f2f55736572732f73686f6b6973686f6b692f646576656c6f706d656e742f636f81526020017f6e73656e7379732f646973747269627574652f636f6e7472616374732f636f6e81526020017f7472616374732f5461736b2e736f6c00000000000000000000000000000000008152506060019250505060405180910390a17f6f0975f9e319aef91b40172211ac445fd069f2a5f1469791a8c0397358ef5819600d60405180806020018381526020018281038252604f8152602001807f2f55736572732f73686f6b6973686f6b692f646576656c6f706d656e742f636f81526020017f6e73656e7379732f646973747269627574652f636f6e7472616374732f636f6e81526020017f7472616374732f5461736b2e736f6c00000000000000000000000000000000008152506060019250505060405180910390a180600a60016101000a81548173ffffffffffffffffffffffffffffffffffffffff021916908373ffffffffffffffffffffffffffffffffffffffff160217905550505050565b60075481565b7fa752e27bc51e9eb778ad98bde789076ff681a66d141f00385f19f40bd465b515600260405180806020018381526020018281038252604f8152602001807f2f55736572732f73686f6b6973686f6b692f646576656c6f706d656e742f636f81526020017f6e73656e7379732f646973747269627574652f636f6e7472616374732f636f6e81526020017f7472616374732f5461736b2e736f6c00000000000000000000000000000000008152506060019250505060405180910390a17fb8679f046d83266c74431d76de105af34c44346257bf1ad5e5b5e78728958d98603860405180806020018381526020018281038252604f8152602001807f2f55736572732f73686f6b6973686f6b692f646576656c6f706d656e742f636f81526020017f6e73656e7379732f646973747269627574652f636f6e7472616374732f636f6e81526020017f7472616374732f5461736b2e736f6c00000000000000000000000000000000008152506060019250505060405180910390a17f50c7af8f9f2114059c442002478177596876a49f89f83ebc53dfa756a4f4a540600260405180806020018381526020018281038252604f8152602001807f2f55736572732f73686f6b6973686f6b692f646576656c6f706d656e742f636f81526020017f6e73656e7379732f646973747269627574652f636f6e7472616374732f636f6e81526020017f7472616374732f5461736b2e736f6c00000000000000000000000000000000008152506060019250505060405180910390a17f6f0975f9e319aef91b40172211ac445fd069f2a5f1469791a8c0397358ef5819600260405180806020018381526020018281038252604f8152602001807f2f55736572732f73686f6b6973686f6b692f646576656c6f706d656e742f636f81526020017f6e73656e7379732f646973747269627574652f636f6e7472616374732f636f6e81526020017f7472616374732f5461736b2e736f6c00000000000000000000000000000000008152506060019250505060405180910390a1600160009054906101000a900473ffffffffffffffffffffffffffffffffffffffff1673ffffffffffffffffffffffffffffffffffffffff163373ffffffffffffffffffffffffffffffffffffffff16141515611da557600080fd5b7f4e793477562d0bdb92a9f8a67e167ab8f016d648d7bd8b0430f25d68b440f3c6600260405180806020018381526020018281038252604f8152602001807f2f55736572732f73686f6b6973686f6b692f646576656c6f706d656e742f636f81526020017f6e73656e7379732f646973747269627574652f636f6e7472616374732f636f6e81526020017f7472616374732f5461736b2e736f6c00000000000000000000000000000000008152506060019250505060405180910390a17fb8679f046d83266c74431d76de105af34c44346257bf1ad5e5b5e78728958d98603960405180806020018381526020018281038252604f8152602001807f2f55736572732f73686f6b6973686f6b692f646576656c6f706d656e742f636f81526020017f6e73656e7379732f646973747269627574652f636f6e7472616374732f636f6e81526020017f7472616374732f5461736b2e736f6c00000000000000000000000000000000008152506060019250505060405180910390a17fa752e27bc51e9eb778ad98bde789076ff681a66d141f00385f19f40bd465b515600860405180806020018381526020018281038252604f8152602001807f2f55736572732f73686f6b6973686f6b692f646576656c6f706d656e742f636f81526020017f6e73656e7379732f646973747269627574652f636f6e7472616374732f636f6e81526020017f7472616374732f5461736b2e736f6c00000000000000000000000000000000008152506060019250505060405180910390a17fb8679f046d83266c74431d76de105af34c44346257bf1ad5e5b5e78728958d98608460405180806020018381526020018281038252604f8152602001807f2f55736572732f73686f6b6973686f6b692f646576656c6f706d656e742f636f81526020017f6e73656e7379732f646973747269627574652f636f6e7472616374732f636f6e81526020017f7472616374732f5461736b2e736f6c00000000000000000000000000000000008152506060019250505060405180910390a17f6f0975f9e319aef91b40172211ac445fd069f2a5f1469791a8c0397358ef5819600f60405180806020018381526020018281038252604f8152602001807f2f55736572732f73686f6b6973686f6b692f646576656c6f706d656e742f636f81526020017f6e73656e7379732f646973747269627574652f636f6e7472616374732f636f6e81526020017f7472616374732f5461736b2e736f6c00000000000000000000000000000000008152506060019250505060405180910390a1604080519081016040528083815260200182815250600c60008573ffffffffffffffffffffffffffffffffffffffff1673ffffffffffffffffffffffffffffffffffffffff16815260200190815260200160002060008201518160000155602082015181600101559050507fb8679f046d83266c74431d76de105af34c44346257bf1ad5e5b5e78728958d98608560405180806020018381526020018281038252604f8152602001807f2f55736572732f73686f6b6973686f6b692f646576656c6f706d656e742f636f81526020017f6e73656e7379732f646973747269627574652f636f6e7472616374732f636f6e81526020017f7472616374732f5461736b2e736f6c00000000000000000000000000000000008152506060019250505060405180910390a17f6f0975f9e319aef91b40172211ac445fd069f2a5f1469791a8c0397358ef5819601060405180806020018381526020018281038252604f8152602001807f2f55736572732f73686f6b6973686f6b692f646576656c6f706d656e742f636f81526020017f6e73656e7379732f646973747269627574652f636f6e7472616374732f636f6e81526020017f7472616374732f5461736b2e736f6c00000000000000000000000000000000008152506060019250505060405180910390a16001821461241d577fe7ce2bb2e339a4de0af41c7dbc37c99d3a8a34d522bfc4fe0206d8e8a04ad09c6004600160405180806020018481526020018381526020018281038252604f8152602001807f2f55736572732f73686f6b6973686f6b692f646576656c6f706d656e742f636f81526020017f6e73656e7379732f646973747269627574652f636f6e7472616374732f636f6e81526020017f7472616374732f5461736b2e736f6c0000000000000000000000000000000000815250606001935050505060405180910390a180600e6000828254019250508190556124f3565b7fe7ce2bb2e339a4de0af41c7dbc37c99d3a8a34d522bfc4fe0206d8e8a04ad09c6004600060405180806020018481526020018381526020018281038252604f8152602001807f2f55736572732f73686f6b6973686f6b692f646576656c6f706d656e742f636f81526020017f6e73656e7379732f646973747269627574652f636f6e7472616374732f636f6e81526020017f7472616374732f5461736b2e736f6c0000000000000000000000000000000000815250606001935050505060405180910390a180600d6000828254019250508190555b507fb8679f046d83266c74431d76de105af34c44346257bf1ad5e5b5e78728958d98608860405180806020018381526020018281038252604f8152602001807f2f55736572732f73686f6b6973686f6b692f646576656c6f706d656e742f636f81526020017f6e73656e7379732f646973747269627574652f636f6e7472616374732f636f6e81526020017f7472616374732f5461736b2e736f6c00000000000000000000000000000000008152506060019250505060405180910390a17f6f0975f9e319aef91b40172211ac445fd069f2a5f1469791a8c0397358ef5819601160405180806020018381526020018281038252604f8152602001807f2f55736572732f73686f6b6973686f6b692f646576656c6f706d656e742f636f81526020017f6e73656e7379732f646973747269627574652f636f6e7472616374732f636f6e81526020017f7472616374732f5461736b2e736f6c00000000000000000000000000000000008152506060019250505060405180910390a1600a60159054906101000a900460ff1615801561269d57506000600d541415801561269c57506000600e5414155b5b15612902577fe7ce2bb2e339a4de0af41c7dbc37c99d3a8a34d522bfc4fe0206d8e8a04ad09c6005600060405180806020018481526020018381526020018281038252604f8152602001807f2f55736572732f73686f6b6973686f6b692f646576656c6f706d656e742f636f81526020017f6e73656e7379732f646973747269627574652f636f6e7472616374732f636f6e81526020017f7472616374732f5461736b2e736f6c0000000000000000000000000000000000815250606001935050505060405180910390a17fb8679f046d83266c74431d76de105af34c44346257bf1ad5e5b5e78728958d98608960405180806020018381526020018281038252604f8152602001807f2f55736572732f73686f6b6973686f6b692f646576656c6f706d656e742f636f81526020017f6e73656e7379732f646973747269627574652f636f6e7472616374732f636f6e81526020017f7472616374732f5461736b2e736f6c00000000000000000000000000000000008152506060019250505060405180910390a17f6f0975f9e319aef91b40172211ac445fd069f2a5f1469791a8c0397358ef5819601260405180806020018381526020018281038252604f8152602001807f2f55736572732f73686f6b6973686f6b692f646576656c6f706d656e742f636f81526020017f6e73656e7379732f646973747269627574652f636f6e7472616374732f636f6e81526020017f7472616374732f5461736b2e736f6c00000000000000000000000000000000008152506060019250505060405180910390a16001600a60156101000a81548160ff0219169083151502179055506129c9565b7fe7ce2bb2e339a4de0af41c7dbc37c99d3a8a34d522bfc4fe0206d8e8a04ad09c6005600160405180806020018481526020018381526020018281038252604f8152602001807f2f55736572732f73686f6b6973686f6b692f646576656c6f706d656e742f636f81526020017f6e73656e7379732f646973747269627574652f636f6e7472616374732f636f6e81526020017f7472616374732f5461736b2e736f6c0000000000000000000000000000000000815250606001935050505060405180910390a15b505050565b7fa752e27bc51e9eb778ad98bde789076ff681a66d141f00385f19f40bd465b515600260405180806020018381526020018281038252604f8152602001807f2f55736572732f73686f6b6973686f6b692f646576656c6f706d656e742f636f81526020017f6e73656e7379732f646973747269627574652f636f6e7472616374732f636f6e81526020017f7472616374732f5461736b2e736f6c00000000000000000000000000000000008152506060019250505060405180910390a17fb8679f046d83266c74431d76de105af34c44346257bf1ad5e5b5e78728958d98603860405180806020018381526020018281038252604f8152602001807f2f55736572732f73686f6b6973686f6b692f646576656c6f706d656e742f636f81526020017f6e73656e7379732f646973747269627574652f636f6e7472616374732f636f6e81526020017f7472616374732f5461736b2e736f6c00000000000000000000000000000000008152506060019250505060405180910390a17f50c7af8f9f2114059c442002478177596876a49f89f83ebc53dfa756a4f4a540600260405180806020018381526020018281038252604f8152602001807f2f55736572732f73686f6b6973686f6b692f646576656c6f706d656e742f636f81526020017f6e73656e7379732f646973747269627574652f636f6e7472616374732f636f6e81526020017f7472616374732f5461736b2e736f6c00000000000000000000000000000000008152506060019250505060405180910390a17f6f0975f9e319aef91b40172211ac445fd069f2a5f1469791a8c0397358ef5819600260405180806020018381526020018281038252604f8152602001807f2f55736572732f73686f6b6973686f6b692f646576656c6f706d656e742f636f81526020017f6e73656e7379732f646973747269627574652f636f6e7472616374732f636f6e81526020017f7472616374732f5461736b2e736f6c00000000000000000000000000000000008152506060019250505060405180910390a1600160009054906101000a900473ffffffffffffffffffffffffffffffffffffffff1673ffffffffffffffffffffffffffffffffffffffff163373ffffffffffffffffffffffffffffffffffffffff16141515612d1e57600080fd5b7f4e793477562d0bdb92a9f8a67e167ab8f016d648d7bd8b0430f25d68b440f3c6600260405180806020018381526020018281038252604f8152602001807f2f55736572732f73686f6b6973686f6b692f646576656c6f706d656e742f636f81526020017f6e73656e7379732f646973747269627574652f636f6e7472616374732f636f6e81526020017f7472616374732f5461736b2e736f6c00000000000000000000000000000000008152506060019250505060405180910390a17fb8679f046d83266c74431d76de105af34c44346257bf1ad5e5b5e78728958d98603960405180806020018381526020018281038252604f8152602001807f2f55736572732f73686f6b6973686f6b692f646576656c6f706d656e742f636f81526020017f6e73656e7379732f646973747269627574652f636f6e7472616374732f636f6e81526020017f7472616374732f5461736b2e736f6c00000000000000000000000000000000008152506060019250505060405180910390a17fa752e27bc51e9eb778ad98bde789076ff681a66d141f00385f19f40bd465b515600b60405180806020018381526020018281038252604f8152602001807f2f55736572732f73686f6b6973686f6b692f646576656c6f706d656e742f636f81526020017f6e73656e7379732f646973747269627574652f636f6e7472616374732f636f6e81526020017f7472616374732f5461736b2e736f6c00000000000000000000000000000000008152506060019250505060405180910390a17fb8679f046d83266c74431d76de105af34c44346257bf1ad5e5b5e78728958d9860b360405180806020018381526020018281038252604f8152602001807f2f55736572732f73686f6b6973686f6b692f646576656c6f706d656e742f636f81526020017f6e73656e7379732f646973747269627574652f636f6e7472616374732f636f6e81526020017f7472616374732f5461736b2e736f6c00000000000000000000000000000000008152506060019250505060405180910390a17f6f0975f9e319aef91b40172211ac445fd069f2a5f1469791a8c0397358ef5819601f60405180806020018381526020018281038252604f8152602001807f2f55736572732f73686f6b6973686f6b692f646576656c6f706d656e742f636f81526020017f6e73656e7379732f646973747269627574652f636f6e7472616374732f636f6e81526020017f7472616374732f5461736b2e736f6c00000000000000000000000000000000008152506060019250505060405180910390a16000600c60008373ffffffffffffffffffffffffffffffffffffffff1673ffffffffffffffffffffffffffffffffffffffff1681526020019081526020016000206001018190555050565b7fa752e27bc51e9eb778ad98bde789076ff681a66d141f00385f19f40bd465b515600160405180806020018381526020018281038252604f8152602001807f2f55736572732f73686f6b6973686f6b692f646576656c6f706d656e742f636f81526020017f6e73656e7379732f646973747269627574652f636f6e7472616374732f636f6e81526020017f7472616374732f5461736b2e736f6c00000000000000000000000000000000008152506060019250505060405180910390a17fb8679f046d83266c74431d76de105af34c44346257bf1ad5e5b5e78728958d98603360405180806020018381526020018281038252604f8152602001807f2f55736572732f73686f6b6973686f6b692f646576656c6f706d656e742f636f81526020017f6e73656e7379732f646973747269627574652f636f6e7472616374732f636f6e81526020017f7472616374732f5461736b2e736f6c00000000000000000000000000000000008152506060019250505060405180910390a17f50c7af8f9f2114059c442002478177596876a49f89f83ebc53dfa756a4f4a540600160405180806020018381526020018281038252604f8152602001807f2f55736572732f73686f6b6973686f6b692f646576656c6f706d656e742f636f81526020017f6e73656e7379732f646973747269627574652f636f6e7472616374732f636f6e81526020017f7472616374732f5461736b2e736f6c00000000000000000000000000000000008152506060019250505060405180910390a17f6f0975f9e319aef91b40172211ac445fd069f2a5f1469791a8c0397358ef5819600160405180806020018381526020018281038252604f8152602001807f2f55736572732f73686f6b6973686f6b692f646576656c6f706d656e742f636f81526020017f6e73656e7379732f646973747269627574652f636f6e7472616374732f636f6e81526020017f7472616374732f5461736b2e736f6c00000000000000000000000000000000008152506060019250505060405180910390a16000809054906101000a900473ffffffffffffffffffffffffffffffffffffffff1673ffffffffffffffffffffffffffffffffffffffff163373ffffffffffffffffffffffffffffffffffffffff1614151561346957600080fd5b7f4e793477562d0bdb92a9f8a67e167ab8f016d648d7bd8b0430f25d68b440f3c6600160405180806020018381526020018281038252604f8152602001807f2f55736572732f73686f6b6973686f6b692f646576656c6f706d656e742f636f81526020017f6e73656e7379732f646973747269627574652f636f6e7472616374732f636f6e81526020017f7472616374732f5461736b2e736f6c00000000000000000000000000000000008152506060019250505060405180910390a17fb8679f046d83266c74431d76de105af34c44346257bf1ad5e5b5e78728958d98603460405180806020018381526020018281038252604f8152602001807f2f55736572732f73686f6b6973686f6b692f646576656c6f706d656e742f636f81526020017f6e73656e7379732f646973747269627574652f636f6e7472616374732f636f6e81526020017f7472616374732f5461736b2e736f6c00000000000000000000000000000000008152506060019250505060405180910390a17fa752e27bc51e9eb778ad98bde789076ff681a66d141f00385f19f40bd465b515600960405180806020018381526020018281038252604f8152602001807f2f55736572732f73686f6b6973686f6b692f646576656c6f706d656e742f636f81526020017f6e73656e7379732f646973747269627574652f636f6e7472616374732f636f6e81526020017f7472616374732f5461736b2e736f6c00000000000000000000000000000000008152506060019250505060405180910390a17fb8679f046d83266c74431d76de105af34c44346257bf1ad5e5b5e78728958d98609360405180806020018381526020018281038252604f8152602001807f2f55736572732f73686f6b6973686f6b692f646576656c6f706d656e742f636f81526020017f6e73656e7379732f646973747269627574652f636f6e7472616374732f636f6e81526020017f7472616374732f5461736b2e736f6c00000000000000000000000000000000008152506060019250505060405180910390a17f50c7af8f9f2114059c442002478177596876a49f89f83ebc53dfa756a4f4a540600660405180806020018381526020018281038252604f8152602001807f2f55736572732f73686f6b6973686f6b692f646576656c6f706d656e742f636f81526020017f6e73656e7379732f646973747269627574652f636f6e7472616374732f636f6e81526020017f7472616374732f5461736b2e736f6c00000000000000000000000000000000008152506060019250505060405180910390a17f6f0975f9e319aef91b40172211ac445fd069f2a5f1469791a8c0397358ef5819601360405180806020018381526020018281038252604f8152602001807f2f55736572732f73686f6b6973686f6b692f646576656c6f706d656e742f636f81526020017f6e73656e7379732f646973747269627574652f636f6e7472616374732f636f6e81526020017f7472616374732f5461736b2e736f6c00000000000000000000000000000000008152506060019250505060405180910390a160006005541415156138e857600080fd5b7f4e793477562d0bdb92a9f8a67e167ab8f016d648d7bd8b0430f25d68b440f3c6600660405180806020018381526020018281038252604f8152602001807f2f55736572732f73686f6b6973686f6b692f646576656c6f706d656e742f636f81526020017f6e73656e7379732f646973747269627574652f636f6e7472616374732f636f6e81526020017f7472616374732f5461736b2e736f6c00000000000000000000000000000000008152506060019250505060405180910390a17fb8679f046d83266c74431d76de105af34c44346257bf1ad5e5b5e78728958d98609460405180806020018381526020018281038252604f8152602001807f2f55736572732f73686f6b6973686f6b692f646576656c6f706d656e742f636f81526020017f6e73656e7379732f646973747269627574652f636f6e7472616374732f636f6e81526020017f7472616374732f5461736b2e736f6c00000000000000000000000000000000008152506060019250505060405180910390a17f6f0975f9e319aef91b40172211ac445fd069f2a5f1469791a8c0397358ef5819601460405180806020018381526020018281038252604f8152602001807f2f55736572732f73686f6b6973686f6b692f646576656c6f706d656e742f636f81526020017f6e73656e7379732f646973747269627574652f636f6e7472616374732f636f6e81526020017f7472616374732f5461736b2e736f6c00000000000000000000000000000000008152506060019250505060405180910390a18060058190555050565b600460009054906101000a900460ff1681565b60007fa752e27bc51e9eb778ad98bde789076ff681a66d141f00385f19f40bd465b515600160405180806020018381526020018281038252604f8152602001807f2f55736572732f73686f6b6973686f6b692f646576656c6f706d656e742f636f81526020017f6e73656e7379732f646973747269627574652f636f6e7472616374732f636f6e81526020017f7472616374732f5461736b2e736f6c00000000000000000000000000000000008152506060019250505060405180910390a17fb8679f046d83266c74431d76de105af34c44346257bf1ad5e5b5e78728958d98603360405180806020018381526020018281038252604f8152602001807f2f55736572732f73686f6b6973686f6b692f646576656c6f706d656e742f636f81526020017f6e73656e7379732f646973747269627574652f636f6e7472616374732f636f6e81526020017f7472616374732f5461736b2e736f6c00000000000000000000000000000000008152506060019250505060405180910390a17f50c7af8f9f2114059c442002478177596876a49f89f83ebc53dfa756a4f4a540600160405180806020018381526020018281038252604f8152602001807f2f55736572732f73686f6b6973686f6b692f646576656c6f706d656e742f636f81526020017f6e73656e7379732f646973747269627574652f636f6e7472616374732f636f6e81526020017f7472616374732f5461736b2e736f6c00000000000000000000000000000000008152506060019250505060405180910390a17f6f0975f9e319aef91b40172211ac445fd069f2a5f1469791a8c0397358ef5819600160405180806020018381526020018281038252604f8152602001807f2f55736572732f73686f6b6973686f6b692f646576656c6f706d656e742f636f81526020017f6e73656e7379732f646973747269627574652f636f6e7472616374732f636f6e81526020017f7472616374732f5461736b2e736f6c00000000000000000000000000000000008152506060019250505060405180910390a16000809054906101000a900473ffffffffffffffffffffffffffffffffffffffff1673ffffffffffffffffffffffffffffffffffffffff163373ffffffffffffffffffffffffffffffffffffffff16141515613e8d57600080fd5b7f4e793477562d0bdb92a9f8a67e167ab8f016d648d7bd8b0430f25d68b440f3c6600160405180806020018381526020018281038252604f8152602001807f2f55736572732f73686f6b6973686f6b692f646576656c6f706d656e742f636f81526020017f6e73656e7379732f646973747269627574652f636f6e7472616374732f636f6e81526020017f7472616374732f5461736b2e736f6c00000000000000000000000000000000008152506060019250505060405180910390a17fb8679f046d83266c74431d76de105af34c44346257bf1ad5e5b5e78728958d98603460405180806020018381526020018281038252604f8152602001807f2f55736572732f73686f6b6973686f6b692f646576656c6f706d656e742f636f81526020017f6e73656e7379732f646973747269627574652f636f6e7472616374732f636f6e81526020017f7472616374732f5461736b2e736f6c00000000000000000000000000000000008152506060019250505060405180910390a17fa752e27bc51e9eb778ad98bde789076ff681a66d141f00385f19f40bd465b515600a60405180806020018381526020018281038252604f8152602001807f2f55736572732f73686f6b6973686f6b692f646576656c6f706d656e742f636f81526020017f6e73656e7379732f646973747269627574652f636f6e7472616374732f636f6e81526020017f7472616374732f5461736b2e736f6c00000000000000000000000000000000008152506060019250505060405180910390a17fb8679f046d83266c74431d76de105af34c44346257bf1ad5e5b5e78728958d98609e60405180806020018381526020018281038252604f8152602001807f2f55736572732f73686f6b6973686f6b692f646576656c6f706d656e742f636f81526020017f6e73656e7379732f646973747269627574652f636f6e7472616374732f636f6e81526020017f7472616374732f5461736b2e736f6c00000000000000000000000000000000008152506060019250505060405180910390a17f6f0975f9e319aef91b40172211ac445fd069f2a5f1469791a8c0397358ef5819601560405180806020018381526020018281038252604f8152602001807f2f55736572732f73686f6b6973686f6b692f646576656c6f706d656e742f636f81526020017f6e73656e7379732f646973747269627574652f636f6e7472616374732f636f6e81526020017f7472616374732f5461736b2e736f6c00000000000000000000000000000000008152506060019250505060405180910390a16000600d54148061425157506000600e54145b156148a6577fe7ce2bb2e339a4de0af41c7dbc37c99d3a8a34d522bfc4fe0206d8e8a04ad09c6007600060405180806020018481526020018381526020018281038252604f8152602001807f2f55736572732f73686f6b6973686f6b692f646576656c6f706d656e742f636f81526020017f6e73656e7379732f646973747269627574652f636f6e7472616374732f636f6e81526020017f7472616374732f5461736b2e736f6c0000000000000000000000000000000000815250606001935050505060405180910390a17fb8679f046d83266c74431d76de105af34c44346257bf1ad5e5b5e78728958d98609f60405180806020018381526020018281038252604f8152602001807f2f55736572732f73686f6b6973686f6b692f646576656c6f706d656e742f636f81526020017f6e73656e7379732f646973747269627574652f636f6e7472616374732f636f6e81526020017f7472616374732f5461736b2e736f6c00000000000000000000000000000000008152506060019250505060405180910390a17f6f0975f9e319aef91b40172211ac445fd069f2a5f1469791a8c0397358ef5819601660405180806020018381526020018281038252604f8152602001807f2f55736572732f73686f6b6973686f6b692f646576656c6f706d656e742f636f81526020017f6e73656e7379732f646973747269627574652f636f6e7472616374732f636f6e81526020017f7472616374732f5461736b2e736f6c00000000000000000000000000000000008152506060019250505060405180910390a16001600460006101000a81548160ff0219169083151502179055507fb8679f046d83266c74431d76de105af34c44346257bf1ad5e5b5e78728958d9860a060405180806020018381526020018281038252604f8152602001807f2f55736572732f73686f6b6973686f6b692f646576656c6f706d656e742f636f81526020017f6e73656e7379732f646973747269627574652f636f6e7472616374732f636f6e81526020017f7472616374732f5461736b2e736f6c00000000000000000000000000000000008152506060019250505060405180910390a17f6f0975f9e319aef91b40172211ac445fd069f2a5f1469791a8c0397358ef5819601760405180806020018381526020018281038252604f8152602001807f2f55736572732f73686f6b6973686f6b692f646576656c6f706d656e742f636f81526020017f6e73656e7379732f646973747269627574652f636f6e7472616374732f636f6e81526020017f7472616374732f5461736b2e736f6c00000000000000000000000000000000008152506060019250505060405180910390a1600e54600d5411156147da577fe7ce2bb2e339a4de0af41c7dbc37c99d3a8a34d522bfc4fe0206d8e8a04ad09c6008600060405180806020018481526020018381526020018281038252604f8152602001807f2f55736572732f73686f6b6973686f6b692f646576656c6f706d656e742f636f81526020017f6e73656e7379732f646973747269627574652f636f6e7472616374732f636f6e81526020017f7472616374732f5461736b2e736f6c0000000000000000000000000000000000815250606001935050505060405180910390a17f6f0975f9e319aef91b40172211ac445fd069f2a5f1469791a8c0397358ef5819601860405180806020018381526020018281038252604f8152602001807f2f55736572732f73686f6b6973686f6b692f646576656c6f706d656e742f636f81526020017f6e73656e7379732f646973747269627574652f636f6e7472616374732f636f6e81526020017f7472616374732f5461736b2e736f6c00000000000000000000000000000000008152506060019250505060405180910390a16001600460016101000a81548160ff0219169083151502179055506148a1565b7fe7ce2bb2e339a4de0af41c7dbc37c99d3a8a34d522bfc4fe0206d8e8a04ad09c6008600160405180806020018481526020018381526020018281038252604f8152602001807f2f55736572732f73686f6b6973686f6b692f646576656c6f706d656e742f636f81526020017f6e73656e7379732f646973747269627574652f636f6e7472616374732f636f6e81526020017f7472616374732f5461736b2e736f6c0000000000000000000000000000000000815250606001935050505060405180910390a15b6152ad565b7fe7ce2bb2e339a4de0af41c7dbc37c99d3a8a34d522bfc4fe0206d8e8a04ad09c6007600160405180806020018481526020018381526020018281038252604f8152602001807f2f55736572732f73686f6b6973686f6b692f646576656c6f706d656e742f636f81526020017f6e73656e7379732f646973747269627574652f636f6e7472616374732f636f6e81526020017f7472616374732f5461736b2e736f6c0000000000000000000000000000000000815250606001935050505060405180910390a17fb8679f046d83266c74431d76de105af34c44346257bf1ad5e5b5e78728958d9860a260405180806020018381526020018281038252604f8152602001807f2f55736572732f73686f6b6973686f6b692f646576656c6f706d656e742f636f81526020017f6e73656e7379732f646973747269627574652f636f6e7472616374732f636f6e81526020017f7472616374732f5461736b2e736f6c00000000000000000000000000000000008152506060019250505060405180910390a17f6f0975f9e319aef91b40172211ac445fd069f2a5f1469791a8c0397358ef5819601960405180806020018381526020018281038252604f8152602001807f2f55736572732f73686f6b6973686f6b692f646576656c6f706d656e742f636f81526020017f6e73656e7379732f646973747269627574652f636f6e7472616374732f636f6e81526020017f7472616374732f5461736b2e736f6c00000000000000000000000000000000008152506060019250505060405180910390a16001600460006101000a81548160ff0219169083151502179055507fb8679f046d83266c74431d76de105af34c44346257bf1ad5e5b5e78728958d9860a360405180806020018381526020018281038252604f8152602001807f2f55736572732f73686f6b6973686f6b692f646576656c6f706d656e742f636f81526020017f6e73656e7379732f646973747269627574652f636f6e7472616374732f636f6e81526020017f7472616374732f5461736b2e736f6c00000000000000000000000000000000008152506060019250505060405180910390a17f6f0975f9e319aef91b40172211ac445fd069f2a5f1469791a8c0397358ef5819601a60405180806020018381526020018281038252604f8152602001807f2f55736572732f73686f6b6973686f6b692f646576656c6f706d656e742f636f81526020017f6e73656e7379732f646973747269627574652f636f6e7472616374732f636f6e81526020017f7472616374732f5461736b2e736f6c00000000000000000000000000000000008152506060019250505060405180910390a18115615063577fe7ce2bb2e339a4de0af41c7dbc37c99d3a8a34d522bfc4fe0206d8e8a04ad09c6009600060405180806020018481526020018381526020018281038252604f8152602001807f2f55736572732f73686f6b6973686f6b692f646576656c6f706d656e742f636f81526020017f6e73656e7379732f646973747269627574652f636f6e7472616374732f636f6e81526020017f7472616374732f5461736b2e736f6c0000000000000000000000000000000000815250606001935050505060405180910390a17fb8679f046d83266c74431d76de105af34c44346257bf1ad5e5b5e78728958d9860a460405180806020018381526020018281038252604f8152602001807f2f55736572732f73686f6b6973686f6b692f646576656c6f706d656e742f636f81526020017f6e73656e7379732f646973747269627574652f636f6e7472616374732f636f6e81526020017f7472616374732f5461736b2e736f6c00000000000000000000000000000000008152506060019250505060405180910390a17f6f0975f9e319aef91b40172211ac445fd069f2a5f1469791a8c0397358ef5819601b60405180806020018381526020018281038252604f8152602001807f2f55736572732f73686f6b6973686f6b692f646576656c6f706d656e742f636f81526020017f6e73656e7379732f646973747269627574652f636f6e7472616374732f636f6e81526020017f7472616374732f5461736b2e736f6c00000000000000000000000000000000008152506060019250505060405180910390a16001600460016101000a81548160ff0219169083151502179055507fb8679f046d83266c74431d76de105af34c44346257bf1ad5e5b5e78728958d9860a560405180806020018381526020018281038252604f8152602001807f2f55736572732f73686f6b6973686f6b692f646576656c6f706d656e742f636f81526020017f6e73656e7379732f646973747269627574652f636f6e7472616374732f636f6e81526020017f7472616374732f5461736b2e736f6c00000000000000000000000000000000008152506060019250505060405180910390a17f6f0975f9e319aef91b40172211ac445fd069f2a5f1469791a8c0397358ef5819601c60405180806020018381526020018281038252604f8152602001807f2f55736572732f73686f6b6973686f6b692f646576656c6f706d656e742f636f81526020017f6e73656e7379732f646973747269627574652f636f6e7472616374732f636f6e81526020017f7472616374732f5461736b2e736f6c00000000000000000000000000000000008152506060019250505060405180910390a16000600e819055506152ac565b7fe7ce2bb2e339a4de0af41c7dbc37c99d3a8a34d522bfc4fe0206d8e8a04ad09c6009600160405180806020018481526020018381526020018281038252604f8152602001807f2f55736572732f73686f6b6973686f6b692f646576656c6f706d656e742f636f81526020017f6e73656e7379732f646973747269627574652f636f6e7472616374732f636f6e81526020017f7472616374732f5461736b2e736f6c0000000000000000000000000000000000815250606001935050505060405180910390a17fb8679f046d83266c74431d76de105af34c44346257bf1ad5e5b5e78728958d9860a760405180806020018381526020018281038252604f8152602001807f2f55736572732f73686f6b6973686f6b692f646576656c6f706d656e742f636f81526020017f6e73656e7379732f646973747269627574652f636f6e7472616374732f636f6e81526020017f7472616374732f5461736b2e736f6c00000000000000000000000000000000008152506060019250505060405180910390a17f6f0975f9e319aef91b40172211ac445fd069f2a5f1469791a8c0397358ef5819601d60405180806020018381526020018281038252604f8152602001807f2f55736572732f73686f6b6973686f6b692f646576656c6f706d656e742f636f81526020017f6e73656e7379732f646973747269627574652f636f6e7472616374732f636f6e81526020017f7472616374732f5461736b2e736f6c00000000000000000000000000000000008152506060019250505060405180910390a16000600d819055505b5b7fb8679f046d83266c74431d76de105af34c44346257bf1ad5e5b5e78728958d9860aa60405180806020018381526020018281038252604f8152602001807f2f55736572732f73686f6b6973686f6b692f646576656c6f706d656e742f636f81526020017f6e73656e7379732f646973747269627574652f636f6e7472616374732f636f6e81526020017f7472616374732f5461736b2e736f6c00000000000000000000000000000000008152506060019250505060405180910390a17f6f0975f9e319aef91b40172211ac445fd069f2a5f1469791a8c0397358ef5819601e60405180806020018381526020018281038252604f8152602001807f2f55736572732f73686f6b6973686f6b692f646576656c6f706d656e742f636f81526020017f6e73656e7379732f646973747269627574652f636f6e7472616374732f636f6e81526020017f7472616374732f5461736b2e736f6c00000000000000000000000000000000008152506060019250505060405180910390a1600460019054906101000a900460ff169050919050565b60035481565b7fa752e27bc51e9eb778ad98bde789076ff681a66d141f00385f19f40bd465b515600160405180806020018381526020018281038252604f8152602001807f2f55736572732f73686f6b6973686f6b692f646576656c6f706d656e742f636f81526020017f6e73656e7379732f646973747269627574652f636f6e7472616374732f636f6e81526020017f7472616374732f5461736b2e736f6c00000000000000000000000000000000008152506060019250505060405180910390a17fb8679f046d83266c74431d76de105af34c44346257bf1ad5e5b5e78728958d98603360405180806020018381526020018281038252604f8152602001807f2f55736572732f73686f6b6973686f6b692f646576656c6f706d656e742f636f81526020017f6e73656e7379732f646973747269627574652f636f6e7472616374732f636f6e81526020017f7472616374732f5461736b2e736f6c00000000000000000000000000000000008152506060019250505060405180910390a17f50c7af8f9f2114059c442002478177596876a49f89f83ebc53dfa756a4f4a540600160405180806020018381526020018281038252604f8152602001807f2f55736572732f73686f6b6973686f6b692f646576656c6f706d656e742f636f81526020017f6e73656e7379732f646973747269627574652f636f6e7472616374732f636f6e81526020017f7472616374732f5461736b2e736f6c00000000000000000000000000000000008152506060019250505060405180910390a17f6f0975f9e319aef91b40172211ac445fd069f2a5f1469791a8c0397358ef5819600160405180806020018381526020018281038252604f8152602001807f2f55736572732f73686f6b6973686f6b692f646576656c6f706d656e742f636f81526020017f6e73656e7379732f646973747269627574652f636f6e7472616374732f636f6e81526020017f7472616374732f5461736b2e736f6c00000000000000000000000000000000008152506060019250505060405180910390a16000809054906101000a900473ffffffffffffffffffffffffffffffffffffffff1673ffffffffffffffffffffffffffffffffffffffff163373ffffffffffffffffffffffffffffffffffffffff1614151561579357600080fd5b7f4e793477562d0bdb92a9f8a67e167ab8f016d648d7bd8b0430f25d68b440f3c6600160405180806020018381526020018281038252604f8152602001807f2f55736572732f73686f6b6973686f6b692f646576656c6f706d656e742f636f81526020017f6e73656e7379732f646973747269627574652f636f6e7472616374732f636f6e81526020017f7472616374732f5461736b2e736f6c00000000000000000000000000000000008152506060019250505060405180910390a17fb8679f046d83266c74431d76de105af34c44346257bf1ad5e5b5e78728958d98603460405180806020018381526020018281038252604f8152602001807f2f55736572732f73686f6b6973686f6b692f646576656c6f706d656e742f636f81526020017f6e73656e7379732f646973747269627574652f636f6e7472616374732f636f6e81526020017f7472616374732f5461736b2e736f6c00000000000000000000000000000000008152506060019250505060405180910390a17fa752e27bc51e9eb778ad98bde789076ff681a66d141f00385f19f40bd465b515600760405180806020018381526020018281038252604f8152602001807f2f55736572732f73686f6b6973686f6b692f646576656c6f706d656e742f636f81526020017f6e73656e7379732f646973747269627574652f636f6e7472616374732f636f6e81526020017f7472616374732f5461736b2e736f6c00000000000000000000000000000000008152506060019250505060405180910390a17fb8679f046d83266c74431d76de105af34c44346257bf1ad5e5b5e78728958d98607860405180806020018381526020018281038252604f8152602001807f2f55736572732f73686f6b6973686f6b692f646576656c6f706d656e742f636f81526020017f6e73656e7379732f646973747269627574652f636f6e7472616374732f636f6e81526020017f7472616374732f5461736b2e736f6c00000000000000000000000000000000008152506060019250505060405180910390a17f6f0975f9e319aef91b40172211ac445fd069f2a5f1469791a8c0397358ef5819600e60405180806020018381526020018281038252604f8152602001807f2f55736572732f73686f6b6973686f6b692f646576656c6f706d656e742f636f81526020017f6e73656e7379732f646973747269627574652f636f6e7472616374732f636f6e81526020017f7472616374732f5461736b2e736f6c00000000000000000000000000000000008152506060019250505060405180910390a16001600a60006101000a81548160ff021916908315150217905550565b600a60019054906101000a900473ffffffffffffffffffffffffffffffffffffffff1681565b600a60159054906101000a900460ff1681565b600e5481565b60085481565b600d5481565b600460019054906101000a900460ff1681565b600c6020528060005260406000206000915090508060000154908060010154905082565b600b54815600a165627a7a72305820b7b2498aa1fa8e48ccf1358ff37ad58aec22d7767dea56d7daa861733fd7f9f50029","source":"pragma solidity ^0.4.19;\n\nimport \"./Project.sol\";\n\n/**\n@title Task Contract for Distribute Network\n@author Team: Jessica Marshall, Ashoka Finley\n@notice  This contract manages a single task for a project\n@dev This contract is initialized by the Project Registry contract with the address of a valid\nTokenRegistry, and ReputationRegistry.\n*/\ncontract Task {event __CoverageTask(string fileName, uint256 lineNumber);\nevent __FunctionCoverageTask(string fileName, uint256 fnId);\nevent __StatementCoverageTask(string fileName, uint256 statementId);\nevent __BranchCoverageTask(string fileName, uint256 branchId, uint256 locationIdx);\nevent __AssertPreCoverageTask(string fileName, uint256 branchId);\nevent __AssertPostCoverageTask(string fileName, uint256 branchId);\n\n\n    // =====================================================================\n    // STATE VARIABLES\n    // =====================================================================\n\n    address projectRegistryAddress;\n    address tokenRegistryAddress;\n    address reputationRegistryAddress;\n\n    bytes32 public taskHash;\n    bool public claimable;\n    bool public claimableByRep;\n    uint256 public pollId;\n    uint256 public weighting;\n\n    uint256 public weiReward;\n    uint256 public reputationReward;\n    uint256 public claimTime;\n    bool public complete;\n    address public claimer;\n\n    struct Validator {\n        uint256 status;\n        uint256 stake;\n    }\n\n    bool public opposingValidator = false;\n    uint256 public validateReward;\n\n    mapping (address => Validator) public validators;\n    uint256 public totalValidateAffirmative;\n    uint256 public totalValidateNegative;\n\n    // =====================================================================\n    // MODIFIERS\n    // =====================================================================\n\n    modifier onlyPR() {__FunctionCoverageTask('/Users/shokishoki/development/consensys/distribute/contracts/contracts/Task.sol',1);\n\n__CoverageTask('/Users/shokishoki/development/consensys/distribute/contracts/contracts/Task.sol',51);\n        __AssertPreCoverageTask('/Users/shokishoki/development/consensys/distribute/contracts/contracts/Task.sol',1);\n __StatementCoverageTask('/Users/shokishoki/development/consensys/distribute/contracts/contracts/Task.sol',1);\nrequire(msg.sender == projectRegistryAddress);__AssertPostCoverageTask('/Users/shokishoki/development/consensys/distribute/contracts/contracts/Task.sol',1);\n\n__CoverageTask('/Users/shokishoki/development/consensys/distribute/contracts/contracts/Task.sol',52);\n        _;\n    }\n\n    modifier onlyTR() {__FunctionCoverageTask('/Users/shokishoki/development/consensys/distribute/contracts/contracts/Task.sol',2);\n\n__CoverageTask('/Users/shokishoki/development/consensys/distribute/contracts/contracts/Task.sol',56);\n        __AssertPreCoverageTask('/Users/shokishoki/development/consensys/distribute/contracts/contracts/Task.sol',2);\n __StatementCoverageTask('/Users/shokishoki/development/consensys/distribute/contracts/contracts/Task.sol',2);\nrequire(msg.sender == tokenRegistryAddress);__AssertPostCoverageTask('/Users/shokishoki/development/consensys/distribute/contracts/contracts/Task.sol',2);\n\n__CoverageTask('/Users/shokishoki/development/consensys/distribute/contracts/contracts/Task.sol',57);\n        _;\n    }\n\n    modifier onlyPRorRR() {__FunctionCoverageTask('/Users/shokishoki/development/consensys/distribute/contracts/contracts/Task.sol',3);\n\n__CoverageTask('/Users/shokishoki/development/consensys/distribute/contracts/contracts/Task.sol',61);\n        __AssertPreCoverageTask('/Users/shokishoki/development/consensys/distribute/contracts/contracts/Task.sol',3);\n __StatementCoverageTask('/Users/shokishoki/development/consensys/distribute/contracts/contracts/Task.sol',3);\nrequire(msg.sender == projectRegistryAddress || msg.sender == reputationRegistryAddress);__AssertPostCoverageTask('/Users/shokishoki/development/consensys/distribute/contracts/contracts/Task.sol',3);\n\n__CoverageTask('/Users/shokishoki/development/consensys/distribute/contracts/contracts/Task.sol',62);\n        _;\n    }\n\n    // =====================================================================\n    // CONSTRUCTOR\n    // =====================================================================\n\n    /**\n    @notice Initialize a task related to a project with a hash of the description and weighting\n    `_hash` and the addresses of the TokenRegistry `_tokenRegistry` and ReputationRegistry\n    `_reputationRegistry`\n    @dev Created iteratively by the Project Registry contract\n    @param _hash Hash of the tasks Description and Weighting\n    @param _tokenRegistry Address of the TokenRegistry\n    @param _reputationRegistry Address of the ReputationRegistry\n    */\n    function Task(bytes32 _hash, address _tokenRegistry, address _reputationRegistry) public {__FunctionCoverageTask('/Users/shokishoki/development/consensys/distribute/contracts/contracts/Task.sol',4);\n\n__CoverageTask('/Users/shokishoki/development/consensys/distribute/contracts/contracts/Task.sol',79);\n         __StatementCoverageTask('/Users/shokishoki/development/consensys/distribute/contracts/contracts/Task.sol',4);\nprojectRegistryAddress = msg.sender;\n__CoverageTask('/Users/shokishoki/development/consensys/distribute/contracts/contracts/Task.sol',80);\n         __StatementCoverageTask('/Users/shokishoki/development/consensys/distribute/contracts/contracts/Task.sol',5);\ntokenRegistryAddress = _tokenRegistry;\n__CoverageTask('/Users/shokishoki/development/consensys/distribute/contracts/contracts/Task.sol',81);\n         __StatementCoverageTask('/Users/shokishoki/development/consensys/distribute/contracts/contracts/Task.sol',6);\nreputationRegistryAddress = _reputationRegistry;\n__CoverageTask('/Users/shokishoki/development/consensys/distribute/contracts/contracts/Task.sol',82);\n         __StatementCoverageTask('/Users/shokishoki/development/consensys/distribute/contracts/contracts/Task.sol',7);\ntaskHash = _hash;\n    }\n\n    // =====================================================================\n    // SETTERS\n    // =====================================================================\n\n    /**\n    @notice Set the weighting of the task to `_weighting` which represent the proportion of the project\n    cost it represents\n    @dev Only callable by the Project Registry\n    @param _weighting Weighting of the task\n    */\n    function setWeighting(uint256 _weighting) public onlyPR {__FunctionCoverageTask('/Users/shokishoki/development/consensys/distribute/contracts/contracts/Task.sol',5);\n\n__CoverageTask('/Users/shokishoki/development/consensys/distribute/contracts/contracts/Task.sol',96);\n         __StatementCoverageTask('/Users/shokishoki/development/consensys/distribute/contracts/contracts/Task.sol',8);\nweighting = _weighting;\n    }\n\n    /**\n    @notice Set the ether reward of the task to `weiVal` and the required reputation to claim to\n    `_reputationVal`, with the address of the claimer `_claimer`\n    @dev Only callable by the ReputationRegistry or ProjectRegistry\n    @param _weiVal Ether Reward of the Task\n    @param _reputationVal Reputation threshold for claiming\n    @param _claimer Address of account who has claimed the task\n    */\n    function setTaskReward(uint256 _weiVal, uint256 _reputationVal, address _claimer) public onlyPRorRR {__FunctionCoverageTask('/Users/shokishoki/development/consensys/distribute/contracts/contracts/Task.sol',6);\n\n__CoverageTask('/Users/shokishoki/development/consensys/distribute/contracts/contracts/Task.sol',108);\n         __StatementCoverageTask('/Users/shokishoki/development/consensys/distribute/contracts/contracts/Task.sol',9);\nweiReward = _weiVal;\n__CoverageTask('/Users/shokishoki/development/consensys/distribute/contracts/contracts/Task.sol',109);\n         __StatementCoverageTask('/Users/shokishoki/development/consensys/distribute/contracts/contracts/Task.sol',10);\nreputationReward = _reputationVal;\n__CoverageTask('/Users/shokishoki/development/consensys/distribute/contracts/contracts/Task.sol',110);\n         __StatementCoverageTask('/Users/shokishoki/development/consensys/distribute/contracts/contracts/Task.sol',11);\nclaimTime = now;\n__CoverageTask('/Users/shokishoki/development/consensys/distribute/contracts/contracts/Task.sol',111);\n         __StatementCoverageTask('/Users/shokishoki/development/consensys/distribute/contracts/contracts/Task.sol',12);\ncomplete = false;\n__CoverageTask('/Users/shokishoki/development/consensys/distribute/contracts/contracts/Task.sol',112);\n         __StatementCoverageTask('/Users/shokishoki/development/consensys/distribute/contracts/contracts/Task.sol',13);\nclaimer = _claimer;\n    }\n\n    /**\n    @notice Marks task as completed\n    @dev Only callable by the Project Registry\n    */\n    function markTaskComplete() public onlyPR {__FunctionCoverageTask('/Users/shokishoki/development/consensys/distribute/contracts/contracts/Task.sol',7);\n\n__CoverageTask('/Users/shokishoki/development/consensys/distribute/contracts/contracts/Task.sol',120);\n         __StatementCoverageTask('/Users/shokishoki/development/consensys/distribute/contracts/contracts/Task.sol',14);\ncomplete = true;\n    }\n\n    /**\n    @notice Set validator of the current task, if the validator is of a different type than the other\n    validators i.e. No when there are only Yes validators, then sets opposingValidator to true.\n    @dev Only callable by the Token Registry\n    @param _validator Address of validator\n    @param _validationVal Flag for positive or negative validation\n    @param _tokens Amount of tokens to stake on Validation.\n    */\n    function setValidator(address _validator, uint256 _validationVal, uint256 _tokens) public onlyTR {__FunctionCoverageTask('/Users/shokishoki/development/consensys/distribute/contracts/contracts/Task.sol',8);\n\n__CoverageTask('/Users/shokishoki/development/consensys/distribute/contracts/contracts/Task.sol',132);\n         __StatementCoverageTask('/Users/shokishoki/development/consensys/distribute/contracts/contracts/Task.sol',15);\nvalidators[_validator] = Validator(_validationVal, _tokens);\n__CoverageTask('/Users/shokishoki/development/consensys/distribute/contracts/contracts/Task.sol',133);\n         __StatementCoverageTask('/Users/shokishoki/development/consensys/distribute/contracts/contracts/Task.sol',16);\n_validationVal == 1\n            ? (__BranchCoverageTask('/Users/shokishoki/development/consensys/distribute/contracts/contracts/Task.sol',4,0),totalValidateAffirmative += _tokens)\n            : (__BranchCoverageTask('/Users/shokishoki/development/consensys/distribute/contracts/contracts/Task.sol',4,1),totalValidateNegative += _tokens);\n__CoverageTask('/Users/shokishoki/development/consensys/distribute/contracts/contracts/Task.sol',136);\n         __StatementCoverageTask('/Users/shokishoki/development/consensys/distribute/contracts/contracts/Task.sol',17);\nif (!opposingValidator && (totalValidateAffirmative != 0 && totalValidateNegative != 0)) {__BranchCoverageTask('/Users/shokishoki/development/consensys/distribute/contracts/contracts/Task.sol',5,0);\n__CoverageTask('/Users/shokishoki/development/consensys/distribute/contracts/contracts/Task.sol',137);\n             __StatementCoverageTask('/Users/shokishoki/development/consensys/distribute/contracts/contracts/Task.sol',18);\nopposingValidator = true;\n        }else { __BranchCoverageTask('/Users/shokishoki/development/consensys/distribute/contracts/contracts/Task.sol',5,1);}\n\n    }\n\n    /**\n    @notice Sets the PLCR poll id of the current task\n    @dev Only callable by Project Registery\n    @param _pollId Poll ID of PLCRVoting poll.\n    */\n    function setPollId(uint256 _pollId) public onlyPR {__FunctionCoverageTask('/Users/shokishoki/development/consensys/distribute/contracts/contracts/Task.sol',9);\n\n__CoverageTask('/Users/shokishoki/development/consensys/distribute/contracts/contracts/Task.sol',147);\n        __AssertPreCoverageTask('/Users/shokishoki/development/consensys/distribute/contracts/contracts/Task.sol',6);\n __StatementCoverageTask('/Users/shokishoki/development/consensys/distribute/contracts/contracts/Task.sol',19);\nrequire(pollId == 0);__AssertPostCoverageTask('/Users/shokishoki/development/consensys/distribute/contracts/contracts/Task.sol',6);\n\n__CoverageTask('/Users/shokishoki/development/consensys/distribute/contracts/contracts/Task.sol',148);\n         __StatementCoverageTask('/Users/shokishoki/development/consensys/distribute/contracts/contracts/Task.sol',20);\npollId = _pollId;\n    }\n\n    /**\n    @notice Marks a task claimable by the correct or only validators. Determines if the task reward\n    is claimable by the reputation holder who initially claimed the task.\n    @dev Only callable by the ProjectRegistry\n    @param _passed Boolean describing the validation state the task should be claimable for.\n    */\n    function markTaskClaimable(bool _passed) public onlyPR returns(bool) {__FunctionCoverageTask('/Users/shokishoki/development/consensys/distribute/contracts/contracts/Task.sol',10);\n             // passed only matters in voting\n__CoverageTask('/Users/shokishoki/development/consensys/distribute/contracts/contracts/Task.sol',158);\n         __StatementCoverageTask('/Users/shokishoki/development/consensys/distribute/contracts/contracts/Task.sol',21);\nif (totalValidateAffirmative == 0 || totalValidateNegative == 0) {__BranchCoverageTask('/Users/shokishoki/development/consensys/distribute/contracts/contracts/Task.sol',7,0);\n__CoverageTask('/Users/shokishoki/development/consensys/distribute/contracts/contracts/Task.sol',159);\n             __StatementCoverageTask('/Users/shokishoki/development/consensys/distribute/contracts/contracts/Task.sol',22);\nclaimable = true;\n__CoverageTask('/Users/shokishoki/development/consensys/distribute/contracts/contracts/Task.sol',160);\n             __StatementCoverageTask('/Users/shokishoki/development/consensys/distribute/contracts/contracts/Task.sol',23);\nif (totalValidateAffirmative > totalValidateNegative) {__BranchCoverageTask('/Users/shokishoki/development/consensys/distribute/contracts/contracts/Task.sol',8,0);  __StatementCoverageTask('/Users/shokishoki/development/consensys/distribute/contracts/contracts/Task.sol',24);\nclaimableByRep = true; }else { __BranchCoverageTask('/Users/shokishoki/development/consensys/distribute/contracts/contracts/Task.sol',8,1);}\n\n        } else {__BranchCoverageTask('/Users/shokishoki/development/consensys/distribute/contracts/contracts/Task.sol',7,1);\n__CoverageTask('/Users/shokishoki/development/consensys/distribute/contracts/contracts/Task.sol',162);\n             __StatementCoverageTask('/Users/shokishoki/development/consensys/distribute/contracts/contracts/Task.sol',25);\nclaimable = true;\n__CoverageTask('/Users/shokishoki/development/consensys/distribute/contracts/contracts/Task.sol',163);\n             __StatementCoverageTask('/Users/shokishoki/development/consensys/distribute/contracts/contracts/Task.sol',26);\nif (_passed) {__BranchCoverageTask('/Users/shokishoki/development/consensys/distribute/contracts/contracts/Task.sol',9,0);\n__CoverageTask('/Users/shokishoki/development/consensys/distribute/contracts/contracts/Task.sol',164);\n                 __StatementCoverageTask('/Users/shokishoki/development/consensys/distribute/contracts/contracts/Task.sol',27);\nclaimableByRep = true;\n__CoverageTask('/Users/shokishoki/development/consensys/distribute/contracts/contracts/Task.sol',165);\n                 __StatementCoverageTask('/Users/shokishoki/development/consensys/distribute/contracts/contracts/Task.sol',28);\ntotalValidateNegative = 0;\n            } else {__BranchCoverageTask('/Users/shokishoki/development/consensys/distribute/contracts/contracts/Task.sol',9,1);\n__CoverageTask('/Users/shokishoki/development/consensys/distribute/contracts/contracts/Task.sol',167);\n                 __StatementCoverageTask('/Users/shokishoki/development/consensys/distribute/contracts/contracts/Task.sol',29);\ntotalValidateAffirmative = 0;\n            }\n        }\n__CoverageTask('/Users/shokishoki/development/consensys/distribute/contracts/contracts/Task.sol',170);\n         __StatementCoverageTask('/Users/shokishoki/development/consensys/distribute/contracts/contracts/Task.sol',30);\nreturn claimableByRep;\n    }\n\n    /**\n    @notice Clear the validator stake of validator at `_validator`\n    @dev Only callable by TokenRegistry\n    @param _validator Address of validator\n    */\n    function clearValidatorStake(address _validator) public onlyTR {__FunctionCoverageTask('/Users/shokishoki/development/consensys/distribute/contracts/contracts/Task.sol',11);\n\n__CoverageTask('/Users/shokishoki/development/consensys/distribute/contracts/contracts/Task.sol',179);\n         __StatementCoverageTask('/Users/shokishoki/development/consensys/distribute/contracts/contracts/Task.sol',31);\nvalidators[_validator].stake = 0;\n    }\n}\n","sourcePath":"/Users/shokishoki/development/consensys/distribute/contracts/coverageEnv/contracts/Task.sol","compiler":{"name":"solc","version":"0.4.19+commit.c4cbbb05.Emscripten.clang"},"schemaVersion":"2.0.0","updatedAt":"2018-03-21T15:13:01.026Z"}