{"contractName":"TokenRegistry","abi":[{"payable":true,"stateMutability":"payable","type":"fallback"},{"anonymous":false,"inputs":[{"indexed":true,"name":"projectAddress","type":"address"},{"indexed":false,"name":"projectCost","type":"uint256"},{"indexed":false,"name":"proposerStake","type":"uint256"}],"name":"ProjectCreated","type":"event"},{"constant":false,"inputs":[{"name":"_distributeToken","type":"address"},{"name":"_projectRegistry","type":"address"},{"name":"_plcrVoting","type":"address"}],"name":"init","outputs":[],"payable":false,"stateMutability":"nonpayable","type":"function"},{"constant":false,"inputs":[{"name":"_cost","type":"uint256"},{"name":"_stakingPeriod","type":"uint256"},{"name":"_ipfsHash","type":"string"}],"name":"proposeProject","outputs":[],"payable":false,"stateMutability":"nonpayable","type":"function"},{"constant":false,"inputs":[{"name":"_projectAddress","type":"address"}],"name":"refundProposer","outputs":[],"payable":false,"stateMutability":"nonpayable","type":"function"},{"constant":false,"inputs":[{"name":"_projectAddress","type":"address"},{"name":"_tokens","type":"uint256"}],"name":"stakeTokens","outputs":[],"payable":false,"stateMutability":"nonpayable","type":"function"},{"constant":false,"inputs":[{"name":"_projectAddress","type":"address"},{"name":"_tokens","type":"uint256"}],"name":"unstakeTokens","outputs":[],"payable":false,"stateMutability":"nonpayable","type":"function"},{"constant":false,"inputs":[{"name":"_projectAddress","type":"address"},{"name":"_index","type":"uint256"},{"name":"_tokens","type":"uint256"},{"name":"_validationState","type":"bool"}],"name":"validateTask","outputs":[],"payable":false,"stateMutability":"nonpayable","type":"function"},{"constant":false,"inputs":[{"name":"_projectAddress","type":"address"},{"name":"_index","type":"uint256"}],"name":"rewardValidator","outputs":[],"payable":false,"stateMutability":"nonpayable","type":"function"},{"constant":false,"inputs":[{"name":"_projectAddress","type":"address"},{"name":"_index","type":"uint256"},{"name":"_tokens","type":"uint256"},{"name":"_secretHash","type":"bytes32"},{"name":"_prevPollID","type":"uint256"}],"name":"voteCommit","outputs":[],"payable":false,"stateMutability":"nonpayable","type":"function"},{"constant":false,"inputs":[{"name":"_projectAddress","type":"address"},{"name":"_index","type":"uint256"},{"name":"_voteOption","type":"uint256"},{"name":"_salt","type":"uint256"}],"name":"voteReveal","outputs":[],"payable":false,"stateMutability":"nonpayable","type":"function"},{"constant":false,"inputs":[{"name":"_tokens","type":"uint256"}],"name":"refundVotingTokens","outputs":[],"payable":false,"stateMutability":"nonpayable","type":"function"},{"constant":false,"inputs":[{"name":"_projectAddress","type":"address"}],"name":"refundStaker","outputs":[],"payable":false,"stateMutability":"nonpayable","type":"function"},{"constant":false,"inputs":[{"name":"_projectAddress","type":"address"},{"name":"_index","type":"uint256"}],"name":"rescueTokens","outputs":[],"payable":false,"stateMutability":"nonpayable","type":"function"},{"constant":false,"inputs":[{"name":"_value","type":"uint256"}],"name":"revertWei","outputs":[],"payable":false,"stateMutability":"nonpayable","type":"function"},{"constant":false,"inputs":[{"name":"_tokens","type":"uint256"}],"name":"burnTokens","outputs":[],"payable":false,"stateMutability":"nonpayable","type":"function"}],"bytecode":"0x6060604052642e90edd000600355606460045534156200001e57600080fd5b61b490806200002e6000396000f3006060604052600436106100d0576000357c0100000000000000000000000000000000000000000000000000000000900463ffffffff168063184b95591461018f5780632f27ea1f146102065780634012c2a21461026757806357376198146102a05780635890b1e2146102e25780635c352318146103515780636d1b229d1461038a57806375f6857b146103ad57806379a83f5a146103d05780639ab6767314610412578063bdbff2f114610435578063e096fff014610477578063e89a173e146104cb578063ef26923b1461050d575b7f5202ed0eadc2f3f867056c6a920b65b3812a2fda51a1d7655a8abd9ef3c451c060036040518080602001838152602001828103825260588152602001807f2f55736572732f73686f6b6973686f6b692f646576656c6f706d656e742f636f81526020017f6e73656e7379732f646973747269627574652f636f6e7472616374732f636f6e81526020017f7472616374732f546f6b656e52656769737472792e736f6c00000000000000008152506060019250505060405180910390a1005b341561019a57600080fd5b610204600480803573ffffffffffffffffffffffffffffffffffffffff1690602001909190803573ffffffffffffffffffffffffffffffffffffffff1690602001909190803573ffffffffffffffffffffffffffffffffffffffff16906020019091905050610563565b005b341561021157600080fd5b610265600480803573ffffffffffffffffffffffffffffffffffffffff1690602001909190803590602001909190803590602001909190803560001916906020019091908035906020019091905050610f17565b005b341561027257600080fd5b61029e600480803573ffffffffffffffffffffffffffffffffffffffff169060200190919050506123ca565b005b34156102ab57600080fd5b6102e0600480803573ffffffffffffffffffffffffffffffffffffffff1690602001909190803590602001909190505061331a565b005b34156102ed57600080fd5b61034f600480803590602001909190803590602001909190803590602001908201803590602001908080601f01602080910402602001604051908101604052809392919081815260200183838082843782019150505050505091905050613809565b005b341561035c57600080fd5b610388600480803573ffffffffffffffffffffffffffffffffffffffff16906020019091905050614bc1565b005b341561039557600080fd5b6103ab60048080359060200190919050506155db565b005b34156103b857600080fd5b6103ce6004808035906020019091905050615cc6565b005b34156103db57600080fd5b610410600480803573ffffffffffffffffffffffffffffffffffffffff169060200190919080359060200190919050506163b1565b005b341561041d57600080fd5b6104336004808035906020019091905050618123565b005b341561044057600080fd5b610475600480803573ffffffffffffffffffffffffffffffffffffffff16906020019091908035906020019091905050618520565b005b341561048257600080fd5b6104c9600480803573ffffffffffffffffffffffffffffffffffffffff1690602001909190803590602001909190803590602001909190803590602001909190505061a296565b005b34156104d657600080fd5b61050b600480803573ffffffffffffffffffffffffffffffffffffffff1690602001909190803590602001909190505061a5e2565b005b341561051857600080fd5b610561600480803573ffffffffffffffffffffffffffffffffffffffff16906020019091908035906020019091908035906020019091908035151590602001909190505061ac23565b005b7f5202ed0eadc2f3f867056c6a920b65b3812a2fda51a1d7655a8abd9ef3c451c060026040518080602001838152602001828103825260588152602001807f2f55736572732f73686f6b6973686f6b692f646576656c6f706d656e742f636f81526020017f6e73656e7379732f646973747269627574652f636f6e7472616374732f636f6e81526020017f7472616374732f546f6b656e52656769737472792e736f6c00000000000000008152506060019250505060405180910390a17fbbb6b08a0b70e46fa6227c528fe18619e7eaa00d60d447fc668588ce6ff1c772603f6040518080602001838152602001828103825260588152602001807f2f55736572732f73686f6b6973686f6b692f646576656c6f706d656e742f636f81526020017f6e73656e7379732f646973747269627574652f636f6e7472616374732f636f6e81526020017f7472616374732f546f6b656e52656769737472792e736f6c00000000000000008152506060019250505060405180910390a17fcc4cca764c041e6c7d6fdf7313511df6692c197010547f5a3fe8b1efcc5ed20c60026040518080602001838152602001828103825260588152602001807f2f55736572732f73686f6b6973686f6b692f646576656c6f706d656e742f636f81526020017f6e73656e7379732f646973747269627574652f636f6e7472616374732f636f6e81526020017f7472616374732f546f6b656e52656769737472792e736f6c00000000000000008152506060019250505060405180910390a17f168abdf92a92afad29d7181a38541e149c0434559a0b8a64d7698f087339c94260026040518080602001838152602001828103825260588152602001807f2f55736572732f73686f6b6973686f6b692f646576656c6f706d656e742f636f81526020017f6e73656e7379732f646973747269627574652f636f6e7472616374732f636f6e81526020017f7472616374732f546f6b656e52656769737472792e736f6c00000000000000008152506060019250505060405180910390a16000600160009054906101000a900473ffffffffffffffffffffffffffffffffffffffff1673ffffffffffffffffffffffffffffffffffffffff161480156108d6575060008060009054906101000a900473ffffffffffffffffffffffffffffffffffffffff1673ffffffffffffffffffffffffffffffffffffffff16145b801561091a57506000600260009054906101000a900473ffffffffffffffffffffffffffffffffffffffff1673ffffffffffffffffffffffffffffffffffffffff16145b151561092557600080fd5b7ffec663b8200418a1faef4e8643e2a0637b67ac2c24bc35ac9d9b48d3e9bcce9760026040518080602001838152602001828103825260588152602001807f2f55736572732f73686f6b6973686f6b692f646576656c6f706d656e742f636f81526020017f6e73656e7379732f646973747269627574652f636f6e7472616374732f636f6e81526020017f7472616374732f546f6b656e52656769737472792e736f6c00000000000000008152506060019250505060405180910390a17fbbb6b08a0b70e46fa6227c528fe18619e7eaa00d60d447fc668588ce6ff1c77260456040518080602001838152602001828103825260588152602001807f2f55736572732f73686f6b6973686f6b692f646576656c6f706d656e742f636f81526020017f6e73656e7379732f646973747269627574652f636f6e7472616374732f636f6e81526020017f7472616374732f546f6b656e52656769737472792e736f6c00000000000000008152506060019250505060405180910390a17f168abdf92a92afad29d7181a38541e149c0434559a0b8a64d7698f087339c94260036040518080602001838152602001828103825260588152602001807f2f55736572732f73686f6b6973686f6b692f646576656c6f706d656e742f636f81526020017f6e73656e7379732f646973747269627574652f636f6e7472616374732f636f6e81526020017f7472616374732f546f6b656e52656769737472792e736f6c00000000000000008152506060019250505060405180910390a182600160006101000a81548173ffffffffffffffffffffffffffffffffffffffff021916908373ffffffffffffffffffffffffffffffffffffffff1602179055507fbbb6b08a0b70e46fa6227c528fe18619e7eaa00d60d447fc668588ce6ff1c77260466040518080602001838152602001828103825260588152602001807f2f55736572732f73686f6b6973686f6b692f646576656c6f706d656e742f636f81526020017f6e73656e7379732f646973747269627574652f636f6e7472616374732f636f6e81526020017f7472616374732f546f6b656e52656769737472792e736f6c00000000000000008152506060019250505060405180910390a17f168abdf92a92afad29d7181a38541e149c0434559a0b8a64d7698f087339c94260046040518080602001838152602001828103825260588152602001807f2f55736572732f73686f6b6973686f6b692f646576656c6f706d656e742f636f81526020017f6e73656e7379732f646973747269627574652f636f6e7472616374732f636f6e81526020017f7472616374732f546f6b656e52656769737472792e736f6c00000000000000008152506060019250505060405180910390a1816000806101000a81548173ffffffffffffffffffffffffffffffffffffffff021916908373ffffffffffffffffffffffffffffffffffffffff1602179055507fbbb6b08a0b70e46fa6227c528fe18619e7eaa00d60d447fc668588ce6ff1c77260476040518080602001838152602001828103825260588152602001807f2f55736572732f73686f6b6973686f6b692f646576656c6f706d656e742f636f81526020017f6e73656e7379732f646973747269627574652f636f6e7472616374732f636f6e81526020017f7472616374732f546f6b656e52656769737472792e736f6c00000000000000008152506060019250505060405180910390a17f168abdf92a92afad29d7181a38541e149c0434559a0b8a64d7698f087339c94260056040518080602001838152602001828103825260588152602001807f2f55736572732f73686f6b6973686f6b692f646576656c6f706d656e742f636f81526020017f6e73656e7379732f646973747269627574652f636f6e7472616374732f636f6e81526020017f7472616374732f546f6b656e52656769737472792e736f6c00000000000000008152506060019250505060405180910390a180600260006101000a81548173ffffffffffffffffffffffffffffffffffffffff021916908373ffffffffffffffffffffffffffffffffffffffff160217905550505050565b6000807f5202ed0eadc2f3f867056c6a920b65b3812a2fda51a1d7655a8abd9ef3c451c0600a6040518080602001838152602001828103825260588152602001807f2f55736572732f73686f6b6973686f6b692f646576656c6f706d656e742f636f81526020017f6e73656e7379732f646973747269627574652f636f6e7472616374732f636f6e81526020017f7472616374732f546f6b656e52656769737472792e736f6c00000000000000008152506060019250505060405180910390a17fbbb6b08a0b70e46fa6227c528fe18619e7eaa00d60d447fc668588ce6ff1c77260f56040518080602001838152602001828103825260588152602001807f2f55736572732f73686f6b6973686f6b692f646576656c6f706d656e742f636f81526020017f6e73656e7379732f646973747269627574652f636f6e7472616374732f636f6e81526020017f7472616374732f546f6b656e52656769737472792e736f6c00000000000000008152506060019250505060405180910390a17f168abdf92a92afad29d7181a38541e149c0434559a0b8a64d7698f087339c94260246040518080602001838152602001828103825260588152602001807f2f55736572732f73686f6b6973686f6b692f646576656c6f706d656e742f636f81526020017f6e73656e7379732f646973747269627574652f636f6e7472616374732f636f6e81526020017f7472616374732f546f6b656e52656769737472792e736f6c00000000000000008152506060019250505060405180910390a18673ffffffffffffffffffffffffffffffffffffffff16638d977672876000604051602001526040518263ffffffff167c010000000000000000000000000000000000000000000000000000000002815260040180828152602001915050602060405180830381600087803b15156111c857600080fd5b6102c65a03f115156111d957600080fd5b5050506040518051905073ffffffffffffffffffffffffffffffffffffffff16636f13ab006000604051602001526040518163ffffffff167c0100000000000000000000000000000000000000000000000000000000028152600401602060405180830381600087803b151561124e57600080fd5b6102c65a03f1151561125f57600080fd5b5050506040518051905091507fbbb6b08a0b70e46fa6227c528fe18619e7eaa00d60d447fc668588ce6ff1c77260f66040518080602001838152602001828103825260588152602001807f2f55736572732f73686f6b6973686f6b692f646576656c6f706d656e742f636f81526020017f6e73656e7379732f646973747269627574652f636f6e7472616374732f636f6e81526020017f7472616374732f546f6b656e52656769737472792e736f6c00000000000000008152506060019250505060405180910390a17fcc4cca764c041e6c7d6fdf7313511df6692c197010547f5a3fe8b1efcc5ed20c60116040518080602001838152602001828103825260588152602001807f2f55736572732f73686f6b6973686f6b692f646576656c6f706d656e742f636f81526020017f6e73656e7379732f646973747269627574652f636f6e7472616374732f636f6e81526020017f7472616374732f546f6b656e52656769737472792e736f6c00000000000000008152506060019250505060405180910390a17f168abdf92a92afad29d7181a38541e149c0434559a0b8a64d7698f087339c94260256040518080602001838152602001828103825260588152602001807f2f55736572732f73686f6b6973686f6b692f646576656c6f706d656e742f636f81526020017f6e73656e7379732f646973747269627574652f636f6e7472616374732f636f6e81526020017f7472616374732f546f6b656e52656769737472792e736f6c00000000000000008152506060019250505060405180910390a1600082141515156114b257600080fd5b7ffec663b8200418a1faef4e8643e2a0637b67ac2c24bc35ac9d9b48d3e9bcce9760116040518080602001838152602001828103825260588152602001807f2f55736572732f73686f6b6973686f6b692f646576656c6f706d656e742f636f81526020017f6e73656e7379732f646973747269627574652f636f6e7472616374732f636f6e81526020017f7472616374732f546f6b656e52656769737472792e736f6c00000000000000008152506060019250505060405180910390a17fbbb6b08a0b70e46fa6227c528fe18619e7eaa00d60d447fc668588ce6ff1c77260f86040518080602001838152602001828103825260588152602001807f2f55736572732f73686f6b6973686f6b692f646576656c6f706d656e742f636f81526020017f6e73656e7379732f646973747269627574652f636f6e7472616374732f636f6e81526020017f7472616374732f546f6b656e52656769737472792e736f6c00000000000000008152506060019250505060405180910390a17f168abdf92a92afad29d7181a38541e149c0434559a0b8a64d7698f087339c94260266040518080602001838152602001828103825260588152602001807f2f55736572732f73686f6b6973686f6b692f646576656c6f706d656e742f636f81526020017f6e73656e7379732f646973747269627574652f636f6e7472616374732f636f6e81526020017f7472616374732f546f6b656e52656769737472792e736f6c00000000000000008152506060019250505060405180910390a1600260009054906101000a900473ffffffffffffffffffffffffffffffffffffffff1673ffffffffffffffffffffffffffffffffffffffff16639f68ce543360016000604051602001526040518363ffffffff167c0100000000000000000000000000000000000000000000000000000000028152600401808373ffffffffffffffffffffffffffffffffffffffff1673ffffffffffffffffffffffffffffffffffffffff16815260200182815260200192505050602060405180830381600087803b15156117b757600080fd5b6102c65a03f115156117c857600080fd5b5050506040518051905090507fbbb6b08a0b70e46fa6227c528fe18619e7eaa00d60d447fc668588ce6ff1c77260fb6040518080602001838152602001828103825260588152602001807f2f55736572732f73686f6b6973686f6b692f646576656c6f706d656e742f636f81526020017f6e73656e7379732f646973747269627574652f636f6e7472616374732f636f6e81526020017f7472616374732f546f6b656e52656769737472792e736f6c00000000000000008152506060019250505060405180910390a17f168abdf92a92afad29d7181a38541e149c0434559a0b8a64d7698f087339c94260276040518080602001838152602001828103825260588152602001807f2f55736572732f73686f6b6973686f6b692f646576656c6f706d656e742f636f81526020017f6e73656e7379732f646973747269627574652f636f6e7472616374732f636f6e81526020017f7472616374732f546f6b656e52656769737472792e736f6c00000000000000008152506060019250505060405180910390a184811015612144577f488b07f2ca693ed04281620663d89364750f79b36b2785b8d78a5e717c0ac0c2601260006040518080602001848152602001838152602001828103825260588152602001807f2f55736572732f73686f6b6973686f6b692f646576656c6f706d656e742f636f81526020017f6e73656e7379732f646973747269627574652f636f6e7472616374732f636f6e81526020017f7472616374732f546f6b656e52656769737472792e736f6c0000000000000000815250606001935050505060405180910390a17fbbb6b08a0b70e46fa6227c528fe18619e7eaa00d60d447fc668588ce6ff1c77260fc6040518080602001838152602001828103825260588152602001807f2f55736572732f73686f6b6973686f6b692f646576656c6f706d656e742f636f81526020017f6e73656e7379732f646973747269627574652f636f6e7472616374732f636f6e81526020017f7472616374732f546f6b656e52656769737472792e736f6c00000000000000008152506060019250505060405180910390a17fcc4cca764c041e6c7d6fdf7313511df6692c197010547f5a3fe8b1efcc5ed20c60136040518080602001838152602001828103825260588152602001807f2f55736572732f73686f6b6973686f6b692f646576656c6f706d656e742f636f81526020017f6e73656e7379732f646973747269627574652f636f6e7472616374732f636f6e81526020017f7472616374732f546f6b656e52656769737472792e736f6c00000000000000008152506060019250505060405180910390a17f168abdf92a92afad29d7181a38541e149c0434559a0b8a64d7698f087339c94260286040518080602001838152602001828103825260588152602001807f2f55736572732f73686f6b6973686f6b692f646576656c6f706d656e742f636f81526020017f6e73656e7379732f646973747269627574652f636f6e7472616374732f636f6e81526020017f7472616374732f546f6b656e52656769737472792e736f6c00000000000000008152506060019250505060405180910390a1808503600160009054906101000a900473ffffffffffffffffffffffffffffffffffffffff1673ffffffffffffffffffffffffffffffffffffffff166370a08231336000604051602001526040518263ffffffff167c0100000000000000000000000000000000000000000000000000000000028152600401808273ffffffffffffffffffffffffffffffffffffffff1673ffffffffffffffffffffffffffffffffffffffff168152602001915050602060405180830381600087803b1515611d1b57600080fd5b6102c65a03f11515611d2c57600080fd5b5050506040518051905010151515611d4357600080fd5b7ffec663b8200418a1faef4e8643e2a0637b67ac2c24bc35ac9d9b48d3e9bcce9760136040518080602001838152602001828103825260588152602001807f2f55736572732f73686f6b6973686f6b692f646576656c6f706d656e742f636f81526020017f6e73656e7379732f646973747269627574652f636f6e7472616374732f636f6e81526020017f7472616374732f546f6b656e52656769737472792e736f6c00000000000000008152506060019250505060405180910390a17fbbb6b08a0b70e46fa6227c528fe18619e7eaa00d60d447fc668588ce6ff1c77260fd6040518080602001838152602001828103825260588152602001807f2f55736572732f73686f6b6973686f6b692f646576656c6f706d656e742f636f81526020017f6e73656e7379732f646973747269627574652f636f6e7472616374732f636f6e81526020017f7472616374732f546f6b656e52656769737472792e736f6c00000000000000008152506060019250505060405180910390a1600160009054906101000a900473ffffffffffffffffffffffffffffffffffffffff1673ffffffffffffffffffffffffffffffffffffffff16639e88fd81338388036000604051602001526040518363ffffffff167c0100000000000000000000000000000000000000000000000000000000028152600401808373ffffffffffffffffffffffffffffffffffffffff1673ffffffffffffffffffffffffffffffffffffffff16815260200182815260200192505050602060405180830381600087803b1515611f8c57600080fd5b6102c65a03f11515611f9d57600080fd5b50505060405180519050507fbbb6b08a0b70e46fa6227c528fe18619e7eaa00d60d447fc668588ce6ff1c77260fe6040518080602001838152602001828103825260588152602001807f2f55736572732f73686f6b6973686f6b692f646576656c6f706d656e742f636f81526020017f6e73656e7379732f646973747269627574652f636f6e7472616374732f636f6e81526020017f7472616374732f546f6b656e52656769737472792e736f6c00000000000000008152506060019250505060405180910390a1600260009054906101000a900473ffffffffffffffffffffffffffffffffffffffff1673ffffffffffffffffffffffffffffffffffffffff1663c5fa801b338388036040518363ffffffff167c0100000000000000000000000000000000000000000000000000000000028152600401808373ffffffffffffffffffffffffffffffffffffffff1673ffffffffffffffffffffffffffffffffffffffff16815260200182815260200192505050600060405180830381600087803b151561212b57600080fd5b6102c65a03f1151561213c57600080fd5b50505061220b565b7f488b07f2ca693ed04281620663d89364750f79b36b2785b8d78a5e717c0ac0c2601260016040518080602001848152602001838152602001828103825260588152602001807f2f55736572732f73686f6b6973686f6b692f646576656c6f706d656e742f636f81526020017f6e73656e7379732f646973747269627574652f636f6e7472616374732f636f6e81526020017f7472616374732f546f6b656e52656769737472792e736f6c0000000000000000815250606001935050505060405180910390a15b7fbbb6b08a0b70e46fa6227c528fe18619e7eaa00d60d447fc668588ce6ff1c7726101006040518080602001838152602001828103825260588152602001807f2f55736572732f73686f6b6973686f6b692f646576656c6f706d656e742f636f81526020017f6e73656e7379732f646973747269627574652f636f6e7472616374732f636f6e81526020017f7472616374732f546f6b656e52656769737472792e736f6c00000000000000008152506060019250505060405180910390a1600260009054906101000a900473ffffffffffffffffffffffffffffffffffffffff1673ffffffffffffffffffffffffffffffffffffffff16635e28fd5e33848789886040518663ffffffff167c0100000000000000000000000000000000000000000000000000000000028152600401808673ffffffffffffffffffffffffffffffffffffffff1673ffffffffffffffffffffffffffffffffffffffff168152602001858152602001846000191660001916815260200183815260200182815260200195505050505050600060405180830381600087803b15156123ad57600080fd5b6102c65a03f115156123be57600080fd5b50505050505050505050565b60006123d461b43d565b7f5202ed0eadc2f3f867056c6a920b65b3812a2fda51a1d7655a8abd9ef3c451c060056040518080602001838152602001828103825260588152602001807f2f55736572732f73686f6b6973686f6b692f646576656c6f706d656e742f636f81526020017f6e73656e7379732f646973747269627574652f636f6e7472616374732f636f6e81526020017f7472616374732f546f6b656e52656769737472792e736f6c00000000000000008152506060019250505060405180910390a17fbbb6b08a0b70e46fa6227c528fe18619e7eaa00d60d447fc668588ce6ff1c772607b6040518080602001838152602001828103825260588152602001807f2f55736572732f73686f6b6973686f6b692f646576656c6f706d656e742f636f81526020017f6e73656e7379732f646973747269627574652f636f6e7472616374732f636f6e81526020017f7472616374732f546f6b656e52656769737472792e736f6c00000000000000008152506060019250505060405180910390a17f168abdf92a92afad29d7181a38541e149c0434559a0b8a64d7698f087339c942600c6040518080602001838152602001828103825260588152602001807f2f55736572732f73686f6b6973686f6b692f646576656c6f706d656e742f636f81526020017f6e73656e7379732f646973747269627574652f636f6e7472616374732f636f6e81526020017f7472616374732f546f6b656e52656769737472792e736f6c00000000000000008152506060019250505060405180910390a18291507fbbb6b08a0b70e46fa6227c528fe18619e7eaa00d60d447fc668588ce6ff1c772607c6040518080602001838152602001828103825260588152602001807f2f55736572732f73686f6b6973686f6b692f646576656c6f706d656e742f636f81526020017f6e73656e7379732f646973747269627574652f636f6e7472616374732f636f6e81526020017f7472616374732f546f6b656e52656769737472792e736f6c00000000000000008152506060019250505060405180910390a17fcc4cca764c041e6c7d6fdf7313511df6692c197010547f5a3fe8b1efcc5ed20c60056040518080602001838152602001828103825260588152602001807f2f55736572732f73686f6b6973686f6b692f646576656c6f706d656e742f636f81526020017f6e73656e7379732f646973747269627574652f636f6e7472616374732f636f6e81526020017f7472616374732f546f6b656e52656769737472792e736f6c00000000000000008152506060019250505060405180910390a17f168abdf92a92afad29d7181a38541e149c0434559a0b8a64d7698f087339c942600d6040518080602001838152602001828103825260588152602001807f2f55736572732f73686f6b6973686f6b692f646576656c6f706d656e742f636f81526020017f6e73656e7379732f646973747269627574652f636f6e7472616374732f636f6e81526020017f7472616374732f546f6b656e52656769737472792e736f6c00000000000000008152506060019250505060405180910390a13373ffffffffffffffffffffffffffffffffffffffff168273ffffffffffffffffffffffffffffffffffffffff1663a8e4fb906000604051602001526040518163ffffffff167c0100000000000000000000000000000000000000000000000000000000028152600401602060405180830381600087803b15156128c857600080fd5b6102c65a03f115156128d957600080fd5b5050506040518051905073ffffffffffffffffffffffffffffffffffffffff1614151561290557600080fd5b7ffec663b8200418a1faef4e8643e2a0637b67ac2c24bc35ac9d9b48d3e9bcce9760056040518080602001838152602001828103825260588152602001807f2f55736572732f73686f6b6973686f6b692f646576656c6f706d656e742f636f81526020017f6e73656e7379732f646973747269627574652f636f6e7472616374732f636f6e81526020017f7472616374732f546f6b656e52656769737472792e736f6c00000000000000008152506060019250505060405180910390a17fbbb6b08a0b70e46fa6227c528fe18619e7eaa00d60d447fc668588ce6ff1c772607d6040518080602001838152602001828103825260588152602001807f2f55736572732f73686f6b6973686f6b692f646576656c6f706d656e742f636f81526020017f6e73656e7379732f646973747269627574652f636f6e7472616374732f636f6e81526020017f7472616374732f546f6b656e52656769737472792e736f6c00000000000000008152506060019250505060405180910390a17fcc4cca764c041e6c7d6fdf7313511df6692c197010547f5a3fe8b1efcc5ed20c60066040518080602001838152602001828103825260588152602001807f2f55736572732f73686f6b6973686f6b692f646576656c6f706d656e742f636f81526020017f6e73656e7379732f646973747269627574652f636f6e7472616374732f636f6e81526020017f7472616374732f546f6b656e52656769737472792e736f6c00000000000000008152506060019250505060405180910390a17f168abdf92a92afad29d7181a38541e149c0434559a0b8a64d7698f087339c942600e6040518080602001838152602001828103825260588152602001807f2f55736572732f73686f6b6973686f6b692f646576656c6f706d656e742f636f81526020017f6e73656e7379732f646973747269627574652f636f6e7472616374732f636f6e81526020017f7472616374732f546f6b656e52656769737472792e736f6c00000000000000008152506060019250505060405180910390a160018273ffffffffffffffffffffffffffffffffffffffff166316ddf0216000604051602001526040518163ffffffff167c0100000000000000000000000000000000000000000000000000000000028152600401602060405180830381600087803b1515612c6757600080fd5b6102c65a03f11515612c7857600080fd5b50505060405180519050141515612c8e57600080fd5b7ffec663b8200418a1faef4e8643e2a0637b67ac2c24bc35ac9d9b48d3e9bcce9760066040518080602001838152602001828103825260588152602001807f2f55736572732f73686f6b6973686f6b692f646576656c6f706d656e742f636f81526020017f6e73656e7379732f646973747269627574652f636f6e7472616374732f636f6e81526020017f7472616374732f546f6b656e52656769737472792e736f6c00000000000000008152506060019250505060405180910390a17fbbb6b08a0b70e46fa6227c528fe18619e7eaa00d60d447fc668588ce6ff1c772607f6040518080602001838152602001828103825260588152602001807f2f55736572732f73686f6b6973686f6b692f646576656c6f706d656e742f636f81526020017f6e73656e7379732f646973747269627574652f636f6e7472616374732f636f6e81526020017f7472616374732f546f6b656e52656769737472792e736f6c00000000000000008152506060019250505060405180910390a17f168abdf92a92afad29d7181a38541e149c0434559a0b8a64d7698f087339c942600f6040518080602001838152602001828103825260588152602001807f2f55736572732f73686f6b6973686f6b692f646576656c6f706d656e742f636f81526020017f6e73656e7379732f646973747269627574652f636f6e7472616374732f636f6e81526020017f7472616374732f546f6b656e52656769737472792e736f6c00000000000000008152506060019250505060405180910390a16000809054906101000a900473ffffffffffffffffffffffffffffffffffffffff1673ffffffffffffffffffffffffffffffffffffffff16634012c2a2846000604051604001526040518263ffffffff167c0100000000000000000000000000000000000000000000000000000000028152600401808273ffffffffffffffffffffffffffffffffffffffff1673ffffffffffffffffffffffffffffffffffffffff1681526020019150506040805180830381600087803b1515612f8857600080fd5b6102c65a03f11515612f9957600080fd5b5050506040518060400160405290507fbbb6b08a0b70e46fa6227c528fe18619e7eaa00d60d447fc668588ce6ff1c77260806040518080602001838152602001828103825260588152602001807f2f55736572732f73686f6b6973686f6b692f646576656c6f706d656e742f636f81526020017f6e73656e7379732f646973747269627574652f636f6e7472616374732f636f6e81526020017f7472616374732f546f6b656e52656769737472792e736f6c00000000000000008152506060019250505060405180910390a1600160009054906101000a900473ffffffffffffffffffffffffffffffffffffffff1673ffffffffffffffffffffffffffffffffffffffff1663283760fa338360016002811015156130b357fe5b60200201516000604051602001526040518363ffffffff167c0100000000000000000000000000000000000000000000000000000000028152600401808373ffffffffffffffffffffffffffffffffffffffff1673ffffffffffffffffffffffffffffffffffffffff16815260200182815260200192505050602060405180830381600087803b151561314557600080fd5b6102c65a03f1151561315657600080fd5b50505060405180519050507fbbb6b08a0b70e46fa6227c528fe18619e7eaa00d60d447fc668588ce6ff1c77260816040518080602001838152602001828103825260588152602001807f2f55736572732f73686f6b6973686f6b692f646576656c6f706d656e742f636f81526020017f6e73656e7379732f646973747269627574652f636f6e7472616374732f636f6e81526020017f7472616374732f546f6b656e52656769737472792e736f6c00000000000000008152506060019250505060405180910390a1600160009054906101000a900473ffffffffffffffffffffffffffffffffffffffff1673ffffffffffffffffffffffffffffffffffffffff166353c333cd33606484600060028110151561326e57fe5b602002015181151561327c57fe5b046040518363ffffffff167c0100000000000000000000000000000000000000000000000000000000028152600401808373ffffffffffffffffffffffffffffffffffffffff1673ffffffffffffffffffffffffffffffffffffffff16815260200182815260200192505050600060405180830381600087803b151561330157600080fd5b6102c65a03f1151561331257600080fd5b505050505050565b60007f5202ed0eadc2f3f867056c6a920b65b3812a2fda51a1d7655a8abd9ef3c451c0600e6040518080602001838152602001828103825260588152602001807f2f55736572732f73686f6b6973686f6b692f646576656c6f706d656e742f636f81526020017f6e73656e7379732f646973747269627574652f636f6e7472616374732f636f6e81526020017f7472616374732f546f6b656e52656769737472792e736f6c00000000000000008152506060019250505060405180910390a17fbbb6b08a0b70e46fa6227c528fe18619e7eaa00d60d447fc668588ce6ff1c7726101346040518080602001838152602001828103825260588152602001807f2f55736572732f73686f6b6973686f6b692f646576656c6f706d656e742f636f81526020017f6e73656e7379732f646973747269627574652f636f6e7472616374732f636f6e81526020017f7472616374732f546f6b656e52656769737472792e736f6c00000000000000008152506060019250505060405180910390a17f168abdf92a92afad29d7181a38541e149c0434559a0b8a64d7698f087339c942602c6040518080602001838152602001828103825260588152602001807f2f55736572732f73686f6b6973686f6b692f646576656c6f706d656e742f636f81526020017f6e73656e7379732f646973747269627574652f636f6e7472616374732f636f6e81526020017f7472616374732f546f6b656e52656769737472792e736f6c00000000000000008152506060019250505060405180910390a18273ffffffffffffffffffffffffffffffffffffffff16638d977672836000604051602001526040518263ffffffff167c010000000000000000000000000000000000000000000000000000000002815260040180828152602001915050602060405180830381600087803b15156135cb57600080fd5b6102c65a03f115156135dc57600080fd5b5050506040518051905073ffffffffffffffffffffffffffffffffffffffff16636f13ab006000604051602001526040518163ffffffff167c0100000000000000000000000000000000000000000000000000000000028152600401602060405180830381600087803b151561365157600080fd5b6102c65a03f1151561366257600080fd5b5050506040518051905090507fbbb6b08a0b70e46fa6227c528fe18619e7eaa00d60d447fc668588ce6ff1c7726101356040518080602001838152602001828103825260588152602001807f2f55736572732f73686f6b6973686f6b692f646576656c6f706d656e742f636f81526020017f6e73656e7379732f646973747269627574652f636f6e7472616374732f636f6e81526020017f7472616374732f546f6b656e52656769737472792e736f6c00000000000000008152506060019250505060405180910390a1600260009054906101000a900473ffffffffffffffffffffffffffffffffffffffff1673ffffffffffffffffffffffffffffffffffffffff16635737619833836040518363ffffffff167c0100000000000000000000000000000000000000000000000000000000028152600401808373ffffffffffffffffffffffffffffffffffffffff1673ffffffffffffffffffffffffffffffffffffffff16815260200182815260200192505050600060405180830381600087803b15156137f057600080fd5b6102c65a03f1151561380157600080fd5b505050505050565b60008060007f5202ed0eadc2f3f867056c6a920b65b3812a2fda51a1d7655a8abd9ef3c451c060046040518080602001838152602001828103825260588152602001807f2f55736572732f73686f6b6973686f6b692f646576656c6f706d656e742f636f81526020017f6e73656e7379732f646973747269627574652f636f6e7472616374732f636f6e81526020017f7472616374732f546f6b656e52656769737472792e736f6c00000000000000008152506060019250505060405180910390a17fbbb6b08a0b70e46fa6227c528fe18619e7eaa00d60d447fc668588ce6ff1c772605f6040518080602001838152602001828103825260588152602001807f2f55736572732f73686f6b6973686f6b692f646576656c6f706d656e742f636f81526020017f6e73656e7379732f646973747269627574652f636f6e7472616374732f636f6e81526020017f7472616374732f546f6b656e52656769737472792e736f6c00000000000000008152506060019250505060405180910390a17fcc4cca764c041e6c7d6fdf7313511df6692c197010547f5a3fe8b1efcc5ed20c60036040518080602001838152602001828103825260588152602001807f2f55736572732f73686f6b6973686f6b692f646576656c6f706d656e742f636f81526020017f6e73656e7379732f646973747269627574652f636f6e7472616374732f636f6e81526020017f7472616374732f546f6b656e52656769737472792e736f6c00000000000000008152506060019250505060405180910390a17f168abdf92a92afad29d7181a38541e149c0434559a0b8a64d7698f087339c94260066040518080602001838152602001828103825260588152602001807f2f55736572732f73686f6b6973686f6b692f646576656c6f706d656e742f636f81526020017f6e73656e7379732f646973747269627574652f636f6e7472616374732f636f6e81526020017f7472616374732f546f6b656e52656769737472792e736f6c00000000000000008152506060019250505060405180910390a18442108015613b115750600086115b1515613b1c57600080fd5b7ffec663b8200418a1faef4e8643e2a0637b67ac2c24bc35ac9d9b48d3e9bcce9760036040518080602001838152602001828103825260588152602001807f2f55736572732f73686f6b6973686f6b692f646576656c6f706d656e742f636f81526020017f6e73656e7379732f646973747269627574652f636f6e7472616374732f636f6e81526020017f7472616374732f546f6b656e52656769737472792e736f6c00000000000000008152506060019250505060405180910390a17fbbb6b08a0b70e46fa6227c528fe18619e7eaa00d60d447fc668588ce6ff1c77260616040518080602001838152602001828103825260588152602001807f2f55736572732f73686f6b6973686f6b692f646576656c6f706d656e742f636f81526020017f6e73656e7379732f646973747269627574652f636f6e7472616374732f636f6e81526020017f7472616374732f546f6b656e52656769737472792e736f6c00000000000000008152506060019250505060405180910390a17f168abdf92a92afad29d7181a38541e149c0434559a0b8a64d7698f087339c94260076040518080602001838152602001828103825260588152602001807f2f55736572732f73686f6b6973686f6b692f646576656c6f706d656e742f636f81526020017f6e73656e7379732f646973747269627574652f636f6e7472616374732f636f6e81526020017f7472616374732f546f6b656e52656769737472792e736f6c00000000000000008152506060019250505060405180910390a173__Division______________________________622c1a9e87600160009054906101000a900473ffffffffffffffffffffffffffffffffffffffff1673ffffffffffffffffffffffffffffffffffffffff1663065d5d0a6000604051602001526040518163ffffffff167c0100000000000000000000000000000000000000000000000000000000028152600401602060405180830381600087803b1515613dfb57600080fd5b6102c65a03f11515613e0c57600080fd5b50505060405180519050600a6000604051602001526040518463ffffffff167c010000000000000000000000000000000000000000000000000000000002815260040180848152602001838152602001828152602001935050505060206040518083038186803b1515613e7e57600080fd5b6102c65a03f41515613e8f57600080fd5b5050506040518051905092507fbbb6b08a0b70e46fa6227c528fe18619e7eaa00d60d447fc668588ce6ff1c77260626040518080602001838152602001828103825260588152602001807f2f55736572732f73686f6b6973686f6b692f646576656c6f706d656e742f636f81526020017f6e73656e7379732f646973747269627574652f636f6e7472616374732f636f6e81526020017f7472616374732f546f6b656e52656769737472792e736f6c00000000000000008152506060019250505060405180910390a17f168abdf92a92afad29d7181a38541e149c0434559a0b8a64d7698f087339c94260086040518080602001838152602001828103825260588152602001807f2f55736572732f73686f6b6973686f6b692f646576656c6f706d656e742f636f81526020017f6e73656e7379732f646973747269627574652f636f6e7472616374732f636f6e81526020017f7472616374732f546f6b656e52656769737472792e736f6c00000000000000008152506060019250505060405180910390a16402540be400600160009054906101000a900473ffffffffffffffffffffffffffffffffffffffff1673ffffffffffffffffffffffffffffffffffffffff166318160ddd6000604051602001526040518163ffffffff167c0100000000000000000000000000000000000000000000000000000000028152600401602060405180830381600087803b15156140a957600080fd5b6102c65a03f115156140ba57600080fd5b5050506040518051905073__Division______________________________622c1a9e86600354600a6000604051602001526040518463ffffffff167c010000000000000000000000000000000000000000000000000000000002815260040180848152602001838152602001828152602001935050505060206040518083038186803b151561414957600080fd5b6102c65a03f4151561415a57600080fd5b505050604051805190500281151561416e57fe5b0491507fbbb6b08a0b70e46fa6227c528fe18619e7eaa00d60d447fc668588ce6ff1c77260666040518080602001838152602001828103825260588152602001807f2f55736572732f73686f6b6973686f6b692f646576656c6f706d656e742f636f81526020017f6e73656e7379732f646973747269627574652f636f6e7472616374732f636f6e81526020017f7472616374732f546f6b656e52656769737472792e736f6c00000000000000008152506060019250505060405180910390a17fcc4cca764c041e6c7d6fdf7313511df6692c197010547f5a3fe8b1efcc5ed20c60046040518080602001838152602001828103825260588152602001807f2f55736572732f73686f6b6973686f6b692f646576656c6f706d656e742f636f81526020017f6e73656e7379732f646973747269627574652f636f6e7472616374732f636f6e81526020017f7472616374732f546f6b656e52656769737472792e736f6c00000000000000008152506060019250505060405180910390a17f168abdf92a92afad29d7181a38541e149c0434559a0b8a64d7698f087339c94260096040518080602001838152602001828103825260588152602001807f2f55736572732f73686f6b6973686f6b692f646576656c6f706d656e742f636f81526020017f6e73656e7379732f646973747269627574652f636f6e7472616374732f636f6e81526020017f7472616374732f546f6b656e52656769737472792e736f6c00000000000000008152506060019250505060405180910390a181600160009054906101000a900473ffffffffffffffffffffffffffffffffffffffff1673ffffffffffffffffffffffffffffffffffffffff166370a08231336000604051602001526040518263ffffffff167c0100000000000000000000000000000000000000000000000000000000028152600401808273ffffffffffffffffffffffffffffffffffffffff1673ffffffffffffffffffffffffffffffffffffffff168152602001915050602060405180830381600087803b151561446e57600080fd5b6102c65a03f1151561447f57600080fd5b505050604051805190501015151561449657600080fd5b7ffec663b8200418a1faef4e8643e2a0637b67ac2c24bc35ac9d9b48d3e9bcce9760046040518080602001838152602001828103825260588152602001807f2f55736572732f73686f6b6973686f6b692f646576656c6f706d656e742f636f81526020017f6e73656e7379732f646973747269627574652f636f6e7472616374732f636f6e81526020017f7472616374732f546f6b656e52656769737472792e736f6c00000000000000008152506060019250505060405180910390a17fbbb6b08a0b70e46fa6227c528fe18619e7eaa00d60d447fc668588ce6ff1c77260686040518080602001838152602001828103825260588152602001807f2f55736572732f73686f6b6973686f6b692f646576656c6f706d656e742f636f81526020017f6e73656e7379732f646973747269627574652f636f6e7472616374732f636f6e81526020017f7472616374732f546f6b656e52656769737472792e736f6c00000000000000008152506060019250505060405180910390a1600160009054906101000a900473ffffffffffffffffffffffffffffffffffffffff1673ffffffffffffffffffffffffffffffffffffffff16639e88fd8133846000604051602001526040518363ffffffff167c0100000000000000000000000000000000000000000000000000000000028152600401808373ffffffffffffffffffffffffffffffffffffffff1673ffffffffffffffffffffffffffffffffffffffff16815260200182815260200192505050602060405180830381600087803b15156146dd57600080fd5b6102c65a03f115156146ee57600080fd5b50505060405180519050507fbbb6b08a0b70e46fa6227c528fe18619e7eaa00d60d447fc668588ce6ff1c77260696040518080602001838152602001828103825260588152602001807f2f55736572732f73686f6b6973686f6b692f646576656c6f706d656e742f636f81526020017f6e73656e7379732f646973747269627574652f636f6e7472616374732f636f6e81526020017f7472616374732f546f6b656e52656769737472792e736f6c00000000000000008152506060019250505060405180910390a17f168abdf92a92afad29d7181a38541e149c0434559a0b8a64d7698f087339c942600a6040518080602001838152602001828103825260588152602001807f2f55736572732f73686f6b6973686f6b692f646576656c6f706d656e742f636f81526020017f6e73656e7379732f646973747269627574652f636f6e7472616374732f636f6e81526020017f7472616374732f546f6b656e52656769737472792e736f6c00000000000000008152506060019250505060405180910390a16000809054906101000a900473ffffffffffffffffffffffffffffffffffffffff1673ffffffffffffffffffffffffffffffffffffffff1662a750af878588336001888b6000604051602001526040518863ffffffff167c0100000000000000000000000000000000000000000000000000000000028152600401808881526020018781526020018681526020018573ffffffffffffffffffffffffffffffffffffffff1673ffffffffffffffffffffffffffffffffffffffff16815260200184815260200183815260200180602001828103825283818151815260200191508051906020019080838360005b8381101561497b578082015181840152602081019050614960565b50505050905090810190601f1680156149a85780820380516001836020036101000a031916815260200191505b5098505050505050505050602060405180830381600087803b15156149cc57600080fd5b6102c65a03f115156149dd57600080fd5b5050506040518051905090507fbbb6b08a0b70e46fa6227c528fe18619e7eaa00d60d447fc668588ce6ff1c77260726040518080602001838152602001828103825260588152602001807f2f55736572732f73686f6b6973686f6b692f646576656c6f706d656e742f636f81526020017f6e73656e7379732f646973747269627574652f636f6e7472616374732f636f6e81526020017f7472616374732f546f6b656e52656769737472792e736f6c00000000000000008152506060019250505060405180910390a17f168abdf92a92afad29d7181a38541e149c0434559a0b8a64d7698f087339c942600b6040518080602001838152602001828103825260588152602001807f2f55736572732f73686f6b6973686f6b692f646576656c6f706d656e742f636f81526020017f6e73656e7379732f646973747269627574652f636f6e7472616374732f636f6e81526020017f7472616374732f546f6b656e52656769737472792e736f6c00000000000000008152506060019250505060405180910390a18073ffffffffffffffffffffffffffffffffffffffff167f142e33e8ca08dd930acf904a42633a4d41d34f15ccb4bd31bee212de71def2e78784604051808381526020018281526020019250505060405180910390a2505050505050565b60007f5202ed0eadc2f3f867056c6a920b65b3812a2fda51a1d7655a8abd9ef3c451c0600d6040518080602001838152602001828103825260588152602001807f2f55736572732f73686f6b6973686f6b692f646576656c6f706d656e742f636f81526020017f6e73656e7379732f646973747269627574652f636f6e7472616374732f636f6e81526020017f7472616374732f546f6b656e52656769737472792e736f6c00000000000000008152506060019250505060405180910390a17fbbb6b08a0b70e46fa6227c528fe18619e7eaa00d60d447fc668588ce6ff1c7726101256040518080602001838152602001828103825260588152602001807f2f55736572732f73686f6b6973686f6b692f646576656c6f706d656e742f636f81526020017f6e73656e7379732f646973747269627574652f636f6e7472616374732f636f6e81526020017f7472616374732f546f6b656e52656769737472792e736f6c00000000000000008152506060019250505060405180910390a17f168abdf92a92afad29d7181a38541e149c0434559a0b8a64d7698f087339c94260296040518080602001838152602001828103825260588152602001807f2f55736572732f73686f6b6973686f6b692f646576656c6f706d656e742f636f81526020017f6e73656e7379732f646973747269627574652f636f6e7472616374732f636f6e81526020017f7472616374732f546f6b656e52656769737472792e736f6c00000000000000008152506060019250505060405180910390a18173ffffffffffffffffffffffffffffffffffffffff1673__ProjectLibrary________________________63a3ffcc479091336000604051602001526040518363ffffffff167c0100000000000000000000000000000000000000000000000000000000028152600401808373ffffffffffffffffffffffffffffffffffffffff1673ffffffffffffffffffffffffffffffffffffffff1681526020018273ffffffffffffffffffffffffffffffffffffffff1673ffffffffffffffffffffffffffffffffffffffff1681526020019250505060206040518083038186803b1515614ee657600080fd5b6102c65a03f41515614ef757600080fd5b5050506040518051905090507fbbb6b08a0b70e46fa6227c528fe18619e7eaa00d60d447fc668588ce6ff1c7726101266040518080602001838152602001828103825260588152602001807f2f55736572732f73686f6b6973686f6b692f646576656c6f706d656e742f636f81526020017f6e73656e7379732f646973747269627574652f636f6e7472616374732f636f6e81526020017f7472616374732f546f6b656e52656769737472792e736f6c00000000000000008152506060019250505060405180910390a17fcc4cca764c041e6c7d6fdf7313511df6692c197010547f5a3fe8b1efcc5ed20c60146040518080602001838152602001828103825260588152602001807f2f55736572732f73686f6b6973686f6b692f646576656c6f706d656e742f636f81526020017f6e73656e7379732f646973747269627574652f636f6e7472616374732f636f6e81526020017f7472616374732f546f6b656e52656769737472792e736f6c00000000000000008152506060019250505060405180910390a17f168abdf92a92afad29d7181a38541e149c0434559a0b8a64d7698f087339c942602a6040518080602001838152602001828103825260588152602001807f2f55736572732f73686f6b6973686f6b692f646576656c6f706d656e742f636f81526020017f6e73656e7379732f646973747269627574652f636f6e7472616374732f636f6e81526020017f7472616374732f546f6b656e52656769737472792e736f6c00000000000000008152506060019250505060405180910390a160008111151561514a57600080fd5b7ffec663b8200418a1faef4e8643e2a0637b67ac2c24bc35ac9d9b48d3e9bcce9760146040518080602001838152602001828103825260588152602001807f2f55736572732f73686f6b6973686f6b692f646576656c6f706d656e742f636f81526020017f6e73656e7379732f646973747269627574652f636f6e7472616374732f636f6e81526020017f7472616374732f546f6b656e52656769737472792e736f6c00000000000000008152506060019250505060405180910390a17fbbb6b08a0b70e46fa6227c528fe18619e7eaa00d60d447fc668588ce6ff1c7726101286040518080602001838152602001828103825260588152602001807f2f55736572732f73686f6b6973686f6b692f646576656c6f706d656e742f636f81526020017f6e73656e7379732f646973747269627574652f636f6e7472616374732f636f6e81526020017f7472616374732f546f6b656e52656769737472792e736f6c00000000000000008152506060019250505060405180910390a17f168abdf92a92afad29d7181a38541e149c0434559a0b8a64d7698f087339c942602b6040518080602001838152602001828103825260588152602001807f2f55736572732f73686f6b6973686f6b692f646576656c6f706d656e742f636f81526020017f6e73656e7379732f646973747269627574652f636f6e7472616374732f636f6e81526020017f7472616374732f546f6b656e52656769737472792e736f6c00000000000000008152506060019250505060405180910390a18173ffffffffffffffffffffffffffffffffffffffff166306a5ab2c336040518263ffffffff167c0100000000000000000000000000000000000000000000000000000000028152600401808273ffffffffffffffffffffffffffffffffffffffff1673ffffffffffffffffffffffffffffffffffffffff168152602001915050600060405180830381600087803b151561541c57600080fd5b6102c65a03f1151561542d57600080fd5b5050507fbbb6b08a0b70e46fa6227c528fe18619e7eaa00d60d447fc668588ce6ff1c7726101296040518080602001838152602001828103825260588152602001807f2f55736572732f73686f6b6973686f6b692f646576656c6f706d656e742f636f81526020017f6e73656e7379732f646973747269627574652f636f6e7472616374732f636f6e81526020017f7472616374732f546f6b656e52656769737472792e736f6c00000000000000008152506060019250505060405180910390a1600160009054906101000a900473ffffffffffffffffffffffffffffffffffffffff1673ffffffffffffffffffffffffffffffffffffffff1663283760fa33836000604051602001526040518363ffffffff167c0100000000000000000000000000000000000000000000000000000000028152600401808373ffffffffffffffffffffffffffffffffffffffff1673ffffffffffffffffffffffffffffffffffffffff16815260200182815260200192505050602060405180830381600087803b15156155bb57600080fd5b6102c65a03f115156155cc57600080fd5b50505060405180519050505050565b7f5202ed0eadc2f3f867056c6a920b65b3812a2fda51a1d7655a8abd9ef3c451c060016040518080602001838152602001828103825260588152602001807f2f55736572732f73686f6b6973686f6b692f646576656c6f706d656e742f636f81526020017f6e73656e7379732f646973747269627574652f636f6e7472616374732f636f6e81526020017f7472616374732f546f6b656e52656769737472792e736f6c00000000000000008152506060019250505060405180910390a17fbbb6b08a0b70e46fa6227c528fe18619e7eaa00d60d447fc668588ce6ff1c772602f6040518080602001838152602001828103825260588152602001807f2f55736572732f73686f6b6973686f6b692f646576656c6f706d656e742f636f81526020017f6e73656e7379732f646973747269627574652f636f6e7472616374732f636f6e81526020017f7472616374732f546f6b656e52656769737472792e736f6c00000000000000008152506060019250505060405180910390a17fcc4cca764c041e6c7d6fdf7313511df6692c197010547f5a3fe8b1efcc5ed20c60016040518080602001838152602001828103825260588152602001807f2f55736572732f73686f6b6973686f6b692f646576656c6f706d656e742f636f81526020017f6e73656e7379732f646973747269627574652f636f6e7472616374732f636f6e81526020017f7472616374732f546f6b656e52656769737472792e736f6c00000000000000008152506060019250505060405180910390a17f168abdf92a92afad29d7181a38541e149c0434559a0b8a64d7698f087339c94260016040518080602001838152602001828103825260588152602001807f2f55736572732f73686f6b6973686f6b692f646576656c6f706d656e742f636f81526020017f6e73656e7379732f646973747269627574652f636f6e7472616374732f636f6e81526020017f7472616374732f546f6b656e52656769737472792e736f6c00000000000000008152506060019250505060405180910390a16000809054906101000a900473ffffffffffffffffffffffffffffffffffffffff1673ffffffffffffffffffffffffffffffffffffffff163373ffffffffffffffffffffffffffffffffffffffff1614151561592a57600080fd5b7ffec663b8200418a1faef4e8643e2a0637b67ac2c24bc35ac9d9b48d3e9bcce9760016040518080602001838152602001828103825260588152602001807f2f55736572732f73686f6b6973686f6b692f646576656c6f706d656e742f636f81526020017f6e73656e7379732f646973747269627574652f636f6e7472616374732f636f6e81526020017f7472616374732f546f6b656e52656769737472792e736f6c00000000000000008152506060019250505060405180910390a17fbbb6b08a0b70e46fa6227c528fe18619e7eaa00d60d447fc668588ce6ff1c77260306040518080602001838152602001828103825260588152602001807f2f55736572732f73686f6b6973686f6b692f646576656c6f706d656e742f636f81526020017f6e73656e7379732f646973747269627574652f636f6e7472616374732f636f6e81526020017f7472616374732f546f6b656e52656769737472792e736f6c00000000000000008152506060019250505060405180910390a17f5202ed0eadc2f3f867056c6a920b65b3812a2fda51a1d7655a8abd9ef3c451c060106040518080602001838152602001828103825260588152602001807f2f55736572732f73686f6b6973686f6b692f646576656c6f706d656e742f636f81526020017f6e73656e7379732f646973747269627574652f636f6e7472616374732f636f6e81526020017f7472616374732f546f6b656e52656769737472792e736f6c00000000000000008152506060019250505060405180910390a17fbbb6b08a0b70e46fa6227c528fe18619e7eaa00d60d447fc668588ce6ff1c77261014b6040518080602001838152602001828103825260588152602001807f2f55736572732f73686f6b6973686f6b692f646576656c6f706d656e742f636f81526020017f6e73656e7379732f646973747269627574652f636f6e7472616374732f636f6e81526020017f7472616374732f546f6b656e52656769737472792e736f6c00000000000000008152506060019250505060405180910390a1600160009054906101000a900473ffffffffffffffffffffffffffffffffffffffff1673ffffffffffffffffffffffffffffffffffffffff166342966c68826040518263ffffffff167c010000000000000000000000000000000000000000000000000000000002815260040180828152602001915050600060405180830381600087803b1515615caf57600080fd5b6102c65a03f11515615cc057600080fd5b50505050565b7f5202ed0eadc2f3f867056c6a920b65b3812a2fda51a1d7655a8abd9ef3c451c060016040518080602001838152602001828103825260588152602001807f2f55736572732f73686f6b6973686f6b692f646576656c6f706d656e742f636f81526020017f6e73656e7379732f646973747269627574652f636f6e7472616374732f636f6e81526020017f7472616374732f546f6b656e52656769737472792e736f6c00000000000000008152506060019250505060405180910390a17fbbb6b08a0b70e46fa6227c528fe18619e7eaa00d60d447fc668588ce6ff1c772602f6040518080602001838152602001828103825260588152602001807f2f55736572732f73686f6b6973686f6b692f646576656c6f706d656e742f636f81526020017f6e73656e7379732f646973747269627574652f636f6e7472616374732f636f6e81526020017f7472616374732f546f6b656e52656769737472792e736f6c00000000000000008152506060019250505060405180910390a17fcc4cca764c041e6c7d6fdf7313511df6692c197010547f5a3fe8b1efcc5ed20c60016040518080602001838152602001828103825260588152602001807f2f55736572732f73686f6b6973686f6b692f646576656c6f706d656e742f636f81526020017f6e73656e7379732f646973747269627574652f636f6e7472616374732f636f6e81526020017f7472616374732f546f6b656e52656769737472792e736f6c00000000000000008152506060019250505060405180910390a17f168abdf92a92afad29d7181a38541e149c0434559a0b8a64d7698f087339c94260016040518080602001838152602001828103825260588152602001807f2f55736572732f73686f6b6973686f6b692f646576656c6f706d656e742f636f81526020017f6e73656e7379732f646973747269627574652f636f6e7472616374732f636f6e81526020017f7472616374732f546f6b656e52656769737472792e736f6c00000000000000008152506060019250505060405180910390a16000809054906101000a900473ffffffffffffffffffffffffffffffffffffffff1673ffffffffffffffffffffffffffffffffffffffff163373ffffffffffffffffffffffffffffffffffffffff1614151561601557600080fd5b7ffec663b8200418a1faef4e8643e2a0637b67ac2c24bc35ac9d9b48d3e9bcce9760016040518080602001838152602001828103825260588152602001807f2f55736572732f73686f6b6973686f6b692f646576656c6f706d656e742f636f81526020017f6e73656e7379732f646973747269627574652f636f6e7472616374732f636f6e81526020017f7472616374732f546f6b656e52656769737472792e736f6c00000000000000008152506060019250505060405180910390a17fbbb6b08a0b70e46fa6227c528fe18619e7eaa00d60d447fc668588ce6ff1c77260306040518080602001838152602001828103825260588152602001807f2f55736572732f73686f6b6973686f6b692f646576656c6f706d656e742f636f81526020017f6e73656e7379732f646973747269627574652f636f6e7472616374732f636f6e81526020017f7472616374732f546f6b656e52656769737472792e736f6c00000000000000008152506060019250505060405180910390a17f5202ed0eadc2f3f867056c6a920b65b3812a2fda51a1d7655a8abd9ef3c451c0600f6040518080602001838152602001828103825260588152602001807f2f55736572732f73686f6b6973686f6b692f646576656c6f706d656e742f636f81526020017f6e73656e7379732f646973747269627574652f636f6e7472616374732f636f6e81526020017f7472616374732f546f6b656e52656769737472792e736f6c00000000000000008152506060019250505060405180910390a17fbbb6b08a0b70e46fa6227c528fe18619e7eaa00d60d447fc668588ce6ff1c7726101426040518080602001838152602001828103825260588152602001807f2f55736572732f73686f6b6973686f6b692f646576656c6f706d656e742f636f81526020017f6e73656e7379732f646973747269627574652f636f6e7472616374732f636f6e81526020017f7472616374732f546f6b656e52656769737472792e736f6c00000000000000008152506060019250505060405180910390a1600160009054906101000a900473ffffffffffffffffffffffffffffffffffffffff1673ffffffffffffffffffffffffffffffffffffffff1663e99364ed826040518263ffffffff167c010000000000000000000000000000000000000000000000000000000002815260040180828152602001915050600060405180830381600087803b151561639a57600080fd5b6102c65a03f115156163ab57600080fd5b50505050565b60008060008060008060007f5202ed0eadc2f3f867056c6a920b65b3812a2fda51a1d7655a8abd9ef3c451c060066040518080602001838152602001828103825260588152602001807f2f55736572732f73686f6b6973686f6b692f646576656c6f706d656e742f636f81526020017f6e73656e7379732f646973747269627574652f636f6e7472616374732f636f6e81526020017f7472616374732f546f6b656e52656769737472792e736f6c00000000000000008152506060019250505060405180910390a17fbbb6b08a0b70e46fa6227c528fe18619e7eaa00d60d447fc668588ce6ff1c772608f6040518080602001838152602001828103825260588152602001807f2f55736572732f73686f6b6973686f6b692f646576656c6f706d656e742f636f81526020017f6e73656e7379732f646973747269627574652f636f6e7472616374732f636f6e81526020017f7472616374732f546f6b656e52656769737472792e736f6c00000000000000008152506060019250505060405180910390a17fcc4cca764c041e6c7d6fdf7313511df6692c197010547f5a3fe8b1efcc5ed20c60076040518080602001838152602001828103825260588152602001807f2f55736572732f73686f6b6973686f6b692f646576656c6f706d656e742f636f81526020017f6e73656e7379732f646973747269627574652f636f6e7472616374732f636f6e81526020017f7472616374732f546f6b656e52656769737472792e736f6c00000000000000008152506060019250505060405180910390a17f168abdf92a92afad29d7181a38541e149c0434559a0b8a64d7698f087339c94260106040518080602001838152602001828103825260588152602001807f2f55736572732f73686f6b6973686f6b692f646576656c6f706d656e742f636f81526020017f6e73656e7379732f646973747269627574652f636f6e7472616374732f636f6e81526020017f7472616374732f546f6b656e52656769737472792e736f6c00000000000000008152506060019250505060405180910390a187600160009054906101000a900473ffffffffffffffffffffffffffffffffffffffff1673ffffffffffffffffffffffffffffffffffffffff166370a08231336000604051602001526040518263ffffffff167c0100000000000000000000000000000000000000000000000000000000028152600401808273ffffffffffffffffffffffffffffffffffffffff1673ffffffffffffffffffffffffffffffffffffffff168152602001915050602060405180830381600087803b151561677657600080fd5b6102c65a03f1151561678757600080fd5b505050604051805190501015151561679e57600080fd5b7ffec663b8200418a1faef4e8643e2a0637b67ac2c24bc35ac9d9b48d3e9bcce9760076040518080602001838152602001828103825260588152602001807f2f55736572732f73686f6b6973686f6b692f646576656c6f706d656e742f636f81526020017f6e73656e7379732f646973747269627574652f636f6e7472616374732f636f6e81526020017f7472616374732f546f6b656e52656769737472792e736f6c00000000000000008152506060019250505060405180910390a17fbbb6b08a0b70e46fa6227c528fe18619e7eaa00d60d447fc668588ce6ff1c77260916040518080602001838152602001828103825260588152602001807f2f55736572732f73686f6b6973686f6b692f646576656c6f706d656e742f636f81526020017f6e73656e7379732f646973747269627574652f636f6e7472616374732f636f6e81526020017f7472616374732f546f6b656e52656769737472792e736f6c00000000000000008152506060019250505060405180910390a17f168abdf92a92afad29d7181a38541e149c0434559a0b8a64d7698f087339c94260116040518080602001838152602001828103825260588152602001807f2f55736572732f73686f6b6973686f6b692f646576656c6f706d656e742f636f81526020017f6e73656e7379732f646973747269627574652f636f6e7472616374732f636f6e81526020017f7472616374732f546f6b656e52656769737472792e736f6c00000000000000008152506060019250505060405180910390a18896507fbbb6b08a0b70e46fa6227c528fe18619e7eaa00d60d447fc668588ce6ff1c77260936040518080602001838152602001828103825260588152602001807f2f55736572732f73686f6b6973686f6b692f646576656c6f706d656e742f636f81526020017f6e73656e7379732f646973747269627574652f636f6e7472616374732f636f6e81526020017f7472616374732f546f6b656e52656769737472792e736f6c00000000000000008152506060019250505060405180910390a17f168abdf92a92afad29d7181a38541e149c0434559a0b8a64d7698f087339c94260126040518080602001838152602001828103825260588152602001807f2f55736572732f73686f6b6973686f6b692f646576656c6f706d656e742f636f81526020017f6e73656e7379732f646973747269627574652f636f6e7472616374732f636f6e81526020017f7472616374732f546f6b656e52656769737472792e736f6c00000000000000008152506060019250505060405180910390a18673ffffffffffffffffffffffffffffffffffffffff1663065d5d0a6000604051602001526040518163ffffffff167c0100000000000000000000000000000000000000000000000000000000028152600401602060405180830381600087803b1515616bbe57600080fd5b6102c65a03f11515616bcf57600080fd5b505050604051805190508773ffffffffffffffffffffffffffffffffffffffff166312ff35bc6000604051602001526040518163ffffffff167c0100000000000000000000000000000000000000000000000000000000028152600401602060405180830381600087803b1515616c4557600080fd5b6102c65a03f11515616c5657600080fd5b505050604051805190500395507fbbb6b08a0b70e46fa6227c528fe18619e7eaa00d60d447fc668588ce6ff1c77260946040518080602001838152602001828103825260588152602001807f2f55736572732f73686f6b6973686f6b692f646576656c6f706d656e742f636f81526020017f6e73656e7379732f646973747269627574652f636f6e7472616374732f636f6e81526020017f7472616374732f546f6b656e52656769737472792e736f6c00000000000000008152506060019250505060405180910390a17fcc4cca764c041e6c7d6fdf7313511df6692c197010547f5a3fe8b1efcc5ed20c60086040518080602001838152602001828103825260588152602001807f2f55736572732f73686f6b6973686f6b692f646576656c6f706d656e742f636f81526020017f6e73656e7379732f646973747269627574652f636f6e7472616374732f636f6e81526020017f7472616374732f546f6b656e52656769737472792e736f6c00000000000000008152506060019250505060405180910390a17f168abdf92a92afad29d7181a38541e149c0434559a0b8a64d7698f087339c94260136040518080602001838152602001828103825260588152602001807f2f55736572732f73686f6b6973686f6b692f646576656c6f706d656e742f636f81526020017f6e73656e7379732f646973747269627574652f636f6e7472616374732f636f6e81526020017f7472616374732f546f6b656e52656769737472792e736f6c00000000000000008152506060019250505060405180910390a1600086111515616ea957600080fd5b7ffec663b8200418a1faef4e8643e2a0637b67ac2c24bc35ac9d9b48d3e9bcce9760086040518080602001838152602001828103825260588152602001807f2f55736572732f73686f6b6973686f6b692f646576656c6f706d656e742f636f81526020017f6e73656e7379732f646973747269627574652f636f6e7472616374732f636f6e81526020017f7472616374732f546f6b656e52656769737472792e736f6c00000000000000008152506060019250505060405180910390a17fbbb6b08a0b70e46fa6227c528fe18619e7eaa00d60d447fc668588ce6ff1c77260966040518080602001838152602001828103825260588152602001807f2f55736572732f73686f6b6973686f6b692f646576656c6f706d656e742f636f81526020017f6e73656e7379732f646973747269627574652f636f6e7472616374732f636f6e81526020017f7472616374732f546f6b656e52656769737472792e736f6c00000000000000008152506060019250505060405180910390a17f168abdf92a92afad29d7181a38541e149c0434559a0b8a64d7698f087339c94260146040518080602001838152602001828103825260588152602001807f2f55736572732f73686f6b6973686f6b692f646576656c6f706d656e742f636f81526020017f6e73656e7379732f646973747269627574652f636f6e7472616374732f636f6e81526020017f7472616374732f546f6b656e52656769737472792e736f6c00000000000000008152506060019250505060405180910390a1600160009054906101000a900473ffffffffffffffffffffffffffffffffffffffff1673ffffffffffffffffffffffffffffffffffffffff16639d1b464a6000604051602001526040518163ffffffff167c0100000000000000000000000000000000000000000000000000000000028152600401602060405180830381600087803b151561716e57600080fd5b6102c65a03f1151561717f57600080fd5b5050506040518051905094507fbbb6b08a0b70e46fa6227c528fe18619e7eaa00d60d447fc668588ce6ff1c77260976040518080602001838152602001828103825260588152602001807f2f55736572732f73686f6b6973686f6b692f646576656c6f706d656e742f636f81526020017f6e73656e7379732f646973747269627574652f636f6e7472616374732f636f6e81526020017f7472616374732f546f6b656e52656769737472792e736f6c00000000000000008152506060019250505060405180910390a17f168abdf92a92afad29d7181a38541e149c0434559a0b8a64d7698f087339c94260156040518080602001838152602001828103825260588152602001807f2f55736572732f73686f6b6973686f6b692f646576656c6f706d656e742f636f81526020017f6e73656e7379732f646973747269627574652f636f6e7472616374732f636f6e81526020017f7472616374732f546f6b656e52656769737472792e736f6c00000000000000008152506060019250505060405180910390a187850293507fbbb6b08a0b70e46fa6227c528fe18619e7eaa00d60d447fc668588ce6ff1c77260986040518080602001838152602001828103825260588152602001807f2f55736572732f73686f6b6973686f6b692f646576656c6f706d656e742f636f81526020017f6e73656e7379732f646973747269627574652f636f6e7472616374732f636f6e81526020017f7472616374732f546f6b656e52656769737472792e736f6c00000000000000008152506060019250505060405180910390a17f168abdf92a92afad29d7181a38541e149c0434559a0b8a64d7698f087339c94260166040518080602001838152602001828103825260588152602001807f2f55736572732f73686f6b6973686f6b692f646576656c6f706d656e742f636f81526020017f6e73656e7379732f646973747269627574652f636f6e7472616374732f636f6e81526020017f7472616374732f546f6b656e52656769737472792e736f6c00000000000000008152506060019250505060405180910390a185841192507fbbb6b08a0b70e46fa6227c528fe18619e7eaa00d60d447fc668588ce6ff1c77260996040518080602001838152602001828103825260588152602001807f2f55736572732f73686f6b6973686f6b692f646576656c6f706d656e742f636f81526020017f6e73656e7379732f646973747269627574652f636f6e7472616374732f636f6e81526020017f7472616374732f546f6b656e52656769737472792e736f6c00000000000000008152506060019250505060405180910390a17f168abdf92a92afad29d7181a38541e149c0434559a0b8a64d7698f087339c94260176040518080602001838152602001828103825260588152602001807f2f55736572732f73686f6b6973686f6b692f646576656c6f706d656e742f636f81526020017f6e73656e7379732f646973747269627574652f636f6e7472616374732f636f6e81526020017f7472616374732f546f6b656e52656769737472792e736f6c00000000000000008152506060019250505060405180910390a1826176d4577f488b07f2ca693ed04281620663d89364750f79b36b2785b8d78a5e717c0ac0c2600960016040518080602001848152602001838152602001828103825260588152602001807f2f55736572732f73686f6b6973686f6b692f646576656c6f706d656e742f636f81526020017f6e73656e7379732f646973747269627574652f636f6e7472616374732f636f6e81526020017f7472616374732f546f6b656e52656769737472792e736f6c0000000000000000815250606001935050505060405180910390a18361779c565b7f488b07f2ca693ed04281620663d89364750f79b36b2785b8d78a5e717c0ac0c2600960006040518080602001848152602001838152602001828103825260588152602001807f2f55736572732f73686f6b6973686f6b692f646576656c6f706d656e742f636f81526020017f6e73656e7379732f646973747269627574652f636f6e7472616374732f636f6e81526020017f7472616374732f546f6b656e52656769737472792e736f6c0000000000000000815250606001935050505060405180910390a1855b809250507fbbb6b08a0b70e46fa6227c528fe18619e7eaa00d60d447fc668588ce6ff1c772609c6040518080602001838152602001828103825260588152602001807f2f55736572732f73686f6b6973686f6b692f646576656c6f706d656e742f636f81526020017f6e73656e7379732f646973747269627574652f636f6e7472616374732f636f6e81526020017f7472616374732f546f6b656e52656769737472792e736f6c00000000000000008152506060019250505060405180910390a17f168abdf92a92afad29d7181a38541e149c0434559a0b8a64d7698f087339c94260186040518080602001838152602001828103825260588152602001807f2f55736572732f73686f6b6973686f6b692f646576656c6f706d656e742f636f81526020017f6e73656e7379732f646973747269627574652f636f6e7472616374732f636f6e81526020017f7472616374732f546f6b656e52656769737472792e736f6c00000000000000008152506060019250505060405180910390a1826179eb577f488b07f2ca693ed04281620663d89364750f79b36b2785b8d78a5e717c0ac0c2600a60016040518080602001848152602001838152602001828103825260588152602001807f2f55736572732f73686f6b6973686f6b692f646576656c6f706d656e742f636f81526020017f6e73656e7379732f646973747269627574652f636f6e7472616374732f636f6e81526020017f7472616374732f546f6b656e52656769737472792e736f6c0000000000000000815250606001935050505060405180910390a187617ac1565b7f488b07f2ca693ed04281620663d89364750f79b36b2785b8d78a5e717c0ac0c2600a60006040518080602001848152602001838152602001828103825260588152602001807f2f55736572732f73686f6b6973686f6b692f646576656c6f706d656e742f636f81526020017f6e73656e7379732f646973747269627574652f636f6e7472616374732f636f6e81526020017f7472616374732f546f6b656e52656769737472792e736f6c0000000000000000815250606001935050505060405180910390a160018587811515617abe57fe5b04015b809150507fbbb6b08a0b70e46fa6227c528fe18619e7eaa00d60d447fc668588ce6ff1c772609f6040518080602001838152602001828103825260588152602001807f2f55736572732f73686f6b6973686f6b692f646576656c6f706d656e742f636f81526020017f6e73656e7379732f646973747269627574652f636f6e7472616374732f636f6e81526020017f7472616374732f546f6b656e52656769737472792e736f6c00000000000000008152506060019250505060405180910390a18673ffffffffffffffffffffffffffffffffffffffff16630cff8e8f3383856040518463ffffffff167c0100000000000000000000000000000000000000000000000000000000028152600401808473ffffffffffffffffffffffffffffffffffffffff1673ffffffffffffffffffffffffffffffffffffffff1681526020018381526020018281526020019350505050600060405180830381600087803b1515617c2c57600080fd5b6102c65a03f11515617c3d57600080fd5b5050507fbbb6b08a0b70e46fa6227c528fe18619e7eaa00d60d447fc668588ce6ff1c77260a06040518080602001838152602001828103825260588152602001807f2f55736572732f73686f6b6973686f6b692f646576656c6f706d656e742f636f81526020017f6e73656e7379732f646973747269627574652f636f6e7472616374732f636f6e81526020017f7472616374732f546f6b656e52656769737472792e736f6c00000000000000008152506060019250505060405180910390a1600160009054906101000a900473ffffffffffffffffffffffffffffffffffffffff1673ffffffffffffffffffffffffffffffffffffffff166353c333cd8a846040518363ffffffff167c0100000000000000000000000000000000000000000000000000000000028152600401808373ffffffffffffffffffffffffffffffffffffffff1673ffffffffffffffffffffffffffffffffffffffff16815260200182815260200192505050600060405180830381600087803b1515617dc157600080fd5b6102c65a03f11515617dd257600080fd5b5050507fbbb6b08a0b70e46fa6227c528fe18619e7eaa00d60d447fc668588ce6ff1c77260a16040518080602001838152602001828103825260588152602001807f2f55736572732f73686f6b6973686f6b692f646576656c6f706d656e742f636f81526020017f6e73656e7379732f646973747269627574652f636f6e7472616374732f636f6e81526020017f7472616374732f546f6b656e52656769737472792e736f6c00000000000000008152506060019250505060405180910390a1600160009054906101000a900473ffffffffffffffffffffffffffffffffffffffff1673ffffffffffffffffffffffffffffffffffffffff16639e88fd8133836000604051602001526040518363ffffffff167c0100000000000000000000000000000000000000000000000000000000028152600401808373ffffffffffffffffffffffffffffffffffffffff1673ffffffffffffffffffffffffffffffffffffffff16815260200182815260200192505050602060405180830381600087803b1515617f5f57600080fd5b6102c65a03f11515617f7057600080fd5b50505060405180519050507fbbb6b08a0b70e46fa6227c528fe18619e7eaa00d60d447fc668588ce6ff1c77260a26040518080602001838152602001828103825260588152602001807f2f55736572732f73686f6b6973686f6b692f646576656c6f706d656e742f636f81526020017f6e73656e7379732f646973747269627574652f636f6e7472616374732f636f6e81526020017f7472616374732f546f6b656e52656769737472792e736f6c00000000000000008152506060019250505060405180910390a16000809054906101000a900473ffffffffffffffffffffffffffffffffffffffff1673ffffffffffffffffffffffffffffffffffffffff1663247f8e148a6000604051602001526040518263ffffffff167c0100000000000000000000000000000000000000000000000000000000028152600401808273ffffffffffffffffffffffffffffffffffffffff1673ffffffffffffffffffffffffffffffffffffffff168152602001915050602060405180830381600087803b15156180fc57600080fd5b6102c65a03f1151561810d57600080fd5b5050506040518051905050505050505050505050565b7f5202ed0eadc2f3f867056c6a920b65b3812a2fda51a1d7655a8abd9ef3c451c0600c6040518080602001838152602001828103825260588152602001807f2f55736572732f73686f6b6973686f6b692f646576656c6f706d656e742f636f81526020017f6e73656e7379732f646973747269627574652f636f6e7472616374732f636f6e81526020017f7472616374732f546f6b656e52656769737472792e736f6c00000000000000008152506060019250505060405180910390a17fbbb6b08a0b70e46fa6227c528fe18619e7eaa00d60d447fc668588ce6ff1c7726101186040518080602001838152602001828103825260588152602001807f2f55736572732f73686f6b6973686f6b692f646576656c6f706d656e742f636f81526020017f6e73656e7379732f646973747269627574652f636f6e7472616374732f636f6e81526020017f7472616374732f546f6b656e52656769737472792e736f6c00000000000000008152506060019250505060405180910390a1600260009054906101000a900473ffffffffffffffffffffffffffffffffffffffff1673ffffffffffffffffffffffffffffffffffffffff1663ef348e4033836040518363ffffffff167c0100000000000000000000000000000000000000000000000000000000028152600401808373ffffffffffffffffffffffffffffffffffffffff1673ffffffffffffffffffffffffffffffffffffffff16815260200182815260200192505050600060405180830381600087803b151561836257600080fd5b6102c65a03f1151561837357600080fd5b5050507fbbb6b08a0b70e46fa6227c528fe18619e7eaa00d60d447fc668588ce6ff1c7726101196040518080602001838152602001828103825260588152602001807f2f55736572732f73686f6b6973686f6b692f646576656c6f706d656e742f636f81526020017f6e73656e7379732f646973747269627574652f636f6e7472616374732f636f6e81526020017f7472616374732f546f6b656e52656769737472792e736f6c00000000000000008152506060019250505060405180910390a1600160009054906101000a900473ffffffffffffffffffffffffffffffffffffffff1673ffffffffffffffffffffffffffffffffffffffff1663283760fa33836000604051602001526040518363ffffffff167c0100000000000000000000000000000000000000000000000000000000028152600401808373ffffffffffffffffffffffffffffffffffffffff1673ffffffffffffffffffffffffffffffffffffffff16815260200182815260200192505050602060405180830381600087803b151561850157600080fd5b6102c65a03f1151561851257600080fd5b505050604051805190505050565b6000806000807f5202ed0eadc2f3f867056c6a920b65b3812a2fda51a1d7655a8abd9ef3c451c060096040518080602001838152602001828103825260588152602001807f2f55736572732f73686f6b6973686f6b692f646576656c6f706d656e742f636f81526020017f6e73656e7379732f646973747269627574652f636f6e7472616374732f636f6e81526020017f7472616374732f546f6b656e52656769737472792e736f6c00000000000000008152506060019250505060405180910390a17fbbb6b08a0b70e46fa6227c528fe18619e7eaa00d60d447fc668588ce6ff1c77260cf6040518080602001838152602001828103825260588152602001807f2f55736572732f73686f6b6973686f6b692f646576656c6f706d656e742f636f81526020017f6e73656e7379732f646973747269627574652f636f6e7472616374732f636f6e81526020017f7472616374732f546f6b656e52656769737472792e736f6c00000000000000008152506060019250505060405180910390a17f168abdf92a92afad29d7181a38541e149c0434559a0b8a64d7698f087339c942601b6040518080602001838152602001828103825260588152602001807f2f55736572732f73686f6b6973686f6b692f646576656c6f706d656e742f636f81526020017f6e73656e7379732f646973747269627574652f636f6e7472616374732f636f6e81526020017f7472616374732f546f6b656e52656769737472792e736f6c00000000000000008152506060019250505060405180910390a18593507fbbb6b08a0b70e46fa6227c528fe18619e7eaa00d60d447fc668588ce6ff1c77260d06040518080602001838152602001828103825260588152602001807f2f55736572732f73686f6b6973686f6b692f646576656c6f706d656e742f636f81526020017f6e73656e7379732f646973747269627574652f636f6e7472616374732f636f6e81526020017f7472616374732f546f6b656e52656769737472792e736f6c00000000000000008152506060019250505060405180910390a17f168abdf92a92afad29d7181a38541e149c0434559a0b8a64d7698f087339c942601c6040518080602001838152602001828103825260588152602001807f2f55736572732f73686f6b6973686f6b692f646576656c6f706d656e742f636f81526020017f6e73656e7379732f646973747269627574652f636f6e7472616374732f636f6e81526020017f7472616374732f546f6b656e52656769737472792e736f6c00000000000000008152506060019250505060405180910390a18373ffffffffffffffffffffffffffffffffffffffff16638d977672866000604051602001526040518263ffffffff167c010000000000000000000000000000000000000000000000000000000002815260040180828152602001915050602060405180830381600087803b151561895157600080fd5b6102c65a03f1151561896257600080fd5b5050506040518051905092507fbbb6b08a0b70e46fa6227c528fe18619e7eaa00d60d447fc668588ce6ff1c77260d16040518080602001838152602001828103825260588152602001807f2f55736572732f73686f6b6973686f6b692f646576656c6f706d656e742f636f81526020017f6e73656e7379732f646973747269627574652f636f6e7472616374732f636f6e81526020017f7472616374732f546f6b656e52656769737472792e736f6c00000000000000008152506060019250505060405180910390a17fcc4cca764c041e6c7d6fdf7313511df6692c197010547f5a3fe8b1efcc5ed20c600c6040518080602001838152602001828103825260588152602001807f2f55736572732f73686f6b6973686f6b692f646576656c6f706d656e742f636f81526020017f6e73656e7379732f646973747269627574652f636f6e7472616374732f636f6e81526020017f7472616374732f546f6b656e52656769737472792e736f6c00000000000000008152506060019250505060405180910390a17f168abdf92a92afad29d7181a38541e149c0434559a0b8a64d7698f087339c942601d6040518080602001838152602001828103825260588152602001807f2f55736572732f73686f6b6973686f6b692f646576656c6f706d656e742f636f81526020017f6e73656e7379732f646973747269627574652f636f6e7472616374732f636f6e81526020017f7472616374732f546f6b656e52656769737472792e736f6c00000000000000008152506060019250505060405180910390a18273ffffffffffffffffffffffffffffffffffffffff1663af38d7576000604051602001526040518163ffffffff167c0100000000000000000000000000000000000000000000000000000000028152600401602060405180830381600087803b1515618c1157600080fd5b6102c65a03f11515618c2257600080fd5b505050604051805190501515618c3757600080fd5b7ffec663b8200418a1faef4e8643e2a0637b67ac2c24bc35ac9d9b48d3e9bcce97600c6040518080602001838152602001828103825260588152602001807f2f55736572732f73686f6b6973686f6b692f646576656c6f706d656e742f636f81526020017f6e73656e7379732f646973747269627574652f636f6e7472616374732f636f6e81526020017f7472616374732f546f6b656e52656769737472792e736f6c00000000000000008152506060019250505060405180910390a17fbbb6b08a0b70e46fa6227c528fe18619e7eaa00d60d447fc668588ce6ff1c77260d36040518080602001838152602001828103825260588152602001807f2f55736572732f73686f6b6973686f6b692f646576656c6f706d656e742f636f81526020017f6e73656e7379732f646973747269627574652f636f6e7472616374732f636f6e81526020017f7472616374732f546f6b656e52656769737472792e736f6c00000000000000008152506060019250505060405180910390a17f168abdf92a92afad29d7181a38541e149c0434559a0b8a64d7698f087339c942601e6040518080602001838152602001828103825260588152602001807f2f55736572732f73686f6b6973686f6b692f646576656c6f706d656e742f636f81526020017f6e73656e7379732f646973747269627574652f636f6e7472616374732f636f6e81526020017f7472616374732f546f6b656e52656769737472792e736f6c00000000000000008152506060019250505060405180910390a18273ffffffffffffffffffffffffffffffffffffffff1663fa52c7d8336000604051604001526040518263ffffffff167c0100000000000000000000000000000000000000000000000000000000028152600401808273ffffffffffffffffffffffffffffffffffffffff1673ffffffffffffffffffffffffffffffffffffffff1681526020019150506040805180830381600087803b1515618f1057600080fd5b6102c65a03f11515618f2157600080fd5b50505060405180519060200180519050915091507fbbb6b08a0b70e46fa6227c528fe18619e7eaa00d60d447fc668588ce6ff1c77260d46040518080602001838152602001828103825260588152602001807f2f55736572732f73686f6b6973686f6b692f646576656c6f706d656e742f636f81526020017f6e73656e7379732f646973747269627574652f636f6e7472616374732f636f6e81526020017f7472616374732f546f6b656e52656769737472792e736f6c00000000000000008152506060019250505060405180910390a17f168abdf92a92afad29d7181a38541e149c0434559a0b8a64d7698f087339c942601f6040518080602001838152602001828103825260588152602001807f2f55736572732f73686f6b6973686f6b692f646576656c6f706d656e742f636f81526020017f6e73656e7379732f646973747269627574652f636f6e7472616374732f636f6e81526020017f7472616374732f546f6b656e52656769737472792e736f6c00000000000000008152506060019250505060405180910390a160008373ffffffffffffffffffffffffffffffffffffffff1663e24e8a6a6000604051602001526040518163ffffffff167c0100000000000000000000000000000000000000000000000000000000028152600401602060405180830381600087803b151561911d57600080fd5b6102c65a03f1151561912e57600080fd5b50505060405180519050141561950c577f488b07f2ca693ed04281620663d89364750f79b36b2785b8d78a5e717c0ac0c2600d60006040518080602001848152602001838152602001828103825260588152602001807f2f55736572732f73686f6b6973686f6b692f646576656c6f706d656e742f636f81526020017f6e73656e7379732f646973747269627574652f636f6e7472616374732f636f6e81526020017f7472616374732f546f6b656e52656769737472792e736f6c0000000000000000815250606001935050505060405180910390a17fbbb6b08a0b70e46fa6227c528fe18619e7eaa00d60d447fc668588ce6ff1c77260d56040518080602001838152602001828103825260588152602001807f2f55736572732f73686f6b6973686f6b692f646576656c6f706d656e742f636f81526020017f6e73656e7379732f646973747269627574652f636f6e7472616374732f636f6e81526020017f7472616374732f546f6b656e52656769737472792e736f6c00000000000000008152506060019250505060405180910390a17fcc4cca764c041e6c7d6fdf7313511df6692c197010547f5a3fe8b1efcc5ed20c600e6040518080602001838152602001828103825260588152602001807f2f55736572732f73686f6b6973686f6b692f646576656c6f706d656e742f636f81526020017f6e73656e7379732f646973747269627574652f636f6e7472616374732f636f6e81526020017f7472616374732f546f6b656e52656769737472792e736f6c00000000000000008152506060019250505060405180910390a17f168abdf92a92afad29d7181a38541e149c0434559a0b8a64d7698f087339c94260206040518080602001838152602001828103825260588152602001807f2f55736572732f73686f6b6973686f6b692f646576656c6f706d656e742f636f81526020017f6e73656e7379732f646973747269627574652f636f6e7472616374732f636f6e81526020017f7472616374732f546f6b656e52656769737472792e736f6c00000000000000008152506060019250505060405180910390a160018214151561944a57600080fd5b7ffec663b8200418a1faef4e8643e2a0637b67ac2c24bc35ac9d9b48d3e9bcce97600e6040518080602001838152602001828103825260588152602001807f2f55736572732f73686f6b6973686f6b692f646576656c6f706d656e742f636f81526020017f6e73656e7379732f646973747269627574652f636f6e7472616374732f636f6e81526020017f7472616374732f546f6b656e52656769737472792e736f6c00000000000000008152506060019250505060405180910390a1619d32565b7f168abdf92a92afad29d7181a38541e149c0434559a0b8a64d7698f087339c94260216040518080602001838152602001828103825260588152602001807f2f55736572732f73686f6b6973686f6b692f646576656c6f706d656e742f636f81526020017f6e73656e7379732f646973747269627574652f636f6e7472616374732f636f6e81526020017f7472616374732f546f6b656e52656769737472792e736f6c00000000000000008152506060019250505060405180910390a17f488b07f2ca693ed04281620663d89364750f79b36b2785b8d78a5e717c0ac0c2600d60016040518080602001848152602001838152602001828103825260588152602001807f2f55736572732f73686f6b6973686f6b692f646576656c6f706d656e742f636f81526020017f6e73656e7379732f646973747269627574652f636f6e7472616374732f636f6e81526020017f7472616374732f546f6b656e52656769737472792e736f6c0000000000000000815250606001935050505060405180910390a160008373ffffffffffffffffffffffffffffffffffffffff1663ed9bbff56000604051602001526040518163ffffffff167c0100000000000000000000000000000000000000000000000000000000028152600401602060405180830381600087803b15156196fd57600080fd5b6102c65a03f1151561970e57600080fd5b505050604051805190501415619aec577f488b07f2ca693ed04281620663d89364750f79b36b2785b8d78a5e717c0ac0c2600f60006040518080602001848152602001838152602001828103825260588152602001807f2f55736572732f73686f6b6973686f6b692f646576656c6f706d656e742f636f81526020017f6e73656e7379732f646973747269627574652f636f6e7472616374732f636f6e81526020017f7472616374732f546f6b656e52656769737472792e736f6c0000000000000000815250606001935050505060405180910390a17fbbb6b08a0b70e46fa6227c528fe18619e7eaa00d60d447fc668588ce6ff1c77260d76040518080602001838152602001828103825260588152602001807f2f55736572732f73686f6b6973686f6b692f646576656c6f706d656e742f636f81526020017f6e73656e7379732f646973747269627574652f636f6e7472616374732f636f6e81526020017f7472616374732f546f6b656e52656769737472792e736f6c00000000000000008152506060019250505060405180910390a17fcc4cca764c041e6c7d6fdf7313511df6692c197010547f5a3fe8b1efcc5ed20c60106040518080602001838152602001828103825260588152602001807f2f55736572732f73686f6b6973686f6b692f646576656c6f706d656e742f636f81526020017f6e73656e7379732f646973747269627574652f636f6e7472616374732f636f6e81526020017f7472616374732f546f6b656e52656769737472792e736f6c00000000000000008152506060019250505060405180910390a17f168abdf92a92afad29d7181a38541e149c0434559a0b8a64d7698f087339c94260226040518080602001838152602001828103825260588152602001807f2f55736572732f73686f6b6973686f6b692f646576656c6f706d656e742f636f81526020017f6e73656e7379732f646973747269627574652f636f6e7472616374732f636f6e81526020017f7472616374732f546f6b656e52656769737472792e736f6c00000000000000008152506060019250505060405180910390a1600082141515619a2a57600080fd5b7ffec663b8200418a1faef4e8643e2a0637b67ac2c24bc35ac9d9b48d3e9bcce9760106040518080602001838152602001828103825260588152602001807f2f55736572732f73686f6b6973686f6b692f646576656c6f706d656e742f636f81526020017f6e73656e7379732f646973747269627574652f636f6e7472616374732f636f6e81526020017f7472616374732f546f6b656e52656769737472792e736f6c00000000000000008152506060019250505060405180910390a1619d31565b7f488b07f2ca693ed04281620663d89364750f79b36b2785b8d78a5e717c0ac0c2600f60016040518080602001848152602001838152602001828103825260588152602001807f2f55736572732f73686f6b6973686f6b692f646576656c6f706d656e742f636f81526020017f6e73656e7379732f646973747269627574652f636f6e7472616374732f636f6e81526020017f7472616374732f546f6b656e52656769737472792e736f6c0000000000000000815250606001935050505060405180910390a17fbbb6b08a0b70e46fa6227c528fe18619e7eaa00d60d447fc668588ce6ff1c77260d96040518080602001838152602001828103825260588152602001807f2f55736572732f73686f6b6973686f6b692f646576656c6f706d656e742f636f81526020017f6e73656e7379732f646973747269627574652f636f6e7472616374732f636f6e81526020017f7472616374732f546f6b656e52656769737472792e736f6c00000000000000008152506060019250505060405180910390a17f168abdf92a92afad29d7181a38541e149c0434559a0b8a64d7698f087339c94260236040518080602001838152602001828103825260588152602001807f2f55736572732f73686f6b6973686f6b692f646576656c6f706d656e742f636f81526020017f6e73656e7379732f646973747269627574652f636f6e7472616374732f636f6e81526020017f7472616374732f546f6b656e52656769737472792e736f6c00000000000000008152506060019250505060405180910390a1600080fd5b5b7fbbb6b08a0b70e46fa6227c528fe18619e7eaa00d60d447fc668588ce6ff1c77260db6040518080602001838152602001828103825260588152602001807f2f55736572732f73686f6b6973686f6b692f646576656c6f706d656e742f636f81526020017f6e73656e7379732f646973747269627574652f636f6e7472616374732f636f6e81526020017f7472616374732f546f6b656e52656769737472792e736f6c00000000000000008152506060019250505060405180910390a18273ffffffffffffffffffffffffffffffffffffffff16639bf71e1a336040518263ffffffff167c0100000000000000000000000000000000000000000000000000000000028152600401808273ffffffffffffffffffffffffffffffffffffffff1673ffffffffffffffffffffffffffffffffffffffff168152602001915050600060405180830381600087803b1515619e8957600080fd5b6102c65a03f11515619e9a57600080fd5b5050507fbbb6b08a0b70e46fa6227c528fe18619e7eaa00d60d447fc668588ce6ff1c77260dc6040518080602001838152602001828103825260588152602001807f2f55736572732f73686f6b6973686f6b692f646576656c6f706d656e742f636f81526020017f6e73656e7379732f646973747269627574652f636f6e7472616374732f636f6e81526020017f7472616374732f546f6b656e52656769737472792e736f6c00000000000000008152506060019250505060405180910390a1600160009054906101000a900473ffffffffffffffffffffffffffffffffffffffff1673ffffffffffffffffffffffffffffffffffffffff1663283760fa33836000604051602001526040518363ffffffff167c0100000000000000000000000000000000000000000000000000000000028152600401808373ffffffffffffffffffffffffffffffffffffffff1673ffffffffffffffffffffffffffffffffffffffff16815260200182815260200192505050602060405180830381600087803b151561a02757600080fd5b6102c65a03f1151561a03857600080fd5b50505060405180519050507fbbb6b08a0b70e46fa6227c528fe18619e7eaa00d60d447fc668588ce6ff1c77260dd6040518080602001838152602001828103825260588152602001807f2f55736572732f73686f6b6973686f6b692f646576656c6f706d656e742f636f81526020017f6e73656e7379732f646973747269627574652f636f6e7472616374732f636f6e81526020017f7472616374732f546f6b656e52656769737472792e736f6c00000000000000008152506060019250505060405180910390a1600160009054906101000a900473ffffffffffffffffffffffffffffffffffffffff1673ffffffffffffffffffffffffffffffffffffffff166353c333cd336064600160009054906101000a900473ffffffffffffffffffffffffffffffffffffffff1673ffffffffffffffffffffffffffffffffffffffff16639d1b464a6000604051602001526040518163ffffffff167c0100000000000000000000000000000000000000000000000000000000028152600401602060405180830381600087803b151561a1cf57600080fd5b6102c65a03f1151561a1e057600080fd5b50505060405180519050850281151561a1f557fe5b046040518363ffffffff167c0100000000000000000000000000000000000000000000000000000000028152600401808373ffffffffffffffffffffffffffffffffffffffff1673ffffffffffffffffffffffffffffffffffffffff16815260200182815260200192505050600060405180830381600087803b151561a27a57600080fd5b6102c65a03f1151561a28b57600080fd5b505050505050505050565b7f5202ed0eadc2f3f867056c6a920b65b3812a2fda51a1d7655a8abd9ef3c451c0600b6040518080602001838152602001828103825260588152602001807f2f55736572732f73686f6b6973686f6b692f646576656c6f706d656e742f636f81526020017f6e73656e7379732f646973747269627574652f636f6e7472616374732f636f6e81526020017f7472616374732f546f6b656e52656769737472792e736f6c00000000000000008152506060019250505060405180910390a17fbbb6b08a0b70e46fa6227c528fe18619e7eaa00d60d447fc668588ce6ff1c7726101106040518080602001838152602001828103825260588152602001807f2f55736572732f73686f6b6973686f6b692f646576656c6f706d656e742f636f81526020017f6e73656e7379732f646973747269627574652f636f6e7472616374732f636f6e81526020017f7472616374732f546f6b656e52656769737472792e736f6c00000000000000008152506060019250505060405180910390a1600260009054906101000a900473ffffffffffffffffffffffffffffffffffffffff1673ffffffffffffffffffffffffffffffffffffffff1663b11d8bb88573ffffffffffffffffffffffffffffffffffffffff16638d977672866000604051602001526040518263ffffffff167c010000000000000000000000000000000000000000000000000000000002815260040180828152602001915050602060405180830381600087803b151561a4c657600080fd5b6102c65a03f1151561a4d757600080fd5b5050506040518051905073ffffffffffffffffffffffffffffffffffffffff16636f13ab006000604051602001526040518163ffffffff167c0100000000000000000000000000000000000000000000000000000000028152600401602060405180830381600087803b151561a54c57600080fd5b6102c65a03f1151561a55d57600080fd5b5050506040518051905084846040518463ffffffff167c0100000000000000000000000000000000000000000000000000000000028152600401808481526020018381526020018281526020019350505050600060405180830381600087803b151561a5c857600080fd5b6102c65a03f1151561a5d957600080fd5b50505050505050565b60007f5202ed0eadc2f3f867056c6a920b65b3812a2fda51a1d7655a8abd9ef3c451c060076040518080602001838152602001828103825260588152602001807f2f55736572732f73686f6b6973686f6b692f646576656c6f706d656e742f636f81526020017f6e73656e7379732f646973747269627574652f636f6e7472616374732f636f6e81526020017f7472616374732f546f6b656e52656769737472792e736f6c00000000000000008152506060019250505060405180910390a17fbbb6b08a0b70e46fa6227c528fe18619e7eaa00d60d447fc668588ce6ff1c77260ac6040518080602001838152602001828103825260588152602001807f2f55736572732f73686f6b6973686f6b692f646576656c6f706d656e742f636f81526020017f6e73656e7379732f646973747269627574652f636f6e7472616374732f636f6e81526020017f7472616374732f546f6b656e52656769737472792e736f6c00000000000000008152506060019250505060405180910390a17f168abdf92a92afad29d7181a38541e149c0434559a0b8a64d7698f087339c94260196040518080602001838152602001828103825260588152602001807f2f55736572732f73686f6b6973686f6b692f646576656c6f706d656e742f636f81526020017f6e73656e7379732f646973747269627574652f636f6e7472616374732f636f6e81526020017f7472616374732f546f6b656e52656769737472792e736f6c00000000000000008152506060019250505060405180910390a18273ffffffffffffffffffffffffffffffffffffffff1663e89a173e33846000604051602001526040518363ffffffff167c0100000000000000000000000000000000000000000000000000000000028152600401808373ffffffffffffffffffffffffffffffffffffffff1673ffffffffffffffffffffffffffffffffffffffff16815260200182815260200192505050602060405180830381600087803b151561a8c657600080fd5b6102c65a03f1151561a8d757600080fd5b5050506040518051905090507fbbb6b08a0b70e46fa6227c528fe18619e7eaa00d60d447fc668588ce6ff1c77260ad6040518080602001838152602001828103825260588152602001807f2f55736572732f73686f6b6973686f6b692f646576656c6f706d656e742f636f81526020017f6e73656e7379732f646973747269627574652f636f6e7472616374732f636f6e81526020017f7472616374732f546f6b656e52656769737472792e736f6c00000000000000008152506060019250505060405180910390a1600160009054906101000a900473ffffffffffffffffffffffffffffffffffffffff1673ffffffffffffffffffffffffffffffffffffffff166353c333cd33836040518363ffffffff167c0100000000000000000000000000000000000000000000000000000000028152600401808373ffffffffffffffffffffffffffffffffffffffff1673ffffffffffffffffffffffffffffffffffffffff16815260200182815260200192505050600060405180830381600087803b151561aa6457600080fd5b6102c65a03f1151561aa7557600080fd5b5050507fbbb6b08a0b70e46fa6227c528fe18619e7eaa00d60d447fc668588ce6ff1c77260ae6040518080602001838152602001828103825260588152602001807f2f55736572732f73686f6b6973686f6b692f646576656c6f706d656e742f636f81526020017f6e73656e7379732f646973747269627574652f636f6e7472616374732f636f6e81526020017f7472616374732f546f6b656e52656769737472792e736f6c00000000000000008152506060019250505060405180910390a1600160009054906101000a900473ffffffffffffffffffffffffffffffffffffffff1673ffffffffffffffffffffffffffffffffffffffff1663283760fa33846000604051602001526040518363ffffffff167c0100000000000000000000000000000000000000000000000000000000028152600401808373ffffffffffffffffffffffffffffffffffffffff1673ffffffffffffffffffffffffffffffffffffffff16815260200182815260200192505050602060405180830381600087803b151561ac0257600080fd5b6102c65a03f1151561ac1357600080fd5b5050506040518051905050505050565b7f5202ed0eadc2f3f867056c6a920b65b3812a2fda51a1d7655a8abd9ef3c451c060086040518080602001838152602001828103825260588152602001807f2f55736572732f73686f6b6973686f6b692f646576656c6f706d656e742f636f81526020017f6e73656e7379732f646973747269627574652f636f6e7472616374732f636f6e81526020017f7472616374732f546f6b656e52656769737472792e736f6c00000000000000008152506060019250505060405180910390a17fbbb6b08a0b70e46fa6227c528fe18619e7eaa00d60d447fc668588ce6ff1c77260c46040518080602001838152602001828103825260588152602001807f2f55736572732f73686f6b6973686f6b692f646576656c6f706d656e742f636f81526020017f6e73656e7379732f646973747269627574652f636f6e7472616374732f636f6e81526020017f7472616374732f546f6b656e52656769737472792e736f6c00000000000000008152506060019250505060405180910390a17fcc4cca764c041e6c7d6fdf7313511df6692c197010547f5a3fe8b1efcc5ed20c600b6040518080602001838152602001828103825260588152602001807f2f55736572732f73686f6b6973686f6b692f646576656c6f706d656e742f636f81526020017f6e73656e7379732f646973747269627574652f636f6e7472616374732f636f6e81526020017f7472616374732f546f6b656e52656769737472792e736f6c00000000000000008152506060019250505060405180910390a17f168abdf92a92afad29d7181a38541e149c0434559a0b8a64d7698f087339c942601a6040518080602001838152602001828103825260588152602001807f2f55736572732f73686f6b6973686f6b692f646576656c6f706d656e742f636f81526020017f6e73656e7379732f646973747269627574652f636f6e7472616374732f636f6e81526020017f7472616374732f546f6b656e52656769737472792e736f6c00000000000000008152506060019250505060405180910390a181600160009054906101000a900473ffffffffffffffffffffffffffffffffffffffff1673ffffffffffffffffffffffffffffffffffffffff166370a08231336000604051602001526040518263ffffffff167c0100000000000000000000000000000000000000000000000000000000028152600401808273ffffffffffffffffffffffffffffffffffffffff1673ffffffffffffffffffffffffffffffffffffffff168152602001915050602060405180830381600087803b151561afdd57600080fd5b6102c65a03f1151561afee57600080fd5b505050604051805190501015151561b00557600080fd5b7ffec663b8200418a1faef4e8643e2a0637b67ac2c24bc35ac9d9b48d3e9bcce97600b6040518080602001838152602001828103825260588152602001807f2f55736572732f73686f6b6973686f6b692f646576656c6f706d656e742f636f81526020017f6e73656e7379732f646973747269627574652f636f6e7472616374732f636f6e81526020017f7472616374732f546f6b656e52656769737472792e736f6c00000000000000008152506060019250505060405180910390a17fbbb6b08a0b70e46fa6227c528fe18619e7eaa00d60d447fc668588ce6ff1c77260c56040518080602001838152602001828103825260588152602001807f2f55736572732f73686f6b6973686f6b692f646576656c6f706d656e742f636f81526020017f6e73656e7379732f646973747269627574652f636f6e7472616374732f636f6e81526020017f7472616374732f546f6b656e52656769737472792e736f6c00000000000000008152506060019250505060405180910390a1600160009054906101000a900473ffffffffffffffffffffffffffffffffffffffff1673ffffffffffffffffffffffffffffffffffffffff16639e88fd8133846000604051602001526040518363ffffffff167c0100000000000000000000000000000000000000000000000000000000028152600401808373ffffffffffffffffffffffffffffffffffffffff1673ffffffffffffffffffffffffffffffffffffffff16815260200182815260200192505050602060405180830381600087803b151561b24c57600080fd5b6102c65a03f1151561b25d57600080fd5b50505060405180519050507fbbb6b08a0b70e46fa6227c528fe18619e7eaa00d60d447fc668588ce6ff1c77260c66040518080602001838152602001828103825260588152602001807f2f55736572732f73686f6b6973686f6b692f646576656c6f706d656e742f636f81526020017f6e73656e7379732f646973747269627574652f636f6e7472616374732f636f6e81526020017f7472616374732f546f6b656e52656769737472792e736f6c00000000000000008152506060019250505060405180910390a18373ffffffffffffffffffffffffffffffffffffffff1673__ProjectLibrary________________________63b61caa799091338686866040518663ffffffff167c0100000000000000000000000000000000000000000000000000000000028152600401808673ffffffffffffffffffffffffffffffffffffffff1673ffffffffffffffffffffffffffffffffffffffff1681526020018573ffffffffffffffffffffffffffffffffffffffff1673ffffffffffffffffffffffffffffffffffffffff168152602001848152602001838152602001821515151581526020019550505050505060006040518083038186803b151561b42357600080fd5b6102c65a03f4151561b43457600080fd5b50505050505050565b60408051908101604052806002905b600081526020019060019003908161b44c57905050905600a165627a7a723058202216dd83d940f0a37b67e2a2f251065cee0dcb0d8c95e2701eeef6cd9596d5240029","source":"pragma solidity ^0.4.19;\n\nimport \"./ProjectRegistry.sol\";\nimport \"./DistributeToken.sol\";\nimport \"./Project.sol\";\nimport \"./ProjectLibrary.sol\";\nimport \"./Task.sol\";\nimport \"./library/PLCRVoting.sol\";\nimport \"./library/Division.sol\";\n\n/**\n@title This contract serves as the interface through which users propose projects, stake tokens,\ncome to consensus around tasks, validate projects, vote on projects, refund their stakes, and\nclaim their rewards.\n@author Team: Jessica Marshall, Ashoka Finley\n*/\ncontract TokenRegistry {event __CoverageTokenRegistry(string fileName, uint256 lineNumber);\nevent __FunctionCoverageTokenRegistry(string fileName, uint256 fnId);\nevent __StatementCoverageTokenRegistry(string fileName, uint256 statementId);\nevent __BranchCoverageTokenRegistry(string fileName, uint256 branchId, uint256 locationIdx);\nevent __AssertPreCoverageTokenRegistry(string fileName, uint256 branchId);\nevent __AssertPostCoverageTokenRegistry(string fileName, uint256 branchId);\n\n\n    using ProjectLibrary for address;\n\n    // =====================================================================\n    // EVENTS\n    // =====================================================================\n\n    event ProjectCreated(\n        address indexed projectAddress,\n        uint256 projectCost,\n        uint256 proposerStake\n    );\n\n    // =====================================================================\n    // STATE VARIABLES\n    // =====================================================================\n\n    ProjectRegistry projectRegistry;\n    DistributeToken distributeToken;\n    PLCRVoting plcrVoting;\n\n    uint256 proposeProportion = 200000000000;  // tokensupply/proposeProportion is the number of tokens the proposer must stake\n    uint256 rewardProportion = 100;\n\n    // =====================================================================\n    // MODIFIERS\n    // =====================================================================\n\n    modifier onlyPR() {__FunctionCoverageTokenRegistry('/Users/shokishoki/development/consensys/distribute/contracts/contracts/TokenRegistry.sol',1);\n\n__CoverageTokenRegistry('/Users/shokishoki/development/consensys/distribute/contracts/contracts/TokenRegistry.sol',47);\n        __AssertPreCoverageTokenRegistry('/Users/shokishoki/development/consensys/distribute/contracts/contracts/TokenRegistry.sol',1);\n __StatementCoverageTokenRegistry('/Users/shokishoki/development/consensys/distribute/contracts/contracts/TokenRegistry.sol',1);\nrequire(msg.sender == address(projectRegistry));__AssertPostCoverageTokenRegistry('/Users/shokishoki/development/consensys/distribute/contracts/contracts/TokenRegistry.sol',1);\n\n__CoverageTokenRegistry('/Users/shokishoki/development/consensys/distribute/contracts/contracts/TokenRegistry.sol',48);\n        _;\n    }\n\n    // =====================================================================\n    // QUASI-CONSTRUCTOR\n    // =====================================================================\n\n    /**\n    @dev Quasi constructor is called after contract is deployed, must be called with distributeToken,\n    projectRegistry, and plcrVoting intialized to 0\n    @param _distributeToken Address of DistributeToken contract\n    @param _projectRegistry Address of ProjectRegistry contract\n    @param _plcrVoting Address of PLCRVoting contract\n    */\n    function init(address _distributeToken, address _projectRegistry, address _plcrVoting) public {__FunctionCoverageTokenRegistry('/Users/shokishoki/development/consensys/distribute/contracts/contracts/TokenRegistry.sol',2);\n //contract is created\n__CoverageTokenRegistry('/Users/shokishoki/development/consensys/distribute/contracts/contracts/TokenRegistry.sol',63);\n        __AssertPreCoverageTokenRegistry('/Users/shokishoki/development/consensys/distribute/contracts/contracts/TokenRegistry.sol',2);\n __StatementCoverageTokenRegistry('/Users/shokishoki/development/consensys/distribute/contracts/contracts/TokenRegistry.sol',2);\nrequire(\n            address(distributeToken) == 0 &&\n            address(projectRegistry) == 0 &&\n            address(plcrVoting) == 0\n        );__AssertPostCoverageTokenRegistry('/Users/shokishoki/development/consensys/distribute/contracts/contracts/TokenRegistry.sol',2);\n\n\n__CoverageTokenRegistry('/Users/shokishoki/development/consensys/distribute/contracts/contracts/TokenRegistry.sol',69);\n         __StatementCoverageTokenRegistry('/Users/shokishoki/development/consensys/distribute/contracts/contracts/TokenRegistry.sol',3);\ndistributeToken = DistributeToken(_distributeToken);\n__CoverageTokenRegistry('/Users/shokishoki/development/consensys/distribute/contracts/contracts/TokenRegistry.sol',70);\n         __StatementCoverageTokenRegistry('/Users/shokishoki/development/consensys/distribute/contracts/contracts/TokenRegistry.sol',4);\nprojectRegistry = ProjectRegistry(_projectRegistry);\n__CoverageTokenRegistry('/Users/shokishoki/development/consensys/distribute/contracts/contracts/TokenRegistry.sol',71);\n         __StatementCoverageTokenRegistry('/Users/shokishoki/development/consensys/distribute/contracts/contracts/TokenRegistry.sol',5);\nplcrVoting = PLCRVoting(_plcrVoting);\n    }\n\n    // =====================================================================\n    // FALLBACK\n    // =====================================================================\n\n    function() public payable {__FunctionCoverageTokenRegistry('/Users/shokishoki/development/consensys/distribute/contracts/contracts/TokenRegistry.sol',3);\n}\n\n    // =====================================================================\n    // PROPOSE\n    // =====================================================================\n\n    /**\n    @notice Propose a project of cost `_cost` with staking period `_stakingPeriod` and hash `_ipfsHash`,\n    with tokens.\n    @dev Calls ProjectRegistry.createProject finalize transaction\n    @param _cost Total project cost in wei\n    @param _stakingPeriod Length of time the project can be staked before it expires\n    @param _ipfsHash Hash of the project description\n    */\n    function proposeProject(uint256 _cost, uint256 _stakingPeriod, string _ipfsHash) public {__FunctionCoverageTokenRegistry('/Users/shokishoki/development/consensys/distribute/contracts/contracts/TokenRegistry.sol',4);\n //_cost of project in ether\n        //calculate cost of project in tokens currently (_cost in wei)\n        //check proposer has at least 5% of the proposed cost in tokens\n__CoverageTokenRegistry('/Users/shokishoki/development/consensys/distribute/contracts/contracts/TokenRegistry.sol',95);\n        __AssertPreCoverageTokenRegistry('/Users/shokishoki/development/consensys/distribute/contracts/contracts/TokenRegistry.sol',3);\n __StatementCoverageTokenRegistry('/Users/shokishoki/development/consensys/distribute/contracts/contracts/TokenRegistry.sol',6);\nrequire(now < _stakingPeriod && _cost > 0);__AssertPostCoverageTokenRegistry('/Users/shokishoki/development/consensys/distribute/contracts/contracts/TokenRegistry.sol',3);\n\n\n__CoverageTokenRegistry('/Users/shokishoki/development/consensys/distribute/contracts/contracts/TokenRegistry.sol',97);\n         __StatementCoverageTokenRegistry('/Users/shokishoki/development/consensys/distribute/contracts/contracts/TokenRegistry.sol',7);\nuint256 costProportion = Division.percent(_cost, distributeToken.weiBal(), 10);\n__CoverageTokenRegistry('/Users/shokishoki/development/consensys/distribute/contracts/contracts/TokenRegistry.sol',98);\n         __StatementCoverageTokenRegistry('/Users/shokishoki/development/consensys/distribute/contracts/contracts/TokenRegistry.sol',8);\nuint256 proposerTokenCost = (\n            Division.percent(costProportion, proposeProportion, 10) *\n            distributeToken.totalSupply()) /\n            10000000000;           //divide by 20 to get 5 percent of tokens\n__CoverageTokenRegistry('/Users/shokishoki/development/consensys/distribute/contracts/contracts/TokenRegistry.sol',102);\n        __AssertPreCoverageTokenRegistry('/Users/shokishoki/development/consensys/distribute/contracts/contracts/TokenRegistry.sol',4);\n __StatementCoverageTokenRegistry('/Users/shokishoki/development/consensys/distribute/contracts/contracts/TokenRegistry.sol',9);\nrequire(distributeToken.balanceOf(msg.sender) >= proposerTokenCost);__AssertPostCoverageTokenRegistry('/Users/shokishoki/development/consensys/distribute/contracts/contracts/TokenRegistry.sol',4);\n\n\n__CoverageTokenRegistry('/Users/shokishoki/development/consensys/distribute/contracts/contracts/TokenRegistry.sol',104);\n        distributeToken.transferToEscrow(msg.sender, proposerTokenCost);\n__CoverageTokenRegistry('/Users/shokishoki/development/consensys/distribute/contracts/contracts/TokenRegistry.sol',105);\n             __StatementCoverageTokenRegistry('/Users/shokishoki/development/consensys/distribute/contracts/contracts/TokenRegistry.sol',10);\naddress projectAddress = projectRegistry.createProject(\n            _cost,\n            costProportion,\n            _stakingPeriod,\n            msg.sender,\n            1,\n            proposerTokenCost,\n            _ipfsHash\n        );\n__CoverageTokenRegistry('/Users/shokishoki/development/consensys/distribute/contracts/contracts/TokenRegistry.sol',114);\n         __StatementCoverageTokenRegistry('/Users/shokishoki/development/consensys/distribute/contracts/contracts/TokenRegistry.sol',11);\nProjectCreated(projectAddress, _cost, proposerTokenCost);\n    }\n\n    /**\n    @notice Refund a reputation proposer upon proposal success, transfer 1% of the project cost in\n    wei as a reward along with any tokens staked.\n    @param _projectAddress Address of the project\n    */\n    function refundProposer(address _projectAddress) public {__FunctionCoverageTokenRegistry('/Users/shokishoki/development/consensys/distribute/contracts/contracts/TokenRegistry.sol',5);\n                                 //called by proposer to get refund once project is active\n__CoverageTokenRegistry('/Users/shokishoki/development/consensys/distribute/contracts/contracts/TokenRegistry.sol',123);\n         __StatementCoverageTokenRegistry('/Users/shokishoki/development/consensys/distribute/contracts/contracts/TokenRegistry.sol',12);\nProject project = Project(_projectAddress);                            //called by proposer to get refund once project is active\n__CoverageTokenRegistry('/Users/shokishoki/development/consensys/distribute/contracts/contracts/TokenRegistry.sol',124);\n        __AssertPreCoverageTokenRegistry('/Users/shokishoki/development/consensys/distribute/contracts/contracts/TokenRegistry.sol',5);\n __StatementCoverageTokenRegistry('/Users/shokishoki/development/consensys/distribute/contracts/contracts/TokenRegistry.sol',13);\nrequire(project.proposer() == msg.sender);__AssertPostCoverageTokenRegistry('/Users/shokishoki/development/consensys/distribute/contracts/contracts/TokenRegistry.sol',5);\n\n__CoverageTokenRegistry('/Users/shokishoki/development/consensys/distribute/contracts/contracts/TokenRegistry.sol',125);\n        __AssertPreCoverageTokenRegistry('/Users/shokishoki/development/consensys/distribute/contracts/contracts/TokenRegistry.sol',6);\n __StatementCoverageTokenRegistry('/Users/shokishoki/development/consensys/distribute/contracts/contracts/TokenRegistry.sol',14);\nrequire(project.proposerType() == 1);__AssertPostCoverageTokenRegistry('/Users/shokishoki/development/consensys/distribute/contracts/contracts/TokenRegistry.sol',6);\n\n\n__CoverageTokenRegistry('/Users/shokishoki/development/consensys/distribute/contracts/contracts/TokenRegistry.sol',127);\n         __StatementCoverageTokenRegistry('/Users/shokishoki/development/consensys/distribute/contracts/contracts/TokenRegistry.sol',15);\nuint256[2] memory proposerVals = projectRegistry.refundProposer(_projectAddress);        //call project to \"send back\" staked tokens to put in proposer's balances\n__CoverageTokenRegistry('/Users/shokishoki/development/consensys/distribute/contracts/contracts/TokenRegistry.sol',128);\n        distributeToken.transferFromEscrow(msg.sender, proposerVals[1]);\n__CoverageTokenRegistry('/Users/shokishoki/development/consensys/distribute/contracts/contracts/TokenRegistry.sol',129);\n        distributeToken.transferWeiTo(msg.sender, proposerVals[0] / 100);\n    }\n\n    // =====================================================================\n    // STAKE\n    // =====================================================================\n\n    /**\n    @notice Stake `_tokens` tokens on project at `_projectAddress`\n    @dev Prevents over staking and returns any excess tokens staked.\n    @param _projectAddress Address of the project\n    @param _tokens Amount of tokens to stake\n    */\n    function stakeTokens(address _projectAddress, uint256 _tokens) public {__FunctionCoverageTokenRegistry('/Users/shokishoki/development/consensys/distribute/contracts/contracts/TokenRegistry.sol',6);\n\n__CoverageTokenRegistry('/Users/shokishoki/development/consensys/distribute/contracts/contracts/TokenRegistry.sol',143);\n        __AssertPreCoverageTokenRegistry('/Users/shokishoki/development/consensys/distribute/contracts/contracts/TokenRegistry.sol',7);\n __StatementCoverageTokenRegistry('/Users/shokishoki/development/consensys/distribute/contracts/contracts/TokenRegistry.sol',16);\nrequire(distributeToken.balanceOf(msg.sender) >= _tokens);__AssertPostCoverageTokenRegistry('/Users/shokishoki/development/consensys/distribute/contracts/contracts/TokenRegistry.sol',7);\n\n\n__CoverageTokenRegistry('/Users/shokishoki/development/consensys/distribute/contracts/contracts/TokenRegistry.sol',145);\n         __StatementCoverageTokenRegistry('/Users/shokishoki/development/consensys/distribute/contracts/contracts/TokenRegistry.sol',17);\nProject project = Project(_projectAddress);\n        // require(project.state() == 1);   ------> this now happens in project.stakeTokens()\n__CoverageTokenRegistry('/Users/shokishoki/development/consensys/distribute/contracts/contracts/TokenRegistry.sol',147);\n         __StatementCoverageTokenRegistry('/Users/shokishoki/development/consensys/distribute/contracts/contracts/TokenRegistry.sol',18);\nuint256 weiRemaining = project.weiCost() - project.weiBal();\n__CoverageTokenRegistry('/Users/shokishoki/development/consensys/distribute/contracts/contracts/TokenRegistry.sol',148);\n        __AssertPreCoverageTokenRegistry('/Users/shokishoki/development/consensys/distribute/contracts/contracts/TokenRegistry.sol',8);\n __StatementCoverageTokenRegistry('/Users/shokishoki/development/consensys/distribute/contracts/contracts/TokenRegistry.sol',19);\nrequire(weiRemaining > 0);__AssertPostCoverageTokenRegistry('/Users/shokishoki/development/consensys/distribute/contracts/contracts/TokenRegistry.sol',8);\n\n\n__CoverageTokenRegistry('/Users/shokishoki/development/consensys/distribute/contracts/contracts/TokenRegistry.sol',150);\n         __StatementCoverageTokenRegistry('/Users/shokishoki/development/consensys/distribute/contracts/contracts/TokenRegistry.sol',20);\nuint256 currentPrice = distributeToken.currentPrice();\n__CoverageTokenRegistry('/Users/shokishoki/development/consensys/distribute/contracts/contracts/TokenRegistry.sol',151);\n         __StatementCoverageTokenRegistry('/Users/shokishoki/development/consensys/distribute/contracts/contracts/TokenRegistry.sol',21);\nuint256 weiVal =  currentPrice * _tokens;\n__CoverageTokenRegistry('/Users/shokishoki/development/consensys/distribute/contracts/contracts/TokenRegistry.sol',152);\n         __StatementCoverageTokenRegistry('/Users/shokishoki/development/consensys/distribute/contracts/contracts/TokenRegistry.sol',22);\nbool flag = weiVal > weiRemaining;\n__CoverageTokenRegistry('/Users/shokishoki/development/consensys/distribute/contracts/contracts/TokenRegistry.sol',153);\n         __StatementCoverageTokenRegistry('/Users/shokishoki/development/consensys/distribute/contracts/contracts/TokenRegistry.sol',23);\nuint256 weiChange; (,weiChange) = flag\n            ? (__BranchCoverageTokenRegistry('/Users/shokishoki/development/consensys/distribute/contracts/contracts/TokenRegistry.sol',9,0),weiRemaining)\n            : (__BranchCoverageTokenRegistry('/Users/shokishoki/development/consensys/distribute/contracts/contracts/TokenRegistry.sol',9,1),weiVal);       //how much ether to send on change\n__CoverageTokenRegistry('/Users/shokishoki/development/consensys/distribute/contracts/contracts/TokenRegistry.sol',156);\n         __StatementCoverageTokenRegistry('/Users/shokishoki/development/consensys/distribute/contracts/contracts/TokenRegistry.sol',24);\nuint256 tokens; (,tokens) = flag\n            ? ((__BranchCoverageTokenRegistry('/Users/shokishoki/development/consensys/distribute/contracts/contracts/TokenRegistry.sol',10,0),(weiRemaining/currentPrice) + 1))\n            : (__BranchCoverageTokenRegistry('/Users/shokishoki/development/consensys/distribute/contracts/contracts/TokenRegistry.sol',10,1),_tokens);\n__CoverageTokenRegistry('/Users/shokishoki/development/consensys/distribute/contracts/contracts/TokenRegistry.sol',159);\n        project.stakeTokens(msg.sender, tokens, weiChange);\n__CoverageTokenRegistry('/Users/shokishoki/development/consensys/distribute/contracts/contracts/TokenRegistry.sol',160);\n        distributeToken.transferWeiTo(_projectAddress, weiChange);\n__CoverageTokenRegistry('/Users/shokishoki/development/consensys/distribute/contracts/contracts/TokenRegistry.sol',161);\n        distributeToken.transferToEscrow(msg.sender, tokens);\n__CoverageTokenRegistry('/Users/shokishoki/development/consensys/distribute/contracts/contracts/TokenRegistry.sol',162);\n        projectRegistry.checkStaked(_projectAddress);\n    }\n\n    /**\n    @notice Unstake `_tokens` tokens from project at `_projectAddress`\n    @dev Require tokens unstaked is greater than 0\n    @param _projectAddress Address of the project\n    @param _tokens Amount of reputation to unstake\n    */\n    function unstakeTokens(address _projectAddress, uint256 _tokens) public {__FunctionCoverageTokenRegistry('/Users/shokishoki/development/consensys/distribute/contracts/contracts/TokenRegistry.sol',7);\n\n__CoverageTokenRegistry('/Users/shokishoki/development/consensys/distribute/contracts/contracts/TokenRegistry.sol',172);\n         __StatementCoverageTokenRegistry('/Users/shokishoki/development/consensys/distribute/contracts/contracts/TokenRegistry.sol',25);\nuint256 weiVal = Project(_projectAddress).unstakeTokens(msg.sender, _tokens);\n__CoverageTokenRegistry('/Users/shokishoki/development/consensys/distribute/contracts/contracts/TokenRegistry.sol',173);\n        distributeToken.transferWeiTo(msg.sender, weiVal);\n__CoverageTokenRegistry('/Users/shokishoki/development/consensys/distribute/contracts/contracts/TokenRegistry.sol',174);\n        distributeToken.transferFromEscrow(msg.sender, _tokens);\n    }\n\n    // =====================================================================\n    // VALIDATION\n    // =====================================================================\n\n    /**\n    @notice Validate a task at index `_index` from project at `_projectAddress` with `_tokens`\n    tokens for validation state `_validationState`\n    @dev Requires the token balance of msg.sender to be greater than the reputationVal of the task\n    @param _projectAddress Address of the project\n    @param _index Index of the task\n    @param _tokens Amount of tokens to stake on the validation state\n    @param _validationState Approve or Deny task\n    */\n    function validateTask(\n        address _projectAddress,\n        uint256 _index,\n        uint256 _tokens,\n        bool _validationState\n    ) public {__FunctionCoverageTokenRegistry('/Users/shokishoki/development/consensys/distribute/contracts/contracts/TokenRegistry.sol',8);\n\n__CoverageTokenRegistry('/Users/shokishoki/development/consensys/distribute/contracts/contracts/TokenRegistry.sol',196);\n        __AssertPreCoverageTokenRegistry('/Users/shokishoki/development/consensys/distribute/contracts/contracts/TokenRegistry.sol',11);\n __StatementCoverageTokenRegistry('/Users/shokishoki/development/consensys/distribute/contracts/contracts/TokenRegistry.sol',26);\nrequire(distributeToken.balanceOf(msg.sender) >= _tokens);__AssertPostCoverageTokenRegistry('/Users/shokishoki/development/consensys/distribute/contracts/contracts/TokenRegistry.sol',11);\n\n__CoverageTokenRegistry('/Users/shokishoki/development/consensys/distribute/contracts/contracts/TokenRegistry.sol',197);\n        distributeToken.transferToEscrow(msg.sender, _tokens);\n__CoverageTokenRegistry('/Users/shokishoki/development/consensys/distribute/contracts/contracts/TokenRegistry.sol',198);\n        _projectAddress.validate(msg.sender, _index, _tokens, _validationState);\n    }\n\n    /**\n    @notice Reward the validator of a task if they have been determined to have validated correctly.\n    @param _projectAddress Address of the project\n    @param _index Index of the task\n    */\n    function rewardValidator(address _projectAddress, uint256 _index) public {__FunctionCoverageTokenRegistry('/Users/shokishoki/development/consensys/distribute/contracts/contracts/TokenRegistry.sol',9);\n\n__CoverageTokenRegistry('/Users/shokishoki/development/consensys/distribute/contracts/contracts/TokenRegistry.sol',207);\n         __StatementCoverageTokenRegistry('/Users/shokishoki/development/consensys/distribute/contracts/contracts/TokenRegistry.sol',27);\nProject project = Project(_projectAddress);\n__CoverageTokenRegistry('/Users/shokishoki/development/consensys/distribute/contracts/contracts/TokenRegistry.sol',208);\n         __StatementCoverageTokenRegistry('/Users/shokishoki/development/consensys/distribute/contracts/contracts/TokenRegistry.sol',28);\nTask task = Task(project.tasks(_index));\n__CoverageTokenRegistry('/Users/shokishoki/development/consensys/distribute/contracts/contracts/TokenRegistry.sol',209);\n        __AssertPreCoverageTokenRegistry('/Users/shokishoki/development/consensys/distribute/contracts/contracts/TokenRegistry.sol',12);\n __StatementCoverageTokenRegistry('/Users/shokishoki/development/consensys/distribute/contracts/contracts/TokenRegistry.sol',29);\nrequire(task.claimable());__AssertPostCoverageTokenRegistry('/Users/shokishoki/development/consensys/distribute/contracts/contracts/TokenRegistry.sol',12);\n\n\n__CoverageTokenRegistry('/Users/shokishoki/development/consensys/distribute/contracts/contracts/TokenRegistry.sol',211);\n         __StatementCoverageTokenRegistry('/Users/shokishoki/development/consensys/distribute/contracts/contracts/TokenRegistry.sol',30);\nvar (status, reward) = task.validators(msg.sender);\n__CoverageTokenRegistry('/Users/shokishoki/development/consensys/distribute/contracts/contracts/TokenRegistry.sol',212);\n         __StatementCoverageTokenRegistry('/Users/shokishoki/development/consensys/distribute/contracts/contracts/TokenRegistry.sol',31);\nif (task.totalValidateNegative() == 0) {__BranchCoverageTokenRegistry('/Users/shokishoki/development/consensys/distribute/contracts/contracts/TokenRegistry.sol',13,0);\n__CoverageTokenRegistry('/Users/shokishoki/development/consensys/distribute/contracts/contracts/TokenRegistry.sol',213);\n            __AssertPreCoverageTokenRegistry('/Users/shokishoki/development/consensys/distribute/contracts/contracts/TokenRegistry.sol',14);\n __StatementCoverageTokenRegistry('/Users/shokishoki/development/consensys/distribute/contracts/contracts/TokenRegistry.sol',32);\nrequire(status == 1);__AssertPostCoverageTokenRegistry('/Users/shokishoki/development/consensys/distribute/contracts/contracts/TokenRegistry.sol',14);\n\n        } else { __StatementCoverageTokenRegistry('/Users/shokishoki/development/consensys/distribute/contracts/contracts/TokenRegistry.sol',33);\n__BranchCoverageTokenRegistry('/Users/shokishoki/development/consensys/distribute/contracts/contracts/TokenRegistry.sol',13,1);if (task.totalValidateAffirmative() == 0) {__BranchCoverageTokenRegistry('/Users/shokishoki/development/consensys/distribute/contracts/contracts/TokenRegistry.sol',15,0);\n__CoverageTokenRegistry('/Users/shokishoki/development/consensys/distribute/contracts/contracts/TokenRegistry.sol',215);\n            __AssertPreCoverageTokenRegistry('/Users/shokishoki/development/consensys/distribute/contracts/contracts/TokenRegistry.sol',16);\n __StatementCoverageTokenRegistry('/Users/shokishoki/development/consensys/distribute/contracts/contracts/TokenRegistry.sol',34);\nrequire(status == 0);__AssertPostCoverageTokenRegistry('/Users/shokishoki/development/consensys/distribute/contracts/contracts/TokenRegistry.sol',16);\n\n        } else {__BranchCoverageTokenRegistry('/Users/shokishoki/development/consensys/distribute/contracts/contracts/TokenRegistry.sol',15,1);\n__CoverageTokenRegistry('/Users/shokishoki/development/consensys/distribute/contracts/contracts/TokenRegistry.sol',217);\n             __StatementCoverageTokenRegistry('/Users/shokishoki/development/consensys/distribute/contracts/contracts/TokenRegistry.sol',35);\nrevert();\n        }}\n__CoverageTokenRegistry('/Users/shokishoki/development/consensys/distribute/contracts/contracts/TokenRegistry.sol',219);\n        task.clearValidatorStake(msg.sender);\n__CoverageTokenRegistry('/Users/shokishoki/development/consensys/distribute/contracts/contracts/TokenRegistry.sol',220);\n        distributeToken.transferFromEscrow(msg.sender, reward);\n__CoverageTokenRegistry('/Users/shokishoki/development/consensys/distribute/contracts/contracts/TokenRegistry.sol',221);\n        distributeToken.transferWeiTo(msg.sender, reward * distributeToken.currentPrice() / 100);\n    }\n\n    // =====================================================================\n    // VOTING\n    // =====================================================================\n\n    /**\n    @notice First part of voting process. Commits a vote using tokens to task at index `_index`\n    of project at `projectAddress` for tokens `_tokens`. Submits a secrect hash `_secretHash`,\n    which is a tightly packed hash of the voters choice and their salt\n    @param _projectAddress Address of the project\n    @param _index Index of the task\n    @param _tokens Tokens to vote with\n    @param _secretHash Secret Hash of voter choice and salt\n    @param _prevPollID The nonce of the previous poll. This is stored off chain\n    */\n    function voteCommit(\n        address _projectAddress,\n        uint256 _index,\n        uint256 _tokens,\n        bytes32 _secretHash,\n        uint256 _prevPollID\n    ) public {__FunctionCoverageTokenRegistry('/Users/shokishoki/development/consensys/distribute/contracts/contracts/TokenRegistry.sol',10);\n     //_secretHash Commit keccak256 hash of voter's choice and salt (tightly packed in this order), done off-chain\n__CoverageTokenRegistry('/Users/shokishoki/development/consensys/distribute/contracts/contracts/TokenRegistry.sol',245);\n         __StatementCoverageTokenRegistry('/Users/shokishoki/development/consensys/distribute/contracts/contracts/TokenRegistry.sol',36);\nuint256 pollId = Task(Project(_projectAddress).tasks(_index)).pollId();\n__CoverageTokenRegistry('/Users/shokishoki/development/consensys/distribute/contracts/contracts/TokenRegistry.sol',246);\n        __AssertPreCoverageTokenRegistry('/Users/shokishoki/development/consensys/distribute/contracts/contracts/TokenRegistry.sol',17);\n __StatementCoverageTokenRegistry('/Users/shokishoki/development/consensys/distribute/contracts/contracts/TokenRegistry.sol',37);\nrequire(pollId != 0);__AssertPostCoverageTokenRegistry('/Users/shokishoki/development/consensys/distribute/contracts/contracts/TokenRegistry.sol',17);\n\n        //calculate available tokens for voting\n__CoverageTokenRegistry('/Users/shokishoki/development/consensys/distribute/contracts/contracts/TokenRegistry.sol',248);\n         __StatementCoverageTokenRegistry('/Users/shokishoki/development/consensys/distribute/contracts/contracts/TokenRegistry.sol',38);\nuint256 availableTokens = plcrVoting.getAvailableTokens(msg.sender, 1);\n        //make sure msg.sender has tokens available in PLCR contract\n        //if not, request voting rights for token holder\n__CoverageTokenRegistry('/Users/shokishoki/development/consensys/distribute/contracts/contracts/TokenRegistry.sol',251);\n         __StatementCoverageTokenRegistry('/Users/shokishoki/development/consensys/distribute/contracts/contracts/TokenRegistry.sol',39);\nif (availableTokens < _tokens) {__BranchCoverageTokenRegistry('/Users/shokishoki/development/consensys/distribute/contracts/contracts/TokenRegistry.sol',18,0);\n__CoverageTokenRegistry('/Users/shokishoki/development/consensys/distribute/contracts/contracts/TokenRegistry.sol',252);\n            __AssertPreCoverageTokenRegistry('/Users/shokishoki/development/consensys/distribute/contracts/contracts/TokenRegistry.sol',19);\n __StatementCoverageTokenRegistry('/Users/shokishoki/development/consensys/distribute/contracts/contracts/TokenRegistry.sol',40);\nrequire(distributeToken.balanceOf(msg.sender) >= _tokens - availableTokens);__AssertPostCoverageTokenRegistry('/Users/shokishoki/development/consensys/distribute/contracts/contracts/TokenRegistry.sol',19);\n\n__CoverageTokenRegistry('/Users/shokishoki/development/consensys/distribute/contracts/contracts/TokenRegistry.sol',253);\n            distributeToken.transferToEscrow(msg.sender, _tokens - availableTokens);\n__CoverageTokenRegistry('/Users/shokishoki/development/consensys/distribute/contracts/contracts/TokenRegistry.sol',254);\n            plcrVoting.requestVotingRights(msg.sender, _tokens - availableTokens);\n        }else { __BranchCoverageTokenRegistry('/Users/shokishoki/development/consensys/distribute/contracts/contracts/TokenRegistry.sol',18,1);}\n\n__CoverageTokenRegistry('/Users/shokishoki/development/consensys/distribute/contracts/contracts/TokenRegistry.sol',256);\n        plcrVoting.commitVote(msg.sender, pollId, _secretHash, _tokens, _prevPollID);\n    }\n\n    /**\n    @notice Second part of voting process. Reveal existing vote.\n    @param _projectAddress Address of the project\n    @param _index Index of the task\n    @param _voteOption Vote choice of account\n    @param _salt Salt of account\n    */\n    function voteReveal(\n        address _projectAddress,\n        uint256 _index,\n        uint256 _voteOption,\n        uint _salt\n    ) public {__FunctionCoverageTokenRegistry('/Users/shokishoki/development/consensys/distribute/contracts/contracts/TokenRegistry.sol',11);\n\n__CoverageTokenRegistry('/Users/shokishoki/development/consensys/distribute/contracts/contracts/TokenRegistry.sol',272);\n        plcrVoting.revealVote(Task(Project(_projectAddress).tasks(_index)).pollId(), _voteOption, _salt);\n    }\n\n    /**\n    @notice Withdraw voting rights from PLCR Contract\n    @param _tokens Amount of tokens to withdraw\n    */\n    function refundVotingTokens(uint256 _tokens) public {__FunctionCoverageTokenRegistry('/Users/shokishoki/development/consensys/distribute/contracts/contracts/TokenRegistry.sol',12);\n\n__CoverageTokenRegistry('/Users/shokishoki/development/consensys/distribute/contracts/contracts/TokenRegistry.sol',280);\n        plcrVoting.withdrawVotingRights(msg.sender, _tokens);\n__CoverageTokenRegistry('/Users/shokishoki/development/consensys/distribute/contracts/contracts/TokenRegistry.sol',281);\n        distributeToken.transferFromEscrow(msg.sender, _tokens);\n    }\n\n    // =====================================================================\n    // COMPLETE\n    // =====================================================================\n\n    /**\n    @notice Refund a token staker from project at `_projectAddress`\n    @param _projectAddress Address of the project\n    */\n    function refundStaker(address _projectAddress) public {__FunctionCoverageTokenRegistry('/Users/shokishoki/development/consensys/distribute/contracts/contracts/TokenRegistry.sol',13);\n\n__CoverageTokenRegistry('/Users/shokishoki/development/consensys/distribute/contracts/contracts/TokenRegistry.sol',293);\n         __StatementCoverageTokenRegistry('/Users/shokishoki/development/consensys/distribute/contracts/contracts/TokenRegistry.sol',41);\nuint256 refund = _projectAddress.refundStaker(msg.sender);\n__CoverageTokenRegistry('/Users/shokishoki/development/consensys/distribute/contracts/contracts/TokenRegistry.sol',294);\n        __AssertPreCoverageTokenRegistry('/Users/shokishoki/development/consensys/distribute/contracts/contracts/TokenRegistry.sol',20);\n __StatementCoverageTokenRegistry('/Users/shokishoki/development/consensys/distribute/contracts/contracts/TokenRegistry.sol',42);\nrequire(refund > 0);__AssertPostCoverageTokenRegistry('/Users/shokishoki/development/consensys/distribute/contracts/contracts/TokenRegistry.sol',20);\n\n\n__CoverageTokenRegistry('/Users/shokishoki/development/consensys/distribute/contracts/contracts/TokenRegistry.sol',296);\n         __StatementCoverageTokenRegistry('/Users/shokishoki/development/consensys/distribute/contracts/contracts/TokenRegistry.sol',43);\nProject(_projectAddress).clearTokenStake(msg.sender);\n__CoverageTokenRegistry('/Users/shokishoki/development/consensys/distribute/contracts/contracts/TokenRegistry.sol',297);\n        distributeToken.transferFromEscrow(msg.sender, refund);\n    }\n\n    /**\n    @notice Rescue unrevealed reputation votes from expired polls of task at `_index` of project at\n    `_projectAddress`\n    @param _projectAddress Address of the project\n    @param _index Index of the task\n    */\n    function rescueTokens(address _projectAddress, uint _index) public {__FunctionCoverageTokenRegistry('/Users/shokishoki/development/consensys/distribute/contracts/contracts/TokenRegistry.sol',14);\n\n        //rescue locked tokens that weren't revealed\n__CoverageTokenRegistry('/Users/shokishoki/development/consensys/distribute/contracts/contracts/TokenRegistry.sol',308);\n         __StatementCoverageTokenRegistry('/Users/shokishoki/development/consensys/distribute/contracts/contracts/TokenRegistry.sol',44);\nuint256 pollId = Task(Project(_projectAddress).tasks(_index)).pollId();\n__CoverageTokenRegistry('/Users/shokishoki/development/consensys/distribute/contracts/contracts/TokenRegistry.sol',309);\n        plcrVoting.rescueTokens(msg.sender, pollId);\n    }\n\n    // =====================================================================\n    // FAILED\n    // =====================================================================\n\n    /**\n    @notice Return wei from project balance if task fails\n    @dev Only callable by the ProjectRegistry contract\n    @param _value Amount of wei to transfer to the distributeToken contract\n    */\n    function revertWei(uint256 _value) public onlyPR {__FunctionCoverageTokenRegistry('/Users/shokishoki/development/consensys/distribute/contracts/contracts/TokenRegistry.sol',15);\n\n__CoverageTokenRegistry('/Users/shokishoki/development/consensys/distribute/contracts/contracts/TokenRegistry.sol',322);\n        distributeToken.returnWei(_value);\n    }\n\n    /**\n    @notice Burn tokens in event of project failure\n    @dev Only callable by the ProjectRegistry contract\n    @param _tokens Amount of reputation to burn\n    */\n    function burnTokens(uint256 _tokens) public onlyPR {__FunctionCoverageTokenRegistry('/Users/shokishoki/development/consensys/distribute/contracts/contracts/TokenRegistry.sol',16);\n\n__CoverageTokenRegistry('/Users/shokishoki/development/consensys/distribute/contracts/contracts/TokenRegistry.sol',331);\n        distributeToken.burn(_tokens);\n    }\n\n}\n","sourcePath":"/Users/shokishoki/development/consensys/distribute/contracts/coverageEnv/contracts/TokenRegistry.sol","compiler":{"name":"solc","version":"0.4.19+commit.c4cbbb05.Emscripten.clang"},"schemaVersion":"2.0.0","updatedAt":"2018-03-21T15:13:01.036Z"}