{
  "contractName": "Division",
  "abi": [
    {
      "constant": true,
      "inputs": [
        {
          "name": "_numerator",
          "type": "uint256"
        },
        {
          "name": "_denominator",
          "type": "uint256"
        },
        {
          "name": "_precision",
          "type": "uint256"
        }
      ],
      "name": "percent",
      "outputs": [
        {
          "name": "",
          "type": "uint256"
        }
      ],
      "payable": false,
      "stateMutability": "pure",
      "type": "function"
    }
  ],
  "bytecode": "0x60e161002f600b82828239805160001a6073146000811461001f57610021565bfe5b5030600052607381538281f300730000000000000000000000000000000000000000301460806040526004361060545763ffffffff7c01000000000000000000000000000000000000000000000000000000006000350416622c1a9e81146059575b600080fd5b6068600435602435604435607a565b60408051918252519081900360200190f35b600080808411608857600080fd5b82600101600a0a85029050600a8482811515609f57fe5b0460050181151560ab57fe5b04959450505050505600a165627a7a723058207743a0456f9a11675b601dc2320b1986ffd812ddfb4d80e6281c8cadd6ea31b10029",
  "source": "pragma solidity ^0.4.21;\n\n// divide by 10 ** precision at the very end\nlibrary Division {\n    function percent(uint256 _numerator, uint256 _denominator, uint256 _precision) public pure returns (uint256) {\n        require(_denominator > 0);\n        uint256 numerator = _numerator * 10 ** (_precision + 1);\n        // with rounding of last digit\n        return ((numerator / _denominator) + 5) / 10;\n    }\n}\n",
  "sourcePath": "/Users/jessicamarshall/distribute-dogfood/contracts/contracts/library/Division.sol",
  "compiler": {
    "name": "solc",
    "version": "0.4.24+commit.e67f0147.Emscripten.clang"
  },
  "schemaVersion": "2.0.1",
  "updatedAt": "2018-12-03T21:54:15.499Z"
}