{
  "contractName": "ProxyFactory",
  "abi": [
    {
      "anonymous": false,
      "inputs": [
        {
          "indexed": false,
          "name": "proxyAddress",
          "type": "address"
        },
        {
          "indexed": false,
          "name": "targetAddress",
          "type": "address"
        }
      ],
      "name": "ProxyDeployed",
      "type": "event"
    },
    {
      "anonymous": false,
      "inputs": [
        {
          "indexed": false,
          "name": "proxyAddresses",
          "type": "address[]"
        },
        {
          "indexed": false,
          "name": "targetAddress",
          "type": "address"
        }
      ],
      "name": "ProxiesDeployed",
      "type": "event"
    },
    {
      "constant": false,
      "inputs": [
        {
          "name": "_count",
          "type": "uint256"
        },
        {
          "name": "_target",
          "type": "address"
        },
        {
          "name": "_data",
          "type": "bytes"
        }
      ],
      "name": "createManyProxies",
      "outputs": [],
      "payable": false,
      "stateMutability": "nonpayable",
      "type": "function"
    },
    {
      "constant": false,
      "inputs": [
        {
          "name": "_target",
          "type": "address"
        },
        {
          "name": "_data",
          "type": "bytes"
        }
      ],
      "name": "createProxy",
      "outputs": [
        {
          "name": "proxyContract",
          "type": "address"
        }
      ],
      "payable": false,
      "stateMutability": "nonpayable",
      "type": "function"
    }
  ],
  "bytecode": "0x608060405234801561001057600080fd5b5061035a806100206000396000f30060806040526004361061004b5763ffffffff7c010000000000000000000000000000000000000000000000000000000060003504166361b69abd81146100505780637b8b82a8146100d3575b600080fd5b34801561005c57600080fd5b5060408051602060046024803582810135601f81018590048502860185019096528585526100b7958335600160a060020a031695369560449491939091019190819084018382808284375094975061013e9650505050505050565b60408051600160a060020a039092168252519081900360200190f35b3480156100df57600080fd5b50604080516020600460443581810135601f810184900484028501840190955284845261013c9482359460248035600160a060020a0316953695946064949201919081908401838280828437509497506101989650505050505050565b005b600061014a83836102a3565b60408051600160a060020a0380841682528616602082015281519293507f3d2489efb661e8b1c3679865db649ca1de61d76a71184a1234de2e55786a6aad929081900390910190a192915050565b60606000846040519080825280602002602001820160405280156101c6578160200160208202803883390190505b509150600090505b8481101561020d576101e084846102a3565b82828151811015156101ee57fe5b600160a060020a039092166020928302909101909101526001016101ce565b7fb2985f082ae86fc659eabac0809f572d48e4fab9171c7dc2848b56d7bf3f10728285604051808060200183600160a060020a0316600160a060020a03168152602001828103825284818151815260200191508051906020019060200280838360005b83811015610288578181015183820152602001610270565b50505050905001935050505060405180910390a15050505050565b600060405183600b82015276603160008181600b9039f360008080808036809280377360098203527f5af43d828181803e808314602f57f35bfd000000000000000000000000000000602b820152603c816000f09150813b151561030657600080fd5b825180156103265760008082602087016000875af1151561032657600080fd5b5050929150505600a165627a7a723058208d9b12a5ed2d55e0f0b9f2b83c088f520c54cd5abec95d70bf2fb76cf39095290029",
  "source": "/***\n* Shoutouts:\n*\n* Bytecode origin https://www.reddit.com/r/ethereum/comments/6ic49q/any_assembly_programmers_willing_to_write_a/dj5ceuw/\n* Modified version of Vitalik's https://www.reddit.com/r/ethereum/comments/6c1jui/delegatecall_forwarders_how_to_save_5098_on/\n* Credits to Jorge Izquierdo (@izqui) for coming up with this design here: https://gist.github.com/izqui/7f904443e6d19c1ab52ec7f5ad46b3a8\n* Credits to Stefan George (@Georgi87) for inspiration for many of the improvements from Gnosis Safe: https://github.com/gnosis/gnosis-safe-contracts\n*\n* This version has many improvements over the original @izqui's library like using REVERT instead of THROWing on failed calls.\n* It also implements the awesome design pattern for initializing code as seen in Gnosis Safe Factory: https://github.com/gnosis/gnosis-safe-contracts/blob/master/contracts/ProxyFactory.sol\n* but unlike this last one it doesn't require that you waste storage on both the proxy and the proxied contracts (v. https://github.com/gnosis/gnosis-safe-contracts/blob/master/contracts/Proxy.sol#L8 & https://github.com/gnosis/gnosis-safe-contracts/blob/master/contracts/GnosisSafe.sol#L14)\n*\n*\n* v0.0.2\n* The proxy is now only 60 bytes long in total. Constructor included.\n* No functionalities were added. The change was just to make the proxy leaner.\n*\n* v0.0.3\n* Thanks @dacarley for noticing the incorrect check for the subsequent call to the proxy. 🙌\n* Note: I'm creating a new version of this that doesn't need that one call.\n*       Will add tests and put this in its own repository soon™.\n*\n* v0.0.4\n* All the merit in this fix + update of the factory is @dacarley 's. 🙌\n* Thank you! 😄\n*\n* Potential updates can be found at https://gist.github.com/GNSPS/ba7b88565c947cfd781d44cf469c2ddb\n*\n***/\n\npragma solidity ^0.4.19;\n\n/* solhint-disable no-inline-assembly, indent, state-visibility, avoid-low-level-calls */\n\ncontract ProxyFactory {\n    event ProxyDeployed(address proxyAddress, address targetAddress);\n    event ProxiesDeployed(address[] proxyAddresses, address targetAddress);\n\n    function createManyProxies(uint256 _count, address _target, bytes _data)\n        public\n    {\n        address[] memory proxyAddresses = new address[](_count);\n\n        for (uint256 i = 0; i < _count; ++i) {\n            proxyAddresses[i] = createProxyImpl(_target, _data);\n        }\n\n        emit ProxiesDeployed(proxyAddresses, _target);\n    }\n\n    function createProxy(address _target, bytes _data)\n        public\n        returns (address proxyContract)\n    {\n        proxyContract = createProxyImpl(_target, _data);\n\n        emit ProxyDeployed(proxyContract, _target);\n    }\n\n    function createProxyImpl(address _target, bytes _data)\n        internal\n        returns (address proxyContract)\n    {\n        assembly {\n            let contractCode := mload(0x40) // Find empty storage location using \"free memory pointer\"\n\n            mstore(add(contractCode, 0x0b), _target) // Add target address, with a 11 bytes [i.e. 23 - (32 - 20)] offset to later accomodate first part of the bytecode\n            mstore(sub(contractCode, 0x09), 0x000000000000000000603160008181600b9039f3600080808080368092803773) // First part of the bytecode, shifted left by 9 bytes, overwrites left padding of target address\n            mstore(add(contractCode, 0x2b), 0x5af43d828181803e808314602f57f35bfd000000000000000000000000000000) // Final part of bytecode, offset by 43 bytes\n\n            proxyContract := create(0, contractCode, 60) // total length 60 bytes\n            if iszero(extcodesize(proxyContract)) {\n                revert(0, 0)\n            }\n\n            // check if the _data.length > 0 and if it is forward it to the newly created contract\n            let dataLength := mload(_data)\n            if iszero(iszero(dataLength)) {\n                if iszero(call(gas, proxyContract, 0, add(_data, 0x20), dataLength, 0, 0)) {\n                    revert(0, 0)\n                }\n            }\n        }\n    }\n}\n\n/***\n*\n* PROXY contract (bytecode)\n\n603160008181600b9039f3600080808080368092803773f00df00df00df00df00df00df00df00df00df00d5af43d828181803e808314602f57f35bfd\n\n*\n* PROXY contract (opcodes)\n\n0 PUSH1 0x31\n2 PUSH1 0x00\n4 DUP2\n5 DUP2\n6 PUSH1 0x0b\n8 SWAP1\n9 CODECOPY\n10 RETURN\n11 PUSH1 0x00\n13 DUP1\n14 DUP1\n15 DUP1\n16 DUP1\n17 CALLDATASIZE\n18 DUP1\n19 SWAP3\n20 DUP1\n21 CALLDATACOPY\n22 PUSH20 0xf00df00df00df00df00df00df00df00df00df00d\n43 GAS\n44 DELEGATECALL\n45 RETURNDATASIZE\n46 DUP3\n47 DUP2\n48 DUP2\n49 DUP1\n50 RETURNDATACOPY\n51 DUP1\n52 DUP4\n53 EQ\n54 PUSH1 0x2f\n56 JUMPI\n57 RETURN\n58 JUMPDEST\n59 REVERT\n\n*\n***/\n",
  "sourcePath": "/Users/jessicamarshall/distribute-dogfood/contracts/contracts/library/ProxyFactory.sol",
  "compiler": {
    "name": "solc",
    "version": "0.4.24+commit.e67f0147.Emscripten.clang"
  },
  "schemaVersion": "2.0.1",
  "updatedAt": "2018-11-30T19:00:07.544Z"
}