{
  "contractName": "TokenRegistry",
  "abi": [
    {
      "constant": false,
      "inputs": [],
      "name": "renounceOwnership",
      "outputs": [],
      "payable": false,
      "stateMutability": "nonpayable",
      "type": "function"
    },
    {
      "constant": true,
      "inputs": [],
      "name": "owner",
      "outputs": [
        {
          "name": "",
          "type": "address"
        }
      ],
      "payable": false,
      "stateMutability": "view",
      "type": "function"
    },
    {
      "constant": false,
      "inputs": [
        {
          "name": "_newOwner",
          "type": "address"
        }
      ],
      "name": "transferOwnership",
      "outputs": [],
      "payable": false,
      "stateMutability": "nonpayable",
      "type": "function"
    },
    {
      "payable": true,
      "stateMutability": "payable",
      "type": "fallback"
    },
    {
      "anonymous": false,
      "inputs": [
        {
          "indexed": false,
          "name": "projectAddress",
          "type": "address"
        },
        {
          "indexed": false,
          "name": "weiCost",
          "type": "uint256"
        },
        {
          "indexed": false,
          "name": "tokenCost",
          "type": "uint256"
        }
      ],
      "name": "LogProjectCreated",
      "type": "event"
    },
    {
      "anonymous": false,
      "inputs": [
        {
          "indexed": true,
          "name": "projectAddress",
          "type": "address"
        },
        {
          "indexed": false,
          "name": "tokens",
          "type": "uint256"
        },
        {
          "indexed": false,
          "name": "weiChange",
          "type": "uint256"
        },
        {
          "indexed": false,
          "name": "staker",
          "type": "address"
        },
        {
          "indexed": false,
          "name": "staked",
          "type": "bool"
        }
      ],
      "name": "LogStakedTokens",
      "type": "event"
    },
    {
      "anonymous": false,
      "inputs": [
        {
          "indexed": true,
          "name": "projectAddress",
          "type": "address"
        },
        {
          "indexed": false,
          "name": "tokens",
          "type": "uint256"
        },
        {
          "indexed": false,
          "name": "weiChange",
          "type": "uint256"
        },
        {
          "indexed": false,
          "name": "unstaker",
          "type": "address"
        }
      ],
      "name": "LogUnstakedTokens",
      "type": "event"
    },
    {
      "anonymous": false,
      "inputs": [
        {
          "indexed": true,
          "name": "projectAddress",
          "type": "address"
        },
        {
          "indexed": false,
          "name": "validationFee",
          "type": "uint256"
        },
        {
          "indexed": false,
          "name": "validationState",
          "type": "bool"
        },
        {
          "indexed": false,
          "name": "taskIndex",
          "type": "uint256"
        },
        {
          "indexed": false,
          "name": "validator",
          "type": "address"
        }
      ],
      "name": "LogValidateTask",
      "type": "event"
    },
    {
      "anonymous": false,
      "inputs": [
        {
          "indexed": true,
          "name": "projectAddress",
          "type": "address"
        },
        {
          "indexed": false,
          "name": "index",
          "type": "uint256"
        },
        {
          "indexed": false,
          "name": "weiReward",
          "type": "uint256"
        },
        {
          "indexed": false,
          "name": "returnAmount",
          "type": "uint256"
        },
        {
          "indexed": false,
          "name": "validator",
          "type": "address"
        }
      ],
      "name": "LogRewardValidator",
      "type": "event"
    },
    {
      "anonymous": false,
      "inputs": [
        {
          "indexed": true,
          "name": "projectAddress",
          "type": "address"
        },
        {
          "indexed": false,
          "name": "index",
          "type": "uint256"
        },
        {
          "indexed": false,
          "name": "tokens",
          "type": "uint256"
        },
        {
          "indexed": false,
          "name": "secretHash",
          "type": "bytes32"
        },
        {
          "indexed": false,
          "name": "pollId",
          "type": "uint256"
        },
        {
          "indexed": false,
          "name": "voter",
          "type": "address"
        }
      ],
      "name": "LogTokenVoteCommitted",
      "type": "event"
    },
    {
      "anonymous": false,
      "inputs": [
        {
          "indexed": true,
          "name": "projectAddress",
          "type": "address"
        },
        {
          "indexed": false,
          "name": "index",
          "type": "uint256"
        },
        {
          "indexed": false,
          "name": "voteOption",
          "type": "uint256"
        },
        {
          "indexed": false,
          "name": "salt",
          "type": "uint256"
        },
        {
          "indexed": false,
          "name": "voter",
          "type": "address"
        }
      ],
      "name": "LogTokenVoteRevealed",
      "type": "event"
    },
    {
      "anonymous": false,
      "inputs": [
        {
          "indexed": true,
          "name": "projectAddress",
          "type": "address"
        },
        {
          "indexed": false,
          "name": "index",
          "type": "uint256"
        },
        {
          "indexed": false,
          "name": "pollId",
          "type": "uint256"
        },
        {
          "indexed": false,
          "name": "voter",
          "type": "address"
        }
      ],
      "name": "LogTokenVoteRescued",
      "type": "event"
    },
    {
      "anonymous": false,
      "inputs": [
        {
          "indexed": true,
          "name": "previousOwner",
          "type": "address"
        }
      ],
      "name": "OwnershipRenounced",
      "type": "event"
    },
    {
      "anonymous": false,
      "inputs": [
        {
          "indexed": true,
          "name": "previousOwner",
          "type": "address"
        },
        {
          "indexed": true,
          "name": "newOwner",
          "type": "address"
        }
      ],
      "name": "OwnershipTransferred",
      "type": "event"
    },
    {
      "constant": false,
      "inputs": [
        {
          "name": "_distributeToken",
          "type": "address"
        },
        {
          "name": "_projectRegistry",
          "type": "address"
        },
        {
          "name": "_plcrVoting",
          "type": "address"
        }
      ],
      "name": "init",
      "outputs": [],
      "payable": false,
      "stateMutability": "nonpayable",
      "type": "function"
    },
    {
      "constant": false,
      "inputs": [],
      "name": "freezeContract",
      "outputs": [],
      "payable": false,
      "stateMutability": "nonpayable",
      "type": "function"
    },
    {
      "constant": false,
      "inputs": [],
      "name": "unfreezeContract",
      "outputs": [],
      "payable": false,
      "stateMutability": "nonpayable",
      "type": "function"
    },
    {
      "constant": false,
      "inputs": [
        {
          "name": "_newPlcrVoting",
          "type": "address"
        }
      ],
      "name": "updatePLCRVoting",
      "outputs": [],
      "payable": false,
      "stateMutability": "nonpayable",
      "type": "function"
    },
    {
      "constant": false,
      "inputs": [
        {
          "name": "_newDistributeToken",
          "type": "address"
        }
      ],
      "name": "updateDistributeToken",
      "outputs": [],
      "payable": false,
      "stateMutability": "nonpayable",
      "type": "function"
    },
    {
      "constant": false,
      "inputs": [
        {
          "name": "_newProjectRegistry",
          "type": "address"
        }
      ],
      "name": "updateProjectRegistry",
      "outputs": [],
      "payable": false,
      "stateMutability": "nonpayable",
      "type": "function"
    },
    {
      "constant": false,
      "inputs": [
        {
          "name": "_cost",
          "type": "uint256"
        },
        {
          "name": "_stakingPeriod",
          "type": "uint256"
        },
        {
          "name": "_ipfsHash",
          "type": "bytes"
        }
      ],
      "name": "proposeProject",
      "outputs": [],
      "payable": false,
      "stateMutability": "nonpayable",
      "type": "function"
    },
    {
      "constant": false,
      "inputs": [
        {
          "name": "_projectAddress",
          "type": "address"
        }
      ],
      "name": "refundProposer",
      "outputs": [],
      "payable": false,
      "stateMutability": "nonpayable",
      "type": "function"
    },
    {
      "constant": false,
      "inputs": [
        {
          "name": "_projectAddress",
          "type": "address"
        }
      ],
      "name": "rewardOriginator",
      "outputs": [],
      "payable": false,
      "stateMutability": "nonpayable",
      "type": "function"
    },
    {
      "constant": false,
      "inputs": [
        {
          "name": "_projectAddress",
          "type": "address"
        },
        {
          "name": "_tokens",
          "type": "uint256"
        }
      ],
      "name": "stakeTokens",
      "outputs": [],
      "payable": false,
      "stateMutability": "nonpayable",
      "type": "function"
    },
    {
      "constant": false,
      "inputs": [
        {
          "name": "_projectAddress",
          "type": "address"
        },
        {
          "name": "_tokens",
          "type": "uint256"
        }
      ],
      "name": "unstakeTokens",
      "outputs": [],
      "payable": false,
      "stateMutability": "nonpayable",
      "type": "function"
    },
    {
      "constant": true,
      "inputs": [
        {
          "name": "_address",
          "type": "address"
        }
      ],
      "name": "calculateWeightOfAddress",
      "outputs": [
        {
          "name": "",
          "type": "uint256"
        }
      ],
      "payable": false,
      "stateMutability": "view",
      "type": "function"
    },
    {
      "constant": false,
      "inputs": [
        {
          "name": "_projectAddress",
          "type": "address"
        },
        {
          "name": "_taskIndex",
          "type": "uint256"
        },
        {
          "name": "_validationState",
          "type": "bool"
        }
      ],
      "name": "validateTask",
      "outputs": [],
      "payable": false,
      "stateMutability": "nonpayable",
      "type": "function"
    },
    {
      "constant": false,
      "inputs": [
        {
          "name": "_projectAddress",
          "type": "address"
        },
        {
          "name": "_index",
          "type": "uint256"
        }
      ],
      "name": "rewardValidator",
      "outputs": [],
      "payable": false,
      "stateMutability": "nonpayable",
      "type": "function"
    },
    {
      "constant": false,
      "inputs": [
        {
          "name": "_projectAddress",
          "type": "address"
        },
        {
          "name": "_index",
          "type": "uint256"
        },
        {
          "name": "_votes",
          "type": "uint256"
        },
        {
          "name": "_secretHash",
          "type": "bytes32"
        },
        {
          "name": "_prevPollID",
          "type": "uint256"
        }
      ],
      "name": "voteCommit",
      "outputs": [],
      "payable": false,
      "stateMutability": "nonpayable",
      "type": "function"
    },
    {
      "constant": false,
      "inputs": [
        {
          "name": "_projectAddress",
          "type": "address"
        },
        {
          "name": "_index",
          "type": "uint256"
        },
        {
          "name": "_voteOption",
          "type": "uint256"
        },
        {
          "name": "_salt",
          "type": "uint256"
        }
      ],
      "name": "voteReveal",
      "outputs": [],
      "payable": false,
      "stateMutability": "nonpayable",
      "type": "function"
    },
    {
      "constant": false,
      "inputs": [
        {
          "name": "_votes",
          "type": "uint256"
        }
      ],
      "name": "refundVotingTokens",
      "outputs": [],
      "payable": false,
      "stateMutability": "nonpayable",
      "type": "function"
    },
    {
      "constant": false,
      "inputs": [
        {
          "name": "_projectAddress",
          "type": "address"
        }
      ],
      "name": "refundStaker",
      "outputs": [],
      "payable": false,
      "stateMutability": "nonpayable",
      "type": "function"
    },
    {
      "constant": false,
      "inputs": [
        {
          "name": "_projectAddress",
          "type": "address"
        },
        {
          "name": "_index",
          "type": "uint256"
        }
      ],
      "name": "rescueTokens",
      "outputs": [],
      "payable": false,
      "stateMutability": "nonpayable",
      "type": "function"
    },
    {
      "constant": false,
      "inputs": [
        {
          "name": "_value",
          "type": "uint256"
        }
      ],
      "name": "revertWei",
      "outputs": [],
      "payable": false,
      "stateMutability": "nonpayable",
      "type": "function"
    },
    {
      "constant": false,
      "inputs": [
        {
          "name": "_tokens",
          "type": "uint256"
        }
      ],
      "name": "burnTokens",
      "outputs": [],
      "payable": false,
      "stateMutability": "nonpayable",
      "type": "function"
    }
  ],
  "bytecode": "0x6080604052642e90edd000600455606460055560008054600160a060020a03191633179055613f2c806100336000396000f3006080604052600436106101245763ffffffff60e060020a60003504166304b534158114610126578063184b9559146101475780632f27ea1f146101745780634012c2a2146101a157806352a220b7146101c257806357376198146101e35780635c352318146102075780636d1b229d14610228578063715018a61461024057806374f8c4d21461025557806375f6857b1461027d57806379a83f5a146102955780638be1c84e146102b95780638da5cb5b146102ec5780638e03db2b1461031d5780639ab676731461033e578063a584a9b514610356578063bdbff2f11461036b578063c71ce4151461038f578063e096fff0146103b8578063e89a173e146103e2578063f2fde38b14610406578063f3e6e08a14610427578063f4917dd314610448575b005b34801561013257600080fd5b50610124600160a060020a036004351661045d565b34801561015357600080fd5b50610124600160a060020a03600435811690602435811690604435166104a3565b34801561018057600080fd5b50610124600160a060020a0360043516602435604435606435608435610531565b3480156101ad57600080fd5b50610124600160a060020a0360043516610a1d565b3480156101ce57600080fd5b50610124600160a060020a0360043516610cf0565b3480156101ef57600080fd5b50610124600160a060020a0360043516602435610d36565b34801561021357600080fd5b50610124600160a060020a0360043516610faa565b34801561023457600080fd5b50610124600435611318565b34801561024c57600080fd5b506101246113c0565b34801561026157600080fd5b506101246004803590602480359160443591820191013561142c565b34801561028957600080fd5b50610124600435611914565b3480156102a157600080fd5b50610124600160a060020a03600435166024356119a1565b3480156102c557600080fd5b506102da600160a060020a036004351661203c565b60408051918252519081900360200190f35b3480156102f857600080fd5b506103016121de565b60408051600160a060020a039092168252519081900360200190f35b34801561032957600080fd5b50610124600160a060020a03600435166121ed565b34801561034a57600080fd5b506101246004356123c4565b34801561036257600080fd5b5061012461259e565b34801561037757600080fd5b50610124600160a060020a03600435166024356125c4565b34801561039b57600080fd5b50610124600160a060020a03600435166024356044351515613402565b3480156103c457600080fd5b50610124600160a060020a03600435166024356044356064356137b2565b3480156103ee57600080fd5b50610124600160a060020a0360043516602435613a40565b34801561041257600080fd5b50610124600160a060020a0360043516613d68565b34801561043357600080fd5b50610124600160a060020a0360043516613d8b565b34801561045457600080fd5b50610124613dd1565b600054600160a060020a0316331461047457600080fd5b6002805473ffffffffffffffffffffffffffffffffffffffff1916600160a060020a0392909216919091179055565b600254600160a060020a03161580156104c55750600154600160a060020a0316155b80156104da5750600354600160a060020a0316155b15156104e557600080fd5b60028054600160a060020a0394851673ffffffffffffffffffffffffffffffffffffffff1991821617909155600180549385169382169390931790925560038054919093169116179055565b6006546000908190819060ff161561054857600080fd5b6001546040805160e060020a63840e78fd028152600160a060020a038b811660048301529151919092169163840e78fd9160248083019260209291908290030181600087803b15801561059a57600080fd5b505af11580156105ae573d6000803e3d6000fd5b505050506040513d60208110156105c457600080fd5b505115156001146105d457600080fd5b87600160a060020a0316638d977672886040518263ffffffff1660e060020a02815260040180828152602001915050602060405180830381600087803b15801561061d57600080fd5b505af1158015610631573d6000803e3d6000fd5b505050506040513d602081101561064757600080fd5b5051604080517f6f13ab000000000000000000000000000000000000000000000000000000000081529051600160a060020a0390921691636f13ab00916004808201926020929091908290030181600087803b1580156106a657600080fd5b505af11580156106ba573d6000803e3d6000fd5b505050506040513d60208110156106d057600080fd5b5051600354604080517f9f68ce54000000000000000000000000000000000000000000000000000000008152336004820152600160248201529051929550600160a060020a0390911691639f68ce54916044808201926020929091908290030181600087803b15801561074257600080fd5b505af1158015610756573d6000803e3d6000fd5b505050506040513d602081101561076c57600080fd5b50519150858210156109215761078182613df4565b61078a87613df4565b6002546040805160e060020a6370a0823102815233600482015290519390920393508392600160a060020a03909116916370a082319160248083019260209291908290030181600087803b1580156107e157600080fd5b505af11580156107f5573d6000803e3d6000fd5b505050506040513d602081101561080b57600080fd5b5051101561081857600080fd5b6002546040805160e060020a639e88fd81028152336004820152602481018490529051600160a060020a0390921691639e88fd81916044808201926020929091908290030181600087803b15801561086f57600080fd5b505af1158015610883573d6000803e3d6000fd5b505050506040513d602081101561089957600080fd5b5050600354604080517fc5fa801b00000000000000000000000000000000000000000000000000000000815233600482015284890360248201529051600160a060020a039092169163c5fa801b9160448082019260009290919082900301818387803b15801561090857600080fd5b505af115801561091c573d6000803e3d6000fd5b505050505b600354604080517f5e28fd5e000000000000000000000000000000000000000000000000000000008152336004820152602481018690526044810188905260648101899052608481018790529051600160a060020a0390921691635e28fd5e9160a48082019260009290919082900301818387803b1580156109a257600080fd5b505af11580156109b6573d6000803e3d6000fd5b5050604080518a8152602081018a9052808201899052606081018790523360808201529051600160a060020a038c1693507f68221fadcfe0c0fde343f46140139a9eb6c6207de21b416db6fff5c8af60354c92509081900360a00190a25050505050505050565b6000610a27613ee5565b60065460ff1615610a3757600080fd5b82915033600160a060020a031682600160a060020a031663a8e4fb906040518163ffffffff1660e060020a028152600401602060405180830381600087803b158015610a8257600080fd5b505af1158015610a96573d6000803e3d6000fd5b505050506040513d6020811015610aac57600080fd5b5051600160a060020a031614610ac157600080fd5b81600160a060020a03166316ddf0216040518163ffffffff1660e060020a028152600401602060405180830381600087803b158015610aff57600080fd5b505af1158015610b13573d6000803e3d6000fd5b505050506040513d6020811015610b2957600080fd5b5051600114610b3757600080fd5b600154604080517faab1d6df000000000000000000000000000000000000000000000000000000008152600160a060020a038681166004830152336024830152825193169263aab1d6df926044808401939192918290030181600087803b158015610ba157600080fd5b505af1158015610bb5573d6000803e3d6000fd5b505050506040513d601f19601f820116820180604052506040811015610bda57600080fd5b506002546020808301516040805160e160020a63141bb07d028152336004820152602481019290925251939450600160a060020a039092169263283760fa9260448082019392918290030181600087803b158015610c3757600080fd5b505af1158015610c4b573d6000803e3d6000fd5b505050506040513d6020811015610c6157600080fd5b50506002548151604080517f53c333cd0000000000000000000000000000000000000000000000000000000081523360048201526014909204602483015251600160a060020a03909216916353c333cd9160448082019260009290919082900301818387803b158015610cd357600080fd5b505af1158015610ce7573d6000803e3d6000fd5b50505050505050565b600054600160a060020a03163314610d0757600080fd5b6003805473ffffffffffffffffffffffffffffffffffffffff1916600160a060020a0392909216919091179055565b60065460009060ff1615610d4957600080fd5b6001546040805160e060020a63840e78fd028152600160a060020a0386811660048301529151919092169163840e78fd9160248083019260209291908290030181600087803b158015610d9b57600080fd5b505af1158015610daf573d6000803e3d6000fd5b505050506040513d6020811015610dc557600080fd5b50511515600114610dd557600080fd5b82600160a060020a0316638d977672836040518263ffffffff1660e060020a02815260040180828152602001915050602060405180830381600087803b158015610e1e57600080fd5b505af1158015610e32573d6000803e3d6000fd5b505050506040513d6020811015610e4857600080fd5b5051604080517f6f13ab000000000000000000000000000000000000000000000000000000000081529051600160a060020a0390921691636f13ab00916004808201926020929091908290030181600087803b158015610ea757600080fd5b505af1158015610ebb573d6000803e3d6000fd5b505050506040513d6020811015610ed157600080fd5b5051600354604080517f57376198000000000000000000000000000000000000000000000000000000008152336004820152602481018490529051929350600160a060020a039091169163573761989160448082019260009290919082900301818387803b158015610f4257600080fd5b505af1158015610f56573d6000803e3d6000fd5b5050604080518581526020810185905233818301529051600160a060020a03871693507f2f5ad399033fbb479a9133244f1ac6c0f52e6eacc10a0c83200149062c877e7c92509081900360600190a2505050565b60065460009060ff1615610fbd57600080fd5b6001546040805160e060020a63840e78fd028152600160a060020a0385811660048301529151919092169163840e78fd9160248083019260209291908290030181600087803b15801561100f57600080fd5b505af1158015611023573d6000803e3d6000fd5b505050506040513d602081101561103957600080fd5b5051151560011461104957600080fd5b604080517fb7d00f73000000000000000000000000000000000000000000000000000000008152600160a060020a0384166004820152336024820152306044820152905173__ProjectLibrary________________________9163b7d00f73916064808301926020929190829003018186803b1580156110c857600080fd5b505af41580156110dc573d6000803e3d6000fd5b505050506040513d60208110156110f257600080fd5b505190506000811161110357600080fd5b604080517f06a5ab2c0000000000000000000000000000000000000000000000000000000081523360048201529051600160a060020a038416916306a5ab2c91602480830192600092919082900301818387803b15801561116357600080fd5b505af1158015611177573d6000803e3d6000fd5b50506002546040805160e160020a63141bb07d028152336004820152602481018690529051600160a060020a03909216935063283760fa92506044808201926020929091908290030181600087803b1580156111d257600080fd5b505af11580156111e6573d6000803e3d6000fd5b505050506040513d60208110156111fc57600080fd5b5050604080517fc19d93fb0000000000000000000000000000000000000000000000000000000081529051600160a060020a0384169163c19d93fb9160048083019260209291908290030181600087803b15801561125957600080fd5b505af115801561126d573d6000803e3d6000fd5b505050506040513d602081101561128357600080fd5b50516006141561131457600254604080517f2be8c2a50000000000000000000000000000000000000000000000000000000081523360048201526014840460248201529051600160a060020a0390921691632be8c2a59160448082019260009290919082900301818387803b1580156112fb57600080fd5b505af115801561130f573d6000803e3d6000fd5b505050505b5050565b600154600160a060020a0316331461132f57600080fd5b60065460ff161561133f57600080fd5b600254604080517f42966c68000000000000000000000000000000000000000000000000000000008152600481018490529051600160a060020a03909216916342966c689160248082019260009290919082900301818387803b1580156113a557600080fd5b505af11580156113b9573d6000803e3d6000fd5b5050505050565b600054600160a060020a031633146113d757600080fd5b60008054604051600160a060020a03909116917ff8df31144d9c2f0f6b59d69b8b98abd5459d07f2742c4df920b25aae33c6482091a26000805473ffffffffffffffffffffffffffffffffffffffff19169055565b6006546000908190819060ff161561144357600080fd5b85421080156114525750600087115b151561145d57600080fd5b73__Division______________________________622c1a9e88600260009054906101000a9004600160a060020a0316600160a060020a031663065d5d0a6040518163ffffffff1660e060020a028152600401602060405180830381600087803b1580156114ca57600080fd5b505af11580156114de573d6000803e3d6000fd5b505050506040513d60208110156114f457600080fd5b50516040805160e060020a63ffffffff861602815260048101939093526024830191909152600a6044830152516064808301926020929190829003018186803b15801561154057600080fd5b505af4158015611554573d6000803e3d6000fd5b505050506040513d602081101561156a57600080fd5b5051600254604080517f18160ddd00000000000000000000000000000000000000000000000000000000815290519295506116c8926402540be400926116bc92600160a060020a03909116916318160ddd916004808201926020929091908290030181600087803b1580156115de57600080fd5b505af11580156115f2573d6000803e3d6000fd5b505050506040513d602081101561160857600080fd5b505160048054604080517e2c1a9e0000000000000000000000000000000000000000000000000000000081529283018a90526024830191909152600a60448301525173__Division______________________________91622c1a9e916064808301926020929190829003018186803b15801561168457600080fd5b505af4158015611698573d6000803e3d6000fd5b505050506040513d60208110156116ae57600080fd5b50519063ffffffff613e0c16565b9063ffffffff613e4216565b6002546040805160e060020a6370a0823102815233600482015290519294508492600160a060020a03909216916370a08231916024808201926020929091908290030181600087803b15801561171d57600080fd5b505af1158015611731573d6000803e3d6000fd5b505050506040513d602081101561174757600080fd5b5051101561175457600080fd5b6002546040805160e060020a639e88fd81028152336004820152602481018590529051600160a060020a0390921691639e88fd81916044808201926020929091908290030181600087803b1580156117ab57600080fd5b505af11580156117bf573d6000803e3d6000fd5b505050506040513d60208110156117d557600080fd5b5050600180546040517f8b4dfc2f000000000000000000000000000000000000000000000000000000008152600481018a815260248201879052604482018a905233606483018190526084830185905260a4830187905260e060c4840190815260e484018a9052600160a060020a0390941694638b4dfc2f948d948a948e9493928b928f928f9290916101040184848082843782019150509950505050505050505050602060405180830381600087803b15801561189257600080fd5b505af11580156118a6573d6000803e3d6000fd5b505050506040513d60208110156118bc57600080fd5b505160408051600160a060020a0383168152602081018a905280820185905290519192507f809523e516336d444261958e529ac0ff837801879a12fe6b90c087a267adde4a919081900360600190a150505050505050565b600154600160a060020a0316331461192b57600080fd5b60065460ff161561193b57600080fd5b600254604080517fe99364ed000000000000000000000000000000000000000000000000000000008152600481018490529051600160a060020a039092169163e99364ed9160248082019260009290919082900301818387803b1580156113a557600080fd5b600654600090819081908190819081908190819060ff16156119c257600080fd5b6001546040805160e060020a63840e78fd028152600160a060020a038d811660048301529151919092169163840e78fd9160248083019260209291908290030181600087803b158015611a1457600080fd5b505af1158015611a28573d6000803e3d6000fd5b505050506040513d6020811015611a3e57600080fd5b50511515600114611a4e57600080fd5b6002546040805160e060020a6370a0823102815233600482015290518b92600160a060020a0316916370a082319160248083019260209291908290030181600087803b158015611a9d57600080fd5b505af1158015611ab1573d6000803e3d6000fd5b505050506040513d6020811015611ac757600080fd5b50511015611ad457600080fd5b600154604080517f247f8e14000000000000000000000000000000000000000000000000000000008152600160a060020a03808e16600483015291518d9b50919092169163247f8e149160248083019260209291908290030181600087803b158015611b3f57600080fd5b505af1158015611b53573d6000803e3d6000fd5b505050506040513d6020811015611b6957600080fd5b5050604080517fc19d93fb0000000000000000000000000000000000000000000000000000000081529051600160a060020a038a169163c19d93fb9160048083019260209291908290030181600087803b158015611bc657600080fd5b505af1158015611bda573d6000803e3d6000fd5b505050506040513d6020811015611bf057600080fd5b5051600114611bfe57600080fd5b87600160a060020a031663065d5d0a6040518163ffffffff1660e060020a028152600401602060405180830381600087803b158015611c3c57600080fd5b505af1158015611c50573d6000803e3d6000fd5b505050506040513d6020811015611c6657600080fd5b5051604080517f12ff35bc0000000000000000000000000000000000000000000000000000000081529051600160a060020a038b16916312ff35bc9160048083019260209291908290030181600087803b158015611cc357600080fd5b505af1158015611cd7573d6000803e3d6000fd5b505050506040513d6020811015611ced57600080fd5b505103965060008711611cff57600080fd5b600260009054906101000a9004600160a060020a0316600160a060020a0316639d1b464a6040518163ffffffff1660e060020a028152600401602060405180830381600087803b158015611d5257600080fd5b505af1158015611d66573d6000803e3d6000fd5b505050506040513d6020811015611d7c57600080fd5b505195508886029450868511935083611d955784611d97565b865b925083611da45788611db4565b8587811515611daf57fe5b046001015b604080517f0cff8e8f00000000000000000000000000000000000000000000000000000000815233600482015260248101839052604481018690529051919350600160a060020a038a1691630cff8e8f9160648082019260009290919082900301818387803b158015611e2657600080fd5b505af1158015611e3a573d6000803e3d6000fd5b5050600254604080517f53c333cd000000000000000000000000000000000000000000000000000000008152600160a060020a038f811660048301526024820189905291519190921693506353c333cd9250604480830192600092919082900301818387803b158015611eac57600080fd5b505af1158015611ec0573d6000803e3d6000fd5b50506002546040805160e060020a639e88fd81028152336004820152602481018790529051600160a060020a039092169350639e88fd8192506044808201926020929091908290030181600087803b158015611f1b57600080fd5b505af1158015611f2f573d6000803e3d6000fd5b505050506040513d6020811015611f4557600080fd5b5050600154604080517f247f8e14000000000000000000000000000000000000000000000000000000008152600160a060020a038d811660048301529151919092169163247f8e149160248083019260209291908290030181600087803b158015611faf57600080fd5b505af1158015611fc3573d6000803e3d6000fd5b505050506040513d6020811015611fd957600080fd5b50516040805184815260208101869052338183015282151560608201529051919250600160a060020a038c16917fa8371176c22bf281f3dc4915c8ef1ce66ba9399788cdc0a97b11546e6a7fa58b9181900360800190a250505050505050505050565b6002546040805160e060020a6370a08231028152600160a060020a038481166004830152915160009373__Division______________________________93622c1a9e939116916370a082319160248082019260209290919082900301818987803b1580156120aa57600080fd5b505af11580156120be573d6000803e3d6000fd5b505050506040513d60208110156120d457600080fd5b5051600254604080517f18160ddd0000000000000000000000000000000000000000000000000000000081529051600160a060020a03909216916318160ddd916004808201926020929091908290030181600087803b15801561213657600080fd5b505af115801561214a573d6000803e3d6000fd5b505050506040513d602081101561216057600080fd5b50516040805160e060020a63ffffffff861602815260048101939093526024830191909152600f6044830152516064808301926020929190829003018186803b1580156121ac57600080fd5b505af41580156121c0573d6000803e3d6000fd5b505050506040513d60208110156121d657600080fd5b505192915050565b600054600160a060020a031681565b60065460009060ff161561220057600080fd5b81905080600160a060020a031663c19d93fb6040518163ffffffff1660e060020a028152600401602060405180830381600087803b15801561224157600080fd5b505af1158015612255573d6000803e3d6000fd5b505050506040513d602081101561226b57600080fd5b505160061461227957600080fd5b600154604080517f0e728a76000000000000000000000000000000000000000000000000000000008152600160a060020a03858116600483015233602483015291519190921691630e728a7691604480830192600092919082900301818387803b1580156122e657600080fd5b505af11580156122fa573d6000803e3d6000fd5b5050505080600160a060020a031663b10bbaab3383600160a060020a031663eb28c0986040518163ffffffff1660e060020a028152600401602060405180830381600087803b15801561234c57600080fd5b505af1158015612360573d6000803e3d6000fd5b505050506040513d602081101561237657600080fd5b50516040805160e060020a63ffffffff8616028152600160a060020a039093166004840152602483019190915251604480830192600092919082900301818387803b1580156112fb57600080fd5b600654600090819060ff16156123d957600080fd5b600354604080517f9f68ce54000000000000000000000000000000000000000000000000000000008152336004820152600160248201529051600160a060020a0390921691639f68ce54916044808201926020929091908290030181600087803b15801561244657600080fd5b505af115801561245a573d6000803e3d6000fd5b505050506040513d602081101561247057600080fd5b505191508183111561248157600080fd5b61248c838303613df4565b61249583613df4565b600354604080517fef348e40000000000000000000000000000000000000000000000000000000008152336004820152602481018890529051939092039350600160a060020a03169163ef348e409160448082019260009290919082900301818387803b15801561250557600080fd5b505af1158015612519573d6000803e3d6000fd5b50506002546040805160e160020a63141bb07d028152336004820152602481018690529051600160a060020a03909216935063283760fa92506044808201926020929091908290030181600087803b15801561257457600080fd5b505af1158015612588573d6000803e3d6000fd5b505050506040513d60208110156113b957600080fd5b600054600160a060020a031633146125b557600080fd5b6006805460ff19166001179055565b600080600080600080600080600080600660009054906101000a900460ff161515156125ef57600080fd5b6001546040805160e060020a63840e78fd028152600160a060020a038f811660048301529151919092169163840e78fd9160248083019260209291908290030181600087803b15801561264157600080fd5b505af1158015612655573d6000803e3d6000fd5b505050506040513d602081101561266b57600080fd5b5051151560011461267b57600080fd5b8b995089600160a060020a0316638d9776728c6040518263ffffffff1660e060020a02815260040180828152602001915050602060405180830381600087803b1580156126c757600080fd5b505af11580156126db573d6000803e3d6000fd5b505050506040513d60208110156126f157600080fd5b5051604080517faf38d7570000000000000000000000000000000000000000000000000000000081529051919a50600160a060020a038b169163af38d757916004808201926020929091908290030181600087803b15801561275257600080fd5b505af1158015612766573d6000803e3d6000fd5b505050506040513d602081101561277c57600080fd5b5051151561278957600080fd5b604080517f1fcc449e0000000000000000000000000000000000000000000000000000000081523360048201529051600160a060020a038b1691631fcc449e9160248083019260209291908290030181600087803b1580156127ea57600080fd5b505af11580156127fe573d6000803e3d6000fd5b505050506040513d602081101561281457600080fd5b505196506005871061282557600080fd5b604080517f206cf0a80000000000000000000000000000000000000000000000000000000081523360048201529051600160a060020a038b169163206cf0a891602480830192600092919082900301818387803b15801561288557600080fd5b505af1158015612899573d6000803e3d6000fd5b5050600154604080517f873299b4000000000000000000000000000000000000000000000000000000008152600481018c90529051600160a060020a03909216935063873299b492506024808201926020929091908290030181600087803b15801561290457600080fd5b505af1158015612918573d6000803e3d6000fd5b505050506040513d602081101561292e57600080fd5b5051604080517fedb151a80000000000000000000000000000000000000000000000000000000081529051919750600160a060020a038b169163edb151a8916004808201926020929091908290030181600087803b15801561298f57600080fd5b505af11580156129a3573d6000803e3d6000fd5b505050506040513d60208110156129b957600080fd5b50516129c65760006129c9565b60015b60ff16945088600160a060020a031663a310624f336040518263ffffffff1660e060020a0281526004018082600160a060020a0316600160a060020a03168152602001915050602060405180830381600087803b158015612a2957600080fd5b505af1158015612a3d573d6000803e3d6000fd5b505050506040513d6020811015612a5357600080fd5b50518514156130205788600160a060020a03166376e567636040518163ffffffff1660e060020a028152600401602060405180830381600087803b158015612a9a57600080fd5b505af1158015612aae573d6000803e3d6000fd5b505050506040513d6020811015612ac457600080fd5b5051604080517fa310624f00000000000000000000000000000000000000000000000000000000815233600482015290519990910198600160a060020a038b169163a310624f9160248083019260209291908290030181600087803b158015612b2c57600080fd5b505af1158015612b40573d6000803e3d6000fd5b505050506040513d6020811015612b5657600080fd5b505160011415612c635733600160a060020a031689600160a060020a03166379fd9576896040518263ffffffff1660e060020a02815260040180828152602001915050602060405180830381600087803b158015612bb357600080fd5b505af1158015612bc7573d6000803e3d6000fd5b505050506040513d6020811015612bdd57600080fd5b5051600160a060020a031614612bf257600080fd5b88600160a060020a031663704d31266040518163ffffffff1660e060020a028152600401602060405180830381600087803b158015612c3057600080fd5b505af1158015612c44573d6000803e3d6000fd5b505050506040513d6020811015612c5a57600080fd5b50519350612d62565b33600160a060020a031689600160a060020a0316634a7de6dd896040518263ffffffff1660e060020a02815260040180828152602001915050602060405180830381600087803b158015612cb657600080fd5b505af1158015612cca573d6000803e3d6000fd5b505050506040513d6020811015612ce057600080fd5b5051600160a060020a031614612cf557600080fd5b88600160a060020a031663fc6ebece6040518163ffffffff1660e060020a028152600401602060405180830381600087803b158015612d3357600080fd5b505af1158015612d47573d6000803e3d6000fd5b505050506040513d6020811015612d5d57600080fd5b505193505b6005841015612e49578391505b6005821015612e2657600154604080517f873299b4000000000000000000000000000000000000000000000000000000008152600481018590529051612e1992600160a060020a03169163873299b49160248083019260209291908290030181600087803b158015612de057600080fd5b505af1158015612df4573d6000803e3d6000fd5b505050506040513d6020811015612e0a57600080fd5b5051849063ffffffff613e5916565b9250600190910190612d6f565b612e46612e39848663ffffffff613e4216565b879063ffffffff613e5916565b95505b612f2d6127106116bc88612f218d600160a060020a031663599b6d236040518163ffffffff1660e060020a028152600401602060405180830381600087803b158015612e9457600080fd5b505af1158015612ea8573d6000803e3d6000fd5b505050506040513d6020811015612ebe57600080fd5b81019080805190602001909291905050508f600160a060020a0316638cf86deb6040518163ffffffff1660e060020a028152600401602060405180830381600087803b158015612f0d57600080fd5b505af1158015611698573d6000803e3d6000fd5b9063ffffffff613e0c16565b604080517fb10bbaab000000000000000000000000000000000000000000000000000000008152336004820152602481018390529051919250600160a060020a038c169163b10bbaab9160448082019260009290919082900301818387803b158015612f9857600080fd5b505af1158015612fac573d6000803e3d6000fd5b505050508b600160a060020a03167f93695f5e3157c7a48c3ea364f7eeb208c65b7cb4a92de4eed5621e667b08b71a8c838b336040518085815260200184815260200183815260200182600160a060020a0316600160a060020a0316815260200194505050505060405180910390a261331f565b506000600185146130c25733600160a060020a031689600160a060020a03166379fd9576896040518263ffffffff1660e060020a02815260040180828152602001915050602060405180830381600087803b15801561307e57600080fd5b505af1158015613092573d6000803e3d6000fd5b505050506040513d60208110156130a857600080fd5b5051600160a060020a0316146130bd57600080fd5b613154565b33600160a060020a031689600160a060020a0316634a7de6dd896040518263ffffffff1660e060020a02815260040180828152602001915050602060405180830381600087803b15801561311557600080fd5b505af1158015613129573d6000803e3d6000fd5b505050506040513d602081101561313f57600080fd5b5051600160a060020a03161461315457600080fd5b600289600160a060020a03166376e567636040518163ffffffff1660e060020a028152600401602060405180830381600087803b15801561319457600080fd5b505af11580156131a8573d6000803e3d6000fd5b505050506040513d60208110156131be57600080fd5b50518115156131c957fe5b0488019750600260009054906101000a9004600160a060020a0316600160a060020a03166342966c68898b600160a060020a03166376e567636040518163ffffffff1660e060020a028152600401602060405180830381600087803b15801561323157600080fd5b505af1158015613245573d6000803e3d6000fd5b505050506040513d602081101561325b57600080fd5b50516040805160e060020a63ffffffff861602815292909103600483015251602480830192600092919082900301818387803b15801561329a57600080fd5b505af11580156132ae573d6000803e3d6000fd5b505050508b600160a060020a03167f93695f5e3157c7a48c3ea364f7eeb208c65b7cb4a92de4eed5621e667b08b71a8c60008b336040518085815260200184815260200183815260200182600160a060020a0316600160a060020a0316815260200194505050505060405180910390a25b604080518c8152602081018390528082018a90523360608201529051600160a060020a038e16917f93695f5e3157c7a48c3ea364f7eeb208c65b7cb4a92de4eed5621e667b08b71a919081900360800190a26002546040805160e160020a63141bb07d028152336004820152602481018b90529051600160a060020a039092169163283760fa916044808201926020929091908290030181600087803b1580156133c857600080fd5b505af11580156133dc573d6000803e3d6000fd5b505050506040513d60208110156133f257600080fd5b5050505050505050505050505050565b6006546000908190819060ff161561341957600080fd5b6001546040805160e060020a63840e78fd028152600160a060020a0389811660048301529151919092169163840e78fd9160248083019260209291908290030181600087803b15801561346b57600080fd5b505af115801561347f573d6000803e3d6000fd5b505050506040513d602081101561349557600080fd5b505115156001146134a557600080fd5b85925082600160a060020a0316638d977672866040518263ffffffff1660e060020a02815260040180828152602001915050602060405180830381600087803b1580156134f157600080fd5b505af1158015613505573d6000803e3d6000fd5b505050506040513d602081101561351b57600080fd5b5051604080517f76e567630000000000000000000000000000000000000000000000000000000081529051919350600160a060020a038416916376e56763916004808201926020929091908290030181600087803b15801561357c57600080fd5b505af1158015613590573d6000803e3d6000fd5b505050506040513d60208110156135a657600080fd5b50516002546040805160e060020a6370a0823102815233600482015290519293508392600160a060020a03909216916370a08231916024808201926020929091908290030181600087803b1580156135fd57600080fd5b505af1158015613611573d6000803e3d6000fd5b505050506040513d602081101561362757600080fd5b5051101561363457600080fd5b6002546040805160e060020a639e88fd81028152336004820152602481018490529051600160a060020a0390921691639e88fd81916044808201926020929091908290030181600087803b15801561368b57600080fd5b505af115801561369f573d6000803e3d6000fd5b505050506040513d60208110156136b557600080fd5b5050604080517f1e00d38c000000000000000000000000000000000000000000000000000000008152600160a060020a0388166004820152336024820152604481018790528515156064820152905173__ProjectLibrary________________________91631e00d38c916084808301926000929190829003018186803b15801561373f57600080fd5b505af4158015613753573d6000803e3d6000fd5b50506040805184815287151560208201528082018990523360608201529051600160a060020a038a1693507ffcf6e0d779a85721c9473df9f29a18721c43158bf6a1a0dad03051657d3835ec92509081900360800190a2505050505050565b60065460ff16156137c257600080fd5b6001546040805160e060020a63840e78fd028152600160a060020a0387811660048301529151919092169163840e78fd9160248083019260209291908290030181600087803b15801561381457600080fd5b505af1158015613828573d6000803e3d6000fd5b505050506040513d602081101561383e57600080fd5b5051151560011461384e57600080fd5b600354604080517f8d977672000000000000000000000000000000000000000000000000000000008152600481018690529051600160a060020a039283169263bfd9957192339291891691638d977672916024808201926020929091908290030181600087803b1580156138c157600080fd5b505af11580156138d5573d6000803e3d6000fd5b505050506040513d60208110156138eb57600080fd5b5051604080517f6f13ab000000000000000000000000000000000000000000000000000000000081529051600160a060020a0390921691636f13ab00916004808201926020929091908290030181600087803b15801561394a57600080fd5b505af115801561395e573d6000803e3d6000fd5b505050506040513d602081101561397457600080fd5b50516040805160e060020a63ffffffff8616028152600160a060020a0390931660048401526024830191909152604482018690526064820185905251608480830192600092919082900301818387803b1580156139d057600080fd5b505af11580156139e4573d6000803e3d6000fd5b505060408051868152602081018690528082018590523360608201529051600160a060020a03881693507fcd3cc68af7e16451e0a3813cbed811e5b4fbf81d420f05de34eb66a57e45802e92509081900360800190a250505050565b60065460009060ff1615613a5357600080fd5b6001546040805160e060020a63840e78fd028152600160a060020a0386811660048301529151919092169163840e78fd9160248083019260209291908290030181600087803b158015613aa557600080fd5b505af1158015613ab9573d6000803e3d6000fd5b505050506040513d6020811015613acf57600080fd5b50511515600114613adf57600080fd5b600154604080517f247f8e14000000000000000000000000000000000000000000000000000000008152600160a060020a0386811660048301529151919092169163247f8e149160248083019260209291908290030181600087803b158015613b4757600080fd5b505af1158015613b5b573d6000803e3d6000fd5b505050506040513d6020811015613b7157600080fd5b5050600254604080517f181f8d2400000000000000000000000000000000000000000000000000000000815233600482015260248101859052600160a060020a03928316604482015290519185169163181f8d24916064808201926020929091908290030181600087803b158015613be857600080fd5b505af1158015613bfc573d6000803e3d6000fd5b505050506040513d6020811015613c1257600080fd5b5051600254604080517fe99364ed000000000000000000000000000000000000000000000000000000008152600481018490529051929350600160a060020a039091169163e99364ed9160248082019260009290919082900301818387803b158015613c7d57600080fd5b505af1158015613c91573d6000803e3d6000fd5b50506002546040805160e160020a63141bb07d028152336004820152602481018790529051600160a060020a03909216935063283760fa92506044808201926020929091908290030181600087803b158015613cec57600080fd5b505af1158015613d00573d6000803e3d6000fd5b505050506040513d6020811015613d1657600080fd5b5050604080518381526020810183905233818301529051600160a060020a038516917f62d1d6ab164da3479211e8a3d70cd851b256bafcd0944d19e63f4cc7a844dcc1919081900360600190a2505050565b600054600160a060020a03163314613d7f57600080fd5b613d8881613e68565b50565b600054600160a060020a03163314613da257600080fd5b6001805473ffffffffffffffffffffffffffffffffffffffff1916600160a060020a0392909216919091179055565b600054600160a060020a03163314613de857600080fd5b6006805460ff19169055565b6000613e06828063ffffffff613e0c16565b92915050565b600080831515613e1f5760009150613e3b565b50828202828482811515613e2f57fe5b0414613e3757fe5b8091505b5092915050565b6000808284811515613e5057fe5b04949350505050565b600082820183811015613e3757fe5b600160a060020a0381161515613e7d57600080fd5b60008054604051600160a060020a03808516939216917f8be0079c531659141344cd1fd0a4f28419497f9722a3daafe3b4186f6b6457e091a36000805473ffffffffffffffffffffffffffffffffffffffff1916600160a060020a0392909216919091179055565b604080518082018252906002908290803883395091929150505600a165627a7a72305820aeb496bb93de23a09d211130489379adde219f6e24c216ff457fe9c17091ba320029",
  "source": "pragma solidity ^0.4.21;\n\nimport \"./ProjectRegistry.sol\";\nimport \"./DistributeToken.sol\";\nimport \"./Project.sol\";\nimport \"./ProjectLibrary.sol\";\nimport \"./Task.sol\";\nimport \"./library/PLCRVoting.sol\";\nimport \"./library/Division.sol\";\nimport \"./library/SafeMath.sol\";\nimport \"./library/Ownable.sol\";\n\n/**\n@title This contract serves as the interface through which users propose projects, stake tokens,\ncome to consensus around tasks, validate projects, vote on projects, refund their stakes, and\nclaim their rewards.\n@author Team: Jessica Marshall, Ashoka Finley\n@notice This contract implements how users perform actions using capital tokens in the various stages of a project.\n*/\ncontract TokenRegistry is Ownable {\n\n    using ProjectLibrary for address;\n    using SafeMath for uint256;\n\n    // =====================================================================\n    // EVENTS\n    // =====================================================================\n\n    event LogProjectCreated(address projectAddress, uint256 weiCost, uint256 tokenCost);\n    event LogStakedTokens(address indexed projectAddress, uint256 tokens, uint256 weiChange, address staker, bool staked);\n    event LogUnstakedTokens(address indexed projectAddress, uint256 tokens, uint256 weiChange, address unstaker);\n    event LogValidateTask(address indexed projectAddress, uint256 validationFee, bool validationState, uint256 taskIndex, address validator);\n    event LogRewardValidator(address indexed projectAddress, uint256 index, uint256 weiReward, uint256 returnAmount, address validator);\n    event LogTokenVoteCommitted(address indexed projectAddress, uint256 index, uint256 tokens, bytes32 secretHash, uint256 pollId, address voter);\n    event LogTokenVoteRevealed(address indexed projectAddress, uint256 index, uint256 voteOption, uint256 salt, address voter);\n    event LogTokenVoteRescued(address indexed projectAddress, uint256 index, uint256 pollId, address voter);\n\n    // =====================================================================\n    // STATE VARIABLES\n    // =====================================================================\n\n    ProjectRegistry projectRegistry;\n    DistributeToken distributeToken;\n    PLCRVoting plcrVoting;\n\n    uint256 proposeProportion = 200000000000;  // tokensupply/proposeProportion is the number of tokens the proposer must stake\n    uint256 rewardProportion = 100;\n\n    bool freeze;\n\n    // =====================================================================\n    // MODIFIERS\n    // =====================================================================\n\n    modifier onlyPR() {\n        require(msg.sender == address(projectRegistry));\n        _;\n    }\n\n    // =====================================================================\n    // CONSTRUCTOR\n    // =====================================================================\n\n    /**\n    @dev Quasi constructor is called after contract is deployed, must be called with distributeToken,\n    projectRegistry, and plcrVoting intialized to 0\n    @param _distributeToken Address of DistributeToken contract\n    @param _projectRegistry Address of ProjectRegistry contract\n    @param _plcrVoting Address of PLCRVoting contract\n    */\n    function init(address _distributeToken, address _projectRegistry, address _plcrVoting) public { //contract is created\n        require(\n            address(distributeToken) == 0 &&\n            address(projectRegistry) == 0 &&\n            address(plcrVoting) == 0\n        );\n\n        distributeToken = DistributeToken(_distributeToken);\n        projectRegistry = ProjectRegistry(_projectRegistry);\n        plcrVoting = PLCRVoting(_plcrVoting);\n    }\n\n    // =====================================================================\n    // OWNABLE\n    // =====================================================================\n\n    /**\n     * @dev Freezes the contract and allows existing token holders to withdraw tokens\n     */\n    function freezeContract() external onlyOwner {\n      freeze = true;\n    }\n\n    /**\n     * @dev Unfreezes the contract and allows existing token holders to withdraw tokens\n     */\n    function unfreezeContract() external onlyOwner {\n      freeze = false;\n    }\n\n    /**\n     * @dev Instantiate a new instance of plcrVoting contract\n     * @param _newPlcrVoting Address of the new plcr contract\n     */\n    function updatePLCRVoting(address _newPlcrVoting) external onlyOwner {\n      plcrVoting = PLCRVoting(_newPlcrVoting);\n    }\n\n    /**\n     * @dev Update the address of the distributeToken\n     * @param _newDistributeToken Address of the new distribute token\n     */\n    function updateDistributeToken(address _newDistributeToken) external onlyOwner {\n      distributeToken = DistributeToken(_newDistributeToken);\n    }\n\n    /**\n     * @dev Update the address of the base product proxy contract\n     * @param _newProjectRegistry Address of the new project contract\n     */\n    function updateProjectRegistry(address _newProjectRegistry) external onlyOwner {\n      projectRegistry = ProjectRegistry(_newProjectRegistry);\n    }\n\n    function squaredAmount(uint _amount) internal pure returns (uint) {\n      return _amount.mul(_amount);\n    }\n\n\n    // =====================================================================\n    // FALLBACK\n    // =====================================================================\n\n    function() public payable {}\n\n    // =====================================================================\n    // PROPOSE\n    // =====================================================================\n\n    /**\n    @notice Propose a project of cost `_cost` with staking period `_stakingPeriod` and hash `_ipfsHash`,\n    with tokens.\n    @dev Calls ProjectRegistry.createProject to finalize transaction and emits ProjectCreated event\n    @param _cost Total project cost in wei\n    @param _stakingPeriod Length of time the project can be staked on before it expires\n    @param _ipfsHash Hash of the project description\n    */\n    function proposeProject(uint256 _cost, uint256 _stakingPeriod, bytes _ipfsHash) external {\n        require(!freeze);\n        require(block.timestamp < _stakingPeriod && _cost > 0);\n        uint256 costProportion = Division.percent(_cost, distributeToken.weiBal(), 10);\n        uint256 proposerTokenCost = (\n            Division.percent(costProportion, proposeProportion, 10).mul(\n            distributeToken.totalSupply())).div(\n            10000000000);\n            //divide by 20 to get 5 percent of tokens\n        require(distributeToken.balanceOf(msg.sender) >= proposerTokenCost);\n\n        distributeToken.transferToEscrow(msg.sender, proposerTokenCost);\n        address projectAddress = projectRegistry.createProject(\n            _cost,\n            costProportion,\n            _stakingPeriod,\n            msg.sender,\n            1,\n            proposerTokenCost,\n            _ipfsHash\n        );\n        emit LogProjectCreated(projectAddress, _cost, proposerTokenCost);\n    }\n\n    /**\n    @notice Refund a token proposer upon proposal success, transfer 5% of the project cost in\n    wei as a reward along with any tokens staked on the project.\n    @dev token proposer types are denoted by '1' and reputation proposers by '2'\n    @param _projectAddress Address of the project\n    */\n    function refundProposer(address _projectAddress) external {                                 //called by proposer to get refund once project is active\n        require(!freeze);\n        Project project = Project(_projectAddress);                            //called by proposer to get refund once project is active\n        require(project.proposer() == msg.sender);\n        require(project.proposerType() == 1);\n\n        uint256[2] memory proposerVals = projectRegistry.refundProposer(_projectAddress, msg.sender);        //call project to \"send back\" staked tokens to put in proposer's balances\n        distributeToken.transferFromEscrow(msg.sender, proposerVals[1]);\n        distributeToken.transferWeiTo(msg.sender, proposerVals[0] / (20));\n    }\n\n    /**\n    @notice Rewards the originator of a project plan in tokens.\n    @param _projectAddress Address of the project\n    */\n    function rewardOriginator(address _projectAddress) external {\n      require(!freeze);\n      Project project = Project(_projectAddress);\n      require(project.state() == 6);\n      projectRegistry.rewardOriginator(_projectAddress, msg.sender);\n      project.transferWeiReward(msg.sender, project.originatorReward());\n    }\n\n    // =====================================================================\n    // STAKE\n    // =====================================================================\n\n    /**\n    @notice Stake `_tokens` tokens on project at `_projectAddress`\n    @dev Prevents over staking and returns any excess tokens staked.\n    @param _projectAddress Address of the project\n    @param _tokens Amount of tokens to stake\n    */\n    function stakeTokens(address _projectAddress, uint256 _tokens) external {\n        require(!freeze);\n        require(projectRegistry.projects(_projectAddress) == true);\n        require(distributeToken.balanceOf(msg.sender) >= _tokens);\n        Project project = Project(_projectAddress);\n        // handles edge case where someone attempts to stake past the staking deadline\n        projectRegistry.checkStaked(_projectAddress);\n        require(project.state() == 1);\n\n        // calculate amount of wei the project still needs\n        uint256 weiRemaining = project.weiCost() - project.weiBal();\n        require(weiRemaining > 0);\n\n        uint256 currentPrice = distributeToken.currentPrice();\n        uint256 weiVal =  currentPrice * _tokens;\n        bool flag = weiVal > weiRemaining;\n        uint256 weiChange = flag\n            ? weiRemaining\n            : weiVal;       //how much ether to send on change\n        uint256 tokens = flag\n            ? ((weiRemaining/currentPrice) + 1)     // round up to prevent loophole where user can stake without losing tokens\n            : _tokens;\n        // updating of P weiBal happens via the next line\n        project.stakeTokens(msg.sender, tokens, weiChange);\n        // the transfer of wei and the updating of DT weiBal happens via the next line\n        distributeToken.transferWeiTo(_projectAddress, weiChange);\n        distributeToken.transferToEscrow(msg.sender, tokens);\n        bool staked = projectRegistry.checkStaked(_projectAddress);\n        emit LogStakedTokens(_projectAddress, tokens, weiChange, msg.sender, staked);\n    }\n\n    /**\n    @notice Unstake `_tokens` tokens from project at `_projectAddress`\n    @dev Require tokens unstaked is greater than 0\n    @param _projectAddress Address of the project\n    @param _tokens Amount of reputation to unstake\n    */\n    function unstakeTokens(address _projectAddress, uint256 _tokens) external {\n        require(!freeze);\n        require(projectRegistry.projects(_projectAddress) == true);\n        // handles edge case where someone attempts to unstake past the staking deadline\n        projectRegistry.checkStaked(_projectAddress);\n\n        uint256 weiVal = Project(_projectAddress).unstakeTokens(msg.sender, _tokens, address(distributeToken));\n        // the actual wei is sent back to DT via Project.unstakeTokens()\n        // the weiBal is updated via the next line\n        distributeToken.returnWei(weiVal);\n        distributeToken.transferFromEscrow(msg.sender, _tokens);\n        emit LogUnstakedTokens(_projectAddress, _tokens, weiVal, msg.sender);\n    }\n\n    /**\n    @notice Calculates the relative weight of an `_address`.\n    Weighting is calculated by the proportional amount of tokens a user possess in relation to the total supply.\n    @param _address Address of the staker\n    @return The relative weight of a staker as a whole integer\n    */\n    function calculateWeightOfAddress(\n        address _address\n    ) public view returns (uint256) {\n        return Division.percent(distributeToken.balanceOf(_address), distributeToken.totalSupply(), 15);\n    }\n\n    // =====================================================================\n    // VALIDATION\n    // =====================================================================\n\n    /**\n    @notice Validate a task at index `_index` from project at `_projectAddress` with `_tokens`\n    tokens for validation state `_validationState`\n    @dev Requires the token balance of msg.sender to be greater than the reputationVal of the task\n    @param _projectAddress Address of the project\n    @param _taskIndex Index of the task\n    @param _validationState Approve or Deny task\n    */\n    function validateTask(\n        address _projectAddress,\n        uint256 _taskIndex,\n        bool _validationState\n    ) external {\n        require(!freeze);\n        require(projectRegistry.projects(_projectAddress) == true);\n        Project project = Project(_projectAddress);\n        Task task = Task(project.tasks(_taskIndex));\n        uint256 validationFee = task.validationEntryFee();\n        require(distributeToken.balanceOf(msg.sender) >= validationFee);\n        distributeToken.transferToEscrow(msg.sender, validationFee);\n        _projectAddress.validate(msg.sender, _taskIndex, _validationState);\n        emit LogValidateTask(_projectAddress, validationFee, _validationState, _taskIndex, msg.sender);\n    }\n\n    /**\n    @notice Reward the validator of a task if they have been determined to have validated correctly.\n    @param _projectAddress Address of the project\n    @param _index Index of the task\n    */\n    function rewardValidator(address _projectAddress, uint256 _index) external {\n        require(!freeze);\n        require(projectRegistry.projects(_projectAddress) == true);\n        Project project = Project(_projectAddress);\n        Task task = Task(project.tasks(_index));\n        require(task.claimable());\n        uint returnAmount;\n        uint index = task.getValidatorIndex(msg.sender);\n        require(index < 5);\n        task.setValidatorIndex(msg.sender);\n        uint rewardWeighting = projectRegistry.validationRewardWeightings(index);\n        uint statusNeed = task.claimableByRep() ? 1 : 0;\n\n        if (statusNeed == task.getValidatorStatus(msg.sender)) {\n            returnAmount += task.validationEntryFee();\n            uint validationIndex;\n            if (task.getValidatorStatus(msg.sender) == 1) {\n              require(task.affirmativeValidators(index) == msg.sender);\n              validationIndex = task.affirmativeIndex();\n            } else {\n              require(task.negativeValidators(index) == msg.sender);\n              validationIndex = task.negativeIndex();\n            }\n            if (validationIndex < 5) {\n                uint addtlWeighting;\n                for(uint i = validationIndex ; i < 5; i++) {\n                    addtlWeighting = addtlWeighting.add(projectRegistry.validationRewardWeightings(i));\n                }\n                rewardWeighting = rewardWeighting.add(addtlWeighting.div(validationIndex));\n            }\n            uint256 weiReward = project.validationReward().mul(task.weighting()).mul(rewardWeighting).div(10000);\n            project.transferWeiReward(msg.sender, weiReward);\n            emit LogRewardValidator(_projectAddress, _index, weiReward, returnAmount, msg.sender);\n        } else {\n            weiReward = 0;\n            statusNeed == 1\n                ? require(task.negativeValidators(index) == msg.sender)\n                : require(task.affirmativeValidators(index) == msg.sender);\n            returnAmount += task.validationEntryFee() / 2;\n            distributeToken.burn(task.validationEntryFee() - returnAmount);\n            emit LogRewardValidator(_projectAddress, _index, 0, returnAmount, msg.sender);\n        }\n        emit LogRewardValidator(_projectAddress, _index, weiReward, returnAmount, msg.sender);\n        distributeToken.transferFromEscrow(msg.sender, returnAmount);\n    }\n\n    // =====================================================================\n    // VOTING\n    // =====================================================================\n\n    /**\n    @notice First part of voting process. Commits a vote using tokens to task at index `_index`\n    of project at `projectAddress` for tokens `_tokens`. Submits a secrect hash `_secretHash`,\n    which is a tightly packed hash of the voters choice and their salt\n    @param _projectAddress Address of the project\n    @param _index Index of the task\n    @param _votes Tokens to vote with\n    @param _secretHash Secret Hash of voter choice and salt\n    @param _prevPollID The nonce of the previous poll. This is stored off chain\n    */\n    function voteCommit(\n        address _projectAddress,\n        uint256 _index,\n        uint256 _votes,\n        bytes32 _secretHash,\n        uint256 _prevPollID\n    ) external {     // _secretHash Commit keccak256 hash of voter's choice and salt (tightly packed in this order), done off-chain\n        require(!freeze);\n        require(projectRegistry.projects(_projectAddress) == true);\n        uint256 pollId = Task(Project(_projectAddress).tasks(_index)).pollId();\n        // calculate available tokens for voting\n        uint256 availableVotes = plcrVoting.getAvailableTokens(msg.sender, 1);\n        // make sure msg.sender has tokens available in PLCR contract\n        // if not, request voting rights for token holder\n        if (availableVotes < _votes) {\n            uint votesCost = squaredAmount(_votes) - squaredAmount(availableVotes);\n            require(distributeToken.balanceOf(msg.sender) >= votesCost);\n            distributeToken.transferToEscrow(msg.sender, votesCost);\n            plcrVoting.requestVotingRights(msg.sender, _votes - availableVotes);\n        }\n        plcrVoting.commitVote(msg.sender, pollId, _secretHash, _votes, _prevPollID);\n        emit LogTokenVoteCommitted(_projectAddress, _index, _votes, _secretHash, pollId, msg.sender);\n    }\n\n    /**\n    @notice Second part of voting process. Reveal existing vote.\n    @param _projectAddress Address of the project\n    @param _index Index of the task\n    @param _voteOption Vote choice of account\n    @param _salt Salt of account\n    */\n    function voteReveal(\n        address _projectAddress,\n        uint256 _index,\n        uint256 _voteOption,\n        uint256 _salt\n    ) external {\n        require(!freeze);\n        require(projectRegistry.projects(_projectAddress) == true);\n        plcrVoting.revealVote(msg.sender, Task(Project(_projectAddress).tasks(_index)).pollId(), _voteOption, _salt);\n        emit LogTokenVoteRevealed(_projectAddress, _index, _voteOption, _salt, msg.sender);\n    }\n\n    /**\n    @notice Refunds staked tokens, thus also withdrawing voting rights from PLCR Contract\n    @param _votes Amount of tokens to withdraw\n    */\n    function refundVotingTokens(uint256 _votes) external {\n        require(!freeze);\n        uint userVotes = plcrVoting.getAvailableTokens(msg.sender, 1);\n        require(_votes <= userVotes);\n        uint votesPrice = squaredAmount(userVotes) - squaredAmount(userVotes - _votes);\n        plcrVoting.withdrawVotingRights(msg.sender, _votes);\n        distributeToken.transferFromEscrow(msg.sender, votesPrice);\n    }\n\n    // =====================================================================\n    // COMPLETE\n    // =====================================================================\n\n    /**\n    @notice Refund a token staker from project at `_projectAddress`\n    @param _projectAddress Address of the project\n    */\n    function refundStaker(address _projectAddress) external {\n        require(!freeze);\n        require(projectRegistry.projects(_projectAddress) == true);\n        uint256 refund = _projectAddress.refundStaker(msg.sender, address(this));\n        require(refund > 0);\n        Project(_projectAddress).clearTokenStake(msg.sender);\n        distributeToken.transferFromEscrow(msg.sender, refund);\n        if (Project(_projectAddress).state() == 6) {\n          distributeToken.transferTokensTo(msg.sender, refund / 20);\n        }\n    }\n\n    /**\n    @notice Rescue unrevealed token votes from expired polls of task at `_index` of project at\n    `_projectAddress`\n    @param _projectAddress Address of the project\n    @param _index Index of the task\n    */\n    function rescueTokens(address _projectAddress, uint _index) external {\n        require(!freeze);\n        require(projectRegistry.projects(_projectAddress) == true);\n        uint256 pollId = Task(Project(_projectAddress).tasks(_index)).pollId();\n        plcrVoting.rescueTokens(msg.sender, pollId);\n        emit LogTokenVoteRescued(_projectAddress, _index, pollId, msg.sender);\n    }\n\n    // =====================================================================\n    // FAILED\n    // =====================================================================\n\n    /**\n    @notice Return wei from project balance if task fails\n    @dev Only callable by the ProjectRegistry contract\n    @param _value Amount of wei to transfer to the distributeToken contract\n    */\n    function revertWei(uint256 _value) external onlyPR {\n        require(!freeze);\n        distributeToken.returnWei(_value);\n    }\n\n    /**\n    @notice Burn tokens in event of project failure\n    @dev Only callable by the ProjectRegistry contract\n    @param _tokens Amount of reputation to burn\n    */\n    function burnTokens(uint256 _tokens) external onlyPR {\n        require(!freeze);\n        distributeToken.burn(_tokens);\n    }\n\n}\n",
  "sourcePath": "/Users/jessicamarshall/distribute-dogfood/contracts/contracts/TokenRegistry.sol",
  "compiler": {
    "name": "solc",
    "version": "0.4.24+commit.e67f0147.Emscripten.clang"
  },
  "schemaVersion": "2.0.1",
  "updatedAt": "2018-12-03T21:54:15.726Z"
}