{
  "contractName": "AttributeStore",
  "abi": [
    {
      "constant": true,
      "inputs": [
        {
          "name": "self",
          "type": "AttributeStore.Data storage"
        },
        {
          "name": "_UUID",
          "type": "bytes32"
        },
        {
          "name": "_attrName",
          "type": "string"
        }
      ],
      "name": "getAttribute",
      "outputs": [
        {
          "name": "",
          "type": "uint256"
        }
      ],
      "payable": false,
      "stateMutability": "view",
      "type": "function"
    },
    {
      "constant": false,
      "inputs": [
        {
          "name": "self",
          "type": "AttributeStore.Data storage"
        },
        {
          "name": "_UUID",
          "type": "bytes32"
        },
        {
          "name": "_attrName",
          "type": "string"
        },
        {
          "name": "_attrVal",
          "type": "uint256"
        }
      ],
      "name": "attachAttribute",
      "outputs": [],
      "payable": false,
      "stateMutability": "nonpayable",
      "type": "function"
    }
  ],
  "bytecode": "0x6060604052341561000f57600080fd5b61022c8061001e6000396000f300606060405263ffffffff7c010000000000000000000000000000000000000000000000000000000060003504166350389f5c8114610047578063f8f42244146100aa57600080fd5b610098600480359060248035919060649060443590810190830135806020601f820181900481020160405190810160405281815292919060208401838380828437509496506100ff95505050505050565b60405190815260200160405180910390f35b6100fd600480359060248035919060649060443590810190830135806020601f82018190048102016040519081016040528181529291906020840183838082843750949650509335935061018092505050565b005b60008083836040518281526020810182805190602001908083835b602083106101395780518252601f19909201916020918201910161011a565b6001836020036101000a0380198251168184511617909252505050919091019350604092505050519081900390206000908152602095909552505060409092205492915050565b600083836040518281526020810182805190602001908083835b602083106101b95780518252601f19909201916020918201910161019a565b6001836020036101000a03801982511681845116179092525050509190910193506040925050505190819003902060009081526020959095525060409093209290925550505600a165627a7a723058200077dc8c5291798be624088a7649e2d232ebf691fb11656396be4e23344a15d40029",
  "source": "pragma solidity ^0.4.8;\r\n\r\nlibrary AttributeStore {\r\n    struct Data {\r\n        mapping(bytes32 => uint) store;\r\n    }\r\n\r\n    function getAttribute(Data storage self, bytes32 _UUID, string _attrName) public view returns (uint) {\r\n        bytes32 key = keccak256(_UUID, _attrName);\r\n        return self.store[key];\r\n    }\r\n\r\n    function attachAttribute(Data storage self, bytes32 _UUID, string _attrName, uint _attrVal) public {\r\n        bytes32 key = keccak256(_UUID, _attrName);\r\n        self.store[key] = _attrVal;\r\n    }\r\n}\r\n",
  "sourcePath": "/Users/jessicamarshall/Desktop/Distribute/contracts/AttributeStore.sol",
  "schemaVersion": "1.0.0",
  "updatedAt": "2017-10-16T17:13:31.727Z"
}