{
  "contractName": "ERC20",
  "abi": [
    {
      "constant": false,
      "inputs": [
        {
          "name": "_spender",
          "type": "address"
        },
        {
          "name": "_value",
          "type": "uint256"
        }
      ],
      "name": "approve",
      "outputs": [
        {
          "name": "success",
          "type": "bool"
        }
      ],
      "payable": false,
      "type": "function"
    },
    {
      "constant": true,
      "inputs": [],
      "name": "totalSupply",
      "outputs": [
        {
          "name": "",
          "type": "uint256"
        }
      ],
      "payable": false,
      "type": "function"
    },
    {
      "constant": false,
      "inputs": [
        {
          "name": "_from",
          "type": "address"
        },
        {
          "name": "_to",
          "type": "address"
        },
        {
          "name": "_value",
          "type": "uint256"
        }
      ],
      "name": "transferFrom",
      "outputs": [
        {
          "name": "success",
          "type": "bool"
        }
      ],
      "payable": false,
      "type": "function"
    },
    {
      "constant": true,
      "inputs": [
        {
          "name": "",
          "type": "address"
        }
      ],
      "name": "balances",
      "outputs": [
        {
          "name": "",
          "type": "uint256"
        }
      ],
      "payable": false,
      "type": "function"
    },
    {
      "constant": true,
      "inputs": [
        {
          "name": "_owner",
          "type": "address"
        }
      ],
      "name": "balanceOf",
      "outputs": [
        {
          "name": "balance",
          "type": "uint256"
        }
      ],
      "payable": false,
      "type": "function"
    },
    {
      "constant": false,
      "inputs": [
        {
          "name": "_to",
          "type": "address"
        },
        {
          "name": "_value",
          "type": "uint256"
        }
      ],
      "name": "transfer",
      "outputs": [
        {
          "name": "success",
          "type": "bool"
        }
      ],
      "payable": false,
      "type": "function"
    },
    {
      "constant": true,
      "inputs": [
        {
          "name": "_owner",
          "type": "address"
        },
        {
          "name": "_spender",
          "type": "address"
        }
      ],
      "name": "allowance",
      "outputs": [
        {
          "name": "remaining",
          "type": "uint256"
        }
      ],
      "payable": false,
      "type": "function"
    },
    {
      "anonymous": false,
      "inputs": [
        {
          "indexed": true,
          "name": "_owner",
          "type": "address"
        },
        {
          "indexed": true,
          "name": "_spender",
          "type": "address"
        },
        {
          "indexed": false,
          "name": "_value",
          "type": "uint256"
        }
      ],
      "name": "Approval",
      "type": "event"
    },
    {
      "anonymous": false,
      "inputs": [
        {
          "indexed": true,
          "name": "_from",
          "type": "address"
        },
        {
          "indexed": true,
          "name": "_to",
          "type": "address"
        },
        {
          "indexed": false,
          "name": "_value",
          "type": "uint256"
        }
      ],
      "name": "Transfer",
      "type": "event"
    }
  ],
  "bytecode": "0x6060604052341561000f57600080fd5b5b6104718061001f6000396000f300606060405236156100805763ffffffff7c0100000000000000000000000000000000000000000000000000000000600035041663095ea7b3811461008557806318160ddd146100bb57806323b872dd146100e057806327e235e31461011c57806370a082311461014d578063a9059cbb1461017e578063dd62ed3e146101b4575b600080fd5b341561009057600080fd5b6100a7600160a060020a03600435166024356101eb565b604051901515815260200160405180910390f35b34156100c657600080fd5b6100ce610258565b60405190815260200160405180910390f35b34156100eb57600080fd5b6100a7600160a060020a036004358116906024351660443561025e565b604051901515815260200160405180910390f35b341561012757600080fd5b6100ce600160a060020a036004351661034b565b60405190815260200160405180910390f35b341561015857600080fd5b6100ce600160a060020a036004351661035d565b60405190815260200160405180910390f35b341561018957600080fd5b6100a7600160a060020a036004351660243561037c565b604051901515815260200160405180910390f35b34156101bf57600080fd5b6100ce600160a060020a0360043581169060243516610418565b60405190815260200160405180910390f35b600160a060020a03338116600081815260026020908152604080832094871680845294909152808220859055909291907f8c5be1e5ebec7d5bd14f71427d1e84f3dd0314c0f7b2291e5b200ac8c7c3b9259085905190815260200160405180910390a35060015b92915050565b60005481565b600160a060020a0383166000908152600160205260408120548290108015906102ae5750600160a060020a0380851660009081526002602090815260408083203390941683529290522054829010155b1561033f57600160a060020a03808416600081815260016020908152604080832080548801905588851680845281842080548990039055600283528184203390961684529490915290819020805486900390559091907fddf252ad1be2c89b69c2b068fc378daa952ba7f163c4a11628f55a4df523b3ef9085905190815260200160405180910390a3506001610343565b5060005b5b9392505050565b60016020526000908152604090205481565b600160a060020a0381166000908152600160205260409020545b919050565b600160a060020a03331660009081526001602052604081205482901061040957600160a060020a033381166000818152600160205260408082208054879003905592861680825290839020805486019055917fddf252ad1be2c89b69c2b068fc378daa952ba7f163c4a11628f55a4df523b3ef9085905190815260200160405180910390a3506001610252565b506000610252565b5b92915050565b600160a060020a038083166000908152600260209081526040808320938516835292905220545b929150505600a165627a7a72305820517d4a49b202fa7586a14001c81ddf0f6793af38138c0f824a3ed06d7f232efc0029",
  "source": "pragma solidity ^0.4.10;\n\n/*\n  code taken from Simon de la Rouviere's curation markets repository\n*/\n\ncontract ERC20 {\n    uint256 public totalSupply;\n    mapping(address => uint256) public balances;    //holds free token balances of users\n    mapping (address => mapping (address => uint256)) allowed;\n\n    function transfer(address _to, uint256 _value) returns (bool success) {\n        if (balances[msg.sender] >= _value) {\n            balances[msg.sender] -= _value;\n            balances[_to] += _value;\n            Transfer(msg.sender, _to, _value);\n            return true;\n        } else { return false; }\n    }\n\n    function transferFrom(address _from, address _to, uint256 _value) returns (bool success) {\n        if (balances[_from] >= _value && allowed[_from][msg.sender] >= _value) {\n            balances[_to] += _value;\n            balances[_from] -= _value;\n            allowed[_from][msg.sender] -= _value;\n            Transfer(_from, _to, _value);\n            return true;\n        } else { return false; }\n    }\n\n    function approve(address _spender, uint256 _value) returns (bool success) {\n        allowed[msg.sender][_spender] = _value;\n        Approval(msg.sender, _spender, _value);\n        return true;\n    }\n\n    //function approveAndCall()\n\n    function allowance(address _owner, address _spender) constant returns (uint256 remaining) {\n      return allowed[_owner][_spender];\n    }\n\n    function balanceOf(address _owner) constant returns (uint256 balance) {\n        return balances[_owner];\n    }\n\n    event Approval(address indexed _owner, address indexed _spender, uint256 _value);\n    event Transfer(address indexed _from, address indexed _to, uint256 _value);\n}\n",
  "sourcePath": "/Users/jessicamarshall/Desktop/Distribute/contracts/ERC20.sol",
  "schemaVersion": "1.0.0",
  "updatedAt": "2017-10-08T21:03:20.436Z"
}