{
  "contractName": "PLCRVoting",
  "abi": [
    {
      "constant": true,
      "inputs": [
        {
          "name": "_pollID",
          "type": "uint256"
        }
      ],
      "name": "getTotalNumberOfTokensForWinningOption",
      "outputs": [
        {
          "name": "numTokens",
          "type": "uint256"
        }
      ],
      "payable": false,
      "stateMutability": "view",
      "type": "function"
    },
    {
      "constant": false,
      "inputs": [
        {
          "name": "_voteQuorum",
          "type": "uint256"
        },
        {
          "name": "_commitDuration",
          "type": "uint256"
        },
        {
          "name": "_revealDuration",
          "type": "uint256"
        }
      ],
      "name": "startPoll",
      "outputs": [
        {
          "name": "pollID",
          "type": "uint256"
        }
      ],
      "payable": false,
      "stateMutability": "nonpayable",
      "type": "function"
    },
    {
      "constant": true,
      "inputs": [
        {
          "name": "_voter",
          "type": "address"
        }
      ],
      "name": "getLastNode",
      "outputs": [
        {
          "name": "pollID",
          "type": "uint256"
        }
      ],
      "payable": false,
      "stateMutability": "view",
      "type": "function"
    },
    {
      "constant": true,
      "inputs": [
        {
          "name": "_pollID",
          "type": "uint256"
        }
      ],
      "name": "revealPeriodActive",
      "outputs": [
        {
          "name": "active",
          "type": "bool"
        }
      ],
      "payable": false,
      "stateMutability": "view",
      "type": "function"
    },
    {
      "constant": true,
      "inputs": [
        {
          "name": "_pollID",
          "type": "uint256"
        }
      ],
      "name": "isPassed",
      "outputs": [
        {
          "name": "passed",
          "type": "bool"
        }
      ],
      "payable": false,
      "stateMutability": "view",
      "type": "function"
    },
    {
      "constant": false,
      "inputs": [
        {
          "name": "_staker",
          "type": "address"
        },
        {
          "name": "_pollID",
          "type": "uint256"
        }
      ],
      "name": "rescueTokens",
      "outputs": [],
      "payable": false,
      "stateMutability": "nonpayable",
      "type": "function"
    },
    {
      "constant": false,
      "inputs": [
        {
          "name": "_staker",
          "type": "address"
        },
        {
          "name": "_pollID",
          "type": "uint256"
        },
        {
          "name": "_secretHash",
          "type": "bytes32"
        },
        {
          "name": "_numTokens",
          "type": "uint256"
        },
        {
          "name": "_prevPollID",
          "type": "uint256"
        }
      ],
      "name": "commitVote",
      "outputs": [],
      "payable": false,
      "stateMutability": "nonpayable",
      "type": "function"
    },
    {
      "constant": true,
      "inputs": [
        {
          "name": "",
          "type": "uint256"
        }
      ],
      "name": "pollMap",
      "outputs": [
        {
          "name": "commitEndDate",
          "type": "uint256"
        },
        {
          "name": "revealEndDate",
          "type": "uint256"
        },
        {
          "name": "voteQuorum",
          "type": "uint256"
        },
        {
          "name": "votesFor",
          "type": "uint256"
        },
        {
          "name": "votesAgainst",
          "type": "uint256"
        }
      ],
      "payable": false,
      "stateMutability": "view",
      "type": "function"
    },
    {
      "constant": true,
      "inputs": [
        {
          "name": "_voter",
          "type": "address"
        }
      ],
      "name": "getLockedTokens",
      "outputs": [
        {
          "name": "numTokens",
          "type": "uint256"
        }
      ],
      "payable": false,
      "stateMutability": "view",
      "type": "function"
    },
    {
      "constant": true,
      "inputs": [
        {
          "name": "_voter",
          "type": "address"
        },
        {
          "name": "_pollID",
          "type": "uint256"
        }
      ],
      "name": "hasBeenRevealed",
      "outputs": [
        {
          "name": "revealed",
          "type": "bool"
        }
      ],
      "payable": false,
      "stateMutability": "view",
      "type": "function"
    },
    {
      "constant": true,
      "inputs": [
        {
          "name": "_prevID",
          "type": "uint256"
        },
        {
          "name": "_nextID",
          "type": "uint256"
        },
        {
          "name": "_voter",
          "type": "address"
        },
        {
          "name": "_numTokens",
          "type": "uint256"
        }
      ],
      "name": "validPosition",
      "outputs": [
        {
          "name": "valid",
          "type": "bool"
        }
      ],
      "payable": false,
      "stateMutability": "view",
      "type": "function"
    },
    {
      "constant": true,
      "inputs": [
        {
          "name": "",
          "type": "address"
        }
      ],
      "name": "voteTokenBalanceW",
      "outputs": [
        {
          "name": "",
          "type": "uint256"
        }
      ],
      "payable": false,
      "stateMutability": "view",
      "type": "function"
    },
    {
      "constant": true,
      "inputs": [
        {
          "name": "_pollID",
          "type": "uint256"
        }
      ],
      "name": "pollExists",
      "outputs": [
        {
          "name": "exists",
          "type": "bool"
        }
      ],
      "payable": false,
      "stateMutability": "view",
      "type": "function"
    },
    {
      "constant": true,
      "inputs": [
        {
          "name": "_user",
          "type": "address"
        },
        {
          "name": "_pollID",
          "type": "uint256"
        }
      ],
      "name": "attrUUID",
      "outputs": [
        {
          "name": "UUID",
          "type": "bytes32"
        }
      ],
      "payable": false,
      "stateMutability": "pure",
      "type": "function"
    },
    {
      "constant": true,
      "inputs": [
        {
          "name": "_pollID",
          "type": "uint256"
        }
      ],
      "name": "commitPeriodActive",
      "outputs": [
        {
          "name": "active",
          "type": "bool"
        }
      ],
      "payable": false,
      "stateMutability": "view",
      "type": "function"
    },
    {
      "constant": false,
      "inputs": [
        {
          "name": "_pollID",
          "type": "uint256"
        },
        {
          "name": "_voteOption",
          "type": "uint256"
        },
        {
          "name": "_salt",
          "type": "uint256"
        }
      ],
      "name": "revealVote",
      "outputs": [],
      "payable": false,
      "stateMutability": "nonpayable",
      "type": "function"
    },
    {
      "constant": true,
      "inputs": [
        {
          "name": "_voter",
          "type": "address"
        },
        {
          "name": "_pollID",
          "type": "uint256"
        },
        {
          "name": "_salt",
          "type": "uint256"
        }
      ],
      "name": "getNumPassingTokens",
      "outputs": [
        {
          "name": "correctVotes",
          "type": "uint256"
        }
      ],
      "payable": false,
      "stateMutability": "view",
      "type": "function"
    },
    {
      "constant": false,
      "inputs": [
        {
          "name": "_staker",
          "type": "address"
        },
        {
          "name": "_numTokens",
          "type": "uint256"
        }
      ],
      "name": "requestVotingRights",
      "outputs": [],
      "payable": false,
      "stateMutability": "nonpayable",
      "type": "function"
    },
    {
      "constant": true,
      "inputs": [
        {
          "name": "_voter",
          "type": "address"
        },
        {
          "name": "_numTokens",
          "type": "uint256"
        }
      ],
      "name": "getInsertPointForNumTokens",
      "outputs": [
        {
          "name": "prevNode",
          "type": "uint256"
        }
      ],
      "payable": false,
      "stateMutability": "view",
      "type": "function"
    },
    {
      "constant": true,
      "inputs": [
        {
          "name": "_voter",
          "type": "address"
        },
        {
          "name": "_pollID",
          "type": "uint256"
        }
      ],
      "name": "getNumTokens",
      "outputs": [
        {
          "name": "numTokens",
          "type": "uint256"
        }
      ],
      "payable": false,
      "stateMutability": "view",
      "type": "function"
    },
    {
      "constant": true,
      "inputs": [
        {
          "name": "",
          "type": "address"
        }
      ],
      "name": "voteTokenBalanceTH",
      "outputs": [
        {
          "name": "",
          "type": "uint256"
        }
      ],
      "payable": false,
      "stateMutability": "view",
      "type": "function"
    },
    {
      "constant": true,
      "inputs": [
        {
          "name": "_voter",
          "type": "address"
        },
        {
          "name": "_pollID",
          "type": "uint256"
        }
      ],
      "name": "getCommitHash",
      "outputs": [
        {
          "name": "commitHash",
          "type": "bytes32"
        }
      ],
      "payable": false,
      "stateMutability": "view",
      "type": "function"
    },
    {
      "constant": true,
      "inputs": [
        {
          "name": "_terminationDate",
          "type": "uint256"
        }
      ],
      "name": "isExpired",
      "outputs": [
        {
          "name": "expired",
          "type": "bool"
        }
      ],
      "payable": false,
      "stateMutability": "view",
      "type": "function"
    },
    {
      "constant": true,
      "inputs": [
        {
          "name": "_pollID",
          "type": "uint256"
        }
      ],
      "name": "pollEnded",
      "outputs": [
        {
          "name": "ended",
          "type": "bool"
        }
      ],
      "payable": false,
      "stateMutability": "view",
      "type": "function"
    },
    {
      "constant": false,
      "inputs": [
        {
          "name": "_staker",
          "type": "address"
        },
        {
          "name": "_numTokens",
          "type": "uint256"
        }
      ],
      "name": "withdrawVotingRights",
      "outputs": [],
      "payable": false,
      "stateMutability": "nonpayable",
      "type": "function"
    },
    {
      "inputs": [
        {
          "name": "_tokenHolderRegistry",
          "type": "address"
        },
        {
          "name": "_workerRegistry",
          "type": "address"
        }
      ],
      "payable": false,
      "stateMutability": "nonpayable",
      "type": "constructor"
    },
    {
      "anonymous": false,
      "inputs": [
        {
          "indexed": false,
          "name": "voter",
          "type": "address"
        },
        {
          "indexed": false,
          "name": "pollID",
          "type": "uint256"
        },
        {
          "indexed": false,
          "name": "numTokens",
          "type": "uint256"
        }
      ],
      "name": "VoteCommitted",
      "type": "event"
    },
    {
      "anonymous": false,
      "inputs": [
        {
          "indexed": false,
          "name": "voter",
          "type": "address"
        },
        {
          "indexed": false,
          "name": "pollID",
          "type": "uint256"
        },
        {
          "indexed": false,
          "name": "numTokens",
          "type": "uint256"
        },
        {
          "indexed": false,
          "name": "choice",
          "type": "uint256"
        }
      ],
      "name": "VoteRevealed",
      "type": "event"
    },
    {
      "anonymous": false,
      "inputs": [
        {
          "indexed": false,
          "name": "voteQuorum",
          "type": "uint256"
        },
        {
          "indexed": false,
          "name": "commitDuration",
          "type": "uint256"
        },
        {
          "indexed": false,
          "name": "revealDuration",
          "type": "uint256"
        },
        {
          "indexed": false,
          "name": "pollID",
          "type": "uint256"
        }
      ],
      "name": "PollCreated",
      "type": "event"
    },
    {
      "anonymous": false,
      "inputs": [
        {
          "indexed": false,
          "name": "voter",
          "type": "address"
        },
        {
          "indexed": false,
          "name": "numTokens",
          "type": "uint256"
        }
      ],
      "name": "VotingRightsGranted",
      "type": "event"
    },
    {
      "anonymous": false,
      "inputs": [
        {
          "indexed": false,
          "name": "voter",
          "type": "address"
        },
        {
          "indexed": false,
          "name": "numTokens",
          "type": "uint256"
        }
      ],
      "name": "VotingRightsWithdrawn",
      "type": "event"
    }
  ],
  "bytecode": "0x6060604052341561000f57600080fd5b604051604080611823833981016040528080519190602001805160068054600160a060020a03958616600160a060020a0319918216179091556007805495909216941693909317909255505060006003556117b48061006f6000396000f3006060604052361561012d5763ffffffff60e060020a600035041663053e71a6811461013257806332ed3d601461015a578063427fa1d214610176578063441c77c01461019557806349403183146101bf57806357376198146101d55780635e28fd5e146101f95780636148fed5146102245780636b2d95d41461026c57806372d8e4421461028b578063819b0293146102ad57806387c6bb9c146102d557806388d21ff3146102f4578063a1103f371461030a578063a4439dc51461032c578063b11d8bb814610342578063b43bd0691461035e578063c5fa801b14610383578063c622afb0146103a5578063d1382092146103c7578063d65fa6eb146103e9578063d901402b14610408578063d9548e531461042a578063ee68483014610440578063ef348e4014610456575b600080fd5b341561013d57600080fd5b610148600435610478565b60405190815260200160405180910390f35b341561016557600080fd5b6101486004356024356044356104cd565b341561018157600080fd5b610148600160a060020a03600435166105be565b34156101a057600080fd5b6101ab600435610656565b604051901515815260200160405180910390f35b34156101ca57600080fd5b6101ab6004356106a0565b34156101e057600080fd5b6101f7600160a060020a036004351660243561077a565b005b341561020457600080fd5b6101f7600160a060020a036004351660243560443560643560843561085d565b341561022f57600080fd5b61023a600435610cf8565b604051808681526020018581526020018481526020018381526020018281526020019550505050505060405180910390f35b341561027757600080fd5b610148600160a060020a0360043516610d27565b341561029657600080fd5b6101ab600160a060020a0360043516602435610d3b565b34156102b857600080fd5b6101ab600435602435600160a060020a0360443516606435610e92565b34156102e057600080fd5b610148600160a060020a0360043516610ed3565b34156102ff57600080fd5b6101ab600435610ee5565b341561031557600080fd5b610148600160a060020a0360043516602435610f48565b341561033757600080fd5b6101ab600435610f84565b341561034d57600080fd5b6101f7600435602435604435610fb2565b341561036957600080fd5b610148600160a060020a0360043516602435604435611175565b341561038e57600080fd5b6101f7600160a060020a03600435166024356111ff565b34156103b057600080fd5b610148600160a060020a0360043516602435611332565b34156103d257600080fd5b610148600160a060020a0360043516602435611411565b34156103f457600080fd5b610148600160a060020a03600435166114d0565b341561041357600080fd5b610148600160a060020a03600435166024356114e2565b341561043557600080fd5b6101ab600435611580565b341561044b57600080fd5b6101ab600435611585565b341561046157600080fd5b6101f7600160a060020a03600435166024356115b6565b600061048382611585565b151561048e57600080fd5b610497826106a0565b156104b457506000818152600260205260409020600301546104c8565b506000818152600260205260409020600401545b919050565b60065460009033600160a060020a039081169116146104eb57600080fd5b60038054600101905560a06040519081016040908152428501808352840160208084019190915281830187905260006060840181905260808401819052600354815260029091522081518155602082015181600101556040820151816002015560608201518160030155608082015181600401559050507fef096063d99f4ef9370b5e89d45025615c869845ca33878d173e8dca429b2be08484846003546040518085815260200184815260200183815260200182815260200194505050505060405180910390a1506003549392505050565b600160a060020a03811660009081526004602052604080822073__DLL___________________________________916330fe0a0a919084908190516020015260405160e060020a63ffffffff85160281526004810192909252602482015260440160206040518083038186803b151561063657600080fd5b6102c65a03f4151561064757600080fd5b50505060405180519392505050565b600061066182610ee5565b151561066c57600080fd5b60008281526002602052604090206001015461068790611580565b15801561069a575061069882610f84565b155b92915050565b60006106aa611758565b60075433600160a060020a03908116911614806106d5575060065433600160a060020a039081169116145b15156106e057600080fd5b60065433600160a060020a039081169116146106fb57600080fd5b61070483611585565b151561070f57600080fd5b600083815260026020526040908190209060a09051908101604090815282548252600183015460208301526002830154908201526003820154606082015260049091015460808201908152909150518160600151018160400151028160600151606402119392505050565b60075433600160a060020a03908116911614806107a5575060065433600160a060020a039081169116145b15156107b057600080fd5b6107b981611585565b15156107c457600080fd5b6107ce8282610d3b565b151561085957600160a060020a0382166000908152600460205260409081902073__DLL___________________________________91636d900ed0919084905160e060020a63ffffffff85160281526004810192909252602482015260440160006040518083038186803b151561084457600080fd5b6102c65a03f4151561085557600080fd5b5050505b5050565b600754600090819033600160a060020a039081169116148061088d575060065433600160a060020a039081169116145b151561089857600080fd5b6108a186610f84565b15156108ac57600080fd5b60075433600160a060020a03908116911614156108e957600160a060020a038716600090815260016020526040902054849010156108e957600080fd5b60075433600160a060020a039081169116141561092657600160a060020a0387166000908152602081905260409020548490101561092657600080fd5b85151561093257600080fd5b821580610947575061094487846114e2565b15155b151561095257600080fd5b600160a060020a03871660009081526004602052604080822073__DLL___________________________________926307d29ac992879190516020015260405160e060020a63ffffffff85160281526004810192909252602482015260440160206040518083038186803b15156109c857600080fd5b6102c65a03f415156109d957600080fd5b50505060405180519250508582146109f15781610a83565b600160a060020a03871660009081526004602052604080822073__DLL___________________________________926307d29ac9928a9190516020015260405160e060020a63ffffffff85160281526004810192909252602482015260440160206040518083038186803b1515610a6757600080fd5b6102c65a03f41515610a7857600080fd5b505050604051805190505b9150610a9183838987610e92565b1515610a9c57600080fd5b6004600088600160a060020a0316600160a060020a0316815260200190815260200160002073__DLL___________________________________639735c51b909185898660405160e060020a63ffffffff8716028152600481019490945260248401929092526044830152606482015260840160006040518083038186803b1515610b2657600080fd5b6102c65a03f41515610b3757600080fd5b505050610b448787610f48565b905073__AttributeStore________________________63f8f422446005838760405160e060020a63ffffffff861602815260048101939093526024830191909152606482015260806044820152600960848201527f6e756d546f6b656e73000000000000000000000000000000000000000000000060a482015260c40160006040518083038186803b1515610bd957600080fd5b6102c65a03f41515610bea57600080fd5b5073__AttributeStore________________________915063f8f4224490506005838860405160e060020a63ffffffff861602815260048101939093526024830191909152606482015260806044820152600a60848201527f636f6d6d6974486173680000000000000000000000000000000000000000000060a482015260c40160006040518083038186803b1515610c8257600080fd5b6102c65a03f41515610c9357600080fd5b5050507f1d1ce8842c4b2d0eaed42eb6d7732092ca85f0992cae9c760d181efcb0aedf4e8787866040518084600160a060020a0316600160a060020a03168152602001838152602001828152602001935050505060405180910390a150505050505050565b600260208190526000918252604090912080546001820154928201546003830154600490930154919392909185565b600061069a82610d36846105be565b611411565b6000806000610d4984610ee5565b1515610d5457600080fd5b600160a060020a03851660009081526004602052604080822073__DLL___________________________________926330fe0a0a92889190516020015260405160e060020a63ffffffff85160281526004810192909252602482015260440160206040518083038186803b1515610dca57600080fd5b6102c65a03f41515610ddb57600080fd5b5050506040518051600160a060020a03871660009081526004602052604080822092955073__DLL___________________________________93506307d29ac992918891516020015260405160e060020a63ffffffff85160281526004810192909252602482015260440160206040518083038186803b1515610e5d57600080fd5b6102c65a03f41515610e6e57600080fd5b50505060405180519150508184148015610e8757508381145b92505b505092915050565b6000806000610ea18588611411565b8410159150610eb08587611411565b84111580610ebc575085155b9050818015610ec85750805b979650505050505050565b60016020526000908152604090205481565b6000818152600260205260408120805460019091015481158015610f0857508015155b15610f0f57fe5b8115801590610f1c575080155b15610f2357fe5b811580610f2e575080155b15610f3c5760009250610f41565b600192505b5050919050565b60008282604051600160a060020a03929092166c0100000000000000000000000002825260148201526034016040518091039020905092915050565b6000610f8f82610ee5565b1515610f9a57600080fd5b60008281526002602052604090205461069890611580565b60075460009033600160a060020a0390811691161480610fe0575060065433600160a060020a039081169116145b1515610feb57600080fd5b610ff484610656565b1515610fff57600080fd5b6110093385610d3b565b1561101357600080fd5b61101d33856114e2565b83836040519182526020820152604090810190519081900390201461104157600080fd5b61104b3385611411565b9050826001141561107257600084815260026020526040902060030180548201905561108a565b60008481526002602052604090206004018054820190555b600160a060020a0333166000908152600460205260409081902073__DLL___________________________________91636d900ed0919087905160e060020a63ffffffff85160281526004810192909252602482015260440160006040518083038186803b15156110fa57600080fd5b6102c65a03f4151561110b57600080fd5b5050507f7f9df012dd015e7e61a4a17ccf8db7fb6afbe211465b5696368d1d6408d03311338583866040518085600160a060020a0316600160a060020a0316815260200184815260200183815260200182815260200194505050505060405180910390a150505050565b60008060008061118486611585565b151561118f57600080fd5b6111998787610d3b565b15156111a457600080fd5b6111ad866106a0565b6111b85760006111bb565b60015b60ff1692508285604051918252602082015260409081019051809103902091506111e587876114e2565b90508181146111f5576000610ec8565b610ec88787611411565b60075433600160a060020a039081169116148061122a575060065433600160a060020a039081169116145b151561123557600080fd5b60065433600160a060020a03908116911614156112b257600160a060020a038216600090815260208190526040908190208054830190557f4bdec44a53feb3aabedf51c989ff2b6aebe7369d3974f57c304758a8537281e1908390839051600160a060020a03909216825260208201526040908101905180910390a15b60075433600160a060020a039081169116141561085957600160a060020a038216600090815260016020526040908190208054830190557f4bdec44a53feb3aabedf51c989ff2b6aebe7369d3974f57c304758a8537281e1908390839051600160a060020a03909216825260208201526040908101905180910390a15050565b6000806000611340856105be565b915061134c8583611411565b90505b80156114095761135f8583611411565b90508381101561137157819250610e8a565b600160a060020a03851660009081526004602052604080822073__DLL___________________________________926330fe0a0a92869190516020015260405160e060020a63ffffffff85160281526004810192909252602482015260440160206040518083038186803b15156113e757600080fd5b6102c65a03f415156113f857600080fd5b50505060405180519050915061134f565b509392505050565b600073__AttributeStore________________________6350389f5c60056114398686610f48565b60006040516020015260405160e060020a63ffffffff85160281526004810192909252602482015260606044820152600960648201527f6e756d546f6b656e730000000000000000000000000000000000000000000000608482015260a40160206040518083038186803b15156114af57600080fd5b6102c65a03f415156114c057600080fd5b5050506040518051949350505050565b60006020819052908152604090205481565b600073__AttributeStore________________________6350389f5c600561150a8686610f48565b60006040516020015260405160e060020a63ffffffff85160281526004810192909252602482015260606044820152600a60648201527f636f6d6d69744861736800000000000000000000000000000000000000000000608482015260a40160206040518083038186803b15156114af57600080fd5b421190565b600061159082610ee5565b151561159b57600080fd5b60008281526002602052604090206001015461069a90611580565b60075460009033600160a060020a03908116911614806115e4575060065433600160a060020a039081169116145b15156115ef57600080fd5b60065433600160a060020a03908116911614156116a35761160f83610d27565b600160a060020a0384166000908152602081905260409020540390508181101561163857600080fd5b600160a060020a03831660009081526020819052604090819020805484900390557f2c88837e03c4eee367d64fb379bbf7dad76a371c52622230bcf8b79728b9c532908490849051600160a060020a03909216825260208201526040908101905180910390a1611753565b60075433600160a060020a0390811691161415611753576116c383610d27565b600160a060020a038416600090815260016020526040902054039050818110156116ec57600080fd5b600160a060020a03831660009081526001602052604090819020805484900390557f2c88837e03c4eee367d64fb379bbf7dad76a371c52622230bcf8b79728b9c532908490849051600160a060020a03909216825260208201526040908101905180910390a15b505050565b60a060405190810160405280600081526020016000815260200160008152602001600081526020016000815250905600a165627a7a7230582070623c9aa1a02be66d6eaab8404f8c1d07b837d98d70bef60e06b162b0bd86f20029",
  "source": "pragma solidity ^0.4.8;\r\n\r\n//import files\r\nimport \"./DLL.sol\";\r\nimport \"./AttributeStore.sol\";\r\n\r\nimport \"./TokenHolderRegistry.sol\";\r\nimport \"./WorkerRegistry.sol\";\r\n\r\n/**\r\n@title Partial-Lock-Commit-Reveal Voting scheme with ERC20 tokens\r\n@author Team: Aspyn Palatnick, Cem Ozer, Yorke Rhodes\r\n*/\r\ncontract PLCRVoting {\r\n\r\n    event VoteCommitted(address voter, uint pollID, uint numTokens);\r\n    event VoteRevealed(address voter, uint pollID, uint numTokens, uint choice);\r\n    event PollCreated(uint voteQuorum, uint commitDuration, uint revealDuration, uint pollID);\r\n    event VotingRightsGranted(address voter, uint numTokens);\r\n    event VotingRightsWithdrawn(address voter, uint numTokens);\r\n\r\n    /// maps user's address to voteToken balance\r\n    mapping(address => uint) public voteTokenBalanceTH;\r\n    mapping(address => uint) public voteTokenBalanceW;\r\n\r\n    struct Poll {\r\n        uint commitEndDate;     /// expiration date of commit period for poll\r\n        uint revealEndDate;     /// expiration date of reveal period for poll\r\n        uint voteQuorum;\t    /// number of votes required for a proposal to pass\r\n        uint votesFor;\t\t    /// tally of votes supporting proposal\r\n        uint votesAgainst;      /// tally of votes countering proposal\r\n    }\r\n\r\n    /// maps pollID to Poll struct\r\n    mapping(uint => Poll) public pollMap;\r\n    uint pollNonce;\r\n\r\n    using DLL for DLL.Data;\r\n    mapping(address => DLL.Data) dllMap;\r\n\r\n    using AttributeStore for AttributeStore.Data;\r\n    AttributeStore.Data store;\r\n\r\n    // =====================================================================\r\n    // MODIFIERS\r\n    // =====================================================================\r\n\r\n      modifier onlyTHRWR() {\r\n        require(msg.sender == workerRegistry || msg.sender == tokenHolderRegistry);\r\n        _;\r\n      }\r\n\r\n    // ============\r\n    // CONSTRUCTOR:\r\n    // ============\r\n\r\n    uint256 constant INITIAL_POLL_NONCE = 0;\r\n\r\n    address tokenHolderRegistry;\r\n    address workerRegistry;\r\n\r\n    /**\r\n    @dev Initializes voteQuorum, commitDuration, revealDuration, and pollNonce in addition to token contract and trusted mapping\r\n    */\r\n    function PLCRVoting(address _tokenHolderRegistry, address _workerRegistry) public {\r\n        tokenHolderRegistry = TokenHolderRegistry(_tokenHolderRegistry);\r\n        workerRegistry = WorkerRegistry(_workerRegistry);\r\n        pollNonce = INITIAL_POLL_NONCE;\r\n    }\r\n\r\n    // ================\r\n    // TOKEN INTERFACE:\r\n    // ================\r\n\r\n    /**\r\n    @notice Loads _numTokens ERC20 tokens into the voting contract for one-to-one voting rights\r\n    @dev Assumes that msg.sender has approved voting contract to spend on their behalf\r\n    @param _numTokens The number of votingTokens desired in exchange for ERC20 tokens\r\n    */\r\n    function requestVotingRights(address _staker, uint _numTokens) public onlyTHRWR() {\r\n        //checks done in THR/WR to ensure that staker has tokens to vote with\r\n        if (msg.sender == tokenHolderRegistry) {\r\n          voteTokenBalanceTH[_staker] += _numTokens;\r\n          VotingRightsGranted(_staker, _numTokens);\r\n        }\r\n        if (msg.sender == workerRegistry) {\r\n          voteTokenBalanceW[_staker] += _numTokens;\r\n          VotingRightsGranted(_staker, _numTokens);\r\n        }\r\n    }\r\n\r\n    /**\r\n    @notice Withdraw _numTokens ERC20 tokens from the voting contract, revoking these voting rights\r\n    @param _numTokens The number of ERC20 tokens desired in exchange for voting rights\r\n    */\r\n    function withdrawVotingRights(address _staker, uint _numTokens) external onlyTHRWR() {\r\n        if (msg.sender == tokenHolderRegistry) {\r\n          uint256 availableTokens = voteTokenBalanceTH[_staker] - getLockedTokens(_staker);\r\n          require(availableTokens >= _numTokens);\r\n          voteTokenBalanceTH[_staker] -= _numTokens;\r\n          VotingRightsWithdrawn(_staker, _numTokens);\r\n        }\r\n        else if (msg.sender == workerRegistry) {\r\n          availableTokens = voteTokenBalanceW[_staker] - getLockedTokens(_staker);\r\n          require(availableTokens >= _numTokens);\r\n          voteTokenBalanceW[_staker] -= _numTokens;\r\n          VotingRightsWithdrawn(_staker, _numTokens);\r\n        }\r\n    }\r\n\r\n    /**\r\n    @dev Unlocks tokens locked in unrevealed vote where poll has ended\r\n    @param _pollID Integer identifier associated with the target poll\r\n    */\r\n    function rescueTokens(address _staker, uint _pollID) onlyTHRWR() external {\r\n        require(pollEnded(_pollID));\r\n        if(!hasBeenRevealed(_staker, _pollID)) {\r\n            dllMap[_staker].remove(_pollID);\r\n        }\r\n    }\r\n\r\n    // =================\r\n    // VOTING INTERFACE:\r\n    // =================\r\n\r\n    /**\r\n    @notice Commits vote using hash of choice and secret salt to conceal vote until reveal\r\n    @param _pollID Integer identifier associated with target poll\r\n    @param _secretHash Commit keccak256 hash of voter's choice and salt (tightly packed in this order)\r\n    @param _numTokens The number of tokens to be committed towards the target poll\r\n    @param _prevPollID The ID of the poll that the user has voted the maximum number of tokens in which is still less than or equal to numTokens\r\n    */\r\n    function commitVote(address _staker, uint _pollID, bytes32 _secretHash, uint _numTokens, uint _prevPollID) onlyTHRWR() external {\r\n        require(commitPeriodActive(_pollID));\r\n\r\n        if (msg.sender == workerRegistry) {\r\n          require(voteTokenBalanceW[_staker] >= _numTokens); // prevent user from overspending\r\n        }\r\n        if (msg.sender == workerRegistry) {\r\n          require(voteTokenBalanceTH[_staker] >= _numTokens); // prevent user from overspending\r\n        }\r\n\r\n        require(_pollID != 0);                // prevent user from committing to zero node placeholder\r\n\r\n        // TODO: Move all insert validation into the DLL lib\r\n        // Check if _prevPollID exists\r\n        require(_prevPollID == 0 || getCommitHash(_staker, _prevPollID) != 0);\r\n\r\n        uint nextPollID = dllMap[_staker].getNext(_prevPollID);\r\n\r\n        // if nextPollID is equal to _pollID, _pollID is being updated,\r\n        nextPollID = (nextPollID == _pollID) ? dllMap[_staker].getNext(_pollID) : nextPollID;\r\n\r\n        require(validPosition(_prevPollID, nextPollID, _staker, _numTokens));\r\n        dllMap[_staker].insert(_prevPollID, _pollID, nextPollID);\r\n\r\n        bytes32 UUID = attrUUID(_staker, _pollID);\r\n\r\n        store.attachAttribute(UUID, \"numTokens\", _numTokens);\r\n        store.attachAttribute(UUID, \"commitHash\", uint(_secretHash));\r\n\r\n        VoteCommitted(_staker, _pollID, _numTokens);\r\n    }\r\n\r\n    /**\r\n    @dev Compares previous and next poll's committed tokens for sorting purposes\r\n    @param _prevID Integer identifier associated with previous poll in sorted order\r\n    @param _nextID Integer identifier associated with next poll in sorted order\r\n    @param _voter Address of user to check DLL position for\r\n    @param _numTokens The number of tokens to be committed towards the poll (used for sorting)\r\n    @return valid Boolean indication of if the specified position maintains the sort\r\n    */\r\n    function validPosition(uint _prevID, uint _nextID, address _voter, uint _numTokens) public constant returns (bool valid) {\r\n        bool prevValid = (_numTokens >= getNumTokens(_voter, _prevID));\r\n        // if next is zero node, _numTokens does not need to be greater\r\n        bool nextValid = (_numTokens <= getNumTokens(_voter, _nextID) || _nextID == 0);\r\n        return prevValid && nextValid;\r\n    }\r\n\r\n    /**\r\n    @notice Reveals vote with choice and secret salt used in generating commitHash to attribute committed tokens\r\n    @param _pollID Integer identifier associated with target poll\r\n    @param _voteOption Vote choice used to generate commitHash for associated poll\r\n    @param _salt Secret number used to generate commitHash for associated poll\r\n    */\r\n    function revealVote(uint _pollID, uint _voteOption, uint _salt) onlyTHRWR() external {\r\n        // Make sure the reveal period is active\r\n        require(revealPeriodActive(_pollID));\r\n        require(!hasBeenRevealed(msg.sender, _pollID));                        // prevent user from revealing multiple times\r\n        require(keccak256(_voteOption, _salt) == getCommitHash(msg.sender, _pollID)); // compare resultant hash from inputs to original commitHash\r\n\r\n        uint numTokens = getNumTokens(msg.sender, _pollID);\r\n\r\n        if (_voteOption == 1) // apply numTokens to appropriate poll choice\r\n            pollMap[_pollID].votesFor += numTokens;\r\n        else\r\n            pollMap[_pollID].votesAgainst += numTokens;\r\n\r\n        dllMap[msg.sender].remove(_pollID); // remove the node referring to this vote upon reveal\r\n\r\n        VoteRevealed(msg.sender, _pollID, numTokens, _voteOption);\r\n    }\r\n\r\n    /**\r\n    @param _pollID Integer identifier associated with target poll\r\n    @param _salt Arbitrarily chosen integer used to generate secretHash\r\n    @return correctVotes Number of tokens voted for winning option\r\n    */\r\n    function getNumPassingTokens(address _voter, uint _pollID, uint _salt) public constant returns (uint correctVotes) {\r\n        require(pollEnded(_pollID));\r\n        require(hasBeenRevealed(_voter, _pollID));\r\n\r\n        uint winningChoice = isPassed(_pollID) ? 1 : 0;\r\n        bytes32 winnerHash = keccak256(winningChoice, _salt);\r\n        bytes32 commitHash = getCommitHash(_voter, _pollID);\r\n\r\n        return (winnerHash == commitHash) ? getNumTokens(_voter, _pollID) : 0;\r\n    }\r\n\r\n    // ==================\r\n    // POLLING INTERFACE:\r\n    // ==================\r\n\r\n    /**\r\n    @dev Initiates a poll with canonical configured parameters at pollID emitted by PollCreated event\r\n    @param _voteQuorum Type of majority (out of 100) that is necessary for poll to be successful\r\n    @param _commitDuration Length of desired commit period in seconds\r\n    @param _revealDuration Length of desired reveal period in seconds\r\n    */\r\n    function startPoll(uint _voteQuorum, uint _commitDuration, uint _revealDuration) public returns (uint pollID) {\r\n        require(tokenHolderRegistry == msg.sender);\r\n        pollNonce = pollNonce + 1;\r\n        pollMap[pollNonce] = Poll({\r\n            voteQuorum: _voteQuorum,\r\n            commitEndDate: block.timestamp + _commitDuration,\r\n            revealEndDate: block.timestamp + _commitDuration + _revealDuration,\r\n            votesFor: 0,\r\n            votesAgainst: 0\r\n        });\r\n\r\n        PollCreated(_voteQuorum, _commitDuration, _revealDuration, pollNonce);\r\n        return pollNonce;\r\n    }\r\n\r\n    /**\r\n    @notice Determines if proposal has passed\r\n    @dev Check if votesFor out of totalVotes exceeds votesQuorum (requires pollEnded)\r\n    @param _pollID Integer identifier associated with target poll\r\n    */\r\n    function isPassed(uint _pollID) onlyTHRWR() constant public returns (bool passed) {\r\n        require(msg.sender == tokenHolderRegistry);\r\n        require(pollEnded(_pollID));\r\n\r\n        Poll memory poll = pollMap[_pollID];\r\n        return (100 * poll.votesFor) > (poll.voteQuorum * (poll.votesFor + poll.votesAgainst));\r\n    }\r\n\r\n    // ----------------\r\n    // POLLING HELPERS:\r\n    // ----------------\r\n\r\n    /**\r\n    @dev Gets the total winning votes for reward distribution purposes\r\n    @param _pollID Integer identifier associated with target poll\r\n    @return Total number of votes committed to the winning option for specified poll\r\n    */\r\n    function getTotalNumberOfTokensForWinningOption(uint _pollID) constant public returns (uint numTokens) {\r\n        require(pollEnded(_pollID));\r\n\r\n        if (isPassed(_pollID))\r\n            return pollMap[_pollID].votesFor;\r\n        else\r\n            return pollMap[_pollID].votesAgainst;\r\n    }\r\n\r\n    /**\r\n    @notice Determines if poll is over\r\n    @dev Checks isExpired for specified poll's revealEndDate\r\n    @return Boolean indication of whether polling period is over\r\n    */\r\n    function pollEnded(uint _pollID) constant public returns (bool ended) {\r\n        require(pollExists(_pollID));\r\n\r\n        return isExpired(pollMap[_pollID].revealEndDate);\r\n    }\r\n\r\n    /**\r\n    @notice Checks if the commit period is still active for the specified poll\r\n    @dev Checks isExpired for the specified poll's commitEndDate\r\n    @param _pollID Integer identifier associated with target poll\r\n    @return Boolean indication of isCommitPeriodActive for target poll\r\n    */\r\n    function commitPeriodActive(uint _pollID) constant public returns (bool active) {\r\n        require(pollExists(_pollID));\r\n\r\n        return !isExpired(pollMap[_pollID].commitEndDate);\r\n    }\r\n\r\n    /**\r\n    @notice Checks if the reveal period is still active for the specified poll\r\n    @dev Checks isExpired for the specified poll's revealEndDate\r\n    @param _pollID Integer identifier associated with target poll\r\n    */\r\n    function revealPeriodActive(uint _pollID) constant public returns (bool active) {\r\n        require(pollExists(_pollID));\r\n\r\n        return !isExpired(pollMap[_pollID].revealEndDate) && !commitPeriodActive(_pollID);\r\n    }\r\n\r\n    /**\r\n    @dev Checks if user has already revealed for specified poll\r\n    @param _voter Address of user to check against\r\n    @param _pollID Integer identifier associated with target poll\r\n    @return Boolean indication of whether user has already revealed\r\n    */\r\n    function hasBeenRevealed(address _voter, uint _pollID) constant public returns (bool revealed) {\r\n        require(pollExists(_pollID));\r\n\r\n        uint prevID = dllMap[_voter].getPrev(_pollID);\r\n        uint nextID = dllMap[_voter].getNext(_pollID);\r\n\r\n        return (prevID == _pollID) && (nextID == _pollID);\r\n    }\r\n\r\n    /**\r\n    @dev Checks if a poll exists, throws if the provided poll is in an impossible state\r\n    @param _pollID The pollID whose existance is to be evaluated.\r\n    @return Boolean Indicates whether a poll exists for the provided pollID\r\n    */\r\n    function pollExists(uint _pollID) constant public returns (bool exists) {\r\n        uint commitEndDate = pollMap[_pollID].commitEndDate;\r\n        uint revealEndDate = pollMap[_pollID].revealEndDate;\r\n\r\n        assert(!(commitEndDate == 0 && revealEndDate != 0));\r\n        assert(!(commitEndDate != 0 && revealEndDate == 0));\r\n\r\n        if(commitEndDate == 0 || revealEndDate == 0) { return false; }\r\n        return true;\r\n    }\r\n\r\n    // ---------------------------\r\n    // DOUBLE-LINKED-LIST HELPERS:\r\n    // ---------------------------\r\n\r\n    /**\r\n    @dev Gets the bytes32 commitHash property of target poll\r\n    @param _voter Address of user to check against\r\n    @param _pollID Integer identifier associated with target poll\r\n    @return Bytes32 hash property attached to target poll\r\n    */\r\n    function getCommitHash(address _voter, uint _pollID) constant public returns (bytes32 commitHash) {\r\n        return bytes32(store.getAttribute(attrUUID(_voter, _pollID), \"commitHash\"));\r\n    }\r\n\r\n    /**\r\n    @dev Wrapper for getAttribute with attrName=\"numTokens\"\r\n    @param _voter Address of user to check against\r\n    @param _pollID Integer identifier associated with target poll\r\n    @return Number of tokens committed to poll in sorted poll-linked-list\r\n    */\r\n    function getNumTokens(address _voter, uint _pollID) constant public returns (uint numTokens) {\r\n        return store.getAttribute(attrUUID(_voter, _pollID), \"numTokens\");\r\n    }\r\n\r\n    /**\r\n    @dev Gets top element of sorted poll-linked-list\r\n    @param _voter Address of user to check against\r\n    @return Integer identifier to poll with maximum number of tokens committed to it\r\n    */\r\n    function getLastNode(address _voter) constant public returns (uint pollID) {\r\n        return dllMap[_voter].getPrev(0);\r\n    }\r\n\r\n    /**\r\n    @dev Gets the numTokens property of getLastNode\r\n    @param _voter Address of user to check against\r\n    @return Maximum number of tokens committed in poll specified\r\n    */\r\n    function getLockedTokens(address _voter) constant public returns (uint numTokens) {\r\n        return getNumTokens(_voter, getLastNode(_voter));\r\n    }\r\n\r\n    /**\r\n    @dev Gets the prevNode a new node should be inserted after given the sort factor\r\n    @param _voter The voter whose DLL will be searched\r\n    @param _numTokens The value for the numTokens attribute in the node to be inserted\r\n    @return the node which the propoded node should be inserted after\r\n    */\r\n    function getInsertPointForNumTokens(address _voter, uint _numTokens)\r\n    constant public returns (uint prevNode) {\r\n      uint nodeID = getLastNode(_voter);\r\n      uint tokensInNode = getNumTokens(_voter, nodeID);\r\n\r\n      while(tokensInNode != 0) {\r\n        tokensInNode = getNumTokens(_voter, nodeID);\r\n        if(tokensInNode < _numTokens) {\r\n          return nodeID;\r\n        }\r\n        nodeID = dllMap[_voter].getPrev(nodeID);\r\n      }\r\n\r\n      return nodeID;\r\n    }\r\n\r\n    // ----------------\r\n    // GENERAL HELPERS:\r\n    // ----------------\r\n\r\n    /**\r\n    @dev Checks if an expiration date has been reached\r\n    @param _terminationDate Integer timestamp of date to compare current timestamp with\r\n    @return expired Boolean indication of whether the terminationDate has passed\r\n    */\r\n    function isExpired(uint _terminationDate) constant public returns (bool expired) {\r\n        return (block.timestamp > _terminationDate);\r\n    }\r\n\r\n    /**\r\n    @dev Generates an identifier which associates a user and a poll together\r\n    @param _pollID Integer identifier associated with target poll\r\n    @return UUID Hash which is deterministic from _user and _pollID\r\n    */\r\n    function attrUUID(address _user, uint _pollID) public pure returns (bytes32 UUID) {\r\n        return keccak256(_user, _pollID);\r\n    }\r\n}\r\n",
  "sourcePath": "/Users/jessicamarshall/Desktop/Distribute/contracts/PLCRVoting.sol",
  "schemaVersion": "1.0.0",
  "updatedAt": "2017-10-16T20:41:54.621Z"
}