{
  "contractName": "Project",
  "abi": [
    {
      "constant": false,
      "inputs": [
        {
          "name": "_tokens",
          "type": "uint256"
        },
        {
          "name": "_staker",
          "type": "address"
        }
      ],
      "name": "stakeWorkerToken",
      "outputs": [
        {
          "name": "success",
          "type": "bool"
        }
      ],
      "payable": false,
      "stateMutability": "nonpayable",
      "type": "function"
    },
    {
      "constant": false,
      "inputs": [
        {
          "name": "_tokens",
          "type": "uint256"
        },
        {
          "name": "_staker",
          "type": "address"
        }
      ],
      "name": "stakeCapitalToken",
      "outputs": [
        {
          "name": "success",
          "type": "bool"
        }
      ],
      "payable": false,
      "stateMutability": "nonpayable",
      "type": "function"
    },
    {
      "constant": false,
      "inputs": [
        {
          "name": "_tokens",
          "type": "uint256"
        },
        {
          "name": "_staker",
          "type": "address"
        }
      ],
      "name": "unstakeCapitalToken",
      "outputs": [
        {
          "name": "success",
          "type": "bool"
        }
      ],
      "payable": false,
      "stateMutability": "nonpayable",
      "type": "function"
    },
    {
      "constant": false,
      "inputs": [],
      "name": "completeTask",
      "outputs": [
        {
          "name": "success",
          "type": "bool"
        }
      ],
      "payable": false,
      "stateMutability": "nonpayable",
      "type": "function"
    },
    {
      "constant": false,
      "inputs": [
        {
          "name": "_staker",
          "type": "address"
        }
      ],
      "name": "refundStaker",
      "outputs": [
        {
          "name": "_refund",
          "type": "uint256"
        }
      ],
      "payable": false,
      "stateMutability": "nonpayable",
      "type": "function"
    },
    {
      "constant": true,
      "inputs": [],
      "name": "capitalETHCost",
      "outputs": [
        {
          "name": "",
          "type": "uint256"
        }
      ],
      "payable": false,
      "stateMutability": "view",
      "type": "function"
    },
    {
      "constant": false,
      "inputs": [
        {
          "name": "_staker",
          "type": "address"
        }
      ],
      "name": "rewardWorker",
      "outputs": [
        {
          "name": "_reward",
          "type": "uint256"
        }
      ],
      "payable": false,
      "stateMutability": "nonpayable",
      "type": "function"
    },
    {
      "constant": false,
      "inputs": [
        {
          "name": "_workerAddress",
          "type": "address"
        },
        {
          "name": "_description",
          "type": "string"
        },
        {
          "name": "_workerReward",
          "type": "uint256"
        }
      ],
      "name": "addTask",
      "outputs": [],
      "payable": false,
      "stateMutability": "nonpayable",
      "type": "function"
    },
    {
      "constant": true,
      "inputs": [],
      "name": "projectState",
      "outputs": [
        {
          "name": "",
          "type": "uint8"
        }
      ],
      "payable": false,
      "stateMutability": "view",
      "type": "function"
    },
    {
      "constant": false,
      "inputs": [],
      "name": "refundProposer",
      "outputs": [
        {
          "name": "_proposerStake",
          "type": "uint256"
        }
      ],
      "payable": false,
      "stateMutability": "nonpayable",
      "type": "function"
    },
    {
      "constant": false,
      "inputs": [
        {
          "name": "_staker",
          "type": "address"
        },
        {
          "name": "_tokens",
          "type": "uint256"
        },
        {
          "name": "_validationState",
          "type": "bool"
        }
      ],
      "name": "validate",
      "outputs": [
        {
          "name": "success",
          "type": "bool"
        }
      ],
      "payable": false,
      "stateMutability": "nonpayable",
      "type": "function"
    },
    {
      "constant": false,
      "inputs": [
        {
          "name": "_tokens",
          "type": "uint256"
        },
        {
          "name": "_staker",
          "type": "address"
        }
      ],
      "name": "unstakeWorkerToken",
      "outputs": [
        {
          "name": "success",
          "type": "bool"
        }
      ],
      "payable": false,
      "stateMutability": "nonpayable",
      "type": "function"
    },
    {
      "inputs": [
        {
          "name": "_id",
          "type": "uint256"
        },
        {
          "name": "_cost",
          "type": "uint256"
        },
        {
          "name": "_projectDeadline",
          "type": "uint256"
        },
        {
          "name": "_currentTokenCost",
          "type": "uint256"
        },
        {
          "name": "_proposerStake",
          "type": "uint256"
        }
      ],
      "payable": false,
      "stateMutability": "nonpayable",
      "type": "constructor"
    }
  ],
  "bytecode": "0x60606040526014805460ff19169055341561001957600080fd5b60405160a080611403833981016040528080519190602001805191906020018051919060200180519190602001805160008054600160a060020a03191633600160a060020a031617815560029790975560039590955550506007919091556017805460ff1916905560069190915560088290556009829055600455600581905562093a80601581905560165561134e9081906100b590396000f3006060604052361561009e5763ffffffff60e060020a6000350416630475722181146100a3578063121acdfb146100d957806328555c1f146100fb57806343bb8db51461011d5780635c352318146101305780635f4e6b0614610161578063638678db146101745780636f233f5f14610193578063748807ab146101f657806392eec3bc1461022d5780639e2550bd14610240578063fe12c92a14610267575b600080fd5b34156100ae57600080fd5b6100c5600435600160a060020a0360243516610289565b604051901515815260200160405180910390f35b34156100e457600080fd5b6100c5600435600160a060020a036024351661033c565b341561010657600080fd5b6100c5600435600160a060020a03602435166103f1565b341561012857600080fd5b6100c56104c5565b341561013b57600080fd5b61014f600160a060020a03600435166105df565b60405190815260200160405180910390f35b341561016c57600080fd5b61014f61094c565b341561017f57600080fd5b61014f600160a060020a0360043516610952565b341561019e57600080fd5b6101f460048035600160a060020a03169060446024803590810190830135806020601f820181900481020160405190810160405281815292919060208401838380828437509496505093359350610a3d92505050565b005b341561020157600080fd5b610209610b3d565b6040518082600681111561021957fe5b60ff16815260200191505060405180910390f35b341561023857600080fd5b61014f610b46565b341561024b57600080fd5b6100c5600160a060020a03600435166024356044351515610ba2565b341561027257600080fd5b6100c5600435600160a060020a0360243516610ce1565b60015460009033600160a060020a039081169116146102a757600080fd5b60008060175460ff1660068111156102bb57fe5b146102c557600080fd5b600754428190106102d557600080fd5b6102dd610dae565b1580156103035750600160a060020a0384166000908152600b6020526040902054858101115b1561032f57600160a060020a0384166000908152600b6020526040902080548601905560019250610334565b600092505b505092915050565b6000805433600160a060020a0390811691161461035857600080fd5b60008060175460ff16600681111561036c57fe5b1461037657600080fd5b6007544281901061038657600080fd5b61038e610dae565b1580156103b45750600160a060020a0384166000908152600a6020526040902054858101115b1561032f57600160a060020a0384166000908152600a6020526040902080548601905560088054860190556103e7610dae565b5060019250610334565b6000805433600160a060020a0390811691161461040d57600080fd5b60008060175460ff16600681111561042157fe5b1461042b57600080fd5b6007544281901061043b57600080fd5b610443610dae565b1580156104695750600160a060020a0384166000908152600a6020526040902054858103105b801561048f5750600160a060020a0384166000908152600a602052604081205486900310155b1561032f57600160a060020a0384166000908152600a602052604090208054869003905560088054869003905560019250610334565b60008060018060175460ff1660068111156104dc57fe5b146104e657600080fd5b60015433600160a060020a0390811691161461050157600080fd5b610509610dae565b15156105d557600091505b600c548210156105cc5733600160a060020a0316600c8381548110151561053757fe5b6000918252602090912060049091020154600160a060020a03161480156105805750600c80548390811061056757fe5b600091825260209091206002600490920201015460ff16155b156105c1576001600c8381548110151561059657fe5b60009182526020909120600490910201600201805460ff1916911515919091179055600192506105da565b600190910190610514565b600092506105da565b600092505b505090565b600080548190819033600160a060020a039081169116148061060f575060015433600160a060020a039081169116145b151561061a57600080fd5b600460175460ff16600681111561062d57fe5b14806106495750600660175460ff16600681111561064757fe5b145b151561065457600080fd5b60005433600160a060020a0390811691161415610903576008541561069357600160a060020a0384166000908152600a60205260408120805491905591505b601254156107c757600160a060020a0384166000908152600e602052604090205460145492019160ff1615156106f657601254600160a060020a0385166000908152600e6020526040902054601354028115156106ec57fe5b04820191506107ad565b60145460ff161515600114156107ad57601254600160a060020a0385166000908152600e60205260409020546003540281151561072f57fe5b600054600254929091049250600160a060020a03169063f2d8236c90868460405160e060020a63ffffffff86160281526004810193909352600160a060020a0390911660248301526044820152606401600060405180830381600087803b151561079857600080fd5b6102c65a03f115156107a957600080fd5b5050505b600160a060020a0384166000908152600e60205260408120555b601154156108fb57600160a060020a0384166000908152600d602052604090205460145492019160ff16151561082a57601154600160a060020a0385166000908152600d60205260409020546013540281151561082057fe5b04820191506108e1565b60145460ff161515600114156108e157601154600160a060020a0385166000908152600d60205260409020546003540281151561086357fe5b600054600254929091049250600160a060020a03169063f2d8236c90868460405160e060020a63ffffffff86160281526004810193909352600160a060020a0390911660248301526044820152606401600060405180830381600087803b15156108cc57600080fd5b6102c65a03f115156108dd57600080fd5b5050505b600160a060020a0384166000908152600d60205260408120555b819250610945565b60015433600160a060020a039081169116141561094557600954156108fb57600160a060020a0384166000908152600b60205260408120805491905591508192505b5050919050565b60035481565b6001546000908190819033600160a060020a0390811691161461097457600080fd5b60048060175460ff16600681111561098857fe5b1461099257600080fd5b60009250600091505b600c54821015610a345784600160a060020a0316600c838154811015156109be57fe5b6000918252602090912060049091020154600160a060020a03161415610a2957600c8054839081106109ec57fe5b906000526020600020906004020160030154830192506000600c83815481101515610a1357fe5b9060005260206000209060040201600301819055505b60019091019061099b565b50909392505050565b60018060175460ff166006811115610a5157fe5b14610a5b57600080fd5b60075442819010610a6b57600080fd5b610a73610dae565b1515610b3657600c805460018101610a8b83826111c2565b9160005260206000209060040201600060806040519081016040908152600160a060020a038a16825260208201899052600090820152606081018790529190508151815473ffffffffffffffffffffffffffffffffffffffff1916600160a060020a0391909116178155602082015181600101908051610b0f9291602001906111f3565b50604082015160028201805460ff1916911515919091179055606082015181600301555050505b5050505050565b60175460ff1681565b60008054819033600160a060020a03908116911614610b6457600080fd5b600060175460ff166006811115610b7757fe5b14158015610b86575060065415155b1515610b9157600080fd5b5050600680546000909155805b5090565b6000805433600160a060020a03908116911614610bbe57600080fd5b60028060175460ff166006811115610bd257fe5b14610bdc57600080fd5b610be4610dae565b1515610cd957601054600f54014210610bfc57600080fd5b6001831515148015610c275750600160a060020a0385166000908152600d6020526040902054848101115b8015610c365750601154848101115b15610c6a57600160a060020a0385166000908152600d60205260409020805485019055601180548501905560019150610cd9565b82158015610c915750600160a060020a0385166000908152600e6020526040902054848101115b8015610ca05750601254848101115b15610cd457600160a060020a0333166000908152600e60205260409020805485019055601280548501905560019150610cd9565b600091505b509392505050565b60015460009033600160a060020a03908116911614610cff57600080fd5b60008060175460ff166006811115610d1357fe5b14610d1d57600080fd5b60075442819010610d2d57600080fd5b610d35610dae565b158015610d5b5750600160a060020a0384166000908152600b6020526040902054858103105b8015610d815750600160a060020a0384166000908152600b602052604081205486900310155b1561032f57600160a060020a0384166000908152600b602052604090208054869003905560019250610334565b600080808060175460ff166006811115610dc457fe5b1415610e045760045460085410158015610de2575060055460095410155b156105cc57601780546001919060ff191682805b0217905550600192506105da565b600160175460ff166006811115610e1757fe5b1415610e9857600091505b600c54821015610e8057600c805483908110610e3a57fe5b600091825260209091206002600490920201015460ff161515610e75576007544211156105cc57601780546005919060ff1916600183610df6565b600190910190610e22565b42600f55601780546002919060ff1916600183610df6565b600260175460ff166006811115610eab57fe5b1415610f4657601054600f54014211156105cc57600054600254600160a060020a03909116906332ed3d609062093a808060405160e060020a63ffffffff8616028152600481019390935260248301919091526044820152606401600060405180830381600087803b1515610f1f57600080fd5b6102c65a03f11515610f3057600080fd5b5050601780546003925060ff1916600183610df6565b600360175460ff166006811115610f5957fe5b14156105da5760008054600254600160a060020a039091169163ee68483091906040516020015260405160e060020a63ffffffff84160281526004810191909152602401602060405180830381600087803b1515610fb657600080fd5b6102c65a03f11515610fc757600080fd5b505050604051805190501515610fe057600092506105da565b60008054600254600160a060020a0390911691634940318391906040516020015260405160e060020a63ffffffff84160281526004810191909152602401602060405180830381600087803b151561103757600080fd5b6102c65a03f1151561104857600080fd5b50505060405180519050905061105d81611092565b8015611075576017805460ff19166004179055611089565b601780546006919060ff1916600183610df6565b600192506105da565b80151561119e57600054600254600854600160a060020a0390921691638417a061919060405160e060020a63ffffffff851602815260048101929092526024820152604401600060405180830381600087803b15156110f057600080fd5b6102c65a03f1151561110157600080fd5b5050600154600254600954600160a060020a039092169250638417a0619160405160e060020a63ffffffff851602815260048101929092526024820152604401600060405180830381600087803b151561115a57600080fd5b6102c65a03f1151561116b57600080fd5b5050600060088190556009555060115460138190551515611194576014805460ff191660011790555b60006011556111bf565b601254601381905515156111bf576014805460ff1916600117905560006012555b50565b8154818355818115116111ee576004028160040283600052602060002091820191016111ee919061126d565b505050565b828054600181600116156101000203166002900490600052602060002090601f016020900481019282601f1061123457805160ff1916838001178555611261565b82800160010185558215611261579182015b82811115611261578251825591602001919060010190611246565b50610b9e9291506112c4565b6112c191905b80821115610b9e57805473ffffffffffffffffffffffffffffffffffffffff1916815560006112a560018301826112de565b5060028101805460ff1916905560006003820155600401611273565b90565b6112c191905b80821115610b9e57600081556001016112ca565b50805460018160011615610100020316600290046000825580601f1061130457506111bf565b601f0160209004906000526020600020908101906111bf91906112c45600a165627a7a72305820b9e1509f59b8e29e7331fa5ed27c912a6b521150234f6560ea0de91536bd0cbd0029",
  "source": "pragma solidity ^0.4.10;\n\n//import files\nimport \"./TokenHolderRegistry.sol\";\nimport \"./WorkerRegistry.sol\";\n\n/*\n  a created project\n*/\n\ncontract Project{\n\n// =====================================================================\n// STATE VARIABLES\n// =====================================================================\n\n  address tokenHolderRegistry;    //connect to THR\n  address workerRegistry;         //connect to WR\n\n  uint256 projectId;\n\n  uint256 public capitalETHCost;\n  uint256 capitalCost;            //total amount of staked capital in tokens needed\n  uint256 workerCost;             //total amount of staked worker tokens needed, one to one with capital tokens\n\n  uint256 proposerStake;          //amount of capital tokens the proposer stakes\n  uint256 projectDeadline;\n\n  //keep track of staking on proposed project\n  uint256 totalCapitalStaked;     //amount of capital tokens currently staked\n  uint256 totalWorkerStaked;      //amount of worker tokens currently staked\n  mapping (address => uint) stakedCapitalBalances;\n  mapping (address => uint) stakedWorkerBalances;\n\n  Task[] tasks;   //array of tasks for this project\n\n  struct Task {\n    address workerAddress;    //which worker is assigned to this task\n    string description;       //brief description of task\n    bool taskComplete;\n    //uint256 taskHash;\n    //uint256 escrowTokens;   //tokens paid to sign up for task, amount they will earn if validated\n    uint256 ETHReward;        //for now hard-coded\n  }\n\n\n  //keep track of validating complete project\n  mapping (address => uint) validatedAffirmative;\n  mapping (address => uint) validatedNegative;\n  uint256 validationStart;\n  uint256 validationPeriod;\n  uint256 totalValidateAffirmative;\n  uint256 totalValidateNegative;\n  uint256 validateReward;\n  bool validateFlag = false;            //turn this on if there were no opposing validators\n\n/*\n  //keep track of voting complete project\n  mapping (address => uint) votedAffirmative;\n  mapping (address => uint) votedNegative;\n  uint256 totalVoteAffirmative;\n  uint256 totalVoteNegative;\n*/\n\n  uint256 votingCommitDuration;\n  uint256 votingRevealDuration;\n\n  //project states & deadlines\n  State public projectState;\n  enum State {\n    Proposed,\n    Active,\n    Validating,\n    Voting,\n    Validated,\n    Incomplete,\n    Failed\n  }\n\n// =====================================================================\n// EVENTS\n// =====================================================================\n\n// =====================================================================\n// MODIFIERS\n// =====================================================================\n\n  modifier onlyInState(State _state) {\n    require(projectState == _state);\n    _;\n  }\n\n  modifier onlyBefore(uint256 time) {\n    require(now < time);\n    _;\n  }\n\n  modifier onlyTHR() {\n    require(msg.sender == tokenHolderRegistry);\n    _;\n  }\n\n  modifier onlyWR() {\n    require(msg.sender == workerRegistry);\n    _;\n  }\n\n// =====================================================================\n// FUNCTIONS\n// =====================================================================\n\n  // =====================================================================\n  // CONSTRUCTOR\n  // =====================================================================\n\n  function Project(uint256 _id, uint256 _cost, uint256 _projectDeadline, uint256 _currentTokenCost, uint256 _proposerStake) public {       //called by THR\n    //all checks done in THR first\n    tokenHolderRegistry = msg.sender;     //the token holder registry calls this function\n    projectId = _id;\n    capitalETHCost = _cost;\n    projectDeadline = _projectDeadline;\n    projectState = State.Proposed;\n    proposerStake = _proposerStake;\n    totalCapitalStaked = 0;\n    totalWorkerStaked = 0;\n    capitalCost = _currentTokenCost;          //hardcode this value for now\n    workerCost = 0;\n    //workerCost = _currentTokenCost;\n    votingCommitDuration = 604800;\n    votingRevealDuration = 604800;\n  }\n\n  // =====================================================================\n  // GENERAL FUNCTIONS\n  // =====================================================================\n\n  function checkStateChange() internal returns (bool stateChange) {                              //general state change function\n    if (projectState == State.Proposed) {\n      if (totalCapitalStaked >= capitalCost && totalWorkerStaked >= workerCost)\n        {\n          projectState = State.Active;\n          return true;\n        }\n        else {\n          return false;\n      }\n    }\n\n    else if (projectState == State.Active) {\n      for (uint256 i = 0; i < tasks.length; i++) {\n        if (tasks[i].taskComplete == false) {\n          if (now > projectDeadline) {\n            projectState = State.Incomplete;\n            return true;\n          }\n          return false;\n        }\n      }\n      validationStart = now;\n      projectState = State.Validating;\n      return true;\n      }\n\n    else if (projectState == State.Validating) {\n      if(now > validationStart + validationPeriod) {\n        TokenHolderRegistry(tokenHolderRegistry).startPoll(projectId, 604800, 604800);   //1 week commit, 1 week reveal\n        projectState = State.Voting;\n        return true;\n      }\n      else {\n        return false;\n      }\n    }\n\n    else if (projectState == State.Voting) {\n      //call TokenHolderRegistry to call PLCR to see if the commit & reveal period is over\n      if(!TokenHolderRegistry(tokenHolderRegistry).pollEnded(projectId)) {\n        return false;\n      }\n      else {\n        bool passed = TokenHolderRegistry(tokenHolderRegistry).isPassed(projectId);\n        handleVoteResult(passed);\n        if (passed) {\n          projectState = State.Validated;\n        }\n        else {\n          projectState = State.Failed;\n        }\n        return true;\n      }\n    }\n  }\n\n  // =====================================================================\n  // PROPOSED PROJECT - STAKING FUNCTIONS\n  // =====================================================================\n\n  function refundProposer() public onlyTHR() returns (uint256 _proposerStake) {   //called by THR, decrements proposer tokens in Project.sol\n    require(projectState != State.Proposed && proposerStake != 0);         //make sure out of proposed state & msg.sender is the proposer\n    uint256 temp = proposerStake;\n    proposerStake = 0;\n    return temp;\n  }\n\n  function stakeCapitalToken(uint256 _tokens, address _staker) public onlyTHR() onlyInState(State.Proposed) onlyBefore(projectDeadline) returns (bool success) {  //called by THR, increments _staker tokens in Project.sol\n    if (checkStateChange() == false &&\n         stakedCapitalBalances[_staker] + _tokens > stakedCapitalBalances[_staker]) {\n        stakedCapitalBalances[_staker] += _tokens;\n        totalCapitalStaked += _tokens;\n        checkStateChange();\n        return true;\n    } else {\n      return false;\n    }\n  }\n\n  function unstakeCapitalToken(uint256 _tokens, address _staker) public onlyTHR() onlyInState(State.Proposed) onlyBefore(projectDeadline) returns (bool success) {    //called by THR only, decrements _staker tokens in Project.sol\n    if (checkStateChange() == false &&\n         stakedCapitalBalances[_staker] - _tokens < stakedCapitalBalances[_staker] &&   //check overflow\n         stakedCapitalBalances[_staker] - _tokens >= 0) {    //make sure _staker has the tokens staked to unstake\n           stakedCapitalBalances[_staker] -= _tokens;\n           totalCapitalStaked -= _tokens;\n           return true;\n    } else {\n      return false;\n    }\n  }\n\n  function stakeWorkerToken(uint256 _tokens, address _staker) public onlyWR() onlyInState(State.Proposed) onlyBefore(projectDeadline) returns (bool success) {\n    if (checkStateChange() == false &&\n         stakedWorkerBalances[_staker] + _tokens > stakedWorkerBalances[_staker]) {\n        stakedWorkerBalances[_staker] += _tokens;\n        return true;\n    } else {\n      return false;\n    }\n  }\n\n  function unstakeWorkerToken(uint256 _tokens, address _staker) public onlyWR() onlyInState(State.Proposed) onlyBefore(projectDeadline) returns (bool success) {\n    if (checkStateChange() == false &&\n         stakedWorkerBalances[_staker] - _tokens < stakedWorkerBalances[_staker] &&   //check overflow\n         stakedWorkerBalances[_staker] - _tokens >= 0) {    //make sure _staker has the tokens staked to unstake\n           stakedWorkerBalances[_staker] -= _tokens;\n           return true;\n    } else {\n      return false;\n    }\n  }\n\n  // =====================================================================\n  // ACTIVE PROJECT FUNCTIONS\n  // =====================================================================\n\n  function addTask(address _workerAddress, string _description, uint256 _workerReward) public onlyInState(State.Active) onlyBefore(projectDeadline) {     //uclear who can call this, needs to be restricted to consensus-based tasks\n    if (checkStateChange() == false) {\n      tasks.push(Task(_workerAddress, _description, false, _workerReward));\n    }\n  }\n\n  function completeTask() onlyInState(State.Active) public onlyWR() returns (bool success) {  //can only be called by worker in task\n    if (checkStateChange() == false) {\n      for (uint256 i=0; i<tasks.length; i++) {\n        if(tasks[i].workerAddress == msg.sender && tasks[i].taskComplete == false) {\n          tasks[i].taskComplete = true;\n          return true;\n        }\n      }\n      return false;\n    }\n    return false;\n  }\n\n  // =====================================================================\n  // COMPLETED PROJECT - VALIDATION & VOTING FUNCTIONALITY\n  // =====================================================================\n\n  function validate(address _staker, uint256 _tokens, bool _validationState) public onlyTHR() onlyInState(State.Validating) returns (bool success) {\n    //checks for free tokens done in THR\n    //increments validation tokens in Project.sol only\n    if (checkStateChange() == false) {\n      require(now < validationStart + validationPeriod);\n      if (_validationState == true && validatedAffirmative[_staker] + _tokens > validatedAffirmative[_staker] && totalValidateAffirmative + _tokens > totalValidateAffirmative) {\n        validatedAffirmative[_staker] += _tokens;\n        totalValidateAffirmative += _tokens;\n        return true;\n      }\n      else if (_validationState == false && validatedNegative[_staker] + _tokens > validatedNegative[_staker] && totalValidateNegative + _tokens > totalValidateNegative){\n        validatedNegative[msg.sender] += _tokens;\n        totalValidateNegative += _tokens;\n        return true;\n      }\n      return false;\n    }\n  }\n\n  function handleVoteResult(bool passed) internal {\n    if(!passed) {               //project fails\n      TokenHolderRegistry(tokenHolderRegistry).updateTotal(projectId, totalCapitalStaked);\n      WorkerRegistry(workerRegistry).updateTotal(projectId, totalWorkerStaked);\n      totalCapitalStaked = 0;\n      totalWorkerStaked = 0;\n      validateReward = totalValidateAffirmative;\n      if (validateReward == 0) {\n        validateFlag = true;\n      }\n      totalValidateAffirmative = 0;\n    }\n    else {                                              //project succeeds\n      validateReward = totalValidateNegative;\n      if (validateReward == 0) {\n        validateFlag = true;\n      totalValidateNegative = 0;\n      }\n    }\n  }\n\n  // =====================================================================\n  // VALIDATED / FAILED PROJECT\n  // =====================================================================\n\n  function refundStaker(address _staker) public returns (uint256 _refund) {  //called by THR or WR, allow return of staked, validated, and\n    require(msg.sender == tokenHolderRegistry ||  msg.sender == workerRegistry);\n    require(projectState == State.Validated || projectState == State.Failed);\n    uint256 refund;     //tokens\n    uint256 spoils;     //wei\n    if (msg.sender == tokenHolderRegistry) {\n\n      if(totalCapitalStaked != 0) {\n        refund = stakedCapitalBalances[_staker];\n        stakedCapitalBalances[_staker] = 0;\n      }\n\n      if(totalValidateNegative != 0) {\n        refund += validatedNegative[_staker];\n        if (validateFlag == false) {\n          refund += validateReward * validatedNegative[_staker] / totalValidateNegative;\n        }\n        else if (validateFlag == true) {\n          spoils = capitalETHCost * validatedNegative[_staker] / totalValidateNegative;\n          TokenHolderRegistry(tokenHolderRegistry).rewardValidator(projectId, _staker, spoils);\n        }\n        validatedNegative[_staker] = 0;\n      }\n\n      if(totalValidateAffirmative != 0) {\n        refund += validatedAffirmative[_staker];\n        if (validateFlag == false) {\n          refund += validateReward * validatedAffirmative[_staker] / totalValidateAffirmative;\n        }\n        else if (validateFlag == true) {\n          spoils = capitalETHCost * validatedAffirmative[_staker] / totalValidateAffirmative;\n          TokenHolderRegistry(tokenHolderRegistry).rewardValidator(projectId, _staker, spoils);\n        }\n        validatedAffirmative[_staker] = 0;\n      }\n\n      return refund;\n    }\n\n    else if (msg.sender == workerRegistry) {\n      if(totalWorkerStaked != 0) {\n        refund = stakedWorkerBalances[_staker];\n        stakedWorkerBalances[_staker] = 0;\n      }\n\n      return refund;\n    }\n  }\n\n  function rewardWorker(address _staker) public onlyWR() onlyInState(State.Validated) returns (uint256 _reward) {\n    uint256 reward = 0;\n    for (uint256 i=0; i<tasks.length; i++) {\n      if(tasks[i].workerAddress == _staker) {\n        reward += tasks[i].ETHReward;\n        tasks[i].ETHReward = 0;\n      }\n    }\n    return reward;\n  }\n\n}\n",
  "sourcePath": "/Users/jessicamarshall/Desktop/Distribute/contracts/Project.sol",
  "schemaVersion": "1.0.0",
  "updatedAt": "2017-10-16T17:13:31.730Z"
}