{
  "contractName": "Project",
  "abi": [
    {
      "constant": false,
      "inputs": [
        {
          "name": "_tokens",
          "type": "uint256"
        },
        {
          "name": "_staker",
          "type": "address"
        }
      ],
      "name": "stakeWorkerToken",
      "outputs": [
        {
          "name": "success",
          "type": "bool"
        }
      ],
      "payable": false,
      "type": "function"
    },
    {
      "constant": false,
      "inputs": [
        {
          "name": "_tokens",
          "type": "uint256"
        },
        {
          "name": "_staker",
          "type": "address"
        }
      ],
      "name": "stakeCapitalToken",
      "outputs": [
        {
          "name": "success",
          "type": "bool"
        }
      ],
      "payable": false,
      "type": "function"
    },
    {
      "constant": false,
      "inputs": [
        {
          "name": "_tokens",
          "type": "uint256"
        },
        {
          "name": "_staker",
          "type": "address"
        }
      ],
      "name": "unstakeCapitalToken",
      "outputs": [
        {
          "name": "success",
          "type": "bool"
        }
      ],
      "payable": false,
      "type": "function"
    },
    {
      "constant": false,
      "inputs": [],
      "name": "completeTask",
      "outputs": [
        {
          "name": "success",
          "type": "bool"
        }
      ],
      "payable": false,
      "type": "function"
    },
    {
      "constant": false,
      "inputs": [
        {
          "name": "_staker",
          "type": "address"
        }
      ],
      "name": "refundStaker",
      "outputs": [
        {
          "name": "_refund",
          "type": "uint256"
        }
      ],
      "payable": false,
      "type": "function"
    },
    {
      "constant": true,
      "inputs": [],
      "name": "capitalETHCost",
      "outputs": [
        {
          "name": "",
          "type": "uint256"
        }
      ],
      "payable": false,
      "type": "function"
    },
    {
      "constant": false,
      "inputs": [
        {
          "name": "_staker",
          "type": "address"
        }
      ],
      "name": "rewardWorker",
      "outputs": [
        {
          "name": "_reward",
          "type": "uint256"
        }
      ],
      "payable": false,
      "type": "function"
    },
    {
      "constant": false,
      "inputs": [
        {
          "name": "_workerAddress",
          "type": "address"
        },
        {
          "name": "_description",
          "type": "string"
        },
        {
          "name": "_workerReward",
          "type": "uint256"
        }
      ],
      "name": "addTask",
      "outputs": [],
      "payable": false,
      "type": "function"
    },
    {
      "constant": true,
      "inputs": [],
      "name": "projectState",
      "outputs": [
        {
          "name": "",
          "type": "uint8"
        }
      ],
      "payable": false,
      "type": "function"
    },
    {
      "constant": false,
      "inputs": [],
      "name": "refundProposer",
      "outputs": [
        {
          "name": "_proposerStake",
          "type": "uint256"
        }
      ],
      "payable": false,
      "type": "function"
    },
    {
      "constant": false,
      "inputs": [
        {
          "name": "_staker",
          "type": "address"
        },
        {
          "name": "_tokens",
          "type": "uint256"
        },
        {
          "name": "_validationState",
          "type": "bool"
        }
      ],
      "name": "validate",
      "outputs": [
        {
          "name": "success",
          "type": "bool"
        }
      ],
      "payable": false,
      "type": "function"
    },
    {
      "constant": false,
      "inputs": [
        {
          "name": "_staker",
          "type": "address"
        },
        {
          "name": "_tokens",
          "type": "uint256"
        },
        {
          "name": "_votingState",
          "type": "bool"
        }
      ],
      "name": "vote",
      "outputs": [
        {
          "name": "success",
          "type": "bool"
        }
      ],
      "payable": false,
      "type": "function"
    },
    {
      "constant": false,
      "inputs": [
        {
          "name": "_tokens",
          "type": "uint256"
        },
        {
          "name": "_staker",
          "type": "address"
        }
      ],
      "name": "unstakeWorkerToken",
      "outputs": [
        {
          "name": "success",
          "type": "bool"
        }
      ],
      "payable": false,
      "type": "function"
    },
    {
      "inputs": [
        {
          "name": "_id",
          "type": "uint256"
        },
        {
          "name": "_cost",
          "type": "uint256"
        },
        {
          "name": "_projectDeadline",
          "type": "uint256"
        },
        {
          "name": "_proposerStake",
          "type": "uint256"
        }
      ],
      "payable": false,
      "type": "constructor"
    }
  ],
  "bytecode": "0x6060604052341561000f57600080fd5b6040516080806113c7833981016040528080519190602001805191906020018051919060200180519150505b60008054600160a060020a03191633600160a060020a03161781556002859055600384905560078390556019805460ff19166001835b02179055506006819055600060088190556009819055600a82026004556005555b505050505b611321806100a66000396000f300606060405236156100a95763ffffffff60e060020a6000350416630475722181146100ae578063121acdfb146100e457806328555c1f1461011a57806343bb8db5146101505780635c352318146101775780635f4e6b06146101a8578063638678db146101cd5780636f233f5f146101fe578063748807ab1461026157806392eec3bc146102985780639e2550bd146102bd578063e1a02577146102f8578063fe12c92a14610333575b600080fd5b34156100b957600080fd5b6100d0600435600160a060020a0360243516610369565b604051901515815260200160405180910390f35b34156100ef57600080fd5b6100d0600435600160a060020a0360243516610421565b604051901515815260200160405180910390f35b341561012557600080fd5b6100d0600435600160a060020a03602435166104ec565b604051901515815260200160405180910390f35b341561015b57600080fd5b6100d06105d6565b604051901515815260200160405180910390f35b341561018257600080fd5b610196600160a060020a03600435166106fa565b60405190815260200160405180910390f35b34156101b357600080fd5b6101966108b1565b60405190815260200160405180910390f35b34156101d857600080fd5b610196600160a060020a03600435166108b7565b60405190815260200160405180910390f35b341561020957600080fd5b61025f60048035600160a060020a03169060446024803590810190830135806020601f8201819004810201604051908101604052818152929190602084018383808284375094965050933593506109b092505050565b005b341561026c57600080fd5b610274610ab5565b6040518082600581111561028457fe5b60ff16815260200191505060405180910390f35b34156102a357600080fd5b610196610abe565b60405190815260200160405180910390f35b34156102c857600080fd5b6100d0600160a060020a03600435166024356044351515610b1c565b604051901515815260200160405180910390f35b341561030357600080fd5b6100d0600160a060020a03600435166024356044351515610c60565b604051901515815260200160405180910390f35b341561033e57600080fd5b6100d0600435600160a060020a0360243516610dda565b604051901515815260200160405180910390f35b60015460009033600160a060020a0390811691161461038757600080fd5b6000805b60195460ff16600581111561039c57fe5b146103a657600080fd5b600754428190106103b657600080fd5b6103be610ebd565b1580156103e45750600160a060020a0384166000908152600b6020526040902054858101115b1561041057600160a060020a0384166000908152600b6020526040902080548601905560019250610415565b600092505b5b5b505b505b92915050565b6000805433600160a060020a0390811691161461043d57600080fd5b6000805b60195460ff16600581111561045257fe5b1461045c57600080fd5b6007544281901061046c57600080fd5b610474610ebd565b15801561049a5750600160a060020a0384166000908152600a6020526040902054858101115b1561041057600160a060020a0384166000908152600a6020526040902080548601905560088054860190556104cd610ebd565b5060019250610415565b60009250610415565b5b5b505b505b92915050565b6000805433600160a060020a0390811691161461050857600080fd5b6000805b60195460ff16600581111561051d57fe5b1461052757600080fd5b6007544281901061053757600080fd5b61053f610ebd565b1580156105655750600160a060020a0384166000908152600a6020526040902054858103105b801561058b5750600160a060020a0384166000908152600a602052604081205486900310155b1561041057600160a060020a0384166000908152600a602052604090208054869003905560088054869003905560019250610415565b60009250610415565b5b5b505b505b92915050565b6000806001805b60195460ff1660058111156105ee57fe5b146105f857600080fd5b60015433600160a060020a0390811691161461061357600080fd5b61061b610ebd565b15156106ee57600091505b600c548210156106e55733600160a060020a0316600c8381548110151561064957fe5b906000526020600020906004020160005b5054600160a060020a03161480156106965750600c80548390811061067b57fe5b906000526020600020906004020160005b506002015460ff16155b156106d9576001600c838154811015156106ac57fe5b906000526020600020906004020160005b50600201805460ff1916911515919091179055600192506106f3565b5b600190910190610626565b600092506106f3565b600092505b5b5b505090565b60008054819033600160a060020a0390811691161480610728575060015433600160a060020a039081169116145b151561073357600080fd5b60035b60195460ff16600581111561074757fe5b1480610764575060055b60195460ff16600581111561076257fe5b145b151561076f57600080fd5b60005433600160a060020a039081169116141561083557600854156107ad5750600160a060020a0382166000908152600a6020526040812080549190555b601254156107d457600160a060020a0383166000908152600e602052604081208054919055015b601154156107fb57600160a060020a0383166000908152600d602052604081208054919055015b600160a060020a038316600090815260156020908152604080832080549084905560149092528220805492905591909101019050806108a9565b60015433600160a060020a03908116911614156108a957600954156107fb5750600160a060020a0382166000908152600b6020526040812080549190555b600160a060020a038316600090815260156020908152604080832080549084905560149092528220805492905591909101019050805b5b5b50919050565b60035481565b6001546000908190819033600160a060020a039081169116146108d957600080fd5b6003805b60195460ff1660058111156108ee57fe5b146108f857600080fd5b60009250600091505b600c548210156109a25784600160a060020a0316600c8381548110151561092457fe5b906000526020600020906004020160005b5054600160a060020a0316141561099657600c80548390811061095457fe5b906000526020600020906004020160005b5060030154830192506000600c8381548110151561097f57fe5b906000526020600020906004020160005b50600301555b5b600190910190610901565b8293505b5b505b5050919050565b6001805b60195460ff1660058111156109c557fe5b146109cf57600080fd5b600754428190106109df57600080fd5b6109e7610ebd565b1515610aab57600c8054600181016109ff8382611180565b916000526020600020906004020160005b60806040519081016040908152600160a060020a038a16825260208201899052600090820152606081018790529190508151815473ffffffffffffffffffffffffffffffffffffffff1916600160a060020a0391909116178155602082015181600101908051610a849291602001906111b2565b50604082015160028201805460ff1916911515919091179055606082015181600301555050505b5b5b505b50505050565b60195460ff1681565b60008054819033600160a060020a03908116911614610adc57600080fd5b60005b60195460ff166005811115610af057fe5b14158015610aff575060065415155b1515610b0a57600080fd5b5050600680546000909155805b5b5090565b6000805433600160a060020a03908116911614610b3857600080fd5b6002805b60195460ff166005811115610b4d57fe5b14610b5757600080fd5b610b5f610ebd565b1515610c5557601054600f54014210610b7757600080fd5b6001831515148015610ba25750600160a060020a0385166000908152600d6020526040902054848101115b8015610bb15750601154848101115b15610be557600160a060020a0385166000908152600d60205260409020805485019055601180548501905560019150610c55565b82158015610c0c5750600160a060020a0385166000908152600e6020526040902054848101115b8015610c1b5750601254848101115b15610c4f57600160a060020a0333166000908152600e60205260409020805485019055601280548501905560019150610c55565b5b600091505b5b5b505b9392505050565b60006002805b60195460ff166005811115610c7757fe5b14610c8157600080fd5b610c89610ebd565b1515610c5557601054600f540142118015610cad5750601654601054600f54010142105b1515610cb857600080fd5b60005433600160a060020a0390811691161480610ce3575060015433600160a060020a039081169116145b1515610cee57600080fd5b6001831515148015610d195750600160a060020a038516600090815260146020526040902054848101115b8015610d285750601754848101115b15610d5c57600160a060020a0385166000908152601460205260409020805485019055601780548501905560019150610c55565b82158015610d835750600160a060020a038516600090815260156020526040902054848101115b8015610d925750601854848101115b15610c4f57600160a060020a0333166000908152601560205260409020805485019055601880548501905560019150610c55565b5b60009150610c55565b5b5b509392505050565b60015460009033600160a060020a03908116911614610df857600080fd5b6000805b60195460ff166005811115610e0d57fe5b14610e1757600080fd5b60075442819010610e2757600080fd5b610e2f610ebd565b158015610e555750600160a060020a0384166000908152600b6020526040902054858103105b8015610e7b5750600160a060020a0384166000908152600b602052604081205486900310155b1561041057600160a060020a0384166000908152600b602052604090208054869003905560019250610415565b60009250610415565b5b5b505b505b92915050565b600080805b60195460ff166005811115610ed357fe5b1415610f215760045460085410158015610ef1575060055460095410155b15610f1357601980546001919060ff191682805b021790555060019150610b17565b60009150610b17565b610b17565b60015b60195460ff166005811115610f3557fe5b1415610fda575060005b600c54811015610fb457600c805482908110610f5757fe5b906000526020600020906004020160005b506002015460ff161515610fab57600754421115610f1357601980546004919060ff1916600183610f05565b021790555060019150610b17565b60009150610b17565b5b600101610f3f565b42600f55601980546002919060ff1916600183610f05565b021790555060019150610b17565b60025b60195460ff166005811115610fee57fe5b1415610b1757601654601054600f540101421115610f1357601754601854111561103c5761101a611077565b601980546005919060ff1916600183610f05565b021790555060019150610b17565b611044611077565b601980546003919060ff1916600183610f05565b021790555060019150610b17565b5b60009150610b17565b5b5b5b5090565b601754601854111561117157600054600254600854600160a060020a0390921691638417a061919060405160e060020a63ffffffff851602815260048101929092526024820152604401600060405180830381600087803b15156110da57600080fd5b6102c65a03f115156110eb57600080fd5b5050600154600254600954600160a060020a039092169250638417a0619160405160e060020a63ffffffff851602815260048101929092526024820152604401600060405180830381600087803b151561114457600080fd5b6102c65a03f1151561115557600080fd5b505060006008819055600981905560118054601355555061117d565b60128054601355600090555b5b565b8154818355818115116111ac576004028160040283600052602060002091820191016111ac9190611231565b5b505050565b828054600181600116156101000203166002900490600052602060002090601f016020900481019282601f106111f357805160ff1916838001178555611220565b82800160010185558215611220579182015b82811115611220578251825591602001919060010190611205565b5b50610b1792915061128c565b5090565b61128991905b80821115610b1757805473ffffffffffffffffffffffffffffffffffffffff19168155600061126960018301826112ad565b5060028101805460ff1916905560006003820155600401611237565b5090565b90565b61128991905b80821115610b175760008155600101611292565b5090565b90565b50805460018160011615610100020316600290046000825580601f106112d357506112f1565b601f0160209004906000526020600020908101906112f1919061128c565b5b505600a165627a7a72305820b1ff0a53b0a9b9e4b5cc44308661de0e525c74dcc8b14b889fb03ac320a77fde0029",
  "source": "pragma solidity ^0.4.10;\n\n//import files\nimport \"./TokenHolderRegistry.sol\";\nimport \"./WorkerRegistry.sol\";\n\n/*\n  a created project\n*/\n\ncontract Project{\n\n// =====================================================================\n// STATE VARIABLES\n// =====================================================================\n\n  address tokenHolderRegistry;    //connect to THR\n  address workerRegistry;         //connect to WR\n\n  uint256 projectId;\n\n  uint256 public capitalETHCost;\n  uint256 capitalCost;            //total amount of staked capital in tokens needed\n  uint256 workerCost;             //total amount of staked worker tokens needed, one to one with capital tokens\n\n  uint256 proposerStake;          //amount of capital tokens the proposer stakes\n  uint256 projectDeadline;\n\n  //keep track of staking on proposed project\n  uint256 totalCapitalStaked;     //amount of capital tokens currently staked\n  uint256 totalWorkerStaked;      //amount of worker tokens currently staked\n  mapping (address => uint) stakedCapitalBalances;\n  mapping (address => uint) stakedWorkerBalances;\n\n  Task[] tasks;   //array of tasks for this project\n\n  struct Task {\n    address workerAddress;    //which worker is assigned to this task\n    string description;       //brief description of task\n    bool taskComplete;\n    //uint256 taskHash;\n    //uint256 escrowTokens;   //tokens paid to sign up for task, amount they will earn if validated\n    uint256 ETHReward;        //for now hard-coded\n  }\n\n  //keep track of validating complete project\n  mapping (address => uint) validatedAffirmative;\n  mapping (address => uint) validatedNegative;\n  uint256 validationStart;\n  uint256 validationPeriod;\n  uint256 totalValidateAffirmative;\n  uint256 totalValidateNegative;\n  uint256 validateReward;\n\n  //keep track of voting complete project\n  mapping (address => uint) votedAffirmative;\n  mapping (address => uint) votedNegative;\n  uint256 votingPeriod;\n  uint256 totalVoteAffirmative;\n  uint256 totalVoteNegative;\n\n  //project states & deadlines\n  State public projectState;\n  enum State {\n    Proposed,\n    Active,\n    Completed,\n    Validated,\n    Incomplete,\n    Failed\n  }\n\n// =====================================================================\n// EVENTS\n// =====================================================================\n\n// =====================================================================\n// MODIFIERS\n// =====================================================================\n\n  modifier onlyInState(State _state) {\n    require(projectState == _state);\n    _;\n  }\n\n  modifier onlyBefore(uint256 time) {\n    require(now < time);\n    _;\n  }\n\n  modifier onlyTHR() {\n    require(msg.sender == tokenHolderRegistry);\n    _;\n  }\n\n  modifier onlyWR() {\n    require(msg.sender == workerRegistry);\n    _;\n  }\n\n// =====================================================================\n// FUNCTIONS\n// =====================================================================\n\n  // =====================================================================\n  // CONSTRUCTOR\n  // =====================================================================\n\n  function Project(uint256 _id, uint256 _cost, uint256 _projectDeadline, uint256 _proposerStake) {       //called by THR\n    //all checks done in THR first\n    tokenHolderRegistry = msg.sender;     //the token holder registry calls this function\n    projectId = _id;\n    capitalETHCost = _cost;\n    projectDeadline = _projectDeadline;\n    projectState = State.Proposed;\n    proposerStake = _proposerStake;\n    totalCapitalStaked = 0;\n    totalWorkerStaked = 0;\n    capitalCost = 10 * _proposerStake;      //for testing\n    workerCost = 0;                         //for testing\n  }\n\n  // =====================================================================\n  // GENERAL FUNCTIONS\n  // =====================================================================\n\n  function checkStateChange() internal returns (bool stateChange) {                              //general state change function\n    if (projectState == State.Proposed) {\n      if (totalCapitalStaked >= capitalCost && totalWorkerStaked >= workerCost)\n        {\n          projectState = State.Active;\n          return true;\n        }\n        else {\n          return false;\n      }\n    }\n\n    else if (projectState == State.Active) {\n      for (uint256 i = 0; i < tasks.length; i++) {\n        if (tasks[i].taskComplete == false) {\n          if (now > projectDeadline) {\n            projectState = State.Incomplete;\n            return true;\n          }\n          return false;\n        }\n      }\n      validationStart = now;\n      projectState = State.Completed;\n      return true;\n      }\n\n    else if (projectState == State.Completed) {\n      if(now > validationStart + validationPeriod + votingPeriod) {\n        if (totalVoteNegative > totalVoteAffirmative) {\n          handleVoteResult();                   //prevent stakers from withdrawing before burning their tokens\n          projectState = State.Failed;\n          return true;\n        }\n        else {\n          handleVoteResult();\n          projectState = State.Validated;\n          return true;\n        }\n      }\n      return false;\n    }\n  }\n\n  // =====================================================================\n  // PROPOSED PROJECT - STAKING FUNCTIONS\n  // =====================================================================\n\n  function refundProposer() onlyTHR() returns (uint256 _proposerStake) {   //called by THR, decrements proposer tokens in Project.sol\n    require(projectState != State.Proposed && proposerStake != 0);         //make sure out of proposed state & msg.sender is the proposer\n    uint256 temp = proposerStake;\n    proposerStake = 0;\n    return temp;\n  }\n\n  function stakeCapitalToken(uint256 _tokens, address _staker) onlyTHR() onlyInState(State.Proposed) onlyBefore(projectDeadline) returns (bool success) {  //called by THR, increments _staker tokens in Project.sol\n    if (checkStateChange() == false &&\n         stakedCapitalBalances[_staker] + _tokens > stakedCapitalBalances[_staker]) {\n        stakedCapitalBalances[_staker] += _tokens;\n        totalCapitalStaked += _tokens;\n        checkStateChange();\n        return true;\n    } else {\n      return false;\n    }\n  }\n\n  function unstakeCapitalToken(uint256 _tokens, address _staker) onlyTHR() onlyInState(State.Proposed) onlyBefore(projectDeadline) returns (bool success) {    //called by THR only, decrements _staker tokens in Project.sol\n    if (checkStateChange() == false &&\n         stakedCapitalBalances[_staker] - _tokens < stakedCapitalBalances[_staker] &&   //check overflow\n         stakedCapitalBalances[_staker] - _tokens >= 0) {    //make sure _staker has the tokens staked to unstake\n           stakedCapitalBalances[_staker] -= _tokens;\n           totalCapitalStaked -= _tokens;\n           return true;\n    } else {\n      return false;\n    }\n  }\n\n  function stakeWorkerToken(uint256 _tokens, address _staker) onlyWR() onlyInState(State.Proposed) onlyBefore(projectDeadline) returns (bool success) {\n    if (checkStateChange() == false &&\n         stakedWorkerBalances[_staker] + _tokens > stakedWorkerBalances[_staker]) {\n        stakedWorkerBalances[_staker] += _tokens;\n        return true;\n    } else {\n      return false;\n    }\n  }\n\n  function unstakeWorkerToken(uint256 _tokens, address _staker) onlyWR() onlyInState(State.Proposed) onlyBefore(projectDeadline) returns (bool success) {\n    if (checkStateChange() == false &&\n         stakedWorkerBalances[_staker] - _tokens < stakedWorkerBalances[_staker] &&   //check overflow\n         stakedWorkerBalances[_staker] - _tokens >= 0) {    //make sure _staker has the tokens staked to unstake\n           stakedWorkerBalances[_staker] -= _tokens;\n           return true;\n    } else {\n      return false;\n    }\n  }\n\n  // =====================================================================\n  // ACTIVE PROJECT FUNCTIONS\n  // =====================================================================\n\n  function addTask(address _workerAddress, string _description, uint256 _workerReward) onlyInState(State.Active) onlyBefore(projectDeadline) {     //uclear who can call this, needs to be restricted to consensus-based tasks\n    if (checkStateChange() == false) {\n      tasks.push(Task(_workerAddress, _description, false, _workerReward));\n    }\n  }\n\n  function completeTask() onlyInState(State.Active) onlyWR() returns (bool success) {  //can only be called by worker in task\n    if (checkStateChange() == false) {\n      for (uint256 i=0; i<tasks.length; i++) {\n        if(tasks[i].workerAddress == msg.sender && tasks[i].taskComplete == false) {\n          tasks[i].taskComplete = true;\n          return true;\n        }\n      }\n      return false;\n    }\n    return false;\n  }\n\n  // =====================================================================\n  // COMPLETED PROJECT - VALIDATION & VOTING FUNCTIONALITY\n  // =====================================================================\n\n  function validate(address _staker, uint256 _tokens, bool _validationState) onlyTHR() onlyInState(State.Completed) returns (bool success) {\n    //checks for free tokens done in THR\n    //increments validation tokens in Project.sol only\n    if (checkStateChange() == false) {\n      require(now < validationStart + validationPeriod);\n      if (_validationState == true && validatedAffirmative[_staker] + _tokens > validatedAffirmative[_staker] && totalValidateAffirmative + _tokens > totalValidateAffirmative) {\n        validatedAffirmative[_staker] += _tokens;\n        totalValidateAffirmative += _tokens;\n        return true;\n      }\n      else if (_validationState == false && validatedNegative[_staker] + _tokens > validatedNegative[_staker] && totalValidateNegative + _tokens > totalValidateNegative){\n        validatedNegative[msg.sender] += _tokens;\n        totalValidateNegative += _tokens;\n        return true;\n      }\n      return false;\n    }\n  }\n\n  function vote(address _staker, uint256 _tokens, bool _votingState) onlyInState(State.Completed) returns (bool success) {\n    if (checkStateChange() == false) {\n      require(now > validationStart + validationPeriod && now < validationStart + validationPeriod + votingPeriod);\n      require(msg.sender == tokenHolderRegistry ||  msg.sender == workerRegistry);\n      if (_votingState == true && votedAffirmative[_staker] + _tokens > votedAffirmative[_staker] && totalVoteAffirmative + _tokens > totalVoteAffirmative) {\n        votedAffirmative[_staker] += _tokens;\n        totalVoteAffirmative += _tokens;\n        return true;\n      }\n      else if (_votingState == false && votedNegative[_staker] + _tokens > votedNegative[_staker] && totalVoteNegative + _tokens > totalVoteNegative){\n        votedNegative[msg.sender] += _tokens;\n        totalVoteNegative += _tokens;\n        return true;\n      }\n      return false;\n    }\n  }\n\n  function handleVoteResult() internal {\n    if(totalVoteNegative > totalVoteAffirmative) {      //project fails\n      TokenHolderRegistry(tokenHolderRegistry).updateTotal(projectId, totalCapitalStaked);\n      WorkerRegistry(workerRegistry).updateTotal(projectId, totalWorkerStaked);\n      totalCapitalStaked = 0;\n      totalWorkerStaked = 0;\n      validateReward = totalValidateAffirmative;\n      totalValidateAffirmative = 0;\n    }\n    else {                                              //project succeeds\n      validateReward = totalValidateNegative;\n      totalValidateNegative = 0;\n    }\n  }\n\n  // =====================================================================\n  // VALIDATED / FAILED PROJECT\n  // =====================================================================\n\n  function refundStaker(address _staker) returns (uint256 _refund) {  //called by THR or WR, allow return of staked, validated, and\n    require(msg.sender == tokenHolderRegistry ||  msg.sender == workerRegistry);\n    require(projectState == State.Validated || projectState == State.Failed);\n    uint256 refund;\n    if (msg.sender == tokenHolderRegistry) {\n      if(totalCapitalStaked != 0) {\n        refund = stakedCapitalBalances[_staker];\n        stakedCapitalBalances[_staker] = 0;\n      }\n      if(totalValidateNegative != 0) {\n        refund += validatedNegative[_staker];\n        validatedNegative[_staker] = 0;\n        //plus validation reward\n      }\n      if(totalValidateAffirmative != 0) {\n        refund += validatedAffirmative[_staker];\n        validatedAffirmative[_staker] = 0;\n        //plus validation reward\n      }\n      refund += votedNegative[_staker];\n      votedNegative[_staker] = 0;\n      refund += votedAffirmative[_staker];\n      votedAffirmative[_staker] = 0;\n      return refund;\n    }\n\n    else if (msg.sender == workerRegistry) {\n      if(totalWorkerStaked != 0) {\n        refund = stakedWorkerBalances[_staker];\n        stakedWorkerBalances[_staker] = 0;\n      }\n      refund += votedNegative[_staker];\n      votedNegative[_staker] = 0;\n      refund += votedAffirmative[_staker];\n      votedAffirmative[_staker] = 0;\n      return refund;\n    }\n  }\n\n  function rewardWorker(address _staker) onlyWR() onlyInState(State.Validated) returns (uint256 _reward) {\n    uint256 reward = 0;\n    for (uint256 i=0; i<tasks.length; i++) {\n      if(tasks[i].workerAddress == _staker) {\n        reward += tasks[i].ETHReward;\n        tasks[i].ETHReward = 0;\n      }\n    }\n    return reward;\n  }\n\n}\n",
  "sourcePath": "/Users/jessicamarshall/Desktop/Distribute/contracts/Project.sol",
  "schemaVersion": "1.0.0",
  "updatedAt": "2017-10-08T21:03:20.466Z"
}