{
  "contractName": "StandardToken",
  "abi": [
    {
      "constant": false,
      "inputs": [
        {
          "name": "_spender",
          "type": "address"
        },
        {
          "name": "_value",
          "type": "uint256"
        }
      ],
      "name": "approve",
      "outputs": [
        {
          "name": "success",
          "type": "bool"
        }
      ],
      "payable": false,
      "stateMutability": "nonpayable",
      "type": "function"
    },
    {
      "constant": true,
      "inputs": [],
      "name": "totalSupply",
      "outputs": [
        {
          "name": "",
          "type": "uint256"
        }
      ],
      "payable": false,
      "stateMutability": "view",
      "type": "function"
    },
    {
      "constant": false,
      "inputs": [
        {
          "name": "_from",
          "type": "address"
        },
        {
          "name": "_to",
          "type": "address"
        },
        {
          "name": "_value",
          "type": "uint256"
        }
      ],
      "name": "transferFrom",
      "outputs": [
        {
          "name": "success",
          "type": "bool"
        }
      ],
      "payable": false,
      "stateMutability": "nonpayable",
      "type": "function"
    },
    {
      "constant": true,
      "inputs": [
        {
          "name": "",
          "type": "address"
        }
      ],
      "name": "balances",
      "outputs": [
        {
          "name": "",
          "type": "uint256"
        }
      ],
      "payable": false,
      "stateMutability": "view",
      "type": "function"
    },
    {
      "constant": true,
      "inputs": [
        {
          "name": "_owner",
          "type": "address"
        }
      ],
      "name": "balanceOf",
      "outputs": [
        {
          "name": "balance",
          "type": "uint256"
        }
      ],
      "payable": false,
      "stateMutability": "view",
      "type": "function"
    },
    {
      "constant": false,
      "inputs": [
        {
          "name": "_to",
          "type": "address"
        },
        {
          "name": "_value",
          "type": "uint256"
        }
      ],
      "name": "transfer",
      "outputs": [
        {
          "name": "success",
          "type": "bool"
        }
      ],
      "payable": false,
      "stateMutability": "nonpayable",
      "type": "function"
    },
    {
      "constant": true,
      "inputs": [
        {
          "name": "_owner",
          "type": "address"
        },
        {
          "name": "_spender",
          "type": "address"
        }
      ],
      "name": "allowance",
      "outputs": [
        {
          "name": "remaining",
          "type": "uint256"
        }
      ],
      "payable": false,
      "stateMutability": "view",
      "type": "function"
    },
    {
      "anonymous": false,
      "inputs": [
        {
          "indexed": true,
          "name": "_from",
          "type": "address"
        },
        {
          "indexed": true,
          "name": "_to",
          "type": "address"
        },
        {
          "indexed": false,
          "name": "_value",
          "type": "uint256"
        }
      ],
      "name": "Transfer",
      "type": "event"
    },
    {
      "anonymous": false,
      "inputs": [
        {
          "indexed": true,
          "name": "_owner",
          "type": "address"
        },
        {
          "indexed": true,
          "name": "_spender",
          "type": "address"
        },
        {
          "indexed": false,
          "name": "_value",
          "type": "uint256"
        }
      ],
      "name": "Approval",
      "type": "event"
    }
  ],
  "bytecode": "0x6060604052341561000f57600080fd5b6104008061001e6000396000f300606060405236156100805763ffffffff7c0100000000000000000000000000000000000000000000000000000000600035041663095ea7b3811461008557806318160ddd146100bb57806323b872dd146100e057806327e235e31461010857806370a0823114610127578063a9059cbb14610146578063dd62ed3e14610168575b600080fd5b341561009057600080fd5b6100a7600160a060020a036004351660243561018d565b604051901515815260200160405180910390f35b34156100c657600080fd5b6100ce6101f9565b60405190815260200160405180910390f35b34156100eb57600080fd5b6100a7600160a060020a03600435811690602435166044356101ff565b341561011357600080fd5b6100ce600160a060020a03600435166102e8565b341561013257600080fd5b6100ce600160a060020a03600435166102fa565b341561015157600080fd5b6100a7600160a060020a0360043516602435610315565b341561017357600080fd5b6100ce600160a060020a03600435811690602435166103a9565b600160a060020a03338116600081815260026020908152604080832094871680845294909152808220859055909291907f8c5be1e5ebec7d5bd14f71427d1e84f3dd0314c0f7b2291e5b200ac8c7c3b9259085905190815260200160405180910390a350600192915050565b60005481565b600160a060020a03831660009081526001602052604081205482901080159061024f5750600160a060020a0380851660009081526002602090815260408083203390941683529290522054829010155b151561025a57600080fd5b600160a060020a03808416600081815260016020908152604080832080548801905588851680845281842080548990039055600283528184203390961684529490915290819020805486900390559091907fddf252ad1be2c89b69c2b068fc378daa952ba7f163c4a11628f55a4df523b3ef9085905190815260200160405180910390a35060019392505050565b60016020526000908152604090205481565b600160a060020a031660009081526001602052604090205490565b600160a060020a0333166000908152600160205260408120548290101561033b57600080fd5b600160a060020a033381166000818152600160205260408082208054879003905592861680825290839020805486019055917fddf252ad1be2c89b69c2b068fc378daa952ba7f163c4a11628f55a4df523b3ef9085905190815260200160405180910390a350600192915050565b600160a060020a039182166000908152600260209081526040808320939094168252919091522054905600a165627a7a72305820bbe60af7017e08af4a8b4e481fc7e717b7cb1b7b80ba59ab317ffd67c02add140029",
  "source": "/*\nYou should inherit from StandardToken or, for a token like you would want to\ndeploy in something like Mist, see HumanStandardToken.sol.\n(This implements ONLY the standard functions and NOTHING else.\nIf you deploy this, you won't have anything useful.)\n\nImplements ERC 20 Token standard: https://github.com/ethereum/EIPs/issues/20\n.*/\npragma solidity ^0.4.8;\n\n\ncontract StandardToken {\n\n    uint256 public totalSupply;\n\n    mapping(address => uint256) public balances;\n    mapping(address => mapping (address => uint256)) allowed;\n\n    function transfer(address _to, uint256 _value) public returns (bool success) {\n        //Default assumes totalSupply can't be over max (2^256 - 1).\n        //If your token leaves out totalSupply and can issue more tokens as time goes on, you need to check if it doesn't wrap.\n        //Replace the if with this one instead.\n        //require(balances[msg.sender] >= _value && balances[_to] + _value > balances[_to]);\n        require(balances[msg.sender] >= _value);\n        balances[msg.sender] -= _value;\n        balances[_to] += _value;\n        Transfer(msg.sender, _to, _value);\n        return true;\n    }\n\n    function transferFrom(address _from, address _to, uint256 _value) public returns (bool success) {\n        //same as above. Replace this line with the following if you want to protect against wrapping uints.\n        //require(balances[_from] >= _value && allowed[_from][msg.sender] >= _value && balances[_to] + _value > balances[_to]);\n        require(balances[_from] >= _value && allowed[_from][msg.sender] >= _value);\n        balances[_to] += _value;\n        balances[_from] -= _value;\n        allowed[_from][msg.sender] -= _value;\n        Transfer(_from, _to, _value);\n        return true;\n    }\n\n    function balanceOf(address _owner) public constant returns (uint256 balance) {\n        return balances[_owner];\n    }\n\n    function approve(address _spender, uint256 _value) public returns (bool success) {\n        allowed[msg.sender][_spender] = _value;\n        Approval(msg.sender, _spender, _value);\n        return true;\n    }\n\n    function allowance(address _owner, address _spender) public constant returns (uint256 remaining) {\n      return allowed[_owner][_spender];\n    }\n\n    event Transfer(address indexed _from, address indexed _to, uint256 _value);\n    event Approval(address indexed _owner, address indexed _spender, uint256 _value);\n\n}\n",
  "sourcePath": "/Users/jessicamarshall/Desktop/Distribute/contracts/StandardToken.sol",
  "schemaVersion": "1.0.0",
  "updatedAt": "2017-10-16T20:41:54.627Z"
}