{
  "contractName": "TokenHolderRegistry",
  "abi": [
    {
      "constant": true,
      "inputs": [],
      "name": "weiBal",
      "outputs": [
        {
          "name": "",
          "type": "uint256"
        }
      ],
      "payable": false,
      "type": "function"
    },
    {
      "constant": false,
      "inputs": [
        {
          "name": "_spender",
          "type": "address"
        },
        {
          "name": "_value",
          "type": "uint256"
        }
      ],
      "name": "approve",
      "outputs": [
        {
          "name": "success",
          "type": "bool"
        }
      ],
      "payable": false,
      "type": "function"
    },
    {
      "constant": false,
      "inputs": [
        {
          "name": "_projectId",
          "type": "uint256"
        }
      ],
      "name": "refundStaker",
      "outputs": [],
      "payable": false,
      "type": "function"
    },
    {
      "constant": false,
      "inputs": [
        {
          "name": "_worker",
          "type": "address"
        },
        {
          "name": "_reward",
          "type": "uint256"
        }
      ],
      "name": "rewardWorker",
      "outputs": [],
      "payable": false,
      "type": "function"
    },
    {
      "constant": true,
      "inputs": [],
      "name": "totalSupply",
      "outputs": [
        {
          "name": "",
          "type": "uint256"
        }
      ],
      "payable": false,
      "type": "function"
    },
    {
      "constant": false,
      "inputs": [
        {
          "name": "_workerRegistry",
          "type": "address"
        }
      ],
      "name": "init",
      "outputs": [],
      "payable": false,
      "type": "function"
    },
    {
      "constant": false,
      "inputs": [
        {
          "name": "_from",
          "type": "address"
        },
        {
          "name": "_to",
          "type": "address"
        },
        {
          "name": "_value",
          "type": "uint256"
        }
      ],
      "name": "transferFrom",
      "outputs": [
        {
          "name": "success",
          "type": "bool"
        }
      ],
      "payable": false,
      "type": "function"
    },
    {
      "constant": true,
      "inputs": [],
      "name": "projectNonce",
      "outputs": [
        {
          "name": "",
          "type": "uint256"
        }
      ],
      "payable": false,
      "type": "function"
    },
    {
      "constant": true,
      "inputs": [
        {
          "name": "",
          "type": "address"
        }
      ],
      "name": "balances",
      "outputs": [
        {
          "name": "",
          "type": "uint256"
        }
      ],
      "payable": false,
      "type": "function"
    },
    {
      "constant": true,
      "inputs": [],
      "name": "costPerToken",
      "outputs": [
        {
          "name": "",
          "type": "uint256"
        }
      ],
      "payable": false,
      "type": "function"
    },
    {
      "constant": false,
      "inputs": [
        {
          "name": "_projectId",
          "type": "uint256"
        }
      ],
      "name": "refundProposer",
      "outputs": [],
      "payable": false,
      "type": "function"
    },
    {
      "constant": false,
      "inputs": [
        {
          "name": "_id",
          "type": "uint256"
        }
      ],
      "name": "getProjectAddress",
      "outputs": [
        {
          "name": "",
          "type": "address"
        }
      ],
      "payable": false,
      "type": "function"
    },
    {
      "constant": true,
      "inputs": [],
      "name": "totalCapitalTokenSupply",
      "outputs": [
        {
          "name": "",
          "type": "uint256"
        }
      ],
      "payable": false,
      "type": "function"
    },
    {
      "constant": false,
      "inputs": [
        {
          "name": "_projectId",
          "type": "uint256"
        },
        {
          "name": "_tokens",
          "type": "uint256"
        },
        {
          "name": "_votingState",
          "type": "bool"
        }
      ],
      "name": "vote",
      "outputs": [],
      "payable": false,
      "type": "function"
    },
    {
      "constant": true,
      "inputs": [
        {
          "name": "_owner",
          "type": "address"
        }
      ],
      "name": "balanceOf",
      "outputs": [
        {
          "name": "balance",
          "type": "uint256"
        }
      ],
      "payable": false,
      "type": "function"
    },
    {
      "constant": false,
      "inputs": [
        {
          "name": "_cost",
          "type": "uint256"
        },
        {
          "name": "_projectDeadline",
          "type": "uint256"
        }
      ],
      "name": "proposeProject",
      "outputs": [],
      "payable": false,
      "type": "function"
    },
    {
      "constant": false,
      "inputs": [
        {
          "name": "_projectId",
          "type": "uint256"
        },
        {
          "name": "_tokens",
          "type": "uint256"
        }
      ],
      "name": "updateTotal",
      "outputs": [],
      "payable": false,
      "type": "function"
    },
    {
      "constant": false,
      "inputs": [
        {
          "name": "_projectId",
          "type": "uint256"
        },
        {
          "name": "_tokens",
          "type": "uint256"
        },
        {
          "name": "_validationState",
          "type": "bool"
        }
      ],
      "name": "validate",
      "outputs": [],
      "payable": false,
      "type": "function"
    },
    {
      "constant": false,
      "inputs": [
        {
          "name": "_tokens",
          "type": "uint256"
        }
      ],
      "name": "mint",
      "outputs": [],
      "payable": true,
      "type": "function"
    },
    {
      "constant": false,
      "inputs": [
        {
          "name": "_to",
          "type": "address"
        },
        {
          "name": "_value",
          "type": "uint256"
        }
      ],
      "name": "transfer",
      "outputs": [
        {
          "name": "success",
          "type": "bool"
        }
      ],
      "payable": false,
      "type": "function"
    },
    {
      "constant": true,
      "inputs": [],
      "name": "totalFreeCapitalTokenSupply",
      "outputs": [
        {
          "name": "",
          "type": "uint256"
        }
      ],
      "payable": false,
      "type": "function"
    },
    {
      "constant": false,
      "inputs": [
        {
          "name": "_amountToBurn",
          "type": "uint256"
        }
      ],
      "name": "burnAndRefund",
      "outputs": [
        {
          "name": "success",
          "type": "bool"
        }
      ],
      "payable": false,
      "type": "function"
    },
    {
      "constant": true,
      "inputs": [
        {
          "name": "_owner",
          "type": "address"
        },
        {
          "name": "_spender",
          "type": "address"
        }
      ],
      "name": "allowance",
      "outputs": [
        {
          "name": "remaining",
          "type": "uint256"
        }
      ],
      "payable": false,
      "type": "function"
    },
    {
      "constant": true,
      "inputs": [],
      "name": "MAX_UINT",
      "outputs": [
        {
          "name": "",
          "type": "uint256"
        }
      ],
      "payable": false,
      "type": "function"
    },
    {
      "constant": false,
      "inputs": [
        {
          "name": "_projectId",
          "type": "uint256"
        },
        {
          "name": "_tokens",
          "type": "uint256"
        }
      ],
      "name": "unstakeToken",
      "outputs": [],
      "payable": false,
      "type": "function"
    },
    {
      "constant": false,
      "inputs": [
        {
          "name": "_projectId",
          "type": "uint256"
        },
        {
          "name": "_tokens",
          "type": "uint256"
        }
      ],
      "name": "stakeToken",
      "outputs": [],
      "payable": false,
      "type": "function"
    },
    {
      "anonymous": false,
      "inputs": [
        {
          "indexed": false,
          "name": "amountMinted",
          "type": "uint256"
        },
        {
          "indexed": false,
          "name": "totalCost",
          "type": "uint256"
        }
      ],
      "name": "LogMint",
      "type": "event"
    },
    {
      "anonymous": false,
      "inputs": [
        {
          "indexed": false,
          "name": "amountWithdrawn",
          "type": "uint256"
        },
        {
          "indexed": false,
          "name": "reward",
          "type": "uint256"
        }
      ],
      "name": "LogWithdraw",
      "type": "event"
    },
    {
      "anonymous": false,
      "inputs": [
        {
          "indexed": false,
          "name": "newCost",
          "type": "uint256"
        }
      ],
      "name": "LogCostOfTokenUpdate",
      "type": "event"
    },
    {
      "anonymous": false,
      "inputs": [
        {
          "indexed": false,
          "name": "nonce",
          "type": "uint256"
        },
        {
          "indexed": false,
          "name": "proposalCostInTokens",
          "type": "uint256"
        },
        {
          "indexed": false,
          "name": "_value",
          "type": "uint256"
        }
      ],
      "name": "LogProposal",
      "type": "event"
    },
    {
      "anonymous": false,
      "inputs": [
        {
          "indexed": true,
          "name": "_owner",
          "type": "address"
        },
        {
          "indexed": true,
          "name": "_spender",
          "type": "address"
        },
        {
          "indexed": false,
          "name": "_value",
          "type": "uint256"
        }
      ],
      "name": "Approval",
      "type": "event"
    },
    {
      "anonymous": false,
      "inputs": [
        {
          "indexed": true,
          "name": "_from",
          "type": "address"
        },
        {
          "indexed": true,
          "name": "_to",
          "type": "address"
        },
        {
          "indexed": false,
          "name": "_value",
          "type": "uint256"
        }
      ],
      "name": "Transfer",
      "type": "event"
    }
  ],
  "bytecode": "0x606060405260006004556000600555600060065560146009556064600a55655af3107a4000600b556000600c55341561003757600080fd5b5b612700806100476000396000f300606060405236156101385763ffffffff60e060020a600035041663065d5d0a811461013d578063095ea7b3146101625780630d2efe3f146101985780630e119595146101b057806318160ddd146101d457806319ab453c146101f957806323b872dd1461021a57806326d2ce671461025657806327e235e31461027b5780633ba523c7146102ac578063443df4e6146102d15780634ca3e9b8146102e95780635eab72351461031b5780636a18ff7a1461034057806370a082311461036057806373450117146103915780638417a061146103ac5780639e7e3f82146103c7578063a0712d68146103e7578063a9059cbb146103f4578063b0d9e70c1461042a578063bbd838b21461044f578063dd62ed3e14610479578063e5b5019a146104b0578063ffa7a4a3146104d5578063ffab4bd9146104f0575b600080fd5b341561014857600080fd5b61015061050b565b60405190815260200160405180910390f35b341561016d57600080fd5b610184600160a060020a0360043516602435610511565b604051901515815260200160405180910390f35b34156101a357600080fd5b6101ae60043561057e565b005b34156101bb57600080fd5b6101ae600160a060020a036004351660243561062c565b005b34156101df57600080fd5b61015061067e565b60405190815260200160405180910390f35b341561020457600080fd5b6101ae600160a060020a0360043516610684565b005b341561022557600080fd5b610184600160a060020a03600435811690602435166044356106ba565b604051901515815260200160405180910390f35b341561026157600080fd5b6101506107a7565b60405190815260200160405180910390f35b341561028657600080fd5b610150600160a060020a03600435166107ad565b60405190815260200160405180910390f35b34156102b757600080fd5b6101506107bf565b60405190815260200160405180910390f35b34156102dc57600080fd5b6101ae6004356107c5565b005b34156102f457600080fd5b6102ff6004356108f4565b604051600160a060020a03909116815260200160405180910390f35b341561032657600080fd5b61015061094a565b60405190815260200160405180910390f35b341561034b57600080fd5b6101ae6004356024356044351515610950565b005b341561036b57600080fd5b610150600160a060020a0360043516610a62565b60405190815260200160405180910390f35b341561039c57600080fd5b6101ae600435602435610a81565b005b34156103b757600080fd5b6101ae600435602435610c0b565b005b34156103d257600080fd5b6101ae6004356024356044351515610c40565b005b6101ae600435610d52565b005b34156103ff57600080fd5b610184600160a060020a0360043516602435610e74565b604051901515815260200160405180910390f35b341561043557600080fd5b610150610f10565b60405190815260200160405180910390f35b341561045a57600080fd5b610184600435610f16565b604051901515815260200160405180910390f35b341561048457600080fd5b610150600160a060020a0360043581169060243516611013565b60405190815260200160405180910390f35b34156104bb57600080fd5b610150611040565b60405190815260200160405180910390f35b34156104e057600080fd5b6101ae600435602435611046565b005b34156104fb57600080fd5b6101ae600435602435611126565b005b600d5481565b600160a060020a03338116600081815260026020908152604080832094871680845294909152808220859055909291907f8c5be1e5ebec7d5bd14f71427d1e84f3dd0314c0f7b2291e5b200ac8c7c3b9259085905190815260200160405180910390a35060015b92915050565b60008181526007602052604080822054600160a060020a031690635c3523189033908490516020015260405160e060020a63ffffffff8416028152600160a060020a039091166004820152602401602060405180830381600087803b15156105e557600080fd5b6102c65a03f115156105f657600080fd5b50505060405180516005805482019055600160a060020a03331660009081526001602052604090208054820190559150505b5050565b60035433600160a060020a0390811691161461064757600080fd5b600160a060020a03821681156108fc0282604051600060405180830381858888f19350505050151561062857600080fd5b5b5b5050565b60005481565b6003805473ffffffffffffffffffffffffffffffffffffffff1916600160a060020a0383161790556106b6600061122b565b5b50565b600160a060020a03831660009081526001602052604081205482901080159061070a5750600160a060020a0380851660009081526002602090815260408083203390941683529290522054829010155b1561079b57600160a060020a03808416600081815260016020908152604080832080548801905588851680845281842080548990039055600283528184203390961684529490915290819020805486900390559091907fddf252ad1be2c89b69c2b068fc378daa952ba7f163c4a11628f55a4df523b3ef9085905190815260200160405180910390a350600161079f565b5060005b5b9392505050565b60065481565b60016020526000908152604090205481565b600c5481565b600081815260076020908152604080832054600160a060020a0390811684526008909252822054829182913382169116146107ff57600080fd5b60008481526007602052604080822054600160a060020a0316945084916392eec3bc9151602001526040518163ffffffff1660e060020a028152600401602060405180830381600087803b151561085557600080fd5b6102c65a03f1151561086657600080fd5b5050506040518051600160a060020a0333811660009081526001602090815260408083208054860190556005805486019055600a549389168352600890915290206002015491945091508115156108b957fe5b049050600160a060020a03331681156108fc0282604051600060405180830381858888f1935050505015156108ed57600080fd5b5b50505050565b60035460009033600160a060020a0390811691161461091257600080fd5b60065482111580156109245750600082115b156109435750600081815260076020526040902054600160a060020a03165b5b5b919050565b60045481565b600160a060020a03331660009081526001602052604081205483901080159061097b57506006548411155b80156109875750600084115b151561099257600080fd5b60008481526007602052604080822054600160a060020a03169163e1a025779133918791879190516020015260405160e060020a63ffffffff8616028152600160a060020a039093166004840152602483019190915215156044820152606401602060405180830381600087803b1515610a0b57600080fd5b6102c65a03f11515610a1c57600080fd5b5050506040518051915050600181151514610a3357fe5b600160a060020a0333166000908152600160205260409020805484900390556005805484900390555b50505050565b600160a060020a0381166000908152600160205260409020545b919050565b60008080808042869010610a9457600080fd5b610a9c611289565b94508487811515610aa957fe5b04935060095484811515610ab957fe5b600160a060020a033316600090815260016020526040902054919004935083901015610ae457600080fd5b600160a060020a0333166000908152600160208190526040918290208054869003905560058054869003905560068054909101908190557fcb5f110258c8d5b3cd6d9f87207254bc672c6d5bfd37e71ec14f0ce42160ec449185905191825260208201526040908101905180910390a1600654878785610b626112fd565b80858152602001848152602001838152602001828152602001945050505050604051809103906000f0801515610b9757600080fd5b6006546000908152600760209081526040808320805473ffffffffffffffffffffffffffffffffffffffff19908116600160a060020a038781169182179093558552600890935292208054909116339092169190911781556001810185905560020188905591508190505b50505050505050565b60008281526007602052604090205433600160a060020a03908116911614610c3257600080fd5b6004805482900390555b5050565b600160a060020a033316600090815260016020526040812054839010801590610c6b57506006548411155b8015610c775750600084115b1515610c8257600080fd5b60008481526007602052604080822054600160a060020a031691639e2550bd9133918791879190516020015260405160e060020a63ffffffff8616028152600160a060020a039093166004840152602483019190915215156044820152606401602060405180830381600087803b1515610a0b57600080fd5b6102c65a03f11515610a1c57600080fd5b5050506040518051915050600181151514610a3357fe5b600160a060020a0333166000908152600160205260409020805484900390556005805484900390555b50505050565b6000345b600c548110158015610d6757508282105b15610da35760001982600454011015610d9957600c5481039050600182019150610d94826004540161122b565b610d9e565b610da3565b610d56565b82821015610dbb5761013860045461122b565b600080fd5b6000811115610df557600160a060020a03331681156108fc0282604051600060405180830381858888f193505050501515610df557600080fd5b5b60048054830190556005805483019055600160a060020a03331660009081526001602052604090819020805484019055600d8054348490039081019091557fe7360c0fa1984a85874443100f5b25dd4f84192659660eb199f6c96e11defbcb918491905191825260208201526040908101905180910390a15b505050565b600160a060020a033316600090815260016020526040812054829010610f0157600160a060020a033381166000818152600160205260408082208054879003905592861680825290839020805486019055917fddf252ad1be2c89b69c2b068fc378daa952ba7f163c4a11628f55a4df523b3ef9085905190815260200160405180910390a3506001610578565b506000610578565b5b92915050565b60055481565b600080600083118015610f425750600160a060020a033316600090815260016020526040902054839010155b1561100757600454600d548402811515610f5857fe5b600160a060020a03331660008181526001602052604090819020805488900390556004805488900390556005805488900390559290910492509082156108fc0290839051600060405180830381858888f193505050501515610fb957600080fd5b610fc460045461122b565b7f210405eb88ac7589aa9de0a6e36b9c9d3cd6e4061b74363d250a77afe3c6efb7838260405191825260208201526040908101905180910390a16001915061100c565b600091505b5b50919050565b600160a060020a038083166000908152600260209081526040808320938516835292905220545b92915050565b60001981565b6000600654831115801561105a5750600083115b151561106557600080fd5b60008381526007602052604080822054600160a060020a0316916328555c1f9185913391516020015260405160e060020a63ffffffff85160281526004810192909252600160a060020a03166024820152604401602060405180830381600087803b15156110d257600080fd5b6102c65a03f115156110e357600080fd5b50505060405180519150506001811515146110fa57fe5b600160a060020a033316600090815260016020526040902080548301905560058054830190555b505050565b600160a060020a03331660009081526001602052604081205482901080159061115157506006548311155b801561115d5750600083115b151561116857600080fd5b60008381526007602052604080822054600160a060020a03169163121acdfb9185913391516020015260405160e060020a63ffffffff85160281526004810192909252600160a060020a03166024820152604401602060405180830381600087803b15156111d557600080fd5b6102c65a03f115156111e657600080fd5b50505060405180519150506001811515146111fd57fe5b600160a060020a0333166000908152600160205260409020805483900390556005805483900390555b505050565b600b546103e89082025b04611248600b5462096e3e8460026112a6565b600b540101600c8190557f6107240b152f88c02cc96226ebe928f44aa7767097ec63deb754607d21162c9d9060405190815260200160405180910390a15b50565b600080600454600d5481151561129b57fe5b0490508091505b5090565b600080600180825b858110156112ed5780880a82848b028115156112c657fe5b048115156112d057fe5b04840193508087038302925080600101820291505b6001016112ae565b8394505b50505050949350505050565b6040516113c78061130e8339019056006060604052341561000f57600080fd5b6040516080806113c7833981016040528080519190602001805191906020018051919060200180519150505b60008054600160a060020a03191633600160a060020a03161781556002859055600384905560078390556019805460ff19166001835b02179055506006819055600060088190556009819055600a82026004556005555b505050505b611321806100a66000396000f300606060405236156100a95763ffffffff60e060020a6000350416630475722181146100ae578063121acdfb146100e457806328555c1f1461011a57806343bb8db5146101505780635c352318146101775780635f4e6b06146101a8578063638678db146101cd5780636f233f5f146101fe578063748807ab1461026157806392eec3bc146102985780639e2550bd146102bd578063e1a02577146102f8578063fe12c92a14610333575b600080fd5b34156100b957600080fd5b6100d0600435600160a060020a0360243516610369565b604051901515815260200160405180910390f35b34156100ef57600080fd5b6100d0600435600160a060020a0360243516610421565b604051901515815260200160405180910390f35b341561012557600080fd5b6100d0600435600160a060020a03602435166104ec565b604051901515815260200160405180910390f35b341561015b57600080fd5b6100d06105d6565b604051901515815260200160405180910390f35b341561018257600080fd5b610196600160a060020a03600435166106fa565b60405190815260200160405180910390f35b34156101b357600080fd5b6101966108b1565b60405190815260200160405180910390f35b34156101d857600080fd5b610196600160a060020a03600435166108b7565b60405190815260200160405180910390f35b341561020957600080fd5b61025f60048035600160a060020a03169060446024803590810190830135806020601f8201819004810201604051908101604052818152929190602084018383808284375094965050933593506109b092505050565b005b341561026c57600080fd5b610274610ab5565b6040518082600581111561028457fe5b60ff16815260200191505060405180910390f35b34156102a357600080fd5b610196610abe565b60405190815260200160405180910390f35b34156102c857600080fd5b6100d0600160a060020a03600435166024356044351515610b1c565b604051901515815260200160405180910390f35b341561030357600080fd5b6100d0600160a060020a03600435166024356044351515610c60565b604051901515815260200160405180910390f35b341561033e57600080fd5b6100d0600435600160a060020a0360243516610dda565b604051901515815260200160405180910390f35b60015460009033600160a060020a0390811691161461038757600080fd5b6000805b60195460ff16600581111561039c57fe5b146103a657600080fd5b600754428190106103b657600080fd5b6103be610ebd565b1580156103e45750600160a060020a0384166000908152600b6020526040902054858101115b1561041057600160a060020a0384166000908152600b6020526040902080548601905560019250610415565b600092505b5b5b505b505b92915050565b6000805433600160a060020a0390811691161461043d57600080fd5b6000805b60195460ff16600581111561045257fe5b1461045c57600080fd5b6007544281901061046c57600080fd5b610474610ebd565b15801561049a5750600160a060020a0384166000908152600a6020526040902054858101115b1561041057600160a060020a0384166000908152600a6020526040902080548601905560088054860190556104cd610ebd565b5060019250610415565b60009250610415565b5b5b505b505b92915050565b6000805433600160a060020a0390811691161461050857600080fd5b6000805b60195460ff16600581111561051d57fe5b1461052757600080fd5b6007544281901061053757600080fd5b61053f610ebd565b1580156105655750600160a060020a0384166000908152600a6020526040902054858103105b801561058b5750600160a060020a0384166000908152600a602052604081205486900310155b1561041057600160a060020a0384166000908152600a602052604090208054869003905560088054869003905560019250610415565b60009250610415565b5b5b505b505b92915050565b6000806001805b60195460ff1660058111156105ee57fe5b146105f857600080fd5b60015433600160a060020a0390811691161461061357600080fd5b61061b610ebd565b15156106ee57600091505b600c548210156106e55733600160a060020a0316600c8381548110151561064957fe5b906000526020600020906004020160005b5054600160a060020a03161480156106965750600c80548390811061067b57fe5b906000526020600020906004020160005b506002015460ff16155b156106d9576001600c838154811015156106ac57fe5b906000526020600020906004020160005b50600201805460ff1916911515919091179055600192506106f3565b5b600190910190610626565b600092506106f3565b600092505b5b5b505090565b60008054819033600160a060020a0390811691161480610728575060015433600160a060020a039081169116145b151561073357600080fd5b60035b60195460ff16600581111561074757fe5b1480610764575060055b60195460ff16600581111561076257fe5b145b151561076f57600080fd5b60005433600160a060020a039081169116141561083557600854156107ad5750600160a060020a0382166000908152600a6020526040812080549190555b601254156107d457600160a060020a0383166000908152600e602052604081208054919055015b601154156107fb57600160a060020a0383166000908152600d602052604081208054919055015b600160a060020a038316600090815260156020908152604080832080549084905560149092528220805492905591909101019050806108a9565b60015433600160a060020a03908116911614156108a957600954156107fb5750600160a060020a0382166000908152600b6020526040812080549190555b600160a060020a038316600090815260156020908152604080832080549084905560149092528220805492905591909101019050805b5b5b50919050565b60035481565b6001546000908190819033600160a060020a039081169116146108d957600080fd5b6003805b60195460ff1660058111156108ee57fe5b146108f857600080fd5b60009250600091505b600c548210156109a25784600160a060020a0316600c8381548110151561092457fe5b906000526020600020906004020160005b5054600160a060020a0316141561099657600c80548390811061095457fe5b906000526020600020906004020160005b5060030154830192506000600c8381548110151561097f57fe5b906000526020600020906004020160005b50600301555b5b600190910190610901565b8293505b5b505b5050919050565b6001805b60195460ff1660058111156109c557fe5b146109cf57600080fd5b600754428190106109df57600080fd5b6109e7610ebd565b1515610aab57600c8054600181016109ff8382611180565b916000526020600020906004020160005b60806040519081016040908152600160a060020a038a16825260208201899052600090820152606081018790529190508151815473ffffffffffffffffffffffffffffffffffffffff1916600160a060020a0391909116178155602082015181600101908051610a849291602001906111b2565b50604082015160028201805460ff1916911515919091179055606082015181600301555050505b5b5b505b50505050565b60195460ff1681565b60008054819033600160a060020a03908116911614610adc57600080fd5b60005b60195460ff166005811115610af057fe5b14158015610aff575060065415155b1515610b0a57600080fd5b5050600680546000909155805b5b5090565b6000805433600160a060020a03908116911614610b3857600080fd5b6002805b60195460ff166005811115610b4d57fe5b14610b5757600080fd5b610b5f610ebd565b1515610c5557601054600f54014210610b7757600080fd5b6001831515148015610ba25750600160a060020a0385166000908152600d6020526040902054848101115b8015610bb15750601154848101115b15610be557600160a060020a0385166000908152600d60205260409020805485019055601180548501905560019150610c55565b82158015610c0c5750600160a060020a0385166000908152600e6020526040902054848101115b8015610c1b5750601254848101115b15610c4f57600160a060020a0333166000908152600e60205260409020805485019055601280548501905560019150610c55565b5b600091505b5b5b505b9392505050565b60006002805b60195460ff166005811115610c7757fe5b14610c8157600080fd5b610c89610ebd565b1515610c5557601054600f540142118015610cad5750601654601054600f54010142105b1515610cb857600080fd5b60005433600160a060020a0390811691161480610ce3575060015433600160a060020a039081169116145b1515610cee57600080fd5b6001831515148015610d195750600160a060020a038516600090815260146020526040902054848101115b8015610d285750601754848101115b15610d5c57600160a060020a0385166000908152601460205260409020805485019055601780548501905560019150610c55565b82158015610d835750600160a060020a038516600090815260156020526040902054848101115b8015610d925750601854848101115b15610c4f57600160a060020a0333166000908152601560205260409020805485019055601880548501905560019150610c55565b5b60009150610c55565b5b5b509392505050565b60015460009033600160a060020a03908116911614610df857600080fd5b6000805b60195460ff166005811115610e0d57fe5b14610e1757600080fd5b60075442819010610e2757600080fd5b610e2f610ebd565b158015610e555750600160a060020a0384166000908152600b6020526040902054858103105b8015610e7b5750600160a060020a0384166000908152600b602052604081205486900310155b1561041057600160a060020a0384166000908152600b602052604090208054869003905560019250610415565b60009250610415565b5b5b505b505b92915050565b600080805b60195460ff166005811115610ed357fe5b1415610f215760045460085410158015610ef1575060055460095410155b15610f1357601980546001919060ff191682805b021790555060019150610b17565b60009150610b17565b610b17565b60015b60195460ff166005811115610f3557fe5b1415610fda575060005b600c54811015610fb457600c805482908110610f5757fe5b906000526020600020906004020160005b506002015460ff161515610fab57600754421115610f1357601980546004919060ff1916600183610f05565b021790555060019150610b17565b60009150610b17565b5b600101610f3f565b42600f55601980546002919060ff1916600183610f05565b021790555060019150610b17565b60025b60195460ff166005811115610fee57fe5b1415610b1757601654601054600f540101421115610f1357601754601854111561103c5761101a611077565b601980546005919060ff1916600183610f05565b021790555060019150610b17565b611044611077565b601980546003919060ff1916600183610f05565b021790555060019150610b17565b5b60009150610b17565b5b5b5b5090565b601754601854111561117157600054600254600854600160a060020a0390921691638417a061919060405160e060020a63ffffffff851602815260048101929092526024820152604401600060405180830381600087803b15156110da57600080fd5b6102c65a03f115156110eb57600080fd5b5050600154600254600954600160a060020a039092169250638417a0619160405160e060020a63ffffffff851602815260048101929092526024820152604401600060405180830381600087803b151561114457600080fd5b6102c65a03f1151561115557600080fd5b505060006008819055600981905560118054601355555061117d565b60128054601355600090555b5b565b8154818355818115116111ac576004028160040283600052602060002091820191016111ac9190611231565b5b505050565b828054600181600116156101000203166002900490600052602060002090601f016020900481019282601f106111f357805160ff1916838001178555611220565b82800160010185558215611220579182015b82811115611220578251825591602001919060010190611205565b5b50610b1792915061128c565b5090565b61128991905b80821115610b1757805473ffffffffffffffffffffffffffffffffffffffff19168155600061126960018301826112ad565b5060028101805460ff1916905560006003820155600401611237565b5090565b90565b61128991905b80821115610b175760008155600101611292565b5090565b90565b50805460018160011615610100020316600290046000825580601f106112d357506112f1565b601f0160209004906000526020600020908101906112f1919061128c565b5b505600a165627a7a72305820b1ff0a53b0a9b9e4b5cc44308661de0e525c74dcc8b14b889fb03ac320a77fde0029a165627a7a72305820fb2a9a30b42ab3ddd2217176f54fabe87be4b93df6e1bf7b1850fbbc71e9b1530029",
  "source": "pragma solidity ^0.4.10;\n\n//import files\nimport \"./Project.sol\";\nimport \"./ERC20.sol\";\n\n/*\n  keeps track of token holder capital token balances of all\n  states (free, staked, validated, voted), ETH pool balance,\n  mint, burn prices\n*/\n\ncontract TokenHolderRegistry is ERC20 {\n\n// =====================================================================\n// STATE VARIABLES\n// =====================================================================\n  address workerRegistry;\n\n  uint256 public totalCapitalTokenSupply = 0;               //total supply of capital tokens in all staking states\n  uint256 public totalFreeCapitalTokenSupply = 0;           //total supply of free capital tokens (not staked, validated, or voted)\n\n\n  uint256 public projectNonce = 0;                          //no projects in existence when contract initialized\n  mapping(uint256 => address) projectId;                    //projectId to project address\n\n  struct Proposer{\n    address proposer;         //who is the proposer\n    uint256 proposerStake;    //how much did they stake in tokens\n    uint256 projectCost;\n  }\n\n  mapping(address => Proposer) proposers;                   //project -> Proposer\n  uint256 proposeProportion = 20;\n  uint256 rewardProportion = 100;\n\n  //minting & burning state variables from Simon de la Rouviere's code\n  uint256 public constant MAX_UINT = (2**256) - 1;\n  uint256 baseCost = 100000000000000;                   //100000000000000 wei 0.0001 ether\n  uint256 public costPerToken = 0;                      //current minting price\n\n  //ether pool\n  uint256 public weiBal;   //in wei\n\n// =====================================================================\n// EVENTS\n// =====================================================================\n\n  event LogMint(uint256 amountMinted, uint256 totalCost);\n  event LogWithdraw(uint256 amountWithdrawn, uint256 reward);\n  event LogCostOfTokenUpdate(uint256 newCost);\n  event LogProposal(uint256 nonce, uint256 proposalCostInTokens);\n\n// =====================================================================\n// MODIFIERS\n// =====================================================================\n\n  modifier onlyWR() {\n    require(msg.sender == workerRegistry);\n    _;\n  }\n\n// =====================================================================\n// FUNCTIONS\n// =====================================================================\n\n  // =====================================================================\n  // QUASI-CONSTRUCTOR\n  // =====================================================================\n  function init(address _workerRegistry) {       //contract is created\n    workerRegistry = _workerRegistry;\n    updateMintingPrice(0);\n  }\n\n  // =====================================================================\n  // GENERAL FUNCTION\n  // =====================================================================\n\n  function getProjectAddress(uint256 _id) onlyWR() returns (address) {\n    if (_id <= projectNonce && _id > 0) {\n      return projectId[_id];\n    }\n  }\n\n  // =====================================================================\n  // MINTING FUNCTIONS\n  // =====================================================================\n\n  function fracExp(uint256 k, uint256 q, uint256 n, uint256 p) internal returns (uint) {\n    // via: http://ethereum.stackexchange.com/questions/10425/is-there-any-efficient-way-to-compute-the-exponentiation-of-a-fraction-and-an-in/10432#10432\n    // Computes `k * (1+1/q) ^ N`, with precision `p`. The higher\n    // the precision, the higher the gas cost. It should be\n    // something around the log of `n`. When `p == n`, the\n    // precision is absolute (sans possible integer overflows).\n    // Much smaller values are sufficient to get a great approximation.\n    uint256 s = 0;\n    uint256 N = 1;\n    uint256 B = 1;\n    for (uint256 i = 0; i < p; ++i){\n      s += k * N / B / (q**i);\n      N  = N * (n-i);\n      B  = B * (i+1);\n    }\n    return s;\n  }\n\n  function updateMintingPrice(uint256 _supply) internal {\n      costPerToken = baseCost+fracExp(baseCost, 618046, _supply, 2)+baseCost*_supply/1000;\n      LogCostOfTokenUpdate(costPerToken);\n  }\n\n  function mint(uint _tokens) payable {\n      //token balance of msg.sender increases if paid right amount according to protocol\n      //will mint as many tokens as it can depending on msg.value, requested # tokens, and MAX_UINT\n      uint256 totalMinted = 0;\n      uint256 fundsLeft = msg.value;\n      while(fundsLeft >= costPerToken && totalMinted < _tokens) {       //leaves loop when minted proper number of tokens or ran out of funds or token supply hit maximum value\n        if (totalCapitalTokenSupply + totalMinted < MAX_UINT) {\n          fundsLeft -= costPerToken;                                    //subtract token cost from amount paid\n          totalMinted += 1;                                             //update the amount of tokens minted\n          updateMintingPrice((totalCapitalTokenSupply + totalMinted));  //update costPerToken for next token\n        }\n        else{\n          break;                                                        //token supply hit maximum value\n        }\n      }\n      if(totalMinted < _tokens) {                     //if ran out of funds, revert transaction\n        updateMintingPrice(totalCapitalTokenSupply);  //revert to minting price before token purchase request\n        revert();\n      }\n      if(fundsLeft > 0) {                             //send back leftover funds if proper amount minted\n          msg.sender.transfer(fundsLeft);\n      }\n      totalCapitalTokenSupply += totalMinted;\n      totalFreeCapitalTokenSupply += totalMinted;\n      balances[msg.sender] += totalMinted;\n      weiBal += (msg.value - fundsLeft);\n      LogMint(totalMinted, (msg.value - fundsLeft));\n    }\n\n  function burnAndRefund(uint256 _amountToBurn) returns (bool success) {      //free tokens only\n      if(_amountToBurn > 0 && (balances[msg.sender]) >= _amountToBurn) {\n          //determine how much you can leave with.\n          uint256 reward = _amountToBurn * weiBal/totalCapitalTokenSupply;    //rounding? - remainder discarded\n          balances[msg.sender] -= _amountToBurn;\n          totalCapitalTokenSupply -= _amountToBurn;\n          totalFreeCapitalTokenSupply -= _amountToBurn;\n          msg.sender.transfer(reward);\n          updateMintingPrice(totalCapitalTokenSupply);\n          LogWithdraw(_amountToBurn, reward);\n          return true;\n      } else {\n          return false;\n      }\n  }\n\n  function burnAndRefundPrice() internal returns (uint256 price) {\n    //calculated current burn reward of 1 token\n    uint256 reward = weiBal/totalCapitalTokenSupply; //rounding? - remainder discarded\n    return reward;                                   //reward in wei of burning 1 token\n  }\n\n  // =====================================================================\n  // PROPOSER FUNCTIONS\n  // =====================================================================\n\n  function proposeProject(uint256 _cost, uint256 _projectDeadline) {    //_cost of project in ether, _projectDeadline is for end of active period\n    //calculate cost of project in tokens currently (_cost in wei)\n    //check proposer has at least 5% of the proposed cost in tokens\n    require(now < _projectDeadline);\n    uint256 _burnprice = burnAndRefundPrice();\n    uint256 currentTokenCost = _cost / _burnprice;\n    uint256 proposerTokenCost = currentTokenCost / proposeProportion;           //divide by 20 to get 5 percent of tokens\n    //uint256 proposerTokenCost = 10;\n    require(balances[msg.sender] >= proposerTokenCost);\n    balances[msg.sender] -= proposerTokenCost;\n    totalFreeCapitalTokenSupply -= proposerTokenCost;\n    projectNonce += 1;\n    LogProposal(projectNonce, proposerTokenCost);                                                     //determine project id\n    Project newProject = new Project(projectNonce,\n                                     _cost,\n                                     _projectDeadline,\n                                     proposerTokenCost\n                                     );\n    address projectAddress = address(newProject);\n    projectId[projectNonce] = projectAddress;\n    proposers[projectAddress].proposer = msg.sender;\n    proposers[projectAddress].proposerStake = proposerTokenCost;\n    proposers[projectAddress].projectCost = _cost;\n  }\n\n  function refundProposer(uint256 _projectId) {                                 //called by proposer to get refund once project is active\n    require(proposers[projectId[_projectId]].proposer == msg.sender);\n    address projectAddress = projectId[_projectId];\n    uint256 proposerStake = Project(projectAddress).refundProposer();           //call project to \"send back\" staked tokens to put in proposer's balances\n    balances[msg.sender] += proposerStake;                                      //give proposer back their tokens\n    totalFreeCapitalTokenSupply += proposerStake;\n    uint256 proposerReward = proposers[projectAddress].projectCost/rewardProportion;\n    msg.sender.transfer(proposerReward);                                        //how are we sure that this still exists in the ethpool?\n  }\n\n  // =====================================================================\n  // PROPOSED PROJECT - STAKING FUNCTIONALITY\n  // =====================================================================\n\n  function stakeToken(uint256 _projectId, uint256 _tokens) {\n    require(balances[msg.sender] >= _tokens && _projectId <= projectNonce && _projectId > 0);   //make sure project exists & TH has tokens to stake\n    bool success = Project(projectId[_projectId]).stakeCapitalToken(_tokens, msg.sender);\n    assert(success == true);\n    balances[msg.sender] -= _tokens;\n    totalFreeCapitalTokenSupply -= _tokens;\n  }\n\n  function unstakeToken(uint256 _projectId, uint256 _tokens) {\n    require(_projectId <= projectNonce && _projectId > 0);\n    bool success = Project(projectId[_projectId]).unstakeCapitalToken(_tokens, msg.sender);\n    assert(success == true);\n    balances[msg.sender] += _tokens;\n    totalFreeCapitalTokenSupply += _tokens;\n  }\n\n  // =====================================================================\n  // COMPLETED PROJECT - VALIDATION & VOTING FUNCTIONALITY\n  // =====================================================================\n\n  function validate(uint256 _projectId, uint256 _tokens, bool _validationState) {\n    require(balances[msg.sender] >= _tokens && _projectId <= projectNonce && _projectId > 0);\n    bool success = Project(projectId[_projectId]).validate(msg.sender, _tokens, _validationState);\n    assert(success == true);\n    balances[msg.sender] -= _tokens;\n    totalFreeCapitalTokenSupply -= _tokens;\n  }\n\n  function vote(uint256 _projectId, uint256 _tokens, bool _votingState) {\n    require(balances[msg.sender] >= _tokens && _projectId <= projectNonce && _projectId > 0);\n    bool success = Project(projectId[_projectId]).vote(msg.sender, _tokens, _votingState);\n    assert(success == true);\n    balances[msg.sender] -= _tokens;\n    totalFreeCapitalTokenSupply -= _tokens;\n  }\n\n  // =====================================================================\n  // FAILED / VALIDATED PROJECT\n  // =====================================================================\n\n  function updateTotal(uint256 _projectId, uint256 _tokens) {\n    require(projectId[_projectId] == msg.sender);                               //check that valid project is calling this function\n    totalCapitalTokenSupply -= _tokens;\n  }\n\n  function refundStaker(uint _projectId) {\n    uint256 refund = Project(projectId[_projectId]).refundStaker(msg.sender);\n    totalFreeCapitalTokenSupply += refund;\n    balances[msg.sender] += refund;\n  }\n\n  function rewardWorker(address _worker, uint _reward) onlyWR() {\n    _worker.transfer(_reward);\n  }\n}\n",
  "sourcePath": "/Users/jessicamarshall/Desktop/Distribute/contracts/TokenHolderRegistry.sol",
  "schemaVersion": "1.0.0",
  "updatedAt": "2017-10-08T21:03:20.446Z"
}