{
  "contractName": "TokenHolderRegistry",
  "abi": [
    {
      "constant": true,
      "inputs": [],
      "name": "weiBal",
      "outputs": [
        {
          "name": "",
          "type": "uint256"
        }
      ],
      "payable": false,
      "stateMutability": "view",
      "type": "function"
    },
    {
      "constant": false,
      "inputs": [
        {
          "name": "_spender",
          "type": "address"
        },
        {
          "name": "_value",
          "type": "uint256"
        }
      ],
      "name": "approve",
      "outputs": [
        {
          "name": "success",
          "type": "bool"
        }
      ],
      "payable": false,
      "stateMutability": "nonpayable",
      "type": "function"
    },
    {
      "constant": false,
      "inputs": [
        {
          "name": "_projectId",
          "type": "uint256"
        }
      ],
      "name": "refundStaker",
      "outputs": [],
      "payable": false,
      "stateMutability": "nonpayable",
      "type": "function"
    },
    {
      "constant": false,
      "inputs": [
        {
          "name": "_worker",
          "type": "address"
        },
        {
          "name": "_reward",
          "type": "uint256"
        }
      ],
      "name": "rewardWorker",
      "outputs": [],
      "payable": false,
      "stateMutability": "nonpayable",
      "type": "function"
    },
    {
      "constant": true,
      "inputs": [],
      "name": "totalSupply",
      "outputs": [
        {
          "name": "",
          "type": "uint256"
        }
      ],
      "payable": false,
      "stateMutability": "view",
      "type": "function"
    },
    {
      "constant": false,
      "inputs": [
        {
          "name": "_from",
          "type": "address"
        },
        {
          "name": "_to",
          "type": "address"
        },
        {
          "name": "_value",
          "type": "uint256"
        }
      ],
      "name": "transferFrom",
      "outputs": [
        {
          "name": "success",
          "type": "bool"
        }
      ],
      "payable": false,
      "stateMutability": "nonpayable",
      "type": "function"
    },
    {
      "constant": true,
      "inputs": [],
      "name": "projectNonce",
      "outputs": [
        {
          "name": "",
          "type": "uint256"
        }
      ],
      "payable": false,
      "stateMutability": "view",
      "type": "function"
    },
    {
      "constant": true,
      "inputs": [
        {
          "name": "",
          "type": "address"
        }
      ],
      "name": "balances",
      "outputs": [
        {
          "name": "",
          "type": "uint256"
        }
      ],
      "payable": false,
      "stateMutability": "view",
      "type": "function"
    },
    {
      "constant": false,
      "inputs": [
        {
          "name": "_projectId",
          "type": "uint256"
        },
        {
          "name": "_commitDuration",
          "type": "uint256"
        },
        {
          "name": "_revealDuration",
          "type": "uint256"
        }
      ],
      "name": "startPoll",
      "outputs": [],
      "payable": false,
      "stateMutability": "nonpayable",
      "type": "function"
    },
    {
      "constant": true,
      "inputs": [],
      "name": "costPerToken",
      "outputs": [
        {
          "name": "",
          "type": "uint256"
        }
      ],
      "payable": false,
      "stateMutability": "view",
      "type": "function"
    },
    {
      "constant": false,
      "inputs": [
        {
          "name": "_projectId",
          "type": "uint256"
        }
      ],
      "name": "refundProposer",
      "outputs": [],
      "payable": false,
      "stateMutability": "nonpayable",
      "type": "function"
    },
    {
      "constant": true,
      "inputs": [
        {
          "name": "_projectId",
          "type": "uint256"
        }
      ],
      "name": "isPassed",
      "outputs": [
        {
          "name": "",
          "type": "bool"
        }
      ],
      "payable": false,
      "stateMutability": "view",
      "type": "function"
    },
    {
      "constant": true,
      "inputs": [
        {
          "name": "_id",
          "type": "uint256"
        }
      ],
      "name": "getProjectAddress",
      "outputs": [
        {
          "name": "",
          "type": "address"
        }
      ],
      "payable": false,
      "stateMutability": "view",
      "type": "function"
    },
    {
      "constant": true,
      "inputs": [
        {
          "name": "",
          "type": "uint256"
        }
      ],
      "name": "projectId",
      "outputs": [
        {
          "name": "projectAddress",
          "type": "address"
        },
        {
          "name": "votingPollId",
          "type": "uint256"
        }
      ],
      "payable": false,
      "stateMutability": "view",
      "type": "function"
    },
    {
      "constant": true,
      "inputs": [],
      "name": "totalCapitalTokenSupply",
      "outputs": [
        {
          "name": "",
          "type": "uint256"
        }
      ],
      "payable": false,
      "stateMutability": "view",
      "type": "function"
    },
    {
      "constant": true,
      "inputs": [
        {
          "name": "_owner",
          "type": "address"
        }
      ],
      "name": "balanceOf",
      "outputs": [
        {
          "name": "balance",
          "type": "uint256"
        }
      ],
      "payable": false,
      "stateMutability": "view",
      "type": "function"
    },
    {
      "constant": false,
      "inputs": [
        {
          "name": "_cost",
          "type": "uint256"
        },
        {
          "name": "_projectDeadline",
          "type": "uint256"
        }
      ],
      "name": "proposeProject",
      "outputs": [],
      "payable": false,
      "stateMutability": "nonpayable",
      "type": "function"
    },
    {
      "constant": false,
      "inputs": [
        {
          "name": "_projectId",
          "type": "uint256"
        },
        {
          "name": "_tokens",
          "type": "uint256"
        },
        {
          "name": "_secretHash",
          "type": "bytes32"
        },
        {
          "name": "_prevPollID",
          "type": "uint256"
        }
      ],
      "name": "voteCommit",
      "outputs": [],
      "payable": false,
      "stateMutability": "nonpayable",
      "type": "function"
    },
    {
      "constant": false,
      "inputs": [
        {
          "name": "_projectId",
          "type": "uint256"
        },
        {
          "name": "_tokens",
          "type": "uint256"
        }
      ],
      "name": "updateTotal",
      "outputs": [],
      "payable": false,
      "stateMutability": "nonpayable",
      "type": "function"
    },
    {
      "constant": false,
      "inputs": [
        {
          "name": "_projectId",
          "type": "uint256"
        },
        {
          "name": "_voteOption",
          "type": "uint256"
        },
        {
          "name": "_salt",
          "type": "uint256"
        }
      ],
      "name": "voteReveal",
      "outputs": [],
      "payable": false,
      "stateMutability": "nonpayable",
      "type": "function"
    },
    {
      "constant": false,
      "inputs": [
        {
          "name": "_tokens",
          "type": "uint256"
        }
      ],
      "name": "refundVotingTokens",
      "outputs": [],
      "payable": false,
      "stateMutability": "nonpayable",
      "type": "function"
    },
    {
      "constant": false,
      "inputs": [
        {
          "name": "_projectId",
          "type": "uint256"
        },
        {
          "name": "_tokens",
          "type": "uint256"
        },
        {
          "name": "_validationState",
          "type": "bool"
        }
      ],
      "name": "validate",
      "outputs": [],
      "payable": false,
      "stateMutability": "nonpayable",
      "type": "function"
    },
    {
      "constant": true,
      "inputs": [
        {
          "name": "_id",
          "type": "uint256"
        }
      ],
      "name": "getPollId",
      "outputs": [
        {
          "name": "",
          "type": "uint256"
        }
      ],
      "payable": false,
      "stateMutability": "view",
      "type": "function"
    },
    {
      "constant": false,
      "inputs": [
        {
          "name": "_tokens",
          "type": "uint256"
        }
      ],
      "name": "mint",
      "outputs": [],
      "payable": true,
      "stateMutability": "payable",
      "type": "function"
    },
    {
      "constant": false,
      "inputs": [
        {
          "name": "_to",
          "type": "address"
        },
        {
          "name": "_value",
          "type": "uint256"
        }
      ],
      "name": "transfer",
      "outputs": [
        {
          "name": "success",
          "type": "bool"
        }
      ],
      "payable": false,
      "stateMutability": "nonpayable",
      "type": "function"
    },
    {
      "constant": true,
      "inputs": [],
      "name": "totalFreeCapitalTokenSupply",
      "outputs": [
        {
          "name": "",
          "type": "uint256"
        }
      ],
      "payable": false,
      "stateMutability": "view",
      "type": "function"
    },
    {
      "constant": false,
      "inputs": [
        {
          "name": "_amountToBurn",
          "type": "uint256"
        }
      ],
      "name": "burnAndRefund",
      "outputs": [
        {
          "name": "success",
          "type": "bool"
        }
      ],
      "payable": false,
      "stateMutability": "nonpayable",
      "type": "function"
    },
    {
      "constant": true,
      "inputs": [
        {
          "name": "_owner",
          "type": "address"
        },
        {
          "name": "_spender",
          "type": "address"
        }
      ],
      "name": "allowance",
      "outputs": [
        {
          "name": "remaining",
          "type": "uint256"
        }
      ],
      "payable": false,
      "stateMutability": "view",
      "type": "function"
    },
    {
      "constant": true,
      "inputs": [],
      "name": "MAX_UINT",
      "outputs": [
        {
          "name": "",
          "type": "uint256"
        }
      ],
      "payable": false,
      "stateMutability": "view",
      "type": "function"
    },
    {
      "constant": true,
      "inputs": [
        {
          "name": "_projectId",
          "type": "uint256"
        }
      ],
      "name": "pollEnded",
      "outputs": [
        {
          "name": "",
          "type": "bool"
        }
      ],
      "payable": false,
      "stateMutability": "view",
      "type": "function"
    },
    {
      "constant": false,
      "inputs": [
        {
          "name": "_workerRegistry",
          "type": "address"
        },
        {
          "name": "_plcrVoting",
          "type": "address"
        }
      ],
      "name": "init",
      "outputs": [],
      "payable": false,
      "stateMutability": "nonpayable",
      "type": "function"
    },
    {
      "constant": false,
      "inputs": [
        {
          "name": "_projectId",
          "type": "uint256"
        },
        {
          "name": "_validator",
          "type": "address"
        },
        {
          "name": "_reward",
          "type": "uint256"
        }
      ],
      "name": "rewardValidator",
      "outputs": [],
      "payable": false,
      "stateMutability": "nonpayable",
      "type": "function"
    },
    {
      "constant": false,
      "inputs": [
        {
          "name": "_projectId",
          "type": "uint256"
        },
        {
          "name": "_tokens",
          "type": "uint256"
        }
      ],
      "name": "unstakeToken",
      "outputs": [],
      "payable": false,
      "stateMutability": "nonpayable",
      "type": "function"
    },
    {
      "constant": false,
      "inputs": [
        {
          "name": "_projectId",
          "type": "uint256"
        },
        {
          "name": "_tokens",
          "type": "uint256"
        }
      ],
      "name": "stakeToken",
      "outputs": [],
      "payable": false,
      "stateMutability": "nonpayable",
      "type": "function"
    },
    {
      "anonymous": false,
      "inputs": [
        {
          "indexed": false,
          "name": "amountMinted",
          "type": "uint256"
        },
        {
          "indexed": false,
          "name": "totalCost",
          "type": "uint256"
        }
      ],
      "name": "LogMint",
      "type": "event"
    },
    {
      "anonymous": false,
      "inputs": [
        {
          "indexed": false,
          "name": "amountWithdrawn",
          "type": "uint256"
        },
        {
          "indexed": false,
          "name": "reward",
          "type": "uint256"
        }
      ],
      "name": "LogWithdraw",
      "type": "event"
    },
    {
      "anonymous": false,
      "inputs": [
        {
          "indexed": false,
          "name": "newCost",
          "type": "uint256"
        }
      ],
      "name": "LogCostOfTokenUpdate",
      "type": "event"
    },
    {
      "anonymous": false,
      "inputs": [
        {
          "indexed": false,
          "name": "nonce",
          "type": "uint256"
        },
        {
          "indexed": false,
          "name": "proposalCostInTokens",
          "type": "uint256"
        }
      ],
      "name": "LogProposal",
      "type": "event"
    },
    {
      "anonymous": false,
      "inputs": [
        {
          "indexed": true,
          "name": "_from",
          "type": "address"
        },
        {
          "indexed": true,
          "name": "_to",
          "type": "address"
        },
        {
          "indexed": false,
          "name": "_value",
          "type": "uint256"
        }
      ],
      "name": "Transfer",
      "type": "event"
    },
    {
      "anonymous": false,
      "inputs": [
        {
          "indexed": true,
          "name": "_owner",
          "type": "address"
        },
        {
          "indexed": true,
          "name": "_spender",
          "type": "address"
        },
        {
          "indexed": false,
          "name": "_value",
          "type": "uint256"
        }
      ],
      "name": "Approval",
      "type": "event"
    }
  ],
  "bytecode": "0x60606040526000600555600060065560006007556014600a556064600b55655af3107a4000600c556000600d55341561003757600080fd5b612d36806100466000396000f300606060405236156101905763ffffffff60e060020a600035041663065d5d0a8114610195578063095ea7b3146101ba5780630d2efe3f146101f05780630e1195951461020857806318160ddd1461022a57806323b872dd1461023d57806326d2ce671461026557806327e235e31461027857806332ed3d60146102975780633ba523c7146102b3578063443df4e6146102c657806349403183146102dc5780634ca3e9b8146102f25780634dd1f816146103245780635eab72351461035c57806370a082311461036f578063734501171461038e5780637d6bd25c146103a75780638417a061146103c65780638ee9ad32146103df5780639ab67673146103fb5780639e7e3f82146104115780639facbedd1461042f578063a0712d6814610445578063a9059cbb14610450578063b0d9e70c14610472578063bbd838b214610485578063dd62ed3e1461049b578063e5b5019a146104c0578063ee684830146104d3578063f09a4016146104e9578063f2d8236c1461050e578063ffa7a4a314610533578063ffab4bd91461054c575b600080fd5b34156101a057600080fd5b6101a8610565565b60405190815260200160405180910390f35b34156101c557600080fd5b6101dc600160a060020a036004351660243561056b565b604051901515815260200160405180910390f35b34156101fb57600080fd5b6102066004356105d7565b005b341561021357600080fd5b610206600160a060020a0360043516602435610702565b341561023557600080fd5b6101a8610752565b341561024857600080fd5b6101dc600160a060020a0360043581169060243516604435610758565b341561027057600080fd5b6101a8610841565b341561028357600080fd5b6101a8600160a060020a0360043516610847565b34156102a257600080fd5b610206600435602435604435610859565b34156102be57600080fd5b6101a8610916565b34156102d157600080fd5b61020660043561091c565b34156102e757600080fd5b6101dc600435610a3d565b34156102fd57600080fd5b610308600435610af1565b604051600160a060020a03909116815260200160405180910390f35b341561032f57600080fd5b61033a600435610b45565b604051600160a060020a03909216825260208201526040908101905180910390f35b341561036757600080fd5b6101a8610b6a565b341561037a57600080fd5b6101a8600160a060020a0360043516610b70565b341561039957600080fd5b610206600435602435610b8b565b34156103b257600080fd5b610206600435602435604435606435610d1d565b34156103d157600080fd5b610206600435602435610f8b565b34156103ea57600080fd5b610206600435602435604435610fbf565b341561040657600080fd5b61020660043561104b565b341561041c57600080fd5b61020660043560243560443515156110de565b341561043a57600080fd5b6101a86004356111ef565b61020660043561123c565b341561045b57600080fd5b6101dc600160a060020a0360043516602435611357565b341561047d57600080fd5b6101a86113eb565b341561049057600080fd5b6101dc6004356113f1565b34156104a657600080fd5b6101a8600160a060020a03600435811690602435166114eb565b34156104cb57600080fd5b6101a8611516565b34156104de57600080fd5b6101dc60043561151c565b34156104f457600080fd5b610206600160a060020a03600435811690602435166115aa565b341561051957600080fd5b610206600435600160a060020a03602435166044356115f1565b341561053e57600080fd5b61020660043560243561164e565b341561055757600080fd5b61020660043560243561172d565b600e5481565b600160a060020a03338116600081815260026020908152604080832094871680845294909152808220859055909291907f8c5be1e5ebec7d5bd14f71427d1e84f3dd0314c0f7b2291e5b200ac8c7c3b9259085905190815260200160405180910390a350600192915050565b600081815260086020526040808220548291600160a060020a0390911690635c3523189033908490516020015260405160e060020a63ffffffff8416028152600160a060020a039091166004820152602401602060405180830381600087803b151561064257600080fd5b6102c65a03f1151561065357600080fd5b5050506040518051600680548201905533600160a060020a0381811660009081526001602081815260408084208054880190558a8452600890915291829020015460045494975095509216925063573761989184905160e060020a63ffffffff8516028152600160a060020a0390921660048301526024820152604401600060405180830381600087803b15156106e957600080fd5b6102c65a03f115156106fa57600080fd5b505050505050565b60035433600160a060020a0390811691161461071d57600080fd5b600160a060020a03821681156108fc0282604051600060405180830381858888f19350505050151561074e57600080fd5b5050565b60005481565b600160a060020a0383166000908152600160205260408120548290108015906107a85750600160a060020a0380851660009081526002602090815260408083203390941683529290522054829010155b15156107b357600080fd5b600160a060020a03808416600081815260016020908152604080832080548801905588851680845281842080548990039055600283528184203390961684529490915290819020805486900390559091907fddf252ad1be2c89b69c2b068fc378daa952ba7f163c4a11628f55a4df523b3ef9085905190815260200160405180910390a35060019392505050565b60075481565b60016020526000908152604090205481565b60008381526008602052604081205433600160a060020a0390811691161461088057600080fd5b600454600160a060020a03166332ed3d606032858560006040516020015260405160e060020a63ffffffff8616028152600481019390935260248301919091526044820152606401602060405180830381600087803b15156108e157600080fd5b6102c65a03f115156108f257600080fd5b50505060405180516000958652600860205260409095206001019490945550505050565b600d5481565b600081815260086020908152604080832054600160a060020a03908116808552600990935290832054919291829133811691161461095957600080fd5b82600160a060020a03166392eec3bc6000604051602001526040518163ffffffff1660e060020a028152600401602060405180830381600087803b151561099f57600080fd5b6102c65a03f115156109b057600080fd5b5050506040518051600160a060020a0333811660009081526001602090815260408083208054860190556006805486019055600b54938916835260099091529020600201549194509150811515610a0357fe5b049050600160a060020a03331681156108fc0282604051600060405180830381858888f193505050501515610a3757600080fd5b50505050565b600081815260086020526040812054819033600160a060020a03908116911614610a6657600080fd5b60045460008481526008602052604080822060010154600160a060020a03909316926349403183929091516020015260405160e060020a63ffffffff84160281526004810191909152602401602060405180830381600087803b1515610acb57600080fd5b6102c65a03f11515610adc57600080fd5b50505060405180519250829150505b50919050565b60035460009033600160a060020a03908116911614610b0f57600080fd5b6007548211158015610b215750600082115b15610b405750600081815260086020526040902054600160a060020a03165b919050565b60086020526000908152604090208054600190910154600160a060020a039091169082565b60055481565b600160a060020a031660009081526001602052604090205490565b600080808080808042889010610ba057600080fd5b610ba8611831565b96508689811515610bb557fe5b049550600a5486811515610bc557fe5b600160a060020a033316600090815260016020526040902054919004955085901015610bf057600080fd5b600160a060020a0333166000908152600160208190526040918290208054889003905560068054889003905560078054909101908190557fcb5f110258c8d5b3cd6d9f87207254bc672c6d5bfd37e71ec14f0ce42160ec449187905191825260208201526040908101905180910390a160075489898888610c6f6118f7565b8086815260200185815260200184815260200183815260200182815260200195505050505050604051809103906000f0801515610cab57600080fd5b60075460009081526008602090815260408083208054600160a060020a0395861673ffffffffffffffffffffffffffffffffffffffff19918216811790925590845260099092529091208054339093169290911691909117815560018101959095555050505060020193909355505050565b60008481526008602052604080822060010154600454909291600160a060020a0390911690636b2d95d49033908490516020015260405160e060020a63ffffffff8416028152600160a060020a039091166004820152602401602060405180830381600087803b1515610d8f57600080fd5b6102c65a03f11515610da057600080fd5b5050506040518051600454909150600160a060020a031663d65fa6eb3360006040516020015260405160e060020a63ffffffff8416028152600160a060020a039091166004820152602401602060405180830381600087803b1515610e0457600080fd5b6102c65a03f11515610e1557600080fd5b5050506040518051905003905084811015610f0157600160a060020a0333166000908152600160205260409020548186039010801590610e5757506007548611155b8015610e635750600086115b1515610e6e57600080fd5b33600160a060020a0381811660009081526001602052604090819020805489900390556006805489900390556004549091169163c5fa801b91848903905160e060020a63ffffffff8516028152600160a060020a0390921660048301526024820152604401600060405180830381600087803b1515610eec57600080fd5b6102c65a03f11515610efd57600080fd5b5050505b600454600160a060020a0316635e28fd5e338487898860405160e060020a63ffffffff8816028152600160a060020a039095166004860152602485019390935260448401919091526064830152608482015260a401600060405180830381600087803b1515610f6f57600080fd5b6102c65a03f11515610f8057600080fd5b505050505050505050565b60008281526008602052604090205433600160a060020a03908116911614610fb257600080fd5b6005805491909103905550565b60008381526008602052604090819020600101546004549091600160a060020a039091169063b11d8bb8908390869086905160e060020a63ffffffff8616028152600481019390935260248301919091526044820152606401600060405180830381600087803b151561103157600080fd5b6102c65a03f1151561104257600080fd5b50505050505050565b600454600160a060020a031663ef348e40338360405160e060020a63ffffffff8516028152600160a060020a0390921660048301526024820152604401600060405180830381600087803b15156110a157600080fd5b6102c65a03f115156110b257600080fd5b505050600160a060020a0333166000908152600160205260409020805482019055600680549091019055565b600160a060020a03331660009081526001602052604081205483901080159061110957506007548411155b80156111155750600084115b151561112057600080fd5b60008481526008602052604080822054600160a060020a031691639e2550bd9133918791879190516020015260405160e060020a63ffffffff8616028152600160a060020a039093166004840152602483019190915215156044820152606401602060405180830381600087803b151561119957600080fd5b6102c65a03f115156111aa57600080fd5b50505060405180519150506001811515146111c157fe5b5050600160a060020a0333166000908152600160205260409020805482900390556006805491909103905550565b60035460009033600160a060020a0390811691161461120d57600080fd5b600754821115801561121f5750600082115b15610b405750600081815260086020526040902060010154610b40565b6000345b600d54811015801561125157508282105b1561128d576000198260055401101561128357600d548103905060018201915061127e826005540161184a565b611288565b61128d565b611240565b828210156112a05761019060055461184a565b60008111156112da57600160a060020a03331681156108fc0282604051600060405180830381858888f1935050505015156112da57600080fd5b60058054830190556006805483019055600160a060020a03331660009081526001602052604090819020805484019055600e8054348490039081019091557fe7360c0fa1984a85874443100f5b25dd4f84192659660eb199f6c96e11defbcb918491905191825260208201526040908101905180910390a1505050565b600160a060020a0333166000908152600160205260408120548290101561137d57600080fd5b600160a060020a033381166000818152600160205260408082208054879003905592861680825290839020805486019055917fddf252ad1be2c89b69c2b068fc378daa952ba7f163c4a11628f55a4df523b3ef9085905190815260200160405180910390a350600192915050565b60065481565b60008060008311801561141d5750600160a060020a033316600090815260016020526040902054839010155b156114e257600554600e54840281151561143357fe5b600160a060020a03331660008181526001602052604090819020805488900390556005805488900390556006805488900390559290910492509082156108fc0290839051600060405180830381858888f19350505050151561149457600080fd5b61149f60055461184a565b7f210405eb88ac7589aa9de0a6e36b9c9d3cd6e4061b74363d250a77afe3c6efb7838260405191825260208201526040908101905180910390a160019150610aeb565b60009150610aeb565b600160a060020a03918216600090815260026020908152604080832093909416825291909152205490565b60001981565b600081815260086020526040812054819033600160a060020a0390811691161461154557600080fd5b60045460008481526008602052604080822060010154600160a060020a039093169263ee684830929091516020015260405160e060020a63ffffffff84160281526004810191909152602401602060405180830381600087803b1515610acb57600080fd5b60038054600160a060020a0380851673ffffffffffffffffffffffffffffffffffffffff1992831617909255600480549284169290911691909117905561074e600061184a565b60008381526008602052604090205433600160a060020a0390811691161461161857600080fd5b600160a060020a03821681156108fc0282604051600060405180830381858888f19350505050151561164957600080fd5b505050565b600060075483111580156116625750600083115b151561166d57600080fd5b60008381526008602052604080822054600160a060020a0316916328555c1f9185913391516020015260405160e060020a63ffffffff85160281526004810192909252600160a060020a03166024820152604401602060405180830381600087803b15156116da57600080fd5b6102c65a03f115156116eb57600080fd5b505050604051805191505060018115151461170257fe5b50600160a060020a033316600090815260016020526040902080548201905560068054909101905550565b600160a060020a03331660009081526001602052604081205482901080159061175857506007548311155b80156117645750600083115b151561176f57600080fd5b60008381526008602052604080822054600160a060020a03169163121acdfb9185913391516020015260405160e060020a63ffffffff85160281526004810192909252600160a060020a03166024820152604401602060405180830381600087803b15156117dc57600080fd5b6102c65a03f115156117ed57600080fd5b505050604051805191505060018115151461180457fe5b50600160a060020a0333166000908152600160205260409020805482900390556006805491909103905550565b600080600554600e5481151561184357fe5b0492915050565b600c546103e890820204611866600c5462096e3e8460026118a6565b600c540101600d8190557f6107240b152f88c02cc96226ebe928f44aa7767097ec63deb754607d21162c9d9060405190815260200160405180910390a150565b600080600180825b858110156118ea5780880a82848b028115156118c657fe5b048115156118d057fe5b0493909301928087039290920291600101908102906118ae565b5091979650505050505050565b6040516114038061190883390190560060606040526014805460ff19169055341561001957600080fd5b60405160a080611403833981016040528080519190602001805191906020018051919060200180519190602001805160008054600160a060020a03191633600160a060020a031617815560029790975560039590955550506007919091556017805460ff1916905560069190915560088290556009829055600455600581905562093a80601581905560165561134e9081906100b590396000f3006060604052361561009e5763ffffffff60e060020a6000350416630475722181146100a3578063121acdfb146100d957806328555c1f146100fb57806343bb8db51461011d5780635c352318146101305780635f4e6b0614610161578063638678db146101745780636f233f5f14610193578063748807ab146101f657806392eec3bc1461022d5780639e2550bd14610240578063fe12c92a14610267575b600080fd5b34156100ae57600080fd5b6100c5600435600160a060020a0360243516610289565b604051901515815260200160405180910390f35b34156100e457600080fd5b6100c5600435600160a060020a036024351661033c565b341561010657600080fd5b6100c5600435600160a060020a03602435166103f1565b341561012857600080fd5b6100c56104c5565b341561013b57600080fd5b61014f600160a060020a03600435166105df565b60405190815260200160405180910390f35b341561016c57600080fd5b61014f61094c565b341561017f57600080fd5b61014f600160a060020a0360043516610952565b341561019e57600080fd5b6101f460048035600160a060020a03169060446024803590810190830135806020601f820181900481020160405190810160405281815292919060208401838380828437509496505093359350610a3d92505050565b005b341561020157600080fd5b610209610b3d565b6040518082600681111561021957fe5b60ff16815260200191505060405180910390f35b341561023857600080fd5b61014f610b46565b341561024b57600080fd5b6100c5600160a060020a03600435166024356044351515610ba2565b341561027257600080fd5b6100c5600435600160a060020a0360243516610ce1565b60015460009033600160a060020a039081169116146102a757600080fd5b60008060175460ff1660068111156102bb57fe5b146102c557600080fd5b600754428190106102d557600080fd5b6102dd610dae565b1580156103035750600160a060020a0384166000908152600b6020526040902054858101115b1561032f57600160a060020a0384166000908152600b6020526040902080548601905560019250610334565b600092505b505092915050565b6000805433600160a060020a0390811691161461035857600080fd5b60008060175460ff16600681111561036c57fe5b1461037657600080fd5b6007544281901061038657600080fd5b61038e610dae565b1580156103b45750600160a060020a0384166000908152600a6020526040902054858101115b1561032f57600160a060020a0384166000908152600a6020526040902080548601905560088054860190556103e7610dae565b5060019250610334565b6000805433600160a060020a0390811691161461040d57600080fd5b60008060175460ff16600681111561042157fe5b1461042b57600080fd5b6007544281901061043b57600080fd5b610443610dae565b1580156104695750600160a060020a0384166000908152600a6020526040902054858103105b801561048f5750600160a060020a0384166000908152600a602052604081205486900310155b1561032f57600160a060020a0384166000908152600a602052604090208054869003905560088054869003905560019250610334565b60008060018060175460ff1660068111156104dc57fe5b146104e657600080fd5b60015433600160a060020a0390811691161461050157600080fd5b610509610dae565b15156105d557600091505b600c548210156105cc5733600160a060020a0316600c8381548110151561053757fe5b6000918252602090912060049091020154600160a060020a03161480156105805750600c80548390811061056757fe5b600091825260209091206002600490920201015460ff16155b156105c1576001600c8381548110151561059657fe5b60009182526020909120600490910201600201805460ff1916911515919091179055600192506105da565b600190910190610514565b600092506105da565b600092505b505090565b600080548190819033600160a060020a039081169116148061060f575060015433600160a060020a039081169116145b151561061a57600080fd5b600460175460ff16600681111561062d57fe5b14806106495750600660175460ff16600681111561064757fe5b145b151561065457600080fd5b60005433600160a060020a0390811691161415610903576008541561069357600160a060020a0384166000908152600a60205260408120805491905591505b601254156107c757600160a060020a0384166000908152600e602052604090205460145492019160ff1615156106f657601254600160a060020a0385166000908152600e6020526040902054601354028115156106ec57fe5b04820191506107ad565b60145460ff161515600114156107ad57601254600160a060020a0385166000908152600e60205260409020546003540281151561072f57fe5b600054600254929091049250600160a060020a03169063f2d8236c90868460405160e060020a63ffffffff86160281526004810193909352600160a060020a0390911660248301526044820152606401600060405180830381600087803b151561079857600080fd5b6102c65a03f115156107a957600080fd5b5050505b600160a060020a0384166000908152600e60205260408120555b601154156108fb57600160a060020a0384166000908152600d602052604090205460145492019160ff16151561082a57601154600160a060020a0385166000908152600d60205260409020546013540281151561082057fe5b04820191506108e1565b60145460ff161515600114156108e157601154600160a060020a0385166000908152600d60205260409020546003540281151561086357fe5b600054600254929091049250600160a060020a03169063f2d8236c90868460405160e060020a63ffffffff86160281526004810193909352600160a060020a0390911660248301526044820152606401600060405180830381600087803b15156108cc57600080fd5b6102c65a03f115156108dd57600080fd5b5050505b600160a060020a0384166000908152600d60205260408120555b819250610945565b60015433600160a060020a039081169116141561094557600954156108fb57600160a060020a0384166000908152600b60205260408120805491905591508192505b5050919050565b60035481565b6001546000908190819033600160a060020a0390811691161461097457600080fd5b60048060175460ff16600681111561098857fe5b1461099257600080fd5b60009250600091505b600c54821015610a345784600160a060020a0316600c838154811015156109be57fe5b6000918252602090912060049091020154600160a060020a03161415610a2957600c8054839081106109ec57fe5b906000526020600020906004020160030154830192506000600c83815481101515610a1357fe5b9060005260206000209060040201600301819055505b60019091019061099b565b50909392505050565b60018060175460ff166006811115610a5157fe5b14610a5b57600080fd5b60075442819010610a6b57600080fd5b610a73610dae565b1515610b3657600c805460018101610a8b83826111c2565b9160005260206000209060040201600060806040519081016040908152600160a060020a038a16825260208201899052600090820152606081018790529190508151815473ffffffffffffffffffffffffffffffffffffffff1916600160a060020a0391909116178155602082015181600101908051610b0f9291602001906111f3565b50604082015160028201805460ff1916911515919091179055606082015181600301555050505b5050505050565b60175460ff1681565b60008054819033600160a060020a03908116911614610b6457600080fd5b600060175460ff166006811115610b7757fe5b14158015610b86575060065415155b1515610b9157600080fd5b5050600680546000909155805b5090565b6000805433600160a060020a03908116911614610bbe57600080fd5b60028060175460ff166006811115610bd257fe5b14610bdc57600080fd5b610be4610dae565b1515610cd957601054600f54014210610bfc57600080fd5b6001831515148015610c275750600160a060020a0385166000908152600d6020526040902054848101115b8015610c365750601154848101115b15610c6a57600160a060020a0385166000908152600d60205260409020805485019055601180548501905560019150610cd9565b82158015610c915750600160a060020a0385166000908152600e6020526040902054848101115b8015610ca05750601254848101115b15610cd457600160a060020a0333166000908152600e60205260409020805485019055601280548501905560019150610cd9565b600091505b509392505050565b60015460009033600160a060020a03908116911614610cff57600080fd5b60008060175460ff166006811115610d1357fe5b14610d1d57600080fd5b60075442819010610d2d57600080fd5b610d35610dae565b158015610d5b5750600160a060020a0384166000908152600b6020526040902054858103105b8015610d815750600160a060020a0384166000908152600b602052604081205486900310155b1561032f57600160a060020a0384166000908152600b602052604090208054869003905560019250610334565b600080808060175460ff166006811115610dc457fe5b1415610e045760045460085410158015610de2575060055460095410155b156105cc57601780546001919060ff191682805b0217905550600192506105da565b600160175460ff166006811115610e1757fe5b1415610e9857600091505b600c54821015610e8057600c805483908110610e3a57fe5b600091825260209091206002600490920201015460ff161515610e75576007544211156105cc57601780546005919060ff1916600183610df6565b600190910190610e22565b42600f55601780546002919060ff1916600183610df6565b600260175460ff166006811115610eab57fe5b1415610f4657601054600f54014211156105cc57600054600254600160a060020a03909116906332ed3d609062093a808060405160e060020a63ffffffff8616028152600481019390935260248301919091526044820152606401600060405180830381600087803b1515610f1f57600080fd5b6102c65a03f11515610f3057600080fd5b5050601780546003925060ff1916600183610df6565b600360175460ff166006811115610f5957fe5b14156105da5760008054600254600160a060020a039091169163ee68483091906040516020015260405160e060020a63ffffffff84160281526004810191909152602401602060405180830381600087803b1515610fb657600080fd5b6102c65a03f11515610fc757600080fd5b505050604051805190501515610fe057600092506105da565b60008054600254600160a060020a0390911691634940318391906040516020015260405160e060020a63ffffffff84160281526004810191909152602401602060405180830381600087803b151561103757600080fd5b6102c65a03f1151561104857600080fd5b50505060405180519050905061105d81611092565b8015611075576017805460ff19166004179055611089565b601780546006919060ff1916600183610df6565b600192506105da565b80151561119e57600054600254600854600160a060020a0390921691638417a061919060405160e060020a63ffffffff851602815260048101929092526024820152604401600060405180830381600087803b15156110f057600080fd5b6102c65a03f1151561110157600080fd5b5050600154600254600954600160a060020a039092169250638417a0619160405160e060020a63ffffffff851602815260048101929092526024820152604401600060405180830381600087803b151561115a57600080fd5b6102c65a03f1151561116b57600080fd5b5050600060088190556009555060115460138190551515611194576014805460ff191660011790555b60006011556111bf565b601254601381905515156111bf576014805460ff1916600117905560006012555b50565b8154818355818115116111ee576004028160040283600052602060002091820191016111ee919061126d565b505050565b828054600181600116156101000203166002900490600052602060002090601f016020900481019282601f1061123457805160ff1916838001178555611261565b82800160010185558215611261579182015b82811115611261578251825591602001919060010190611246565b50610b9e9291506112c4565b6112c191905b80821115610b9e57805473ffffffffffffffffffffffffffffffffffffffff1916815560006112a560018301826112de565b5060028101805460ff1916905560006003820155600401611273565b90565b6112c191905b80821115610b9e57600081556001016112ca565b50805460018160011615610100020316600290046000825580601f1061130457506111bf565b601f0160209004906000526020600020908101906111bf91906112c45600a165627a7a72305820b9e1509f59b8e29e7331fa5ed27c912a6b521150234f6560ea0de91536bd0cbd0029a165627a7a72305820d347910cd8f43f7c3bdcbe50233c3dfe550f81dead6e05ec1cb49604d7de80340029",
  "source": "pragma solidity ^0.4.8;\n\n//import files\nimport \"./Project.sol\";\nimport \"./StandardToken.sol\";\nimport \"./PLCRVoting.sol\";\n\n/*\n  keeps track of token holder capital token balances of all\n  states (free, staked, validated, voted), ETH pool balance,\n  mint, burn prices\n*/\n\ncontract TokenHolderRegistry is StandardToken {\n\n// =====================================================================\n// STATE VARIABLES\n// =====================================================================\n  address workerRegistry;\n  address plcrVoting;\n\n  uint256 public totalCapitalTokenSupply = 0;               //total supply of capital tokens in all staking states\n  uint256 public totalFreeCapitalTokenSupply = 0;           //total supply of free capital tokens (not staked, validated, or voted)\n\n\n  uint256 public projectNonce = 0;                          //no projects in existence when contract initialized\n  mapping(uint256 => Projects) public projectId;                    //projectId to project address\n\n  struct Projects {\n    address projectAddress;\n    uint256 votingPollId;             //for voting\n  }\n\n  struct Proposer {\n    address proposer;         //who is the proposer\n    uint256 proposerStake;    //how much did they stake in tokens\n    uint256 projectCost;\n  }\n\n  mapping(address => Proposer) proposers;                   //project -> Proposer\n  uint256 proposeProportion = 20;                           // tokensupply/proposeProportion is the number of tokens the proposer must stake\n  uint256 rewardProportion = 100;\n\n  //minting & burning state variables from Simon de la Rouviere's code\n  uint256 public constant MAX_UINT = (2**256) - 1;\n  //uint256 baseCost = 100000000000000;\n  uint256 baseCost = 100000000000000;                   //.0001 ether --> 3 cents for the initial token\n  uint256 public costPerToken = 0;                      //current minting price\n\n  //ether pool\n  uint256 public weiBal;   //in wei\n\n// =====================================================================\n// EVENTS\n// =====================================================================\n\n  event LogMint(uint256 amountMinted, uint256 totalCost);\n  event LogWithdraw(uint256 amountWithdrawn, uint256 reward);\n  event LogCostOfTokenUpdate(uint256 newCost);\n  event LogProposal(uint256 nonce, uint256 proposalCostInTokens);\n\n// =====================================================================\n// MODIFIERS\n// =====================================================================\n\n  modifier onlyWR() {\n    require(msg.sender == workerRegistry);\n    _;\n  }\n\n// =====================================================================\n// FUNCTIONS\n// =====================================================================\n\n  // =====================================================================\n  // QUASI-CONSTRUCTOR\n  // =====================================================================\n  function init(address _workerRegistry, address _plcrVoting) public {       //contract is created\n    workerRegistry = _workerRegistry;\n    plcrVoting = _plcrVoting;\n    updateMintingPrice(0);\n  }\n\n  // =====================================================================\n  // GENERAL FUNCTION\n  // =====================================================================\n\n  function getProjectAddress(uint256 _id) public view onlyWR() returns (address) {\n    if (_id <= projectNonce && _id > 0) {\n      return projectId[_id].projectAddress;\n    }\n  }\n\n  function getPollId(uint256 _id) public view onlyWR() returns (uint256) {\n    if (_id <= projectNonce && _id > 0) {\n      return projectId[_id].votingPollId;\n    }\n  }\n  // =====================================================================\n  // MINTING FUNCTIONS\n  // =====================================================================\n\n  function fracExp(uint256 k, uint256 q, uint256 n, uint256 p) internal pure returns (uint) {\n    // via: http://ethereum.stackexchange.com/questions/10425/is-there-any-efficient-way-to-compute-the-exponentiation-of-a-fraction-and-an-in/10432#10432\n    // Computes `k * (1+1/q) ^ N`, with precision `p`. The higher\n    // the precision, the higher the gas cost. It should be\n    // something around the log of `n`. When `p == n`, the\n    // precision is absolute (sans possible integer overflows).\n    // Much smaller values are sufficient to get a great approximation.\n    uint256 s = 0;\n    uint256 N = 1;\n    uint256 B = 1;\n    for (uint256 i = 0; i < p; ++i){\n      s += k * N / B / (q**i);\n      N  = N * (n-i);\n      B  = B * (i+1);\n    }\n    return s;\n  }\n\n  function updateMintingPrice(uint256 _supply) internal {\n      costPerToken = baseCost+fracExp(baseCost, 618046, _supply, 2)+baseCost*_supply/1000;\n      LogCostOfTokenUpdate(costPerToken);\n  }\n\n  function mint(uint _tokens) public payable {\n      //token balance of msg.sender increases if paid right amount according to protocol\n      //will mint as many tokens as it can depending on msg.value, requested # tokens, and MAX_UINT\n      uint256 totalMinted = 0;\n      uint256 fundsLeft = msg.value;\n      while(fundsLeft >= costPerToken && totalMinted < _tokens) {       //leaves loop when minted proper number of tokens or ran out of funds or token supply hit maximum value\n        if (totalCapitalTokenSupply + totalMinted < MAX_UINT) {\n          fundsLeft -= costPerToken;                                    //subtract token cost from amount paid\n          totalMinted += 1;                                             //update the amount of tokens minted\n          updateMintingPrice((totalCapitalTokenSupply + totalMinted));  //update costPerToken for next token\n        }\n        else{\n          break;                                                        //token supply hit maximum value\n        }\n      }\n      if(totalMinted < _tokens) {                     //if ran out of funds, revert transaction\n        updateMintingPrice(totalCapitalTokenSupply);  //revert to minting price before token purchase request\n        revert();\n      }\n      if(fundsLeft > 0) {                             //send back leftover funds if proper amount minted\n          msg.sender.transfer(fundsLeft);\n      }\n      totalCapitalTokenSupply += totalMinted;\n      totalFreeCapitalTokenSupply += totalMinted;\n      balances[msg.sender] += totalMinted;\n      weiBal += (msg.value - fundsLeft);\n      LogMint(totalMinted, (msg.value - fundsLeft));\n    }\n\n  function burnAndRefund(uint256 _amountToBurn) public returns (bool success) {      //free tokens only\n      if(_amountToBurn > 0 && (balances[msg.sender]) >= _amountToBurn) {\n          //determine how much you can leave with.\n          uint256 reward = _amountToBurn * weiBal/totalCapitalTokenSupply;    //truncation - remainder discarded\n          balances[msg.sender] -= _amountToBurn;\n          totalCapitalTokenSupply -= _amountToBurn;\n          totalFreeCapitalTokenSupply -= _amountToBurn;\n          msg.sender.transfer(reward);\n          updateMintingPrice(totalCapitalTokenSupply);\n          LogWithdraw(_amountToBurn, reward);\n          return true;\n      } else {\n          return false;\n      }\n  }\n\n  function burnAndRefundPrice() internal view returns (uint256 price) {\n    //calculated current burn reward of 1 token at current weiBal and token supply\n    uint256 reward = weiBal/totalCapitalTokenSupply; //truncation - remainder discarded\n    return reward;                                   //reward in wei of burning 1 token\n  }\n\n  // =====================================================================\n  // PROPOSER FUNCTIONS\n  // =====================================================================\n\n  function proposeProject(uint256 _cost, uint256 _projectDeadline) public {    //_cost of project in ether, _projectDeadline is for end of active period\n    //calculate cost of project in tokens currently (_cost in wei)\n    //check proposer has at least 5% of the proposed cost in tokens\n    require(now < _projectDeadline);\n    uint256 _burnprice = burnAndRefundPrice();\n    uint256 currentTokenCost = _cost / _burnprice;      //project cost in tokens\n    uint256 proposerTokenCost = currentTokenCost / proposeProportion;           //divide by 20 to get 5 percent of tokens\n    require(balances[msg.sender] >= proposerTokenCost);\n    balances[msg.sender] -= proposerTokenCost;\n    totalFreeCapitalTokenSupply -= proposerTokenCost;\n    projectNonce += 1;\n    LogProposal(projectNonce, proposerTokenCost);                                                     //determine project id\n    Project newProject = new Project(projectNonce,\n                                     _cost,\n                                     _projectDeadline,\n                                     currentTokenCost,\n                                     proposerTokenCost\n                                     );\n    address _projectAddress = address(newProject);\n    Projects storage tempProject = projectId[projectNonce];\n    tempProject.projectAddress = _projectAddress;\n    Proposer storage tempProposer = proposers[_projectAddress];\n    tempProposer.proposer = msg.sender;\n    tempProposer.proposerStake = proposerTokenCost;\n    tempProposer.projectCost = _cost;\n  }\n\n  function refundProposer(uint256 _projectId) public {                                 //called by proposer to get refund once project is active\n    address _projectAddress = projectId[_projectId].projectAddress;\n    require(proposers[_projectAddress].proposer == msg.sender);\n    uint256 proposerStake = Project(_projectAddress).refundProposer();           //call project to \"send back\" staked tokens to put in proposer's balances\n    balances[msg.sender] += proposerStake;                                      //give proposer back their tokens\n    totalFreeCapitalTokenSupply += proposerStake;\n    uint256 proposerReward = proposers[_projectAddress].projectCost/rewardProportion;\n    msg.sender.transfer(proposerReward);                                        //how are we sure that this still exists in the ethpool?\n  }\n\n  // =====================================================================\n  // PROPOSED PROJECT - STAKING FUNCTIONALITY\n  // =====================================================================\n\n  function stakeToken(uint256 _projectId, uint256 _tokens) public {\n    require(balances[msg.sender] >= _tokens && _projectId <= projectNonce && _projectId > 0);   //make sure project exists & TH has tokens to stake\n    bool success = Project(projectId[_projectId].projectAddress).stakeCapitalToken(_tokens, msg.sender);\n    assert(success == true);\n    balances[msg.sender] -= _tokens;\n    totalFreeCapitalTokenSupply -= _tokens;\n  }\n\n  function unstakeToken(uint256 _projectId, uint256 _tokens) public {\n    require(_projectId <= projectNonce && _projectId > 0);\n    bool success = Project(projectId[_projectId].projectAddress).unstakeCapitalToken(_tokens, msg.sender);\n    assert(success == true);\n    balances[msg.sender] += _tokens;\n    totalFreeCapitalTokenSupply += _tokens;\n  }\n\n  // =====================================================================\n  // COMPLETED PROJECT - VALIDATION & VOTING FUNCTIONALITY\n  // =====================================================================\n\n  function validate(uint256 _projectId, uint256 _tokens, bool _validationState) public {\n    require(balances[msg.sender] >= _tokens && _projectId <= projectNonce && _projectId > 0);\n    bool success = Project(projectId[_projectId].projectAddress).validate(msg.sender, _tokens, _validationState);\n    assert(success == true);\n    balances[msg.sender] -= _tokens;\n    totalFreeCapitalTokenSupply -= _tokens;\n  }\n\n  function startPoll(uint256 _projectId, uint256 _commitDuration, uint256 _revealDuration) public {\n      require(projectId[_projectId].projectAddress == msg.sender);\n      uint256 _pollId = PLCRVoting(plcrVoting).startPoll(50, _commitDuration, _revealDuration);\n      projectId[_projectId].votingPollId = _pollId;\n    }\n\n  function voteCommit(uint256 _projectId, uint256 _tokens, bytes32 _secretHash, uint256 _prevPollID) public {     //_secretHash Commit keccak256 hash of voter's choice and salt (tightly packed in this order), done off-chain\n    uint256 pollId = projectId[_projectId].votingPollId;\n    //calculate available tokens for voting\n    uint256 availableTokens = PLCRVoting(plcrVoting).voteTokenBalanceTH(msg.sender) - PLCRVoting(plcrVoting).getLockedTokens(msg.sender);\n    //make sure msg.sender has tokens available in PLCR contract\n    //if not, request voting rights for token holder\n    if (availableTokens < _tokens) {\n      require(balances[msg.sender] >= _tokens - availableTokens && _projectId <= projectNonce && _projectId > 0);\n      balances[msg.sender] -= _tokens;\n      totalFreeCapitalTokenSupply -= _tokens;\n      PLCRVoting(plcrVoting).requestVotingRights(msg.sender, _tokens - availableTokens);\n    }\n    PLCRVoting(plcrVoting).commitVote(msg.sender, pollId, _secretHash, _tokens, _prevPollID);\n  }\n\n  function voteReveal(uint256 _projectId, uint256 _voteOption, uint _salt) public {\n    uint256 pollId = projectId[_projectId].votingPollId;\n    PLCRVoting(plcrVoting).revealVote(pollId, _voteOption, _salt);\n  }\n\n  function refundVotingTokens(uint256 _tokens) public {\n    PLCRVoting(plcrVoting).withdrawVotingRights(msg.sender, _tokens);\n    balances[msg.sender] += _tokens;\n    totalFreeCapitalTokenSupply += _tokens;\n  }\n\n  // =====================================================================\n  // FAILED / VALIDATED PROJECT\n  // =====================================================================\n\n  function pollEnded(uint256 _projectId) public view returns (bool) {\n    require(projectId[_projectId].projectAddress == msg.sender);\n    bool success = PLCRVoting(plcrVoting).pollEnded(projectId[_projectId].votingPollId);\n    return success;\n  }\n\n  function isPassed(uint256 _projectId) public view returns (bool) {\n    require(projectId[_projectId].projectAddress == msg.sender);\n    bool success = PLCRVoting(plcrVoting).isPassed(projectId[_projectId].votingPollId);\n    return success;\n  }\n\n  function updateTotal(uint256 _projectId, uint256 _tokens) public {\n    require(projectId[_projectId].projectAddress == msg.sender);                               //check that valid project is calling this function\n    totalCapitalTokenSupply -= _tokens;\n  }\n\n  function refundStaker(uint256 _projectId) public {\n    uint256 refund = Project(projectId[_projectId].projectAddress).refundStaker(msg.sender);\n    totalFreeCapitalTokenSupply += refund;\n    balances[msg.sender] += refund;\n\n    //rescue locked tokens that weren't revealed\n    uint256 pollId = projectId[_projectId].votingPollId;\n    PLCRVoting(plcrVoting).rescueTokens(msg.sender, pollId);\n  }\n\n  function rewardValidator(uint256 _projectId, address _validator, uint256 _reward) public {\n    require(projectId[_projectId].projectAddress == msg.sender);\n    _validator.transfer(_reward);\n  }\n\n  function rewardWorker(address _worker, uint256 _reward) public onlyWR() {\n    _worker.transfer(_reward);\n  }\n}\n",
  "sourcePath": "/Users/jessicamarshall/Desktop/Distribute/contracts/TokenHolderRegistry.sol",
  "schemaVersion": "1.0.0",
  "updatedAt": "2017-10-16T17:13:31.734Z"
}