{
  "contractName": "WorkerRegistry",
  "abi": [
    {
      "constant": false,
      "inputs": [
        {
          "name": "_projectId",
          "type": "uint256"
        }
      ],
      "name": "refundStaker",
      "outputs": [],
      "payable": false,
      "type": "function"
    },
    {
      "constant": false,
      "inputs": [
        {
          "name": "_projectId",
          "type": "uint256"
        },
        {
          "name": "_tokens",
          "type": "uint256"
        },
        {
          "name": "_votingState",
          "type": "bool"
        }
      ],
      "name": "vote",
      "outputs": [],
      "payable": false,
      "type": "function"
    },
    {
      "constant": false,
      "inputs": [
        {
          "name": "_projectId",
          "type": "uint256"
        }
      ],
      "name": "rewardWorker",
      "outputs": [],
      "payable": false,
      "type": "function"
    },
    {
      "constant": false,
      "inputs": [
        {
          "name": "_projectId",
          "type": "uint256"
        },
        {
          "name": "_tokens",
          "type": "uint256"
        }
      ],
      "name": "updateTotal",
      "outputs": [],
      "payable": false,
      "type": "function"
    },
    {
      "constant": false,
      "inputs": [
        {
          "name": "_projectId",
          "type": "uint256"
        }
      ],
      "name": "completeTask",
      "outputs": [],
      "payable": false,
      "type": "function"
    },
    {
      "constant": false,
      "inputs": [
        {
          "name": "_projectId",
          "type": "uint256"
        },
        {
          "name": "_tokens",
          "type": "uint256"
        }
      ],
      "name": "unstakeToken",
      "outputs": [],
      "payable": false,
      "type": "function"
    },
    {
      "constant": false,
      "inputs": [
        {
          "name": "_projectId",
          "type": "uint256"
        },
        {
          "name": "_tokens",
          "type": "uint256"
        }
      ],
      "name": "stakeToken",
      "outputs": [],
      "payable": false,
      "type": "function"
    },
    {
      "inputs": [
        {
          "name": "_tokenHolderRegistry",
          "type": "address"
        }
      ],
      "payable": false,
      "type": "constructor"
    }
  ],
  "bytecode": "0x6060604052341561000f57600080fd5b604051602080610914833981016040528080519150505b60008054600160a060020a031916600160a060020a0383161790555b505b6108c1806100536000396000f300606060405236156100675763ffffffff60e060020a6000350416630d2efe3f811461006c5780636a18ff7a146100845780636c073f0f146100a45780638417a061146100bc578063e1e29558146100d7578063ffa7a4a3146100ef578063ffab4bd91461010a575b600080fd5b341561007757600080fd5b610082600435610125565b005b341561008f57600080fd5b6100826004356024356044351515610233565b005b34156100af57600080fd5b610082600435610362565b005b34156100c757600080fd5b6100826004356024356104be565b005b34156100e257600080fd5b610082600435610554565b005b34156100fa57600080fd5b610082600435602435610627565b005b341561011557600080fd5b610082600435602435610749565b005b600080548190600160a060020a0316634ca3e9b884836040516020015260405160e060020a63ffffffff84160281526004810191909152602401602060405180830381600087803b151561017857600080fd5b6102c65a03f1151561018957600080fd5b5050506040518051925050600160a060020a038216635c3523183360006040516020015260405160e060020a63ffffffff8416028152600160a060020a039091166004820152602401602060405180830381600087803b15156101eb57600080fd5b6102c65a03f115156101fc57600080fd5b50505060405180516003805482019055600160a060020a03331660009081526001602052604090208054820190559150505b505050565b600080548190600160a060020a0316634ca3e9b886836040516020015260405160e060020a63ffffffff84160281526004810191909152602401602060405180830381600087803b151561028657600080fd5b6102c65a03f1151561029757600080fd5b5050506040518051925050600160a060020a03821663e1a0257733868660006040516020015260405160e060020a63ffffffff8616028152600160a060020a039093166004840152602483019190915215156044820152606401602060405180830381600087803b151561030a57600080fd5b6102c65a03f1151561031b57600080fd5b505050604051805191505060018115151461033257fe5b600160a060020a0333166000908152600160205260409020805485900390556003805485900390555b5050505050565b600080548190600160a060020a0316634ca3e9b884836040516020015260405160e060020a63ffffffff84160281526004810191909152602401602060405180830381600087803b15156103b557600080fd5b6102c65a03f115156103c657600080fd5b5050506040518051925050600160a060020a03821663638678db3360006040516020015260405160e060020a63ffffffff8416028152600160a060020a039091166004820152602401602060405180830381600087803b151561042857600080fd5b6102c65a03f1151561043957600080fd5b5050506040518051915050600081111561022e57600054600160a060020a0316630e119595338360405160e060020a63ffffffff8516028152600160a060020a0390921660048301526024820152604401600060405180830381600087803b15156104a357600080fd5b6102c65a03f115156104b457600080fd5b5050505b5b505050565b60008054600160a060020a0333811692911690634ca3e9b89085906040516020015260405160e060020a63ffffffff84160281526004810191909152602401602060405180830381600087803b151561051657600080fd5b6102c65a03f1151561052757600080fd5b50505060405180519050600160a060020a031614151561054657600080fd5b6002805482900390555b5050565b60008054600160a060020a0316634ca3e9b883836040516020015260405160e060020a63ffffffff84160281526004810191909152602401602060405180830381600087803b15156105a557600080fd5b6102c65a03f115156105b657600080fd5b5050506040518051915050600160a060020a0381166343bb8db56000604051602001526040518163ffffffff1660e060020a028152600401602060405180830381600087803b151561060757600080fd5b6102c65a03f1151561061857600080fd5b505050604051805150505b5050565b600080548190600160a060020a0316634ca3e9b885836040516020015260405160e060020a63ffffffff84160281526004810191909152602401602060405180830381600087803b151561067a57600080fd5b6102c65a03f1151561068b57600080fd5b5050506040518051925050600160a060020a03821663fe12c92a843360006040516020015260405160e060020a63ffffffff85160281526004810192909252600160a060020a03166024820152604401602060405180830381600087803b15156106f457600080fd5b6102c65a03f1151561070557600080fd5b505050604051805191505060018115151461071c57fe5b600160a060020a033316600090815260016020526040902080548401905560038054840190555b50505050565b600080548190600160a060020a0316634ca3e9b885836040516020015260405160e060020a63ffffffff84160281526004810191909152602401602060405180830381600087803b151561079c57600080fd5b6102c65a03f115156107ad57600080fd5b5050506040518051600160a060020a0333166000908152600160205260409020549093508490101590506107e057600080fd5b81600160a060020a03166304757221843360006040516020015260405160e060020a63ffffffff85160281526004810192909252600160a060020a03166024820152604401602060405180830381600087803b151561083e57600080fd5b6102c65a03f1151561084f57600080fd5b505050604051805191505060018115151461086657fe5b600160a060020a0333166000908152600160205260409020805484900390556003805484900390555b505050505600a165627a7a7230582009ec509a7d64a4e0295d870cc6b39f3a2b6d0878ac0bbf4d368fe7bd6ba64b540029",
  "source": "pragma solidity ^0.4.10;\n\n//import files\nimport \"./Project.sol\";\nimport \"./TokenHolderRegistry.sol\";\n\n/*\n  keeps track of worker token balances of all\n  states (free, staked, voted\n*/\n\n//INCOMPLETE\n\ncontract WorkerRegistry{\n\n// =====================================================================\n// STATE VARIABLES\n// =====================================================================\n\n  address tokenHolderRegistry;\n\n  mapping (address => uint) balances;           //worker token balances\n\n  uint256 totalWorkerTokenSupply;               //total supply of capital tokens in all states\n  uint256 totalFreeWorkerTokenSupply;           //total supply of free capital tokens (not staked, validated, or voted)\n\n// =====================================================================\n// EVENTS\n// =====================================================================\n\n// =====================================================================\n// FUNCTIONS\n// =====================================================================\n\n  // =====================================================================\n  // CONSTRUCTOR\n  // =====================================================================\n\n  function WorkerRegistry(address _tokenHolderRegistry){\n      tokenHolderRegistry = _tokenHolderRegistry;\n  }\n\n  // =====================================================================\n  // PROPOSED PROJECT - STAKING FUNCTIONALITY\n  // =====================================================================\n\n  function stakeToken(uint256 _projectId, uint256 _tokens) {\n    address _projectAddress = TokenHolderRegistry(tokenHolderRegistry).getProjectAddress(_projectId);\n    require(balances[msg.sender] >= _tokens);   //make sure project exists & TH has tokens to stake\n    bool success = Project(_projectAddress).stakeWorkerToken(_tokens, msg.sender);\n    assert(success == true);\n    balances[msg.sender] -= _tokens;\n    totalFreeWorkerTokenSupply -= _tokens;\n  }\n\n  function unstakeToken(uint256 _projectId, uint256 _tokens) {\n    address _projectAddress = TokenHolderRegistry(tokenHolderRegistry).getProjectAddress(_projectId);\n    bool success = Project(_projectAddress).unstakeWorkerToken(_tokens, msg.sender);\n    assert(success == true);\n    balances[msg.sender] += _tokens;\n    totalFreeWorkerTokenSupply += _tokens;\n  }\n\n  // =====================================================================\n  // =====================================================================\n\n  function completeTask(uint _projectId) {\n    address _projectAddress = TokenHolderRegistry(tokenHolderRegistry).getProjectAddress(_projectId);\n    Project(_projectAddress).completeTask();\n  }\n\n  // =====================================================================\n  // COMPLETED PROJECT - VALIDATION & VOTING FUNCTIONALITY\n  // =====================================================================\n\n  function vote(uint256 _projectId, uint256 _tokens, bool _votingState) {\n    address _projectAddress = TokenHolderRegistry(tokenHolderRegistry).getProjectAddress(_projectId);\n    bool success = Project(_projectAddress).vote(msg.sender, _tokens, _votingState);\n    assert(success == true);\n    balances[msg.sender] -= _tokens;\n    totalFreeWorkerTokenSupply -= _tokens;\n  }\n\n  // =====================================================================\n  // FAILED / VALIDATED PROJECT\n  // =====================================================================\n\n  function updateTotal(uint256 _projectId, uint256 _tokens) {\n    require(TokenHolderRegistry(tokenHolderRegistry).getProjectAddress(_projectId) == msg.sender);                  //check that valid project is calling this function\n    totalWorkerTokenSupply -= _tokens;\n  }\n\n\n  function refundStaker(uint256 _projectId) {                                                                       //called by worker who staked or voted\n    address _projectAddress = TokenHolderRegistry(tokenHolderRegistry).getProjectAddress(_projectId);\n    uint256 _refund = Project(_projectAddress).refundStaker(msg.sender);\n    totalFreeWorkerTokenSupply += _refund;\n    balances[msg.sender] += _refund;\n  }\n\n  function rewardWorker(uint256 _projectId) {                                   //called by worker who completed a task\n    address _projectAddress = TokenHolderRegistry(tokenHolderRegistry).getProjectAddress(_projectId);\n    uint256 _reward = Project(_projectAddress).rewardWorker(msg.sender);\n    if (_reward > 0) {\n      TokenHolderRegistry(tokenHolderRegistry).rewardWorker(msg.sender, _reward);\n    }\n\n  }\n}\n",
  "sourcePath": "/Users/jessicamarshall/Desktop/Distribute/contracts/WorkerRegistry.sol",
  "schemaVersion": "1.0.0",
  "updatedAt": "2017-10-08T21:03:20.453Z"
}