{
  "contractName": "WorkerRegistry",
  "abi": [
    {
      "constant": false,
      "inputs": [
        {
          "name": "_projectId",
          "type": "uint256"
        }
      ],
      "name": "refundStaker",
      "outputs": [],
      "payable": false,
      "stateMutability": "nonpayable",
      "type": "function"
    },
    {
      "constant": false,
      "inputs": [
        {
          "name": "_projectId",
          "type": "uint256"
        }
      ],
      "name": "rewardWorker",
      "outputs": [],
      "payable": false,
      "stateMutability": "nonpayable",
      "type": "function"
    },
    {
      "constant": false,
      "inputs": [
        {
          "name": "_projectId",
          "type": "uint256"
        },
        {
          "name": "_tokens",
          "type": "uint256"
        },
        {
          "name": "_secretHash",
          "type": "bytes32"
        },
        {
          "name": "_prevPollID",
          "type": "uint256"
        }
      ],
      "name": "voteCommit",
      "outputs": [],
      "payable": false,
      "stateMutability": "nonpayable",
      "type": "function"
    },
    {
      "constant": false,
      "inputs": [
        {
          "name": "_projectId",
          "type": "uint256"
        },
        {
          "name": "_tokens",
          "type": "uint256"
        }
      ],
      "name": "updateTotal",
      "outputs": [],
      "payable": false,
      "stateMutability": "nonpayable",
      "type": "function"
    },
    {
      "constant": false,
      "inputs": [
        {
          "name": "_projectId",
          "type": "uint256"
        },
        {
          "name": "_voteOption",
          "type": "uint256"
        },
        {
          "name": "_salt",
          "type": "uint256"
        }
      ],
      "name": "voteReveal",
      "outputs": [],
      "payable": false,
      "stateMutability": "nonpayable",
      "type": "function"
    },
    {
      "constant": false,
      "inputs": [
        {
          "name": "_tokens",
          "type": "uint256"
        }
      ],
      "name": "refundVotingTokens",
      "outputs": [],
      "payable": false,
      "stateMutability": "nonpayable",
      "type": "function"
    },
    {
      "constant": false,
      "inputs": [
        {
          "name": "_projectId",
          "type": "uint256"
        }
      ],
      "name": "completeTask",
      "outputs": [],
      "payable": false,
      "stateMutability": "nonpayable",
      "type": "function"
    },
    {
      "constant": false,
      "inputs": [
        {
          "name": "_tokenHolderRegistry",
          "type": "address"
        },
        {
          "name": "_plcrVoting",
          "type": "address"
        }
      ],
      "name": "init",
      "outputs": [],
      "payable": false,
      "stateMutability": "nonpayable",
      "type": "function"
    },
    {
      "constant": false,
      "inputs": [
        {
          "name": "_projectId",
          "type": "uint256"
        },
        {
          "name": "_tokens",
          "type": "uint256"
        }
      ],
      "name": "unstakeToken",
      "outputs": [],
      "payable": false,
      "stateMutability": "nonpayable",
      "type": "function"
    },
    {
      "constant": false,
      "inputs": [
        {
          "name": "_projectId",
          "type": "uint256"
        },
        {
          "name": "_tokens",
          "type": "uint256"
        }
      ],
      "name": "stakeToken",
      "outputs": [],
      "payable": false,
      "stateMutability": "nonpayable",
      "type": "function"
    }
  ],
  "bytecode": "0x6060604052341561000f57600080fd5b610cd58061001e6000396000f300606060405236156100885763ffffffff60e060020a6000350416630d2efe3f811461008d5780636c073f0f146100a55780637d6bd25c146100bb5780638417a061146100da5780638ee9ad32146100f35780639ab676731461010f578063e1e2955814610125578063f09a40161461013b578063ffa7a4a314610160578063ffab4bd914610179575b600080fd5b341561009857600080fd5b6100a3600435610192565b005b34156100b057600080fd5b6100a360043561029e565b34156100c657600080fd5b6100a36004356024356044356064356103f9565b34156100e557600080fd5b6100a3600435602435610728565b34156100fe57600080fd5b6100a36004356024356044356107bd565b341561011a57600080fd5b6100a360043561089d565b341561013057600080fd5b6100a3600435610930565b341561014657600080fd5b6100a3600160a060020a0360043581169060243516610a02565b341561016b57600080fd5b6100a3600435602435610a3d565b341561018457600080fd5b6100a3600435602435610b5e565b600080548190600160a060020a0316634ca3e9b884836040516020015260405160e060020a63ffffffff84160281526004810191909152602401602060405180830381600087803b15156101e557600080fd5b6102c65a03f115156101f657600080fd5b5050506040518051925050600160a060020a038216635c3523183360006040516020015260405160e060020a63ffffffff8416028152600160a060020a039091166004820152602401602060405180830381600087803b151561025857600080fd5b6102c65a03f1151561026957600080fd5b50505060405180516004805482019055600160a060020a03331660009081526002602052604090208054909101905550505050565b600080548190600160a060020a0316634ca3e9b884836040516020015260405160e060020a63ffffffff84160281526004810191909152602401602060405180830381600087803b15156102f157600080fd5b6102c65a03f1151561030257600080fd5b5050506040518051925050600160a060020a03821663638678db3360006040516020015260405160e060020a63ffffffff8416028152600160a060020a039091166004820152602401602060405180830381600087803b151561036457600080fd5b6102c65a03f1151561037557600080fd5b505050604051805191505060008111156103f457600054600160a060020a0316630e119595338360405160e060020a63ffffffff8516028152600160a060020a0390921660048301526024820152604401600060405180830381600087803b15156103df57600080fd5b6102c65a03f115156103f057600080fd5b5050505b505050565b6000805481908190600160a060020a0316639facbedd88836040516020015260405160e060020a63ffffffff84160281526004810191909152602401602060405180830381600087803b151561044e57600080fd5b6102c65a03f1151561045f57600080fd5b505050604051805160008054919550600160a060020a0390911691506326d2ce6790604051602001526040518163ffffffff1660e060020a028152600401602060405180830381600087803b15156104b657600080fd5b6102c65a03f115156104c757600080fd5b5050506040518051600154909350600160a060020a03169050636b2d95d43360006040516020015260405160e060020a63ffffffff8416028152600160a060020a039091166004820152602401602060405180830381600087803b151561052d57600080fd5b6102c65a03f1151561053e57600080fd5b5050506040518051600154909150600160a060020a03166387c6bb9c3360006040516020015260405160e060020a63ffffffff8416028152600160a060020a039091166004820152602401602060405180830381600087803b15156105a257600080fd5b6102c65a03f115156105b357600080fd5b505050604051805190500390508581101561069d57600160a060020a03331660009081526002602052604090205481870390108015906105f35750818711155b80156105ff5750600087115b151561060a57600080fd5b33600160a060020a038181166000908152600260205260409081902080548a90039055600480548a900390556001549091169163c5fa801b91848a03905160e060020a63ffffffff8516028152600160a060020a0390921660048301526024820152604401600060405180830381600087803b151561068857600080fd5b6102c65a03f1151561069957600080fd5b5050505b600154600160a060020a0316635e28fd5e3385888a8960405160e060020a63ffffffff8816028152600160a060020a039095166004860152602485019390935260448401919091526064830152608482015260a401600060405180830381600087803b151561070b57600080fd5b6102c65a03f1151561071c57600080fd5b50505050505050505050565b60008054600160a060020a0333811692911690634ca3e9b89085906040516020015260405160e060020a63ffffffff84160281526004810191909152602401602060405180830381600087803b151561078057600080fd5b6102c65a03f1151561079157600080fd5b50505060405180519050600160a060020a03161415156107b057600080fd5b6003805491909103905550565b60008054600160a060020a0316639facbedd85836040516020015260405160e060020a63ffffffff84160281526004810191909152602401602060405180830381600087803b151561080e57600080fd5b6102c65a03f1151561081f57600080fd5b5050506040518051600154909250600160a060020a0316905063b11d8bb882858560405160e060020a63ffffffff8616028152600481019390935260248301919091526044820152606401600060405180830381600087803b151561088357600080fd5b6102c65a03f1151561089457600080fd5b50505050505050565b600154600160a060020a031663ef348e40338360405160e060020a63ffffffff8516028152600160a060020a0390921660048301526024820152604401600060405180830381600087803b15156108f357600080fd5b6102c65a03f1151561090457600080fd5b505050600160a060020a0333166000908152600260205260409020805482019055600480549091019055565b60008054600160a060020a0316634ca3e9b883836040516020015260405160e060020a63ffffffff84160281526004810191909152602401602060405180830381600087803b151561098157600080fd5b6102c65a03f1151561099257600080fd5b5050506040518051915050600160a060020a0381166343bb8db56000604051602001526040518163ffffffff1660e060020a028152600401602060405180830381600087803b15156109e357600080fd5b6102c65a03f115156109f457600080fd5b505050604051805150505050565b60008054600160a060020a0393841673ffffffffffffffffffffffffffffffffffffffff199182161790915560018054929093169116179055565b600080548190600160a060020a0316634ca3e9b885836040516020015260405160e060020a63ffffffff84160281526004810191909152602401602060405180830381600087803b1515610a9057600080fd5b6102c65a03f11515610aa157600080fd5b5050506040518051925050600160a060020a03821663fe12c92a843360006040516020015260405160e060020a63ffffffff85160281526004810192909252600160a060020a03166024820152604401602060405180830381600087803b1515610b0a57600080fd5b6102c65a03f11515610b1b57600080fd5b5050506040518051915050600181151514610b3257fe5b5050600160a060020a033316600090815260026020526040902080548201905560048054909101905550565b600080548190600160a060020a0316634ca3e9b885836040516020015260405160e060020a63ffffffff84160281526004810191909152602401602060405180830381600087803b1515610bb157600080fd5b6102c65a03f11515610bc257600080fd5b5050506040518051600160a060020a033316600090815260026020526040902054909350849010159050610bf557600080fd5b81600160a060020a03166304757221843360006040516020015260405160e060020a63ffffffff85160281526004810192909252600160a060020a03166024820152604401602060405180830381600087803b1515610c5357600080fd5b6102c65a03f11515610c6457600080fd5b5050506040518051915050600181151514610c7b57fe5b5050600160a060020a03331660009081526002602052604090208054829003905560048054919091039055505600a165627a7a723058206d57c881021bf899f5c2c6155a35ed5e52a2abb88401645bcb04b1e430c033310029",
  "source": "pragma solidity ^0.4.10;\n\n//import files\nimport \"./Project.sol\";\nimport \"./TokenHolderRegistry.sol\";\nimport \"./PLCRVoting.sol\";\n\n/*\n  keeps track of worker token balances of all\n  states (free, staked, voted\n*/\n\n//INCOMPLETE\n\ncontract WorkerRegistry{\n\n// =====================================================================\n// STATE VARIABLES\n// =====================================================================\n\n  address tokenHolderRegistry;\n  address plcrVoting;\n\n  mapping (address => uint) balances;           //worker token balances\n\n  uint256 totalWorkerTokenSupply;               //total supply of capital tokens in all states\n  uint256 totalFreeWorkerTokenSupply;           //total supply of free capital tokens (not staked, validated, or voted)\n\n// =====================================================================\n// EVENTS\n// =====================================================================\n\n// =====================================================================\n// FUNCTIONS\n// =====================================================================\n\n  // =====================================================================\n  // CONSTRUCTOR\n  // =====================================================================\n\n  function init(address _tokenHolderRegistry, address _plcrVoting) public {\n      tokenHolderRegistry = _tokenHolderRegistry;\n      plcrVoting = _plcrVoting;\n  }\n\n  // =====================================================================\n  // PROPOSED PROJECT - STAKING FUNCTIONALITY\n  // =====================================================================\n\n  function stakeToken(uint256 _projectId, uint256 _tokens) public {\n    address _projectAddress = TokenHolderRegistry(tokenHolderRegistry).getProjectAddress(_projectId);\n    require(balances[msg.sender] >= _tokens);   //make sure project exists & TH has tokens to stake\n    bool success = Project(_projectAddress).stakeWorkerToken(_tokens, msg.sender);\n    assert(success == true);\n    balances[msg.sender] -= _tokens;\n    totalFreeWorkerTokenSupply -= _tokens;\n  }\n\n  function unstakeToken(uint256 _projectId, uint256 _tokens) public {\n    address _projectAddress = TokenHolderRegistry(tokenHolderRegistry).getProjectAddress(_projectId);\n    bool success = Project(_projectAddress).unstakeWorkerToken(_tokens, msg.sender);\n    assert(success == true);\n    balances[msg.sender] += _tokens;\n    totalFreeWorkerTokenSupply += _tokens;\n  }\n\n  // =====================================================================\n  // =====================================================================\n\n  function completeTask(uint _projectId) public {\n    address _projectAddress = TokenHolderRegistry(tokenHolderRegistry).getProjectAddress(_projectId);\n    Project(_projectAddress).completeTask();\n  }\n\n  // =====================================================================\n  // COMPLETED PROJECT - VALIDATION & VOTING FUNCTIONALITY\n  // =====================================================================\n\n  function voteCommit(uint256 _projectId, uint256 _tokens, bytes32 _secretHash, uint256 _prevPollID) public {     //_secretHash Commit keccak256 hash of voter's choice and salt (tightly packed in this order), done off-chain\n    uint256 pollId = TokenHolderRegistry(tokenHolderRegistry).getPollId(_projectId);\n    uint256 nonce = TokenHolderRegistry(tokenHolderRegistry).projectNonce();\n    //calculate available tokens for voting\n    uint256 availableTokens = PLCRVoting(plcrVoting).voteTokenBalanceW(msg.sender) - PLCRVoting(plcrVoting).getLockedTokens(msg.sender);\n    //make sure msg.sender has tokens available in PLCR contract\n    //if not, request voting rights for token holder\n    if (availableTokens < _tokens) {\n      require(balances[msg.sender] >= _tokens - availableTokens && _projectId <= nonce && _projectId > 0);\n      balances[msg.sender] -= _tokens;\n      totalFreeWorkerTokenSupply -= _tokens;\n      PLCRVoting(plcrVoting).requestVotingRights(msg.sender, _tokens - availableTokens);\n    }\n    PLCRVoting(plcrVoting).commitVote(msg.sender, pollId, _secretHash, _tokens, _prevPollID);\n  }\n\n  function voteReveal(uint256 _projectId, uint256 _voteOption, uint _salt) public {\n    uint256 pollId = TokenHolderRegistry(tokenHolderRegistry).getPollId(_projectId);\n    PLCRVoting(plcrVoting).revealVote(pollId, _voteOption, _salt);\n  }\n\n  function refundVotingTokens(uint256 _tokens) public {\n    PLCRVoting(plcrVoting).withdrawVotingRights(msg.sender, _tokens);\n    balances[msg.sender] += _tokens;\n    totalFreeWorkerTokenSupply += _tokens;\n  }\n\n\n  // =====================================================================\n  // FAILED / VALIDATED PROJECT\n  // =====================================================================\n\n  function updateTotal(uint256 _projectId, uint256 _tokens) public {\n    require(TokenHolderRegistry(tokenHolderRegistry).getProjectAddress(_projectId) == msg.sender);                  //check that valid project is calling this function\n    totalWorkerTokenSupply -= _tokens;\n  }\n\n\n  function refundStaker(uint256 _projectId) public {                                                                       //called by worker who staked or voted\n    address _projectAddress = TokenHolderRegistry(tokenHolderRegistry).getProjectAddress(_projectId);\n    uint256 _refund = Project(_projectAddress).refundStaker(msg.sender);\n    totalFreeWorkerTokenSupply += _refund;\n    balances[msg.sender] += _refund;\n  }\n\n  function rewardWorker(uint256 _projectId) public {                                   //called by worker who completed a task\n    address _projectAddress = TokenHolderRegistry(tokenHolderRegistry).getProjectAddress(_projectId);\n    uint256 _reward = Project(_projectAddress).rewardWorker(msg.sender);\n    if (_reward > 0) {\n      TokenHolderRegistry(tokenHolderRegistry).rewardWorker(msg.sender, _reward);\n    }\n\n  }\n}\n",
  "sourcePath": "/Users/jessicamarshall/Desktop/Distribute/contracts/WorkerRegistry.sol",
  "schemaVersion": "1.0.0",
  "updatedAt": "2017-10-16T17:13:31.736Z"
}